:100000000C94D0000C947D200C947D200C943B1F0C
:100010000C947D200C947D200C947D200C947D20EC
:100020000C947D200C94E7130C947D200C947D207F
:100030000C947D200C9447180C947D200C947D200A
:100040000C9420180C947D200C947D200C947D2021
:100050000C9452150C947D200C9479190C947D20ED
:100060000C947D200C947D200C947D200C947D209C
:100070000C948C150C947D200C949E196E0C830CA2
:10008000DF0C8C0CE80CD10CD80C9C0CA80CB40C1C
:10009000BE0CCA0C0100068480068406900040FE57
:1000A0000690069D800000407A10F35A00A0724E20
:1000B00018090010A5D4E80000E87648170000E40D
:1000C0000B54020000CA9A3B000000E1F505000055
:1000D00080969800000040420F000000A0860100BA
:1000E0000000102700000000E8030000000064008A
:1000F000000000000A0000000000010000000000F5
:100100002C76D888DC674F0823DFC1DFAE59E1B118
:10011000B796E5E3E453C63AE651997696E8E6C227
:100120008426EB898C9B62ED407C6FFCEFBC9C9F2E
:1001300040F2BAA56FA5F490055A2AF75C936B6C50
:10014000F9676DC11BFCE0E40D47FEF520E6B50044
:10015000D0ED902E0300943577050080841E0800B2
:1001600000204E0A000000C80C333333330F986E62
:1001700012831141EF8D2114893BE65516CFFEE61F
:10018000DB18D1844B381BF77C1D901DA4BBE424E5
:10019000203284725E228100C9F124ECA1E53D2762
:1001A00011241FBECFEFD0E1DEBFCDBFE4E9F0E008
:1001B00040E017C0B591A59135912591059107FDB6
:1001C0000CC095918591EF01F92FE82F05900D92C4
:1001D000A217B307D9F7FE0104C01D92A217B307F7
:1001E000E1F7E53AF40731F70E94D91E0C94F800C4
:0401F000F894FFCFB1
:1001F40049443D25752C206E3D25752C2073693DA1
:100204002575200D0A004661696C656420746F20B1
:10021400726561642074696D6500253032752D2521
:100224003032752D2530327554253032753A2530EB
:1002340032753A25303275006661696C6564007305
:100244007563636573730030303030303030303074
:1002540030303030303030003030303030303030CA
:10026400303030303030303030303030303030308A
:10027400303030303030303000416C6C2073657475
:1002840074696E6773207265736574004D75737459
:1002940020626520696E20666F726D61743A207900
:1002A400792D6D6D2D64645468683A6D6D3A73737D
:1002B400004661696C656420746F207365742074F2
:1002C400696D650064657665756900617070657552
:1002D40069006170706B65790070706D7800252E0F
:1002E40032660072726C78007663637800636F6CB8
:1002F4007300686561745F75705F7400686561742C
:100304002075702074696D653D2575206D006169E7
:10031400725F70756D705F74006169722070756DC5
:10032400702074696D653D257520730073705F6975
:100334006E74657276616C0073616D706C696E6762
:100344002070726F6365737320696E746572766171
:100354006C3D257520680074696D65004E6F7420CE
:10036400612076616C6964206F7065726174696F75
:080374006E00726573657400F0
:10037C002A2A2A2A2A2A2A2A204D657468616E653F
:10038C002053656E736F722076312E30202A2A2A04
:10039C002A2A2A2A2A0053657474696E67206D6FA5
:1003AC0064756C65732075702E2E2E20506C6561F3
:1003BC0073652077616974004661696C65642074AB
:1003CC006F20696E697469616C697A6520737973E1
:1003DC0074656D2E2E2E004E6F742076616C6964E0
:1003EC000057726F6E6720666F726D6174002A2AF7
:1003FC002A2A2A2A2A20526561647920666F722083
:10040C006E657720636F6D6D616E64202A2A2A2ACF
:04041C002A2A2A005E
:100420006F6E00506F776572206D657468616E65E0
:100430002073656E736F72206F6E006F666600507A
:100440006F776572206D657468616E652073656E87
:10045000736F72206F666600726561640045727228
:100460006F72207768656E2072656164696E6720BF
:10047000646174610050504D3D2575004E6F7420CD
:10048000612076616C6964206F7065726174696F58
:0B0490006E006D65746800636F320041
:10049B006578697400627265616B002A2A2A2A2AC0
:1004AB002A2A20596F752061726520646972656311
:1004BB00746C7920636F6E6E656374656420746F02
:1004CB0020524E32343833202A2A2A2A2A2A2A2A20
:1004DB00002D2D3E257300627265616B20307835DF
:1004EB003500436C6F73696E6720636F6E6E656367
:1004FB0074696F6E20746F20524E323438332E2E47
:07050B002E006C6F7261000D
:1005120025303278000D0A0073797320736C65659B
:100522007000257320256C64002573202573006DEF
:1005320061632073657420646576657569006D6119
:10054200632073657420617070657569006D616305
:1005520020736574206170706B6579006F66660048
:100562006D61632073657420616472006F6E006D4B
:10057200616320747820636E6600257320257520E0
:03058200257300DE
:08058500696E66006E616E00F4
:07058D00524E3234383300F6
:0505940046000002E337
:050599000010000081CC
:02059E00030058
:0105A0000258
:1005A200A4E1B0E0E7EDF2E00C94061C6C011A0144
:1005B200462E5901FC0110861782848181FF62C395
:1005C200CE0101969D878C87A0E88A8B9B8BAC8B92
:1005D200F101849147FC8081882309F44FC3442DA3
:1005E20091012F5F3F4F4F4F853219F01901442E71
:1005F2000AC0F901849147FD808192E0290E311CE5
:10060200411C853249F4B60190E00E941615BF865E
:10061200AE86AE84BF84DCCF10E0F12C00E0003265
:10062200A0F48B3269F030F4803259F0833269F4ED
:1006320000612CC08D3239F0803339F4016026C05C
:100642000260046023C0086021C007FD29C090ED4C
:10065200980F9A3078F406FF06C0AAE01A9F900D10
:100662001124192F13C0EAE0FE9E900D1124F92ED9
:1006720000620CC08E3221F406FD00C3006406C085
:100682008C3611F4006802C0883651F4F10184916D
:1006920047FC8081FFEF2F1A3F0A4F0A8111BFCF1B
:1006A2009BEB980F933018F40061805E06C09BE9C3
:1006B200980F933008F066C10F7E06FF16E00F73A5
:1006C200702E853621F4202F2064722E08C08636C3
:1006D20021F4802F8068782E02C01111115077FE0C
:1006E20007C01C3350F4EE24E394E10E27E00BC064
:1006F200183038F027E017E005C027E06CE3E62E5B
:1007020002C0212FE12CF5013496FF87EE87F50117
:1007120060817181828193810E2DAE014F5F5F4FA7
:100722000E94320A5C01598050FE02C053FE06C08C
:1007320071FC06C072FE06C000E205C00DE203C0F5
:100742000BE201C000E0852D8C7019F0011173C21B
:10075200BEC277FE0FC0EA0C54FE04C08A81813308
:1007620009F4EA941E1474F528E02E1578F538E0A1
:10077200E32E2CC076FC2AC0812F90E08A159B05BF
:100782009CF08CEFA8168FEFB80674F0972D906846
:10079200792E0AC0E2E0F0E0EC0FFD1FE10FF11D3F
:1007A2008081803319F411501111F4CF77FE0EC0FD
:1007B200EE24E394E10E812F90E0A816B9062CF402
:1007C2001A1904C0EE24E39401C010E077FE06C0BB
:1007D2001A141B0434F4C501019605C085E090E0AB
:1007E20002C081E090E001110196112331F0212F26
:1007F20030E02F5F3F4F820F931F2F2D30E0821783
:10080200930714F4F81A01C0F12C872D897049F46A
:10081200FF2039F0B60180E290E00E941615FA94AA
:10082200F7CF002329F0B601802F90E00E94161521
:1008320073FC09C0FF2039F0B60180E390E00E940A
:100842001615FA94F7CF77FE49C03501B7FE02C0FC
:10085200612C712CC5018619970988248394912CE7
:100862008C0E9D1E880E991EF501EE19F109F98B69
:10087200E88B012F10E0119501951109FFEF6F161A
:100882007F0629F4B6018EE290E00E941615A614A6
:10089200B70444F088899989861597051CF4F401F8
:1008A200818101C080E3F1E06F1A71082FEF821A93
:1008B200920A601671062CF0B60190E00E9416159D
:1008C200DDCFA614B70439F49A81963318F4953320
:1008D20011F454FE81E3B60190E051C08A81813364
:1008E20019F0952D9F7E592EB60190E00E941615A3
:1008F200111105C074FC1CC085E690E01BC0B60156
:100902008EE290E00E94161502E0010F82E011E0F3
:10091200180FE1E0F0E0EC0FFD1FE80FF11D808100
:10092200B60190E00E941615812F1013F0CFE2CF8E
:1009320085E490E0B6010E941615B7FC05C0A1142B
:10094200B10439F454FE05C0B194A194B1088DE20A
:1009520001C08BE2B60190E00E94161580E3EAE046
:10096200AE16B1042CF08F5FAAE0AA1AB108F7CF35
:10097200B60190E00E941615B601C501C0960E940C
:10098200161572C1833631F0833791F0833509F041
:100992005DC024C0C50102969F878E87F5018081C4
:1009A20089836A887B888C88AA24A394B12C14C07A
:1009B200C50103969F878E87F501608071808280D2
:1009C20006FF03C0412F50E002C04FEF5FEF882DBA
:1009D200B3010E94581C5C010F7715C0C501039634
:1009E2009F878E87F50160807180828006FF03C039
:1009F200412F50E002C04FEF5FEF882DB3010E94FC
:100A0200581C5C01006803FD1DC08F2D90E0A816E4
:100A1200B906C0F4B60180E290E00E941615FA947D
:100A2200F4CFF301849187FC8081FFEF6F1A7F0A74
:100A32008F0AB60190E00E941615F110FA9421E097
:100A4200A21AB108A114B10461F70EC1843611F0E3
:100A5200893679F5C50107FF09C004969F878E87FD
:100A6200F50160817181828193810AC002969F871C
:100A72008E87F50160817181072E000C880B990B1E
:100A82000F76E02E97FF0AC090958095709561953C
:100A92007F4F8F4F9F4FF02FF068EF2E2AE030E00C
:100AA200AE014F5F5F4F0E941C11A82E2C85A21A27
:100AB2004BC0853729F40F7EE02E2AE030E025C0B6
:100AC200902F997FE92E8F36C1F018F4883579F08E
:100AD200D5C0803719F0883721F0D0C0A92FA06186
:100AE200EA2EE4FE0DC0EE2DE460EE2E09C004FFF6
:100AF2000AC0F92FF660EF2E06C028E030E005C0EC
:100B020020E130E002C020E132E0C501E7FE09C089
:100B120004969F878E87F50160817181828193811E
:100B220008C002969F878E87F5016081718180E0FF
:100B320090E0AE014F5F5F4F0E941C11A82EFC8512
:100B4200AF1A2E2D2F77E22EE6FE0BC00E2D0E7F52
:100B5200A11650F4E4FE0AC0E2FC08C00E2D0E7E7F
:100B620005C0BA2C0E2D03C0BA2C01C0B12E04FF51
:100B72000DC0FE01EA0DF11D8081803311F4097E62
:100B820009C002FF06C0B394B39404C0802F8678D4
:100B920009F0B39403FD11C000FF06C0BF1488F42E
:100BA200FA0C1F2D1B190EC0BF1460F4B60180E2AF
:100BB20090E00E941615B394F7CFBF1418F4FB18F7
:100BC20002C01A2DF12C04FF10C0B60180E390E0A0
:100BD2000E94161502FF17C001FD03C088E790E0CE
:100BE20002C088E590E0B6010CC0802F867859F0EB
:100BF20001FF02C08BE201C080E207FD8DE2B60177
:100C020090E00E941615A11638F4B60180E390E038
:100C12000E9416151150F7CFAA94E1E0F0E0EC0F14
:100C2200FD1FEA0DF11D8081B60190E00E941615AC
:100C3200A110F2CF19C0F4E0FF1580F584E0F81A94
:100C420073FE23C001112BC053FE2FC059E8852E1D
:100C520055E0952E50E0A52E072D0071F4018491E8
:100C6200A7FC8081811128C0FF2009F4D2CCB601F3
:100C720080E290E00E941615FA94F6CFF601878181
:100C820090852CC08FEF9FEF29C0B60180E290E0E3
:100C92000E941615FA94F110F8CFD4CFF12CB601B8
:100CA200802F90E00E941615CFCF45E8842E45E0B4
:100CB200942E40E0A42ED0CF01118052B60190E0D4
:100CC2000E941615FFEF8F1A9F0AAF0AC7CF23E0C3
:100CD2002F1510F483E0B3CFF12CB6CF6496E2E186
:040CE2000C943D1C15
:100CE6002F923F924F925F926F927F928F92AF9226
:100CF600BF92CF92DF92EF920F931F93CF93DF9322
:100D060000D000D000D0CDB7DEB73B01882E5A0107
:100D160019014115510521F0FA016083718382831F
:100D26002114310429F0C1010297839708F01AC1F2
:100D3600E82C6301FFEFCF1ADF0AEF0AF3011491E3
:100D460087FC1081812F90E00E946C1F4C2D3D2D59
:100D56002E2D892B19F036018E2CEACF1D3269F41F
:100D6600E82C630152E0C50ED11CE11CE42FF32FE1
:100D7600149127FD108101E00EC01B3259F4E82CB6
:100D8600630182E0C80ED11CE11CE42FF32F1491FD
:100D960027FD108100E02114310409F190E12916A4
:100DA600310429F43FC010E32114310421F1F8E0A5
:100DB6002F16310401F154F432E02316310421F5E3
:100DC600412C512C612C50E4752E4BC04AE0241660
:100DD600310439F050E125163104B1F43DC0103329
:100DE60019F13AE0232E312C4CEC442E542C642C71
:100DF6004CE0742E36C098E0292E312C412C512C13
:100E0600612C20E1722E2DC060E070E080E090E859
:100E16009101032C000C440B550B0E94B91A2901B1
:100E26003A011FC01033C1F4F6018491E7FC8081BA
:100E36008F7D883509F0B7CFAE2DC6010196A11D6D
:100E4600FC011491A7FD1081E2E0CE0ED11CE11C3D
:100E5600026060E1262E312C412C512C612C88E059
:100E6600782EA0E060E070E0CB019101032C000C2D
:100E7600440B550B29833A834B835C83E0EDE10FEA
:100E8600EA3060F02FEB210F2A3110F4E9EC05C0AF
:100E96002FE9210F2A3150F5E9EAE10F2E2F30E034
:100EA600221533051CF5A7FD18C046165706680619
:100EB600790680F029813A814B815C810E94491E26
:100EC6006E0F711D811D911D61307105810530E820
:100ED600930710F0AFEF01C0A1E0F6011491E7FC13
:100EE60010814FEFC41AD40AE40AC8CF202F21700C
:100EF600A114B104B1F0AA2349F051E0C51AD108F2
:100F0600E108F501C082D182E2820BC001FF1DC05B
:100F1600F2E0CF1AD108E108F501C082D182E2825F
:100F260014C0A7FF12C0222329F060E070E080E021
:100F360090E804C06FEF7FEF8FEF9FE722E230E08B
:100F46003093B7042093B60409C0222381F090950C
:100F56008095709561957F4F8F4F9F4F462F372F06
:100F6600282F12C040E030E020E090E00DC097FF4F
:100F7600F5CF82E290E09093B7048093B6046FEFCA
:100F86007FEF8FEF9FE7EACF642F732F822F26968E
:100F96000FB6F894DEBF0FBECDBFDF91CF911F9184
:100FA6000F91EF90DF90CF90BF90AF908F907F9092
:0C0FB6006F905F904F903F902F90089537
:100FC200CF92DF92EF92FF920F931F93CF93DF9313
:100FD200CDB7DEB768970FB6F894DEBF0FBECDBFB0
:100FE2006B01E82EF42E052F21E0AE014F5F5F4F1B
:100FF2000E940E13182F882309F423C18E2DB601E7
:101002000E94CF17823009F41BC1CE0101966C01F8
:1010120020E8E22E28EC32E040E08E2DB6010E945C
:10102200FC1A892B29F48F2D902F0E94F01C09C1E4
:101032002FEC32E040E08E2DB6010E94FC1A892B83
:1010420029F48F2D902F0E94081DFBC026ED32E05F
:1010520040E08E2DB6010E94FC1A892B29F48F2DB7
:10106200902F0E94201DEDC02DED32E040E08E2D2C
:10107200B6010E94FC1A892BE1F4CE0145960E942A
:10108200591E888D8F938F898F938E898F938D8927
:101092008F9382EE92E0A0E0AF939F938F930F9392
:1010A200FF920E94521A0FB6F894DEBF0FBECDBF58
:1010B200C8C027EE32E040E08E2DB6010E94FC1A35
:1010C200892BE1F4CE0145960E94681E888D8F938C
:1010D2008F898F938E898F938D898F9382EE92E081
:1010E200A0E0AF939F938F930F93FF920E94521AA7
:1010F2000FB6F894DEBF0FBECDBFA3C02CEE32E018
:1011020040E08E2DB6010E94FC1A892BE1F4CE013B
:1011120045960E94771E888D8F938F898F938E8933
:101122008F938D898F9382EE92E0A0E0AF939F938D
:101132008F930F93FF920E94521A0FB6F894DEBF5C
:101142000FBECDBF7EC021EF32E040E08E2DB60152
:101152000E94FC1A892B29F48F2D902F0E94BE1019
:1011620070C026EF32E040E08E2DB6010E94FC1ADC
:10117200892BA1F40E9412201F928F9380E093E0AA
:10118200A0E0AF939F938F930F93FF920E94521A06
:101192000FB6F894DEBF0FBECDBF53C022E133E0DD
:1011A20040E08E2DB6010E94FC1A892BA1F40E9408
:1011B2001E209F938F938DE193E0A0E0AF939F93C6
:1011C2008F930F93FF920E94521A0FB6F894DEBFCC
:1011D2000FBECDBF36C020E333E040E08E2DB60116
:1011E2000E94FC1A892BA1F40E942A201F928F933D
:1011F2008CE393E0A0E0AF939F938F930F93FF92C2
:101202000E94521A0FB6F894DEBF0FBECDBF19C0AE
:101212002BE533E040E08E2DB6010E94FC1A892BAB
:1012220029F48F2D902F0E9459130BC026E130E034
:1012320040E653E060E08F2D902F0E94BF1C01C05A
:1012420010E0812F68960FB6F894DEBF0FBECDBFB7
:10125200DF91CF911F910F91FF90EF90DF90CF9090
:021262000895ED
:101264006F927F928F92AF92BF92CF92DF92EF9262
:101274001F93CF93DF93CDB7DEB764970FB6F8947F
:10128400DEBF0FBECDBF3B01882E5A0121E0AE0167
:101294004F5F5F4F0E940E13182F882309F4CDC0AF
:1012A400CE0101966C0120E8E22E28EC32E040E009
:1012B4008E2DB6010E94FC1A892B39F4A501882DC4
:1012C400B3010E946214182FB8C02FEC32E040E042
:1012D4008E2DB6010E94FC1A892B39F4A501882DA4
:1012E400B3010E949E14182FA8C026ED32E040E0FE
:1012F4008E2DB6010E94FC1A892B39F4A501882D84
:10130400B3010E94DA14182F98C02DED32E040E0AA
:101314008E2DB6010E94FC1A892B39F4A501882D63
:10132400B3010E94BB18182F88C027EE32E040E0BA
:101334008E2DB6010E94FC1A892B39F4A501882D43
:10134400B3010E94E118182F78C02CEE32E040E07F
:101354008E2DB6010E94FC1A892B39F4A501882D23
:10136400B3010E940719182F68C021EF32E040E052
:101374008E2DB6010E94FC1A892B39F4A501882D03
:10138400B3010E94EA0C182F58C026EF32E040E067
:101394008E2DB6010E94FC1A892B39F4A501882DE3
:1013A400B3010E942D19182F48C022E133E040E018
:1013B4008E2DB6010E94FC1A892B39F4A501882DC3
:1013C400B3010E94F817182F38C020E333E040E03F
:1013D4008E2DB6010E94FC1A892B39F4A501882DA3
:1013E400B3010E945319182F28C026E733E040E0C8
:1013F4008E2DB6010E94FC1A892B39F4A501882D83
:10140400B3010E940D0F182F18C02BE533E040E004
:101414008E2DB6010E94FC1A892B39F4A501882D62
:10142400B3010E948E0E182F08C026E130E040E67A
:1014340053E060E0C5010E94BF1C812F64960FB683
:10144400F894DEBF0FBECDBFDF91CF911F91EF9017
:10145400DF90CF90BF90AF908F907F906F90089562
:10146400283008F027E03327DA01990F311D87FD72
:10147400916000966105710539F432602E5F3D93E9
:1014840030E32A95E1F708959F3F30F080387105E5
:10149400610509F03C5F3C5F3D93913008F0806842
:1014A400911DDF93CF931F930F93FF92EF92192F08
:1014B400987F9695E92F96959695E90FFF27E0502A
:1014C400FF4F99273327EE24FF24A701E701059056
:1014D4000894079428F4360FE71EF81E491F511D7F
:1014E400660F771F881F991F0694A1F7059007942C
:1014F40028F4E70EF81E491F561FC11D770F881FD9
:10150400991F661F0694A1F70590079428F4F80E16
:10151400491F561FC71FD11D880F991F661F771FAC
:101524000694A1F70590079420F4490F561FC71F8E
:10153400D81F990F661F771F881F0694A9F78491F7
:101544001095177041F0D695C79557954795F79420
:10155400E7941A95C1F7E6EAF0E0689415901591BE
:1015640035916591959105907FE27395E118F10AA3
:10157400430B560BC90BD009C0F7E10CF11E431FF6
:10158400561FC91FD01D7EF4703311F48A95E6CF1F
:10159400E894015030F0080F0AF40027021708F409
:1015A400202F2395022F7A3328F079E37D932A950F
:1015B400E9F710C07D932A9589F606949795679567
:1015C400379517951794E118F10A430B560BC90B7D
:1015D400D00998F023957E9173957A3308F070E3DF
:1015E4007C932013B8F77E9170617D9330F08395DE
:1015F40071E37D9370E32A95E1F71124EF90FF9056
:101604000F911F91CF91DF91992787FD90950895B0
:101614006F927F928F92CF92DF92EF92CF93DF936C
:10162400C0E0C23029F128F4CC2359F0C130B1F024
:10163400F8CFC43009F451C008F1C53009F480C0B2
:10164400F0CF0E941D1B0E9456200E946E2066EA65
:1016540074E080E00E94A213C1E0E3CF0E94B11FB6
:101664008823F9F28EEE93E00E94A71DC2E0D9CF41
:101674008EEE93E00E94A617C82FD3CF8EEE93E090
:101684006C0120E8E22E2F93DF928F938CED94E08F
:10169400A0E0AF939F938F93C6E2D3E0DF93CF9301
:1016A4000E94521A3E0120E8822E882DB3010E9426
:1016B400A213AE016C2D7D2D8E2D0E947120882DDC
:1016C400B3010E94A2138DB79EB708960FB6F89483
:1016D4009EBF0FBE8DBFC1E0A4CF82EE94E0A0E018
:1016E400AF939F938F938CED94E0A0E0AF939F937F
:1016F4008F93C6E2D3E0DF93CF930E94521A6E0118
:1017040080E8E82E8E2DB6010E94A2139FE728E3FD
:1017140081E0915020408040E1F700C00000CE01FC
:101724000E9474208E2DB6010E94A2138DB79EB71D
:1017340008960FB6F8949EBF0FBE8DBFC1E071CF5F
:101744000E9447206DEE74E080E00E94A21381E0C5
:10175400DF91CF91EF90DF90CF908F907F906F903B
:021764000895E6
:101766000F931F93CF93DF93CDB7DEB727970FB6AF
:10177600F894DEBF0FBECDBF8C0121E040EA55E0F4
:1017860060E081E50E94451F81117CC047E0BE01F3
:101796006F5F7F4F81E50E94D81C811175C029813A
:1017A600822F8F7790E09595879595958795959556
:1017B600879595958795880F982F990F990F890F7B
:1017C6002F70820FF80180832A81822F8F7790E015
:1017D60095958795959587959595879595958795EB
:1017E600880F982F990F990F890F2F70820F818379
:1017F6002B81822F8F7390E0959587959595879588
:101806009595879595958795880F982F990F990F98
:10181600890F2F70820F82832C81822F8F7390E025
:10182600959587959595879595958795959587959A
:10183600880F982F990F990F890F2F70820F838326
:101846002E81822F8F7190E0959587959595879536
:101856009595879595958795880F982F990F990F48
:10186600890F2F70820F84838F81982F92959F7096
:10187600990F292F220F220F920F8F70890F8583C0
:1018860080E003C082E001C082E027960FB6F8949C
:10189600DEBF0FBECDBFDF91CF911F910F9108958F
:1018A600CF930E94591BC0E00DC0C2E00BC0C5E03B
:1018B60009C0C6E007C0C5E005C0C5E003C0C5E075
:1018C60001C0C5E0EC2FF0E0EC30F105D8F7E25CA2
:1018D600FF4F0C9436206CE773E080E00E94A21361
:1018E60062EA73E080E00E94A2130E94CF1D81117C
:1018F600DCCF64EC73E080E00E94A213C4E0E2CF88
:101906000E94B11F8111C3E00E94B81F8111CFCF81
:10191600D9CF8EEE93E00E94A71D8EEE93E00E9433
:101926005117882331F28EEE93E00E94BB1DC82F1B
:10193600C9CF6EEE73E080E846E253E00E94E1070D
:10194600882309F4B8CFCBE0BDCF6EEE73E080E814
:1019560046E253E00E943209882309F4AECFCBE079
:10196600B1CF6EEE73E080E80E947C17882309F4FD
:10197600A6CFC2E0A7CF6EEE73E080E846E253E062
:101986000E947712882309F49CCFCBE09BCF66E2B6
:1019960073E080E80E94A213C2E094CF63EE73E086
:1019A60080E00E94A213C2E08DCF6DEE73E080E06E
:1019B6000E94A213C2E086CF0E944C206AEF73E019
:0E19C60080E00E94A213C1E07DCFCF91089572
:1019D4004F925F926F927F928F92AF92BF92CF920B
:1019E400DF92EF92FF920F931F93CF93DF93CDB7C4
:1019F400DEB7A3970FB6F894DEBF0FBECDBF3B0191
:101A0400882E5A0122E046E156E00E940E13182F58
:101A1400882309F45DC086E196E06C0120E8E22E9B
:101A24008E2DB6010E946A200FEF080F073008F0D0
:101A34004AC023E046E156E0882DB3010E940E130C
:101A4400182F882309F444C08E2DB6010E946A2001
:101A54002C0102978B329140C0F524E046E156E018
:101A6400882DB3010E940E13182F882389F18E2D1F
:101A7400B6010E946A206C0102978735924038F5BE
:101A840063E2CE0101967C010E94861F802F90E0C4
:101A9400FC01EE0FFF1FEE0FFF1FE80FF91FEE0D05
:101AA400FF1D51824082D382C282B70180E843E2A3
:101AB4000E94D41F28E030E043E452E060E0C50116
:101AC4000E94BF1C05C010E003C010E001C010E07C
:101AD400812FA3960FB6F894DEBF0FBECDBFDF9162
:101AE400CF911F910F91FF90EF90DF90CF90BF9017
:0E1AF400AF908F907F906F905F904F9008950D
:101B0200CF92DF92EF92FF920F931F93CF93DF93C7
:101B120000D0CDB7DEB7F42E052F22E046E656E020
:101B22000E940E13182F882309F46BC086E696E0F4
:101B32006C0120E8E22E20E234E040E08E2DB60176
:101B42000E94FC1A892B79F40E94951F81E00E9461
:101B5200271F28E130E043E254E060E08F2D902F10
:101B62000E94BF1C4EC02BE334E040E08E2DB60134
:101B72000E94FC1A892B79F40E94951F80E00E9432
:101B8200271F29E130E04FE354E060E08F2D902FD2
:101B92000E94BF1C36C028E534E040E08E2DB6011D
:101BA2000E94FC1A892B21F5CE0101960E9426176C
:101BB200882351F028E130E04DE554E060E08F2DBC
:101BC200902F0E94BF1C1DC08A818F9389818F93A1
:101BD20085E794E0A0E0AF939F938F930F93FF92DA
:101BE2000E94521A0FB6F894DEBF0FBECDBF09C0D5
:101BF20026E130E04CE754E060E08F2D902F0E9408
:101C0200BF1C812F0F900F90DF91CF911F910F91E9
:0A1C1200FF90EF90DF90CF9008954F
:101C1C001F93CF93DF9300D000D000D0CDB7DEB7A9
:101C2C00F9013DEC439F212D1124269526952695EF
:101C3C0010E1219FD0011124220FB22FBB0FBB0F3B
:101C4C002B0F421B4A2B4083539F212D1124269589
:101C5C002695269540E1249FD0011124220F422F76
:101C6C00440F440F240F521B5A2B5183639F412D59
:101C7C00112446954695469510E1419FD0011124BB
:101C8C00440F242F220F220F420F641B6A2B6283F6
:101C9C00739F412D112446954695469520E1429F10
:101CAC00D0011124440F242F220F220F420F741B3A
:101CBC007A2B7383839F412D112446954695469527
:101CCC0010E1419FB0011124440F242F220F220F49
:101CDC00420F841B862B8483939F312D11243695C0
:101CEC003695369520E1329FA0011124330F832FB6
:101CFC00880F880F380F931B942B958326960FB65D
:101D0C00F894DEBF0FBECDBFDF91CF911F91089528
:101D1C006F927F928F92DF92EF92FF920F931F93AD
:101D2C00CF93DF9300D000D000D0CDB7DEB73B010E
:101D3C00882E7A010E94631F22E046E156E0882D2E
:101D4C00B3010E940E13182F882309F44EC066E1CC
:101D5C0076E080E80E947D1D419749F025E230E055
:101D6C0040E952E060E0C7010E94BF1C3EC060E049
:101D7C0086E196E00E94731C882E63E086E196E073
:101D8C000E94731C782E66E086E196E00E94731C1C
:101D9C00682E69E086E196E00E94731C082F6CE0C7
:101DAC0086E196E00E94731CD82E6FE086E196E0E7
:101DBC000E94731C482F5D2D602F762D872D982D3A
:101DCC000E946A16882349F023E130E045EB52E08B
:101DDC0060E0C7010E94BF1C08C028E030E043E46B
:101DEC0052E060E0C7010E94BF1C812F26960FB6FF
:101DFC00F894DEBF0FBECDBFDF91CF911F910F9135
:0E1E0C00FF90EF90DF908F907F906F90089581
:101E1A000F931F93CF93DF93CDB7DEB7A3970FB678
:101E2A00F894DEBF0FBECDBF8A016BE472E080E09A
:101E3A000E94771B6BE472E080E00E94941B6CE5C1
:101E4A0072E080E00E94B11B60E070E080E89FE3EE
:101E5A000E94BF1F60E070E48CE195E40E94C61FF7
:101E6A0060E070E080EA90E40E94CD1F82E00E9468
:101E7A000C2085E090E00E94182086E00E94242031
:101E8A0080E01AC0E82FF0E09F01220F331F220FD3
:101E9A00331FE20FF31F21E030E02C0F3D1FE20F4A
:101EAA00F31F92E0948322E030E03183208323E021
:101EBA0030E0338322838F5F873020F3BE016F5F68
:101ECA007F4F80E843E20E94D41F23E130E04DE7D0
:101EDA0052E060E0C8010E94BF1C81E0A3960FB6E1
:101EEA00F894DEBF0FBECDBFDF91CF911F910F9146
:021EFA00089549
:101EFC0010C00E94E91F58F00E94E21F40F029F424
:101F0C005F3F29F00C94302051110C94F11F0C946C
:101F1C0077200E94751A68F39923B1F3552391F336
:101F2C00951B550BBB27AA2762177307840738F03C
:101F3C009F5F5F4F220F331F441FAA1FA9F335D099
:101F4C000E2E3AF0E0E832D091505040E695001C4D
:101F5C00CAF72BD0FE2F29D0660F771F881FBB1F07
:101F6C00261737074807AB07B0E809F0BB0B802DE5
:101F7C00BF01FF2793585F4F3AF09E3F510578F011
:101F8C000C9430200C94F11F5F3FE4F3983ED4F393
:101F9C00869577956795B795F7959F5FC9F7880FE5
:101FAC00911D9695879597F90895E1E0660F771F37
:101FBC00881FBB1F621773078407BA0720F0621BC8
:0E1FCC00730B840BBA0BEE1F88F7E095089597
:101FDA000FC00E94E21F38F00E94E91F20F09523EB
:101FEA0011F00C9430200C94772011240C94F11FDA
:101FFA000E94751A70F3959FC1F3950F50E0551F13
:10200A00629FF001729FBB27F00DB11D639FAA2743
:10201A00F00DB11DAA1F649F6627B00DA11D661F92
:10202A00829F2227B00DA11D621F739FB00DA11DB3
:10203A00621F839FA00D611D221F749F3327A00D6D
:10204A00611D231F849F600D211D822F762F6A2F09
:10205A0011249F5750409AF0F1F088234AF0EE0F6E
:10206A00FF1FBB1F661F771F881F91505040A9F79B
:10207A009E3F510580F00C9430200C94F11F5F3F75
:10208A00E4F3983ED4F3869577956795B795F795D7
:10209A00E7959F5FC1F7FE2B880F911D969587954F
:0420AA0097F9089505
:1020AE0011C00E94E21F38F00E94E91F20F039F49F
:1020BE009F3F19F426F40C9477200EF4E095E7FB7D
:1020CE000C943020E92F0E94751A58F3BA17620744
:1020DE0073078407950720F079F4A6F50C94F01F8A
:1020EE000EF4E0950B2EBA2FA02D0B01B901900125
:1020FE000C01CA01A0011124FF27591B99F0593F69
:10210E0050F4503E68F11A16F040A22F232F342FB0
:10211E004427585FF3CF469537952795A795F040FE
:10212E005395C9F77EF41F16BA0B620B730B840B13
:10213E00BAF09150A1F0FF0FBB1F661F771F881FCB
:10214E00C2F70EC0BA0F621F731F841F48F4879523
:10215E0077956795B795F7959E3F08F0B0CF939515
:0E216E00880F08F09927EE0F97958795089532
:10217C00CF92DF92EF92FF921F93CF93DF93CDB765
:10218C00DEB7A3970FB6F894DEBF0FBECDBF7C01B0
:10219C0063E2CE0101960E94861FF701108210E0C7
:1021AC0035C0812F90E0FC01EE0FFF1FEE0FFF1FDB
:1021BC00E80FF91F21E030E02C0F3D1FE20FF31F59
:1021CC0023812F9322812F9321812F9320812F9371
:1021DC0001969F938F9384EF91E0A0E0AF939F9330
:1021EC008F930F2EF6E1CF2EF6E0DF2EF02DDF923F
:1021FC00CF920E94521AA60160E8C7010E94661D88
:10220C001F5F0FB6F894DEBF0FBECDBF173048F27C
:10221C00A3960FB6F894DEBF0FBECDBFDF91CF9162
:0C222C001F91FF90EF90DF90CF9008957D
:10223800FA01AA27283051F1203181F1E8946F93EF
:102248006E7F6E5F7F4F8F4F9F4FAF4FB1E03ED095
:10225800B4E03CD0670F781F891F9A1FA11D680F33
:10226800791F8A1F911DA11D6A0F711D811D911D66
:10227800A11D20D009F468943F912AE0269F1124DB
:102288003019305D3193DEF6CF010895462F47703F
:10229800405D4193B3E00FD0C9F7F6CF462F4F709A
:1022A800405D4A3318F0495D31FD4052419302D0F8
:1022B800A9F7EACFB4E0A69597958795779567959E
:1022C800BA95C9F700976105710508959B01AC019E
:1022D8000A2E06945795479537952795BA95C9F7C5
:0C22E800620F731F841F951FA01D089536
:1022F400CF92DF92EF92FF920F931F93CF93DF93CE
:102304006C0110E008C0CC0DDD1D88818E3211F403
:102314001F5F0CC01F5FC12FD0E0B60180E80E9490
:102324007D1D0197C817D90770F310E0112371F1CF
:10233400C10ED11C80E8E82E8E2DB6010E947D1DB1
:10234400C82F8E2DB6010E946A208C010F2EC12C3D
:10235400D12CF0E8EF2EFFE3FF2EF02D0BC020E090
:1023640030E040E251E4C701B6010E9466206B01EF
:102374007C01C150C111F3CFB80180E090E00E940C
:102384002514A70196010E94622003C060E070E05A
:10239400CB01DF91CF911F910F91FF90EF90DF90D0
:0423A400CF90089539
:1023A800FF920F931F93CF93DF9300D0CDB7DEB783
:1023B800F42E052F22E046E656E00E940E13182F51
:1023C8008823B9F166E676E080E828E534E040E065
:1023D8000E94FC1A892B21F5CE0101960E94CC1E81
:1023E800882351F028E130E04DE554E060E08F2D7E
:1023F800902F0E94BF1C1DC08A818F9389818F9363
:1024080085E794E0A0E0AF939F938F930F93FF929B
:102418000E94521A0FB6F894DEBF0FBECDBF09C096
:1024280026E130E04CE754E060E08F2D902F0E94C9
:10243800BF1C812F0F900F90DF91CF911F910F91AB
:04244800FF90089564
:10244C000F931F93CF93DF9300D000D000D0CDB764
:10245C00DEB78C018FEF9FEFF801918380830E9490
:10246C004220811107C08EEF9FEFF801918380838A
:10247C0083E02CC022E04EE955E060E081E60E944A
:10248C00B21E81111EC08FE39FE10197F1F700C0CE
:10249C00000046E0BE016F5F7F4F81E60E948D1CFD
:1024AC00811111C0CE0101960E94A61C882369F0EF
:1024BC00CE0101960E94BF1EF8019183808380E0BB
:1024CC0005C081E003C081E001C081E026960FB613
:1024DC00F894DEBF0FBECDBFDF91CF911F910F914E
:0224EC00089551
:1024EE006F927F928F92CF92DF92EF920F931F9304
:1024FE00CF933B01882E8A0121E046E656E00E94EA
:10250E000E13C82F882369F186E696E06C0120E849
:10251E00E22E22E934E040E08E2DB6010E94FC1A34
:10252E00892B39F4A801882DB3010E94810DC82F83
:10253E0018C027E934E040E08E2DB6010E94FC1A47
:10254E00892B39F4A801882DB3010E94D411C82F0C
:10255E0008C026E130E04CE754E060E0C8010E947C
:10256E00BF1C8C2FCF911F910F91EF90DF90CF90CA
:08257E008F907F906F9008958B
:102586008F929F92AF92BF92CF92DF92EF92FF927D
:10259600BC0180E090E00E94251420E030E040E895
:1025A60059E30E94662080908C0690908D06A0903C
:1025B6008E06B0908F06A50194010E9466206B01DD
:1025C6007C019B01AC01C501B4010E94DB1FA70180
:1025D60096010E94622020918806309189064091DA
:1025E6008A0650918B060E946620209184063091BF
:1025F600850640918606509187060E9466200E94B5
:102606009E16CB01FF90EF90DF90CF90BF90AF90DA
:062616009F908F900895D3
:10261C008F929F92AF92CF92DF92EF92FF920F9395
:10262C001F93CF93DF936B01E82EEA01F22E0E94E9
:10263C00CF178F1558F18E2DB6010E947D1D8C0180
:10264C004F2D8E2DB6010E94C61590E015C0460187
:10265C00AE2C820E931EA11C37FDAA944A2D940118
:10266C00F401249147FD2081203259F0FE01E90F3D
:10267C00F11D20838F5F9F5F282F30E020173107DB
:10268C0030F3C90FD11D188281E001C080E0DF91C9
:10269C00CF911F910F91FF90EF90DF90CF90AF9063
:0626AC009F908F9008953D
:1026B2000F931F93CF93DF9300D000D000D0CDB7FC
:1026C200DEB7182F092F0E94631FCE0101960E94C8
:1026D200B30B882351F024E130E04AE052E060E09D
:1026E200812F902F0E94BF1C21C059814A813B81BA
:1026F2002C819D818E811F925F931F924F931F9217
:102702003F931F922F931F929F931F928F938EE15D
:1027120092E0A0E0AF939F938F930F931F930E9439
:10272200521A0FB6F894DEBF0FBECDBF26960FB673
:10273200F894DEBF0FBECDBFDF91CF911F910F91F5
:022742000895F8
:102744006F927F928F92CF92DF92EF923B01882E0D
:1027540080919C068111FCCF882DB3010E947D1DC0
:10276400BC0190E012C0292F30E0E82C6301C40EB4
:10277400D51EE11C57FDEA94F6014491E7FC408123
:10278400F901E854FB4F40839F5F492F50E04617FF
:10279400570748F3FB01E854FB4F8DE08083FB01AE
:1027A400E754FB4F8AE080836E5F60939C0681E070
:1027B40080939B068091B8048093CE00EF90DF90C5
:0A27C400CF908F907F906F900895E2
:1027CE001F920F920FB60F9211242F933F934F9398
:1027DE005F936F937F938F939F93AF93BF93CF939B
:1027EE00EF93FF93809194068F5F809394068032CF
:1027FE0099F410929406C0E00DC0EC2FF0E0EE0FAD
:10280E00FF1FE658F94F0190F081E02D309709F047
:10281E000995CF5FC53088F3FF91EF91CF91BF91AE
:10282E00AF919F918F917F916F915F914F913F915A
:0C283E002F910F900FBE0F901F90189567
:10284A00E89409C097FB3EF4909580957095619540
:10285A007F4F8F4F9F4F9923A9F0F92F96E9BB27F6
:10286A009395F695879577956795B795F111F8CF72
:10287A00FAF4BB0F11F460FF1BC06F5F7F4F8F4FDD
:10288A009F4F16C0882311F096E911C0772321F0D3
:10289A009EE8872F762F05C0662371F096E8862F6B
:1028AA0070E060E02AF09A95660F771F881FDAF7C2
:0A28BA00880F9695879597F9089509
:1028C400CF92DF92EF920F931F93CF938A0122E06E
:1028D40046E156E00E940E13C82F882329F186E1B1
:1028E40096E06C0120E8E22E8E2DB6010E947D1D3B
:1028F4004097C9F48E2DB6010E94771BC82F811111
:1029040009C027E030E04CE352E060E0C8010E94D7
:10291400BF1C0AC028E030E043E452E060E0C80194
:102924000E94BF1C01C0C0E08C2FCF911F910F915A
:08293400EF90DF90CF900895B1
:10293C00CF92DF92EF920F931F93CF938A0122E0F5
:10294C0046E156E00E940E13C82F882329F186E138
:10295C0096E06C0120E8E22E8E2DB6010E947D1DC2
:10296C004097C9F48E2DB6010E94941BC82F81117B
:10297C0009C027E030E04CE352E060E0C8010E945F
:10298C00BF1C0AC028E030E043E452E060E0C8011C
:10299C000E94BF1C01C0C0E08C2FCF911F910F91E2
:0829AC00EF90DF90CF90089539
:1029B400CF92DF92EF920F931F93CF938A0122E07D
:1029C40046E156E00E940E13C82F882329F186E1C0
:1029D40096E06C0120E8E22E8E2DB6010E947D1D4A
:1029E4008097C9F48E2DB6010E94B11BC82F8111A6
:1029F40009C027E030E04CE352E060E0C8010E94E7
:102A0400BF1C0AC028E030E043E452E060E0C801A3
:102A14000E94BF1C01C0C0E08C2FCF911F910F9169
:082A2400EF90DF90CF900895C0
:102A2C000F931F93CF93DF93FB01248121FD03C0F0
:102A3C008FEF9FEF2CC022FF16C047815085258158
:102A4C0036814217530744F4A081B1819D012F5F59
:102A5C003F4F318320838C93278130852F5F3F4FED
:102A6C003087278314C08B01EC01FB010184F285B4
:102A7C00E02D0995892BE1F6D80117968D919C9143
:102A8C001897019618969C938E931797CE01DF9109
:082A9C00CF911F910F910895E5
:102AA4001F920F920FB60F9211242F938F939F931F
:102AB400EF93FF938091950681110EC0E0919606E5
:102AC400E63950F481E08E0F80939606F0E0809111
:102AD400C600E050FF4F808380919606833080F0DB
:102AE40090E0FC01E150FF4F20812A3049F4FC01C1
:102AF400E250FF4F80818D3019F481E08093950678
:102B0400FF91EF919F918F912F910F900FBE0F9096
:042B14001F90189561
:102B18001F920F920FB60F9211242F938F939F93AA
:102B2800EF93FF938091990681110EC0E0919A0668
:102B3800E63950F481E08E0F80939A06F0E0809198
:102B4800CE00E058FA4F808380919A06833080F057
:102B580090E0FC01E158FA4F20812A3049F4FC0149
:102B6800E258FA4F80818D3019F481E080939906FC
:102B7800FF91EF919F918F912F910F900FBE0F9022
:042B88001F901895ED
:102B8C00CF92DF92EF920F931F93CF93DF93442357
:102B9C0029F1042F6B01E82EC0E0D0E010E014C046
:102BAC00AE2DC6018C0F9D1FA11DD7FDAA95FC0152
:102BBC008491A7FD8081803231F41F5F011303C023
:102BCC00CE0101960DC021968E2DB6010E947D1D61
:102BDC00C817D90728F380E090E002C080E090E0AD
:102BEC00DF91CF911F910F91EF90DF90CF900895CF
:102BFC006F927F928F92CF92DF92EF923B01882E51
:102C0C00809198068111FCCF882DB3010E947D1D07
:102C1C00682F90E012C0292F30E0E82C6301C20E1F
:102C2C00D31EE11C37FDEA94F6014491E7FC408188
:102C3C00F901EA56FE4F40839F5F961760F380932D
:102C4C00980681E080939706809196018093C60048
:0E2C5C00EF90DF90CF908F907F906F90089553
:102C6A00CF92DF92EF920F931F936B01E82E01151B
:102C7A00110519F101501109F6018491E7FC8081CF
:102C8A00882399F0F901949147FD9081992369F07D
:102C9A000115110551F0891308C08FEFC81AD80A17
:102CAA00E80A2F5F3F4F4F4FE5CF90E0F90124919B
:102CBA0047FD2081821B910902C080E090E01F91AC
:0A2CCA000F91EF90DF90CF90089576
:102CD400CF93DF93CDB7DEB764970FB6F894DEBF1A
:102CE4000FBECDBF9E01275F3F4F0E940E0E82E0B4
:102CF400898389858A838A858B838B858C838C855C
:102D04008D831E828D858F838E858887AE014F5F6C
:102D14005F4F60E828E081E50E94B21E882311F02D
:102D240082E001C080E064960FB6F894DEBF0FBE67
:082D3400CDBFDF91CF9108959E
:102D3C000E947D1A88F09F5798F0B92F9927B751A8
:102D4C00B0F0E1F0660F771F881F991F1AF0BA9543
:102D5C00C9F714C0B13091F00E94F01FB1E0089592
:102D6C000C94F01F672F782F8827B85F39F0B93F84
:102D7C00CCF3869577956795B395D9F73EF49095F6
:0E2D8C008095709561957F4F8F4F9F4F0895F2
:102D9A00EF92FF920F931F93CF93DF938C01D62F5D
:102DAA00C0E008C07801EC0EF11C0E944F1FF70129
:102DBA008083CF5F2C2F30E08D2F90E0019728176A
:102DCA00390784F38D2F90E00197E801C80FD91FC6
:102DDA000E94591F88830E947E1F80E0DF91CF9155
:0A2DEA001F910F91FF90EF900895E4
:102DF400EF92FF920F931F93CF93DF937C0110E028
:102E040000E00DC0CE0DDF1D88818E3221F401114A
:102E140011C001E003C080538A3070F41F5FC12FDA
:102E2400D0E0B70180E80E947D1DC817D90750F390
:102E340081E003C080E001C080E0DF91CF911F9169
:082E44000F91FF90EF9008953B
:102E4C000F931F93CF93DF9300D0CDB7DEB78C01D8
:102E5C008FEF9FEFF8019183808342E0BE016F5F9B
:102E6C007F4F8DE40E948D1C81110DC0898190E0F3
:102E7C00982F88272A81822B0E94C312F8019183F4
:102E8C00808380E001C081E00F900F90DF91CF91A3
:062E9C001F910F91089543
:102EA200CF93DF93EC01BC0180E80E947D1DBC0141
:102EB200FC013197EC0FFD1F80818032B1F020E0E0
:102EC20030E040E00DC0FE01E20FF31F908190322E
:102ED20021F441110CC041E001C040E02F5F3F4F9F
:102EE2002617370780F381E003C080E001C080E04D
:062EF200DF91CF9108956D
:102EF800CF93DF93CDB7DEB764970FB6F894DEBFF4
:102F08000FBECDBF21E0AE014F5F5F4F0E940E1391
:102F1800882379F0BE016F5F7F4F80E82DE035E0B0
:102F280040E00E94FC1A892B19F40E940A0B01C088
:102F380080E064960FB6F894DEBF0FBECDBFDF9178
:042F4800CF91089588
:102F4C00CF92DF92EF920F931F936C0120E8E22E49
:102F5C0004E010E02BE934E040E08E2DB6010E9435
:102F6C003516892B69F005E010E020EA34E040E0EA
:102F7C008E2DB6010E943516892B21F484E003C0F6
:102F8C0085E001C083E01F910F91EF90DF90CF900F
:022F9C00089596
:102F9E006F927F928F92CF92DF92EF923B01882EAB
:102FAE000E947D1DBC0120E030E080E010C0E82CC6
:102FBE006301C20ED31EE11C37FDEA94F601949113
:102FCE00E7FC9081903209F48F5F2F5F3F4F2617F9
:102FDE00370768F3EF90DF90CF908F907F906F90D0
:022FEE00089544
:102FF0000F931F93CF938A0122E046E156E00E948F
:103000000E13C82F8823B9F066E176E080E80E94AD
:103010006A209C0125503109243E334058F40E9417
:10302000182028E030E043E452E060E0C8010E944C
:10303000BF1C01C0C0E08C2FCF911F910F9108954C
:103040001F920F920FB60F9211242F933F934F931D
:103050005F936F937F938F939F93AF93BF93EF9300
:10306000FF93E0919006F09191060995FF91EF9101
:10307000BF91AF919F918F917F916F915F914F9190
:0E3080003F912F910F900FBE0F901F9018954B
:10308E001F920F920FB60F9211242F933F934F93CF
:10309E005F936F937F938F939F93AF93BF93EF93B2
:1030AE00FF93E0919206F09193060995FF91EF91AF
:1030BE00BF91AF919F918F917F916F915F914F9142
:0E30CE003F912F910F900FBE0F901F901895FD
:1030DC00CF92DF92EF92FF920F931F93CF93DF93D8
:1030EC008C01BC0180E80E946A20EC01C8010E949E
:1030FC007A116B017C01BE0180E090E00E942514E6
:10310C009B01AC01C701B6010E94DC1FDF91CF917E
:0E311C001F910F91FF90EF90DF90CF900895DC
:10312A00CF92DF92EF92CF93DF936A01E62ED22FEE
:10313A0060E00E94E819811113C0C0E00EC0AE2DF4
:10314A00C6018C0F911DA11DFC018491A7FD8081F0
:10315A000E94291E811104C0CF5FCD1780F380E041
:0C316A00DF91CF91EF90DF90CF9008959F
:103176000F931F93CF938A0122E046E156E00E9407
:103186000E13C82F8823A9F086E196E00E94FA164E
:10319600C82F882371F086E196E00E946E180E947F
:1031A600BF1F28E030E043E452E060E0C8010E941F
:0C31B600BF1C8C2FCF911F910F9108952A
:1031C2000F931F93CF938A0122E046E156E00E94BB
:1031D2000E13C82F8823A9F086E196E00E94FA1602
:1031E200C82F882371F086E196E00E946E180E9433
:1031F200C61F28E030E043E452E060E0C8010E94CC
:0C320200BF1C8C2FCF911F910F910895DD
:10320E000F931F93CF938A0122E046E156E00E946E
:10321E000E13C82F8823A9F086E196E00E94FA16B5
:10322E00C82F882371F086E196E00E946E180E94E6
:10323E00CD1F28E030E043E452E060E0C8010E9478
:0C324E00BF1C8C2FCF911F910F91089591
:10325A000F931F93CF938A0122E046E156E00E9422
:10326A000E13C82F8823A9F066E176E080E80E9451
:10327A006A209FEF980F983C58F40E940C2028E08F
:10328A0030E043E452E060E0C8010E94BF1C01C084
:0C329A00C0E08C2FCF911F910F91089580
:1032A6000F931F93CF938A0122E046E156E00E94D6
:1032B6000E13C82F8823A9F066E176E080E80E9405
:1032C6006A209AEF980F933158F40E94242028E040
:1032D60030E043E452E060E0C8010E94BF1C01C038
:0C32E600C0E08C2FCF911F910F91089534
:1032F2001F920F920FB60F9211248F93EF93FF93A9
:10330200E091970680919806E81758F481E08E0FB5
:1033120080939706F0E0EA56FE4F80818093C600C4
:1033220004C01092970610929806FF91EF918F9128
:0A3332000F900FBE0F901F9018952A
:10333C001F920F920FB60F9211248F93EF93FF935E
:10334C00E0919B0680919C06E81758F481E08E0F63
:10335C0080939B06F0E0E854FB4F80818093CE0075
:10336C0004C010929B0610929C06FF91EF918F91D6
:0A337C000F900FBE0F901F901895E0
:103386006F927F928F92CF92DF92EF920F931F935D
:103396003B01882E6901E42E842FB9010E947D1D10
:1033A6008C014E2D9601882DB3010E94351621E021
:1033B600892B09F020E0822F1F910F91EF90DF906B
:0A33C600CF908F907F906F900895D4
:1033D00090E0880F991F682B84EA8093BC0090913D
:1033E000BC009923E4F78091B900887F883099F474
:1033F0006093BB0084E88093BC008091BC0088236C
:10340000E4F78091B900887F883121F0803419F485
:0834100080E0089580E00895BA
:10341800CF93DF931F92CDB7DEB79AB192609AB976
:10342800E1ECF0E09081977F90839BB19D7F9BB901
:10343800AFE9BFE01197F1F700C0000090819860F4
:103448009083898361E0CE0101960E943B1B0F9017
:06345800DF91CF91089501
:10345E000E945A202FEF89E698E12150804090403B
:10346E00E1F700C000000E945E200E94AA1F882380
:10347E00E1F38EE592E00E94931D6EE572E080E826
:10348E002DE835E040E00E94C319882311F080E05A
:06349E00089581E008958D
:1034A400AFE0B0E0E8E5FAE10C94141C0E891F8942
:1034B40086E08D831A8309838FEF9FE79F838E8332
:1034C4009E01255E3F4F488D598D6A8DCE01019630
:1034D4000E94D102E885F985E00FF11F10822F9632
:0634E400E4E00C944B1C17
:1034EA0057FD9058440F551F59F05F3F71F04795AB
:1034FA00880F97FB991F61F09F3F79F08795089590
:10350A00121613061406551FF2CF4695F1DF08C0AE
:10351A00161617061806991FF1CF869571056105CB
:04352A000894089564
:10352E00CF92DF92EF9221503109C0F06B01E82E5D
:10353E00C20ED31EE11CCA01820F931F422F732F9E
:10354E00F6015E2D0E945120262F0E94F61D31E0BD
:10355E00C31AD108E1084150704090F7EF90DF9008
:04356E00CF9008955D
:10357200A1E21A2EAA1BBB1BFD010DC0AA1FBB1F75
:10358200EE1FFF1FA217B307E407F50720F0A21BE7
:10359200B30BE40BF50B661F771F881F991F1A9454
:1035A20069F760957095809590959B01AC01BD017E
:0435B200CF010895A8
:1035B60090E0880F991F282F216084EA8093BC0031
:1035C6009091BC009923E4F78091B900887F8031FF
:1035D60079F42093BB0084E88093BC008091BC0002
:1035E6008823E4F78091B900887F803409F480E06D
:0235F600089536
:1035F800CF92DF92EF926B01E82EF6018491E7FCFF
:103608008081F901549147FD508185130BC08823AF
:1036180041F08FEFC81AD80AE80A2F5F3F4F4F4F83
:10362800ECCF582F90E0851B9109EF90DF90CF9059
:023638000895F3
:10363A00E1ECF0E080818061808380818860808312
:10364A00808180688083808180648083E0ECF0E000
:10365A0080818260808386E08093C20080E190E06E
:0C366A009093C5008093C40078940895EC
:10367600DC01809198068111FCCF90E00BC0292FC8
:1036860030E0FD01E20FF31F4081F901EA56FE4FDB
:1036960040839F5F961798F36093980681E0809326
:0C36A6009706809196018093C60008955D
:1036B200E9ECF0E080818061808380818860808392
:1036C200808180688083808180648083E8ECF0E080
:1036D20080818260808386E08093CA0080E190E0EE
:0C36E2009093CD008093CC007894089564
:1036EE00CF92DF92EF926B01E82E0E947D1D4097E4
:1036FE0079F420E130E040E050E08E2DB6010E94DA
:10370E00971A61E080E490E00E94F51D81E001C00F
:0A371E0080E0EF90DF90CF90089557
:10372800CF92DF92EF926B01E82E0E947D1D4097A9
:1037380079F420E130E040E150E08E2DB6010E949E
:10374800971A61E081E490E00E94F51D81E001C0D4
:0A37580080E0EF90DF90CF9008951D
:10376200CF92DF92EF926B01E82E0E947D1D80972F
:1037720079F420E230E040E250E08E2DB6010E9462
:10378200971A61E082E490E00E94F51D81E001C099
:0A37920080E0EF90DF90CF900895E3
:10379C00CF93DF93EA01AB01682F8EE592E00E9494
:1037AC00951E8EE592E00E94A41E6EE572E080E804
:1037BC000E94FE150E94AA1F8823E1F3CE010E94ED
:0837CC00931DDF91CF910895D8
:1037D40025E044E955E060E081E60E94B21E8111D3
:1037E4000FC025E049E955E060E081E60E94B21E81
:1037F400811108C00E9442208823E1F380E00895EB
:0838040082E0089582E00895BE
:10380C002F923F924F925F926F927F928F929F92E4
:10381C00AF92BF92CF92DF92EF92FF920F931F93D2
:10382C00CF93DF93CDB7DEB7CA1BDB0B0FB6F89483
:08383C00DEBF0FBECDBF0994F1
:10384400AC0130E08FEF14C0FA01E30FF11D908159
:10385400892728E00AC0882334F490E0880F991F50
:1038640091E3892701C0880F21502111F4CF3F5FD4
:06387400361750F3089521
:10387A002A88398848885F846E847D848C849B84F6
:10388A00AA84B984C884DF80EE80FD800C811B8104
:10389A00AA81B981CE0FD11D0FB6F894DEBF0FBE33
:0638AA00CDBFED01089501
:1038B000CF92DF92EF926B01E82EA82FCB0141153A
:1038C000510531F48C199D09EF90DF90CF90089548
:1038D000FC012491A7FD20812223A1F30196A11DC3
:0638E00041505109ECCF3C
:1038E600CF93DF9300D01F92CDB7DEB7FC01E60F72
:1038F600F11D8081898381818A831B82BE016F5F6E
:103906007F4F80E80E946A200F900F900F90DF9102
:04391600CF910895B0
:10391A000F931F93CF93DF938B01D42F61E00E9403
:10392A00E819C82F882321F00E947E1F8C2F04C01B
:10393A006D2FC8010E94CD16DF91CF911F910F9173
:02394A000895DE
:10394C00CF93DF93EC0162E00E94221C9A818913D1
:10395C000AC062E0CE0103960E94221C9D81891749
:10396C0021F080E003C080E001C081E0DF91CF91C5
:02397C000895AC
:10397E00CF92DF92EF92DC016A01E62E280F391FFB
:10398E00A217B30751F0F6014491E7FC40814D9325
:10399E004FEFC41AD40AE40AF3CFEF90DF90CF9022
:0239AE0008957A
:1039B0000F931F93CF93DF938B01D42F0E94DB1AB9
:1039C000C82F882321F00E947E1F8C2F04C06D2FEA
:1039D000C8010E94CD16DF91CF911F910F910895DC
:1039E0000F931F93CF938C010E94F11EC82F882341
:1039F00051F020E130E040E050E060E0C8010E947A
:103A0000E31DF801108A8C2FCF911F910F9108951B
:103A10000F931F93CF938C010E94FC1EC82F882305
:103A200051F020E130E040E150E060E0C8010E9448
:103A3000E31DF801108A8C2FCF911F910F910895EB
:103A40000F931F93CF938C010E94071FC82F8823C9
:103A500051F020E230E040E250E060E0C8010E9416
:103A6000E31DF80110A28C2FCF911F910F910895A3
:103A7000BC0190E009C0FB01E90FF11DDA01A05083
:103A8000BF4F2C9120839F5F492F50E020919606D5
:0E3A900030E022503109421753076CF30895BD
:103A9E00BC0190E009C0FB01E90FF11DDA01A0584D
:103AAE00BA4F2C9120839F5F492F50E020919A06A8
:0E3ABE0030E022503109421753076CF308958F
:103ACC009A01462FDC01BD016F5F7F4F5C9155233E
:103ADC0011F0DB01F8CFF901549147FD50815D9352
:0E3AEC00552321F02F5F3F4F4F4FF5CF089528
:103AFA00CF92DF92EF926B01E82EA82FCB01FC0147
:103B0A002491A7FD2081222319F00196A11DF7CF48
:0C3B1A008C199D09EF90DF90CF9008956A
:103B26000F931F93CF938C010E94381DC091960668
:103B3600C250F801EC0FF11D10820E9447208C2F15
:083B4600CF911F910F9108952A
:103B4E000F931F93CF938C010E944F1DC0919A0625
:103B5E00C250F801EC0FF11D10820E944C208C2FE8
:083B6E00CF911F910F91089502
:103B7600FC018081823741F0873741F0833641F07E
:103B8600833741F48AE0089587E0089588E0089530
:083B960089E0089585E008951F
:103B9E000E94631F0E948E1F81E00E941D1F0E94C3
:103BAE009C1F81E00E94311F0E94071E882311F086
:083BBE0080E0089581E0089504
:103BC600BA01A901DC01CB01FC01F999FECF06C0BF
:103BD600F2BDE1BDF89A319600B40D9241505040C5
:043BE600B8F708958F
:103BEA00262FF999FECF92BD81BDF89A019700B4AC
:103BFA00021639F01FBA20BD0FB6F894FA9AF99A4C
:043C0A000FBE08954C
:103C0E000E94A31F81E00E94311F2FEF83ED90E3EE
:103C1E00215080409040E1F700C000000E94EA1B56
:023C2E000895F7
:103C3000092E0394000C11F4882352F0BB0F40F4BA
:103C4000BF2B11F460FF04C06F5F7F4F8F4F9F4FFA
:023C50000895D5
:103C52008093BB0084E88093BC008091BC008823E1
:103C6200E4F78091B900887F883209F480E00895F2
:103C7200CF93DF93EC0185E50E940C1A0E94AA1FE4
:103C82008823E1F3CE010E94931DDF91CF91089525
:103C9200DB018F939F930E94121FBF91AF91A29F4E
:103CA200800D911DA39F900DB29F900D1124089538
:103CB200CF93DF93EC0163E470E080E00E94FE1F8B
:0E3CC200688379838A839B83DF91CF91089575
:103CD000CF93DF93EC0167E470E080E00E94FE1F69
:0E3CE000688379838A839B83DF91CF91089557
:103CEE00CF93DF93EC016BE470E080E00E94FE1F47
:0E3CFE00688379838A839B83DF91CF91089539
:103D0C00A29FB001B39FC001A39F700D811D112410
:0E3D1C00911DB29F700D811D1124911D0895FF
:103D2A009A01462FDC01F901549147FD50815D93B8
:0E3D3A00552321F02F5F3F4F4F4FF5CF0895D7
:103D4800FC0101900020E9F7CF0123E030E047E1D2
:0C3D580055E060E001970E94BF1C089538
:103D6400CF930E949518C82F0E947E1FC11102C0D4
:0A3D740080E001C08C2FCF9108956C
:103D7E00FC015481438131812081652F742F832F63
:0A3D8E00922F0E949E16CB010895AB
:103D9800CF93DF93EC010E9442208823E1F3CE0108
:0A3DA8000E942612DF91CF910895CA
:103DB2000E94530C2FEF81E19AE7215080409040FE
:083DC200E1F700C00000F4CF9E
:103DCA000396272F0E94F61D0E94F51D252F0E949B
:083DDA00F61D242F0C94F61DC8
:103DE20060E470E080E80E94751F91E0811101C0DB
:063DF20090E0892F089506
:103DF80061E470E080E80E94751F91E0811101C0C4
:063E080090E0892F0895EF
:103E0E0062E470E080E80E94751F91E0811101C0AC
:063E1E0090E0892F0895D9
:103E24000E94861EA59F900DB49F900DA49F800DA7
:063E3400911D1124089508
:103E3A00882321F082B1886082B9089582B1877F90
:043E4A0082B908959C
:103E4E00882321F082B1806282B9089582B18F7D7C
:043E5E0082B9089588
:103E6200882321F082B1806182B9089582B18F7E68
:043E720082B9089574
:103E76001F920F920FB60F9211240F900FBE0F9044
:043E86001F901895DC
:103E8A00CF930E949518C82F81110E947E1F8C2FF4
:043E9A00CF91089527
:103E9E0084EC8093BC008091BC008823E4F7809171
:043EAE00BB000895B8
:103EB20084E88093BC008091BC008823E4F7809161
:043EC200BB000895A4
:103EC60080E28093B800E9EBF0E080818C7F80830C
:023ED60008954D
:103ED80091110C947A20803219F089508550C8F7D6
:023EE80008953B
:103EEA00CB01F999FECF92BD81BDF89A992780B589
:023EFA00089529
:103EFC0084E98093BC008091BC0084FDFCCF0895C4
:103F0C00262F30E044E650E060E00E94E31D089567
:0E3F1C0081B1886081B982B1877F82B9089532
:0E3F2A0081B1806281B982B18F7D82B9089524
:0E3F380081B1806181B982B18F7E82B9089516
:0E3F460087B18F7B87B988B18F7B88B90895CA
:0E3F54009091950681E0911101C080E00895E2
:0E3F62009091990681E0911101C080E00895D0
:0E3F700090919A0681E0953908F480E008955A
:0E3F7E00AB01BC0183E490E00E94E51E0895B3
:0E3F8C00AB01BC0187E490E00E94E51E0895A1
:0E3F9A00AB01BC018BE490E00E94E51E08958F
:0E3FA800242F30E044E650E00E94971A08955E
:0E3FB6005058BB27AA270E9457100C94181EC3
:0E3FC40000240A94161617061806090608951A
:0E3FD20000240A94121613061406050608951C
:0E3FE000E894BB2766277727CB0197F9089551
:0E3FEE002AE030E040E050E00E9473060895A3
:0E3FFC00CB01A6E1B0E044E050E00C94E71DDC
:0E400A00CB01A8E1B0E042E050E00C94E71DCD
:0C401800682F8FE490E00E94F51D0895D1
:0C4024006FE470E080E00E94751F0895BA
:0C403000BC0180E590E00E943C20089557
:0C403C0060E570E080E00E94052008951F
:0C404800682F82E590E00E94F51D0895AD
:0C40540062E570E080E00E94751F089596
:0C40600097F99F6780E870E060E0089529
:0C406C00EE0FFF1F0590F491E02D099469
:0C4078000196272F0E94F61D0C94F51DE8
:0A40840086B186FB882780F90895B5
:0A408E001092950610929606089510
:0A4098001092990610929A060895FE
:0A40A20057FD608157FF64910895F7
:0840AC0084B1806184B908951C
:0840B40085B18F7E85B90895E6
:0840BC0085B1806185B908950A
:0840C4000E947E0F0C94181EEF
:0840CC000E94ED0F0C94181E78
:0840D4000E94F71FCB010895C3
:0640DC000E942F1A089556
:0640E2000E94CE1B0895B0
:0640E8000E94391E08953C
:0640EE009FEF80EC089535
:0640F400992788270895BA
:0440FA000C94000022
:0440FE000000803FFF
:0441020000401C4518
:044106000000A040D5
:00000001FF
