:100000000C9409010C94E52E0C94E52E0C94352DDE
:100010000C94E52E0C94E52E0C94E52E0C94E52E14
:100020000C94E52E0C945E1A0C94E52E0C94E52E9F
:100030000C94E52E0C9411220C94E52E0C94E52ED4
:100040000C94EA210C94E52E0C94E52E0C94E52EEC
:100050000C94541E0C94E52E0C9491230C94E52ED4
:100060000C94E52E0C94E52E0C94E52E0C94E52EC4
:100070000C948E1E0C94E52E0C94B62380088909EE
:100080009F08BC08DB08FA081909380955097209E4
:1000900084099A099C090E1341132F135F135F13F0
:1000A0004E134C13611348134A13DD10F2104A111A
:1000B000FB1053113C1143110B111711231129117E
:1000C0003511CC09EC09FD090C0A1E0A010A270AA0
:1000D0003E0A330A490A550A620A6A0A720A7A0A09
:1000E000820A9E0AA50AB20AC80AD60ADF0A0100D5
:1000F0000F66800F660F89005DD20F890FAD800FEC
:10010000AD0FBE005DF50FBE0FD6800FD60FD80025
:100110005E060FD80FEE800000407A10F35A00A060
:10012000724E18090010A5D4E80000E876481700C0
:1001300000E40B54020000CA9A3B000000E1F50500
:10014000000080969800000040420F000000A0864A
:1001500001000000102700000000E803000000007C
:100160006400000000000A00000000000100000020
:1001700000002C76D888DC674F0823DFC1DFAE593A
:10018000E1B1B796E5E3E453C63AE651997696E8CD
:10019000E6C28426EB898C9B62ED407C6FFCEFBC51
:1001A0009C9F40F2BAA56FA5F490055A2AF75C937C
:1001B0006B6CF9676DC11BFCE0E40D47FEF520E6B2
:1001C000B500D0ED902E0300943577050080841E95
:1001D000080000204E0A000000C80C333333330FF0
:1001E000986E12831141EF8D2114893BE65516CF8D
:1001F000FEE6DB18D1844B381BF77C1D901DA4BB99
:10020000E424203284725E228100C9F124ECA1E54D
:100210003D2711241FBECFEFD0E1DEBFCDBFEEEEF4
:10022000F0E041E017C0B591A59135912591059178
:1002300007FD0CC095918591EF01F92FE82F0590EE
:100240000D92A217B307D9F7FE0104C01D92A217A1
:10025000B307E1F7E731F40731F70E946A2B0C94FA
:060260003101F894FFCF0C
:100266003030303441333042303046343534374123
:10027600003730423344353745443030334638341E
:1002860034004238384144364432354133423237FD
:1002960043363941303146373443353346394131B7
:1002A6003739004A6F696E0A0D004C6F526120574C
:1002B600414B452055500A0D005472792061676103
:1002C600696E0A0D00436F6E66206572720A0D0034
:1002D600494E4954205254430A0D00436C656172DD
:1002E60020696E746572727570740A0D00536574B8
:1002F6002077616B6520696E746572727570740A19
:100306000D004D72707020696E69740A0D00536C91
:100316006565700A0D004177616B650A0D004661DF
:1003260074616C206572726F720A0D00454E440A44
:020336000D00B8
:1003380049443D25752C206E3D25752C2073693D5B
:100348002575200D0A006661696C65640073756324
:1003580063657373003030303030303030303030D7
:1003680030303030300030303030303030303030B5
:100378003030303030303030303030303030303075
:1003880030303030303000416C6C207365747469E3
:100398006E67732072657365740064657665756948
:1003A80000617070657569006170706B65790070C7
:1003B800706D7800252E32660072726C7800766354
:1003C800637800636F6C73004E6F742061207661F0
:1003D8006C6964206F7065726174696F6E00726514
:0403E80073657400C5
:1003EC002A2A2A2A2A2A2A2A204D657468616E65CF
:1003FC002053656E736F722076312E30202A2A2A94
:10040C002A2A2A2A2A0053657474696E67206D6F34
:10041C0064756C65732075702E2E2E20506C656182
:10042C0073652077616974004661696C656420743A
:10043C006F20696E697469616C697A652073797370
:10044C0074656D2E2E2E004E6F742076616C69646F
:10045C000057726F6E6720666F726D6174002A2A86
:10046C002A2A2A2A2A20526561647920666F722012
:10047C006E657720636F6D6D616E64202A2A2A2A5F
:04048C002A2A2A00EE
:100490006F6E00506F776572206D657468616E6570
:1004A0002073656E736F72206F6E006F666600500A
:1004B0006F776572206D657468616E652073656E17
:1004C000736F72206F6666007265616400457272B8
:1004D0006F72207768656E2072656164696E67204F
:1004E000646174610050504D3D2575004E6F74205D
:1004F000612076616C6964206F7065726174696FE8
:0B0500006E006D65746800636F3200D0
:10050B0025303278000D0A0073797320736C6565A2
:10051B007000257320256C64002573202573006DF6
:10052B0061632073657420646576657569006D6120
:10053B00632073657420617070657569006D61630C
:10054B0020736574206170706B6579006F6666004F
:10055B006D61632073657420616472006F6E006D52
:10056B00616320747820636E6600257320257520E7
:03057B00257300E5
:10057E0065786974002A2A2A2A2A2A2A20596F7530
:10058E0020617265206469726563746C7920636F93
:10059E006E6E656374656420746F20524E3234380B
:1005AE0033202A2A2A2A2A2A2A2A002D2D3E25736A
:1005BE0000436C6F73696E6720636F6E6E65637454
:1005CE00696F6E20746F20524E323438332E2E2EB9
:0105DE00001C
:1005DF00524E32343833006D616320726573657427
:1005EF0020383638006F6B006D616320736176655C
:1005FF00006D6163206A6F696E206F7461610061C5
:08060F0063636570746564000B
:100617006E6F5F667265655F6368006D61635F65D6
:100627007272006D61635F727800696E76616C69E2
:10063700645F646174615F6C656E006F6B006D6110
:08064700635F74785F6F6B00C4
:10064F006E6F5F667265655F63680064656E69658E
:10065F0064006B6579735F6E6F745F696E697400A8
:07066F00524E323438330013
:1006760052756E6E696E6720004D53472072656332
:0606860065697665640061
:08068C00696E66006E616E00EC
:0506940046000002E336
:050699000010000081CB
:03069E006F6B007F
:0206A100030054
:0106A3000254
:1006A400A4E1B0E0E8E5F3E00C9489276C011A01B9
:1006B400462E5901FC0110861782848181FF62C392
:1006C400CE0101969D878C87A0E88A8B9B8BAC8B8F
:1006D400F101849147FC8081882309F44FC3442DA0
:1006E40091012F5F3F4F4F4F853219F01901442E6E
:1006F4000AC0F901849147FD808192E0290E311CE2
:10070400411C853249F4B60190E00E94181EBF8650
:10071400AE86AE84BF84DCCF10E0F12C00E0003262
:10072400A0F48B3269F030F4803259F0833269F4EA
:1007340000612CC08D3239F0803339F4016026C059
:100744000260046023C0086021C007FD29C090ED49
:10075400980F9A3078F406FF06C0AAE01A9F900D0D
:100764001124192F13C0EAE0FE9E900D1124F92ED6
:1007740000620CC08E3221F406FD00C3006406C082
:100784008C3611F4006802C0883651F4F10184916A
:1007940047FC8081FFEF2F1A3F0A4F0A8111BFCF18
:1007A4009BEB980F933018F40061805E06C09BE9C0
:1007B400980F933008F066C10F7E06FF16E00F73A2
:1007C400702E853621F4202F2064722E08C08636C0
:1007D40021F4802F8068782E02C01111115077FE09
:1007E40007C01C3350F4EE24E394E10E27E00BC061
:1007F400183038F027E017E005C027E06CE3E62E58
:1008040002C0212FE12CF5013496FF87EE87F50114
:1008140060817181828193810E2DAE014F5F5F4FA4
:100824000E94B30C5C01598050FE02C053FE06C006
:1008340071FC06C072FE06C000E205C00DE203C0F2
:100844000BE201C000E0852D8C7019F0011173C218
:10085400BEC277FE0FC0EA0C54FE04C08A81813305
:1008640009F4EA941E1474F528E02E1578F538E09E
:10087400E32E2CC076FC2AC0812F90E08A159B05BC
:100884009CF08CEFA8168FEFB80674F0972D906843
:10089400792E0AC0E2E0F0E0EC0FFD1FE10FF11D3C
:1008A4008081803319F411501111F4CF77FE0EC0FA
:1008B400EE24E394E10E812F90E0A816B9062CF4FF
:1008C4001A1904C0EE24E39401C010E077FE06C0B8
:1008D4001A141B0434F4C501019605C085E090E0A8
:1008E40002C081E090E001110196112331F0212F23
:1008F40030E02F5F3F4F820F931F2F2D30E0821780
:10090400930714F4F81A01C0F12C872D897049F467
:10091400FF2039F0B60180E290E00E94181EFA949C
:10092400F7CF002329F0B601802F90E00E94181E13
:1009340073FC09C0FF2039F0B60180E390E00E9407
:10094400181EFA94F7CF77FE49C03501B7FE02C0EE
:10095400612C712CC5018619970988248394912CE4
:100964008C0E9D1E880E991EF501EE19F109F98B66
:10097400E88B012F10E0119501951109FFEF6F1617
:100984007F0629F4B6018EE290E00E94181EA61498
:10099400B70444F088899989861597051CF4F401F5
:1009A400818101C080E3F1E06F1A71082FEF821A90
:1009B400920A601671062CF0B60190E00E94181E8F
:1009C400DDCFA614B70439F49A81963318F495331D
:1009D40011F454FE81E3B60190E051C08A81813361
:1009E40019F0952D9F7E592EB60190E00E94181E95
:1009F400111105C074FC1CC085E690E01BC0B60153
:100A04008EE290E00E94181E02E0010F82E011E0E5
:100A1400180FE1E0F0E0EC0FFD1FE80FF11D8081FD
:100A2400B60190E00E94181E812F1013F0CFE2CF80
:100A340085E490E0B6010E94181EB7FC05C0A1141D
:100A4400B10439F454FE05C0B194A194B1088DE207
:100A540001C08BE2B60190E00E94181E80E3EAE038
:100A6400AE16B1042CF08F5FAAE0AA1AB108F7CF32
:100A7400B60190E00E94181EB601C501C0960E94FE
:100A8400181E72C1833631F0833791F0833509F033
:100A94005DC024C0C50102969F878E87F5018081C1
:100AA40089836A887B888C88AA24A394B12C14C077
:100AB400C50103969F878E87F501608071808280CF
:100AC40006FF03C0412F50E002C04FEF5FEF882DB7
:100AD400B3010E9411285C010F7715C0C50103966C
:100AE4009F878E87F50160807180828006FF03C036
:100AF400412F50E002C04FEF5FEF882DB3010E94F9
:100B040011285C01006803FD1DC08F2D90E0A8161C
:100B1400B906C0F4B60180E290E00E94181EFA946F
:100B2400F4CFF301849187FC8081FFEF6F1A7F0A71
:100B34008F0AB60190E00E94181EF110FA9421E089
:100B4400A21AB108A114B10461F70EC1843611F0E0
:100B5400893679F5C50107FF09C004969F878E87FA
:100B6400F50160817181828193810AC002969F8719
:100B74008E87F50160817181072E000C880B990B1B
:100B84000F76E02E97FF0AC0909580957095619539
:100B94007F4F8F4F9F4FF02FF068EF2E2AE030E009
:100BA400AE014F5F5F4F0E940A18A82E2C85A21A2F
:100BB4004BC0853729F40F7EE02E2AE030E025C0B3
:100BC400902F997FE92E8F36C1F018F4883579F08B
:100BD400D5C0803719F0883721F0D0C0A92FA06183
:100BE400EA2EE4FE0DC0EE2DE460EE2E09C004FFF3
:100BF4000AC0F92FF660EF2E06C028E030E005C0E9
:100C040020E130E002C020E132E0C501E7FE09C086
:100C140004969F878E87F50160817181828193811B
:100C240008C002969F878E87F5016081718180E0FC
:100C340090E0AE014F5F5F4F0E940A18A82EFC851A
:100C4400AF1A2E2D2F77E22EE6FE0BC00E2D0E7F4F
:100C5400A11650F4E4FE0AC0E2FC08C00E2D0E7E7C
:100C640005C0BA2C0E2D03C0BA2C01C0B12E04FF4E
:100C74000DC0FE01EA0DF11D8081803311F4097E5F
:100C840009C002FF06C0B394B39404C0802F8678D1
:100C940009F0B39403FD11C000FF06C0BF1488F42B
:100CA400FA0C1F2D1B190EC0BF1460F4B60180E2AC
:100CB40090E00E94181EB394F7CFBF1418F4FB18E9
:100CC40002C01A2DF12C04FF10C0B60180E390E09D
:100CD4000E94181E02FF17C001FD03C088E790E0C0
:100CE40002C088E590E0B6010CC0802F867859F0E8
:100CF40001FF02C08BE201C080E207FD8DE2B60174
:100D040090E00E94181EA11638F4B60180E390E02A
:100D14000E94181E1150F7CFAA94E1E0F0E0EC0F06
:100D2400FD1FEA0DF11D8081B60190E00E94181E9E
:100D3400A110F2CF19C0F4E0FF1580F584E0F81A91
:100D440073FE23C001112BC053FE2FC050E9852E22
:100D540056E0952E50E0A52E072D0071F4018491E4
:100D6400A7FC8081811128C0FF2009F4D2CCB601F0
:100D740080E290E00E94181EFA94F6CFF601878173
:100D840090852CC08FEF9FEF29C0B60180E290E0E0
:100D94000E94181EFA94F110F8CFD4CFF12CB601AA
:100DA400802F90E00E94181ECFCF4CE8842E46E09E
:100DB400942E40E0A42ED0CF01118052B60190E0D1
:100DC4000E94181EFFEF8F1A9F0AAF0AC7CF23E0B5
:100DD4002F1510F483E0B3CFF12CB6CF6496E2E183
:040DE4000C94F6274E
:100DE8002F923F924F925F926F927F928F92AF9223
:100DF800BF92CF92DF92EF920F931F93CF93DF931F
:100E080000D000D000D0CDB7DEB73B01882E5A0104
:100E180019014115510521F0FA016083718382831C
:100E28002114310429F0C1010297839708F01AC1EF
:100E3800E82C6301FFEFCF1ADF0AEF0AF3011491E0
:100E480087FC1081812F90E00E94792D4C2D3D2D3B
:100E58002E2D892B19F036018E2CEACF1D3269F41C
:100E6800E82C630152E0C50ED11CE11CE42FF32FDE
:100E7800149127FD108101E00EC01B3259F4E82CB3
:100E8800630182E0C80ED11CE11CE42FF32F1491FA
:100E980027FD108100E02114310409F190E12916A1
:100EA800310429F43FC010E32114310421F1F8E0A2
:100EB8002F16310401F154F432E02316310421F5E0
:100EC800412C512C612C50E4752E4BC04AE024165D
:100ED800310439F050E125163104B1F43DC0103326
:100EE80019F13AE0232E312C4CEC442E542C642C6E
:100EF8004CE0742E36C098E0292E312C412C512C10
:100F0800612C20E1722E2DC060E070E080E090E856
:100F18009101032C000C440B550B0E9482252901DA
:100F28003A011FC01033C1F4F6018491E7FC8081B7
:100F38008F7D883509F0B7CFAE2DC6010196A11D6A
:100F4800FC011491A7FD1081E2E0CE0ED11CE11C3A
:100F5800026060E1262E312C412C512C612C88E056
:100F6800782EA0E060E070E0CB019101032C000C2A
:100F7800440B550B29833A834B835C83E0EDE10FE7
:100F8800EA3060F02FEB210F2A3110F4E9EC05C0AC
:100F98002FE9210F2A3150F5E9EAE10F2E2F30E031
:100FA800221533051CF5A7FD18C046165706680616
:100FB800790680F029813A814B815C810E949A2BC5
:100FC8006E0F711D811D911D61307105810530E81D
:100FD800930710F0AFEF01C0A1E0F6011491E7FC10
:100FE80010814FEFC41AD40AE40AC8CF202F217009
:100FF800A114B104B1F0AA2349F051E0C51AD108EF
:10100800E108F501C082D182E2820BC001FF1DC058
:10101800F2E0CF1AD108E108F501C082D182E2825C
:1010280014C0A7FF12C0222329F060E070E080E01E
:1010380090E804C06FEF7FEF8FEF9FE722E230E088
:101048003093A3082093A20809C0222381F0909529
:101058008095709561957F4F8F4F9F4F462F372F03
:10106800282F12C040E030E020E090E00DC097FF4C
:10107800F5CF82E290E09093A3088093A2086FEFE7
:101088007FEF8FEF9FE7EACF642F732F822F26968B
:101098000FB6F894DEBF0FBECDBFDF91CF911F9181
:1010A8000F91EF90DF90CF90BF90AF908F907F908F
:0C10B8006F905F904F903F902F90089534
:1010C400AF92BF92CF92DF92EF92FF921F93CF9392
:1010D400DF93CDB7DEB728970FB6F894DEBF0FBE07
:1010E400CDBF5C016B017A0110E0E12FF0E0ED303F
:1010F400F105D8F7E25CFF4F0C94672E0E94932E03
:101104002FEF89E698E1215080409040E1F700C03C
:1011140000000E94972E4CE050E062E070E0CE01A7
:1011240001960E94492E2FED35E040E061E0CE01AA
:1011340001960E944F2E11E0D8CF46EE55E060E0B4
:1011440080E992E00E947A2880E992E00E943D2C96
:101154004CE050E063E070E0CE0101960E94492E1D
:1011640024EF35E040E060E0CE0101960E944F2E6E
:1011740011E0BBCFB50180E992E00E94242480E90C
:1011840092E00E942F2C80E992E00E943D2C4CE0DA
:1011940050E064E070E0CE0101960E94492E24EFF5
:1011A40035E040E060E0CE0101960E944F2E11E050
:1011B4009CCFB70180E992E00E946C2480E992E020
:1011C4000E942F2C80E992E00E943D2C4CE050E0DC
:1011D40065E070E0CE0101960E94492E24EF35E0CF
:1011E40040E060E0CE0101960E944F2E11E07DCFD9
:1011F400B60180E992E00E94482480E992E00E94CE
:101204002F2C80E992E00E943D2C4CE050E066E0F7
:1012140070E0CE0101960E94492E24EF35E040E0B3
:1012240060E0CE0101960E944F2E11E05ECF61E096
:1012340080E992E00E943F2980E992E00E942F2CED
:1012440080E992E00E943D2C4CE050E067E070E0C1
:10125400CE0101960E94492E24EF35E040E060E083
:10126400CE0101960E944F2E11E03FCF47EF55E08B
:1012740060E080E992E00E947A2880E992E00E948E
:101284003D2C4CE050E068E070E0CE0101960E94F5
:10129400492E24EF35E040E060E0CE0101960E9443
:1012A4004F2E11E022CF40E056E060E080E992E06A
:1012B4000E947A2880E992E00E943D2C4AE050E0A6
:1012C40069E070E0CE0101960E94492E24EF35E0DA
:1012D40040E060E0CE0101960E944F2E11E005CF60
:1012E4004AE050E06BE070E0CE0101960E94492E86
:1012F4002EE036E040E060E0CE0101960E944F2EE1
:1013040011E0F3CE80E992E00E94C12014C00E9453
:10131400D52D882309F4E9CE80E992E00E94D32EEA
:1013240060E972E0CE0101960E943620182FDDCECE
:1013340080E001C082E028960FB6F894DEBF0FBEAD
:10134400CDBFDF91CF911F91FF90EF90DF90CF90B1
:06135400BF90AF90089568
:10135A001F93CF93DF9310E0C0E010C0C5E00EC02A
:10136A00C4E10CC0C4E10AC0C4E108C0C4E106C0BB
:10137A00CD2F04C0CD2F02C0DC2FCFE0EC2FF0E040
:10138A00E631F105D8F7EF59FF4F0C94672E0E940A
:10139A0085260E94A3260E94672D0E944A2B0E943E
:1013AA008F2E0E94CE2D0E94AB2D0E94B22D0E943C
:1013BA00C02D0E94B92D0E94C72D85B1816085B9C3
:1013CA0085B1826085B91111C9CFC1E0D7CF69EA69
:1013DA0072E080E00E94B42C0E94062E0E94EA1C51
:1013EA00C82F0E94A32D8C2F0E94672CC82FC6CF0E
:1013FA000E940726C6E0C2CF60EB72E080E00E943E
:10140A00B42C0E94CD2E8111ABCFC6E0B7CF6FEBC3
:10141A0072E080E00E94B42C0E949F2E2FEF81E19F
:10142A009AE7215080409040E1F700C00000C1E0F7
:10143A00A5CF0E94A32E6BEC72E080E00E94B42C30
:10144A00C5E19CCF66ED72E080E00E94B42C81E099
:10145A000E94C221811186CFC8E090CF61EE72E06E
:10146A0080E00E94B42C0E94602881117DCFC7E0E1
:10147A0085CF63EF72E080E00E94B42C0E94AB2E0D
:10148A00811174CFC9E07ACF68E073E080E00E94EE
:10149A00B42C67E086E69FE00E94AC28CAE06ECFD3
:1014AA000E947C2E882309F469CF0E9447264AE0CD
:1014BA006BE00E94E62BC82F61CF0E947C166CE07D
:1014CA000E94ED2CDC2FC82F59CF0E9470136DE0BB
:1014DA000E94ED2CDC2FC82F51CF0E946F126EE0B4
:1014EA000E94ED2CDC2FC82F49CF0E94E81360E13F
:1014FA000E94ED2CDC2FC82F41CF86ED9FE00E9481
:10150A00F62A882309F434CF0E947C2E882309F412
:10151A0031CF8091D60F9091D70F0E9427264D2F59
:10152A00682F8091D60F9091D70F0E94762AC82FE4
:10153A0025CF0E94812E882309F41ECFC1E11ECF38
:10154A000E947C2E882309F419CF0E94662641E165
:10155A0062E10E94E62BC82F11CF0E94CA2E11E029
:10156A00811110E080E00E94032D80E00E94172D77
:10157A0080E00E94212D80E00E940D2D80E00E94D3
:10158A002B2DC3E1FBCE64E173E080E00E94B42C12
:10159A000E94A4256CE173E080E00E94B42CC0E0B4
:1015AA00EDCE64E273E080E00E94B42C0E94A72E84
:1015BA00C5E1E4CE62E373E080E00E94B42CDF91DF
:0615CA00CF911F9108956E
:1015D000CF92DF92EF92FF920F931F93CF93DF93FF
:1015E000CDB7DEB768970FB6F894DEBF0FBECDBF9C
:1015F0006B01E82EF42E052F21E0AE014F5F5F4F07
:101600000E948C1B182F882309F4BEC08E2DB601B2
:101610000E949921823009F4B6C0CE0101966C0176
:1016200020E8E22E22EA33E040E08E2DB6010E944F
:10163000E625892B29F48F2D902F0E94F728A4C02E
:1016400029EA33E040E08E2DB6010E94E625892B81
:1016500029F48F2D902F0E940F2996C020EB33E0A4
:1016600040E08E2DB6010E94E625892B29F48F2DAE
:10167000902F0E94272988C027EB33E040E08E2D71
:10168000B6010E94E625892BE1F4CE0145960E9421
:10169000AA2B888D8F938F898F938E898F938D89B5
:1016A0008F938CEB93E0A0E0AF939F938F930F9376
:1016B000FF920E94F9240FB6F894DEBF0FBECDBF93
:1016C00063C021EC33E040E08E2DB6010E94E62598
:1016D000892BE1F4CE0145960E94B92B888D8F931A
:1016E0008F898F938E898F938D898F938CEB93E065
:1016F000A0E0AF939F938F930F93FF920E94F924E2
:101700000FB6F894DEBF0FBECDBF3EC026EC33E06F
:1017100040E08E2DB6010E94E625892BE1F4CE0132
:1017200045960E94C82B888D8F938F898F938E89C1
:101730008F938D898F938CEB93E0A0E0AF939F9371
:101740008F930F93FF920E94F9240FB6F894DEBF97
:101750000FBECDBF19C02BEC33E040E08E2DB6019B
:101760000E94E625892B29F48F2D902F0E94AC171B
:101770000BC026E130E040ED53E060E08F2D902F6C
:101780000E94DE2801C010E0812F68960FB6F89401
:10179000DEBF0FBECDBFDF91CF911F910F91FF90A4
:0817A000EF90DF90CF90089557
:1017A800AF92BF92CF92DF92EF92FF920F931F9367
:1017B800CF93DF93EC01C22E68832A83D12C00E0FB
:1017C80010E08FC0ED2DF0E0CF01880F991F880F32
:1017D800991F8E0F9F1F840F951FDC0112966D9124
:1017E8007C911397DF01AA0FBB1F9F01220F331FA4
:1017F800220F331F220F331FA20FB31F5D01AC0E40
:10180800BD1ED50119967C936E931897DC0114962A
:101818002C91D50117962C93179714961C930E9319
:101828001397DC012D913C91119714968C91829F0E
:101838007001839FF00C1124B6E0EB0EF11CD5016A
:101848001696FC92EE9215979801ABEABAEA0E94B6
:10185800F52B96958795929582958F7089279F701D
:1018680089279F012F5F3F4FD901AA0FBB1F220F66
:10187800331F220F331F220F331FA20FB31FAC0FCA
:10188800BD1F8C930E0D1F1D9801ABEABAEA0E948A
:10189800F52B7C01F694E794F694E794F694E79494
:1018A800F694E794F694E794BE2C20E32E9DC001AD
:1018B8002F9D900D11240817190719F4BB24BA9409
:1018C800BE0CCF01880F991FEE0FFF1FEE0FFF1FF1
:1018D800EE0FFF1FE80FF91FEC0FFD1FB3861486EC
:1018E800D394DC1408F46ECF9801ABEABAEA0E94EC
:1018F800F52BFC01F695E795F295E295EF70EF2749
:10190800FF70EF274E2F52E05E0F20E32E9FC0019D
:101918002F9F900D1124081B190B11F451E05E0F35
:101928005983012B11F041E04E0FFE01E558FF4F9E
:10193800408380E007C0FE01E80FF11DE458FF4F27
:1019480010828F5F8417B8F3DF91CF911F910F91A9
:0E195800FF90EF90DF90CF90BF90AF9008957A
:10196600283008F027E03327DA01990F311D87FD6B
:10197600916000966105710539F432602E5F3D93E2
:1019860030E32A95E1F708959F3F30F080387105DE
:10199600610509F03C5F3C5F3D93913008F080683B
:1019A600911DDF93CF931F930F93FF92EF92192F01
:1019B600987F9695E92F96959695E90FFF27EE580D
:1019C600FE4F99273327EE24FF24A701E701059050
:1019D6000894079428F4360FE71EF81E491F511D78
:1019E600660F771F881F991F0694A1F70590079425
:1019F60028F4E70EF81E491F561FC11D770F881FD2
:101A0600991F661F0694A1F70590079428F4F80E0F
:101A1600491F561FC71FD11D880F991F661F771FA5
:101A26000694A1F70590079420F4490F561FC71F87
:101A3600D81F990F661F771F881F0694A9F78491F0
:101A46001095177041F0D695C79557954795F79419
:101A5600E7941A95C1F7E8E1F1E0689415901591BD
:101A660035916591959105907FE27395E118F10A9C
:101A7600430B560BC90BD009C0F7E10CF11E431FEF
:101A8600561FC91FD01D7EF4703311F48A95E6CF18
:101A9600E894015030F0080F0AF40027021708F402
:101AA600202F2395022F7A3328F079E37D932A9508
:101AB600E9F710C07D932A9589F606949795679560
:101AC600379517951794E118F10A430B560BC90B76
:101AD600D00998F023957E9173957A3308F070E3D8
:101AE6007C932013B8F77E9170617D9330F08395D7
:101AF60071E37D9370E32A95E1F71124EF90FF904F
:101B06000F911F91CF91DF91992787FD90950895A9
:101B16006F927F928F92AF92BF92CF92DF92EF92A7
:101B26001F93CF93DF93CDB7DEB764970FB6F894C4
:101B3600DEBF0FBECDBF3B01882E5A0121E0AE01AC
:101B46004F5F5F4F0E948C1B182F882309F48DC0AE
:101B5600CE0101966C0120E8E22E22EA33E040E055
:101B66008E2DB6010E94E625892B39F4A501882D14
:101B7600B3010E94641D182F78C029EA33E040E0C3
:101B86008E2DB6010E94E625892B39F4A501882DF4
:101B9600B3010E94A01D182F68C020EB33E040E07F
:101BA6008E2DB6010E94E625892B39F4A501882DD4
:101BB600B3010E94DC1D182F58C027EB33E040E02C
:101BC6008E2DB6010E94E625892B39F4A501882DB4
:101BD600B3010E941F23182F48C021EC33E040E0D8
:101BE6008E2DB6010E94E625892B39F4A501882D94
:101BF600B3010E944523182F38C026EC33E040E09D
:101C06008E2DB6010E94E625892B39F4A501882D73
:101C1600B3010E946B23182F28C02BEC33E040E061
:101C26008E2DB6010E94E625892B39F4A501882D53
:101C3600B3010E949C0F182F18C026EE33E040E037
:101C46008E2DB6010E94E625892B39F4A501882D33
:101C5600B3010E941516182F08C026E130E040EDAA
:101C660053E060E0C5010E94DE28812F64960FB61E
:101C7600F894DEBF0FBECDBFDF91CF911F91EF90DD
:101C8600DF90CF90BF90AF908F907F906F90089528
:101C9600CF93DC01262F30E0C9010197F901EE0F41
:101CA600FF1F220F331F220F331F220F331FE20F96
:101CB600F31FEA0FFB1F7081C0E025C08217930750
:101CC60009F1A901440F551F440F551F440F551F15
:101CD600F901EE0FFF1FE40FF51FEA0FFB1F438507
:101CE600741310C0F901EE0FFF1F220F331F220FCE
:101CF600331F220F331FE20FF31FEA0FFB1F24854A
:101D0600233041F4CF5F2C2F30E028173907B4F287
:101D160021E001C020E0222339F0FD01E70FF11D8B
:101D2600E458FF4F21E020839C01220F331F220F2E
:101D3600331F220F331FFC01EE0FFF1FE20FF31FAD
:101D4600EA0FFB1FC38529C0462F50E0841795076D
:101D560019F19A012F5F3F4FF901EE0FFF1F220F76
:101D6600331F220F331F220F331FE20FF31FEA0F19
:101D7600FB1F2081C21310C0FA01EE0FFF1F440F94
:101D8600551F440F551F440F551FE40FF51FEA0F4B
:101D9600FB1F2485233041F46F5F12962C91129716
:101DA600621790F281E001C080E0882341F0FD01D6
:101DB600EC0FF11DE458FF4F81E0808306C0FD0162
:101DC600EC0FF11DE458FF4F10828C2F90E0871B1B
:101DD6009109029764F07F5F08C0FD01E70FF11DCE
:101DE600E458FF4F81E080837F5F7C17B0F3CF918B
:021DF60008954E
:101DF8000F931F93CF93DF93CDB7DEB727970FB617
:101E0800F894DEBF0FBECDBF8C0121E043EA56E057
:101E180060E081E50E94C12E81117CC047E0BE01CF
:101E28006F5F7F4F81E50E94E52A811175C0298186
:101E3800822F8F7790E095958795959587959595BD
:101E4800879595958795880F982F990F990F890FE2
:101E58002F70820FF80180832A81822F8F7790E07C
:101E68009595879595958795959587959595879552
:101E7800880F982F990F990F890F2F70820F8183E0
:101E88002B81822F8F7390E09595879595958795EF
:101E98009595879595958795880F982F990F990F00
:101EA800890F2F70820F82832C81822F8F7390E08D
:101EB8009595879595958795959587959595879502
:101EC800880F982F990F990F890F2F70820F83838E
:101ED8002E81822F8F7190E095958795959587959E
:101EE8009595879595958795880F982F990F990FB0
:101EF800890F2F70820F84838F81982F92959F70FE
:101F0800990F292F220F220F920F8F70890F858327
:101F180080E003C082E001C082E027960FB6F89403
:101F2800DEBF0FBECDBFDF91CF911F910F910895F6
:101F38004F925F926F927F928F92AF92BF92CF92A1
:101F4800DF92EF92FF920F931F93CF93DF93CDB75A
:101F5800DEB7A3970FB6F894DEBF0FBECDBF3B0127
:101F6800882E5A0122E046E15FE00E948C1B182F60
:101F7800882309F45DC086E19FE06C0120E8E22E29
:101F88008E2DB6010E94B72E0FEF080F073008F00C
:101F98004AC023E046E15FE0882DB3010E948C1B14
:101FA800182F882309F444C08E2DB6010E94B72E3D
:101FB8002C0102978B329140C0F524E046E15FE0A6
:101FC800882DB3010E948C1B182F882389F18E2D30
:101FD800B6010E94B72E6C0102978735924038F5FA
:101FE80063E2CE0101967C010E949B2D802F90E038
:101FF800FC01EE0FFF1FEE0FFF1FE80FF91FEE0D9C
:10200800FF1D51824082D382C282B70180E843E239
:102018000E94FF2D28E030E045E553E060E0C5016F
:102028000E94DE2805C010E003C010E001C010E0E7
:10203800812FA3960FB6F894DEBF0FBECDBFDF91F8
:10204800CF911F910F91FF90EF90DF90CF90BF90AD
:0E205800AF908F907F906F905F904F900895A3
:102066004F925F926F927F928F929F92AF92BF92A2
:10207600CF92DF92EF92FF920F931F93CF93DF934E
:1020860000D000D000D0CDB7DEB7F901492E512CD3
:10209600612C712C032E3AE1440C551C661C771CEE
:1020A6003A95D1F7302D90E0A0E0B0E0072E76E12A
:1020B600880F991FAA1FBB1F7A95D1F7702D842907
:1020C6009529A629B729872E912CA12CB12C072E4C
:1020D60071E1880C991CAA1CBB1C7A95D1F7702D4E
:1020E60088299929AA29BB29C62ED12CE12CF12CA5
:1020F6000B2EBCE0CC0CDD1CEE1CFF1CBA95D1F7F8
:10210600B02D8C299D29AE29BF29052F10E020E08E
:1021160030E0000F111F221F331F000F111F221F57
:10212600331F000F111F221F331F000F111F221F05
:10213600331F000F111F221F331F000F111F221FF5
:10214600331F802B912BA22BB32B842BB083A1831F
:102156009283838326960FB6F894DEBF0FBECDBF5B
:10216600DF91CF911F910F91FF90EF90DF90CF906D
:10217600BF90AF909F908F907F906F905F904F90A1
:022186000895BA
:10218800CF930E94A326C0E00BC0C2E009C0C5E0FF
:1021980007C0C6E005C0C5E003C0C5E001C0C5E092
:1021A800EC2FF0E0EC30F105D8F7EB5AFF4F0C9428
:1021B800672E6CEE73E080E00E94201C62E174E000
:1021C80080E00E94201C0E94622A8111DECF64E315
:1021D80074E080E00E94201CC4E0E2CF0E94DC2D65
:1021E8008111C3E00E94E32D8111D1CFD9CF8AEDAF
:1021F80097E00E943A2A8AED97E00E9444218823BA
:1022080041F28AED97E00E944E2AC82FC9CF6AEDA5
:1022180077E080E842E157E00E94E80A882309F461
:10222800BACFCBE0BDCF6AED77E080E842E157E076
:102238000E948B0D882309F4B0CFCBE0B1CF0E9468
:1022480060140E94772EC2E0ABCF6AED77E080E899
:1022580042E157E00E94AA1A882309F4A0CFCBE0F4
:102268009FCF62E177E080E80E94201CC2E098CF0F
:1022780063E574E080E00E94201CC2E091CF6DE528
:1022880074E080E00E94201CC2E08ACF0E94772E72
:102298006AE674E080E00E94201CC1E081CFCF9103
:0222A800089597
:1022AA008F929F92AF92BF92CF92DF92EF92FF925C
:1022BA000F931F93CF93DF93EC016B014A015901EE
:1022CA000E946F298F3F2FEF920709F466C08C1581
:1022DA009D0509F064C080E009C0FE01E80FF11D08
:1022EA00E458FF4F9081913041F08F5FFE01E5582D
:1022FA00FF4F9081891788F380E091E0980FF401ED
:10230A0090839981F501908390E040E3489F900182
:10231A00499F300D1124F80131832083FE01E558CD
:10232A00FF4F208130E021503109821793072CF4A6
:10233A0080E3F701808381E033C08A8190E00197CE
:10234A009C01220F331F880F991F880F991F880F2E
:10235A00991F820F931FC80FD91F4B815C818D81F2
:10236A009E81480F591F9A01ABEABAEA0E94F52BDF
:10237A0096958795929582958F7089279F70892760
:10238A0060E3689F9001699F300D1124CA01821B86
:10239A00930BF701808381E003C080E001C080E0F5
:1023AA00DF91CF911F910F91FF90EF90DF90CF9027
:0A23BA00BF90AF909F908F900895A0
:1023C400CF92DF92EF92FF920F931F93CF93DF93FD
:1023D40000D0CDB7DEB7F42E052F22E049E85FE048
:1023E4000E948C1B182F882309F46BC089E89FE096
:1023F4006C0120E8E22E20E934E040E08E2DB601A5
:102404000E94E625892B79F40E94B22D81E00E9476
:102414000D2D28E130E043E954E060E08F2D902F4A
:102424000E94DE284EC02BEA34E040E08E2DB60137
:102434000E94E625892B79F40E94B22D80E00E9447
:102444000D2D29E130E04FEA54E060E08F2D902F0C
:102454000E94DE2836C028EC34E040E08E2DB60120
:102464000E94E625892B21F5CE0101960E941921AF
:10247400882351F028E130E04DEC54E060E08F2DEA
:10248400902F0E94DE281DC08A818F9389818F93AB
:1024940085EE94E0A0E0AF939F938F930F93FF9208
:1024A4000E94F9240FB6F894DEBF0FBECDBF09C059
:1024B40026E130E04CEE54E060E08F2D902F0E9436
:1024C400DE28812F0F900F90DF91CF911F910F91F4
:0A24D400FF90EF90DF90CF90089585
:1024DE008091EB0F823089F128F4882359F08130F6
:1024EE0021F1F6CF843009F466C098F1853009F4F5
:1024FE0040C0EECFE6E6FFE0678570894CEF5AE00C
:10250E00818992890E945F2281115BC0E6E6FFE01D
:10251E006489758944EA58E086890E94D41F811126
:10252E0052C081E08093EB0FD3CF87EA9FE00E94E9
:10253E00FC0E82E08093EB0FCBCF0E945B2E0E94AD
:10254E00432E8AE090E00E94AF2A83E08093EB0F47
:10255E00BFCF0E94592C8823C1F10E94132C8823CF
:10256E00B1F10E944B2C8823A1F185E08093EB0FF3
:10257E00AFCF2EEB3FE04091A70F5091A80F609187
:10258E00A90F7091AA0F8091AB0F9091AC0F0E9482
:10259E0033104CEF5AE06EEB7FE084E00E94C61ED3
:1025AE0044EA58E06EEB7FE085E00E94C61E84E0B0
:1025BE008093EB0F8DCF0E945D2D0E94532D81E0F5
:1025CE00089583E0089583E0089580E0089580E003
:0625DE00089580E008955D
:1025E400DF92EF92FF920F931F93CF93DF93CDB7B8
:1025F400DEB728970FB6F894DEBF0FBECDBFD82E36
:102604007B01042F10E0E12FF0E0EA30F105D8F768
:10261400E55BFF4F0C94672E202FA7016D2D80E9F9
:1026240092E00E94C21880E992E00E942F2C80E977
:1026340092E00E943D2C41E050E062E070E0CE0167
:1026440001960E94492E22E436E040E060E0CE018B
:1026540001960E944F2E15E0D6CF41E050E064E091
:1026640070E0CE0101960E94492E25E436E040E058
:1026740060E0CE0101960E944F2E15E0C4CF60E9C0
:1026840072E080E80E94A01F182FBDCF85E018C01B
:1026940086E016C082E014C00E94D52D882309F478
:1026A400B2CF80E992E00E94D32E60E972E0CE01BD
:1026B40001960E943620182FA6CF80E001C083E047
:1026C40028960FB6F894DEBF0FBECDBFDF91CF9131
:0C26D4001F910F91FF90EF90DF90089590
:1026E0008091EC0F823081F128F4882351F0813001
:1026F00019F1F6CF843009F45DC070F18530C1F175
:10270000EFCFE6E6FFE0658176814CEF5AE0878106
:1027100090850E945F22811153C0E6E6FFE062854A
:10272000738544EA58E084850E94D41F81114AC011
:1027300081E08093EC0FD4CF87EA9FE00E94FC0EEB
:1027400082E08093EC0FCCCF0E945B2E0E94432E40
:1027500083E08093EC0FC4CF0E94592C8823A1F111
:102760000E94132C882391F185E08093EC0FB8CF61
:102770002EEB3FE04091A70F5091A80F6091A90F59
:102780007091AA0F8091AB0F9091AC0F0E94331003
:102790004CEF5AE06EEB7FE082E00E94C61E44EAF6
:1027A00058E06EEB7FE083E00E94C61E84E08093D9
:1027B000EC0F96CF0E945D2D0E94532D81E008956D
:1027C00083E0089583E0089580E0089580E008950F
:1027D0008091EA0F823081F128F4882351F0813012
:1027E00019F1F6CF843009F45DC070F18530C1F184
:1027F000EFCFE6E6FFE0618D728D4CEF5AE0838DFE
:10280000948D0E945F22811153C0E6E6FFE0668D41
:10281000778D44EA58E080A10E94D41F81114AC0FC
:1028200081E08093EA0FD4CF87EA9FE00E94FC0EFC
:1028300082E08093EA0FCCCF0E945B2E0E94432E51
:1028400083E08093EA0FC4CF0E94592C8823A1F122
:102850000E94132C882391F185E08093EA0FB8CF72
:102860002EEB3FE04091A70F5091A80F6091A90F68
:102870007091AA0F8091AB0F9091AC0F0E94331012
:102880004CEF5AE06EEB7FE086E00E94C61E44EA01
:1028900058E06EEB7FE087E00E94C61E84E08093E4
:1028A000EA0F96CF0E945D2D0E94532D81E008957E
:1028B00083E0089583E0089580E0089580E008951E
:1028C0006F927F928F92CF92DF92EF92CF93DF93AE
:1028D000C0E0C23009F128F4CC2349F0C13091F0B6
:1028E000F8CFC330F9F0C43009F44BC0F2CF0E94E6
:1028F00085260E948F2E63E875E080E00E94201CF0
:10290000C1E0E7CF0E94DC2D882319F38AED97E020
:102910000E943A2AC2E0DDCF8AED97E00E948A2A1F
:10292000C82FD7CF8AED97E06C0120E8E22E2F93D5
:10293000DF928F9389EB95E0A0E0AF939F938F9305
:10294000C2E1D7E0DF93CF930E94F9243E0120E853
:10295000822E882DB3010E94201CAE016C2D7D2D8E
:102960008E2D0E94D02E882DB3010E94201C8DB781
:102970009EB708960FB6F8949EBF0FBE8DBFC1E0FC
:10298000A8CF6FEB75E080E00E94201C81E0DF9112
:10299000CF91EF90DF90CF908F907F906F900895C0
:1029A00010C00E941B2E58F00E94142E40F029F4F3
:1029B0005F3F29F00C94612E51110C94232E0C943E
:1029C000DF2E0E943E2568F39923B1F3552391F33E
:1029D000951B550BBB27AA2762177307840738F08E
:1029E0009F5F5F4F220F331F441FAA1FA9F335D0EB
:1029F0000E2E3AF0E0E832D091505040E695001C9F
:102A0000CAF72BD0FE2F29D0660F771F881FBB1F58
:102A1000261737074807AB07B0E809F0BB0B802D36
:102A2000BF01FF2793585F4F3AF09E3F510578F062
:102A30000C94612E0C94232E5F3FE4F3983ED4F364
:102A4000869577956795B795F7959F5FC9F7880F36
:102A5000911D9695879597F90895E1E0660F771F88
:102A6000881FBB1F621773078407BA0720F0621B19
:0E2A7000730B840BBA0BEE1F88F7E0950895E8
:102A7E00CF92DF92EF92FF920F931F93CF93DF933C
:102A8E00DC01EB0190E040E0C12CD12C76014AC074
:102A9E00292F30E0F901EE0FFF1F220F331F220FF7
:102AAE00331F220F331FE20FF31FEA0FFB1F278185
:102ABE002230A9F0243021F1213091F501E010E00F
:102ACE00042E02C0000F111F0A94E2F7012E000C13
:102ADE00220B330BC02AD12AE22AF32A21C002E0AC
:102AEE0010E0042E02C0000F111F0A94E2F7012E0F
:102AFE00000C220B330BC02AD12AE22AF32A10C073
:102B0E0003E010E0042E02C0000F111F0A94E2F73A
:102B1E00012E000C220B330BC02AD12AE22AF32AF3
:102B2E004E5F9F5F12968C911297981708F4B0CF54
:102B3E00EB82DC82CD82DF91CF911F910F91FF90BE
:082B4E00EF90DF90CF90089595
:102B56000FC00E94142E38F00E941B2E20F09523E1
:102B660011F00C94612E0C94DF2E11240C94232E5C
:102B76000E943E2570F3959FC1F3950F50E0551FB7
:102B8600629FF001729FBB27F00DB11D639FAA27BC
:102B9600F00DB11DAA1F649F6627B00DA11D661F0B
:102BA600829F2227B00DA11D621F739FB00DA11D2C
:102BB600621F839FA00D611D221F749F3327A00DE6
:102BC600611D231F849F600D211D822F762F6A2F82
:102BD60011249F5750409AF0F1F088234AF0EE0FE7
:102BE600FF1FBB1F661F771F881F91505040A9F714
:102BF6009E3F510580F00C94612E0C94232E5F3F6E
:102C0600E4F3983ED4F3869577956795B795F7954F
:102C1600E7959F5FC1F7FE2B880F911D96958795C7
:042C260097F908957D
:102C2A000F931F93CF93DF93CDB7DEB7A3970FB65A
:102C3A00F894DEBF0FBECDBF8A016DE573E080E078
:102C4A000E94DE266DE573E080E00E94FB266EE6B8
:102C5A0073E080E00E94182760E070E080E89FE35C
:102C6A000E94EA2D60E070E48CE195E40E94F12D67
:102C7A0060E070E080EA90E40E94F82D80E01AC0DB
:102C8A00E82FF0E09F01220F331F220F331FE20FBC
:102C9A00F31F21E030E02C0F3D1FE20FF31F92E0FB
:102CAA00948322E030E0318320832AE030E03383CA
:102CBA0022838F5F873020F3BE016F5F7F4F80E8EA
:102CCA0043E20E94FF2D23E130E04FE853E060E049
:102CDA00C8010E94DE2881E0A3960FB6F894DEBFF1
:0E2CEA000FBECDBFDF91CF911F910F910895C6
:102CF8008091ED0F823029F128F4882351F081303A
:102D0800C1F0F6CF843009F44EC030F1853081F13E
:102D1800EFCFE6E6FFE0608171814CEF5AE08281F7
:102D280093810E945F22811142C081E08093ED0F60
:102D3800DFCF87EA9FE00E94FC0E82E08093ED0FD0
:102D4800D7CF81E00E947A2B811133C00E945B2E7D
:102D580083E08093ED0FCCCF0E94702D882359F12A
:102D68000E94592C882349F185E08093ED0FC0CF4C
:102D78002EEB3FE04091A70F5091A80F6091A90F4B
:102D88007091AA0F8091AB0F9091AC0F0E943310F5
:102D98004CEF5AE06EEB7FE081E00E94C61E84E0B3
:102DA8008093ED0FA5CF0E945D2D81E0089583E00B
:0E2DB800089583E0089580E0089580E0089576
:102DC60011C00E94142E38F00E941B2E20F039F4F8
:102DD6009F3F19F426F40C94DF2E0EF4E095E7FBE2
:102DE6000C94612EE92F0E943E2558F3BA1762070C
:102DF60073078407950720F079F4A6F50C94222E24
:102E06000EF4E0950B2EBA2FA02D0B01B9019001FF
:102E16000C01CA01A0011124FF27591B99F0593F43
:102E260050F4503E68F11A16F040A22F232F342F8B
:102E36004427585FF3CF469537952795A795F040D9
:102E46005395C9F77EF41F16BA0B620B730B840BEE
:102E5600BAF09150A1F0FF0FBB1F661F771F881FA6
:102E6600C2F70EC0BA0F621F731F841F48F48795FE
:102E760077956795B795F7959E3F08F0B0CF9395F0
:0E2E8600880F08F09927EE0F9795879508950D
:102E94001F93CF93DF93CDB7DEB72D970FB6F8947A
:102EA400DEBF0FBECDBF182F81E0898382E08A8305
:102EB40085E0EDEAFFE0DE01139601900D928A951C
:102EC400E1F7CE0108960E94FC0E8985810F99E8EE
:102ED400899F912D11249295969597702CE3929F3A
:102EE400801911248987AE014F5F5F4F60E822E0AB
:102EF40081E50E948B2D811120C099858DEC989FCE
:102F0400812D112486958695869540E1849F9001B4
:102F14001124880F382F330F330F830F981B922BF4
:102F24009C83AE014D5F5F4F60E825E081E50E9420
:102F34008B2D882321F082E003C082E001C080E071
:102F44002D960FB6F894DEBF0FBECDBFDF91CF91A3
:042F54001F9108952C
:102F5800CF92DF92EF92FF921F93CF93DF93CDB77B
:102F6800DEB7A3970FB6F894DEBF0FBECDBF7C01C6
:102F780063E2CE0101960E949B2DF701108210E0BA
:102F880035C0812F90E0FC01EE0FFF1FEE0FFF1FF1
:102F9800E80FF91F21E030E02C0F3D1FE20FF31F6F
:102FA80023812F9322812F9321812F9320812F9387
:102FB80001969F938F9388E393E0A0E0AF939F934C
:102FC8008F930F2EF6E1CF2EFFE0DF2EF02DDF924C
:102FD800CF920E94F924A60160E8C7010E94E42963
:102FE8001F5F0FB6F894DEBF0FBECDBF173048F293
:102FF800A3960FB6F894DEBF0FBECDBFDF91CF9179
:0C3008001F91FF90EF90DF90CF90089593
:10301400FA01AA27283051F1203181F1E8946F9305
:103024006E7F6E5F7F4F8F4F9F4FAF4FB1E03ED0AB
:10303400B4E03CD0670F781F891F9A1FA11D680F49
:10304400791F8A1F911DA11D6A0F711D811D911D7C
:10305400A11D20D009F468943F912AE0269F1124F1
:103064003019305D3193DEF6CF010895462F477055
:10307400405D4193B3E00FD0C9F7F6CF462F4F70B0
:10308400405D4A3318F0495D31FD4052419302D00E
:10309400A9F7EACFB4E0A6959795879577956795B4
:1030A400BA95C9F700976105710508959B01AC01B4
:1030B4000A2E06945795479537952795BA95C9F7DB
:0C30C400620F731F841F951FA01D08954C
:1030D000CF92DF92EF92FF920F931F93CF93DF93E4
:1030E0006C0110E008C0CC0DDD1D88818E3211F41A
:1030F0001F5F0CC01F5FC12FD0E0B60180E80E94A7
:10310000FB290197C817D90770F310E0112371F15B
:10311000C10ED11C80E8E82E8E2DB6010E94FB293D
:10312000C82F8E2DB6010E94B72E8C010F2EC12CF8
:10313000D12CF0E8EF2EFFE3FF2EF02D0BC020E0A6
:1031400030E040E251E4C701B6010E94B32E6B01AA
:103150007C01C150C111F3CFB80180E090E00E9422
:10316000271DA70196010E94AF2E03C060E070E00A
:10317000CB01DF91CF911F910F91FF90EF90DF90E6
:04318000CF9008954F
:10318400DF92EF92FF920F931F93CF93DF93CDB70C
:10319400DEB7C756D1090FB6F894DEBF0FBECDBF58
:1031A4008C019FEF960F9F3D68F59FEF920F93332D
:1031B40060F5D62E30E060E8CE0101967C010E94D5
:1031C400A81CC701A0E8AF939F93EF921F92DF92D0
:1031D4008AE695E0A0E0AF939F938F9385E795E00F
:1031E400A0E0AF939F938F931F930F930E94F924B2
:1031F400B80180E80E94FB290FB6F894DEBF0FBE29
:10320400CDBF05C08FEF9FEF02C08FEF9FEFC9596D
:10321400DF4F0FB6F894DEBF0FBECDBFDF91CF9165
:0C3224001F910F91FF90EF90DF90089534
:103230000F931F93CF93DF938C01EB01FC018181EE
:103240008883818189831A82C8010E943F1520E00A
:1032500035C0822F90E0DC01AA0FBB1FAA0FBB1F55
:10326000AD014A5F5F4F4C0F5D1FFC01EE0FFF1F6A
:10327000880F991F880F991F880F991FE80FF91F52
:10328000BF01600F711FFB018481FA018083CD01B2
:1032900007968C0F9D1FFB013381FC013083CD010C
:1032A00008968C0F9D1FFB013681FC013083199617
:1032B000AC0FBD1FFB0185818C932F5FF8018281CC
:1032C000281738F2880F880F8A5FDF91CF911F91FE
:0432D0000F910895BD
:1032D400FF920F931F93CF93DF9300D0CDB7DEB748
:1032E400F42E052F22E049E85FE00E948C1B182F82
:1032F4008823B9F169E87FE080E828EC34E040E015
:103304000E94E625892B21F5CE0101960E94822C8C
:10331400882351F028E130E04DEC54E060E08F2D3B
:10332400902F0E94DE281DC08A818F9389818F93FC
:1033340085EE94E0A0E0AF939F938F930F93FF9259
:103344000E94F9240FB6F894DEBF0FBECDBF09C0AA
:1033540026E130E04CEE54E060E08F2D902F0E9487
:10336400DE28812F0F900F90DF91CF911F910F9145
:04337400FF90089529
:103378000F931F93CF93DF938C01EB011882FC010D
:10338800818189831A82C8010E943F1520E035C0D7
:10339800822F90E0DC01AA0FBB1FAA0FBB1FAD0153
:1033A8004A5F5F4F4C0F5D1FFC01EE0FFF1F880F38
:1033B800991F880F991F880F991FE80FF91FBF01E0
:1033C800600F711FFB018481FA018083CD0107968C
:1033D8008C0F9D1FFB013381FC013083CD010896C2
:1033E8008C0F9D1FFB013681FC0130831996AC0FB1
:1033F800BD1FFB0185818C932F5FF80182812817FF
:1034080038F2880F880F8A5FDF91CF911F910F9153
:02341800089515
:10341A000F931F93CF93DF9300D000D000D0CDB786
:10342A00DEB78C018FEF9FEFF801918380830E94B2
:10343A006D2E811107C08EEF9FEFF8019183808373
:10344A0083E02CC022E041EA56E060E081E60E9477
:10345A008B2D81111EC08FE39FE10197F1F700C008
:10346A00000046E0BE016F5F7F4F81E60E949D2A01
:10347A00811111C0CE0101960E94C528882369F0E6
:10348A00CE0101960E94752CF8019183808380E019
:10349A0005C081E003C081E001C081E026960FB635
:1034AA00F894DEBF0FBECDBFDF91CF911F910F9170
:0234BA00089573
:1034BC001F920F920FB60F9211242F933F934F939D
:1034CC005F936F937F938F939F93AF93BF93CF93A0
:1034DC00EF93FF939091D80F9F5F9093D80F89E053
:1034EC00989F212D1124892F821B8695820F8295FE
:1034FC008F702FE1829F90191124911113C010929B
:10350C00D80FC0E00DC0EC2FF0E0EE0FFF1FE3561C
:10351C00F04F0190F081E02D309709F00995CF5FC5
:10352C00C53088F3FF91EF91CF91BF91AF919F91EF
:10353C008F917F916F915F914F913F912F910F9050
:08354C000FBE0F901F901895AF
:103554006F927F928F92CF92DF92EF920F931F938D
:10356400CF933B01882E8A0121E049E85FE00E9465
:103574008C1BC82F882369F189E89FE06C0120E83F
:10358400E22E22E035E040E08E2DB6010E94E625D1
:10359400892B39F4A801882DB3010E94E211C82FA8
:1035A40018C027E035E040E08E2DB6010E94E625E4
:1035B400892B39F4A801882DB3010E946A19C82FF8
:1035C40008C026E130E04CEE54E060E0C8010E94FF
:1035D400DE288C2FCF911F910F91EF90DF90CF9029
:0835E4008F907F906F90089515
:1035EC008F929F92AF92BF92CF92DF92EF92FF9207
:1035FC00BC0180E090E00E94271D20E030E040E814
:10360C0059E30E94B32E8090BA0F9090BB0FA090FC
:10361C00BC0FB090BD0FA50194010E94B32E6B019D
:10362C007C019B01AC01C501B4010E940D2EA701C8
:10363C0096010E94AF2E2091B60F3091B70F40919A
:10364C00B80F5091B90F0E94B32E2091B20F309148
:10365C00B30F4091B40F5091B50F0E94B32E0E943E
:10366C006520CB01FF90EF90DF90CF90BF90AF9093
:06367C009F908F9008955D
:10368200AF92BF92CF92DF92EF92FF920F931F936E
:10369200CF93DF9300D000D01F92CDB7DEB76B017E
:1036A2005A019E012B5F3F4F79018E010D5F1F4F23
:1036B20023503109AE014F5F5F4FBC0188E593E0B3
:1036C2000E9455118823B1F04D8183E0840FF501EA
:1036D200808380915803F6018083898181838A8166
:1036E200828350E06B817C81C60103960E94572938
:1036F20081E001C080E00F900F900F900F900F902B
:10370200DF91CF911F910F91FF90EF90DF90CF90BB
:06371200BF90AF90089586
:103718008F929F92AF92CF92DF92EF92FF920F9388
:103728001F93CF93DF936B01E82EEA01F22E0E94DC
:1037380099218F1558F18E2DB6010E94FB298C0115
:103748004F2D8E2DB6010E94FE1E90E015C0460139
:10375800AE2C820E931EA11C37FDAA944A2D94010B
:10376800F401249147FD2081203259F0FE01E90F30
:10377800F11D20838F5F9F5F282F30E020173107CE
:1037880030F3C90FD11D188281E001C080E0DF91BC
:10379800CF911F910F91FF90EF90DF90CF90AF9056
:0637A8009F908F90089530
:1037AE00CF92DF92FF920F931F93CF93DF93DC01A3
:1037BE00942F0CC0C92FD0E0E41BF50BEA0FFB1FB2
:1037CE008081FE01EE50FC4F80839F5FE92FF0E079
:1037DE006A0186E0C80ED11CEC15FD0558F3265083
:1037EE00310936952795495F5F4FA0E0B0E016C0CE
:1037FE00CD01880F991FF601E80FF91F8B01080FF5
:10380E00191FE801F980EE50FC4FF082840F951FCE
:10381E001881FC01EE50FC4F10831196A217B307CE
:10382E0038F3DF91CF911F910F91FF90DF90CF90E2
:02383E000895EB
:103840006F927F928F92CF92DF92EF923B01882E00
:103850008091E10F8111FCCF882DB3010E94FB29DB
:10386000BC0190E012C0292F30E0E82C6301C40EA7
:10387000D51EE11C57FDEA94F6014491E7FC408116
:10388000F901EC5AF24F40839F5F492F50E04617F1
:10389000570748F3FB01EC5AF24F8DE08083FB01A0
:1038A000EB5AF24F8AE080836E5F6093E10F81E014
:1038B0008093E00F8091540D8093CE00EF90DF90C5
:0A38C000CF908F907F906F900895D5
:1038CA000F931F93CF93DF938C01A62FB0E011972C
:1038DA00FD01EE0FFF1FCD01880F991F880F991F59
:1038EA00880F991FE80FF91FE00FF11F83E0848703
:1038FA0090E00AC0E92FF0E0E901CE0FDF1FE40FE4
:10390A00F51F808188839F5F9430A0F3CD01880FD3
:10391A00991FAA0FBB1FAA0FBB1FAA0FBB1FA80F75
:10392A00B91FA00FB11F19968C911997F9018483B9
:10393A0018968C918583C8010E944B0EDF91CF9116
:06394A001F910F9108958A
:103950006F927F928F92EF92FF920F931F93CF936C
:10396000DF937C013A01862E8901C0E0D0E025C0BA
:10397000A82DC3018C0F9D1FA11DD7FDAA95FC0189
:103980002491A7FD2081CE01880F991F1F922F93AC
:103990002BE035E040E04F933F932F938E0D9F1D1A
:1039A0009F938F930E94F92421968DB79EB7079617
:1039B0000FB6F8949EBF0FBE8DBFC017D107C4F2DB
:1039C000DF91CF911F910F91FF90EF908F907F909B
:0439D0006F90089557
:1039D400CF93DF93CDB7DEB7C354D1090FB6F894B4
:1039E400DEBF0FBECDBF26E632E040E081E1F90143
:1039F400DE011196742F0E948F2C27E732E040E0FD
:103A040081E1F901DE015296742F0E948F2C28E87F
:103A140032E040E081E2F901DE019396742F0E94C6
:103A24008F2CAE014D5D5F4FBE016E5E7F4FCE01A8
:103A340001960E94C72ECD5BDF4F0FB6F894DEBF10
:0A3A44000FBECDBFDF91CF910895B2
:103A4E00E89409C097FB3EF490958095709561952A
:103A5E007F4F8F4F9F4F9923A9F0F92F96E9BB27E0
:103A6E009395F695879577956795B795F111F8CF5C
:103A7E00FAF4BB0F11F460FF1BC06F5F7F4F8F4FC7
:103A8E009F4F16C0882311F096E911C0772321F0BD
:103A9E009EE8872F762F05C0662371F096E8862F55
:103AAE0070E060E02AF09A95660F771F881FDAF7AC
:0A3ABE00880F9695879597F90895F3
:103AC800CF92DF92EF920F931F93CF938A0122E058
:103AD80046E15FE00E948C1BC82F882329F186E10C
:103AE8009FE06C0120E8E22E8E2DB6010E94FB2992
:103AF8004097C9F48E2DB6010E94DE26C82F811189
:103B080009C027E030E04EE453E060E0C8010E94BD
:103B1800DE280AC028E030E045E553E060E0C8014F
:103B28000E94DE2801C0C0E08C2FCF911F910F9119
:083B3800EF90DF90CF9008959B
:103B4000CF92DF92EF920F931F93CF938A0122E0DF
:103B500046E15FE00E948C1BC82F882329F186E193
:103B60009FE06C0120E8E22E8E2DB6010E94FB2919
:103B70004097C9F48E2DB6010E94FB26C82F8111F3
:103B800009C027E030E04EE453E060E0C8010E9445
:103B9000DE280AC028E030E045E553E060E0C801D7
:103BA0000E94DE2801C0C0E08C2FCF911F910F91A1
:083BB000EF90DF90CF90089523
:103BB800CF92DF92EF920F931F93CF938A0122E067
:103BC80046E15FE00E948C1BC82F882329F186E11B
:103BD8009FE06C0120E8E22E8E2DB6010E94FB29A1
:103BE8008097C9F48E2DB6010E941827C82F81111D
:103BF80009C027E030E04EE453E060E0C8010E94CD
:103C0800DE280AC028E030E045E553E060E0C8015E
:103C18000E94DE2801C0C0E08C2FCF911F910F9128
:083C2800EF90DF90CF900895AA
:103C30000F931F93CF93DF93FB01248121FD03C0DA
:103C40008FEF9FEF2CC022FF16C047815085258142
:103C500036814217530744F4A081B1819D012F5F43
:103C60003F4F318320838C93278130852F5F3F4FD7
:103C70003087278314C08B01EC01FB010184F2859E
:103C8000E02D0995892BE1F6D80117968D919C912D
:103C90001897019618969C938E931797CE01DF91F3
:083CA000CF911F910F910895CF
:103CA8001F920F920FB60F9211242F938F939F9309
:103CB800EF93FF938091DA0F81110EC0E091DB0F33
:103CC800E43650F481E08E0F8093DB0FF0E08091B2
:103CD800C600E050FF4F80838091DB0F833080F077
:103CE80090E0FC01E150FF4F20812A3049F4FC01AB
:103CF800E250FF4F80818D3019F481E08093DA0F14
:103D0800FF91EF919F918F912F910F900FBE0F9080
:043D18001F9018954B
:103D1C001F920F920FB60F9211242F938F939F9394
:103D2C00EF93FF938091DE0F81110EC0E091DF0FB6
:103D3C00E63950F481E08E0F8093DF0FF0E0809134
:103D4C00CE00E058F14F80838091DF0F90E0FC01B2
:103D5C00E158F14F20812A3049F4FC01E258F14F2F
:103D6C0080818D3019F481E08093DE0FFF91EF910B
:103D7C009F918F912F910F900FBE0F901F901895C0
:103D8C00EF92FF921F93CF93DF93CDB7DEB72A97B5
:103D9C000FB6F894DEBF0FBECDBF182F7A019E016F
:103DAC002F5F3F4FAB01682F88E593E00E94651CA5
:103DBC009E01275F3F4FAE01495F5F4F612F88E542
:103DCC0093E00E94C02729853A854F815885B70119
:103DDC00CE0101960E94D71B2A960FB6F894DEBF2F
:103DEC000FBECDBFDF91CF911F91FF90EF90089543
:103DFC00CF92DF92EF920F931F93CF93DF934423D5
:103E0C0029F1042F6B01E82EC0E0D0E010E014C0C3
:103E1C00AE2DC6018C0F9D1FA11DD7FDAA95FC01CF
:103E2C008491A7FD8081803231F41F5F011303C0A0
:103E3C00CE0101960DC021968E2DB6010E94FB2954
:103E4C00C817D90728F380E090E002C080E090E02A
:103E5C00DF91CF911F910F91EF90DF90CF9008954C
:103E6C00CF92DF92EF920F931F93CF936B01E82EBB
:103E7C00C0E012C08C2F90E04E2D9601200F311F08
:103E8C00411D17FD4A95F901249147FD2081FC0144
:103E9C00EC59FE4F2083CF5F0C2F10E08E2DB60116
:103EAC000E94FB290817190728F38093DD0F81E086
:103EBC008093DC0F809164018093C600CF911F9199
:0A3ECC000F91EF90DF90CF90089562
:103ED600CF92DF92EF920F931F936B01E82E01159D
:103EE600110519F101501109F6018491E7FC808151
:103EF600882399F0F901949147FD9081992369F0FF
:103F06000115110551F0891308C08FEFC81AD80A98
:103F1600E80A2F5F3F4F4F4FE5CF90E0F90124911C
:103F260047FD2081821B910902C080E090E01F912D
:0A3F36000F91EF90DF90CF900895F7
:103F4000CF92DF92EF926B01E82E27E136E040E05E
:103F50000E94E625892BE9F022E236E040E08E2D32
:103F6000B6010E94E625892BB1F02AE236E040E056
:103F70008E2DB6010E94DB2381110FC021E336E0B4
:103F800040E08E2DB6010E94DB23882341F089E0BA
:103F900007C087E005C088E003C083E001C086E079
:083FA000EF90DF90CF9008952F
:103FA800CF935093C90F4093C80F7093CB0F609372
:103FB800CA0F1092C70F1092C60F63EB74E20E94EB
:103FC8003A2B81E00E94032D2FEF83EC99E02150DA
:103FD80080409040E1F700C0000060E08DE40E945E
:103FE8000024C82F0E94932DCC2351F01092C90FA2
:103FF8001092C80F1092CB0F1092CA0F82E001C026
:0640080080E0CF91089555
:10400E00CF93DF93443651056105710518F1EC012C
:10401E007F936F935F934F9383E195E0A0E0AF930F
:10402E009F938F938DE195E0A0E0AF939F938F9335
:10403E00DF93CF930E94F924BE0180E80E94FB29F2
:10404E002DB73EB7245F3F4F0FB6F8943EBF0FBE5D
:0E405E002DBF02C08FEF9FEFDF91CF9108952D
:10406C00CF93DF93EC01FB019C81913091F018F020
:10407C009230E9F01FC02D813E814F8180E80E9473
:10408C00E625892B19F48881998116C08A819B8138
:10409C0013C04D815E816F81CF010E941C25882346
:1040AC0019F08881998108C08A819B8105C088811B
:0E40BC00998102C08A819B81DF91CF91089586
:1040CA000E94462588F09F5798F0B92F9927B75133
:1040DA00B0F0E1F0660F771F881F991F1AF0BA95A2
:1040EA00C9F714C0B13091F00E94222EB1E00895B0
:1040FA000C94222E672F782F8827B85F39F0B93FA2
:10410A00CCF3869577956795B395D9F73EF4909554
:0E411A008095709561957F4F8F4F9F4F089550
:10412800EF92FF920F931F93CF93DF938C01D62FBB
:10413800C0E008C07801EC0EF11C0E943F2DF70189
:104148008083CF5F2C2F30E08D2F90E001972817C8
:10415800390784F38D2F90E00197E801C80FD91F24
:104168000E94492D88830E94932D80E0DF91CF9192
:0A4178001F910F91FF90EF90089542
:10418200CF92DF92EF926C0120E8E22E2FE436E02C
:1041920040E08E2DB6010E94E625892BA1F02AE58A
:1041A20036E040E08E2DB6010E94E625892B69F0AB
:1041B20021E636E040E08E2DB6010E94E625892BED
:1041C20031F484E005C083E003C083E001C082E0F3
:0841D200EF90DF90CF900895FB
:1041DA00EF92FF920F931F93CF93DF937C0110E02E
:1041EA0000E00DC0CE0DDF1D88818E3221F4011151
:1041FA0011C001E003C080538A3070F41F5FC12FE1
:10420A00D0E0B70180E80E94FB29C817D90750F30C
:10421A0081E003C080E001C080E0DF91CF911F916F
:08422A000F91FF90EF90089541
:104232000F931F93CF93DF9300D0CDB7DEB78C01DE
:104242008FEF9FEFF8019183808342E0BE016F5FA1
:104252007F4F8DE40E949D2A81110DC0898190E0DB
:10426200982F88272A81822B0E94F61AF8019183BF
:10427200808380E001C081E00F900F90DF91CF91A9
:064282001F910F91089549
:10428800CF93DF93EC01BC0180E80E94FB29BC01BD
:10429800FC013197EC0FFD1F80818032B1F020E0E6
:1042A80030E040E00DC0FE01E20FF31F9081903234
:1042B80021F441110CC041E001C040E02F5F3F4FA5
:1042C8002617370780F381E003C080E001C080E053
:0642D800DF91CF91089573
:1042DE00CF93DC016091D90F653000F590E015C0E9
:1042EE00292F30E0F901EE0FFF1FE356F04F40810A
:1042FE005181452B49F4220F331FF901E356F04F3C
:10430E00B183A083C92F04C09F5F953048F3CFEFD0
:10431E006F5F6093D90F0E949B2E01C0CFEF8C2F41
:04432E00CF9108958E
:104332006F927F928F92CF92DF92EF923B01882E03
:104342000E94FB29BC0120E030E080E010C0E82C94
:104352006301C20ED31EE11C37FDEA94F60194916B
:10436200E7FC9081903209F48F5F2F5F3F4F261751
:10437200370768F3EF90DF90CF908F907F906F9028
:0243820008959C
:10438400CF93DF9300D0CDB7DEB79DE09983813022
:1043940031F018F0803231F013C01A8205C083E87E
:1043A4008A8302C082E88A83AE014F5F5F4F60E870
:1043B40022E081E50E948B2D882321F082E003C056
:1043C40081E001C080E00F900F90DF91CF910895BC
:1043D4001F920F920FB60F9211242F933F934F9376
:1043E4005F936F937F938F939F93AF93BF93EF9359
:1043F400FF93E091C20FF091C30F0995FF91EF91E4
:10440400BF91AF919F918F917F916F915F914F91E8
:0E4414003F912F910F900FBE0F901F901895A3
:104422001F920F920FB60F9211242F933F934F9327
:104432005F936F937F938F939F93AF93BF93EF930A
:10444200FF93E091C40FF091C50F0995FF91EF9191
:10445200BF91AF919F918F917F916F915F914F919A
:0E4462003F912F910F900FBE0F901F90189555
:104470000F931F93CF93DF93EC012F931F930F9311
:104480006F935F934F9384E295E0A0E0AF939F9387
:104490008F93DF93CF930E94F924BE0180E80E949E
:1044A000FB292DB73EB7255F3F4F0FB6F8943EBFAF
:0E44B0000FBE2DBFDF91CF911F910F91089588
:1044BE00CF93DF93EC017093D50F6093D40F1092CE
:1044CE00D10F1092D00F5093D30F4093D20F0E9462
:1044DE00CE2D66ED74E2CE010E942C2881E00E9462
:1044EE00172D2FEF83ED90E3215080409040E1F7A0
:0E44FE0000C000000E945127DF91CF91089569
:10450C00CF92DF92EF92FF920F931F93CF93DF9393
:10451C008C01BC0180E80E94B72EEC01C8010E94FE
:10452C0068186B017C01BE0180E090E00E94271DA1
:10453C009B01AC01C701B6010E940E2EDF91CF91F9
:0E454C001F910F91FF90EF90DF90CF90089598
:10455A00CF92DF92EF92CF93DF936A01E62ED22FAA
:10456A0060E00E940024811113C0C0E00EC0AE2D8D
:10457A00C6018C0F911DA11DFC018491A7FD8081AC
:10458A000E945A2B811104C0CF5FCD1780F380E0BF
:0C459A00DF91CF91EF90DF90CF9008955B
:1045A600CF93DF93D82FC0E019C080E00E942B2D57
:1045B6002FEF82E597E0215080409040E1F700C060
:1045C600000081E00E942B2D2FEF82E597E021501D
:1045D60080409040E1F700C00000CF5FCD1728F380
:0C45E60080E00E942B2DDF91CF91089502
:1045F20040E05CE566E275E080E992E00E94072017
:1046020080E992E00E942F2C80E992E00E943D2CEA
:104612000E94D52D8823E1F380E992E00E94D32EF7
:1046220060E972E080E82EE936E040E00E94E6258B
:0C463200892B11F480E0089581E00895C8
:10463E000F931F93CF938A0122E046E15FE00E9421
:10464E008C1BC82F8823A9F086E19FE00E94ED20E5
:10465E00C82F882371F086E19FE00E9486220E9477
:10466E00EA2D28E030E045E553E060E0C8010E9405
:0C467E00DE288C2FCF911F910F91089522
:10468A000F931F93CF938A0122E046E15FE00E94D5
:10469A008C1BC82F8823A9F086E19FE00E94ED2099
:1046AA00C82F882371F086E19FE00E9486220E942B
:1046BA00F12D28E030E045E553E060E0C8010E94B2
:0C46CA00DE288C2FCF911F910F910895D6
:1046D6000F931F93CF938A0122E046E15FE00E9489
:1046E6008C1BC82F8823A9F086E19FE00E94ED204D
:1046F600C82F882371F086E19FE00E9486220E94DF
:10470600F82D28E030E045E553E060E0C8010E945E
:0C471600DE288C2FCF911F910F91089589
:104722001F920F920FB60F9211248F93EF93FF9364
:10473200E091DC0F8091DD0FE81758F481E08E0FD5
:104742008093DC0FF0E0EC59FE4F80818093C6002D
:1047520004C01092DC0F1092DD0FFF91EF918F9148
:0A4762000F900FBE0F901F901895E6
:10476C001F920F920FB60F9211248F93EF93FF931A
:10477C00E091E00F8091E10FE81758F481E08E0F83
:10478C008093E00FF0E0EC5AF24F80818093CE00E2
:10479C0004C01092E00F1092E10FFF91EF918F91F6
:0A47AC000F900FBE0F901F9018959C
:1047B6006F927F928F92CF92DF92EF920F931F9319
:1047C6003B01882E6901E42E842FB9010E94FB2942
:1047D6008C014E2D9601882DB3010E946B1F21E09E
:1047E600892B09F020E0822F1F910F91EF90DF9027
:0A47F600CF908F907F906F90089590
:1048000090E0880F991F682B84EA8093BC009091F8
:10481000BC009923E4F78091B900887F883099F42F
:104820006093BB0084E88093BC008091BC00882327
:10483000E4F78091B900887F883121F0803419F441
:0848400080E0089580E0089576
:10484800CF92DF92EF920F931F93CF93DF93EC01F8
:104858006B0180E8E82E8E2DB6010E94FB29409757
:1048680049F42E2D86014AE255E060E0CE010E940F
:10487800382202C08FEF9FEFDF91CF911F910F91E8
:08488800EF90DF90CF9008953E
:10489000CF92DF92EF920F931F93CF93DF93EC01B0
:1048A0006B0180E8E82E8E2DB6010E94FB2940970F
:1048B00049F42E2D860149E355E060E0CE010E94C7
:1048C000382202C08FEF9FEFDF91CF911F910F91A0
:0848D000EF90DF90CF900895F6
:1048D800CF92DF92EF920F931F93CF93DF93EC0168
:1048E8006B0180E8E82E8E2DB6010E94FB29809787
:1048F80049F42E2D860148E455E060E0CE010E947F
:10490800382202C08FEF9FEFDF91CF911F910F9157
:08491800EF90DF90CF900895AD
:10492000CF93DF931F92CDB7DEB79AB192609AB959
:10493000E1ECF0E09081977F90839BB19D7F9BB9E4
:10494000AFE9BFE01197F1F700C0000090819860D7
:104950009083898361E0CE0101960E9446280F90E2
:06496000DF91CF910895E4
:104966008091C80F9091C90F2091C60F3091C70F43
:10497600A9014F5F5F4F5093C70F4093C60F220F99
:10498600331F820F931F0E9419212091C60F309169
:10499600C70F8091CA0F9091CB0F2817390710F0D7
:0649A6000E94E72E0895B7
:1049AC008091D20F9091D30F2091D00F3091D10FD5
:1049BC00A9014F5F5F4F5093D10F4093D00F220F3F
:1049CC00331F820F931F0E940D1A2091D00F30912C
:1049DC00D10F8091D40F9091D50F2817390710F073
:0649EC000E943D2E08951B
:1049F200AFE0B0E0EFEFF4E20C9497270E891F8945
:104A020086E08D831A8309838FEF9FE79F838E83CE
:104A12009E01255E3F4F488D598D6A8DCE010196CC
:104A22000E945203E885F985E00FF11F10822F964C
:064A3200E4E00C940428EE
:104A3800CF92DF92EF920F931F93CF93DF93EC0106
:104A48006A01E62E862FBA010E94FB298C01BE015D
:104A580080E84E2D96010E946B1F21E0892B09F0FA
:104A680020E0822FDF91CF911F910F91EF90DF907F
:044A7800CF9008953E
:104A7C0057FD9058440F551F59F05F3F71F0479503
:104A8C00880F97FB991F61F09F3F79F087950895E8
:104A9C00121613061406551FF2CF4695F1DF08C007
:104AAC00161617061806991FF1CF86957105610524
:044ABC0008940895BD
:104AC000CF92DF92EF9221503109C0F06B01E82EB6
:104AD000C20ED31EE11CCA01820F931F422F732FF7
:104AE000F6015E2D0E94862E262F0E94D42A31E0E8
:104AF000C31AD108E1084150704090F7EF90DF9061
:044B0000CF900895B5
:104B0400A1E21A2EAA1BBB1BFD010DC0AA1FBB1FCD
:104B1400EE1FFF1FA217B307E407F50720F0A21B3F
:104B2400B30BE40BF50B661F771F881F991F1A94AC
:104B340069F760957095809590959B01AC01BD01D6
:044B4400CF01089500
:104B480084B18B7F84B985B1846085B9E9E6F0E0EA
:104B580080818F7E80838081806280838DB3846032
:104B68008DBB83B7817F846083BF83B7816083BF38
:104B78007894889583B78E7F83BF8DB38B7F8DBBE9
:024B880008958E
:104B8A0090E0880F991F282F216084EA8093BC0047
:104B9A009091BC009923E4F78091B900887F803115
:104BAA0079F42093BB0084E88093BC008091BC0018
:104BBA008823E4F78091B900887F803409F480E083
:024BCA0008954C
:104BCC00CF92DF92EF926B01E82EF6018491E7FC15
:104BDC008081F901549147FD508185130BC08823C6
:104BEC0041F08FEFC81AD80AE80A2F5F3F4F4F4F9A
:104BFC00ECCF582F90E0851B9109EF90DF90CF9070
:024C0C00089509
:104C0E00CF93C0E019C081E00E942B2D2FEF80E7DB
:104C1E0092E0215080409040E1F700C0000080E01B
:104C2E000E942B2D2FEF80E792E021508040904084
:104C3E00E1F700C00000CF5FCA3028F3CF9108958E
:104C4E00CF93DF93CDB7DEB7E4970FB6F894DEBF00
:104C5E000FBECDBFAE014C5C5F4FBE016F5F7F4F8D
:104C6E000E94411B6CA9CE0101960E94CD29E496AB
:104C7E000FB6F894DEBF0FBECDBFDF91CF91089572
:104C8E00CF93DF93CDB7DEB7E4970FB6F894DEBFC0
:104C9E000FBECDBFBE016C5C7F4FCE0101960E9450
:104CAE00072B6CA9CE0101960E94CD29E4960FB672
:0E4CBE00F894DEBF0FBECDBFDF91CF910895F9
:104CCC00CF93DF93CDB7DEB7E4970FB6F894DEBF82
:104CDC000FBECDBFBE016C5C7F4FCE0101960E9412
:104CEC00182B6CA9CE0101960E94CD29E4960FB623
:0E4CFC00F894DEBF0FBECDBFDF91CF910895BB
:104D0A00E1ECF0E08081806180838081886080832B
:104D1A00808180688083808180648083E0ECF0E019
:104D2A0080818260808386E08093C20080E190E087
:0C4D3A009093C5008093C4007894089505
:104D4600E9ECF0E0808180618083808188608083E7
:104D5600808180688083808180648083E8ECF0E0D5
:104D660080818260808386E08093CA0080E190E043
:0C4D76009093CD008093CC0078940895B9
:104D8200082E000C990BFC01EE0FFF1FE356F04FAB
:104D920020813181232B81F0880F991FFC01E3567A
:104DA200F04F118210828091D90F81508093D90FD8
:0A4DB200811102C00E94BE2E089578
:104DBC00CF92DF92EF926B01E82E0E94FB29409775
:104DCC0079F420E130E040E050E08E2DB6010E94F5
:104DDC00602561E080E490E00E94D32A81E001C06C
:0A4DEC0080E0EF90DF90CF90089573
:104DF600CF92DF92EF926B01E82E0E94FB2940973B
:104E060079F420E130E040E150E08E2DB6010E94B9
:104E1600602561E081E490E00E94D32A81E001C030
:0A4E260080E0EF90DF90CF90089538
:104E3000CF92DF92EF926B01E82E0E94FB298097C0
:104E400079F420E230E040E250E08E2DB6010E947D
:104E5000602561E082E490E00E94D32A81E001C0F5
:0A4E600080E0EF90DF90CF900895FE
:104E6A00CF93C82F81E00E942B2D2FEF83ED90E383
:104E7A00215080409040E1F700C000008C2F0E9432
:104E8A00D3222FEF89E698E1215080409040E1F744
:084E9A0000C00000CF91089553
:104EA20025E044E956E060E081E60E948B2D811105
:104EB2000FC025E049E956E060E081E60E948B2DB3
:104EC200811108C00E946D2E8823E1F380E00895CD
:084ED20082E0089582E00895DA
:104EDA000E9485260E94A32666E776E080E00E946B
:104EEA00201C0E94D52D882329F06FE776E080E008
:104EFA000E94201C2FEF89E698E1215080409040C3
:084F0A00E1F700C00000EDCF4B
:104F12002F923F924F925F926F927F928F929F92C7
:104F2200AF92BF92CF92DF92EF92FF920F931F93B5
:104F3200CF93DF93CDB7DEB7CA1BDB0B0FB6F89466
:084F4200DEBF0FBECDBF0994D4
:104F4A00CF93DF93EA01AB01682F80E992E00E94D8
:104F5A00042C80E992E00E942F2C80E992E00E94C2
:104F6A003D2C0E94D52D8823E1F3CE010E94D32E39
:064F7A00DF91CF910895C4
:104F800070E061507109FB01EE0FFF1F660F771F84
:104F9000660F771F660F771FE60FF71FE80FF91FE1
:104FA00083819481DA018D939C9385819681F901A7
:064FB00091838083089547
:104FB600AC0130E08FEF14C0FA01E30FF11D9081D0
:104FC600892728E00AC0882334F490E0880F991FC7
:104FD60091E3892701C0880F21502111F4CF3F5F4B
:064FE600361750F3089598
:104FEC002A88398848885F846E847D848C849B846D
:104FFC00AA84B984C884DF80EE80FD800C811B817B
:10500C00AA81B981CE0FD11D0FB6F894DEBF0FBEA9
:06501C00CDBFED01089577
:10502200CF92DF92EF926B01E82EA82FCB014115B0
:10503200510531F48C199D09EF90DF90CF900895BE
:10504200FC012491A7FD20812223A1F30196A11D39
:0650520041505109ECCFB2
:105058001092800028E020938100109282009093A3
:105068008900809388001092850010928400EFE6F2
:10507800F0E080818260808378947093C50F60939C
:04508800C40F0895B4
:10508C00DC0190E00BC0292F30E0FD01E20FF31F93
:10509C004081F901EC59FE4F40839F5F961798F3BE
:1050AC006093DD0F81E08093DC0F8091640180932D
:0450BC00C60008958D
:1050C000CF93DF9300D0CDB7DEB781E089831A821A
:1050D000AE014F5F5F4F60E822E081E50E948B2DBB
:1050E000882311F082E001C080E00F900F90DF91E3
:0450F000CF910895BF
:1050F400CF93DF93EC010E94042CFE010190002069
:10510400E9F7CF0123E030E040E155E060E00197AA
:105114000E94DE28BE0180E80E94FB29DF91CF9126
:025124000895EC
:1051260085E50E9490240E94D52D8823E1F380E92D
:1051360092E00E94D32E60E972E080E82EE936E024
:1051460040E00E94E625892B11F480E0089581E075
:025156000895BA
:105158000F931F93CF93DF938C01D62F0E94D62EE7
:10516800C82F2D2FA801682F88E593E00E94D40B43
:1051780081E08C0F0E94D92EDF91CF911F910F9162
:02518800089588
:10518A00CF93DF93EC0162E00E94DB279A818913B7
:10519A000AC062E0CE0103960E94DB279D8189172F
:1051AA0021F080E003C080E001C081E0DF91CF916F
:0251BA00089556
:1051BC00CF92DF92EF92DC016A01E62E280F391FA5
:1051CC00A217B30751F0F6014491E7FC40814D93CF
:1051DC004FEFC41AD40AE40AF3CFEF90DF90CF90CC
:0251EC00089524
:1051EE000F931F93CF938C010E94CC2CC82F882332
:1051FE0051F020E130E040E050E060E0C8010E9454
:10520E00C12AF801108A8C2FCF911F910F9108950A
:10521E000F931F93CF938C010E94D72CC82F8823F6
:10522E0051F020E130E040E150E060E0C8010E9422
:10523E00C12AF801108A8C2FCF911F910F910895DA
:10524E000F931F93CF938C010E94E22CC82F8823BB
:10525E0051F020E230E040E250E060E0C8010E94F0
:10526E00C12AF80110A28C2FCF911F910F91089592
:10527E000F931F93611109C007E515E020E04BE580
:10528E0055E060E00E94382208C007E615E020E0F5
:10529E004BE555E060E00E9438221F910F91089572
:1052AE00CF93DF93EC0120E030E00CC0DE01A20FC3
:1052BE00B31FF901E60FF71FEE50FC4F90819C9340
:1052CE002F5F3F4F2417350788F3DF91CF91089555
:1052DE00AC0190E00BC0292F30E0FA01E20FF31F72
:1052EE00E458FF4F8081813049F09F5FFA01E55805
:1052FE00FF4F8081981778F32FEF3FEFC901089584
:10530E008091CC0F9091CD0F01969093CD0F8093FD
:10531E00CC0F2091CE0F3091CF0F8217930738F01C
:10532E008091E90F0E94C12680E00E94212D0895F0
:10533E00BC0190E009C0FB01E90FF11DDA01A0509C
:10534E00BF4F2C9120839F5F492F50E02091DB0FA0
:0E535E0030E022503109421753076CF30895D6
:10536C00BC0190E009C0FB01E90FF11DDA01A05866
:10537C00B14F2C9120839F5F492F50E02091DF0F7C
:0E538C0030E022503109421753076CF30895A8
:10539A001F93CF93DF939C019091E60F91110AC05E
:1053AA00162FE9010E94A82C412FBE0184E60E9413
:0E53BA00F21201C083E0DF91CF911F910895A0
:1053C8009A01462FDC01BD016F5F7F4F5C91552329
:1053D80011F0DB01F8CFF901549147FD50815D933D
:0E53E800552321F02F5F3F4F4F4FF5CF089513
:1053F600CF92DF92EF926B01E82EA82FCB01FC0132
:105406002491A7FD2081222319F00196A11DF7CF33
:0C5416008C199D09EF90DF90CF90089555
:105422009C0190E081E00AC0F901E90FF11DE45806
:10543200FF4F4081423009F080E09F5FF901E5585B
:0A544200FF4F4081941780F3089596
:10544C000F931F93CF938C010E949F29C091DB0F68
:10545C00C250F801EC0FF11D10820E94722E8C2F9D
:08546C00CF911F910F910895EB
:105474000F931F93CF938C010E94B629C091DF0F25
:10548400C250F801EC0FF11D10820E94772E8C2F70
:08549400CF911F910F910895C3
:10549C00FC018081823741F0873741F0833641F03F
:1054AC00833741F48AE0089587E0089588E00895F1
:0854BC0089E0089585E00895E0
:1054C4000E94672D0E94AB2D81E00E94032D0E9453
:1054D400B92D81E00E94172D0E94D72B882311F04B
:0854E40080E0089581E00895C5
:1054EC00CF93633071F018F4662331F003C065502C
:1054FC00623010F084E106C0C42F0E94552E8C2F10
:08550C0001C0842FCF91089526
:105514000F931F93BC0180E804E010E02EE735E010
:1055240040E00E946B1F892B11F484E001C083E0EA
:065534001F910F91089584
:10553A001F93CF93DF93EB01142F61E00E940024A5
:10554A00811104C0612FCE010E949420DF91CF9176
:04555A001F91089500
:10555E001092CD0F1092CC0F9093CF0F8093CE0F51
:10556E0087E899E20E946F218093E90F81E00E9403
:04557E00212D08953E
:10558200BA01A901DC01CB01FC01F999FECF06C0E9
:10559200F2BDE1BDF89A319600B40D9241505040EF
:0455A200B8F70895B9
:1055A600262FF999FECF92BD81BDF89A019700B4D6
:1055B600021639F01FBA20BD0FB6F894FA9AF99A76
:0455C6000FBE089577
:1055CA001F93CF93DF93EB01142F0E94C5258111FE
:1055DA0004C0612FCE010E949420DF91CF911F91C8
:0255EA00089522
:1055EC00CF93DF93EC0188E593E00E946F298883C9
:1055FC009983892F8095881F8827881FDF91CF91E9
:02560C000895FF
:10560E00CF93DF93EB0120915803FC012193BF014F
:10561E0088E593E00E94BC198F5F8883DF91CF915C
:02562E000895DD
:10563000CF93DF93EB0120915803FC012193BF012D
:1056400088E593E00E9418198F5F8883DF91CF91DE
:025650000895BB
:10565200092E0394000C11F4882352F0BB0F40F47E
:10566200BF2B11F460FF04C06F5F7F4F8F4F9F4FBE
:02567200089599
:1056740092E094BD15BC87BD16BCEEE6F0E08081D7
:105684008260808378947093C30F6093C20F0895EF
:1056940082E08093B0001092B1001092B600109294
:1056A400B2009BEF9093B3008093700078940895B8
:1056B4008093BB0084E88093BC008091BC00882365
:1056C400E4F78091B900887F883209F480E0089576
:1056D4000E94DC2E0E94AD090E94C4102FEF8DE3BE
:1056E40099E4215080409040E1F700C00000F2CFDF
:1056F4008093E30F1092E20F81E00E940D2D6CE97C
:105704007CE281E00E943A2B0E94BB2E80E0089547
:10571400FC01E558FF4F208130E0621773073CF429
:10572400680F791FFB01E458FF4F82E080830895DE
:10573400DB018F939F930E94F82CBF91AF91A29F9E
:10574400800D911DA39F900DB29F900D112408957B
:10575400CF93DF93EC0163E470E080E00E94302E8D
:0E576400688379838A839B83DF91CF910895B8
:10577200CF93DF93EC0167E470E080E00E94302E6B
:0E578200688379838A839B83DF91CF9108959A
:10579000CF93DF93EC016BE470E080E00E94302E49
:0E57A000688379838A839B83DF91CF9108957C
:1057AE0081E00E94172D2FEF83ED90E32150804072
:0E57BE009040E1F700C000000E9451270895BE
:1057CC00833049F018F4882341F003C085508230AF
:0E57DC0020F084E10895842F0895862F08950B
:1057EA00A29FB001B39FC001A39F700D811D112418
:0E57FA00911DB29F700D811D1124911D089507
:105808009A01462FDC01F901549147FD50815D93BF
:0E581800552321F02F5F3F4F4F4FF5CF0895DE
:105826004091C60F5091C70F2091CA0F3091CB0FF0
:0C58360081E04217530708F480E0089559
:105842008091E70F8F5F8093E70F863030F01092E0
:0C585200E60F8091E50F0E94C12608952A
:10585E00FC0101900020E9F7CF0123E030E040E1A8
:0C586E0055E060E001970E94DE280895DC
:10587A00CF93DF93EC01BC0180E80E94FB29682FDB
:0C588A00CE010E944628DF91CF910895C6
:105896004091CC0F5091CD0F2091CE0F3091CF0F6C
:0C58A60081E04217530708F480E00895E9
:1058B2004091D00F5091D10F2091D40F3091D50F3C
:0C58C20081E04217530708F480E00895CD
:1058CE00833051F0843021F0811104C082E00895BC
:0C58DE0084E0089584E1089583E00895BB
:1058EA00FC015481438131812081652F742F832FDC
:0A58FA00922F0E946520CB01089553
:10590400CF93DF93EC010E946D2E8823E1F3CE0147
:0A5914000E940D1ADF91CF91089553
:10591E00992777FD05C005900D920197E1F708953F
:0A592E0001900D920197E1F7089532
:105938008091E20F8F5F8093E20F9091E30F8917B8
:0859480010F00E94E72E089503
:1059500081E29CE20E946F218093E50F81E08093B9
:08596000E60F1092E70F089515
