:100000000C9480000C948B1E0C948B1E0C94481D39
:100010000C948B1E0C948B1E0C948B1E0C948B1EBC
:100020000C948B1E0C949F0F0C948B1E0C948B1EA7
:100030000C948B1E0C940D150C948B1E0C948B1E23
:100040000C94E6140C948B1E0C948B1E0C948B1E3B
:100050000C9405120C948B1E0C94F4150C948B1EAE
:100060000C948B1E0C948B1E0C948B1E0C948B1E6C
:100070000C943F120C948B1E0C941916DF03E804A9
:10008000FE031B043A04590478049704B404D10411
:10009000E304F904FB04300A630A510A810A810A65
:1000A000700A6E0A830A6A0A6C0A2B05470558050E
:1000B000670579055C05820599058E05A405B005DF
:1000C000BD05C505CD05D505DD05F90500060D06FF
:1000D000230631063A0601000D52800D520D7500BF
:1000E0003D1E0D750D85800D850D96003D410D96CB
:1000F0000DAE800DAE0DB0003D520DB00DC68000AE
:1001000011241FBECFEFD0E1DEBFCDBFE6EDF0E0A2
:1001100040E017C0B591A59135912591059107FD56
:100120000CC095918591EF01F92FE82F05900D9264
:10013000A217B307D9F7FE0104C01D92A217B30797
:10014000E1F7EF3FF40731F70E94DB1C0C94A800A5
:04015000F894FFCF51
:100154003030303441333042303046343534374136
:100164000037304233443537454430303346383431
:100174003400423838414436443235413342323710
:1001840043363941303146373443353346394131CA
:100194003739004A6F696E0A0D004C6F526120575F
:1001A400414B452055500A0D005472792061676116
:1001B400696E0A0D00436F6E66206572720A0D0047
:1001C400494E4954205254430A0D00436C656172F0
:1001D40020696E746572727570740A0D00536574CB
:1001E4002077616B6520696E746572727570740A2C
:1001F4000D004D72707020696E69740A0D00536CA5
:100204006565700A0D004177616B650A0D004661F2
:1002140074616C206572726F720A0D00454E440A57
:020224000D00CB
:1002260025303278000D0A0073797320736C65658A
:100236007000257320256C64002573202573006DDE
:1002460061632073657420646576657569006D6108
:10025600632073657420617070657569006D6163F4
:1002660020736574206170706B6579006F66660037
:100276006D61632073657420616472006F6E006D3A
:10028600616320747820636E6600257320257520CF
:03029600257300CD
:10029900524E32343833006D616320726573657470
:1002A90020383638006F6B006D61632073617665A5
:1002B900006D6163206A6F696E206F74616100610E
:0802C900636365707465640055
:1002D1006E6F5F667265655F6368006D61635F6520
:1002E1007272006D61635F727800696E76616C692C
:1002F100645F646174615F6C656E006F6B006D615A
:08030100635F74785F6F6B000D
:100309006E6F5F667265655F63680064656E6965D7
:1003190064006B6579735F6E6F745F696E697400F1
:0503290046000002E3A4
:05032E00001000008139
:030333006F6B00ED
:020336000300C2
:0103380002C2
:10033A002F923F924F926F927F928F929F92AF929B
:10034A00BF92CF92DF92EF92FF920F931F93CF93B8
:10035A00DF93CDB7DEB762970FB6F894DEBF0FBE54
:10036A00CDBF6C013A01862E7901FC0110861782F5
:10037A00848181FFE7C19E012F5F3F4F3D872C8714
:10038A00C901A0E8888B998BAA8B9FE3992EF30168
:10039A00849187FC8081882309F4D0C1482D930178
:1003AA002F5F3F4F4F4F853219F03901842E0AC013
:1003BA00F901849147FD808192E0690E711C811CCC
:1003CA00853229F4B60190E00E94C911E0CFB12C20
:1003DA0000E010E01032A0F48B3269F030F4803281
:1003EA0059F0833269F410612CC08D3239F08033B0
:1003FA0039F4116026C01260146023C0186021C04D
:10040A0017FD29C090ED980F9A3078F416FF06C0B0
:10041A00AAE0BA9E900D1124B92E13C0EAE00E9FED
:10042A00900D1124092F10620CC08E3221F416FD92
:10043A0085C1106406C08C3611F4106802C0883673
:10044A0051F4F301849187FC8081FFEF6F1A7F0AD0
:10045A008F0A8111BFCF982F9F7D9554933028F42E
:10046A0024E0E20EF11C99820FC0833631F0833703
:10047A0091F0833509F063C027C0F7018081898331
:10048A0097012E5F3F4F7901288839884A88AA2424
:10049A00A394B12C17C0A7014D5F5F4F5F874E87AA
:1004AA00F70120803180428016FF03C04B2D50E0B7
:1004BA0002C04FEF5FEF842DB1010E9487195C01E2
:1004CA00EE84FF841F7718C097012D5F3F4F3F8747
:1004DA002E87F70120803180428016FF03C04B2D02
:1004EA0050E002C04FEF5FEF842DB1010E948719DF
:1004FA005C011068EE84FF8413FD1DC0802F90E01C
:10050A00A816B906C0F4B60180E290E00E94C911AB
:10051A000150F4CFF101849147FC8081FFEF2F1A3B
:10052A003F0A4F0AB60190E00E94C9110111015019
:10053A0021E0A21AB108A114B10461F7F5C084360A
:10054A0011F0893671F5F70117FF08C060817181D2
:10055A008281938197012C5F3F4F09C0608171812D
:10056A00072E000C880B990B97012E5F3F4F7901DC
:10057A001F76312E97FF0AC09095809570956195E8
:10058A007F4F8F4F9F4F312F3068332E2AE030E054
:10059A00AE014F5F5F4F0E94F70D482E4C85441AFB
:1005AA004AC0853729F41F7EA12E2AE030E025C0F3
:1005BA00512F597FA52E8F36C1F018F4883579F05E
:1005CA00BDC0803719F0883721F0B8C0852F806107
:1005DA00A82EA4FE0DC09A2D9460A92E09C014FF5E
:1005EA000AC0A52FA660AA2E06C028E030E005C0E2
:1005FA0020E130E002C020E132E0F701A7FE08C0A6
:10060A006081718182819381A7014C5F5F4F07C02E
:10061A006081718180E090E0A7014E5F5F4F7A01AF
:10062A00AE014F5F5F4F0E94F70D482E5C85451A59
:10063A008A2D8F77382E36FE0DC0932D9E7FA92ED8
:10064A004B1458F434FE0BC032FC09C0A32DAE7E05
:10065A00AA2E05C0142DA32C03C0142D01C01B2DD6
:10066A00A4FE0EC0FE01E40DF11D8081803321F449
:10067A00EA2DE97EAE2E08C0A2FE05C01E5F04C0A8
:10068A008A2D867809F01F5FA3FC11C0A0FE06C060
:10069A00101788F4040DB02EB11A0EC0101760F4AA
:1006AA00B60180E290E00E94C9111F5FF7CF1017D0
:1006BA0018F4011B02C0B42C00E0A4FE10C0B6015D
:1006CA0080E390E00E94C911A2FE17C0A1FC03C0FA
:1006DA0088E790E002C088E590E0B6010CC08A2D58
:1006EA00867859F0A1FE02C08BE201C080E2A7FC25
:1006FA008DE2B60190E00E94C9114B1438F4B6019C
:10070A0080E390E00E94C911BA94F7CF4A94E1E0DD
:10071A00F0E0EC0FFD1FE40DF11D8081B60190E0C1
:10072A000E94C9114110F2CF002309F430CEB6015C
:10073A0080E290E00E94C9110150F6CFF60187814C
:10074A00908502C08FEF9FEF62960FB6F894DEBFD6
:10075A000FBECDBFDF91CF911F910F91FF90EF9008
:10076A00DF90CF90BF90AF909F908F907F906F90C7
:08077A004F903F902F9008956D
:10078200AF92BF92CF92DF92EF92FF921F93CF93DD
:10079200DF93CDB7DEB728970FB6F894DEBF0FBE52
:1007A200CDBF5C016B017A0110E0E12FF0E0ED308A
:1007B200F105D8F7E25CFF4F0C94281E0E94461EFA
:1007C2002FEF89E698E1215080409040E1F700C088
:1007D20000000E944A1E4CE050E062E070E0CE0150
:1007E20001960E940A1E29E932E040E061E0CE0152
:1007F20001960E94101E11E0D8CF40EA52E060E05C
:1008020080E992E00E940B1A80E992E00E94891C22
:100812004CE050E063E070E0CE0101960E940A1EB7
:100822002EEA32E040E060E0CE0101960E94101E06
:1008320011E0BBCFB50180E992E00E94871680E902
:1008420092E00E947B1C80E992E00E94891C4CE0AD
:1008520050E064E070E0CE0101960E940A1E2EEA8A
:1008620032E040E060E0CE0101960E94101E11E0ED
:100872009CCFB70180E992E00E94CF1680E992E016
:100882000E947B1C80E992E00E94891C4CE050E0AF
:1008920065E070E0CE0101960E940A1E2EEA32E067
:1008A20040E060E0CE0101960E94101E11E07DCF73
:1008B200B60180E992E00E94AB1680E992E00E94C4
:1008C2007B1C80E992E00E94891C4CE050E066E0CB
:1008D20070E0CE0101960E940A1E2EEA32E040E04C
:1008E20060E0CE0101960E94101E11E05ECF61E031
:1008F20080E992E00E94881A80E992E00E947B1CC3
:1009020080E992E00E94891C4CE050E067E070E0D0
:10091200CE0101960E940A1E2EEA32E040E060E01B
:10092200CE0101960E94101E11E03FCF41EB52E032
:1009320060E080E992E00E940B1A80E992E00E9456
:10094200891C4CE050E068E070E0CE0101960E9404
:100952000A1E2EEA32E040E060E0CE0101960E94DB
:10096200101E11E022CF4AEB52E060E080E992E0F3
:100972000E940B1A80E992E00E94891C4AE050E032
:1009820069E070E0CE0101960E940A1E2EEA32E072
:1009920040E060E0CE0101960E94101E11E005CFFA
:1009A2004AE050E06BE070E0CE0101960E940A1E20
:1009B20028EC32E040E060E0CE0101960E94101E79
:1009C20011E0F3CE80E992E00E94681414C00E9404
:1009D200CE1D882309F4E9CE80E992E00E947F1EB1
:1009E20060E972E0CE0101960E94AF13182FDDCEAE
:1009F20080E001C082E028960FB6F894DEBF0FBEF9
:100A0200CDBFDF91CF911F91FF90EF90DF90CF90FC
:060A1200BF90AF900895B3
:100A18001F93CF93DF9310E0C0E010C0C5E00EC075
:100A2800C4E10CC0C4E10AC0C4E108C0C4E106C006
:100A3800CD2F04C0CD2F02C0DC2FCFE0EC2FF0E08B
:100A4800E631F105D8F7EB5AFF4F0C94281E0E94A7
:100A5800A4180E94C2180E947A1D0E94F21B0E94CC
:100A6800A41D0E94AB1D0E94B91D0E94B21D0E94C8
:100A7800C01D85B1816085B985B1826085B91111C4
:100A8800CDCFC1E0DBCF67E971E080E00E94FF1CB9
:100A98000E94D51D0E944F11C82F0E949C1D8C2FAB
:100AA8000E94B31CC82FCACF0E942618C6E0C6CF22
:100AB8006EE971E080E00E94FF1C0E947C1E81119B
:100AC800AFCFC6E0BBCF6DEA71E080E00E94FF1CAB
:100AD8000E94521E2FEF81E19AE7215080409040FA
:100AE800E1F700C00000C1E0A9CF0E94561E69EBE3
:100AF80071E080E00E94FF1CC5E1A0CF64EC71E0CA
:100B080080E00E94FF1C81E00E94BE1481118ACF00
:100B1800C8E094CF6FEC71E080E00E94FF1C0E9457
:100B2800F119811181CFC7E089CF61EE71E080E0D2
:100B38000E94FF1C0E945E1E811178CFC9E07ECF03
:100B480066EF71E080E00E94FF1C67E082E59DE0AF
:100B58000E943D1ACAE072CF0E94381E882309F409
:100B68006DCF0E9466184AE06BE00E94321CC82FC5
:100B780065CF0E94C70C6CE00E940B1DDC2FC82FAC
:100B88005DCF0E94920A6DE00E940B1DDC2FC82FDA
:100B980055CF0E9491096EE00E940B1DDC2FC82FD3
:100BA8004DCF0E940A0B60E10E940B1DDC2FC82F5D
:100BB80045CF8EEA9DE00E949E1B882309F438CF1A
:100BC8000E94381E882309F435CF8091AE0D90918C
:100BD800AF0D0E9446184D2F682F8091AE0D909151
:100BE800AF0D0E94551BC82F29CF0E943D1E882398
:100BF80009F422CFC1E122CF0E94381E882309F4CC
:100C08001DCF0E94851841E162E10E94321CC82F65
:100C180015CF0E94791E11E0811110E080E00E943A
:100C2800161D80E00E942A1D80E00E94341D80E08D
:100C38000E94201D80E00E943E1DC3E1FFCE62E0BD
:100C480072E080E00E94FF1C0E94C3176AE072E015
:100C580080E00E94FF1CC0E0F1CE62E172E080E01B
:100C68000E94FF1C0E945A1EC5E1E8CE60E272E0B5
:0E0C780080E00E94FF1CDF91CF911F91089534
:100C8600AF92BF92CF92DF92EF92FF920F931F9394
:100C9600CF93DF93EC01C22E68832A83D12C00E028
:100CA60010E08FC0ED2DF0E0CF01880F991F880F5F
:100CB600991F8E0F9F1F840F951FDC0112966D9151
:100CC6007C911397DF01AA0FBB1F9F01220F331FD1
:100CD600220F331F220F331FA20FB31F5D01AC0E6D
:100CE600BD1ED50119967C936E931897DC01149658
:100CF6002C91D50117962C93179714961C930E9347
:100D06001397DC012D913C91119714968C91829F3B
:100D16007001839FF00C1124B6E0EB0EF11CD50197
:100D26001696FC92EE9215979801ABEABAEA0E94E3
:100D3600411C96958795929582958F7089279F700D
:100D460089279F012F5F3F4FD901AA0FBB1F220F93
:100D5600331F220F331F220F331FA20FB31FAC0FF7
:100D6600BD1F8C930E0D1F1D9801ABEABAEA0E94B7
:100D7600411C7C01F694E794F694E794F694E79484
:100D8600F694E794F694E794BE2C20E32E9DC001DA
:100D96002F9D900D11240817190719F4BB24BA9436
:100DA600BE0CCF01880F991FEE0FFF1FEE0FFF1F1E
:100DB600EE0FFF1FE80FF91FEC0FFD1FB386148619
:100DC600D394DC1408F46ECF9801ABEABAEA0E9419
:100DD600411CFC01F695E795F295E295EF70EF2739
:100DE600FF70EF274E2F52E05E0F20E32E9FC001CB
:100DF6002F9F900D1124081B190B11F451E05E0F63
:100E06005983012B11F041E04E0FFE01E558FF4FCB
:100E1600408380E007C0FE01E80FF11DE458FF4F54
:100E260010828F5F8417B8F3DF91CF911F910F91D6
:0E0E3600FF90EF90DF90CF90BF90AF900895A7
:100E4400CF93DC01262F30E0C9010197F901EE0FA1
:100E5400FF1F220F331F220F331F220F331FE20FF6
:100E6400F31FEA0FFB1F7081C0E025C082179307B0
:100E740009F1A901440F551F440F551F440F551F75
:100E8400F901EE0FFF1FE40FF51FEA0FFB1F438567
:100E9400741310C0F901EE0FFF1F220F331F220F2E
:100EA400331F220F331FE20FF31FEA0FFB1F2485AA
:100EB400233041F4CF5F2C2F30E028173907B4F2E8
:100EC40021E001C020E0222339F0FD01E70FF11DEC
:100ED400E458FF4F21E020839C01220F331F220F8F
:100EE400331F220F331FFC01EE0FFF1FE20FF31F0E
:100EF400EA0FFB1FC38529C0462F50E084179507CE
:100F040019F19A012F5F3F4FF901EE0FFF1F220FD6
:100F1400331F220F331F220F331FE20FF31FEA0F79
:100F2400FB1F2081C21310C0FA01EE0FFF1F440FF4
:100F3400551F440F551F440F551FE40FF51FEA0FAB
:100F4400FB1F2485233041F46F5F12962C91129776
:100F5400621790F281E001C080E0882341F0FD0136
:100F6400EC0FF11DE458FF4F81E0808306C0FD01C2
:100F7400EC0FF11DE458FF4F10828C2F90E0871B7B
:100F84009109029764F07F5F08C0FD01E70FF11D2E
:100F9400E458FF4F81E080837F5F7C17B0F3CF91EB
:020FA4000895AE
:100FA6000F931F93CF93DF93CDB7DEB727970FB677
:100FB600F894DEBF0FBECDBF8C0121E048E353E0BD
:100FC60060E081E50E94701E81117CC047E0BE0191
:100FD6006F5F7F4F81E50E948D1B811175C029814E
:100FE600822F8F7790E0959587959595879595951E
:100FF600879595958795880F982F990F990F890F43
:101006002F70820FF80180832A81822F8F7790E0DC
:1010160095958795959587959595879595958795B2
:10102600880F982F990F990F890F2F70820F818340
:101036002B81822F8F7390E095958795959587954F
:101046009595879595958795880F982F990F990F60
:10105600890F2F70820F82832C81822F8F7390E0ED
:101066009595879595958795959587959595879562
:10107600880F982F990F990F890F2F70820F8383EE
:101086002E81822F8F7190E09595879595958795FE
:101096009595879595958795880F982F990F990F10
:1010A600890F2F70820F84838F81982F92959F705E
:1010B600990F292F220F220F920F8F70890F858388
:1010C60080E003C082E001C082E027960FB6F89464
:1010D600DEBF0FBECDBFDF91CF911F910F91089557
:1010E6004F925F926F927F928F929F92AF92BF9232
:1010F600CF92DF92EF92FF920F931F93CF93DF93DE
:1011060000D000D000D0CDB7DEB7F901492E512C62
:10111600612C712C032E3AE1440C551C661C771C7D
:101126003A95D1F7302D90E0A0E0B0E0072E76E1B9
:10113600880F991FAA1FBB1F7A95D1F7702D842996
:101146009529A629B729872E912CA12CB12C072EDB
:1011560071E1880C991CAA1CBB1C7A95D1F7702DDD
:1011660088299929AA29BB29C62ED12CE12CF12C34
:101176000B2EBCE0CC0CDD1CEE1CFF1CBA95D1F787
:10118600B02D8C299D29AE29BF29052F10E020E01E
:1011960030E0000F111F221F331F000F111F221FE7
:1011A600331F000F111F221F331F000F111F221F95
:1011B600331F000F111F221F331F000F111F221F85
:1011C600331F802B912BA22BB32B842BB083A183AF
:1011D6009283838326960FB6F894DEBF0FBECDBFEB
:1011E600DF91CF911F910F91FF90EF90DF90CF90FD
:1011F600BF90AF909F908F907F906F905F904F9031
:02120600089549
:101208008F929F92AF92BF92CF92DF92EF92FF920E
:101218000F931F93CF93DF93EC016B014A015901A0
:101228000E94B81A8F3F2FEF920709F466C08C15F9
:101238009D0509F064C080E009C0FE01E80FF11DBA
:10124800E458FF4F9081913041F08F5FFE01E558DF
:10125800FF4F9081891788F380E091E0980FF4019F
:1012680090839981F501908390E040E3489F900135
:10127800499F300D1124F80131832083FE01E55880
:10128800FF4F208130E021503109821793072CF459
:1012980080E3F701808381E033C08A8190E0019781
:1012A8009C01220F331F880F991F880F991F880FE1
:1012B800991F820F931FC80FD91F4B815C818D81A5
:1012C8009E81480F591F9A01ABEABAEA0E94411C55
:1012D80096958795929582958F7089279F70892713
:1012E80060E3689F9001699F300D1124CA01821B39
:1012F800930BF701808381E003C080E001C080E0A8
:10130800DF91CF911F910F91FF90EF90DF90CF90D9
:0A131800BF90AF909F908F90089552
:101322008091C30D823089F128F4882359F08130ED
:1013320021F1F6CF843009F466C098F1853009F4C2
:1013420040C0EECFE2E5FDE0678570894AE659E0EC
:10135200818992890E945B1581115BC0E2E5FDE003
:101362006489758942E157E086890E944D13811193
:1013720052C081E08093C30DD3CF8FE79DE00E94DE
:10138200D30782E08093C30DCBCF0E941C1E0E9424
:10139200041E8AE090E00E947B1B83E08093C30DD1
:1013A200BFCF0E94A51C8823C1F10E945F1C882325
:1013B200B1F10E94971C8823A1F185E08093C30DAF
:1013C200AFCF26E93DE040917F0D5091800D6091B5
:1013D200810D7091820D8091830D9091840D0E94F8
:1013E20073084AE659E066E97DE084E00E947712DC
:1013F20042E157E066E97DE085E00E94771284E0F1
:101402008093C30D8DCF0E94701D0E94661D81E0E6
:10141200089583E0089583E0089580E0089580E0D0
:06142200089580E008952A
:10142800DF92EF92FF920F931F93CF93DF93CDB785
:10143800DEB728970FB6F894DEBF0FBECDBFD82E03
:101448007B01042F10E0E12FF0E0EA30F105D8F736
:10145800E55BFF4F0C94281E202FA7016D2D80E916
:1014680092E00E94550E80E992E00E947B1C80E980
:1014780092E00E94891C41E050E062E070E0CE01F9
:1014880001960E940A1E2CEF32E040E060E0CE0197
:1014980001960E94101E15E0D6CF41E050E064E0AE
:1014A80070E0CE0101960E940A1E2FEF32E040E064
:1014B80060E0CE0101960E94101E15E0C4CF60E9DD
:1014C80072E080E80E941913182FBDCF85E018C07C
:1014D80086E016C082E014C00E94CE1D882309F45D
:1014E800B2CF80E992E00E947F1E60E972E0CE01EF
:1014F80001960E94AF13182FA6CF80E001C083E0A9
:1015080028960FB6F894DEBF0FBECDBFDF91CF91FE
:0C1518001F910F91FF90EF90DF9008955D
:101524008091C40D823081F128F4882351F08130F8
:1015340019F1F6CF843009F45DC070F18530C1F142
:10154400EFCFE2E5FDE0658176814AE659E08781E7
:1015540090850E945B15811153C0E2E5FDE0628530
:10156400738542E157E084850E944D1381114AC07E
:1015740081E08093C40DD4CF8FE79DE00E94D30710
:1015840082E08093C40DCCCF0E941C1E0E94041ED6
:1015940083E08093C40DC4CF0E94A51C8823A1F1CD
:1015A4000E945F1C882391F185E08093C40DB8CF1D
:1015B40026E93DE040917F0D5091800D6091810DB1
:1015C4007091820D8091830D9091840D0E94730817
:1015D4004AE659E066E97DE082E00E94771242E142
:1015E40057E066E97DE083E00E94771284E080930F
:1015F400C40D96CF0E94701D0E94661D81E008955F
:1016040083E0089583E0089580E0089580E00895DC
:101614008091C20D823081F128F4882351F0813009
:1016240019F1F6CF843009F45DC070F18530C1F151
:10163400EFCFE2E5FDE0618D728D4AE659E0838DDE
:10164400948D0E945B15811153C0E2E5FDE0668D27
:10165400778D42E157E080A10E944D1381114AC069
:1016640081E08093C20DD4CF8FE79DE00E94D30721
:1016740082E08093C20DCCCF0E941C1E0E94041EE7
:1016840083E08093C20DC4CF0E94A51C8823A1F1DE
:101694000E945F1C882391F185E08093C20DB8CF2E
:1016A40026E93DE040917F0D5091800D6091810DC0
:1016B4007091820D8091830D9091840D0E94730826
:1016C4004AE659E066E97DE086E00E94771242E14D
:1016D40057E066E97DE087E00E94771284E080931A
:1016E400C20D96CF0E94701D0E94661D81E0089570
:1016F40083E0089583E0089580E0089580E00895EC
:1017040010C00E94EA1D58F00E94E31D40F029F425
:101714005F3F29F00C94221E51110C94F21D0C947D
:10172400881E0E94A11768F39923B1F3552391F3FE
:10173400951B550BBB27AA2762177307840738F03C
:101744009F5F5F4F220F331F441FAA1FA9F335D099
:101754000E2E3AF0E0E832D091505040E695001C4D
:10176400CAF72BD0FE2F29D0660F771F881FBB1F07
:10177400261737074807AB07B0E809F0BB0B802DE5
:10178400BF01FF2793585F4F3AF09E3F510578F011
:101794000C94221E0C94F21D5F3FE4F3983ED4F3A4
:1017A400869577956795B795F7959F5FC9F7880FE5
:1017B400911D9695879597F90895E1E0660F771F37
:1017C400881FBB1F621773078407BA0720F0621BC8
:0E17D400730B840BBA0BEE1F88F7E095089597
:1017E200CF92DF92EF92FF920F931F93CF93DF93EB
:1017F200DC01EB0190E040E0C12CD12C76014AC023
:10180200292F30E0F901EE0FFF1F220F331F220FA5
:10181200331F220F331FE20FF31FEA0FFB1F278133
:101822002230A9F0243021F1213091F501E010E0BD
:10183200042E02C0000F111F0A94E2F7012E000CC1
:10184200220B330BC02AD12AE22AF32A21C002E05A
:1018520010E0042E02C0000F111F0A94E2F7012EBD
:10186200000C220B330BC02AD12AE22AF32A10C021
:1018720003E010E0042E02C0000F111F0A94E2F7E9
:10188200012E000C220B330BC02AD12AE22AF32AA2
:101892004E5F9F5F12968C911297981708F4B0CF03
:1018A200EB82DC82CD82DF91CF911F910F91FF906D
:0818B200EF90DF90CF90089544
:1018BA000FC00E94E31D38F00E94EA1D20F0952314
:1018CA0011F00C94221E0C94881E11240C94F21D03
:1018DA000E94A11770F3959FC1F3950F50E0551F11
:1018EA00629FF001729FBB27F00DB11D639FAA276B
:1018FA00F00DB11DAA1F649F6627B00DA11D661FBA
:10190A00829F2227B00DA11D621F739FB00DA11DDA
:10191A00621F839FA00D611D221F749F3327A00D94
:10192A00611D231F849F600D211D822F762F6A2F30
:10193A0011249F5750409AF0F1F088234AF0EE0F95
:10194A00FF1FBB1F661F771F881F91505040A9F7C2
:10195A009E3F510580F00C94221E0C94F21D5F3FAD
:10196A00E4F3983ED4F3869577956795B795F795FE
:10197A00E7959F5FC1F7FE2B880F911D9695879576
:04198A0097F908952C
:10198E008091C50D823029F128F4882351F08130E1
:10199E00C1F0F6CF843009F44EC030F1853081F1BC
:1019AE00EFCFE2E5FDE0608171814AE659E0828188
:1019BE0093810E945B15811142C081E08093C50D19
:1019CE00DFCF8FE79DE00E94D30782E08093C50DA5
:1019DE00D7CF81E00E94121C811133C00E941C1EC1
:1019EE0083E08093C50DCCCF0E94831D882359F1CF
:1019FE000E94A51C882349F185E08093C50DC0CFB8
:101A0E0026E93DE040917F0D5091800D6091810D52
:101A1E007091820D8091830D9091840D0E947308B8
:101A2E004AE659E066E97DE081E00E94771284E0A3
:101A3E008093C50DA5CF0E94701D81E0089583E0AF
:0E1A4E00089583E0089580E0089580E00895F3
:101A5C0011C00E94E31D38F00E94EA1D20F039F4F9
:101A6C009F3F19F426F40C94881E0EF4E095E7FBC6
:101A7C000C94221EE92F0E94A11758F3BA17620783
:101A8C0073078407950720F079F4A6F50C94F11DE3
:101A9C000EF4E0950B2EBA2FA02D0B01B90190017D
:101AAC000C01CA01A0011124FF27591B99F0593FC1
:101ABC0050F4503E68F11A16F040A22F232F342F09
:101ACC004427585FF3CF469537952795A795F04057
:101ADC005395C9F77EF41F16BA0B620B730B840B6C
:101AEC00BAF09150A1F0FF0FBB1F661F771F881F24
:101AFC00C2F70EC0BA0F621F731F841F48F487957C
:101B0C0077956795B795F7959E3F08F0B0CF93956D
:0E1B1C00880F08F09927EE0F9795879508958A
:101B2A001F93CF93DF93CDB7DEB72D970FB6F894F7
:101B3A00DEBF0FBECDBF182F81E0898382E08A8382
:101B4A0085E0E5E8FDE0DE01139601900D928A95A5
:101B5A00E1F7CE0108960E94D3078985810F99E89B
:101B6A00899F912D11249295969597702CE3929FB7
:101B7A00801911248987AE014F5F5F4F60E822E028
:101B8A0081E50E948C1D811120C099858DEC989F5A
:101B9A00812D112486958695869540E1849F900132
:101BAA001124880F382F330F330F830F981B922B72
:101BBA009C83AE014D5F5F4F60E825E081E50E949E
:101BCA008C1D882321F082E003C082E001C080E0FE
:101BDA002D960FB6F894DEBF0FBECDBFDF91CF9121
:041BEA001F910895AA
:101BEE00FA01AA27283051F1203181F1E8946F9340
:101BFE006E7F6E5F7F4F8F4F9F4FAF4FB1E03ED0E6
:101C0E00B4E03CD0670F781F891F9A1FA11D680F83
:101C1E00791F8A1F911DA11D6A0F711D811D911DB6
:101C2E00A11D20D009F468943F912AE0269F11242B
:101C3E003019305D3193DEF6CF010895462F47708F
:101C4E00405D4193B3E00FD0C9F7F6CF462F4F70EA
:101C5E00405D4A3318F0495D31FD4052419302D048
:101C6E00A9F7EACFB4E0A6959795879577956795EE
:101C7E00BA95C9F700976105710508959B01AC01EE
:101C8E000A2E06945795479537952795BA95C9F715
:0C1C9E00620F731F841F951FA01D089586
:101CAA00DF92EF92FF920F931F93CF93DF93CDB7FB
:101CBA00DEB7C756D1090FB6F894DEBF0FBECDBF47
:101CCA008C019FEF960F9F3D68F59FEF920F93331C
:101CDA0060F5D62E30E060E8CE0101967C010E94C4
:101CEA000D11C701A0E8AF939F93EF921F92DF9265
:101CFA0085E892E0A0E0AF939F938F9380E992E00A
:101D0A00A0E0AF939F938F931F930F930E945C174A
:101D1A00B80180E80E94161B0FB6F894DEBF0FBE0A
:101D2A00CDBF05C08FEF9FEF02C08FEF9FEFC9595C
:101D3A00DF4F0FB6F894DEBF0FBECDBFDF91CF9154
:0C1D4A001F910F91FF90EF90DF90089523
:101D56000F931F93CF93DF938C01EB01FC018181DD
:101D66008883818189831A82C8010E94F10B20E051
:101D760035C0822F90E0DC01AA0FBB1FAA0FBB1F44
:101D8600AD014A5F5F4F4C0F5D1FFC01EE0FFF1F59
:101D9600880F991F880F991F880F991FE80FF91F41
:101DA600BF01600F711FFB018481FA018083CD01A1
:101DB60007968C0F9D1FFB013381FC013083CD01FB
:101DC60008968C0F9D1FFB013681FC013083199606
:101DD600AC0FBD1FFB0185818C932F5FF8018281BB
:101DE600281738F2880F880F8A5FDF91CF911F91ED
:041DF6000F910895AC
:101DFA000F931F93CF93DF938C01EB011882FC01A1
:101E0A00818189831A82C8010E94F10B20E035C0C2
:101E1A00822F90E0DC01AA0FBB1FAA0FBB1FAD01E6
:101E2A004A5F5F4F4C0F5D1FFC01EE0FFF1F880FCB
:101E3A00991F880F991F880F991FE80FF91FBF0173
:101E4A00600F711FFB018481FA018083CD0107961F
:101E5A008C0F9D1FFB013381FC013083CD01089655
:101E6A008C0F9D1FFB013681FC0130831996AC0F44
:101E7A00BD1FFB0185818C932F5FF8018281281792
:101E8A0038F2880F880F8A5FDF91CF911F910F91E7
:021E9A000895A9
:101E9C000F931F93CF93DF9300D000D000D0CDB71A
:101EAC00DEB78C018FEF9FEFF801918380830E9446
:101EBC002E1E811107C08EEF9FEFF8019183808356
:101ECC0083E02CC022E046E353E060E081E60E9410
:101EDC008C1D81111EC08FE39FE10197F1F700C0AB
:101EEC00000046E0BE016F5F7F4F81E60E94691BD8
:101EFC00811111C0CE0101960E94561A882369F0F7
:101F0C00CE0101960E94C11CF8019183808380E070
:101F1C0005C081E003C081E001C081E026960FB6C8
:101F2C00F894DEBF0FBECDBFDF91CF911F910F9103
:021F3C00089506
:101F3E001F920F920FB60F9211242F933F934F9330
:101F4E005F936F937F938F939F93AF93BF93CF9333
:101F5E00EF93FF939091B00D9F5F9093B00D89E03A
:101F6E00989F212D1124892F821B8695820F829591
:101F7E008F702FE1829F90191124911113C010922E
:101F8E00B00DC0E00DC0EC2FF0E0EE0FFF1FEB58D0
:101F9E00F24F0190F081E02D309709F00995CF5F57
:101FAE00C53088F3FF91EF91CF91BF91AF919F9183
:101FBE008F917F916F915F914F913F912F910F90E4
:081FCE000FBE0F901F90189543
:101FD6008F929F92AF92BF92CF92DF92EF92FF9233
:101FE600BC0180E090E00E948C1120E030E040E8E7
:101FF60059E30E94661E8090920D9090930DA090DA
:10200600940DB090950DA50194010E94661E6B017A
:102016007C019B01AC01C501B4010E94DC1DA70136
:1020260096010E94621E20918E0D30918F0D409177
:10203600900D5091910D0E94661E20918A0D30914F
:102046008B0D40918C0D50918D0D0E94661E0E9445
:10205600DE13CB01FF90EF90DF90CF90BF90AF9053
:062066009F908F90089589
:10206C00AF92BF92CF92DF92EF92FF920F931F939A
:10207C00CF93DF9300D000D01F92CDB7DEB76B01AA
:10208C005A019E012B5F3F4F79018E010D5F1F4F4F
:10209C0023503109AE014F5F5F4FBC0188E593E0DF
:1020AC000E9404098823B1F04D8183E0840FF5016F
:1020BC00808380915803F6018083898181838A8192
:1020CC00828350E06B817C81C60103960E94A01A2A
:1020DC0081E001C080E00F900F900F900F900F9057
:1020EC00DF91CF911F910F91FF90EF90DF90CF90E8
:0620FC00BF90AF900895B3
:10210200CF92DF92FF920F931F93CF93DF93DC0165
:10211200942F0CC0C92FD0E0E41BF50BEA0FFB1F74
:102122008081FE01EE50FC4F80839F5FE92FF0E03B
:102132006A0186E0C80ED11CEC15FD0558F3265045
:10214200310936952795495F5F4FA0E0B0E016C090
:10215200CD01880F991FF601E80FF91F8B01080FB7
:10216200191FE801F980EE50FC4FF082840F951F91
:102172001881FC01EE50FC4F10831196A217B30791
:1021820038F3DF91CF911F910F91FF90DF90CF90A5
:022192000895AE
:102194000F931F93CF93DF938C01A62FB0E0119779
:1021A400FD01EE0FFF1FCD01880F991F880F991FA6
:1021B400880F991FE80FF91FE00FF11F83E0848750
:1021C40090E00AC0E92FF0E0E901CE0FDF1FE40F31
:1021D400F51F808188839F5F9430A0F3CD01880F21
:1021E400991FAA0FBB1FAA0FBB1FAA0FBB1FA80FC3
:1021F400B91FA00FB11F19968C911997F901848307
:1022040018968C918583C8010E942207DF91CF9193
:062214001F910F910895D7
:10221A006F927F928F92EF92FF920F931F93CF93B9
:10222A00DF937C013A01862E8901C0E0D0E025C007
:10223A00A82DC3018C0F9D1FA11DD7FDAA95FC01D6
:10224A002491A7FD2081CE01880F991F1F922F93F9
:10225A0026E232E040E04F933F932F938E0D9F1D6D
:10226A009F938F930E945C1721968DB79EB707960E
:10227A000FB6F8949EBF0FBE8DBFC017D107C4F228
:10228A00DF91CF911F910F91FF90EF908F907F90E8
:04229A006F900895A4
:10229E00CF93DF93CDB7DEB7C354D1090FB6F89401
:1022AE00DEBF0FBECDBF24E531E040E081E1F90194
:1022BE00DE011196742F0E94CE1C25E631E040E01F
:1022CE0081E1F901DE015296742F0E94CE1C26E7A1
:1022DE0031E040E081E2F901DE019396742F0E9415
:1022EE00CE1CAE014D5D5F4FBE016E5E7F4FCE01C7
:1022FE0001960E94761ECD5BDF4F0FB6F894DEBFBF
:0A230E000FBECDBFDF91CF910895FF
:10231800E89409C097FB3EF4909580957095619577
:102328007F4F8F4F9F4F9923A9F0F92F96E9BB272D
:102338009395F695879577956795B795F111F8CFA9
:10234800FAF4BB0F11F460FF1BC06F5F7F4F8F4F14
:102358009F4F16C0882311F096E911C0772321F00A
:102368009EE8872F762F05C0662371F096E8862FA2
:1023780070E060E02AF09A95660F771F881FDAF7F9
:0A238800880F9695879597F9089540
:102392000F931F93CF93DF93FB01248121FD03C091
:1023A2008FEF9FEF2CC022FF16C0478150852581F9
:1023B20036814217530744F4A081B1819D012F5FFA
:1023C2003F4F318320838C93278130852F5F3F4F8E
:1023D2003087278314C08B01EC01FB010184F28555
:1023E200E02D0995892BE1F6D80117968D919C91E4
:1023F2001897019618969C938E931797CE01DF91AA
:08240200CF911F910F91089585
:10240A001F920F920FB60F9211242F938F939F93BF
:10241A00EF93FF938091B20D81110EC0E091B30D3D
:10242A00E43650F481E08E0F8093B30DF0E0809192
:10243A00C600E050FF4F80838091B30D833080F057
:10244A0090E0FC01E150FF4F20812A3049F4FC0161
:10245A00E250FF4F80818D3019F481E08093B20DF4
:10246A00FF91EF919F918F912F910F900FBE0F9037
:04247A001F90189502
:10247E001F920F920FB60F9211242F938F939F934B
:10248E00EF93FF938091B60D81110EC0E091B70DC1
:10249E00E43650F481E08E0F8093B70DF0E080911A
:1024AE00CE00E251F34F80838091B70D90E0FC0196
:1024BE00E351F34F20812A3049F4FC01E451F34FEC
:1024CE0080818D3019F481E08093B60DFF91EF91EC
:1024DE009F918F912F910F900FBE0F901F90189577
:1024EE00EF92FF921F93CF93DF93CDB7DEB72A976C
:1024FE000FB6F894DEBF0FBECDBF182F7A019E0126
:10250E002F5F3F4FAB01682F88E593E00E94CA1002
:10251E009E01275F3F4FAE01495F5F4F612F88E5F8
:10252E0093E00E94511929853A854F815885B7014C
:10253E00CE0101960E9481102A960FB6F894DEBF46
:10254E000FBECDBFDF91CF911F91FF90EF900895F9
:10255E00CF92DF92EF920F931F93CF936B01E82EE2
:10256E00C0E012C08C2F90E04E2D9601200F311F2F
:10257E00411D17FD4A95F901249147FD2081FC016B
:10258E00EC59FE4F2083CF5F0C2F10E08E2DB6013D
:10259E000E94161B0817190728F38093B50D81E0CA
:1025AE008093B40D809164018093C600CF911F91EA
:0A25BE000F91EF90DF90CF90089589
:1025C800CF92DF92EF920F931F936B01E82E0115C4
:1025D800110519F101501109F6018491E7FC808178
:1025E800882399F0F901949147FD9081992369F026
:1025F8000115110551F0891308C08FEFC81AD80AC0
:10260800E80A2F5F3F4F4F4FE5CF90E0F901249143
:1026180047FD2081821B910902C080E090E01F9154
:0A2628000F91EF90DF90CF9008951E
:10263200CF92DF92EF926B01E82E21ED32E040E083
:102642000E940518892BE9F02CED32E040E08E2D36
:10265200B6010E940518892BB1F024EE32E040E069
:102662008E2DB6010E943E1681110FC02BEE32E074
:1026720040E08E2DB6010E943E16882341F089E08B
:1026820007C087E005C088E003C083E001C086E0A0
:08269200EF90DF90CF90089556
:10269A00CF935093A10D4093A00D7093A30D609317
:1026AA00A20D10929F0D10929E0D66E177E10E9495
:1026BA00E21B81E00E94161D2FEF83EC99E0215066
:1026CA0080409040E1F700C0000060E08DE40E9485
:1026DA006316C82F0E94941DCC2351F01092A10DAD
:1026EA001092A00D1092A30D1092A20D82E001C0CB
:0626FA0080E0CF9108957D
:10270000CF93DF93443651056105710518F1EC0153
:102710007F936F935F934F938EE292E0A0E0AF932D
:102720009F938F9388E392E0A0E0AF939F938F9362
:10273000DF93CF930E945C17BE0180E80E94161BB6
:102740002DB73EB7245F3F4F0FB6F8943EBF0FBE84
:0E2750002DBF02C08FEF9FEFDF91CF91089554
:10275E00CF93DF93EC01FB019C81913091F018F047
:10276E009230E9F01FC02D813E814F8180E80E949A
:10277E000518892B19F48881998116C08A819B814D
:10278E0013C04D815E816F81CF010E947F17882318
:10279E0019F08881998108C08A819B8105C0888142
:0E27AE00998102C08A819B81DF91CF910895AD
:1027BC000E94A91788F09F5798F0B92F9927B75105
:1027CC00B0F0E1F0660F771F881F991F1AF0BA95C9
:1027DC00C9F714C0B13091F00E94F11DB1E0089519
:1027EC000C94F11D672F782F8827B85F39F0B93F0B
:1027FC00CCF3869577956795B395D9F73EF490957C
:0E280C008095709561957F4F8F4F9F4F089577
:10281A00EF92FF921F93CF93DF9300D0CDB7DEB72D
:10282A007C018FEF9FEFF7019183808342E0BE0125
:10283A006F5F7F4F8DE40E94691B182F81110DC0B5
:10284A00898190E0982F88272A81822B0E94EB0F9A
:10285A00F70191838083812F01C081E00F900F904F
:0C286A00DF91CF911F91FF90EF90089537
:10287600EF92FF920F931F93CF93DF938C01D62F86
:10288600C0E008C07801EC0EF11C0E94521DF70151
:102896008083CF5F2C2F30E08D2F90E00197281793
:1028A600390784F38D2F90E00197E801C80FD91FEF
:1028B6000E945C1D88830E94941D80E0DF91CF9169
:0A28C6001F910F91FF90EF9008950D
:1028D000CF92DF92EF926C0120E8E22E29E033E004
:1028E00040E08E2DB6010E940518892BA1F024E14D
:1028F00033E040E08E2DB6010E940518892B69F067
:102900002BE133E040E08E2DB6010E940518892BA3
:1029100031F484E005C083E003C083E001C082E0BD
:08292000EF90DF90CF900895C5
:10292800CF93DC016091B10D653000F590E015C0E2
:10293800292F30E0F901EE0FFF1FEB58F24F4081CD
:102948005181452B49F4220F331FF901EB58F24FFF
:10295800B183A083C92F04C09F5F953048F3CFEFA0
:102968006F5F6093B10D0E944E1E01C0CFEF8C2F98
:04297800CF9108955E
:10297C00CF93DF9300D0CDB7DEB79DE09983813044
:10298C0031F018F0803231F013C01A8205C083E8A0
:10299C008A8302C082E88A83AE014F5F5F4F60E892
:1029AC0022E081E50E948C1D882321F082E003C087
:1029BC0081E001C080E00F900F90DF91CF910895DE
:1029CC001F920F920FB60F9211242F933F934F9398
:1029DC005F936F937F938F939F93AF93BF93EF937B
:1029EC00FF93E0919A0DF0919B0D0995FF91EF915A
:1029FC00BF91AF919F918F917F916F915F914F910B
:0E2A0C003F912F910F900FBE0F901F901895C5
:102A1A001F920F920FB60F9211242F933F934F9349
:102A2A005F936F937F938F939F93AF93BF93EF932C
:102A3A00FF93E0919C0DF0919D0D0995FF91EF9107
:102A4A00BF91AF919F918F917F916F915F914F91BC
:0E2A5A003F912F910F900FBE0F901F90189577
:102A68000F931F93CF93DF93EC012F931F930F9333
:102A78006F935F934F938FE392E0A0E0AF939F93A0
:102A88008F93DF93CF930E945C17BE0180E80E946A
:102A9800161B2DB73EB7255F3F4F0FB6F8943EBFC4
:0E2AA8000FBE2DBFDF91CF911F910F910895AA
:102AB600CF93DF93EC017093AD0D6093AC0D109244
:102AC600A90D1092A80D5093AB0D4093AA0D0E942C
:102AD600C71D69E377E1CE010E94BD1981E00E941E
:102AE6002A1D2FEF83ED90E3215080409040E1F7BF
:0E2AF60000C000000E941919DF91CF910895D1
:102B0400CF92DF92EF92CF93DF936A01E62ED22F1A
:102B140060E00E946316811113C0C0E00EC0AE2DA8
:102B2400C6018C0F911DA11DFC018491A7FD80811C
:102B34000E94021C811104C0CF5FCD1780F380E096
:0C2B4400DF91CF91EF90DF90CF900895CB
:102B5000CF93DF93D82FC0E019C080E00E943E1DC4
:102B60002FEF82E597E0215080409040E1F700C0D0
:102B7000000081E00E943E1D2FEF82E597E021508A
:102B800080409040E1F700C00000CF5FCD1728F3F0
:0C2B900080E00E943E1DDF91CF9108956F
:102B9C0040E05CE566E275E080E992E00E9480131B
:102BAC0080E992E00E947B1C80E992E00E94891CE3
:102BBC000E94CE1D8823E1F380E992E00E947F1EE3
:102BCC0060E972E080E823E333E040E00E940518FE
:0C2BDC00892B11F480E0089581E0089539
:102BE8001F920F920FB60F9211248F93EF93FF93BA
:102BF800E091B40D8091B50DE81758F481E08E0F7F
:102C08008093B40DF0E0EC59FE4F80818093C600AC
:102C180004C01092B40D1092B50DFF91EF918F91F1
:0A2C28000F900FBE0F901F9018953B
:102C32001F920F920FB60F9211248F93EF93FF936F
:102C4200E091B80D8091B90DE81758F481E08E0F2C
:102C52008093B80DF0E0EE53F44F80818093CE0064
:102C620004C01092B80D1092B90DFF91EF918F919F
:0A2C72000F900FBE0F901F901895F1
:102C7C006F927F928F92CF92DF92EF920F931F936E
:102C8C003B01882E6901E42E842FB9010E94161B8A
:102C9C008C014E2D9601882DB3010E94E41221E087
:102CAC00892B09F020E0822F1F910F91EF90DF907C
:0A2CBC00CF908F907F906F900895E5
:102CC60090E0880F991F682B84EA8093BC0090914E
:102CD600BC009923E4F78091B900887F883099F485
:102CE6006093BB0084E88093BC008091BC0088237D
:102CF600E4F78091B900887F883121F0803419F497
:082D060080E0089580E00895CB
:102D0E00CF92DF92EF920F931F93CF93DF93EC014D
:102D1E006B0180E8E82E8E2DB6010E94161B40979F
:102D2E0049F42E2D860145E452E060E0CE010E946A
:102D3E00341502C08FEF9FEFDF91CF911F910F914E
:082D4E00EF90DF90CF90089593
:102D5600CF92DF92EF920F931F93CF93DF93EC0105
:102D66006B0180E8E82E8E2DB6010E94161B409757
:102D760049F42E2D860144E552E060E0CE010E9422
:102D8600341502C08FEF9FEFDF91CF911F910F9106
:082D9600EF90DF90CF9008954B
:102D9E00CF92DF92EF920F931F93CF93DF93EC01BD
:102DAE006B0180E8E82E8E2DB6010E94161B8097CF
:102DBE0049F42E2D860143E652E060E0CE010E94DA
:102DCE00341502C08FEF9FEFDF91CF911F910F91BE
:082DDE00EF90DF90CF90089503
:102DE600CF93DF931F92CDB7DEB79AB192609AB9AF
:102DF600E1ECF0E09081977F90839BB19D7F9BB93A
:102E0600AFE9BFE01197F1F700C00000908198602C
:102E16009083898361E0CE0101960E94D7190F90B5
:062E2600DF91CF91089539
:102E2C008091A00D9091A10D20919E0D30919F0D40
:102E3C00A9014F5F5F4F50939F0D40939E0D220F42
:102E4C00331F820F931F0E940D1420919E0D309101
:102E5C009F0D8091A20D9091A30D2817390710F0AA
:062E6C000E948D1E089576
:102E72008091AA0D9091AB0D2091A80D3091A90DD2
:102E8200A9014F5F5F4F5093A90D4093A80D220FE8
:102E9200331F820F931F0E944E0F2091A80D309175
:102EA200A90D8091AC0D9091AD0D2817390710F046
:062EB2000E94FE1D0895C0
:102EB800AFE0B0E0E2E6F7E10C9443190E891F8910
:102EC80086E08D831A8309838FEF9FE79F838E8324
:102ED8009E01255E3F4F488D598D6A8DCE01019622
:102EE8000E949D01E885F985E00FF11F10822F9659
:062EF800E4E00C94B019A7
:102EFE00CF92DF92EF920F931F93CF93DF93EC015C
:102F0E006A01E62E862FBA010E94161B8C01BE01A5
:102F1E0080E84E2D96010E94E41221E0892B09F0E3
:102F2E0020E0822FDF91CF911F910F91EF90DF90D4
:042F3E00CF90089593
:102F420057FD9058440F551F59F05F3F71F0479558
:102F5200880F97FB991F61F09F3F79F0879508953D
:102F6200121613061406551FF2CF4695F1DF08C05C
:102F7200161617061806991FF1CF86957105610579
:042F82000894089512
:102F860084B18B7F84B985B1846085B9E9E6F0E0C8
:102F960080818F7E80838081806280838DB3846010
:102FA6008DBB83B7817F846083BF83B7816083BF16
:102FB6007894889583B78E7F83BF8DB38B7F8DBBC7
:022FC60008956C
:102FC80090E0880F991F282F216084EA8093BC0025
:102FD8009091BC009923E4F78091B900887F8031F3
:102FE80079F42093BB0084E88093BC008091BC00F6
:102FF8008823E4F78091B900887F803409F480E061
:02300800089529
:10300A00CF92DF92EF926B01E82EF6018491E7FCF2
:10301A008081F901549147FD508185130BC08823A3
:10302A0041F08FEFC81AD80AE80A2F5F3F4F4F4F77
:10303A00ECCF582F90E0851B9109EF90DF90CF904D
:02304A000895E7
:10304C00CF93C0E019C081E00E943E1D2FEF80E7B6
:10305C0092E0215080409040E1F700C0000080E0F9
:10306C000E943E1D2FEF80E792E02150804090405F
:10307C00E1F700C00000CF5FCA3028F3CF9108956C
:10308C00CF93DF93CDB7DEB7E4970FB6F894DEBFDE
:10309C000FBECDBFAE014C5C5F4FBE016F5F7F4F6B
:1030AC000E9436106CA9CE0101960E94FF1AE4967C
:1030BC000FB6F894DEBF0FBECDBFDF91CF91089550
:1030CC00CF93DF93CDB7DEB7E4970FB6F894DEBF9E
:1030DC000FBECDBFBE016C5C7F4FCE0101960E942E
:1030EC00AF1B6CA9CE0101960E94FF1AE4960FB695
:0E30FC00F894DEBF0FBECDBFDF91CF910895D7
:10310A00CF93DF93CDB7DEB7E4970FB6F894DEBF5F
:10311A000FBECDBFBE016C5C7F4FCE0101960E94EF
:10312A00C01B6CA9CE0101960E94FF1AE4960FB645
:0E313A00F894DEBF0FBECDBFDF91CF91089598
:10314800E1ECF0E080818061808380818860808309
:10315800808180688083808180648083E0ECF0E0F7
:1031680080818260808386E08093C20080E190E065
:0C3178009093C5008093C40078940895E3
:10318400E9ECF0E0808180618083808188608083C5
:10319400808180688083808180648083E8ECF0E0B3
:1031A40080818260808386E08093CA0080E190E021
:0C31B4009093CD008093CC007894089597
:1031C000082E000C990BFC01EE0FFF1FEB58F24F7D
:1031D00020813181232B81F0880F991FFC01EB584E
:1031E000F24F118210828091B10D81508093B10D08
:0A31F000811102C00E946D1E0895B7
:1031FA00CF93C82F81E00E943E1D2FEF83ED90E30D
:10320A00215080409040E1F700C000008C2F0E94BE
:10321A00A8152FEF89E698E1215080409040E1F708
:08322A0000C00000CF910895DF
:1032320025E049E253E060E081E60E948C1D8111A5
:103242000FC025E04EE253E060E081E60E948C1D53
:10325200811108C00E942E1E8823E1F380E00895A8
:0832620082E0089582E0089566
:10326A002F923F924F925F926F927F928F929F928C
:10327A00AF92BF92CF92DF92EF92FF920F931F937A
:10328A00CF93DF93CDB7DEB7CA1BDB0B0FB6F8942B
:08329A00DEBF0FBECDBF099499
:1032A20070E061507109FB01EE0FFF1F660F771F7F
:1032B200660F771F660F771FE60FF71FE80FF91FDC
:1032C20083819481DA018D939C9385819681F901A2
:0632D20091838083089542
:1032D800AC0130E08FEF14C0FA01E30FF11D9081CB
:1032E800892728E00AC0882334F490E0880F991FC2
:1032F80091E3892701C0880F21502111F4CF3F5F46
:06330800361750F3089592
:10330E00CF92DF92EF926B01E82EA82FCB014115E1
:10331E00510531F48C199D09EF90DF90CF900895EF
:10332E00FC012491A7FD20812223A1F30196A11D6A
:06333E0041505109ECCFE3
:103344002A88398848885F846E847D848C849B8431
:10335400AA84B984C884DF80EE80FD800C811B813F
:10336400AA81B981CE0FD11D0FB6F894DEBF0FBE6E
:06337400CDBFED0108953C
:10337A001092800028E0209381001092820090939E
:10338A008900809388001092850010928400EFE6ED
:10339A00F0E0808182608083789470939D0D6093C1
:0433AA009C0D0895D9
:1033AE00DC0190E00BC0292F30E0FD01E20FF31F8E
:1033BE004081F901EC59FE4F40839F5F961798F3B9
:1033CE006093B50D81E08093B40D8091640180937C
:0433DE00C600089588
:1033E200CF93DF9300D0CDB7DEB781E089831A8215
:1033F200AE014F5F5F4F60E822E081E50E948C1DC5
:10340200882311F082E001C080E00F900F90DF91DD
:04341200CF910895B9
:10341600CF93DF93EC010E94501CFE010190002027
:10342600E9F7CF0123E030E04BE252E060E001979C
:103436000E946F1ABE0180E80E94161BDF91CF9191
:023446000895E7
:1034480085E50E94F3160E94CE1D8823E1F380E9EA
:1034580092E00E947F1E60E972E080E823E333E097
:1034680040E00E940518892B11F480E0089581E05E
:023478000895B5
:10347A000F931F93CF93DF938C01D62F0E94821E46
:10348A00C82F2D2FA801682F88E593E00E944306D4
:10349A0081E08C0F0E94851EDF91CF911F910F91C1
:0234AA00089583
:1034AC00CF93DF93EC0162E00E946C199A8189132F
:1034BC000AC062E0CE0103960E946C199D818917A7
:1034CC0021F080E003C080E001C081E0DF91CF916A
:0234DC00089551
:1034DE00CF92DF92EF92DC016A01E62E280F391FA0
:1034EE00A217B30751F0F6014491E7FC40814D93CA
:1034FE004FEFC41AD40AE40AF3CFEF90DF90CF90C7
:02350E0008951E
:103510000F931F93611109C002E712E020E046E714
:1035200052E060E00E94341508C002E812E020E09A
:1035300046E752E060E00E9434151F910F91089514
:10354000CF93DF93EC0120E030E00CC0DE01A20F4E
:10355000B31FF901E60FF71FEE50FC4F90819C93CB
:103560002F5F3F4F2417350788F3DF91CF910895E0
:10357000AC0190E00BC0292F30E0FA01E20FF31FFD
:10358000E458FF4F8081813049F09F5FFA01E55890
:10359000FF4F8081981778F32FEF3FEFC90108950F
:1035A0008091A40D9091A50D01969093A50D809307
:1035B000A40D2091A60D3091A70D8217930738F026
:1035C0008091C10D0E94E01880E00E94341D089592
:1035D000BC0190E009C0FB01E90FF11DDA01A05028
:1035E000BF4F2C9120839F5F492F50E02091B30D56
:0E35F00030E022503109421753076CF3089562
:1035FE001F93CF93DF939C019091BE0D91110AC042
:10360E00162FE9010E94F31C412FBE0184E60E9491
:0E361E00140A01C083E0DF91CF911F9108953F
:10362C00CF92DF92EF926B01E82EA82FCB01FC0119
:10363C002491A7FD2081222319F00196A11DF7CF1B
:0C364C008C199D09EF90DF90CF9008953D
:103658009C0190E081E00AC0F901E90FF11DE458EE
:10366800FF4F4081423009F080E09F5FF901E55843
:0A367800FF4F4081941780F308957E
:103682000F931F93CF938C010E94E81AC091B30D40
:10369200C250F801EC0FF11D10820E94331E8C2FD4
:0836A200CF911F910F910895D3
:1036AA00CF93633071F018F4662331F003C065508C
:1036BA00623010F084E106C0C42F0E94161E8C2FBF
:0836CA0001C0842FCF91089587
:1036D2001F93CF93DF93EB01142F61E00E946316D7
:1036E200811104C0612FCE010E943B14DF91CF9162
:0436F2001F91089587
:1036F6001092A50D1092A40D9093A70D8093A60D80
:1037060080ED9AE10E9494148093C10D81E00E949D
:04371600341D0895C1
:10371A001F93CF93DF93EB01142F0E94E4178111BB
:10372A0004C0612FCE010E943B14DF91CF911F91FB
:02373A000895F0
:10373C00CF93DF93EC0188E593E00E94B81A88835D
:10374C009983892F8095881F8827881FDF91CF91B7
:02375C000895CE
:10375E00CF93DF93EB0120915803FC012193BF011E
:10376E0088E593E00E94FD0E8F5F8883DF91CF91F5
:02377E000895AC
:10378000CF93DF93EB0120915803FC012193BF01FC
:1037900088E593E00E94AB0E8F5F8883DF91CF9125
:0237A00008958A
:1037A200092E0394000C11F4882352F0BB0F40F44D
:1037B200BF2B11F460FF04C06F5F7F4F8F4F9F4F8D
:0237C200089568
:1037C40092E094BD15BC87BD16BCEEE6F0E08081A6
:1037D40082608083789470939B0D60939A0D089512
:1037E40082E08093B0001092B1001092B600109263
:1037F400B2009BEF9093B300809370007894089587
:103804008093BB0084E88093BC008091BC00882333
:10381400E4F78091B900887F883209F480E0089544
:103824008093BB0D1092BA0D81E00E94201D67EEBB
:103834007CE181E00E94E21B0E946A1E80E0089500
:10384400FC01E558FF4F208130E0621773073CF418
:10385400680F791FFB01E458FF4F82E080830895CD
:10386400833049F018F4882341F003C08550823036
:0E38740020F084E10895842F0895862F089592
:10388200A29FB001B39FC001A39F700D811D11249F
:0E389200911DB29F700D811D1124911D08958E
:1038A0009A01462FDC01F901549147FD50815D9347
:0E38B000552321F02F5F3F4F4F4FF5CF089566
:1038BE0040919E0D50919F0D2091A20D3091A30D20
:0C38CE0081E04217530708F480E00895E1
:1038DA008091BF0D8F5F8093BF0D863030F01092BC
:0C38EA00BE0D8091BD0D0E94E0180895F5
:1038F600FC0101900020E9F7CF0123E030E04BE224
:0C39060052E060E001970E946F1A0895E3
:10391200CF93DF93EC01BC0180E80E94161B682F55
:0C392200CE010E94D719DF91CF910895CB
:10392E004091A40D5091A50D2091A60D3091A70D9B
:0C393E0081E04217530708F480E0089570
:10394A004091A80D5091A90D2091AC0D3091AD0D6B
:0C395A0081E04217530708F480E0089554
:10396600833051F0843021F0811104C082E0089543
:0C39760084E0089584E1089583E0089542
:10398200FC015481438131812081652F742F832F63
:0A399200922F0E94DE13CB0108956E
:10399C00992777FD05C005900D920197E1F70895E1
:0A39AC0001900D920197E1F70895D4
:1039B6000E940C052FEF8DE399E421508040904042
:0839C600E1F700C00000F4CF9E
:1039CE008091BA0D8F5F8093BA0D9091BB0D8917C0
:0839DE0010F00E948D1E0895F7
:1039E6008DE69CE10E9494148093BD0D81E0809346
:0839F600BE0D1092BF0D0895F3
:1039FE000E94AF122FEF80E792E02150804090405E
:083A0E00E1F700C0000008957B
:103A1600882319F0813029F002C08FE0089584E1EF
:063A26000895862F0895AB
:103A2C00882321F082B1886082B9089582B1877FA2
:043A3C0082B90895AE
:103A4000882321F082B1806282B9089582B18F7D8E
:043A500082B908959A
:103A5400882321F082B1806182B9089582B18F7E7A
:043A640082B9089586
:103A6800882321F08BB180618BB908958BB18F7E4B
:043A78008BB9089569
:103A7C00882321F082B1806882B9089582B18F7752
:043A8C0082B908955E
:103A90001F920F920FB60F9211240F900FBE0F902E
:043AA0001F901895C6
:103AA40084EC8093BC008091BC008823E4F780916F
:043AB400BB000895B6
:103AB80084E88093BC008091BC008823E4F780915F
:043AC800BB000895A2
:103ACC000E948D1E80E00E94161D1092A10D109276
:043ADC00A00D08959C
:103AE0000E94FE1D80E00E942A1D1092AB0D1092D4
:043AF000AA0D08957E
:103AF40080E28093B800E9EBF0E080818C7F8083E2
:023B0400089522
:103B06002091BA0D9091BB0D81E0291708F480E051
:023B1600089510
:103B18000E948215811103C00E94941D80E00895BF
:103B280084E98093BC008091BC0084FDFCCF08959B
:103B38008091BC0D0E94E01880E00E943E1D08950F
:0E3B480081B1886081B982B1877F82B908950A
:0E3B560081B1806281B982B18F7D82B90895FC
:0E3B640081B1806181B982B18F7E82B90895EE
:0E3B72008AB180618AB98BB18F7E8BB90895BC
:0E3B800081B1806881B982B18F7782B90895D2
:0E3B8E0087B18F7B87B988B18F7B88B9089586
:0E3B9C009091B20D81E0911101C080E008957A
:0E3BAA0083E79EE10E9494148093BC0D089561
:0E3BB8005058BB27AA270E942E0D0C94D11B3B
:0E3BC60000240A94161617061806090608951C
:0E3BD40000240A94121613061406050608951E
:0E3BE200E894BB2766277727CB0197F9089553
:0C3BF000E1E8F0E08081866080830895A9
:0C3BFC00E1E8F0E08081887F808308957C
:0C3C08000E946A1E0E94161780E00895BA
:0C3C1400FC017183608353834283089598
:0C3C2000FC0164832583368347830895EC
:0C3C2C00BC0188E593E00E94221C089572
:0C3C38000E9439170E94F81D80E00895DA
:0C3C440097F99F6780E870E060E0089549
:0C3C5000EE0FFF1F0590F491E02D099489
:0A3C5C0086B186FB882780F90895E1
:0A3C66001092B20D1092B30D0895F4
:0A3C70009091BE0D81E089270895B0
:0A3C7A0088E593E00E942C1B0895DA
:083C840082B1805882B9089555
:083C8C0085B18F7E85B9089512
:083C940085B1806185B9089536
:083C9C0087E08093B100089558
:083CA40083E00E94FD18089561
:083CAC0085E00E94FD18089557
:083CB40087E00E94FD1808954D
:083CBC0086E00E94950D0895B9
:083CC4000E94820B0C94D11B3D
:083CCC000E945D0C0C94D11B59
:063CD40086E085BD0895A5
:063CDA001092B1000895F4
:063CE0000E948215089508
:063CE6000E94421E089539
:063CEC000E94C1030895CF
:063CF2000E94CE150895AA
:063CF8000E94241A089549
:063CFE000E94411B089525
:063D04008091C00D08953E
:063D0A008093C00D089536
:063D10009FEF80EC089516
:043D16000C94000009
:043D1A0015BC089537
:103D1E000200020002020002000202000200020281
:103D2E000002000202000200020200020002020073
:033D3E000200027E
:053D4100098080808074
:043D46000000803FBA
:043D4A0000401C45D4
:043D4E000000A04091
:023D5200FFFF71
:00000001FF
