:100000000C9409010C947A390C947A390C94403789
:100010000C947A390C947A390C947A390C947A3994
:100020000C947A390C94B4240C947A390C947A395F
:100030000C947A390C947D2C0C947A390C947A397E
:100040000C94562C0C947A390C947A390C947A3995
:100050000C9498260C947A390C94B5270C947A3920
:100060000C947A390C947A390C947A390C947A3944
:100070000C94D2260C947A390C94EC27930DA30E91
:10008000B20DD00DF00D100E300E500E6E0E8C0E07
:100090009E0EB40EB60EA017B7171318C0171C1873
:1000A00005180C18D017DC17E817F217FE1798136D
:1000B000A513AF13B513E4130F142814DA080909B4
:1000C000240935094909830A3E09820999098E09DB
:1000D0005D09A409B509D209DA09E209EA09F209B8
:1000E0001D0A240A410A600A6E0A910A9C0A01004C
:1000F0000E9A800E9A0EAB0072FC0EAB0ED9800EDB
:10010000D90EDD00730D0EDD0EEF800EEF0EF00048
:1001100073110EF00EF5800000407A10F35A00A023
:10012000724E18090010A5D4E80000E876481700C0
:1001300000E40B54020000CA9A3B000000E1F50500
:10014000000080969800000040420F000000A0864A
:1001500001000000102700000000E803000000007C
:100160006400000000000A00000000000100000020
:1001700000002C76D888DC674F0823DFC1DFAE593A
:10018000E1B1B796E5E3E453C63AE651997696E8CD
:10019000E6C28426EB898C9B62ED407C6FFCEFBC51
:1001A0009C9F40F2BAA56FA5F490055A2AF75C937C
:1001B0006B6CF9676DC11BFCE0E40D47FEF520E6B2
:1001C000B500D0ED902E0300943577050080841E95
:1001D000080000204E0A000000C80C333333330FF0
:1001E000986E12831141EF8D2114893BE65516CF8D
:1001F000FEE6DB18D1844B381BF77C1D901DA4BB99
:10020000E424203284725E228100C9F124ECA1E54D
:100210003D2711241FBECFEFD0E1DEBFCDBFEEEEF4
:10022000F0E041E017C0B591A59135912591059178
:1002300007FD0CC095918591EF01F92FE82F0590EE
:100240000D92A217B307D9F7FE0104C01D92A217A1
:10025000B307E1F7E731F40731F70E942C310C9432
:060260003101F894FFCF0C
:1002660053746174653A20533020494E4954005303
:10027600746174653A2053302044452D494E4954E3
:100286000053746174653A20533120494E49540035
:1002960053746174653A2053312044452D494E49C3
:1002A600540053746174653A20533220494E4954C0
:1002B6000053746174653A2053322044452D494EEB
:1002C60049540053746174653A20533320494E49AA
:1002D600540053746174653A2053332044452D49C4
:1002E6004E4954007265733A207375636365737380
:1002F600007265733A206D616320657272007265E3
:10030600733A20696E76206C656E007265733A20CA
:1003160074727920616761696E007265733A207341
:100326007563636573732C206D6163635F657272B9
:100336002C20696E765F6C656E0053746174653A45
:1003460020494E49542048570053746174653A2039
:10035600454550524F4D0053746174653A204A4FDB
:10036600494E204C4F52410053746174653A204AFD
:100376004F494E20535543434553530053746174BC
:10038600653A2057414B45205550204C4F5241006D
:1003960053746174653A204C4F524120545259208F
:1003A600414741494E0053746174653A20494E49AC
:1003B60054204D4F44554C45530053746174653A6F
:1003C60020494E4954205254430053746174653A8F
:1003D6002052544320434C45415200537461746586
:1003E6003A20525443205345542057414B455550CB
:1003F6000053746174653A204D52505020494E495D
:10040600540053746174653A2053454E4420484560
:10041600414445520053746174653A2053454E4435
:1004260020444154410053746174653A2053454E4B
:1004360044205441494C0053746174653A20534535
:1004460054555020534C4545500053746174653AD9
:1004560020534C4545500053746174653A20534C03
:10046600454550202D3E204157414B450053746170
:1004760074653A205041594C4F414420494E56200C
:100486004C454E0053746174653A20434F4E4620E6
:1004960045525200436F6E66206572720A0D005314
:1004A600746174653A20464154414C2045525200CD
:0B04B60053746174653A20454E440009
:1004C100456E64206F6620636F6C6C656374696F41
:1004D1006E730049443D25752C206E3D25752C20F9
:1004E10073693D2575004661696C656420746F20F0
:1004F100726561642074696D6500253032752D2542
:100501003032752D2530327554253032753A25300B
:1005110032753A253032750049443D312E2E2E492F
:10052100443D33206E6F742076616C6964004944E8
:100531003D352E2E2E49443D37206E6F7420766155
:100541006C69640049443D392E2E2E49443D3131B8
:10055100206E6F742076616C69640049443D3133CB
:100561002E2E2E49443D3135206E6F742076616CFC
:10057100696400416C6C2076616C69640066616934
:100581006C6564007375636365737300546F6F20EA
:100591006D756368206461746120746F20626520E9
:1005A100696E2062756666657221003030303030C8
:1005B100303030303030303030303000303030306A
:1005C100303030303030303030303030303030302A
:1005D10030303030303030303030303000416C6CC1
:1005E1002073657474696E67732072657365740036
:1005F1004D75737420626520696E20666F726D613E
:10060100743A2079792D6D6D2D64645468683A6D62
:100611006D3A7373004661696C656420746F207371
:1006210065742074696D650064657665756900613E
:100631007070657569006170706B65790070706DBF
:100641007800252E32660072726C780076636378CA
:1006510000636F6C7300686561745F75705F74002F
:10066100686561742075702074696D653D2575201C
:100671006D006169725F70756D705F7400616972A0
:100681002070756D702074696D653D25752073004E
:1006910073705F696E74657276616C0073616D7001
:1006A1006C696E672070726F6365737320696E7415
:1006B100657276616C3D257520680074696D650011
:1006C10076616C6964617465004E6F742061207697
:1006D100616C6964206F7065726174696F6E00721C
:0506E100657365740063
:1006E6006F6E00506F776572206D657468616E6518
:1006F6002073656E736F72206F6E006F66660050B2
:100706006F776572206D657468616E652073656EBE
:10071600736F72206F66660072656164004572725F
:100726006F72207768656E2072656164696E6720F6
:10073600646174610050504D3D2575004E6F742004
:10074600612076616C6964206F7065726174696F8F
:100756006E00434F323D25752070706D2C207465F8
:100766006D703D252E316620432C2068756D6964B9
:100776006974793D252E3166252520524800506F33
:1007860077657220746F206169722070756D7020B4
:100796006F6E00506F77657220746F2061697220EA
:1007A60070756D70206F6666006D657468007363A2
:0907B6006433300070756D7000B1
:1007BF002A2A2A2A2A2A2A2A204D657468616E65F8
:1007CF002053656E736F722076312E30202A2A2ABD
:1007DF002A2A2A2A2A0053657474696E67206D6F5E
:1007EF0064756C65732075702E2E2E20506C6561AC
:1007FF0073652077616974004661696C6564207464
:10080F006F20696E697469616C697A652073797399
:10081F0074656D2E2E2E004E6F742076616C696498
:10082F000057726F6E6720666F726D6174002A2AAF
:10083F002A2A2A2A2A20526561647920666F72203B
:10084F006E657720636F6D6D616E64202A2A2A2A88
:0C085F002A2A2A00457869742E2E2E00EB
:10086B006578697400627265616B00726561640022
:10087B002A2A2A2A2A2A2A20596F75206172652072
:10088B006469726563746C7920636F6E6E656374F3
:10089B00656420746F20524E32343833202A2A2A52
:1008AB002A2A2A2A2A002D2D3E25730062726561A1
:1008BB006B2030783535006E756C6C00436C6F7344
:1008CB00696E6720636F6E6E656374696F6E2074FB
:1008DB006F20524E323438332E2E2E006C6F7261D5
:0108EB00000C
:1008EC0025303278000D0A0073797320736C6565BE
:1008FC007000257320256C64002573202573006D12
:10090C0061632073657420646576657569006D613B
:10091C00632073657420617070657569006D616327
:10092C0020736574206170706B6579006F6666006A
:10093C006D61632073657420616472006F6E006D6D
:10094C00616320747820636E660025732025752002
:03095C0025730000
:10095F006E6F5F667265655F63680064656E69657B
:10096F0064006B6579735F6E6F745F696E69740095
:10097F00524E32343833006D616320726573657483
:10098F0020383638006F6B006D61632073617665B8
:10099F00006D6163206A6F696E206F746161006121
:0809AF00636365707465640068
:1009B7006E6F5F667265655F6368006D61635F6533
:1009C7007272006D61635F727800696E76616C693F
:1009D700645F646174615F6C656E006F6B006D616D
:0809E700635F74785F6F6B0021
:1009EF00524E32343833006E6F207265706C792E30
:0309FF002E2E0099
:080A0200696E66006E616E0072
:050A0A0046000002E3BC
:050A0F00001000008151
:030A14006F6B0005
:020A17000300DA
:010A190002DA
:100A1A00A4E1B0E0E3E1F5E00C94F4316C011A01D1
:100A2A00462E5901FC0110861782848181FF62C318
:100A3A00CE0101969D878C87A0E88A8B9B8BAC8B15
:100A4A00F101849147FC8081882309F44FC3442D26
:100A5A0091012F5F3F4F4F4F853219F01901442EF4
:100A6A000AC0F901849147FD808192E0290E311C68
:100A7A00411C853249F4B60190E00E945C26BF868B
:100A8A00AE86AE84BF84DCCF10E0F12C00E00032E9
:100A9A00A0F48B3269F030F4803259F0833269F471
:100AAA0000612CC08D3239F0803339F4016026C0E0
:100ABA000260046023C0086021C007FD29C090EDD0
:100ACA00980F9A3078F406FF06C0AAE01A9F900D94
:100ADA001124192F13C0EAE0FE9E900D1124F92E5D
:100AEA0000620CC08E3221F406FD00C3006406C009
:100AFA008C3611F4006802C0883651F4F1018491F1
:100B0A0047FC8081FFEF2F1A3F0A4F0A8111BFCF9E
:100B1A009BEB980F933018F40061805E06C09BE946
:100B2A00980F933008F066C10F7E06FF16E00F7328
:100B3A00702E853621F4202F2064722E08C0863646
:100B4A0021F4802F8068782E02C01111115077FE8F
:100B5A0007C01C3350F4EE24E394E10E27E00BC0E7
:100B6A00183038F027E017E005C027E06CE3E62EDE
:100B7A0002C0212FE12CF5013496FF87EE87F5019B
:100B8A0060817181828193810E2DAE014F5F5F4F2B
:100B9A000E94C70F5C01598050FE02C053FE06C076
:100BAA0071FC06C072FE06C000E205C00DE203C079
:100BBA000BE201C000E0852D8C7019F0011173C29F
:100BCA00BEC277FE0FC0EA0C54FE04C08A8181338C
:100BDA0009F4EA941E1474F528E02E1578F538E025
:100BEA00E32E2CC076FC2AC0812F90E08A159B0543
:100BFA009CF08CEFA8168FEFB80674F0972D9068CA
:100C0A00792E0AC0E2E0F0E0EC0FFD1FE10FF11DC2
:100C1A008081803319F411501111F4CF77FE0EC080
:100C2A00EE24E394E10E812F90E0A816B9062CF485
:100C3A001A1904C0EE24E39401C010E077FE06C03E
:100C4A001A141B0434F4C501019605C085E090E02E
:100C5A0002C081E090E001110196112331F0212FA9
:100C6A0030E02F5F3F4F820F931F2F2D30E0821706
:100C7A00930714F4F81A01C0F12C872D897049F4EE
:100C8A00FF2039F0B60180E290E00E945C26FA94D7
:100C9A00F7CF002329F0B601802F90E00E945C264E
:100CAA0073FC09C0FF2039F0B60180E390E00E948E
:100CBA005C26FA94F7CF77FE49C03501B7FE02C029
:100CCA00612C712CC5018619970988248394912C6B
:100CDA008C0E9D1E880E991EF501EE19F109F98BED
:100CEA00E88B012F10E0119501951109FFEF6F169E
:100CFA007F0629F4B6018EE290E00E945C26A614D3
:100D0A00B70444F088899989861597051CF4F4017B
:100D1A00818101C080E3F1E06F1A71082FEF821A16
:100D2A00920A601671062CF0B60190E00E945C26C9
:100D3A00DDCFA614B70439F49A81963318F49533A3
:100D4A0011F454FE81E3B60190E051C08A818133E7
:100D5A0019F0952D9F7E592EB60190E00E945C26CF
:100D6A00111105C074FC1CC085E690E01BC0B601D9
:100D7A008EE290E00E945C2602E0010F82E011E020
:100D8A00180FE1E0F0E0EC0FFD1FE80FF11D808184
:100D9A00B60190E00E945C26812F1013F0CFE2CFBB
:100DAA0085E490E0B6010E945C26B7FC05C0A11458
:100DBA00B10439F454FE05C0B194A194B1088DE28E
:100DCA0001C08BE2B60190E00E945C2680E3EAE073
:100DDA00AE16B1042CF08F5FAAE0AA1AB108F7CFB9
:100DEA00B60190E00E945C26B601C501C0960E9439
:100DFA005C2672C1833631F0833791F0833509F06E
:100E0A005DC024C0C50102969F878E87F501808147
:100E1A0089836A887B888C88AA24A394B12C14C0FD
:100E2A00C50103969F878E87F50160807180828055
:100E3A0006FF03C0412F50E002C04FEF5FEF882D3D
:100E4A00B3010E947C325C010F7715C0C50103967D
:100E5A009F878E87F50160807180828006FF03C0BC
:100E6A00412F50E002C04FEF5FEF882DB3010E947F
:100E7A007C325C01006803FD1DC08F2D90E0A8162E
:100E8A00B906C0F4B60180E290E00E945C26FA94AA
:100E9A00F4CFF301849187FC8081FFEF6F1A7F0AF8
:100EAA008F0AB60190E00E945C26F110FA9421E0C4
:100EBA00A21AB108A114B10461F70EC1843611F067
:100ECA00893679F5C50107FF09C004969F878E8781
:100EDA00F50160817181828193810AC002969F87A0
:100EEA008E87F50160817181072E000C880B990BA2
:100EFA000F76E02E97FF0AC09095809570956195C0
:100F0A007F4F8F4F9F4FF02FF068EF2E2AE030E08F
:100F1A00AE014F5F5F4F0E94BB1FA82E2C85A21AFD
:100F2A004BC0853729F40F7EE02E2AE030E025C039
:100F3A00902F997FE92E8F36C1F018F4883579F011
:100F4A00D5C0803719F0883721F0D0C0A92FA06109
:100F5A00EA2EE4FE0DC0EE2DE460EE2E09C004FF79
:100F6A000AC0F92FF660EF2E06C028E030E005C06F
:100F7A0020E130E002C020E132E0C501E7FE09C00D
:100F8A0004969F878E87F5016081718182819381A2
:100F9A0008C002969F878E87F5016081718180E083
:100FAA0090E0AE014F5F5F4F0E94BB1FA82EFC85E9
:100FBA00AF1A2E2D2F77E22EE6FE0BC00E2D0E7FD6
:100FCA00A11650F4E4FE0AC0E2FC08C00E2D0E7E03
:100FDA0005C0BA2C0E2D03C0BA2C01C0B12E04FFD5
:100FEA000DC0FE01EA0DF11D8081803311F4097EE6
:100FFA0009C002FF06C0B394B39404C0802F867858
:10100A0009F0B39403FD11C000FF06C0BF1488F4B1
:10101A00FA0C1F2D1B190EC0BF1460F4B60180E232
:10102A0090E00E945C26B394F7CFBF1418F4FB1823
:10103A0002C01A2DF12C04FF10C0B60180E390E023
:10104A000E945C2602FF17C001FD03C088E790E0FA
:10105A0002C088E590E0B6010CC0802F867859F06E
:10106A0001FF02C08BE201C080E207FD8DE2B601FA
:10107A0090E00E945C26A11638F4B60180E390E065
:10108A000E945C261150F7CFAA94E1E0F0E0EC0F41
:10109A00FD1FEA0DF11D8081B60190E00E945C26D9
:1010AA00A110F2CF19C0F4E0FF1580F584E0F81A18
:1010BA0073FE23C001112BC053FE2FC056E0852EAC
:1010CA005AE0952E50E0A52E072D0071F401849167
:1010DA00A7FC8081811128C0FF2009F4D2CCB60177
:1010EA0080E290E00E945C26FA94F6CFF6018781AE
:1010FA0090852CC08FEF9FEF29C0B60180E290E067
:10110A000E945C26FA94F110F8CFD4CFF12CB601E4
:10111A00802F90E00E945C26CFCF42E0842E4AE0E6
:10112A00942E40E0A42ED0CF01118052B60190E057
:10113A000E945C26FFEF8F1A9F0AAF0AC7CF23E0EF
:10114A002F1510F483E0B3CFF12CB6CF6496E2E109
:04115A000C9461325E
:10115E00EF92FF920F931F93CF93DF93C0E01AC0CD
:10116E00C6E018C0C5E016C0C5E014C0C5E012C088
:10117E00C5E010C0C7E10EC0C7E10CC0C7E10AC090
:10118E00C7E108C0C7E106C0CD2F04C0CD2F02C0F5
:10119E00DC2FC1E1EC2FF0E0E931F105D8F7E25A8E
:1011AE00FF4F0C94D93860E473E080E00E947139EF
:1011BE001092F40E1092F30E1092F20E1092F10E97
:1011CE008FEF9FEF9093DC0E8093DB0E0E94D33057
:1011DE000E94F1300E947C370E94B9350E94253959
:1011EE000E9408380E94E5370E94EC370E94FA37B9
:1011FE000E94F3370E9401388091ED0E8111B0CF1D
:10120E00C1E0C8CF6FE473E080E00E9471390E94A4
:10121E00D736882309F4A6CF0E94E236882309F434
:10122E00A3CF0E94ED36882309F4A0CF0E94AE2AE8
:10123E00882309F49DCFC2E0ADCF6DE573E080E069
:10124E000E9471390E9447380E94B237C82F0E94FF
:10125E00DD378C2F0E948B36C82F9CCF6EE673E045
:10126E0080E00E9471390E947630CAE093CF62E826
:10127E0073E080E00E9471390E94653981117ACF46
:10128E00CAE088CF66E973E080E00E9471390E945F
:10129E0039392FEF33EB84EC94E02150304080400D
:1012AE009040D9F700C00000C2E074CF6CEA73E042
:1012BE0080E00E947139E090AB0EF090AC0E009180
:1012CE00AD0E1091AE0E2091AF0E3091B00E40913A
:1012DE00B10E5091B20E6091B30E7091B40E80911A
:1012EE00B50E9091B60E0E9434300E94F9348111E1
:1012FE0043CFC7E04FCF60EC73E080E00E947139BE
:10130E0081E00E94062C811139CFC9E043CF60EDF8
:10131E0073E080E00E9471390E949732811130CFC4
:10132E00C8E038CF61EE73E080E00E9471390E9410
:10133E001239811127CFCBE02DCF67EF73E080E01C
:10134E000E9471390E94B538482F6FE086ED9DE0FE
:10135E000E94A6360E94AF38CCE01CCF0E94033903
:10136E00882309F417CF68E074E080E00E94713999
:10137E0060EF7EE087ED9CE00E9476356091F00E86
:10138E0087ED9CE00E9468344CE06DE00E941E35B3
:10139E00C82FDDE0FFCE0E94B8186EE00E94F8362E
:1013AE00DC2FC82FF7CE0E9496156FE00E94F836FC
:1013BE00DC2FC82FEFCE0E941C1260E10E94F8367F
:1013CE00DC2FC82FE7CE0E94D21262E10E94F836BF
:1013DE00DC2FC82FDFCE8BED9EE00E946535882373
:1013EE0009F4D2CE0E940339882309F4CFCE6BE1E3
:1013FE0074E080E00E94713940EF5EE067ED7CE0C2
:10140E008091DB0E9091DC0E0E940C236091F00E09
:10141E0087ED9CE00E9468344D2F682F8091DB0E83
:10142E009091DC0E0E940C27C82FB4CE0E94083972
:10143E00882309F4ADCEC3E1ADCE0E9403398823D3
:10144E0009F4A8CE6CE274E080E00E94713960EF7E
:10145E007EE087ED9CE00E9487356091F00E87ED6F
:10146E009CE00E94683443E164E10E941E35C82F5F
:10147E00D4E190CE6DE374E080E00E9471390E9459
:10148E008E3791E0811190E09093ED0E80E00E94F6
:10149E000E3780E00E94223780E00E942C3780E0D9
:1014AE000E94183780E00E9436370E94EA38C5E164
:1014BE0071CE60E574E080E00E9471390E94B53013
:1014CE006DE574E080E00E947139C0E063CE0E9449
:1014DE000339882309F45ECE63E774E080E00E944E
:1014EE00713963E087ED9CE00E94683446E16D2F10
:1014FE000E949630C82F4ECE6AE874E080E00E94BB
:10150E0071390E943D396AE974E080E00E947139B8
:10151E00C8E140CE65EA74E080E00E9471390E9415
:10152E0041391092ED0EC8E135CE66EB74E080E0E5
:10153E000E947139DF91CF911F910F91FF90EF9023
:02154E000895FE
:101550002F923F924F925F926F927F928F92AF92B3
:10156000BF92CF92DF92EF920F931F93CF93DF93AF
:1015700000D000D000D0CDB7DEB73B01882E5A0195
:1015800019014115510521F0FA01608371838283AD
:101590002114310429F0C1010297839708F01AC180
:1015A000E82C6301FFEFCF1ADF0AEF0AF301149171
:1015B00087FC1081812F90E00E94BB374C2D3D2D80
:1015C0002E2D892B19F036018E2CEACF1D3269F4AD
:1015D000E82C630152E0C50ED11CE11CE42FF32F6F
:1015E000149127FD108101E00EC01B3259F4E82C44
:1015F000630182E0C80ED11CE11CE42FF32F14918B
:1016000027FD108100E02114310409F190E1291631
:10161000310429F43FC010E32114310421F1F8E032
:101620002F16310401F154F432E02316310421F570
:10163000412C512C612C50E4752E4BC04AE02416ED
:10164000310439F050E125163104B1F43DC01033B6
:1016500019F13AE0232E312C4CEC442E542C642CFE
:101660004CE0742E36C098E0292E312C412C512CA0
:10167000612C20E1722E2DC060E070E080E090E8E7
:101680009101032C000C440B550B0E94F12F2901F2
:101690003A011FC01033C1F4F6018491E7FC808148
:1016A0008F7D883509F0B7CFAE2DC6010196A11DFB
:1016B000FC011491A7FD1081E2E0CE0ED11CE11CCB
:1016C000026060E1262E312C412C512C612C88E0E7
:1016D000782EA0E060E070E0CB019101032C000CBB
:1016E000440B550B29833A834B835C83E0EDE10F78
:1016F000EA3060F02FEB210F2A3110F4E9EC05C03D
:101700002FE9210F2A3150F5E9EAE10F2E2F30E0C1
:10171000221533051CF5A7FD18C0461657066806A6
:10172000790680F029813A814B815C810E94E935FC
:101730006E0F711D811D911D61307105810530E8AD
:10174000930710F0AFEF01C0A1E0F6011491E7FCA0
:1017500010814FEFC41AD40AE40AC8CF202F217099
:10176000A114B104B1F0AA2349F051E0C51AD1087F
:10177000E108F501C082D182E2820BC001FF1DC0E9
:10178000F2E0CF1AD108E108F501C082D182E282ED
:1017900014C0A7FF12C0222329F060E070E080E0AF
:1017A00090E804C06FEF7FEF8FEF9FE722E230E019
:1017B0003093D7072093D60709C0222381F0909554
:1017C0008095709561957F4F8F4F9F4F462F372F94
:1017D000282F12C040E030E020E090E00DC097FFDD
:1017E000F5CF82E290E09093D7078093D6076FEF12
:1017F0007FEF8FEF9FE7EACF642F732F822F26961C
:101800000FB6F894DEBF0FBECDBFDF91CF911F9111
:101810000F91EF90DF90CF90BF90AF908F907F901F
:0C1820006F905F904F903F902F900895C4
:10182C00CF92DF92EF92FF920F931F93CF93DF93A0
:10183C00CDB7DEB768970FB6F894DEBF0FBECDBF3D
:10184C006B01E82EF42E052F21E0AE014F5F5F4FA8
:10185C000E945723182F882309F431C18E2DB6010D
:10186C000E94DD2B823009F429C1CE0101966C0156
:10187C0020E8E22E29E236E040E08E2DB6010E94EF
:10188C005530892B29F48F2D902F0E947A3317C154
:10189C0020E336E040E08E2DB6010E945530892BB6
:1018AC0029F48F2D902F0E94923309C127E336E043
:1018BC0040E08E2DB6010E945530892B29F48F2DD6
:1018CC00902F0E94AA33FBC02EE336E040E08E2D11
:1018DC00B6010E945530892BE1F4CE0145960E9449
:1018EC000836888D8F938F898F938E898F938D89EE
:1018FC008F9383E496E0A0E0AF939F938F930F9325
:10190C00FF920E948A2F0FB6F894DEBF0FBECDBF98
:10191C00D6C028E436E040E08E2DB6010E9455304A
:10192C00892BE1F4CE0145960E941736888D8F9352
:10193C008F898F938E898F938D898F9383E496E013
:10194C00A0E0AF939F938F930F93FF920E948A2FE7
:10195C000FB6F894DEBF0FBECDBFB1C02DE436E09C
:10196C0040E08E2DB6010E945530892BE1F4CE015A
:10197C0045960E942636888D8F938F898F938E89FA
:10198C008F938D898F9383E496E0A0E0AF939F9320
:10199C008F930F93FF920E948A2F0FB6F894DEBF9D
:1019AC000FBECDBF8CC022E536E040E08E2DB601D7
:1019BC000E945530892B29F48F2D902F0E945D1F8A
:1019CC007EC027E536E040E08E2DB6010E945530F2
:1019DC00892BA1F40E9491381F928F9381E696E097
:1019EC00A0E0AF939F938F930F93FF920E948A2F47
:1019FC000FB6F894DEBF0FBECDBF61C023E736E053
:101A0C0040E08E2DB6010E945530892BA1F40E9426
:101A1C009D389F938F938EE796E0A0E0AF939F93B2
:101A2C008F930F93FF920E948A2F0FB6F894DEBF0C
:101A3C000FBECDBF44C021E936E040E08E2DB6018B
:101A4C000E945530892BA1F40E94A9381F928F93C4
:101A5C008DE996E0A0E0AF939F938F930F93FF9245
:101A6C000E948A2F0FB6F894DEBF0FBECDBF27C0E1
:101A7C002CEB36E040E08E2DB6010E945530892BC0
:101A8C0029F48F2D902F0E94A22319C021EC36E04F
:101A9C0040E08E2DB6010E945530892B29F48F2DF4
:101AAC00902F0E9423180BC026E130E04AEC56E040
:101ABC0060E08F2D902F0E94493301C010E0812FE0
:101ACC0068960FB6F894DEBF0FBECDBFDF91CF91F5
:0E1ADC001F910F91FF90EF90DF90CF90089533
:101AEA00AF92BF92CF92DF92EF92FF921F93CF9362
:101AFA00DF93CDB7DEB728970FB6F894DEBF0FBED7
:101B0A00CDBF5C016B017A0110E0E12FF0E0ED300E
:101B1A00F105D8F7E25CFF4F0C94D9380E942939B5
:101B2A002FEF89E698E1215080409040E1F700C00C
:101B3A0000000E942D394CE050E062E070E0CE01D6
:101B4A0001960E94C1382FE739E040E061E0CE01FA
:101B5A0001960E94C73811E0D8CF46E859E060E004
:101B6A0080E992E00E94FE3260E972E080E80E9419
:101B7A0075244CE050E063E070E0CE0101960E94CB
:101B8A00C13824E939E040E060E0CE0101960E94C4
:101B9A00C73811E0BACFB50180E992E00E94912ED0
:101BAA0080E992E00E946F3660E972E080E80E9464
:101BBA0075244CE050E064E070E0CE0101960E948A
:101BCA00C13824E939E040E060E0CE0101960E9484
:101BDA00C73811E09ACFB70180E992E00E94D92E66
:101BEA0080E992E00E946F3660E972E080E80E9424
:101BFA0075244CE050E065E070E0CE0101960E9449
:101C0A00C13824E939E040E060E0CE0101960E9443
:101C1A00C73811E07ACFB60180E992E00E94B52E6A
:101C2A0080E992E00E946F3660E972E080E80E94E3
:101C3A0075244CE050E066E070E0CE0101960E9407
:101C4A00C13824E939E040E060E0CE0101960E9403
:101C5A00C73811E05ACF61E080E992E00E94C233AE
:101C6A0080E992E00E946F3660E972E080E80E94A3
:101C7A0075244CE050E067E070E0CE0101960E94C6
:101C8A00C13824E939E040E060E0CE0101960E94C3
:101C9A00C73811E03ACF47E959E060E080E992E0BD
:101CAA000E94FE3260E972E080E80E9475244CE0EE
:101CBA0050E068E070E0CE0101960E94C13824E944
:101CCA0039E040E060E0CE0101960E94C73811E099
:101CDA001CCF40EA59E060E080E992E00E94FE32BF
:101CEA0060E972E080E80E9475244AE050E069E009
:101CFA0070E0CE0101960E94C13824E939E040E043
:101D0A0060E0CE0101960E94C73811E0FECE4AE09B
:101D1A0050E06BE070E0CE0101960E94C1382EEAD5
:101D2A0039E040E060E0CE0101960E94C73811E038
:101D3A00ECCE80E992E00E94DB2A14C00E940F38A0
:101D4A00882309F4E2CE80E992E00E94A93460E98E
:101D5A0072E0CE0101960E94532A182FD6CE80E057
:101D6A0001C081E028960FB6F894DEBF0FBECDBF42
:101D7A00DF91CF911F91FF90EF90DF90CF90BF90AE
:041D8A00AF90089579
:101D8E006F927F928F92AF92BF92CF92DF92EF922D
:101D9E001F93CF93DF93CDB7DEB764970FB6F8944A
:101DAE00DEBF0FBECDBF3B01882E5A0121E0AE0132
:101DBE004F5F5F4F0E945723182F882309F4CDC021
:101DCE00CE0101966C0120E8E22E29E236E040E0D9
:101DDE008E2DB6010E945530892B39F4A501882D20
:101DEE00B3010E94A825182FB8C020E336E040E0CA
:101DFE008E2DB6010E945530892B39F4A501882D00
:101E0E00B3010E94E425182FA8C027E336E040E076
:101E1E008E2DB6010E945530892B39F4A501882DDF
:101E2E00B3010E942026182F98C02EE336E040E022
:101E3E008E2DB6010E945530892B39F4A501882DBF
:101E4E00B3010E94652D182F88C028E436E040E0CB
:101E5E008E2DB6010E945530892B39F4A501882D9F
:101E6E00B3010E948B2D182F78C02DE436E040E090
:101E7E008E2DB6010E945530892B39F4A501882D7F
:101E8E00B3010E94B12D182F68C022E536E040E064
:101E9E008E2DB6010E945530892B39F4A501882D5F
:101EAE00B3010E94EA14182F58C027E536E040E02F
:101EBE008E2DB6010E945530892B39F4A501882D3F
:101ECE00B3010E94D72D182F48C023E736E040E01B
:101EDE008E2DB6010E945530892B39F4A501882D1F
:101EEE00B3010E942E2C182F38C021E936E040E0B5
:101EFE008E2DB6010E945530892B39F4A501882DFF
:101F0E00B3010E94FD2D182F28C020EE36E040E0D0
:101F1E008E2DB6010E945530892B39F4A501882DDE
:101F2E00B3010E94E61C182F18C02CEB36E040E0DF
:101F3E008E2DB6010E945530892B39F4A501882DBE
:101F4E00B3010E94731B182F08C026E130E04AEC43
:101F5E0056E060E0C5010E944933812F64960FB6AA
:101F6E00F894DEBF0FBECDBFDF91CF911F91EF90E2
:101F7E00DF90CF90BF90AF908F907F906F9008952D
:101F8E00283008F027E03327DA01990F311D87FD3D
:101F9E00916000966105710539F432602E5F3D93B4
:101FAE0030E32A95E1F708959F3F30F080387105B0
:101FBE00610509F03C5F3C5F3D93913008F080680D
:101FCE00911DDF93CF931F930F93FF92EF92192FD3
:101FDE00987F9695E92F96959695E90FFF27EE58DF
:101FEE00FE4F99273327EE24FF24A701E701059022
:101FFE000894079428F4360FE71EF81E491F511D4A
:10200E00660F771F881F991F0694A1F705900794F6
:10201E0028F4E70EF81E491F561FC11D770F881FA3
:10202E00991F661F0694A1F70590079428F4F80EE1
:10203E00491F561FC71FD11D880F991F661F771F77
:10204E000694A1F70590079420F4490F561FC71F59
:10205E00D81F990F661F771F881F0694A9F78491C2
:10206E001095177041F0D695C79557954795F794EB
:10207E00E7941A95C1F7E8E1F1E06894159015918F
:10208E0035916591959105907FE27395E118F10A6E
:10209E00430B560BC90BD009C0F7E10CF11E431FC1
:1020AE00561FC91FD01D7EF4703311F48A95E6CFEA
:1020BE00E894015030F0080F0AF40027021708F4D4
:1020CE00202F2395022F7A3328F079E37D932A95DA
:1020DE00E9F710C07D932A9589F606949795679532
:1020EE00379517951794E118F10A430B560BC90B48
:1020FE00D00998F023957E9173957A3308F070E3AA
:10210E007C932013B8F77E9170617D9330F08395A8
:10211E0071E37D9370E32A95E1F71124EF90FF9020
:10212E000F911F91CF91DF91992787FD909508957B
:10213E009F92AF92BF92CF92DF92EF92FF920F9348
:10214E001F93CF93DF93CDB7DEB72E970FB6F894CC
:10215E00DEBF0FBECDBF942EA52E22E042E45EE080
:10216E000E945723B82E882309F492C082E49EE081
:10217E006C0120E8E22E26EE36E040E08E2DB60110
:10218E000E945530892B79F40E94EC3781E00E9431
:10219E00183728E130E049EE56E060E0892D9A2D9F
:1021AE000E94493375C021E037E040E08E2DB60124
:1021BE000E945530892B79F40E94EC3780E00E9402
:1021CE00183729E130E045E057E060E0892D9A2D7F
:1021DE000E9449335DC02EE137E040E08E2DB601FE
:1021EE000E945530892B09F04AC019861A861B8623
:1021FE001C861D821E821F82188619821A821B82DD
:10220E001C82CE0109960E942636CE0105960E94AA
:10221E001736CE0101960E940836E980FA800B81AE
:10222E001C812D813E814F81588569857A858B85EC
:10223E009C850E943430CE010D960E94332B88234C
:10224E0051F028E130E043E257E060E0892D9A2D0D
:10225E000E9449331DC08E858F938D858F938BE39E
:10226E0097E0A0E0AF939F938F93AF929F920E94BF
:10227E008A2F0FB6F894DEBF0FBECDBF09C026E180
:10228E0030E042E457E060E0892D9A2D0E944933F8
:10229E008B2D2E960FB6F894DEBF0FBECDBFDF91FD
:1022AE00CF911F910F91FF90EF90DF90CF90BF9045
:0622BE00AF909F9008950F
:1022C400AF92BF92CF92DF92EF92FF920F931F9340
:1022D400CF93DF936C01A22EFC0160832283B12C87
:1022E40000E010E070C0EB2DF0E0DF01AA0FBB1F8F
:1022F400AA0FBB1FAE0FBF1FA40FB51F12962D91BF
:102304003C911397EF01CC0FDD1FCF01880F991F6C
:10231400880F991F880F991FC80FD91FCC0DDD1D79
:102324003987288714968C9114978F831C830B8389
:102334008D919C91119714962C91289F7001299F3F
:10234400F00C112486E0E80EF11CFE82ED82980167
:10235400A1EDB1E50E943536281B390B369527953A
:10236400820F931F0024880F991F001C880F991F48
:10237400001C892F902D31969F01220F331FEE0FE1
:10238400FF1FEE0FFF1FEE0FFF1FE20FF31FEC0DF9
:10239400FD1D80830E0D1F1DF80131979F010E94C2
:1023A4003536E81BF90BF695E7958E0F9F1F002431
:1023B400880F991F001C880F991F001C892F902DCE
:1023C4008B871C86B394BA1408F48DCF015011097D
:1023D4009801A1EDB1E50E943536081B190B16953D
:1023E4000795800F911F0024880F991F001C880FE8
:1023F400991F001C892F902D92E0980FF60191836C
:102404008F5FED55FF4F808390E007C0F601E90F21
:10241400F11DEC55FF4F10829F5F9817B8F3DF91C1
:10242400CF911F910F91FF90EF90DF90CF90BF90CD
:04243400AF900895C8
:10243800CF93DF938091F20E8230C9F130F4882374
:1024480069F0813009F444C0F5CF843009F48DC0B7
:1024580008F448C0853009F458C0ECCF68EA72E047
:1024680080E00E947139C6EDDDE068A54CE55BE0CF
:102478008AA59BA50E9497376DA544E95AE08FA5C8
:1024880098A90E94A0376AA94CEC59E08CA99DA98B
:102498000E94A9376BA17CA144E059E08DA10E945C
:1024A800612981116DC082E08093F20EC3CF0E9432
:1024B800F529882309F466C00E94FE388091D90E58
:1024C8009091DA0E0E940C3581E08093F20EB2CF23
:1024D80084E99EE00E94E516811156C083E080934E
:1024E800F20EA8CF0E94B132882309F44FC00E948F
:1024F8005336882309F44CC00E947D36882309F49A
:1025080049C085E08093F20E95CF27EB3EE04091DD
:10251800940E5091950E6091960E7091970E809141
:10252800980E9091990E0E944B194CE55BE067EB71
:102538007EE089E00E94452744E95AE067EB7EE0A7
:102548008AE00E9445274CEC59E067EB7EE08BE07F
:102558000E94452744E059E067EB7EE088E00E944E
:10256800452784E08093F20E65CF67EB72E080E048
:102578000E9471390E940D390E94683781E00BC0B2
:1025880083E009C082E007C082E005C080E003C0A4
:0C25980080E001C080E0DF91CF91089549
:1025A400CF93DF938091F10E823009F43FC030F471
:1025B400882369F0813009F444C0F4CF843009F4ED
:1025C40088C008F448C0853009F453C0EBCF69ECE7
:1025D40072E080E00E947139C6EDDDE06CAD4CE53F
:1025E4005BE08EAD9FAD0E9497376091170E44E972
:1025F4005AE08091190E90911A0E0E94A0376091B2
:102604001C0E4CEC59E080911E0E90911F0E0E94FE
:10261400A9376FA978AD44E059E089AD0E946129DA
:10262400811166C082E08093F10EBCCF0E94FE3817
:102634000E94F529882309F45DC081E08093F10E9E
:10264400B1CF84E99EE00E94E516811155C083E074
:102654008093F10EA7CF0E94B132882309F44EC0B3
:102664000E945336882309F44BC085E08093F10E11
:1026740099CF27EB3EE04091940E5091950E6091D6
:10268400960E7091970E8091980E9091990E0E94DB
:102694004B194CE55BE067EB7EE08DE00E9445273B
:1026A40044E95AE067EB7EE08EE00E9445274CEC5B
:1026B40059E067EB7EE08FE00E94452744E059E053
:1026C40067EB7EE08CE00E94452784E08093F10E66
:1026D40069CF68ED72E080E00E9471390E940D3983
:1026E4000E9449390E9468370E94353981E009C047
:1026F40083E007C082E005C082E003C080E001C03F
:0827040080E0DF91CF91089500
:10270C006F927F928F92CF92DF92EF92CF93DF9363
:10271C00C0E0EC2FF0E0E730F105D8F7E95AFF4FB5
:10272C000C94D9380E94D3300E9425390E94683904
:10273C006BE778E080E00E947622C1E0EACF0E944D
:10274C001638882331F382E797E00E94BD34C2E04B
:10275C00E0CF82E797E00E945A28C82FDACF82E7B1
:10276C0097E06C0120E8E22E2F93DF928F9381EBA0
:10277C0098E0A0E0AF939F938F93CAEAD6E0DF93E3
:10278C00CF930E948A2F3E0120E8822E882DB30120
:10279C000E947622AE016C2D7D2D8E2D0E946B3900
:1027AC00882DB3010E9476228DB79EB708960FB67E
:1027BC00F8949EBF0FBE8DBFC1E0ABCF87EB98E006
:1027CC00A0E0AF939F938F9381EB98E0A0E0AF9341
:1027DC009F938F93CAEAD6E0DF93CF930E948A2F00
:1027EC00BE0180E80E9476228FE798E321E08150B9
:1027FC0090402040E1F700C000000E946E398DB778
:10280C009EB708960FB6F8949EBF0FBE8DBFC1E061
:10281C0080CF0E940F38882329F08AEA96E00E9424
:10282C00A93409C025E030E042EC58E060E08AEAC7
:10283C0096E00E9449336AEA76E080E80E947622AC
:10284C00C1E067CF0E94EF3867EC78E080E00E942F
:10285C00762281E0DF91CF91EF90DF90CF908F9037
:06286C007F906F900895BB
:10287200CF93DC01262F30E0C9010197F901EE0F59
:10288200FF1F220F331F220F331F220F331FE20FAE
:10289200F31FEA0FFB1F7081C0E025C08217930768
:1028A20009F1A901440F551F440F551F440F551F2D
:1028B200F901EE0FFF1FE40FF51FEA0FFB1F43851F
:1028C200741310C0F901EE0FFF1F220F331F220FE6
:1028D200331F220F331FE20FF31FEA0FFB1F248562
:1028E200233041F4CF5F2C2F30E028173907B4F2A0
:1028F20021E001C020E0222339F0FD01E70FF11DA4
:10290200EC55FF4F21E020839C01220F331F220F41
:10291200331F220F331FFC01EE0FFF1FE20FF31FC5
:10292200EA0FFB1FC38529C0462F50E08417950785
:1029320019F19A012F5F3F4FF901EE0FFF1F220F8E
:10294200331F220F331F220F331FE20FF31FEA0F31
:10295200FB1F2081C21310C0FA01EE0FFF1F440FAC
:10296200551F440F551F440F551FE40FF51FEA0F63
:10297200FB1F2485233041F46F5F12962C9112972E
:10298200621790F281E001C080E0882341F0FD01EE
:10299200EC0FF11DEC55FF4F81E0808306C0FD0175
:1029A200EC0FF11DEC55FF4F10828C2F90E0871B2E
:1029B2009109029764F07F5F08C0FD01E70FF11DE6
:1029C200EC55FF4F81E080837F5F7C17B0F3CF919E
:0229D200089566
:1029D4004F925F926F927F928F92AF92BF92CF92FB
:1029E400DF92EF920F931F93CF93DF93CDB7DEB7B0
:1029F400CB54D1090FB6F894DEBF0FBECDBF3B0157
:102A0400882E5A0122E04BE35DE00E945723182FE1
:102A1400882309F472C08BE39DE06C0120E8E22E68
:102A24008E2DB6010E9455390FEF080F0F3008F0B4
:102A34005FC023E04BE35DE0882DB3010E94572380
:102A4400182F882309F459C08E2DB6010E945539D8
:102A54002C0102978336910508F04CC024E04BE327
:102A64005DE0882DB3010E945723182F882309F4B1
:102A740044C08E2DB6010E9455396C0102978735EA
:102A84009240D0F56BE4CE0101960E94D537802F99
:102A940090E0FC01EE0FFF1FEE0FFF1FE80FF91F80
:102AA40081E090E08C0F9D1FE80FF91F5182408256
:102AB400D382C2826FE00E949429811109C02FE160
:102AC40030E04DE855E060E0C5010E94493315C08F
:102AD400BE016F5F7F4F80E84BE40E94403828E0DE
:102AE40030E045E855E060E0C5010E94493305C087
:102AF40010E003C010E001C010E0812FC55BDF4F80
:102B04000FB6F894DEBF0FBECDBFDF91CF911F91FA
:102B14000F91EF90DF90CF90BF90AF908F907F9008
:082B24006F905F904F9008953F
:102B2C00CF93DF938091F30E8230C9F130F4882378
:102B3C0069F0813009F43EC0F5CF843009F482C0CD
:102B4C0008F442C0853009F44DC0ECCF67E872E060
:102B5C0080E00E947139C6EDDDE06C894CE55BE0EC
:102B6C008E899F890E949737698D44E95AE08B8D35
:102B7C009C8D0E94A0376E8D4CEC59E088A199A1D8
:102B8C000E94A9376F85788944E059E089890E94B1
:102B9C006129811162C082E08093F30EC3CF0E9441
:102BAC00FE380E94F529882309F459C081E08093EE
:102BBC00F30EB8CF84E99EE00E94E516811151C056
:102BCC0083E08093F30EAECF0E94B132882309F4D8
:102BDC004AC00E945336882309F447C085E080938D
:102BEC00F30EA0CF27EB3EE04091940E5091950E42
:102BFC006091960E7091970E8091980E9091990E0F
:102C0C000E944B1944E059E067EB7EE084E00E949F
:102C1C0045274CE55BE067EB7EE085E00E944527AD
:102C2C0044E95AE067EB7EE086E00E9445274CECD5
:102C3C0059E067EB7EE087E00E94452784E08093B3
:102C4C00F30E70CF66E972E080E00E9471390E9449
:102C5C000D390E94683781E009C083E007C082E02B
:102C6C0005C082E003C080E001C080E0DF91CF911D
:022C7C000895B9
:102C7E001F93CF93DF9300D000D000D0CDB7DEB737
:102C8E00AE014B5F5F4FBE016D5F7F4FCE01019670
:102C9E000E94681AEEE8FEE0218130812317D8F4F5
:102CAE006091920E7091930E8091D30E9091D40EEE
:102CBE000E94E534892B79F48281938141E0420FA1
:102CCE004183E22FF0E0EE0FFF1FE80FF91F89811D
:102CDE009A8191838083E8E8FEE021814081241768
:102CEE00D8F460918C0E70918D0E8091D30E9091D0
:102CFE00D40E0E94E534892B79F48281938151E0C0
:102D0E00520F5183E22FF0E0EE0FFF1FE80FF91F75
:102D1E008B819C8191838083E2E8FEE0218110818A
:102D2E002117D8F46091860E7091870E8091D30E84
:102D3E009091D40E0E94E534892B79F4828193818F
:102D4E0051E0520F5183E22FF0E0EE0FFF1FE80F1C
:102D5E00F91F8D819E81918380836091D30E709136
:102D6E00D40E8091D70E9091D80E860F971F909308
:102D7E00D40E8093D30E6091D50E7091D60E861719
:102D8E00970721F41092D40E1092D30E80918F0ECD
:102D9E0038130AC08091890E481306C08091830EA5
:102DAE00181302C00E94853826960FB6F894DEBF1F
:0C2DBE000FBECDBFDF91CF911F91089593
:102DCA000F931F93CF93DF93CDB7DEB727970FB635
:102DDA00F894DEBF0FBECDBF8C0121E049E15AE075
:102DEA0060E081E50E944A3781117CC047E0BE015C
:102DFA006F5F7F4F81E50E946233811175C029811F
:102E0A00822F8F7790E095958795959587959595DB
:102E1A00879595958795880F982F990F990F890F00
:102E2A002F70820FF80180832A81822F8F7790E09A
:102E3A009595879595958795959587959595879570
:102E4A00880F982F990F990F890F2F70820F8183FE
:102E5A002B81822F8F7390E095958795959587950D
:102E6A009595879595958795880F982F990F990F1E
:102E7A00890F2F70820F82832C81822F8F7390E0AB
:102E8A009595879595958795959587959595879520
:102E9A00880F982F990F990F890F2F70820F8383AC
:102EAA002E81822F8F7190E09595879595958795BC
:102EBA009595879595958795880F982F990F990FCE
:102ECA00890F2F70820F84838F81982F92959F701C
:102EDA00990F292F220F220F920F8F70890F858346
:102EEA0080E003C082E001C082E027960FB6F89422
:102EFA00DEBF0FBECDBFDF91CF911F910F91089515
:102F0A00CF930E94F130C0E00DC0C2E00BC0C5E013
:102F1A0009C0C6E007C0C5E005C0C5E003C0C5E0FA
:102F2A0001C0C5E0EC2FF0E0EC30F105D8F7E55B25
:102F3A00FF4F0C94D9386FEB77E080E00E9476223D
:102F4A0065EE77E080E00E9476220E94B9350E9401
:102F5A00D1348111DACF67E078E080E00E947622EE
:102F6A00C4E0E0CF0E9416388111C3E00E941D38E8
:102F7A008111CDCFD7CF82E797E00E94BD3482E797
:102F8A0097E00E945E2B882321F282E797E00E9455
:102F9A002234C82FC7CF62E777E080E84AEA56E0D2
:102FAA000E94160C882309F4B6CFCBE0BBCF62E7A8
:102FBA0077E080E84AEA56E00E94C70E882309F4BF
:102FCA00ACCFCBE0AFCF62E777E080E80E94B32BCB
:102FDA00882309F4A4CFC2E0A5CF62E777E080E8AE
:102FEA004AEA56E00E941920882309F49ACFCBE0D6
:102FFA0099CF6AEA76E080E80E947622C2E092CF10
:10300A0066E278E080E00E947622C2E08BCF60E33D
:10301A0078E080E00E947622C2E084CF0E94F438F1
:10302A006DE378E080E00E947622C1E07BCF63E620
:0C303A0078E080E00E947622CF9108959B
:10304600EF92FF920F931F93CF93DF93CDB7DEB727
:10305600CF54D1090FB6F894DEBF0FBECDBF7C01A9
:103066006BE4CE0105960E94D53749895A896C854D
:103076007D858E010D5F1F4F9E012F5F3F4F8F8114
:1030860098850E94991E811109C026E130E049E128
:1030960055E060E0C7010E94493359C04DA15EA1C9
:1030A60068A179A18E010D5F1F4F9E012F5F3F4FD3
:1030B6008B8D9C8D0E94991E811109C026E130E0FE
:1030C6004FE255E060E0C7010E94493340C049AD78
:1030D6005AAD6CA97DA98E010D5F1F4F9E012F5F12
:1030E6003F4F8FA598A90E94991E811109C027E11B
:1030F60030E045E455E060E0C7010E94493327C04F
:103106002F964EAD5FAD2F972A966EAD7FAD2A975F
:103116008E010D5F1F4F9E012F5F3F4F25968EAD8F
:103126009FAD25970E94991E811109C028E130E0C4
:103136004CE555E060E0C7010E94493308C02AE02B
:1031460030E044E755E060E0C7010E944933C15BC7
:10315600DF4F0FB6F894DEBF0FBECDBFDF91CF9124
:0A3166001F910F91FF90EF90089564
:10317000CF93DF938091F40E823071F128F488238D
:1031800059F08130B1F1F6CF843009F471C0D8F133
:10319000853009F444C0EECF66E672E080E00E941C
:1031A0007139C6EDDDE068814CE55BE08A819B8189
:1031B0000E9497376D8144E95AE08F8198850E947B
:1031C000A0376A854CEC59E08C859D850E94A93713
:1031D00082E08093F40ECECF8091EF0E0E94F935FD
:1031E0000E94F529882309F44CC081E08093F40EF5
:1031F000C1CF84E99EE00E94E516811144C083E0BE
:103200008093F40EB7CF0E9485378823F1F10E9496
:10321000B1328823E1F185E08093F40EABCF27EB48
:103220003EE04091940E5091950E6091960E7091F3
:10323000970E8091980E9091990E0E944B194CE533
:103240005BE067EB7EE081E00E94452744E95AE0BD
:1032500067EB7EE082E00E9445274CEC59E067EB8B
:103260007EE083E00E94452784E08093F40E82CFC5
:1032700065E772E080E00E9471390E940D3981E0BB
:1032800007C082E005C082E003C080E001C080E0AA
:06329000DF91CF910895CB
:103296004F925F926F927F928F929F92AF92BF9260
:1032A600CF92DF92EF92FF920F931F93CF93DF930C
:1032B60000D000D000D0CDB7DEB7F901492E512C91
:1032C600612C712C032E3AE1440C551C661C771CAC
:1032D6003A95D1F7302D90E0A0E0B0E0072E76E1E8
:1032E600880F991FAA1FBB1F7A95D1F7702D8429C5
:1032F6009529A629B729872E912CA12CB12C072E0A
:1033060071E1880C991CAA1CBB1C7A95D1F7702D0B
:1033160088299929AA29BB29C62ED12CE12CF12C62
:103326000B2EBCE0CC0CDD1CEE1CFF1CBA95D1F7B5
:10333600B02D8C299D29AE29BF29052F10E020E04C
:1033460030E0000F111F221F331F000F111F221F15
:10335600331F000F111F221F331F000F111F221FC3
:10336600331F000F111F221F331F000F111F221FB3
:10337600331F802B912BA22BB32B842BB083A183DD
:103386009283838326960FB6F894DEBF0FBECDBF19
:10339600DF91CF911F910F91FF90EF90DF90CF902B
:1033A600BF90AF909F908F907F906F905F904F905F
:0233B600089578
:1033B800BF92CF92DF92EF92FF920F931F93CF931A
:1033C800DF9300D000D000D0CDB7DEB7F42E052FA4
:1033D80022E042E45EE00E945723182F882309F474
:1033E80062C062E47EE080E82EE137E040E00E94BF
:1033F8005530892B09F04EC0AE014F5F5F4FBE01BB
:103408006D5F7F4FCE0105960E943033882351F0BF
:1034180028E130E043E257E060E08F2D902F0E94D2
:10342800493341C06B817C8180E090E00E942F2568
:1034380020E030E040E251E40E944D39E62ED72EDC
:10344800C82EB92E69817A8180E090E00E942F25EC
:1034580020E030E040E251E40E944D399F938F9381
:103468007F936F93BF92CF92DF92EF928E818F936B
:103478008D818F9388E597E0A0E0AF939F938F931A
:103488000F93FF920E948A2F0FB6F894DEBF0FBEEB
:10349800CDBF09C026E130E042E457E060E08F2D5F
:1034A800902F0E944933812F26960FB6F894DEBFDD
:1034B8000FBECDBFDF91CF911F910F91FF90EF907D
:0834C800DF90CF90BF90089542
:1034D000CF92DF92EF92FF920F931F93CF93DF93E0
:1034E000CDB7DEB762970FB6F894DEBF0FBECDBF83
:1034F0008C017B016A018FEF9FEFF801918380833C
:10350000FB0191838083FA01918380830E94E538D7
:1035100081110DC08EEF9FEFF80191838083F70139
:1035200091838083F6019183808383E04DC022E004
:1035300047E15AE060E081E60E94993681113BC084
:103540008FE39FE10197F1F700C0000042E1BE0167
:103550006F5F7F4F81E60E94E53281112EC0CE0160
:1035600001960E941733882351F161E0CE01019644
:103570000E942D29F80191838083CE0107960E9435
:1035800017338823F1F06AE0CE0107960E942D29B7
:10359000F70191838083CE010D960E941733882313
:1035A00091F06AE0CE010D960E942D29F6019183DB
:1035B000808380E009C081E007C081E005C081E030
:1035C00003C081E001C081E062960FB6F894DEBFCF
:1035D0000FBECDBFDF91CF911F910F91FF90EF9064
:0635E000DF90CF9008957A
:1035E6001F93CF93DF9300D000D000D0CDB7DEB7C6
:1035F600F9013DEC439F212D11242695269526950C
:1036060010E1219FD0011124220FB22FBB0FBB0F57
:103616002B0F421B4A2B4083539F212D11242695A5
:103626002695269540E1249FD0011124220F422F92
:10363600440F440F240F521B5A2B5183639F412D75
:10364600112446954695469510E1419FD0011124D7
:10365600440F242F220F220F420F641B6A2B628312
:10366600739F412D112446954695469520E1429F2C
:10367600D0011124440F242F220F220F420F741B56
:103686007A2B7383839F412D112446954695469543
:1036960010E1419FB0011124440F242F220F220F65
:1036A600420F841B862B8483939F312D11243695DC
:1036B6003695369520E1329FA0011124330F832FD2
:1036C600880F880F380F931B942B958326960FB679
:1036D600F894DEBF0FBECDBFDF91CF911F91089545
:1036E6006F927F928F92DF92EF92FF920F931F93CA
:1036F600CF93DF9300D000D000D0CDB7DEB73B012B
:10370600882E7A010E947C3722E04BE35DE0882D0B
:10371600B3010E945723182F882309F44EC06BE388
:103726007DE080E80E947E34419749F025E230E052
:1037360041EF55E060E0C7010E9449333EC060E0BA
:103746008BE39DE00E94CB32882E63E08BE39DE005
:103756000E94CB32782E66E08BE39DE00E94CB324E
:10376600682E69E08BE39DE00E94CB32082F6CE067
:103776008BE39DE00E94CB32D82E6FE08BE39DE079
:103786000E94CB32482F5D2D602F762D872D982DE8
:103796000E94F928882349F023E130E046E156E00B
:1037A60060E0C7010E94493308C028E030E045E8E0
:1037B60055E060E0C7010E944933812F26960FB677
:1037C600F894DEBF0FBECDBFDF91CF911F910F9151
:0E37D600FF90EF90DF908F907F906F9008959E
:1037E400DF92EF92FF920F931F93CF93DF93CDB7A6
:1037F400DEB728970FB6F894DEBF0FBECDBFD82E24
:103804007B01042F10E0123009F440C028F4112386
:1038140049F0113049F1F7CF133009F44EC0143098
:10382400D9F1F1CF202FA7016D2D80E992E00E94FC
:10383400252180E992E00E946F3660E972E080E819
:103844000E94752442E050E061E070E0CE010196F0
:103854000E94C13822EE39E040E060E0CE010196DA
:103864000E94C73814E0CFCF42E050E063E070E03C
:10387400CE0101960E94C13825EE39E040E060E0B7
:10388400CE0101960E94C73814E0BDCF60E972E012
:1038940080E80E94C52812C00E940F38882309F4CA
:1038A400B2CF80E992E00E94A93460E972E0CE01CF
:1038B40001960E94532A182FA6CF80E028960FB6AF
:1038C400F894DEBF0FBECDBFDF91CF911F910F9152
:0838D400FF90EF90DF900895D2
:1038DC008F929F92AF92BF92CF92DF92EF92FF9214
:1038EC000F931F93CF93DF93EC016B015A014901A6
:1038FC000E94F2338F3F2FEF920709F451C08C15C1
:10390C009D0509F04FC080E009C0FE01E80FF11DD4
:10391C00EC55FF4F9081913041F08F5FFE01ED55DA
:10392C00FF4F9081891788F380E091E0980FF501A3
:10393C0090839981F401908390E041E6489F900137
:10394C00499F300D1124F80131832083FE01ED5580
:10395C00FF4F208130E021503109821793072CF45E
:10396C0081E6F701808381E01EC08A8190E0019797
:10397C00AC01440F551F880F991F880F991F880F92
:10398C00991F840F951FC80FD91F9B818D81890F9B
:10399C00F1E62F9F80191124F701808381E003C089
:1039AC0080E001C080E0DF91CF911F910F91FF90DB
:1039BC00EF90DF90CF90BF90AF909F908F90089535
:1039CC000F931F93CF93DF93CDB7DEB7CB54D109B1
:1039DC000FB6F894DEBF0FBECDBF8A016CEA75E05E
:1039EC0080E00E9449316CEA75E080E00E9466310B
:1039FC006DEB75E080E00E94833160E070E080E860
:103A0C009FE30E942B3860E070E48CE195E40E9407
:103A1C00323860E070E080EA90E40E94393882E04D
:103A2C000E948B3885E090E00E94973886E00E94D7
:103A3C00A33880E01AC0E82FF0E09F01220F331F5B
:103A4C00220F331FE20FF31F21E030E02C0F3D1F3C
:103A5C00E20FF31F92E0948322E030E03183208365
:103A6C0023E030E0338322838F5F8F3020F3BE015D
:103A7C006F5F7F4F80E84BE40E94403823E130E0D9
:103A8C004EED55E060E0C8010E94493381E0C55B12
:103A9C00DF4F0FB6F894DEBF0FBECDBFDF91CF91D5
:063AAC001F910F91089527
:103AB20010C00E945C3858F00E94553840F029F43A
:103AC2005F3F29F00C94D33851110C9464380C9454
:103AD20074390E94AD2F68F39923B1F3552391F302
:103AE200951B550BBB27AA2762177307840738F06B
:103AF2009F5F5F4F220F331F441FAA1FA9F335D0C8
:103B02000E2E3AF0E0E832D091505040E695001C7B
:103B1200CAF72BD0FE2F29D0660F771F881FBB1F35
:103B2200261737074807AB07B0E809F0BB0B802D13
:103B3200BF01FF2793585F4F3AF09E3F510578F03F
:103B42000C94D3380C9464385F3FE4F3983ED4F37A
:103B5200869577956795B795F7959F5FC9F7880F13
:103B6200911D9695879597F90895E1E0660F771F65
:103B7200881FBB1F621773078407BA0720F0621BF6
:0E3B8200730B840BBA0BEE1F88F7E0950895C5
:103B90000FC00E94553838F00E945C3820F0952301
:103BA00011F00C94D3380C94743911240C946438AB
:103BB0000E94AD2F70F3959FC1F3950F50E0551FF4
:103BC000629FF001729FBB27F00DB11D639FAA2772
:103BD000F00DB11DAA1F649F6627B00DA11D661FC1
:103BE000829F2227B00DA11D621F739FB00DA11DE2
:103BF000621F839FA00D611D221F749F3327A00D9C
:103C0000611D231F849F600D211D822F762F6A2F37
:103C100011249F5750409AF0F1F088234AF0EE0F9C
:103C2000FF1FBB1F661F771F881F91505040A9F7C9
:103C30009E3F510580F00C94D3380C9464385F3F5C
:103C4000E4F3983ED4F3869577956795B795F79505
:103C5000E7959F5FC1F7FE2B880F911D969587957D
:043C600097F9089533
:103C640011C00E94553838F00E945C3820F039F4B5
:103C74009F3F19F426F40C9474390EF4E095E7FB95
:103C84000C94D338E92F0E94AD2F58F3BA1762076A
:103C940073078407950720F079F4A6F50C9463382C
:103CA4000EF4E0950B2EBA2FA02D0B01B901900153
:103CB4000C01CA01A0011124FF27591B99F0593F97
:103CC40050F4503E68F11A16F040A22F232F342FDF
:103CD4004427585FF3CF469537952795A795F0402D
:103CE4005395C9F77EF41F16BA0B620B730B840B42
:103CF400BAF09150A1F0FF0FBB1F661F771F881FFA
:103D0400C2F70EC0BA0F621F731F841F48F4879551
:103D140077956795B795F7959E3F08F0B0CF939543
:0E3D2400880F08F09927EE0F97958795089560
:103D3200EF92FF920F931F93CF93DF93EB017A01E0
:103D4200D901F80111821082009711F091838083CA
:103D5200208131812C173D0710F4D183C08320814B
:103D620031812E153F0510F4F182E08220813181EC
:103D720011963C932E93009731F08217930718F413
:103D820011969C938E93209749F02D913C91119717
:103D9200C217D30718F41196DC93CE93E114F10401
:103DA20049F02D913C911197E216F30618F4119601
:103DB200FC92EE922D913C91B9010E94E534892B3F
:103DC20071F4CE01B9010E94E534892B51F4C70187
:103DD200B9010E94E534892B31F080E005C080E012
:103DE20003C080E001C081E0DF91CF911F910F916C
:063DF200FF90EF90089520
:103DF8001F93CF93DF93CDB7DEB72D970FB6F89407
:103E0800DEBF0FBECDBF182F81E0898382E08A8391
:103E180085E0EAE9FEE0DE01139601900D928A95AD
:103E2800E1F7CE0108960E94E5168A85810F9BEA84
:103E3800899F912D112492959F7028E1929F801956
:103E480011248A87AE014F5F5F4F60E822E081E569
:103E58000E949936811120C09A858DEC989F812DFA
:103E6800112486958695869540E1849F90011124BA
:103E7800880F382F330F330F830F981B922B9D8396
:103E8800AE014D5F5F4F60E825E081E50E949936FD
:103E9800882321F082E003C082E001C080E02D96F3
:103EA8000FB6F894DEBF0FBECDBFDF91CF911F9143
:023EB80008956B
:103EBA00FF920F931F93CF93DF93CDB7DEB7CB5407
:103ECA00D1090FB6F894DEBF0FBECDBF8C016BE4EB
:103EDA00CE0101960E94D53723E130E041EC54E04F
:103EEA0060E0C8010E944933F12C30C08F2D90E068
:103EFA00FC01EE0FFF1FEE0FFF1FE80FF91F21E075
:103F0A0030E02C0F3D1FE20FF31F23812F932281F4
:103F1A002F9321812F9320812F9301969F938F9323
:103F2A0084ED94E0A0E0AF939F938F930BE31DE0A1
:103F3A001F930F930E948A2FB80180E80E9476226D
:103F4A00F3940FB6F894DEBF0FBECDBF9EE09F1567
:103F5A0068F6C55BDF4F0FB6F894DEBF0FBECDBF64
:0C3F6A00DF91CF911F910F91FF900895FF
:103F7600FA01AA27283051F1203181F1E8946F9394
:103F86006E7F6E5F7F4F8F4F9F4FAF4FB1E03ED03A
:103F9600B4E03CD0670F781F891F9A1FA11D680FD8
:103FA600791F8A1F911DA11D6A0F711D811D911D0B
:103FB600A11D20D009F468943F912AE0269F112480
:103FC6003019305D3193DEF6CF010895462F4770E4
:103FD600405D4193B3E00FD0C9F7F6CF462F4F703F
:103FE600405D4A3318F0495D31FD4052419302D09D
:103FF600A9F7EACFB4E0A695979587957795679543
:10400600BA95C9F700976105710508959B01AC0142
:104016000A2E06945795479537952795BA95C9F769
:0C402600620F731F841F951FA01D0895DA
:104032006F927F928F92CF92DF92EF920F931F93A4
:10404200CF933B01882E8A0121E042E45EE00E9488
:104052005723C82F8823E9F182E49EE06C0120E80F
:10406200E22E2FEA37E040E08E2DB6010E94553055
:10407200892B39F4A801882DB3010E949F10C82F03
:1040820028C024EB37E040E08E2DB6010E94553067
:10409200892B39F4A801882DB3010E94DC19C82F9D
:1040A20018C02AEB37E040E08E2DB6010E94553051
:1040B200892B39F4A801882DB3010E942422C82F2C
:1040C20008C026E130E042E457E060E0C8010E9407
:1040D20049338C2FCF911F910F91EF90DF90CF90AA
:0840E2008F907F906F9008950C
:1040EA00CF92DF92EF92FF920F931F93CF93DF93BA
:1040FA006C0110E008C0CC0DDD1D88818E3211F4F0
:10410A001F5F0CC01F5FC12FD0E0B60180E80E947C
:10411A007E340197C817D90770F310E0112371F1A3
:10412A00C10ED11C80E8E82E8E2DB6010E947E3485
:10413A00C82F8E2DB6010E9455398C010F2EC12C25
:10414A00D12CF0E8EF2EFFE3FF2EF02D0BC020E07C
:10415A0030E040E251E4C701B6010E9451396B01D7
:10416A007C01C150C111F3CFB80180E090E00E94F8
:10417A002F25A70196010E944D3903C060E070E027
:10418A00CB01DF91CF911F910F91FF90EF90DF90BC
:04419A00CF90089525
:10419E000F931F93CF93DF938C01EB01FC01818171
:1041AE008883818189831A8282818B836C5F7F4FA2
:1041BE00C8010E947A2120E035C0822F90E0DC01F8
:1041CE00AA0FBB1FAA0FBB1FAD01465F5F4F4C0F5F
:1041DE005D1FFC01EE0FFF1F880F991F880F991F9F
:1041EE00880F991FE80FF91FBF01600F711FFB01A8
:1041FE008481FA018083CD010B968C0F9D1FFB01EC
:10420E003381FC013083CD010C968C0F9D1FFB0179
:10421E003681FC0130831D96AC0FBD1FFB018581DD
:10422E008C932F5FF8018281281738F2880F880F40
:0C423E00865FDF91CF911F910F910895D2
:10424A00DF92EF92FF920F931F93CF93DF93CDB735
:10425A00DEB7C95CD1090FB6F894DEBF0FBECDBF79
:10426A008C019FEF960F9F3D60F59FEF920F94365A
:10427A0058F5D62E60E8CE0101967C010E94F22400
:10428A00C701A0E8AF939F93EF921F92DF928BE44E
:10429A0099E0A0E0AF939F938F9386E599E0A0E021
:1042AA00AF939F938F931F930F930E948A2FB80106
:1042BA0080E80E947E340FB6F894DEBF0FBECDBFF1
:1042CA0005C08FEF9FEF02C08FEF9FEFC753DF4FFD
:1042DA000FB6F894DEBF0FBECDBFDF91CF911F910D
:0A42EA000F91FF90EF90DF90089510
:1042F400CF93DC0180E04DC0282F220F220F290F1D
:1043040030E0F901319612964C91129750E04E1715
:104314005F07BCF1492F440FF901EE0FFF1F220F75
:10432400331F220F331F220F331FE20FF31FEA0F35
:10433400FB1F2781223069F02430A1F02130D1F411
:1043440021E030E002C0220F331F4A95E2F7C22B6E
:1043540011C022E030E002C0220F331F4A95E2F779
:10436400C22B08C023E030E002C0220F331F4A955D
:10437400E2F7C22B9F5F02C090E0C0E0943008F4E3
:10438400BBCFE5E0F0E0E81BF109E60FF71FC083BF
:0A4394008F5F863088F3CF91089503
:10439E000F931F93CF93DF938C01EB011882FC01D7
:1043AE00818189831A8282818B836C5F7F4FC801E2
:1043BE000E947A2120E035C0822F90E0DC01AA0F06
:1043CE00BB1FAA0FBB1FAD01465F5F4F4C0F5D1F9A
:1043DE00FC01EE0FFF1F880F991F880F991F880F82
:1043EE00991FE80FF91FBF01600F711FFB01848138
:1043FE00FA018083CD010B968C0F9D1FFB0133813B
:10440E00FC013083CD010C968C0F9D1FFB01368174
:10441E00FC0130831D96AC0FBD1FFB0185818C9373
:10442E002F5FF8018281281738F2880F880F865F78
:0A443E00DF91CF911F910F910895B7
:10444800CF92DF92EF920F931F93CF938A0122E0CE
:1044580042E45EE00E945723C82F8823D9F182E402
:104468009EE06C0120E8E22E26EE36E040E08E2D3C
:10447800B6010E945530892B71F40E94FA3781E009
:104488000E942C3725E130E044E857E060E0C8019D
:104498000E9449331FC021E037E040E08E2DB6016D
:1044A8000E945530892B71F40E94FA3780E00E94EF
:1044B8002C3726E130E049E957E060E0C8010E9466
:1044C800493308C026E130E042E457E060E0C80123
:1044D8000E9449338C2FCF911F910F91EF90DF905D
:0444E800CF900895D4
:1044EC006F927F928F92CF92DF92EF923B01882E48
:1044FC008091C50E9091C60E892BD1F7882DB301F2
:10450C000E947E34BC0120E030E011C0E82C630135
:10451C00C20ED31EE11C37FDEA94F6019491E7FC20
:10452C009081F901E852F84F90832F5F3F4F261787
:10453C00370760F3FB01E852F84F8DE08083FB01F5
:10454C00E752F84F8AE080836E5F7F4F7093C60E00
:10455C006093C50E81E090E09093C40E8093C30EDF
:10456C008091D8078093CE00EF90DF90CF908F9002
:06457C007F906F9008958E
:104582008F929F92AF92BF92CF92DF92EF92FF9261
:10459200BC0180E090E00E942F2520E030E040E85E
:1045A20059E30E9451398090A70E9090A80EA090D6
:1045B200A90EB090AA0EA50194010E9451396B0177
:1045C2007C019B01AC01C501B4010E944E38A701D8
:1045D20096010E944D392091A30E3091A40E409174
:1045E200A50E5091A60E0E94513920919F0E309136
:1045F200A00E4091A10E5091A20E0E9451390E942C
:10460200242ACB01FF90EF90DF90CF90BF90AF9024
:064612009F908F900895B7
:10461800AF92BF92CF92DF92EF92FF920F931F93C8
:10462800CF93DF9300D000D01F92CDB7DEB76B01D8
:104638005A019E012B5F3F4F79018E010D5F1F4F7D
:1046480023503109AE014F5F5F4FBC0184E29CE00B
:104658000E946E1C8823B1F04D8183E0840FF50120
:1046680080838091240CF6018083898181838A81EB
:10467800828350E06B817C81C60103960E94DA3305
:1046880081E001C080E00F900F900F900F900F9085
:10469800DF91CF911F910F91FF90EF90DF90CF9016
:0646A800BF90AF900895E1
:1046AE008F929F92AF92CF92DF92EF92FF920F93E3
:1046BE001F93CF93DF936B01E82EEA01F22E0E9437
:1046CE00DD2B8F1558F18E2DB6010E947E348C0194
:1046DE004F2D8E2DB6010E947D2790E015C046010C
:1046EE00AE2C820E931EA11C37FDAA944A2D940166
:1046FE00F401249147FD2081203259F0FE01E90F8B
:10470E00F11D20838F5F9F5F282F30E02017310728
:10471E0030F3C90FD11D188281E001C080E0DF9116
:10472E00CF911F910F91FF90EF90DF90CF90AF90B0
:06473E009F908F9008958A
:104744000F931F93CF93DF9300D000D000D0CDB749
:10475400DEB7182F092F0E947C37CE0101960E94E4
:10476400E516882351F024E130E047EE54E060E0A0
:10477400812F902F0E94493321C059814A813B8166
:104784002C819D818E811F925F931F924F931F9264
:104794003F931F922F931F929F931F928F938BEFA0
:1047A40094E0A0E0AF939F938F930F931F930E9485
:1047B4008A2F0FB6F894DEBF0FBECDBF26960FB674
:1047C400F894DEBF0FBECDBFDF91CF911F910F9143
:0247D400089546
:1047D600CF92DF92FF920F931F93CF93DF938901BE
:1047E600FA010BC0DF01A41BB50BA80FB91F3C9142
:1047F600DF01A657BC4F3C9331966A0126E0C20EF4
:10480600D11CEC15FD0570F398012650310936953B
:104816002795495F5F4FA0E0B0E016C0CD01880F35
:10482600991FF601E80FF91F8B01080F191FE80100
:10483600F980E657FC4FF082840F951F1881FC0122
:10484600E657FC4F10831196A217B30738F3DF9192
:0E485600CF911F910F91FF90DF90CF900895AA
:104864000F931F93CF93DF938C01A62FB0E0119782
:10487400FD01EE0FFF1FCD01880F991F880F991FAF
:10488400880F991FE80FF91FE00FF11F83E0848759
:1048940090E00AC0E92FF0E0E901CE0FDF1FE40F3A
:1048A400F51F808188839F5F9430A0F3CD01880F2A
:1048B400991FAA0FBB1FAA0FBB1FAA0FBB1FA80FCC
:1048C400B91FA00FB11F19968C911997F901848310
:1048D40018968C918583C8010E943914DF91CF9179
:0648E4001F910F910895E1
:1048EA006F927F928F92CF92DF92EF923B01882E46
:1048FA008091C10E9091C20E892BD1F7882DB301F8
:10490A000E947E34BC0120E030E011C0E82C630133
:10491A00C20ED31EE11C37FDEA94F6019491E7FC1E
:10492A009081F901EA56FE4F90832F5F3F4F261779
:10493A00370760F37093C20E6093C10E81E090E076
:10494A009093C00E8093BF0E809196018093C6000B
:0E495A00EF90DF90CF908F907F906F90089538
:104968001F920F920FB60F9211242F933F934F93DC
:104978005F936F937F938F939F93AF93BF93CF93DF
:10498800EF93FF938091DD0E8F5F8093DD0E803271
:1049980099F41092DD0EC0E00DC0EC2FF0E0EE0FA0
:1049A800FF1FE858F14F0190F081E02D309709F092
:1049B8000995CF5FC53088F3FF91EF91CF91BF91F3
:1049C800AF919F918F917F916F915F914F913F919F
:0C49D8002F910F900FBE0F901F901895AC
:1049E400CF92DF92EF920F931F93CF93DF938C01BB
:1049F4006A01E62ED22FC0E026C08C2F90E04E2D07
:104A04009601280F391F411D97FD4A95F9012491FC
:104A140047FD2081880F991F1F922F932CEE38E0B9
:104A240040E04F933F932F93800F911F9F938F9359
:104A34000E948A2FCF5F8DB79EB707960FB6F89462
:104A44009EBF0FBE8DBFCD17C0F2DF91CF911F91D6
:0A4A54000F91EF90DF90CF900895CE
:104A5E00E89409C097FB3EF490958095709561950A
:104A6E007F4F8F4F9F4F9923A9F0F92F96E9BB27C0
:104A7E009395F695879577956795B795F111F8CF3C
:104A8E00FAF4BB0F11F460FF1BC06F5F7F4F8F4FA7
:104A9E009F4F16C0882311F096E911C0772321F09D
:104AAE009EE8872F762F05C0662371F096E8862F35
:104ABE0070E060E02AF09A95660F771F881FDAF78C
:0A4ACE00880F9695879597F90895D3
:104AD800CF93DF93EA01AB01682F80E992E00E944F
:104AE800443680E992E00E946F3660E972E080E81F
:104AF8000E9475241092EB0E8BEB98E30E94892B91
:104B08008093EA0E0E940F38811104C08091EB0E49
:104B18008F30C0F38091EA0E0E940F318091EB0E26
:104B28008F3060F02CE030E046EF59E060E0CE01D5
:104B38000E944933CE010E94A93403C0CE010E94CD
:084B4800A934DF91CF9108951B
:104B5000CF92DF92EF920F931F93CF938A0122E0BF
:104B60004BE35DE00E945723C82F882329F18BE394
:104B70009DE06C0120E8E22E8E2DB6010E947E346D
:104B80004097C9F48E2DB6010E944931C82F81117A
:104B900009C027E030E04EE755E060E0C8010E9420
:104BA00049330AC028E030E045E855E060E0C8013C
:104BB0000E94493301C0C0E08C2FCF911F910F910B
:084BC000EF90DF90CF90089503
:104BC800CF92DF92EF920F931F93CF938A0122E047
:104BD8004BE35DE00E945723C82F882329F18BE31C
:104BE8009DE06C0120E8E22E8E2DB6010E947E34F5
:104BF8004097C9F48E2DB6010E946631C82F8111E5
:104C080009C027E030E04EE755E060E0C8010E94A7
:104C180049330AC028E030E045E855E060E0C801C3
:104C28000E94493301C0C0E08C2FCF911F910F9192
:084C3800EF90DF90CF9008958A
:104C4000CF92DF92EF920F931F93CF938A0122E0CE
:104C50004BE35DE00E945723C82F882329F18BE3A3
:104C60009DE06C0120E8E22E8E2DB6010E947E347C
:104C70008097C9F48E2DB6010E948331C82F81110F
:104C800009C027E030E04EE755E060E0C8010E942F
:104C900049330AC028E030E045E855E060E0C8014B
:104CA0000E94493301C0C0E08C2FCF911F910F911A
:084CB000EF90DF90CF90089512
:104CB8000F931F93CF93DF93FB01248121FD03C042
:104CC8008FEF9FEF2CC022FF16C0478150852581AA
:104CD80036814217530744F4A081B1819D012F5FAB
:104CE8003F4F318320838C93278130852F5F3F4F3F
:104CF8003087278314C08B01EC01FB010184F28506
:104D0800E02D0995892BE1F6D80117968D919C9194
:104D18001897019618969C938E931797CE01DF915A
:084D2800CF911F910F91089536
:104D30001F920F920FB60F9211242F938F939F9370
:104D4000EF93FF938091DF0E81110EC0E091E00E92
:104D5000E63950F481E08E0F8093E00EF0E0809110
:104D6000C600E050FF4F80838091E00E833080F0DA
:104D700090E0FC01E150FF4F20812A3049F4FC0112
:104D8000E250FF4F80818D3019F481E08093DF0E77
:104D9000FF91EF919F918F912F910F900FBE0F90E8
:044DA0001F901895B3
:104DA4001F920F920FB60F9211242F938F939F93FC
:104DB400EF93FF938091E10E81110EC0E091E20E1A
:104DC400EB3450F481E08E0F8093E20EF0E080919A
:104DD400CE00E557F24F80838091E20E833080F05D
:104DE40090E0FC01E657F24F20812A3049F4FC019F
:104DF400E757F24F80818D3019F481E08093E10E02
:104E0400FF91EF919F918F912F910F900FBE0F9073
:044E14001F9018953E
:104E18000F931F93CF938C01C42F623031F118F494
:104E2800662331F029C0643061F06530A1F024C0F8
:104E38000E94CD386AEE72E080E00E9471398C2FB2
:104E48001CC067EF72E080E00E947139C8010E94BF
:104E5800CD388C2F12C064E073E080E00E94713975
:104E6800C8010E94CD3886E108C061E173E080E0A6
:104E78000E9471398C2F01C087E1CF911F910F914A
:024E880008958B
:104E8A00EF92FF921F93CF93DF93CDB7DEB72A97A6
:104E9A000FB6F894DEBF0FBECDBF182F7A019E0160
:104EAA002F5F3F4FAB01682F84E29CE00E943224BF
:104EBA009E01275F3F4FAE01495F5F4F612F84E23A
:104ECA009CE00E942B3229853A854F815885B7018B
:104EDA00CE0101960E94EB232A960FB6F894DEBF04
:104EEA000FBECDBFDF91CF911F91FF90EF90089534
:104EFA00CF92DF92EF920F931F93CF93DF934423C6
:104F0A0029F1042F6B01E82EC0E0D0E010E014C0B4
:104F1A00AE2DC6018C0F9D1FA11DD7FDAA95FC01C0
:104F2A008491A7FD8081803231F41F5F011303C091
:104F3A00CE0101960DC021968E2DB6010E947E34B7
:104F4A00C817D90728F380E090E002C080E090E01B
:104F5A00DF91CF911F910F91EF90DF90CF9008953D
:104F6A001F920F920FB60F9211242F933F938F9394
:104F7A009F93EF93FF938091BF0E9091C00E209163
:104F8A00C10E3091C20E8217930770F49C012F5FF5
:104F9A003F4F3093C00E2093BF0EFC01EA56FE4FDE
:104FAA0080818093C60008C01092C00E1092BF0E76
:104FBA001092C20E1092C10EFF91EF919F918F91A4
:0E4FCA003F912F910F900FBE0F901F901895E2
:104FD8001F920F920FB60F9211242F933F938F9326
:104FE8009F93EF93FF938091C30E9091C40E2091ED
:104FF800C50E3091C60E8217930770F49C012F5F7F
:105008003F4F3093C40E2093C30EFC01E852F84F73
:1050180080818093CE0008C01092C40E1092C30EF7
:105028001092C60E1092C50EFF91EF919F918F912D
:0E5038003F912F910F900FBE0F901F90189573
:1050460085E50E94212F1092CE0E1092CD0E82E79A
:1050560097E30E94892B8093E90E0E940F388111F5
:1050660006C08091CD0E9091CE0E0A97B0F3809136
:10507600E90E0E940F318091CD0E9091CE0E0A97C7
:1050860020F00E94EF3881E0089580E992E00E94C6
:10509600A93460E972E080E824E13AE040E00E9449
:0E50A6005530892B11F480E0089581E00895C3
:1050B400CF92DF92EF920F931F936C0120E8E22EC0
:1050C40004E010E02BE638E040E08E2DB6010E94AB
:1050D4009028892BC1F005E010E020E738E040E09B
:1050E4008E2DB6010E949028892B79F004E010E0FF
:1050F40026E738E040E08E2DB6010E949028892BE7
:1051040031F485E005C086E003C084E001C083E09B
:0C5114001F910F91EF90DF90CF90089555
:10512000CF92DF92EF920F931F936B01E82E011540
:10513000110519F101501109F6018491E7FC8081F4
:10514000882399F0F901949147FD9081992369F0A2
:105150000115110551F0891308C08FEFC81AD80A3C
:10516000E80A2F5F3F4F4F4FE5CF90E0F9012491C0
:1051700047FD2081821B910902C080E090E01F91D1
:0A5180000F91EF90DF90CF9008959B
:10518A00CF92DF92EF926B01E82E27EB39E040E0F5
:10519A000E945530892BE9F022EC39E040E08E2D4F
:1051AA00B6010E945530892BB1F02AEC39E040E073
:1051BA008E2DB6010E94232E81110FC021ED39E0F8
:1051CA0040E08E2DB6010E94232E882341F085E00F
:1051DA0007C082E005C084E003C080E001C081E02E
:0851EA00EF90DF90CF900895D3
:1051F200CF93DF93CDB7DEB764970FB6F894DEBFD7
:105202000FBECDBF9E01275F3F4F0E94F31A82E07F
:10521200898389858A838A858B838B858C838C8518
:105222008D831E828D858F838E858887AE014F5F29
:105232005F4F60E828E081E50E949936882311F0EB
:1052420082E001C080E064960FB6F894DEBF0FBE24
:08525200CDBFDF91CF9108955B
:10525A00CF92DF92EF92FF920F931F93CF93DF9338
:10526A00FC0104811381D181C08170E080E090E06B
:10527A000E9431259B01AC01602F712F8D2F9C2F2D
:10528A000E9451396B017C0120E030E0A9010E94A3
:10529A001739882334F0C701B6010E94242ACB01AA
:1052AA0002C080E090E0DF91CF911F910F91FF90B3
:0852BA00EF90DF90CF90089502
:1052C200CF935093CA0E4093C90E7093CC0E609345
:1052D200CB0E1092C80E1092C70E64E47FE20E94B9
:1052E200543581E00E940E372FEF83EC99E0215074
:1052F20080409040E1F700C0000060E08DE40E9431
:105302006D2EC82F0E94CD37CC2351F01092CA0EB9
:105312001092C90E1092CC0E1092CB0E82E001C0F8
:0653220080E0CF91089528
:10532800CF93DF93EC01862F880F880F855F853632
:1053380018F590E020E030E018C0E92FF0E0AF0168
:10534800440F551F440F551FE40FF51FEC0FFD1FA9
:10535800A081B18174817A9FA0017B9F500D112497
:10536800240F351F2A5F3F4F9F5F961730F3213276
:10537800334020F481E003C080E001C080E0DF9189
:04538800CF91089524
:10538C00CF93DF93443651056105710518F1EC019B
:10539C007F936F935F934F9384EF98E0A0E0AF936C
:1053AC009F938F938EEF98E0A0E0AF939F938F9392
:1053BC00DF93CF930E948A2FBE0180E80E947E3437
:1053CC002DB73EB7245F3F4F0FB6F8943EBF0FBECC
:0E53DC002DBF02C08FEF9FEFDF91CF9108959C
:1053EA000F931F93CF934091860E5091870E609131
:1053FA008C0E70918D0E05ED1EE027ED3EE080913A
:10540A00920E9091930E0E94991E882391F00E9409
:10541A00E538C82F8823D9F36FE376E18091D70E58
:10542A009091D80E0E9410320E943F160E947F3837
:0E543A0001C0C0E08C2FCF911F910F910895FB
:105448000E94B52F88F09F5798F0B92F9927B75128
:10545800B0F0E1F0660F771F881F991F1AF0BA9510
:10546800C9F714C0B13091F00E946338B1E00895D3
:105478000C946338672F782F8827B85F39F0B93FC5
:10548800CCF3869577956795B395D9F73EF49095C3
:0E5498008095709561957F4F8F4F9F4F0895BF
:1054A600CF93DF93EC018C81813091F018F082303C
:1054B600E9F01FC02D813E814F8180E80E94553062
:1054C600892B19F48881998116C08A819B8113C022
:1054D6002D813E814F8180E80E94232E882319F07A
:1054E6008881998108C08A819B8105C088819981BC
:0C54F60002C08A819B81DF91CF91089554
:10550200EF92FF920F931F93CF93DF938C01D62FCD
:10551200C0E008C07801EC0EF11C0E945437F7017C
:105522008083CF5F2C2F30E08D2F90E001972817DA
:10553200390784F38D2F90E00197E801C80FD91F36
:105542000E945E3788830E94CD3780E0DF91CF9141
:0A5552001F910F91FF90EF90089554
:10555C0087E69EE00E947A3386E59EE00E949233B5
:10556C0081E29EE00E94AA336BE486ED9DE00E94EE
:10557C00D53783EB9EE00E9426368FEA9EE00E9490
:10558C0017368BEA9EE00E9408360E949138809371
:10559C00EF0E0E949D389093DA0E8093D90E0E94E4
:0A55AC00A9388093EE0E81E0089507
:1055B600CF92DF92EF926C0120E8E22E2FE539E0E0
:1055C60040E08E2DB6010E945530892BA1F02AE6C7
:1055D60039E040E08E2DB6010E945530892B69F0E6
:1055E60021E739E040E08E2DB6010E945530892B27
:1055F60031F483E005C082E003C082E001C081E0AF
:08560600EF90DF90CF900895B2
:10560E00EF92FF920F931F93CF93DF937C0110E0E5
:10561E0000E00DC0CE0DDF1D88818E3221F4011108
:10562E0011C001E003C080538A3070F41F5FC12F98
:10563E00D0E0B70180E80E947E34C817D90750F336
:10564E0081E003C080E001C080E0DF91CF911F9127
:08565E000F91FF90EF900895F9
:105666000F931F93CF93DF9300D0CDB7DEB78C0196
:105676008FEF9FEFF8019183808342E0BE016F5F59
:105686007F4F8DE40E94E53281110DC0898190E043
:10569600982F88272A81822B0E94C122F8019183A4
:1056A600808380E001C081E00F900F90DF91CF9161
:0656B6001F910F91089501
:1056BC00CF93DF93EC01BC0180E80E947E34BC01E7
:1056CC00FC013197EC0FFD1F80818032B1F020E09E
:1056DC0030E040E00DC0FE01E20FF31F90819032EC
:1056EC0021F441110CC041E001C040E02F5F3F4F5D
:1056FC002617370780F381E003C080E001C080E00B
:06570C00DF91CF9108952A
:10571200CF93DC016091DE0E653000F590E015C09C
:10572200292F30E0F901EE0FFF1FE858F14F4081B9
:105732005181452B49F4220F331FF901E858F14FEB
:10574200B183A083C92F04C09F5F953048F3CFEF88
:105752006F5F6093DE0E0E94313901C0CFEF8C2F54
:04576200CF91089546
:10576600CF93DF93CDB7DEB764970FB6F894DEBF5D
:105776000FBECDBF21E0AE014F5F5F4F0E945723A2
:10578600882379F0BE016F5F7F4F80E827EE38E00F
:1057960040E00E945530892B19F40E94861301C0FF
:1057A60080E064960FB6F894DEBF0FBECDBFDF91E2
:0457B600CF910895F2
:1057BA006F927F928F92CF92DF92EF923B01882E67
:1057CA000E947E34BC0120E030E080E010C0E82C6A
:1057DA006301C20ED31EE11C37FDEA94F6019491CF
:1057EA00E7FC9081903209F48F5F2F5F3F4F2617B5
:1057FA00370768F3EF90DF90CF908F907F906F908C
:02580A000895FF
:10580C00CF93DF9300D0CDB7DEB79DE09983813085
:10581C0031F018F0803231F013C01A8205C083E8E1
:10582C008A8302C082E88A83AE014F5F5F4F60E8D3
:10583C0022E081E50E949936882321F082E003C0A2
:10584C0081E001C080E00F900F90DF91CF9108951F
:10585C000F931F93CF938A0122E04BE35DE00E94EC
:10586C005723C82F8823B9F06BE37DE080E80E94B2
:10587C0055399C0125503109243E334058F40E947F
:10588C00973828E030E045E855E060E0C8010E9418
:10589C00493301C0C0E08C2FCF911F910F91089517
:1058AC001F920F920FB60F9211242F933F934F9389
:1058BC005F936F937F938F939F93AF93BF93EF936C
:1058CC00FF93E091BB0EF091BC0E0995FF91EF9107
:1058DC00BF91AF919F918F917F916F915F914F91FC
:0E58EC003F912F910F900FBE0F901F901895B7
:1058FA001F920F920FB60F9211242F933F934F933B
:10590A005F936F937F938F939F93AF93BF93EF931D
:10591A00FF93E091BD0EF091BE0E0995FF91EF91B4
:10592A00BF91AF919F918F917F916F915F914F91AD
:0E593A003F912F910F900FBE0F901F90189568
:10594800DC018091C10E9091C20E892BD1F790E0B5
:105958000BC0292F30E0FD01E20FF31F4081F90150
:10596800EA56FE4F40839F5F961798F3862F90E084
:105978009093C20E8093C10E81E090E09093C00E88
:0E5988008093BF0E809196018093C600089513
:105996000F931F93CF93DF93EC012F931F930F93D6
:1059A6006F935F934F9385E099E0A0E0AF939F9349
:1059B6008F93DF93CF930E948A2FBE0180E80E94C7
:1059C6007E342DB73EB7255F3F4F0FB6F8943EBFE6
:0E59D6000FBE2DBFDF91CF911F910F9108954D
:1059E400CF92DF92EF92FF920F931F93CF93DF93A7
:1059F4008C01BC0180E80E945539EC01C8010E9469
