:100000000C94C4000C94CD0D0C94CD0D0C94A30D48
:100010000C94CD0D0C94CD0D0C94CD0D0C94CD0DF8
:100020000C94CD0D0C949E090C94CD0D0C94CD0D1B
:100030000C94CD0D0C94F70B0C94CD0D0C94CD0DB0
:100040000C94D00B0C94CD0D0C94CD0D0C94CD0DC7
:100050000C94530A0C94CD0D0C94FF0A0C94CD0D06
:100060000C94CD0D0C94CD0D0C94CD0D0C94CD0DA8
:100070000C948D0A0C94CD0D0C94360B01000912D2
:10008000800912091C001B9E091C092D80000040DC
:100090007A10F35A00A0724E18090010A5D4E80097
:1000A00000E87648170000E40B54020000CA9A3BAF
:1000B000000000E1F5050000809698000000404235
:1000C0000F000000A08601000000102700000000C3
:1000D000E803000000006400000000000A000000C7
:1000E00000000100000000002C76D888DC674F0873
:1000F00023DFC1DFAE59E1B1B796E5E3E453C63A79
:10010000E651997696E8E6C28426EB898C9B62EDEF
:10011000407C6FFCEFBC9C9F40F2BAA56FA5F490A9
:10012000055A2AF75C936B6CF9676DC11BFCE0E420
:100130000D47FEF520E6B500D0ED902E0300943576
:1001400077050080841E080000204E0A000000C8C9
:100150000C333333330F986E12831141EF8D21141A
:10016000893BE65516CFFEE6DB18D1844B381BF7EA
:100170007C1D901DA4BBE424203284725E22810089
:10018000C9F124ECA1E53D2711241FBECFEFD0E13A
:10019000DEBFCDBFECE7F0E040E017C0B591A59120
:1001A00035912591059107FD0CC095918591EF0141
:1001B000F92FE82F05900D92A217B307D9F7FE018A
:1001C00004C01D92A217B307E1F7ED38F40731F729
:0C01D0000E94B30D0C94EC00F894FFCFDB
:1001DC004552524F522C206E6F7420616C6C206211
:1001EC006F646965732069732073656E7400576F53
:0701FC00726B696E672000C1
:08020300696E66006E616E0079
:05020B0025303258000F
:10021000A4E1B0E0EEE0F1E00C945F0C6C011A0197
:10022000462E5901FC0110861782848181FF62C32A
:10023000CE0101969D878C87A0E88A8B9B8BAC8B27
:10024000F101849147FC8081882309F44FC3442D38
:1002500091012F5F3F4F4F4F853219F01901442E06
:100260000AC0F901849147FD808192E0290E311C7A
:10027000411C853249F4B60190E00E94DC09BF863A
:10028000AE86AE84BF84DCCF10E0F12C00E00032FB
:10029000A0F48B3269F030F4803259F0833269F483
:1002A00000612CC08D3239F0803339F4016026C0F2
:1002B0000260046023C0086021C007FD29C090EDE2
:1002C000980F9A3078F406FF06C0AAE01A9F900DA6
:1002D0001124192F13C0EAE0FE9E900D1124F92E6F
:1002E00000620CC08E3221F406FD00C3006406C01B
:1002F0008C3611F4006802C0883651F4F101849103
:1003000047FC8081FFEF2F1A3F0A4F0A8111BFCFB0
:100310009BEB980F933018F40061805E06C09BE958
:10032000980F933008F066C10F7E06FF16E00F733A
:10033000702E853621F4202F2064722E08C0863658
:1003400021F4802F8068782E02C01111115077FEA1
:1003500007C01C3350F4EE24E394E10E27E00BC0F9
:10036000183038F027E017E005C027E06CE3E62EF0
:1003700002C0212FE12CF5013496FF87EE87F501AD
:1003800060817181828193810E2DAE014F5F5F4F3D
:100390000E94AA045C01598050FE02C053FE06C0B0
:1003A00071FC06C072FE06C000E205C00DE203C08B
:1003B0000BE201C000E0852D8C7019F0011173C2B1
:1003C000BEC277FE0FC0EA0C54FE04C08A8181339E
:1003D00009F4EA941E1474F528E02E1578F538E037
:1003E000E32E2CC076FC2AC0812F90E08A159B0555
:1003F0009CF08CEFA8168FEFB80674F0972D9068DC
:10040000792E0AC0E2E0F0E0EC0FFD1FE10FF11DD4
:100410008081803319F411501111F4CF77FE0EC092
:10042000EE24E394E10E812F90E0A816B9062CF497
:100430001A1904C0EE24E39401C010E077FE06C050
:100440001A141B0434F4C501019605C085E090E040
:1004500002C081E090E001110196112331F0212FBB
:1004600030E02F5F3F4F820F931F2F2D30E0821718
:10047000930714F4F81A01C0F12C872D897049F400
:10048000FF2039F0B60180E290E00E94DC09FA9486
:10049000F7CF002329F0B601802F90E00E94DC09FD
:1004A00073FC09C0FF2039F0B60180E390E00E94A0
:1004B000DC09FA94F7CF77FE49C03501B7FE02C0D8
:1004C000612C712CC5018619970988248394912C7D
:1004D0008C0E9D1E880E991EF501EE19F109F98BFF
:1004E000E88B012F10E0119501951109FFEF6F16B0
:1004F0007F0629F4B6018EE290E00E94DC09A61482
:10050000B70444F088899989861597051CF4F4018D
:10051000818101C080E3F1E06F1A71082FEF821A28
:10052000920A601671062CF0B60190E00E94DC0978
:10053000DDCFA614B70439F49A81963318F49533B5
:1005400011F454FE81E3B60190E051C08A818133F9
:1005500019F0952D9F7E592EB60190E00E94DC097E
:10056000111105C074FC1CC085E690E01BC0B601EB
:100570008EE290E00E94DC0902E0010F82E011E0CF
:10058000180FE1E0F0E0EC0FFD1FE80FF11D808196
:10059000B60190E00E94DC09812F1013F0CFE2CF6A
:1005A00085E490E0B6010E94DC09B7FC05C0A11407
:1005B000B10439F454FE05C0B194A194B1088DE2A0
:1005C00001C08BE2B60190E00E94DC0980E3EAE022
:1005D000AE16B1042CF08F5FAAE0AA1AB108F7CFCB
:1005E000B60190E00E94DC09B601C501C0960E94E8
:1005F000DC0972C1833631F0833791F0833509F01D
:100600005DC024C0C50102969F878E87F501808159
:1006100089836A887B888C88AA24A394B12C14C00F
:10062000C50103969F878E87F50160807180828067
:1006300006FF03C0412F50E002C04FEF5FEF882D4F
:10064000B3010E94960C5C010F7715C0C50103969B
:100650009F878E87F50160807180828006FF03C0CE
:10066000412F50E002C04FEF5FEF882DB3010E9491
:10067000960C5C01006803FD1DC08F2D90E0A8164C
:10068000B906C0F4B60180E290E00E94DC09FA9459
:10069000F4CFF301849187FC8081FFEF6F1A7F0A0A
:1006A0008F0AB60190E00E94DC09F110FA9421E073
:1006B000A21AB108A114B10461F70EC1843611F079
:1006C000893679F5C50107FF09C004969F878E8793
:1006D000F50160817181828193810AC002969F87B2
:1006E0008E87F50160817181072E000C880B990BB4
:1006F0000F76E02E97FF0AC09095809570956195D2
:100700007F4F8F4F9F4FF02FF068EF2E2AE030E0A1
:10071000AE014F5F5F4F0E940B08A82E2C85A21AD6
:100720004BC0853729F40F7EE02E2AE030E025C04B
:10073000902F997FE92E8F36C1F018F4883579F023
:10074000D5C0803719F0883721F0D0C0A92FA0611B
:10075000EA2EE4FE0DC0EE2DE460EE2E09C004FF8B
:100760000AC0F92FF660EF2E06C028E030E005C081
:1007700020E130E002C020E132E0C501E7FE09C01F
:1007800004969F878E87F5016081718182819381B4
:1007900008C002969F878E87F5016081718180E095
:1007A00090E0AE014F5F5F4F0E940B08A82EFC85C2
:1007B000AF1A2E2D2F77E22EE6FE0BC00E2D0E7FE8
:1007C000A11650F4E4FE0AC0E2FC08C00E2D0E7E15
:1007D00005C0BA2C0E2D03C0BA2C01C0B12E04FFE7
:1007E0000DC0FE01EA0DF11D8081803311F4097EF8
:1007F00009C002FF06C0B394B39404C0802F86786A
:1008000009F0B39403FD11C000FF06C0BF1488F4C3
:10081000FA0C1F2D1B190EC0BF1460F4B60180E244
:1008200090E00E94DC09B394F7CFBF1418F4FB18D2
:1008300002C01A2DF12C04FF10C0B60180E390E035
:100840000E94DC0902FF17C001FD03C088E790E0A9
:1008500002C088E590E0B6010CC0802F867859F080
:1008600001FF02C08BE201C080E207FD8DE2B6010C
:1008700090E00E94DC09A11638F4B60180E390E014
:100880000E94DC091150F7CFAA94E1E0F0E0EC0FF0
:10089000FD1FEA0DF11D8081B60190E00E94DC0988
:1008A000A110F2CF19C0F4E0FF1580F584E0F81A2A
:1008B00073FE23C001112BC053FE2FC057E0852EBD
:1008C00052E0952E50E0A52E072D0071F401849181
:1008D000A7FC8081811128C0FF2009F4D2CCB60189
:1008E00080E290E00E94DC09FA94F6CFF60187815D
:1008F00090852CC08FEF9FEF29C0B60180E290E079
:100900000E94DC09FA94F110F8CFD4CFF12CB60193
:10091000802F90E00E94DC09CFCF43E0842E42E09C
:10092000942E40E0A42ED0CF01118052B60190E069
:100930000E94DC09FFEF8F1A9F0AAF0AC7CF23E09E
:100940002F1510F483E0B3CFF12CB6CF6496E2E11B
:040950000C947B0C7C
:10095400283008F027E03327DA01990F311D87FD8D
:10096400916000966105710539F432602E5F3D9304
:1009740030E32A95E1F708959F3F30F08038710500
:10098400610509F03C5F3C5F3D93913008F080685D
:10099400911DDF93CF931F930F93FF92EF92192F23
:1009A400987F9695E92F96959695E90FFF27E8513C
:1009B400FF4F99273327EE24FF24A701E701059071
:1009C4000894079428F4360FE71EF81E491F511D9A
:1009D400660F771F881F991F0694A1F70590079447
:1009E40028F4E70EF81E491F561FC11D770F881FF4
:1009F400991F661F0694A1F70590079428F4F80E32
:100A0400491F561FC71FD11D880F991F661F771FC7
:100A14000694A1F70590079420F4490F561FC71FA9
:100A2400D81F990F661F771F881F0694A9F7849112
:100A34001095177041F0D695C79557954795F7943B
:100A4400E7941A95C1F7EEE8F0E0689415901591D3
:100A540035916591959105907FE27395E118F10ABE
:100A6400430B560BC90BD009C0F7E10CF11E431F11
:100A7400561FC91FD01D7EF4703311F48A95E6CF3A
:100A8400E894015030F0080F0AF40027021708F424
:100A9400202F2395022F7A3328F079E37D932A952A
:100AA400E9F710C07D932A9589F606949795679582
:100AB400379517951794E118F10A430B560BC90B98
:100AC400D00998F023957E9173957A3308F070E3FA
:100AD4007C932013B8F77E9170617D9330F08395F9
:100AE40071E37D9370E32A95E1F71124EF90FF9071
:100AF4000F911F91CF91DF91992787FD90950895CC
:100B0400CF92DF92EF92FF920F931F93CF93DF93D5
:100B1400CDB7DEB7C15BD1090FB6F894DEBF0FBE07
:100B2400CDBF8AE0E2E1F9E0DE01119601900D9279
:100B34008A95E1F78AEA8B878BEB8C878CEC8D871F
:100B44008DED8E8740E062E0CE0101960E94970D04
:100B54004EE150E06AEA7AEACE010F960E94780DDF
:100B6400AE01415F5F4FBE01655F7F4F81E00E9430
:100B7400C70A4AE050E06BEB7BEBCE010F960E9474
:100B8400780DAE01415F5F4FBE01655F7F4F82E02C
:100B94000E94C70ABE016F547F4FCE01835B9F4FF3
:100BA4000E94460DCF54DF4F4881C15BD040BE0147
:100BB400635B7F4F81E596E00E94A10B81E596E09F
:100BC4006C0120E8E22EF82E0D2D122F8E2DB60189
:100BD4000E94C1082CC0AE014F545F4FBE01635B3D
:100BE4007F4F2D968EAD9FAD2D970E940C09CF544B
:100BF400DF4F4881C15BD040BE01635B7F4F81E51D
:100C040096E00E94A10B6F2D702F812F0E94C108C6
:100C14002D968EAD9FAD2D970E94AD0D8FEF99E669
:100C240028E1815090402040E1F700C00000CE014F
:100C3400855B9F4F0E94350D8111CDCF0E94B80D69
:100C4400811106C06CED71E080E00E94C10818C0FB
:100C5400BE016F547F4FCE01835B9F4F0E94570D9F
:100C6400CF54DF4F4881C15BD040BE01635B7F4FEF
:100C740081E596E00E94A10B8E2DB6010E94C10869
:100C8400CF54DF4F0FB6F894DEBF0FBECDBFDF9158
:100C9400CF911F910F91FF90EF90DF90CF90089527
:100CA4009F92AF92BF92CF92DF92EF92FF920F93F7
:100CB4001F93CF93DF937C01C22EFC0160832283B8
:100CC400D12C00E010E065C0AD2CB12CF501EE0F85
:100CD400FF1FEE0FFF1FEA0DFB1DE40FF51F8281BE
:100CE40093810F2EFBE09F2EF02D9A9CE0019B9C9C
:100CF400D00D1124CE0DDF1D9A87898784818887C2
:100D040080818F831C830B83808191812481289F20
:100D1400F001299FF00D11243696FE83ED8398018E
:100D2400A1EDB1E50E94880D281B390B3695279556
:100D3400820F931F0024880F991F001C880F991F8E
:100D4400001C892F902D2FEFA21AB20A9A9CD00171
:100D54009B9CB00D1124AE0DBF1D8C930E0F1F1F55
:100D6400F80131979F01A1EDB1E50E94880DE81BC0
:100D7400F90BF695E7958E0F9F1F0024880F991F96
:100D8400001C880F991F001C892F902D8C871D86AD
:100D9400D394DC1408F498CF015011099801A1ED03
:100DA400B1E50E94880D081B190B16950795800F55
:100DB400911F0024880F991F001C880F991F001C85
:100DC400892F902D92E0980FF70191838F5FEB505C
:100DD400FF4F808390E007C0F701E90FF11DEA504F
:100DE400FF4F10829F5F9817B8F3DF91CF911F9147
:100DF4000F91FF90EF90DF90CF90BF90AF909F90B6
:020E040008954F
:100E0600CF93DF93FC01262F30E0C90101974BE019
:100E1600429FD001439FB00D1124AE0FBF1F5C91BE
:100E260040E01CC082179307C1F07BE0729FD0019F
:100E3600739FB00D1124AE0FBF1F1C967C915713E4
:100E46000CC07BE0729FD001739FB00D1124AE0FD2
:100E5600BF1F1D962C91233041F44F5F242F30E0A5
:100E660028173907FCF221E001C020E0222339F0DF
:100E7600DF01A50FB11DAA50BF4F21E02C932BE037
:100E8600289FD001299FB00D1124AE0FBF1F1C96BD
:100E96007C911FC0262F30E082179307C9F0E90125
:100EA60021964BE04C9FD0014D9FB00D1124AE0F03
:100EB600BF1F4C9174130CC04BE0429FD001439F5F
:100EC600B00D1124AE0FBF1F1D962C91233031F4A7
:100ED6006F5F22816217F0F281E001C080E0882313
:100EE60041F0DF01A70FB11DAA50BF4F81E08C93DF
:100EF60006C0DF01A70FB11DAA50BF4F1C92872F56
:100F060090E0851B910902976CF081E0850F08C07F
:100F1600DF01A80FB11DAA50BF4F91E09C938F5FD0
:0A0F26008717B0F3DF91CF91089513
:100F30008F929F92AF92BF92CF92DF92EF92FF92E9
:100F40000F931F93CF93DF93EC016B015A0149017B
:100F50000E94C90C8F3F2FEF920709F44CC08C15EB
:100F60009D0509F04AC080E009C0FE01E80FF11DAF
:100F7000EA50FF4F9081913041F08F5FFE01EB50BE
:100F8000FF4F9081891788F380E091E0980FF50179
:100F900090839981F401908390E041E6489F90010D
:100FA000499F300D1124F80131832083FE01EB505D
:100FB000FF4F208130E021503109821793072CF434
:100FC00081E6F701808381E019C08A8190E0019772
:100FD0003BE0389FA001399F500D1124C40FD51F4D
:100FE0009B818D81890FF1E62F9F80191124F701D4
:100FF000808381E003C080E001C080E0DF91CF9179
:101000001F910F91FF90EF90DF90CF90BF90AF9026
:061010009F908F900895EF
:10101600FA01AA27283051F1203181F1E8946F9323
:101026006E7F6E5F7F4F8F4F9F4FAF4FB1E03ED0C9
:10103600B4E03CD0670F781F891F9A1FA11D680F67
:10104600791F8A1F911DA11D6A0F711D811D911D9A
:10105600A11D20D009F468943F912AE0269F11240F
:101066003019305D3193DEF6CF010895462F477073
:10107600405D4193B3E00FD0C9F7F6CF462F4F70CE
:10108600405D4A3318F0495D31FD4052419302D02C
:10109600A9F7EACFB4E0A6959795879577956795D2
:1010A600BA95C9F700976105710508959B01AC01D2
:1010B6000A2E06945795479537952795BA95C9F7F9
:0C10C600620F731F841F951FA01D08956A
:1010D2000F931F93CF93DF93EC018B018A810E94C0
:1010E200C20D60E046C0262F220F220F290F30E0EA
:1010F200F90131964A8150E04E175F078CF1592F62
:10110200550F4BE0429FF001439FF00D1124EC0F6D
:10111200FD1F2085223069F02430A1F02130D1F466
:1011220021E030E002C0220F331F5A95E2F7722B02
:1011320011C022E030E002C0220F331F5A95E2F7BD
:10114200722B08C023E030E002C0220F331F5A95F1
:10115200E2F7722B9F5F02C090E070E0943018F2C9
:10116200E82FF0E0E61BF1093197E00FF11F7083E1
:101172006F5F681788F3DF91CF911F910F910895E8
:101182006F927F928F92CF92DF92EF923B01882EE5
:101192008091260990912709892BD1F7882DB301D7
:1011A2000E94F70CBC0120E030E011C0E82C630182
:1011B200C20ED31EE11C37FDEA94F6019491E7FCBE
:1011C2009081F901EF56F84F90832F5F3F4F26171A
:1011D200370760F3FB01EF56F84F8DE08083FB0188
:1011E200EE56F84F8AE080836E5F7F4F7093270937
:1011F2006093260981E090E0909325098093240969
:10120200809191078093CE00EF90DF90CF908F90E6
:061212007F906F9008952B
:10121800AF92BF92CF92DF92EF92FF920F931F93FC
:10122800CF93DF9300D000D01F92CDB7DEB76B010C
:101238005A019E012B5F3F4F79018E010D5F1F4FB1
:1012480023503109AE014F5F5F4FBC0180E992E046
:101258000E9498078823B1F04D8183E0840FF5013F
:10126800808380919002F6018083898181838A81BD
:10127800828350E06B817C81C60103960E94B10C89
:1012880081E001C080E00F900F900F900F900F90B9
:10129800DF91CF911F910F91FF90EF90DF90CF904A
:0612A800BF90AF90089515
:1012AE00CF92DF92FF920F931F93CF93DF9389011B
:1012BE00FA010BC0DF01A41BB50BA80FB91F3C919F
:1012CE00DF01AB56BC4F3C9331966A0126E0C20E4D
:1012DE00D11CEC15FD0570F3980126503109369599
:1012EE002795495F5F4FA0E0B0E016C0CD01880F93
:1012FE00991FF601E80FF91F8B01080F191FE8015E
:10130E00F980EB56FC4FF082840F951F1881FC017B
:10131E00EB56FC4F10831196A217B30738F3DF91EB
:0E132E00CF911F910F91FF90DF90CF90089507
:10133C001F920F920FB60F9211242F933F934F933E
:10134C005F936F937F938F939F93AF93BF93CF9341
:10135C00EF93FF93809128098F5F80932809803247
:10136C0099F410922809C0E00DC0EC2FF0E0EE0FBC
:10137C00FF1FE85FF64F0190F081E02D309709F0E8
:10138C000995CF5FC53088F3FF91EF91CF91BF9155
:10139C00AF919F918F917F916F915F914F913F9101
:0C13AC002F910F900FBE0F901F9018950E
:1013B8000F931F93CF93DF93FB01248121FD03C07B
:1013C8008FEF9FEF2CC022FF16C0478150852581E3
:1013D80036814217530744F4A081B1819D012F5FE4
:1013E8003F4F318320838C93278130852F5F3F4F78
:1013F8003087278314C08B01EC01FB010184F2853F
:10140800E02D0995892BE1F6D80117968D919C91CD
:101418001897019618969C938E931797CE01DF9193
:08142800CF911F910F9108956F
:10143000EF92FF920F931F93CF93DF938C01E901FB
:10144000E62EF12C81E0E81AF1088BE08E9DF00188
:101450008F9DF00D1124E00FF11F83E0858790E050
:101460000AC0E92FF0E0DE01AE0FBF1FE40FF51F49
:1014700030813C939F5F9430A0F38BE08E9DF00110
:101480008F9DF00D1124E00FF11F82858C838185E3
:101490008D83C8010E940307DF91CF911F910F91A7
:0614A000FF90EF9008959B
:1014A6001F920F920FB60F9211242F938F939F9333
:1014B600EF93FF938091290981110EC0E0912A09CB
:1014C600E63950F481E08E0F80932A09F0E080918E
:1014D600C600E050FF4F808380912A09833080F058
:1014E60090E0FC01E150FF4F20812A3049F4FC01D5
:1014F600E250FF4F80818D3019F481E080932909F5
:10150600FF91EF919F918F912F910F900FBE0F90AA
:041516001F90189575
:10151A001F920F920FB60F9211242F938F939F93BE
:10152A00EF93FF9380912B0981110EC0E0912C0952
:10153A00EB3450F481E08E0F80932C09F0E0809117
:10154A00CE00E354F74F808380912C09833080F0DA
:10155A0090E0FC01E454F74F20812A3049F4FC0161
:10156A00E554F74F80818D3019F481E080932B097F
:10157A00FF91EF919F918F912F910F900FBE0F9036
:04158A001F90189501
:10158E00EF92FF921F93CF93DF93CDB7DEB72A97DB
:10159E000FB6F894DEBF0FBECDBF182F7A019E0195
:1015AE002F5F3F4FAB01682F80E992E00E94180A2F
:1015BE009E01275F3F4FAE01495F5F4F612F80E96C
:1015CE0092E00E94E10C29853A854F815885B7013A
:1015DE00CE0101960E9457092A960FB6F894DEBFE7
:1015EE000FBECDBFDF91CF911F91FF90EF90089569
:1015FE001F920F920FB60F9211242F933F938F933A
:10160E009F93EF93FF938091200990912109209150
:10161E002209309123098217930770F49C012F5FE2
:10162E003F4F3093210920932009FC01EA56FE4FCB
:10163E0080818093C60008C0109221091092200963
:10164E001092230910922209FF91EF919F918F9191
:0E165E003F912F910F900FBE0F901F90189587
:10166C001F920F920FB60F9211242F933F938F93CB
:10167C009F93EF93FF9380912409909125092091DA
:10168C002609309127098217930770F49C012F5F6C
:10169C003F4F3093250920932409FC01EF56F84F56
:1016AC0080818093CE0008C01092250910922409E5
:1016BC001092270910922609FF91EF919F918F911B
:0E16CC003F912F910F900FBE0F901F90189519
:1016DA000F931F93CF93DF93EC018B01FB014083A0
:1016EA008981818312828A8183836C5F7F4FCE01D5
:1016FA000E9469088A810E94C20D8C5F90E013C023
:10170A00292F30E0F901E80FF11DE00FF11F4BE03E
:10171A00429FD001439FB00D1124AC0FBD1F1796F5
:10172A002C9120839F5F2A81921750F3820FDF91B9
:08173A00CF911F910F9108955A
:10174200EF92FF920F931F93CF93DF938C017B0154
:10175200D42FC0E01BC0F701EC0FF11D80811F9256
:101762008F938BE092E0A0E0AF939F938F931F93B0
:101772000F930E941E0C0E5F1F4FCF5F8DB79EB757
:1017820007960FB6F8949EBF0FBE8DBFCD1718F304
:0E179200DF91CF911F910F91FF90EF9008957E
:1017A0001F920F920FB60F9211242F933F934F93D6
:1017B0005F936F937F938F939F93AF93BF93EF93B9
:1017C000FF93E0911C09F0911D090995FF91EF919C
:1017D000BF91AF919F918F917F916F915F914F9149
:0E17E0003F912F910F900FBE0F901F90189504
:1017EE001F920F920FB60F9211242F933F934F9388
:1017FE005F936F937F938F939F93AF93BF93EF936B
:10180E00FF93E0911E09F0911F090995FF91EF9149
:10181E00BF91AF919F918F917F916F915F914F91FA
:0E182E003F912F910F900FBE0F901F901895B5
:10183C00AFE0B0E0E4E2FCE00C946D0C0E891F8983
:10184C0086E08D831A8309838FEF9FE79F838E83B6
:10185C009E01255E3F4F488D598D6A8DCE010196B4
:10186C000E940801E885F985E00FF11F10822F9680
:06187C00E4E00C94890C6D
:10188200E9ECF0E0808180618083808188608083E0
:10189200808180688083808180648083E8ECF0E0CE
:1018A20080818260808386E08093CA0080E190E03C
:0C18B2009093CD008093CC0078940895B2
:1018BE002F923F924F925F926F927F928F929F9252
:1018CE00AF92BF92CF92DF92EF92FF920F931F9340
:1018DE00CF93DF93CDB7DEB7CA1BDB0B0FB6F894F1
:0818EE00DEBF0FBECDBF09945F
:1018F6002A88398848885F846E847D848C849B849A
:10190600AA84B984C884DF80EE80FD800C811B81A7
:10191600AA81B981CE0FD11D0FB6F894DEBF0FBED6
:06192600CDBFED010895A4
:10192C00CF92DF92EF926B01E82EA82FCB014115DD
:10193C00510531F48C199D09EF90DF90CF900895EB
:10194C00FC012491A7FD20812223A1F30196A11D66
:06195C0041505109ECCFDF
:10196200CF93DF93EC0120E030E00CC0DE01A20F48
:10197200B31FF901E60FF71FEB56FC4F90819C93C2
:101982002F5F3F4F2417350788F3DF91CF910895DA
:10199200AC0190E00BC0292F30E0FA01E20FF31FF7
:1019A200EA50FF4F8081813049F09F5FFA01EB508E
:1019B200FF4F8081981778F32FEF3FEFC901089509
:1019C20070E061507109ABE0A69FF001A79FF00D96
:1019D2001124E80FF91F83819481DA018D939C937E
:0C19E20085819681F9019183808308952E
:1019EE00CF92DF92EF926B01E82EA82FCB01FC0174
:1019FE002491A7FD2081222319F00196A11DF7CF76
:0C1A0E008C199D09EF90DF90CF90089597
:101A1A009C0190E081E00AC0F901E90FF11DEA504A
:101A2A00FF4F4081423009F080E09F5FF901EB509F
:0A1A3A00FF4F4081941780F30895D8
:101A44000E94410C6AEF71E080E00E94C1080E948C
:101A540082052FEF83ED90E3215080409040E1F721
:061A640000C00000F4CFF9
:101A6A00CF93DF93EC0180E992E00E94C90C88834E
:101A7A009983892F8095881F8827881FDF91CF91A6
:021A8A000895BD
:101A8C00CF93DF93EB0120919002FC012193BF01D6
:101A9C0080E992E00E94C60D8F5F8883DF91CF9121
:021AAC0008959B
:101AAE00CF93DF93EB0120919002FC012193BF01B4
:101ABE0080E992E00E94BD0D8F5F8883DF91CF9108
:021ACE00089579
:101AD000FC01EB50FF4F208130E0621773073CF4AC
:101AE000680F791FFB01EA50FF4F82E08083089561
:101AF00020E030E009C0F901EE0FFF1FE80FF91FE9
:101B0000718360832F5F3F4F24173507A0F308953B
:101B1000A29FB001B39FC001A39F700D811D11242E
:0E1B2000911DB29F700D811D1124911D08951D
:101B2E00CF93262FC42FAC016C2F80E992E00E9438
:081B3E0052068C2FCF9108958F
:101B46001F920F920FB60F9211240F900FBE0F9097
:041B56001F9018952F
:0C1B5A00BC0180E992E00E94680D089533
:0A1B66000E94CA0D80E090E008958F
:0A1B700080E992E00E940D0D089537
:0A1B7A00FC0141810E946D0B0895EB
:081B8400869586958F5F089598
:081B8C0040E00E946D0B08957A
:061B94000E94220D0895DD
:041B9A000C940000A7
:0A1B9E001E001E00020A007800027B
:00000001FF
