:100000000C94D0000C94C8200C94C8200C946E1F43
:100010000C94C8200C94C8200C94C8200C94C820C0
:100020000C94C8200C9415140C94C8200C94C8206F
:100030000C94C8200C9448180C94C8200C94C82028
:100040000C9421180C94C8200C94C8200C94C8203F
:100050000C9480150C94C8200C947A190C94C82028
:100060000C94C8200C94C8200C94C8200C94C82070
:100070000C94BA150C94C8200C949F19C40BD90B7E
:10008000350CE20B3E0C270C2E0CF20BFE0B0A0C6F
:10009000140C200C0100071A80071A07260041944F
:1000A00007260739800000407A10F35A00A0724EEC
:1000B00018090010A5D4E80000E87648170000E40D
:1000C0000B54020000CA9A3B000000E1F505000055
:1000D00080969800000040420F000000A0860100BA
:1000E0000000102700000000E8030000000064008A
:1000F000000000000A0000000000010000000000F5
:100100002C76D888DC674F0823DFC1DFAE59E1B118
:10011000B796E5E3E453C63AE651997696E8E6C227
:100120008426EB898C9B62ED407C6FFCEFBC9C9F2E
:1001300040F2BAA56FA5F490055A2AF75C936B6C50
:10014000F9676DC11BFCE0E40D47FEF520E6B50044
:10015000D0ED902E0300943577050080841E0800B2
:1001600000204E0A000000C80C333333330F986E62
:1001700012831141EF8D2114893BE65516CFFEE61F
:10018000DB18D1844B381BF77C1D901DA4BBE424E5
:10019000203284725E228100C9F124ECA1E53D2762
:1001A00011241FBECFEFD0E1DEBFCDBFE4E9F0E008
:1001B00040E017C0B591A59135912591059107FDB6
:1001C0000CC095918591EF01F92FE82F05900D92C4
:1001D000A217B307D9F7FE0104C01D92A217B307F7
:1001E000E1F7E53AF40731F70E94C71E0C94F800D6
:0401F000F894FFCFB1
:1001F40049443D25752C206E3D25752C2073693DA1
:100204002575200D0A004661696C656420746F20B1
:10021400726561642074696D6500253032752D2521
:100224003032752D2530327554253032753A2530EB
:1002340032753A25303275006661696C6564007305
:100244007563636573730030303030303030303074
:1002540030303030303030003030303030303030CA
:10026400303030303030303030303030303030308A
:10027400303030303030303000416C6C2073657475
:1002840074696E6773207265736574004D75737459
:1002940020626520696E20666F726D61743A207900
:1002A400792D6D6D2D64645468683A6D6D3A73737D
:1002B400004661696C656420746F207365742074F2
:1002C400696D650064657665756900617070657552
:1002D40069006170706B65790070706D7800252E0F
:1002E40032660072726C78007663637800636F6CB8
:1002F4007300686561745F75705F7400686561742C
:100304002075702074696D653D2575206D006169E7
:10031400725F70756D705F74006169722070756DC5
:10032400702074696D653D257520730073705F6975
:100334006E74657276616C0073616D706C696E6762
:100344002070726F6365737320696E746572766171
:100354006C3D257520680074696D65004E6F7420CE
:10036400612076616C6964206F7065726174696F75
:080374006E00726573657400F0
:10037C002A2A2A2A2A2A2A2A204D657468616E653F
:10038C002053656E736F722076312E30202A2A2A04
:10039C002A2A2A2A2A0053657474696E67206D6FA5
:1003AC0064756C65732075702E2E2E20506C6561F3
:1003BC0073652077616974004661696C65642074AB
:1003CC006F20696E697469616C697A6520737973E1
:1003DC0074656D2E2E2E004E6F742076616C6964E0
:1003EC000057726F6E6720666F726D6174002A2AF7
:1003FC002A2A2A2A2A20526561647920666F722083
:10040C006E657720636F6D6D616E64202A2A2A2ACF
:04041C002A2A2A005E
:100420006F6E00506F776572206D657468616E65E0
:100430002073656E736F72206F6E006F666600507A
:100440006F776572206D657468616E652073656E87
:10045000736F72206F666600726561640045727228
:100460006F72207768656E2072656164696E6720BF
:10047000646174610050504D3D2575004E6F7420CD
:10048000612076616C6964206F7065726174696F58
:0B0490006E006D65746800636F320041
:10049B0025303278000D0A0073797320736C656513
:1004AB007000257320256C64002573202573006D67
:1004BB0061632073657420646576657569006D6191
:1004CB00632073657420617070657569006D61637D
:1004DB0020736574206170706B6579006F666600C0
:1004EB006D61632073657420616472006F6E006DC3
:1004FB00616320747820636E660025732025752058
:03050B0025730055
:10050E0065786974002A2A2A2A2A2A2A20596F75A0
:10051E0020617265206469726563746C7920636F03
:10052E006E6E656374656420746F20524E3234387B
:10053E0033202A2A2A2A2A2A2A2A002D2D3E2573DA
:10054E0000436C6F73696E6720636F6E6E656374C4
:10055E00696F6E20746F20524E323438332E2E2E29
:06056E00006C6F726100D9
:1005740052554E20004641494C200020257520004C
:08058400696E66006E616E00F5
:07058C00524E3234383300F7
:0505930046000002E338
:050598000010000081CD
:02059D00030059
:01059F000259
:1005A000A4E1B0E0E6EDF2E00C94E91B6C011A0165
:1005B000462E5901FC0110861782848181FF62C397
:1005C000CE0101969D878C87A0E88A8B9B8BAC8B94
:1005D000F101849147FC8081882309F44FC3442DA5
:1005E00091012F5F3F4F4F4F853219F01901442E73
:1005F0000AC0F901849147FD808192E0290E311CE7
:10060000411C853249F4B60190E00E944415BF8632
:10061000AE86AE84BF84DCCF10E0F12C00E0003267
:10062000A0F48B3269F030F4803259F0833269F4EF
:1006300000612CC08D3239F0803339F4016026C05E
:100640000260046023C0086021C007FD29C090ED4E
:10065000980F9A3078F406FF06C0AAE01A9F900D12
:100660001124192F13C0EAE0FE9E900D1124F92EDB
:1006700000620CC08E3221F406FD00C3006406C087
:100680008C3611F4006802C0883651F4F10184916F
:1006900047FC8081FFEF2F1A3F0A4F0A8111BFCF1D
:1006A0009BEB980F933018F40061805E06C09BE9C5
:1006B000980F933008F066C10F7E06FF16E00F73A7
:1006C000702E853621F4202F2064722E08C08636C5
:1006D00021F4802F8068782E02C01111115077FE0E
:1006E00007C01C3350F4EE24E394E10E27E00BC066
:1006F000183038F027E017E005C027E06CE3E62E5D
:1007000002C0212FE12CF5013496FF87EE87F50119
:1007100060817181828193810E2DAE014F5F5F4FA9
:100720000E94310A5C01598050FE02C053FE06C08F
:1007300071FC06C072FE06C000E205C00DE203C0F7
:100740000BE201C000E0852D8C7019F0011173C21D
:10075000BEC277FE0FC0EA0C54FE04C08A8181330A
:1007600009F4EA941E1474F528E02E1578F538E0A3
:10077000E32E2CC076FC2AC0812F90E08A159B05C1
:100780009CF08CEFA8168FEFB80674F0972D906848
:10079000792E0AC0E2E0F0E0EC0FFD1FE10FF11D41
:1007A0008081803319F411501111F4CF77FE0EC0FF
:1007B000EE24E394E10E812F90E0A816B9062CF404
:1007C0001A1904C0EE24E39401C010E077FE06C0BD
:1007D0001A141B0434F4C501019605C085E090E0AD
:1007E00002C081E090E001110196112331F0212F28
:1007F00030E02F5F3F4F820F931F2F2D30E0821785
:10080000930714F4F81A01C0F12C872D897049F46C
:10081000FF2039F0B60180E290E00E944415FA947E
:10082000F7CF002329F0B601802F90E00E944415F5
:1008300073FC09C0FF2039F0B60180E390E00E940C
:100840004415FA94F7CF77FE49C03501B7FE02C0D0
:10085000612C712CC5018619970988248394912CE9
:100860008C0E9D1E880E991EF501EE19F109F98B6B
:10087000E88B012F10E0119501951109FFEF6F161C
:100880007F0629F4B6018EE290E00E944415A6147A
:10089000B70444F088899989861597051CF4F401FA
:1008A000818101C080E3F1E06F1A71082FEF821A95
:1008B000920A601671062CF0B60190E00E94441571
:1008C000DDCFA614B70439F49A81963318F4953322
:1008D00011F454FE81E3B60190E051C08A81813366
:1008E00019F0952D9F7E592EB60190E00E94441577
:1008F000111105C074FC1CC085E690E01BC0B60158
:100900008EE290E00E94441502E0010F82E011E0C7
:10091000180FE1E0F0E0EC0FFD1FE80FF11D808102
:10092000B60190E00E944415812F1013F0CFE2CF62
:1009300085E490E0B6010E944415B7FC05C0A114FF
:10094000B10439F454FE05C0B194A194B1088DE20C
:1009500001C08BE2B60190E00E94441580E3EAE01A
:10096000AE16B1042CF08F5FAAE0AA1AB108F7CF37
:10097000B60190E00E944415B601C501C0960E94E0
:10098000441572C1833631F0833791F0833509F015
:100990005DC024C0C50102969F878E87F5018081C6
:1009A00089836A887B888C88AA24A394B12C14C07C
:1009B000C50103969F878E87F501608071808280D4
:1009C00006FF03C0412F50E002C04FEF5FEF882DBC
:1009D000B3010E943B1C5C010F7715C0C501039653
:1009E0009F878E87F50160807180828006FF03C03B
:1009F000412F50E002C04FEF5FEF882DB3010E94FE
:100A00003B1C5C01006803FD1DC08F2D90E0A81603
:100A1000B906C0F4B60180E290E00E944415FA9451
:100A2000F4CFF301849187FC8081FFEF6F1A7F0A76
:100A30008F0AB60190E00E944415F110FA9421E06B
:100A4000A21AB108A114B10461F70EC1843611F0E5
:100A5000893679F5C50107FF09C004969F878E87FF
:100A6000F50160817181828193810AC002969F871E
:100A70008E87F50160817181072E000C880B990B20
:100A80000F76E02E97FF0AC090958095709561953E
:100A90007F4F8F4F9F4FF02FF068EF2E2AE030E00E
:100AA000AE014F5F5F4F0E944A11A82E2C85A21AFB
:100AB0004BC0853729F40F7EE02E2AE030E025C0B8
:100AC000902F997FE92E8F36C1F018F4883579F090
:100AD000D5C0803719F0883721F0D0C0A92FA06188
:100AE000EA2EE4FE0DC0EE2DE460EE2E09C004FFF8
:100AF0000AC0F92FF660EF2E06C028E030E005C0EE
:100B000020E130E002C020E132E0C501E7FE09C08B
:100B100004969F878E87F501608171818281938120
:100B200008C002969F878E87F5016081718180E001
:100B300090E0AE014F5F5F4F0E944A11A82EFC85E6
:100B4000AF1A2E2D2F77E22EE6FE0BC00E2D0E7F54
:100B5000A11650F4E4FE0AC0E2FC08C00E2D0E7E81
:100B600005C0BA2C0E2D03C0BA2C01C0B12E04FF53
:100B70000DC0FE01EA0DF11D8081803311F4097E64
:100B800009C002FF06C0B394B39404C0802F8678D6
:100B900009F0B39403FD11C000FF06C0BF1488F430
:100BA000FA0C1F2D1B190EC0BF1460F4B60180E2B1
:100BB00090E00E944415B394F7CFBF1418F4FB18CB
:100BC00002C01A2DF12C04FF10C0B60180E390E0A2
:100BD0000E94441502FF17C001FD03C088E790E0A2
:100BE00002C088E590E0B6010CC0802F867859F0ED
:100BF00001FF02C08BE201C080E207FD8DE2B60179
:100C000090E00E944415A11638F4B60180E390E00C
:100C10000E9444151150F7CFAA94E1E0F0E0EC0FE8
:100C2000FD1FEA0DF11D8081B60190E00E94441580
:100C3000A110F2CF19C0F4E0FF1580F584E0F81A96
:100C400073FE23C001112BC053FE2FC058E8852E20
:100C500055E0952E50E0A52E072D0071F4018491EA
:100C6000A7FC8081811128C0FF2009F4D2CCB601F5
:100C700080E290E00E944415FA94F6CFF601878155
:100C800090852CC08FEF9FEF29C0B60180E290E0E5
:100C90000E944415FA94F110F8CFD4CFF12CB6018C
:100CA000802F90E00E944415CFCF44E8842E45E089
:100CB000942E40E0A42ED0CF01118052B60190E0D6
:100CC0000E944415FFEF8F1A9F0AAF0AC7CF23E097
:100CD0002F1510F483E0B3CFF12CB6CF6496E2E188
:040CE0000C94201C34
:100CE4002F923F924F925F926F927F928F92AF9228
:100CF400BF92CF92DF92EF920F931F93CF93DF9324
:100D040000D000D000D0CDB7DEB73B01882E5A0109
:100D140019014115510521F0FA0160837183828321
:100D24002114310429F0C1010297839708F01AC1F4
:100D3400E82C6301FFEFCF1ADF0AEF0AF3011491E5
:100D440087FC1081812F90E00E949F1F4C2D3D2D28
:100D54002E2D892B19F036018E2CEACF1D3269F421
:100D6400E82C630152E0C50ED11CE11CE42FF32FE3
:100D7400149127FD108101E00EC01B3259F4E82CB8
:100D8400630182E0C80ED11CE11CE42FF32F1491FF
:100D940027FD108100E02114310409F190E12916A6
:100DA400310429F43FC010E32114310421F1F8E0A7
:100DB4002F16310401F154F432E02316310421F5E5
:100DC400412C512C612C50E4752E4BC04AE0241662
:100DD400310439F050E125163104B1F43DC010332B
:100DE40019F13AE0232E312C4CEC442E542C642C73
:100DF4004CE0742E36C098E0292E312C412C512C15
:100E0400612C20E1722E2DC060E070E080E090E85B
:100E14009101032C000C440B550B0E94BA1A2901B2
:100E24003A011FC01033C1F4F6018491E7FC8081BC
:100E34008F7D883509F0B7CFAE2DC6010196A11D6F
:100E4400FC011491A7FD1081E2E0CE0ED11CE11C3F
:100E5400026060E1262E312C412C512C612C88E05B
:100E6400782EA0E060E070E0CB019101032C000C2F
:100E7400440B550B29833A834B835C83E0EDE10FEC
:100E8400EA3060F02FEB210F2A3110F4E9EC05C0B1
:100E94002FE9210F2A3150F5E9EAE10F2E2F30E036
:100EA400221533051CF5A7FD18C04616570668061B
:100EB400790680F029813A814B815C810E946C1E05
:100EC4006E0F711D811D911D61307105810530E822
:100ED400930710F0AFEF01C0A1E0F6011491E7FC15
:100EE40010814FEFC41AD40AE40AC8CF202F21700E
:100EF400A114B104B1F0AA2349F051E0C51AD108F4
:100F0400E108F501C082D182E2820BC001FF1DC05D
:100F1400F2E0CF1AD108E108F501C082D182E28261
:100F240014C0A7FF12C0222329F060E070E080E023
:100F340090E804C06FEF7FEF8FEF9FE722E230E08D
:100F44003093E9042093E80409C0222381F09095AA
:100F54008095709561957F4F8F4F9F4F462F372F08
:100F6400282F12C040E030E020E090E00DC097FF51
:100F7400F5CF82E290E09093E9048093E8046FEF68
:100F84007FEF8FEF9FE7EACF642F732F822F269690
:100F94000FB6F894DEBF0FBECDBFDF91CF911F9186
:100FA4000F91EF90DF90CF90BF90AF908F907F9094
:0C0FB4006F905F904F903F902F90089539
:100FC000CF92DF92EF92FF920F931F93CF93DF9315
:100FD000CDB7DEB768970FB6F894DEBF0FBECDBFB2
:100FE0006B01E82EF42E052F21E0AE014F5F5F4F1D
:100FF0000E943C13182F882309F423C18E2DB601BB
:101000000E94D017823009F41BC1CE0101966C01F9
:1010100020E8E22E28EC32E040E08E2DB6010E945E
:10102000FD1A892B29F48F2D902F0E94ED1C09C1E8
:101030002FEC32E040E08E2DB6010E94FD1A892B84
:1010400029F48F2D902F0E94051DFBC026ED32E064
:1010500040E08E2DB6010E94FD1A892B29F48F2DB8
:10106000902F0E941D1DEDC02DED32E040E08E2D31
:10107000B6010E94FD1A892BE1F4CE0145960E942B
:101080007C1E888D8F938F898F938E898F938D8906
:101090008F9382EE92E0A0E0AF939F938F930F9394
:1010A000FF920E94531A0FB6F894DEBF0FBECDBF59
:1010B000C8C027EE32E040E08E2DB6010E94FD1A36
:1010C000892BE1F4CE0145960E948B1E888D8F936B
:1010D0008F898F938E898F938D898F9382EE92E083
:1010E000A0E0AF939F938F930F93FF920E94531AA8
:1010F0000FB6F894DEBF0FBECDBFA3C02CEE32E01A
:1011000040E08E2DB6010E94FD1A892BE1F4CE013C
:1011100045960E949A1E888D8F938F898F938E8912
:101120008F938D898F9382EE92E0A0E0AF939F938F
:101130008F930F93FF920E94531A0FB6F894DEBF5D
:101140000FBECDBF7EC021EF32E040E08E2DB60154
:101150000E94FD1A892B29F48F2D902F0E94EC10EC
:1011600070C026EF32E040E08E2DB6010E94FD1ADD
:10117000892BA1F40E9458201F928F9380E093E066
:10118000A0E0AF939F938F930F93FF920E94531A07
:101190000FB6F894DEBF0FBECDBF53C022E133E0DF
:1011A00040E08E2DB6010E94FD1A892BA1F40E9409
:1011B00064209F938F938DE193E0A0E0AF939F9382
:1011C0008F930F93FF920E94531A0FB6F894DEBFCD
:1011D0000FBECDBF36C020E333E040E08E2DB60118
:1011E0000E94FD1A892BA1F40E9470201F928F93F8
:1011F0008CE393E0A0E0AF939F938F930F93FF92C4
:101200000E94531A0FB6F894DEBF0FBECDBF19C0AF
:101210002BE533E040E08E2DB6010E94FD1A892BAC
:1012200029F48F2D902F0E9487130BC026E130E008
:1012300040E653E060E08F2D902F0E94BC1C01C05F
:1012400010E0812F68960FB6F894DEBF0FBECDBFB9
:10125000DF91CF911F910F91FF90EF90DF90CF9092
:021260000895EF
:101262006F927F928F92AF92BF92CF92DF92EF9264
:101272001F93CF93DF93CDB7DEB764970FB6F89481
:10128200DEBF0FBECDBF3B01882E5A0121E0AE0169
:101292004F5F5F4F0E943C13182F882309F4CDC083
:1012A200CE0101966C0120E8E22E28EC32E040E00B
:1012B2008E2DB6010E94FD1A892B39F4A501882DC5
:1012C200B3010E949014182FB8C02FEC32E040E016
:1012D2008E2DB6010E94FD1A892B39F4A501882DA5
:1012E200B3010E94CC14182FA8C026ED32E040E0D2
:1012F2008E2DB6010E94FD1A892B39F4A501882D85
:10130200B3010E940815182F98C02DED32E040E07D
:101312008E2DB6010E94FD1A892B39F4A501882D64
:10132200B3010E94BC18182F88C027EE32E040E0BB
:101332008E2DB6010E94FD1A892B39F4A501882D44
:10134200B3010E94E218182F78C02CEE32E040E080
:101352008E2DB6010E94FD1A892B39F4A501882D24
:10136200B3010E940819182F68C021EF32E040E053
:101372008E2DB6010E94FD1A892B39F4A501882D04
:10138200B3010E94400C182F58C026EF32E040E013
:101392008E2DB6010E94FD1A892B39F4A501882DE4
:1013A200B3010E942E19182F48C022E133E040E019
:1013B2008E2DB6010E94FD1A892B39F4A501882DC4
:1013C200B3010E94F917182F38C020E333E040E040
:1013D2008E2DB6010E94FD1A892B39F4A501882DA4
:1013E200B3010E945419182F28C026E733E040E0C9
:1013F2008E2DB6010E94FD1A892B39F4A501882D84
:10140200B3010E94D70E182F18C02BE533E040E03D
:101412008E2DB6010E94FD1A892B39F4A501882D63
:10142200B3010E94E40D182F08C026E130E040E627
:1014320053E060E0C5010E94BC1C812F64960FB688
:10144200F894DEBF0FBECDBFDF91CF911F91EF9019
:10145200DF90CF90BF90AF908F907F906F90089564
:10146200283008F027E03327DA01990F311D87FD74
:10147200916000966105710539F432602E5F3D93EB
:1014820030E32A95E1F708959F3F30F080387105E7
:10149200610509F03C5F3C5F3D93913008F0806844
:1014A200911DDF93CF931F930F93FF92EF92192F0A
:1014B200987F9695E92F96959695E90FFF27E0502C
:1014C200FF4F99273327EE24FF24A701E701059058
:1014D2000894079428F4360FE71EF81E491F511D81
:1014E200660F771F881F991F0694A1F7059007942E
:1014F20028F4E70EF81E491F561FC11D770F881FDB
:10150200991F661F0694A1F70590079428F4F80E18
:10151200491F561FC71FD11D880F991F661F771FAE
:101522000694A1F70590079420F4490F561FC71F90
:10153200D81F990F661F771F881F0694A9F78491F9
:101542001095177041F0D695C79557954795F79422
:10155200E7941A95C1F7E6EAF0E0689415901591C0
:1015620035916591959105907FE27395E118F10AA5
:10157200430B560BC90BD009C0F7E10CF11E431FF8
:10158200561FC91FD01D7EF4703311F48A95E6CF21
:10159200E894015030F0080F0AF40027021708F40B
:1015A200202F2395022F7A3328F079E37D932A9511
:1015B200E9F710C07D932A9589F606949795679569
:1015C200379517951794E118F10A430B560BC90B7F
:1015D200D00998F023957E9173957A3308F070E3E1
:1015E2007C932013B8F77E9170617D9330F08395E0
:1015F20071E37D9370E32A95E1F71124EF90FF9058
:101602000F911F91CF91DF91992787FD90950895B2
:101612000F931F93CF93DF93CDB7DEB727970FB604
:10162200F894DEBF0FBECDBF8C0121E04FE955E03B
:1016320060E081E50E94781F81117CC047E0BE0115
:101642006F5F7F4F81E50E94D51C811175C0298192
:10165200822F8F7790E095958795959587959595AB
:10166200879595958795880F982F990F990F890FD0
:101672002F70820FF80180832A81822F8F7790E06A
:101682009595879595958795959587959595879540
:10169200880F982F990F990F890F2F70820F8183CE
:1016A2002B81822F8F7390E09595879595958795DD
:1016B2009595879595958795880F982F990F990FEE
:1016C200890F2F70820F82832C81822F8F7390E07B
:1016D20095958795959587959595879595958795F0
:1016E200880F982F990F990F890F2F70820F83837C
:1016F2002E81822F8F7190E095958795959587958C
:101702009595879595958795880F982F990F990F9D
:10171200890F2F70820F84838F81982F92959F70EB
:10172200990F292F220F220F920F8F70890F858315
:1017320080E003C082E001C082E027960FB6F894F1
:10174200DEBF0FBECDBFDF91CF911F910F910895E4
:10175200CF930E943C1BC0E00DC0C2E00BC0C5E0AD
:1017620009C0C6E007C0C5E005C0C5E003C0C5E0CA
:1017720001C0C5E0EC2FF0E0EC30F105D8F7E25CF7
:10178200FF4F0C947C206CE773E080E00E94D01342
:1017920062EA73E080E00E94D0130E94CC1D8111A6
:1017A200DCCF64EC73E080E00E94D013C4E0E2CFAF
:1017B2000E94E41F8111C3E00E94EB1F8111CFCF71
:1017C200D9CF80E294E00E94A41D80E294E00E94BE
:1017D2007B17882331F280E294E00E94B81DC82F63
:1017E200C9CF60E274E080E848E553E00E94E00778
:1017F200882309F4B8CFCBE0BDCF60E274E080E883
:1018020048E553E00E943109882309F4AECFCBE0CA
:10181200B1CF60E274E080E80E94A617882309F441
:10182200A6CFC2E0A7CF60E274E080E848E553E0CB
:101832000E94A512882309F49CCFCBE09BCF68E5D8
:1018420073E080E80E94D013C2E094CF63EE73E0AD
:1018520080E00E94D013C2E08DCF6DEE73E080E095
:101862000E94D013C2E086CF0E9492206AEF73E0FA
:0E18720080E00E94D013C1E07DCFCF91089599
:101880004F925F926F927F928F92AF92BF92CF9260
:10189000DF92EF92FF920F931F93CF93DF93CDB719
:1018A000DEB7A3970FB6F894DEBF0FBECDBF3B01E6
:1018B000882E5A0122E04CEA56E00E943C13182F71
:1018C000882309F45DC08CEA96E06C0120E8E22EE2
:1018D0008E2DB6010E94B5200FEF080F073008F0DB
:1018E0004AC023E04CEA56E0882DB3010E943C1325
:1018F000182F882309F444C08E2DB6010E94B5200C
:101900002C0102978B329140C0F524E04CEA56E05E
:10191000882DB3010E943C13182F882389F18E2D46
:10192000B6010E94B5206C0102978735924038F5C8
:1019300063E2CE0101967C010E94B91F802F90E0E6
:10194000FC01EE0FFF1FEE0FFF1FE80FF91FEE0D5A
:10195000FF1D51824082D382C282B70180E843E2F8
:101960000E94072028E030E043E452E060E0C50137
:101970000E94BC1C05C010E003C010E001C010E0D4
:10198000812FA3960FB6F894DEBF0FBECDBFDF91B7
:10199000CF911F910F91FF90EF90DF90CF90BF906C
:0E19A000AF908F907F906F905F904F90089562
:1019AE00CF92DF92EF92FF920F931F93CF93DF931D
:1019BE0000D0CDB7DEB7F42E052F22E04CEF56E067
:1019CE000E943C13182F882309F46BC08CEF96E00D
:1019DE006C0120E8E22E20E234E040E08E2DB601CC
:1019EE000E94FD1A892B79F40E94C81F81E00E9483
:1019FE005A1F28E130E043E254E060E08F2D902F33
:101A0E000E94BC1C4EC02BE334E040E08E2DB6018C
:101A1E000E94FD1A892B79F40E94C81F80E00E9453
:101A2E005A1F29E130E04FE354E060E08F2D902FF4
:101A3E000E94BC1C36C028E534E040E08E2DB60175
:101A4E000E94FD1A892B21F5CE0101960E94501796
:101A5E00882351F028E130E04DE554E060E08F2D11
:101A6E00902F0E94BC1C1DC08A818F9389818F93F9
:101A7E0085E794E0A0E0AF939F938F930F93FF922F
:101A8E000E94531A0FB6F894DEBF0FBECDBF09C029
:101A9E0026E130E04CE754E060E08F2D902F0E945D
:101AAE00BC1C812F0F900F90DF91CF911F910F9142
:0A1ABE00FF90EF90DF90CF900895A5
:101AC8001F93CF93DF9300D000D000D0CDB7DEB7FF
:101AD800F9013DEC439F212D112426952695269545
:101AE80010E1219FD0011124220FB22FBB0FBB0F91
:101AF8002B0F421B4A2B4083539F212D11242695DF
:101B08002695269540E1249FD0011124220F422FCB
:101B1800440F440F240F521B5A2B5183639F412DAE
:101B2800112446954695469510E1419FD001112410
:101B3800440F242F220F220F420F641B6A2B62834B
:101B4800739F412D112446954695469520E1429F65
:101B5800D0011124440F242F220F220F420F741B8F
:101B68007A2B7383839F412D11244695469546957C
:101B780010E1419FB0011124440F242F220F220F9E
:101B8800420F841B862B8483939F312D1124369515
:101B98003695369520E1329FA0011124330F832F0B
:101BA800880F880F380F931B942B958326960FB6B2
:101BB800F894DEBF0FBECDBFDF91CF911F9108957E
:101BC8006F927F928F92DF92EF92FF920F931F9303
:101BD800CF93DF9300D000D000D0CDB7DEB73B0164
:101BE800882E7A010E94961F22E04CEA56E0882D42
:101BF800B3010E943C13182F882309F44EC06CEAE5
:101C080076E080E80E947A1D419749F025E230E0AD
:101C180040E952E060E0C7010E94BC1C3EC060E0A1
:101C28008CEA96E00E94701C882E63E08CEA96E0AD
:101C38000E94701C782E66E08CEA96E00E94701C68
:101C4800682E69E08CEA96E00E94701C082F6CE010
:101C58008CEA96E00E94701CD82E6FE08CEA96E021
:101C68000E94701C482F5D2D602F762D872D982D92
:101C78000E949416882349F023E130E045EB52E0B6
:101C880060E0C7010E94BC1C08C028E030E043E4C3
:101C980052E060E0C7010E94BC1C812F26960FB657
:101CA800F894DEBF0FBECDBFDF91CF911F910F918A
:0E1CB800FF90EF90DF908F907F906F900895D7
:101CC6006F927F928F92CF92DF92EF92CF93DF93B4
:101CD600C0E0C23019F128F4CC2349F0C130A1F09C
:101CE600F8CFC33009F1C43009F44DC0F2CF0E94D9
:101CF6001E1B0E94A1200E94B92063E175E080E0CE
:101D06000E94D013C1E0E5CF0E94E41F882309F3A7
:101D160080E294E00E94A41DC2E0DBCF80E294E062
:101D26000E94E01DC82FD5CF80E294E06C0120E828
:101D3600E22E2F93DF928F9389E495E0A0E0AF9394
:101D46009F938F93C8E5D3E0DF93CF930E94531AF6
:101D56003E0120E8822E882DB3010E94D013AE01E9
:101D66006C2D7D2D8E2D0E94BC20882DB3010E94E6
:101D7600D0138DB79EB708960FB6F8949EBF0FBEC8
:101D86008DBFC1E0A6CF0E948D206FE475E080E094
:101D96000E94D01381E0DF91CF91EF90DF90CF903A
:081DA6008F907F906F9008956B
:101DAE000F931F93CF93DF93CDB7DEB7A3970FB6E5
:101DBE00F894DEBF0FBECDBF8A016BE472E080E007
:101DCE000E945A1B6BE472E080E00E94771B6CE568
:101DDE0072E080E00E94941B60E070E080E89FE378
:101DEE000E94F21F60E070E48CE195E40E94F91FFE
:101DFE0060E070E080EA90E40E94002082E00E94A1
:101E0E00522085E090E00E945E2086E00E946A20CB
:101E1E0080E01AC0E82FF0E09F01220F331F220F3F
:101E2E00331FE20FF31F21E030E02C0F3D1FE20FB6
:101E3E00F31F92E0948322E030E03183208323E08D
:101E4E0030E0338322838F5F873020F3BE016F5FD4
:101E5E007F4F80E843E20E94072023E130E04DE708
:101E6E0052E060E0C8010E94BC1C81E0A3960FB650
:101E7E00F894DEBF0FBECDBFDF91CF911F910F91B2
:021E8E000895B5
:101E900010C00E94232058F00E941C2040F029F41A
:101EA0005F3F29F00C94762051110C942B200C9458
:101EB000C2200E94761A68F39923B1F3552391F357
:101EC000951B550BBB27AA2762177307840738F0A9
:101ED0009F5F5F4F220F331F441FAA1FA9F335D006
:101EE0000E2E3AF0E0E832D091505040E695001CBA
:101EF000CAF72BD0FE2F29D0660F771F881FBB1F74
:101F0000261737074807AB07B0E809F0BB0B802D51
:101F1000BF01FF2793585F4F3AF09E3F510578F07D
:101F20000C9476200C942B205F3FE4F3983ED4F37E
:101F3000869577956795B795F7959F5FC9F7880F51
:101F4000911D9695879597F90895E1E0660F771FA3
:101F5000881FBB1F621773078407BA0720F0621B34
:0E1F6000730B840BBA0BEE1F88F7E095089503
:101F6E000FC00E941C2038F00E94232020F09523E1
:101F7E0011F00C9476200C94C22011240C942B207A
:101F8E000E94761A70F3959FC1F3950F50E0551F7E
:101F9E00629FF001729FBB27F00DB11D639FAA27B0
:101FAE00F00DB11DAA1F649F6627B00DA11D661FFF
:101FBE00829F2227B00DA11D621F739FB00DA11D20
:101FCE00621F839FA00D611D221F749F3327A00DDA
:101FDE00611D231F849F600D211D822F762F6A2F76
:101FEE0011249F5750409AF0F1F088234AF0EE0FDB
:101FFE00FF1FBB1F661F771F881F91505040A9F708
:10200E009E3F510580F00C9476200C942B205F3F60
:10201E00E4F3983ED4F3869577956795B795F79543
:10202E00E7959F5FC1F7FE2B880F911D96958795BB
:04203E0097F9089571
:1020420011C00E941C2038F00E94232020F039F495
:102052009F3F19F426F40C94C2200EF4E095E7FB9E
:102062000C947620E92F0E94761A58F3BA17620769
:1020720073078407950720F079F4A6F50C942A20BB
:102082000EF4E0950B2EBA2FA02D0B01B901900191
:102092000C01CA01A0011124FF27591B99F0593FD5
:1020A20050F4503E68F11A16F040A22F232F342F1D
:1020B2004427585FF3CF469537952795A795F0406B
:1020C2005395C9F77EF41F16BA0B620B730B840B80
:1020D200BAF09150A1F0FF0FBB1F661F771F881F38
:1020E200C2F70EC0BA0F621F731F841F48F4879590
:1020F20077956795B795F7959E3F08F0B0CF939582
:0E210200880F08F09927EE0F9795879508959E
:10211000FF920F931F93CF93DF93CDB7DEB76E97E8
:102120000FB6F894DEBF0FBECDBF64E775E080E068
:102130000E94D0130E94291E182FAE014F5F5F4FDF
:1021400065E070E083E090E00E943A1E112331F0D8
:1021500069E775E080E00E94D01332C00E949720AA
:102160000E94E31E8823E1F30E940E20F12C25C07B
:10217000EF2DF0E0EE0FFF1F81E090E08C0F9D1F30
:10218000E80FF91F81818F9380818F938FE795E00E
:10219000A0E0AF939F938F938E01055F1F4F1F9316
:1021A0000F930E94531AB80180E80E94D013F39451
:1021B0000FB6F894DEBF0FBECDBF94E09F15C0F6FA
:1021C0006E960FB6F894DEBF0FBECDBFDF91CF91F4
:0821D0001F910F91FF9008958B
:1021D800CF92DF92EF92FF921F93CF93DF93CDB709
:1021E800DEB7A3970FB6F894DEBF0FBECDBF7C0154
:1021F80063E2CE0101960E94B91FF701108210E038
:1022080035C0812F90E0FC01EE0FFF1FEE0FFF1F7E
:10221800E80FF91F21E030E02C0F3D1FE20FF31FFC
:1022280023812F9322812F9321812F9320812F9314
:1022380001969F938F9384EF91E0A0E0AF939F93D3
:102248008F930F2EFCEACF2EF6E0DF2EF02DDF92D3
:10225800CF920E94531AA60160E8C7010E94631D2D
:102268001F5F0FB6F894DEBF0FBECDBF173048F220
:10227800A3960FB6F894DEBF0FBECDBFDF91CF9106
:0C2288001F91FF90EF90DF90CF90089521
:10229400FA01AA27283051F1203181F1E8946F9393
:1022A4006E7F6E5F7F4F8F4F9F4FAF4FB1E03ED039
:1022B400B4E03CD0670F781F891F9A1FA11D680FD7
:1022C400791F8A1F911DA11D6A0F711D811D911D0A
:1022D400A11D20D009F468943F912AE0269F11247F
:1022E4003019305D3193DEF6CF010895462F4770E3
:1022F400405D4193B3E00FD0C9F7F6CF462F4F703E
:10230400405D4A3318F0495D31FD4052419302D09B
:10231400A9F7EACFB4E0A695979587957795679541
:10232400BA95C9F700976105710508959B01AC0141
:102334000A2E06945795479537952795BA95C9F768
:0C234400620F731F841F951FA01D0895D9
:10235000CF92DF92EF92FF920F931F93CF93DF9371
:102360006C0110E008C0CC0DDD1D88818E3211F4A7
:102370001F5F0CC01F5FC12FD0E0B60180E80E9434
:102380007A1D0197C817D90770F310E0112371F176
:10239000C10ED11C80E8E82E8E2DB6010E947A1D58
:1023A000C82F8E2DB6010E94B5208C010F2EC12C96
:1023B000D12CF0E8EF2EFFE3FF2EF02D0BC020E034
:1023C00030E040E251E4C701B6010E94B1206B0148
:1023D0007C01C150C111F3CFB80180E090E00E94B0
:1023E0005314A70196010E94AD2003C060E070E085
:1023F000CB01DF91CF911F910F91FF90EF90DF9074
:04240000CF900895DC
:10240400FF920F931F93CF93DF9300D0CDB7DEB726
:10241400F42E052F22E04CEF56E00E943C13182FB7
:102424008823B9F16CEF76E080E828E534E040E0F9
:102434000E94FD1A892B21F5CE0101960E940B1FE3
:10244400882351F028E130E04DE554E060E08F2D21
:10245400902F0E94BC1C1DC08A818F9389818F9309
:1024640085E794E0A0E0AF939F938F930F93FF923F
:102474000E94531A0FB6F894DEBF0FBECDBF09C039
:1024840026E130E04CE754E060E08F2D902F0E946D
:10249400BC1C812F0F900F90DF91CF911F910F9152
:0424A400FF90089508
:1024A8000F931F93CF93DF9300D000D000D0CDB708
:1024B800DEB78C018FEF9FEFF801918380830E9434
:1024C8008820811107C08EEF9FEFF80191838083E8
:1024D80083E02CC022E04DE955E060E081E60E94EF
:1024E800F11E81111EC08FE39FE10197F1F700C033
:1024F800000046E0BE016F5F7F4F81E60E948A1CA4
:10250800811111C0CE0101960E94A31C882369F095
:10251800CE0101960E94FE1EF8019183808380E01F
:1025280005C081E003C081E001C081E026960FB6B6
:10253800F894DEBF0FBECDBFDF91CF911F910F91F1
:022548000895F4
:10254A006F927F928F92CF92DF92EF920F931F93A7
:10255A00CF933B01882E8A0121E04CEF56E00E947E
:10256A003C13C82F882369F18CEF96E06C0120E8B0
:10257A00E22E22E934E040E08E2DB6010E94FD1AD7
:10258A00892B39F4A801882DB3010E94D70CC82FD2
:10259A0018C027E934E040E08E2DB6010E94FD1AEA
:1025AA00892B39F4A801882DB3010E940212C82F81
:1025BA0008C026E130E04CE754E060E0C8010E9420
:1025CA00BC1C8C2FCF911F910F91EF90DF90CF9071
:0825DA008F907F906F9008952F
:1025E2008F929F92AF92BF92CF92DF92EF92FF9221
:1025F200BC0180E090E00E94531420E030E040E80B
:1026020059E30E94B1208090220790902307A09066
:102612002407B0902507A50194010E94B1206B0107
:102622007C019B01AC01C501B4010E941520A701E8
:1026320096010E94AD2020911E0730911F07409104
:102642002007509121070E94B12020911A07309152
:102652001B0740911C0750911D070E94B1200E9448
:10266200C816CB01FF90EF90DF90CF90BF90AF9054
:062672009F908F90089577
:102678008F929F92AF92CF92DF92EF92FF920F9339
:102688001F93CF93DF936B01E82EEA01F22E0E948D
:10269800D0178F1558F18E2DB6010E947A1D8C0126
:1026A8004F2D8E2DB6010E94F21590E015C04601FF
:1026B800AE2C820E931EA11C37FDAA944A2D9401BC
:1026C800F401249147FD2081203259F0FE01E90FE1
:1026D800F11D20838F5F9F5F282F30E0201731077F
:1026E80030F3C90FD11D188281E001C080E0DF916D
:1026F800CF911F910F91FF90EF90DF90CF90AF9007
:062708009F908F900895E0
:10270E000F931F93CF93DF9300D000D000D0CDB79F
:10271E00DEB7182F092F0E94961FCE0101960E9438
:10272E00090B882351F024E130E04AE052E060E0EA
:10273E00812F902F0E94BC1C21C059814A813B8160
:10274E002C819D818E811F925F931F924F931F92BA
:10275E003F931F922F931F929F931F928F938EE101
:10276E0092E0A0E0AF939F938F930F931F930E94DD
:10277E00531A0FB6F894DEBF0FBECDBF26960FB616
:10278E00F894DEBF0FBECDBFDF91CF911F910F9199
:02279E0008959C
:1027A0006F927F928F92CF92DF92EF923B01882EB1
:1027B000809138078111FCCF882DB3010E947A1DCA
:1027C000BC0190E012C0292F30E0E82C6301C40E58
:1027D000D51EE11C57FDEA94F6014491E7FC4081C7
:1027E000F901E651FB4F40839F5F492F50E04617A8
:1027F000570748F3FB01E651FB4F8DE08083FB0157
:10280000E551FB4F8AE080836E5F6093380781E07B
:10281000809337078091EA048093CE00EF90DF9099
:0A282000CF908F907F906F90089585
:10282A001F920F920FB60F9211242F933F934F933B
:10283A005F936F937F938F939F93AF93BF93CF933E
:10284A00EF93FF93809130078F5F80933007803238
:10285A0099F410923007C0E00DC0EC2FF0E0EE0FB3
:10286A00FF1FE05FF84F0190F081E02D309709F0EB
:10287A000995CF5FC53088F3FF91EF91CF91BF9152
:10288A00AF919F918F917F916F915F914F913F91FE
:0C289A002F910F900FBE0F901F9018950B
:1028A600E89409C097FB3EF49095809570956195E4
:1028B6007F4F8F4F9F4F9923A9F0F92F96E9BB279A
:1028C6009395F695879577956795B795F111F8CF16
:1028D600FAF4BB0F11F460FF1BC06F5F7F4F8F4F81
:1028E6009F4F16C0882311F096E911C0772321F077
:1028F6009EE8872F762F05C0662371F096E8862F0F
:1029060070E060E02AF09A95660F771F881FDAF765
:0A291600880F9695879597F90895AC
:10292000CF92DF92EF920F931F93CF938A0122E011
:102930004CEA56E00E943C13C82F882329F18CEA08
:1029400096E06C0120E8E22E8E2DB6010E947A1DE1
:102950004097C9F48E2DB6010E945A1BC82F8111D1
:1029600009C027E030E04CE352E060E0C8010E947B
:10297000BC1C0AC028E030E043E452E060E0C8013B
:102980000E94BC1C01C0C0E08C2FCF911F910F9101
:08299000EF90DF90CF90089555
:10299800CF92DF92EF920F931F93CF938A0122E099
:1029A8004CEA56E00E943C13C82F882329F18CEA90
:1029B80096E06C0120E8E22E8E2DB6010E947A1D69
:1029C8004097C9F48E2DB6010E94771BC82F81113C
:1029D80009C027E030E04CE352E060E0C8010E9403
:1029E800BC1C0AC028E030E043E452E060E0C801C3
:1029F8000E94BC1C01C0C0E08C2FCF911F910F9189
:082A0800EF90DF90CF900895DC
:102A1000CF92DF92EF920F931F93CF938A0122E020
:102A20004CEA56E00E943C13C82F882329F18CEA17
:102A300096E06C0120E8E22E8E2DB6010E947A1DF0
:102A40008097C9F48E2DB6010E94941BC82F811166
:102A500009C027E030E04CE352E060E0C8010E948A
:102A6000BC1C0AC028E030E043E452E060E0C8014A
:102A70000E94BC1C01C0C0E08C2FCF911F910F9110
:082A8000EF90DF90CF90089564
:102A88000F931F93CF93DF93FB01248121FD03C094
:102A98008FEF9FEF2CC022FF16C0478150852581FC
:102AA80036814217530744F4A081B1819D012F5FFD
:102AB8003F4F318320838C93278130852F5F3F4F91
:102AC8003087278314C08B01EC01FB010184F28558
:102AD800E02D0995892BE1F6D80117968D919C91E7
:102AE8001897019618969C938E931797CE01DF91AD
:082AF800CF911F910F91089589
:102B00001F920F920FB60F9211242F938F939F93C2
:102B1000EF93FF938091310781110EC0E09132074E
:102B2000E43650F481E08E0F80933207F0E080911C
:102B3000C600E050FF4F808380913207833080F0E1
:102B400090E0FC01E150FF4F20812A3049F4FC0164
:102B5000E250FF4F80818D3019F481E0809331077E
:102B6000FF91EF919F918F912F910F900FBE0F903A
:042B70001F90189505
:102B74001F920F920FB60F9211242F938F939F934E
:102B8400EF93FF938091350781110EC0E0913607D2
:102B9400E63950F481E08E0F80933607F0E080919F
:102BA400CE00EA5EF94F80838091360790E0FC0105
:102BB400EB5EF94F20812A3049F4FC01EC5EF94FB9
:102BC40080818D3019F481E080933507FF91EF9176
:102BD4009F918F912F910F900FBE0F901F9018957A
:102BE400CF92DF92EF920F931F93CF93DF934423FF
:102BF40029F1042F6B01E82EC0E0D0E010E014C0EE
:102C0400AE2DC6018C0F9D1FA11DD7FDAA95FC01F9
:102C14008491A7FD8081803231F41F5F011303C0CA
:102C2400CE0101960DC021968E2DB6010E947A1D0B
:102C3400C817D90728F380E090E002C080E090E054
:102C4400DF91CF911F910F91EF90DF90CF90089576
:102C5400CF92DF92EF920F931F93CF936B01E82EE5
:102C6400C0E012C08C2F90E04E2D9601200F311F32
:102C7400411D17FD4A95F901249147FD2081FC016E
:102C8400EC59FE4F2083CF5F0C2F10E08E2DB60140
:102C94000E947A1D0817190728F38093340781E0EE
:102CA40080933307809164018093C600CF911F9174
:0A2CB4000F91EF90DF90CF9008958C
:102CBE00CF92DF92EF920F931F936B01E82E0115C7
:102CCE00110519F101501109F6018491E7FC80817B
:102CDE00882399F0F901949147FD9081992369F029
:102CEE000115110551F0891308C08FEFC81AD80AC3
:102CFE00E80A2F5F3F4F4F4FE5CF90E0F901249147
:102D0E0047FD2081821B910902C080E090E01F9157
:0A2D1E000F91EF90DF90CF90089521
:102D2800CF93DF93CDB7DEB764970FB6F894DEBFC5
:102D38000FBECDBF9E01275F3F4F0E94640D82E00A
:102D4800898389858A838A858B838B858C838C8507
:102D58008D831E828D858F838E858887AE014F5F18
:102D68005F4F60E828E081E50E94F11E882311F09A
:102D780082E001C080E064960FB6F894DEBF0FBE13
:082D8800CDBFDF91CF9108954A
:102D90000E947E1A88F09F5798F0B92F9927B75153
:102DA000B0F0E1F0660F771F881F991F1AF0BA95EF
:102DB000C9F714C0B13091F00E942A20B1E0089503
:102DC0000C942A20672F782F8827B85F39F0B93FF5
:102DD000CCF3869577956795B395D9F73EF49095A2
:0E2DE0008095709561957F4F8F4F9F4F08959E
:102DEE00EF92FF920F931F93CF93DF938C01D62F09
:102DFE00C0E008C07801EC0EF11C0E94821FF701A2
:102E0E008083CF5F2C2F30E08D2F90E00197281715
:102E1E00390784F38D2F90E00197E801C80FD91F71
:102E2E000E948C1F88830E94B11F80E0DF91CF919A
:0A2E3E001F910F91FF90EF9008958F
:102E4800EF92FF920F931F93CF93DF937C0110E0D3
:102E580000E00DC0CE0DDF1D88818E3221F40111F6
:102E680011C001E003C080538A3070F41F5FC12F86
:102E7800D0E0B70180E80E947A1DC817D90750F33F
:102E880081E003C080E001C080E0DF91CF911F9115
:082E98000F91FF90EF900895E7
:102EA0000F931F93CF93DF9300D0CDB7DEB78C0184
:102EB0008FEF9FEFF8019183808342E0BE016F5F47
:102EC0007F4F8DE40E948A1C81110DC0898190E0A2
:102ED000982F88272A81822B0E94F112F801918372
:102EE000808380E001C081E00F900F90DF91CF914F
:062EF0001F910F910895EF
:102EF600CF93DF93EC01BC0180E80E947A1DBC01F0
:102F0600FC013197EC0FFD1F80818032B1F020E08B
:102F160030E040E00DC0FE01E20FF31F90819032D9
:102F260021F441110CC041E001C040E02F5F3F4F4A
:102F36002617370780F381E003C080E001C080E0F8
:062F4600DF91CF91089518
:102F4C00CF93DF93CDB7DEB764970FB6F894DEBF9F
:102F5C000FBECDBF21E0AE014F5F5F4F0E943C130F
:102F6C00882379F0BE016F5F7F4F80E82FE635E054
:102F7C0040E00E94FD1A892B19F40E94630E01C0D7
:102F8C0080E064960FB6F894DEBF0FBECDBFDF9124
:042F9C00CF91089534
:102FA0006F927F928F92CF92DF92EF923B01882EA9
:102FB0000E947A1DBC0120E030E080E010C0E82CC7
:102FC0006301C20ED31EE11C37FDEA94F601949111
:102FD000E7FC9081903209F48F5F2F5F3F4F2617F7
:102FE000370768F3EF90DF90CF908F907F906F90CE
:022FF000089542
:102FF2000F931F93CF938A0122E04CEA56E00E947E
:103002003C13C82F8823B9F06CEA76E080E80E946E
:10301200B5209C0125503109243E334058F40E94CA
:103022005E2028E030E043E452E060E0C8010E9404
:10303200BC1C01C0C0E08C2FCF911F910F9108954D
:103042001F920F920FB60F9211242F933F934F931B
:103052005F936F937F938F939F93AF93BF93EF93FE
:10306200FF93E0912607F09127070995FF91EF91D1
:10307200BF91AF919F918F917F916F915F914F918E
:0E3082003F912F910F900FBE0F901F90189549
:103090001F920F920FB60F9211242F933F934F93CD
:1030A0005F936F937F938F939F93AF93BF93EF93B0
:1030B000FF93E0912807F09129070995FF91EF917F
:1030C000BF91AF919F918F917F916F915F914F9140
:0E30D0003F912F910F900FBE0F901F901895FB
:1030DE00CF92DF92EF92FF920F931F93CF93DF93D6
:1030EE008C01BC0180E80E94B520EC01C8010E9451
:1030FE00A8116B017C01BE0180E090E00E94531488
:10310E009B01AC01C701B6010E941620DF91CF9141
:0E311E001F910F91FF90EF90DF90CF900895DA
:10312C00CF92DF92EF92CF93DF936A01E62ED22FEC
:10313C0060E00E94E919811113C0C0E00EC0AE2DF1
:10314C00C6018C0F911DA11DFC018491A7FD8081EE
:10315C000E945C1E811104C0CF5FCD1780F380E00C
:0C316C00DF91CF91EF90DF90CF9008959D
:103178000F931F93CF938A0122E04CEA56E00E94F6
:103188003C13C82F8823A9F08CEA96E00E942417E4
:10319800C82F882371F08CEA96E00E946F180E946D
:1031A800F21F28E030E043E452E060E0C8010E94EA
:0C31B800BC1C8C2FCF911F910F9108952B
:1031C4000F931F93CF938A0122E04CEA56E00E94AA
:1031D4003C13C82F8823A9F08CEA96E00E94241798
:1031E400C82F882371F08CEA96E00E946F180E9421
:1031F400F91F28E030E043E452E060E0C8010E9497
:0C320400BC1C8C2FCF911F910F910895DE
:103210000F931F93CF938A0122E04CEA56E00E945D
:103220003C13C82F8823A9F08CEA96E00E9424174B
:10323000C82F882371F08CEA96E00E946F180E94D4
:10324000002028E030E043E452E060E0C8010E9442
:0C325000BC1C8C2FCF911F910F91089592
:10325C000F931F93CF938A0122E04CEA56E00E9411
:10326C003C13C82F8823A9F06CEA76E080E80E9412
:10327C00B5209FEF980F983C58F40E94522028E0FC
:10328C0030E043E452E060E0C8010E94BC1C01C085
:0C329C00C0E08C2FCF911F910F9108957E
:1032A8000F931F93CF938A0122E04CEA56E00E94C5
:1032B8003C13C82F8823A9F06CEA76E080E80E94C6
:1032C800B5209AEF980F933158F40E946A2028E0AD
:1032D80030E043E452E060E0C8010E94BC1C01C039
:0C32E800C0E08C2FCF911F910F91089532
:1032F4001F920F920FB60F9211248F93EF93FF93A7
:10330400E091330780913407E81758F481E08E0F79
:1033140080933307F0E0EC59FE4F80818093C60020
:1033240004C01092330710923407FF91EF918F91EC
:0A3334000F900FBE0F901F90189528
:10333E001F920F920FB60F9211248F93EF93FF935C
:10334E00E091370780913807E81758F481E08E0F27
:10335E0080933707F0E0E651FB4F80818093CE00DB
:10336E0004C01092370710923807FF91EF918F919A
:0A337E000F900FBE0F901F901895DE
:103388006F927F928F92CF92DF92EF920F931F935B
:103398003B01882E6901E42E842FB9010E947A1D11
:1033A8008C014E2D9601882DB3010E945F1621E0F5
:1033B800892B09F020E0822F1F910F91EF90DF9069
:0A33C800CF908F907F906F900895D2
:1033D20090E0880F991F682B84EA8093BC0090913B
:1033E200BC009923E4F78091B900887F883099F472
:1033F2006093BB0084E88093BC008091BC0088236A
:10340200E4F78091B900887F883121F0803419F483
:0834120080E0089580E00895B8
:10341A000E94A5202FEF89E698E121508040904034
:10342A00E1F700C000000E94A9200E94DD1F882346
:10343A00E1F380E992E00E94901D60E972E080E881
:10344A002CE835E040E00E94C419882311F080E09E
:06345A00089581E00895D1
:1034600080912C0790912D0720912A0730912B07EE
:10347000A9014F5F5F4F50932B0740932A07220FFC
:10348000331F820F931F0E94541220912A073091FC
:103490002B0780912E0790912F072817390710F0DE
:0634A0000E944C2008957B
:1034A600AFE0B0E0E9E5FAE10C94F71B0E891F895D
:1034B60086E08D831A8309838FEF9FE79F838E8330
:1034C6009E01255E3F4F488D598D6A8DCE0101962E
:1034D6000E94D002E885F985E00FF11F10822F9631
:0634E600E4E00C942E1C32
:1034EC0057FD9058440F551F59F05F3F71F04795A9
:1034FC00880F97FB991F61F09F3F79F0879508958E
:10350C00121613061406551FF2CF4695F1DF08C0AC
:10351C00161617061806991FF1CF869571056105C9
:04352C000894089562
:10353000CF92DF92EF9221503109C0F06B01E82E5B
:10354000C20ED31EE11CCA01820F931F422F732F9C
:10355000F6015E2D0E949C20262F0E94181E31E04D
:10356000C31AD108E1084150704090F7EF90DF9006
:04357000CF9008955B
:10357400A1E21A2EAA1BBB1BFD010DC0AA1FBB1F73
:10358400EE1FFF1FA217B307E407F50720F0A21BE5
:10359400B30BE40BF50B661F771F881F991F1A9452
:1035A40069F760957095809590959B01AC01BD017C
:0435B400CF010895A6
:1035B80090E0880F991F282F216084EA8093BC002F
:1035C8009091BC009923E4F78091B900887F8031FD
:1035D80079F42093BB0084E88093BC008091BC0000
:1035E8008823E4F78091B900887F803409F480E06B
:0235F800089534
:1035FA00CF92DF92EF926B01E82EF6018491E7FCFD
:10360A008081F901549147FD508185130BC08823AD
:10361A0041F08FEFC81AD80AE80A2F5F3F4F4F4F81
:10362A00ECCF582F90E0851B9109EF90DF90CF9057
:02363A000895F1
:10363C00E1ECF0E080818061808380818860808310
:10364C00808180688083808180648083E0ECF0E0FE
:10365C0080818260808386E08093C20080E190E06C
:0C366C009093C5008093C40078940895EA
:10367800E9ECF0E0808180618083808188608083CC
:10368800808180688083808180648083E8ECF0E0BA
:1036980080818260808386E08093CA0080E190E028
:0C36A8009093CD008093CC00789408959E
:1036B400CF92DF92EF926B01E82E0E947A1D409721
:1036C40079F420E130E040E050E08E2DB6010E9414
:1036D400981A61E080E490E00E94171E81E001C026
:0A36E40080E0EF90DF90CF90089592
:1036EE00CF92DF92EF926B01E82E0E947A1D4097E7
:1036FE0079F420E130E040E150E08E2DB6010E94D9
:10370E00981A61E081E490E00E94171E81E001C0EA
:0A371E0080E0EF90DF90CF90089557
:10372800CF92DF92EF926B01E82E0E947A1D80976C
:1037380079F420E230E040E250E08E2DB6010E949C
:10374800981A61E082E490E00E94171E81E001C0AF
:0A37580080E0EF90DF90CF9008951D
:10376200CF93DF93EA01AB01682F80E992E00E94D8
:10377200B81E80E992E00E94D51E60E972E080E8FE
:103782000E942A160E94DD1F8823E1F3CE010E94C7
:08379200901DDF91CF91089515
:10379A0025E043E955E060E081E60E94F11E8111CF
:1037AA000FC025E048E955E060E081E60E94F11E7D
:1037BA00811108C00E9488208823E1F380E00895DF
:0837CA0082E0089582E00895F9
:1037D2002F923F924F925F926F927F928F929F921F
:1037E200AF92BF92CF92DF92EF92FF920F931F930D
:1037F200CF93DF93CDB7DEB7CA1BDB0B0FB6F894BE
:08380200DEBF0FBECDBF09942B
:10380A00AC0130E08FEF14C0FA01E30FF11D908193
:10381A00892728E00AC0882334F490E0880F991F8A
:10382A0091E3892701C0880F21502111F4CF3F5F0E
:06383A00361750F308955B
:103840002A88398848885F846E847D848C849B8430
:10385000AA84B984C884DF80EE80FD800C811B813E
:10386000AA81B981CE0FD11D0FB6F894DEBF0FBE6D
:06387000CDBFED0108953B
:10387600CF92DF92EF926B01E82EA82FCB01411574
:10388600510531F48C199D09EF90DF90CF90089582
:10389600FC012491A7FD20812223A1F30196A11DFD
:0638A60041505109ECCF76
:1038AC001092800028E02093810010928200909367
:1038BC008900809388001092850010928400EFE6B6
:1038CC00F0E0808182608083789470932907609304
:0438DC00280708951C
:1038E000CF93DF9300D01F92CDB7DEB7FC01E60F78
:1038F000F11D8081898381818A831B82BE016F5F74
:103900007F4F80E80E94B5200F900F900F90DF91BD
:04391000CF910895B6
:103914000F931F93CF93DF938B01D42F61E00E9409
:10392400E919C82F882321F00E94B11F8C2F04C0ED
:103934006D2FC8010E94F716DF91CF911F910F914F
:023944000895E4
:10394600CF93DF93EC0162E00E94051C9A818913F4
:103956000AC062E0CE0103960E94051C9D8189176C
:1039660021F080E003C080E001C081E0DF91CF91CB
:023976000895B2
:10397800CF92DF92EF92DC016A01E62E280F391F01
:10398800A217B30751F0F6014491E7FC40814D932B
:103998004FEFC41AD40AE40AF3CFEF90DF90CF9028
:0239A800089580
:1039AA000F931F93CF93DF938B01D42F0E94DC1ABE
:1039BA00C82F882321F00E94B11F8C2F04C06D2FBD
:1039CA00C8010E94F716DF91CF911F910F910895B8
:1039DA000F931F93CF938C010E94241FC82F882313
:1039EA0051F020E130E040E050E060E0C8010E9480
:1039FA00051EF801108A8C2FCF911F910F910895FF
:103A0A000F931F93CF938C010E942F1FC82F8823D7
:103A1A0051F020E130E040E150E060E0C8010E944E
:103A2A00051EF801108A8C2FCF911F910F910895CE
:103A3A000F931F93CF938C010E943A1FC82F88239C
:103A4A0051F020E230E040E250E060E0C8010E941C
:103A5A00051EF80110A28C2FCF911F910F91089586
:103A6A00BC0190E009C0FB01E90FF11DDA01A05089
:103A7A00BF4F2C9120839F5F492F50E0209132073E
:0E3A8A0030E022503109421753076CF30895C3
:103A9800BC0190E009C0FB01E90FF11DDA01AA5E43
:103AA800B94F2C9120839F5F492F50E02091360712
:0E3AB80030E022503109421753076CF3089595
:103AC6009A01462FDC01BD016F5F7F4F5C91552344
:103AD60011F0DB01F8CFF901549147FD50815D9358
:0E3AE600552321F02F5F3F4F4F4FF5CF08952E
:103AF400CF92DF92EF926B01E82EA82FCB01FC014D
:103B04002491A7FD2081222319F00196A11DF7CF4E
:0C3B14008C199D09EF90DF90CF90089570
:103B20000F931F93CF938C010E94351DC0913207D4
:103B3000C250F801EC0FF11D10820E948D208C2FD5
:083B4000CF911F910F91089530
:103B48000F931F93CF938C010E944C1DC091360791
:103B5800C250F801EC0FF11D10820E9492208C2FA8
:083B6800CF911F910F91089508
:103B7000FC018081823741F0873741F0833641F084
:103B8000833741F48AE0089587E0089588E0089536
:083B900089E0089585E0089525
:103B98000E94961F0E94C11F81E00E94501F0E9430
:103BA800CF1F81E00E94641F0E94291E882311F004
:083BB80080E0089581E008950A
:103BC0000F931F93BC0180E804E010E02EE035E085
:103BD00040E00E945F16892B11F484E001C083E06D
:063BE0001F910F910895F2
:103BE6000E943C1B0E94CF1F0E94961F0E948810B5
:103BF6002FEF8EE994E2215080409040E1F700C01B
:043C06000000F4CFF7
:103C0A00BA01A901DC01CB01FC01F999FECF06C07A
:103C1A00F2BDE1BDF89A319600B40D924150504080
:043C2A00B8F708954A
:103C2E00262FF999FECF92BD81BDF89A019700B467
:103C3E00021639F01FBA20BD0FB6F894FA9AF99A07
:043C4E000FBE089508
:103C52000E94D61F81E00E94641F2FEF83ED90E344
:103C6200215080409040E1F700C000000E94CD1B2F
:023C72000895B3
:103C740070932F0760932E0710922B0710922A0738
:103C840050932D0740932C0760E37AE10E94561C61
:023C9400089591
:103C9600092E0394000C11F4882352F0BB0F40F454
:103CA600BF2B11F460FF04C06F5F7F4F8F4F9F4F94
:023CB60008956F
:103CB8008093BB0084E88093BC008091BC0088237B
:103CC800E4F78091B900887F883209F480E008958C
:103CD800DB018F939F930E94451FBF91AF91A29FD5
:103CE800800D911DA39F900DB29F900D11240895F2
:103CF800CF93DF93EC0163E470E080E00E9438200A
:0E3D0800688379838A839B83DF91CF9108952E
:103D1600CF93DF93EC0167E470E080E00E943820E7
:0E3D2600688379838A839B83DF91CF91089510
:103D3400CF93DF93EC016BE470E080E00E943820C5
:0E3D4400688379838A839B83DF91CF910895F2
:103D5200A29FB001B39FC001A39F700D811D1124CA
:0E3D6200911DB29F700D811D1124911D0895B9
:103D70009A01462FDC01F901549147FD50815D9372
:0E3D8000552321F02F5F3F4F4F4FF5CF089591
:103D8E000E94BF200E94A90B2FEF81E19AE72150DC
:0C3D9E0080409040E1F700C00000F4CF2E
:103DAA00FC0101900020E9F7CF0123E030E040EA6E
:0C3DBA0054E060E001970E94BC1C0895DA
:103DC60040912A0750912B0720912E0730912F07FB
:0C3DD60081E04217530708F480E00895D4
:103DE200CF930E949618C82F0E94B11FC11102C022
:0A3DF20080E001C08C2FCF910895EE
:103DFC00FC015481438131812081652F742F832FE5
:0A3E0C00922F0E94C816CB01089502
:103E1600CF93DF93EC010E9488208823E1F3CE0143
:0A3E26000E945412DF91CF9108951D
:103E30000396272F0E94181E0E94171E252F0E94EE
:083E4000181E242F0C94181E1B
:103E480060E470E080E80E94A81F91E0811101C041
:063E580090E0892F08959F
:103E5E0061E470E080E80E94A81F91E0811101C02A
:063E6E0090E0892F089589
:103E740062E470E080E80E94A81F91E0811101C013
:063E840090E0892F089573
:103E8A000E94A91EA59F900DB49F900DA49F800D1E
:063E9A00911D11240895A2
:103EA000882321F082B1886082B9089582B1877F2A
:043EB00082B9089536
:103EB400882321F082B1806282B9089582B18F7D16
:043EC40082B9089522
:103EC800882321F082B1806182B9089582B18F7E02
:043ED80082B908950E
:103EDC001F920F920FB60F9211240F900FBE0F90DE
:043EEC001F90189576
:103EF000CF930E949618C82F81110E94B11F8C2F5A
:043F0000CF910895C0
:103F040084EC8093BC008091BC008823E4F780910A
:043F1400BB00089551
:103F180084E88093BC008091BC008823E4F78091FA
:043F2800BB0008953D
:103F2C0080E28093B800E9EBF0E080818C7F8083A5
:023F3C000895E6
:103F3E0091110C94C520803219F089508550C8F724
:023F4E000895D4
:103F5000CB01F999FECF92BD81BDF89A992780B522
:023F60000895C2
:103F620084E98093BC008091BC0084FDFCCF08955D
:103F7200262F30E044E650E060E00E94051E0895DE
:0E3F820081B1886081B982B1877F82B90895CC
:0E3F900081B1806281B982B18F7D82B90895BE
:0E3F9E0081B1806181B982B18F7E82B90895B0
:0E3FAC0087B18F7B87B988B18F7B88B9089564
:0E3FBA009091310781E0911101C080E00895DF
:0E3FC8009091350781E0911101C080E00895CD
:0E3FD6009091360781E0953908F480E0089557
:0E3FE400AB01BC0183E490E00E94181F089519
:0E3FF200AB01BC0187E490E00E94181F089507
:0E400000AB01BC018BE490E00E94181F0895F4
:0E400E00242F30E044E650E00E94981A0895F6
:0E401C000E944C2010922D0710922C07089540
:0E402A005058BB27AA270E9421100C944B1E51
:0E40380000240A9416161706180609060895A5
:0E40460000240A9412161306140605060895A7
:0E405400E894BB2766277727CB0197F90895DC
:0E4062002AE030E040E050E00E94720608952F
:0E407000CB01A6E1B0E044E050E00C94091E44
:0E407E00CB01A8E1B0E042E050E00C94091E36
:0C408C00E1E8F0E0808186608083089508
:0C409800E1E8F0E08081887F80830895DB
:0C40A400682F8FE490E00E94171E089522
:0C40B0006FE470E080E00E94A81F0895FB
:0C40BC00BC0180E590E00E948220089585
:0C40C80060E570E080E00E943F20089559
:0C40D400682F82E590E00E94171E0895FE
:0C40E00062E570E080E00E94A81F0895D7
:0C40EC0097F99F6780E870E060E008959D
:0C40F800EE0FFF1F0590F491E02D0994DD
:0C4104000196272F0E94181E0C94171E15
:0A41100086B186FB882780F9089528
:0A411A001092310710923207089549
:0A4124001092350710923607089537
:0A412E000E94301A0E9446200895F6
:0A41380057FD608157FF6491089560
:0841420084B1806184B9089585
:08414A0085B18F7E85B908954F
:0841520085B1806185B9089573
:08415A000E94480F0C944B1E5B
:084162000E94B70F0C944B1EE4
:08416A000E943120CB010895F1
:064172000E940D1A0895E1
:064178000E94B11B089536
:06417E000E94F31D0895EC
:064184009FEF80EC08959E
:06418A0099278827089523
:044190000C9400008B
:044194000000803F68
:0441980000401C4582
:04419C000000A0403F
:00000001FF
