:100000000C947F000C94D41D0C94D41D0C94BA1C39
:100010000C94D41D0C94D41D0C94D41D0C94D41D9C
:100020000C94D41D0C947D0F0C94D41D0C94D41DF1
:100030000C94D41D0C94EB140C94D41D0C94D41D6E
:100040000C94C4140C94D41D0C94D41D0C94D41D85
:100050000C94E3110C94D41D0C94AC150C94D41D89
:100060000C94D41D0C94D41D0C94D41D0C94D41D4C
:100070000C941D120C94D41D0C94D115DE03E704CE
:10008000FD031A043904580477049604B304D00419
:10009000E204F804FA040E0A410A2F0A5F0A5F0A12
:1000A0004E0A4C0A610A480A4A0A2A0544055A05BA
:1000B0006A054F05710588057D0593059F05AC050B
:1000C000B405BC05C405CC05E805EF05FC05030631
:1000D0001106180601000D52800D520D75003BB03F
:1000E0000D750D85800D850D96003BD30D960DAEDB
:1000F000800DAE0DB0003BE40DB00DC580001124A5
:100100001FBECFEFD0E1DEBFCDBFE4EDF0E040E0B9
:1001100017C0B591A59135912591059107FD0CC0AA
:1001200095918591EF01F92FE82F05900D92A21777
:10013000B307D9F7FE0104C01D92A217B307E1F778
:10014000ED3FF40731F70E94571C0C94A700F89478
:02015000FFCFDF
:100152003030303441333042303046343534374138
:100162000037304233443537454430303346383433
:100172003400423838414436443235413342323712
:1001820043363941303146373443353346394131CC
:100192003739004A6F696E0A0D004C6F5261205761
:1001A200414B452055500A0D005472792061676118
:1001B200696E0A0D00436F6E66206572720A0D0049
:1001C200494E4954205254430A0D00436C656172F2
:1001D20020696E746572727570740A0D00536574CD
:1001E2002077616B6520696E746572727570740A2E
:1001F2000D004D72707020696E69740A0D00536CA7
:100202006565700A0D004177616B650A0D004661F4
:1002120074616C206572726F720A0D00454E440A59
:020222000D00CD
:1002240025303278000D0A0073797320736C65658C
:100234007000257320256C64002573202573006DE0
:1002440061632073657420646576657569006D610A
:10025400632073657420617070657569006D6163F6
:1002640020736574206170706B6579006F66660039
:100274006D61632073657420616472006F6E006D3C
:10028400616320747820636E6600257320257520D1
:03029400257300CF
:10029700524E32343833006D616320726573657472
:1002A70020383638006F6B006D61632073617665A7
:1002B700006D6163206A6F696E206F746161006110
:0802C700636365707465640057
:1002CF006E6F5F667265655F6368006D61635F6522
:1002DF007272006D61635F727800696E76616C692E
:1002EF00645F646174615F6C656E006F6B006D615C
:0802FF00635F74785F6F6B0010
:100307006E6F5F667265655F63680064656E6965D9
:1003170064006B6579735F6E6F745F696E697400F3
:0503270046000002E3A6
:05032C0000100000813B
:030331006F6B00EF
:020334000300C4
:0103360002C4
:100338002F923F924F926F927F928F929F92AF929D
:10034800BF92CF92DF92EF92FF920F931F93CF93BA
:10035800DF93CDB7DEB762970FB6F894DEBF0FBE56
:10036800CDBF6C013A01862E7901FC0110861782F7
:10037800848181FFE7C19E012F5F3F4F3D872C8716
:10038800C901A0E8888B998BAA8B9FE3992EF3016A
:10039800849187FC8081882309F4D0C1482D93017A
:1003A8002F5F3F4F4F4F853219F03901842E0AC015
:1003B800F901849147FD808192E0690E711C811CCE
:1003C800853229F4B60190E00E94A711E0CFB12C44
:1003D80000E010E01032A0F48B3269F030F4803283
:1003E80059F0833269F410612CC08D3239F08033B2
:1003F80039F4116026C01260146023C0186021C04F
:1004080017FD29C090ED980F9A3078F416FF06C0B2
:10041800AAE0BA9E900D1124B92E13C0EAE00E9FEF
:10042800900D1124092F10620CC08E3221F416FD94
:1004380085C1106406C08C3611F4106802C0883675
:1004480051F4F301849187FC8081FFEF6F1A7F0AD2
:100458008F0A8111BFCF982F9F7D9554933028F430
:1004680024E0E20EF11C99820FC0833631F0833705
:1004780091F0833509F063C027C0F7018081898333
:1004880097012E5F3F4F7901288839884A88AA2426
:10049800A394B12C17C0A7014D5F5F4F5F874E87AC
:1004A800F70120803180428016FF03C04B2D50E0B9
:1004B80002C04FEF5FEF842DB1010E9403195C0168
:1004C800EE84FF841F7718C097012D5F3F4F3F8749
:1004D8002E87F70120803180428016FF03C04B2D04
:1004E80050E002C04FEF5FEF842DB1010E94031965
:1004F8005C011068EE84FF8413FD1DC0802F90E01E
:10050800A816B906C0F4B60180E290E00E94A711CF
:100518000150F4CFF101849147FC8081FFEF2F1A3D
:100528003F0A4F0AB60190E00E94A711011101503D
:1005380021E0A21AB108A114B10461F7F5C084360C
:1005480011F0893671F5F70117FF08C060817181D4
:100558008281938197012C5F3F4F09C0608171812F
:10056800072E000C880B990B97012E5F3F4F7901DE
:100578001F76312E97FF0AC09095809570956195EA
:100588007F4F8F4F9F4F312F3068332E2AE030E056
:10059800AE014F5F5F4F0E94D50D482E4C85441A1F
:1005A8004AC0853729F41F7EA12E2AE030E025C0F5
:1005B800512F597FA52E8F36C1F018F4883579F060
:1005C800BDC0803719F0883721F0B8C0852F806109
:1005D800A82EA4FE0DC09A2D9460A92E09C014FF60
:1005E8000AC0A52FA660AA2E06C028E030E005C0E4
:1005F80020E130E002C020E132E0F701A7FE08C0A8
:100608006081718182819381A7014C5F5F4F07C030
:100618006081718180E090E0A7014E5F5F4F7A01B1
:10062800AE014F5F5F4F0E94D50D482E5C85451A7D
:100638008A2D8F77382E36FE0DC0932D9E7FA92EDA
:100648004B1458F434FE0BC032FC09C0A32DAE7E07
:10065800AA2E05C0142DA32C03C0142D01C01B2DD8
:10066800A4FE0EC0FE01E40DF11D8081803321F44B
:10067800EA2DE97EAE2E08C0A2FE05C01E5F04C0AA
:100688008A2D867809F01F5FA3FC11C0A0FE06C062
:10069800101788F4040DB02EB11A0EC0101760F4AC
:1006A800B60180E290E00E94A7111F5FF7CF1017F4
:1006B80018F4011B02C0B42C00E0A4FE10C0B6015F
:1006C80080E390E00E94A711A2FE17C0A1FC03C01E
:1006D80088E790E002C088E590E0B6010CC08A2D5A
:1006E800867859F0A1FE02C08BE201C080E2A7FC27
:1006F8008DE2B60190E00E94A7114B1438F4B601C0
:1007080080E390E00E94A711BA94F7CF4A94E1E001
:10071800F0E0EC0FFD1FE40DF11D8081B60190E0C3
:100728000E94A7114110F2CF002309F430CEB60180
:1007380080E290E00E94A7110150F6CFF601878170
:10074800908502C08FEF9FEF62960FB6F894DEBFD8
:100758000FBECDBFDF91CF911F910F91FF90EF900A
:10076800DF90CF90BF90AF909F908F907F906F90C9
:080778004F903F902F9008956F
:10078000AF92BF92CF92DF92EF92FF921F93CF93DF
:10079000DF93CDB7DEB728970FB6F894DEBF0FBE54
:1007A000CDBF5C016B017A0110E0E12FF0E0ED308C
:1007B000F105D8F7E25CFF4F0C94841D0E949E1D4A
:1007C0002FEF89E698E1215080409040E1F700C08A
:1007D00000000E94A21D4CE050E062E070E0CE01FB
:1007E00001960E94661D27E932E040E061E0CE01FB
:1007F00001960E946C1D11E0D8CF4EE952E060E0F6
:1008000080E992E00E94871980E992E00E94051C2D
:100810004CE050E063E070E0CE0101960E94661D5E
:100820002CEA32E040E060E0CE0101960E946C1DAF
:1008300011E0BBCFB50180E992E00E943F1680E94C
:1008400092E00E94F71B80E992E00E94051C4CE0B8
:1008500050E064E070E0CE0101960E94661D2CEA33
:1008600032E040E060E0CE0101960E946C1D11E094
:100870009CCFB70180E992E00E94871680E992E060
:100880000E94F71B80E992E00E94051C4CE050E0BA
:1008900065E070E0CE0101960E94661D2CEA32E010
:1008A00040E060E0CE0101960E946C1D11E07DCF1A
:1008B000B60180E992E00E94631680E992E00E940E
:1008C000F71B80E992E00E94051C4CE050E066E0D6
:1008D00070E0CE0101960E94661D2CEA32E040E0F5
:1008E00060E0CE0101960E946C1D11E05ECF61E0D8
:1008F00080E992E00E94041A80E992E00E94F71BCE
:1009000080E992E00E94051C4CE050E067E070E056
:10091000CE0101960E94661D2CEA32E040E060E0C4
:10092000CE0101960E946C1D11E03FCF4FEA52E0CC
:1009300060E080E992E00E94871980E992E00E94DD
:10094000051C4CE050E068E070E0CE0101960E948A
:10095000661D2CEA32E040E060E0CE0101960E9484
:100960006C1D11E022CF48EB52E060E080E992E09C
:100970000E94871980E992E00E94051C4AE050E03D
:1009800069E070E0CE0101960E94661D2CEA32E01B
:1009900040E060E0CE0101960E946C1D11E005CFA1
:1009A0004AE050E06BE070E0CE0101960E94661DC7
:1009B00026EC32E040E060E0CE0101960E946C1D22
:1009C00011E0F3CE80E992E00E94461414C00E9428
:1009D000311D882309F4E9CE80E992E00E94C81D08
:1009E00060E972E0CE0101960E948D13182FDDCED2
:1009F00080E001C082E028960FB6F894DEBF0FBEFB
:100A0000CDBFDF91CF911F91FF90EF90DF90CF90FE
:060A1000BF90AF900895B5
:100A16001F93CF93DF9311E0C0E010C0C4E00EC077
:100A2600C3E10CC0C3E10AC0C3E108C0C3E106C00C
:100A3600CD2F04C0CD2F02C0DC2FCEE0EC2FF0E08E
:100A4600E531F105D8F7EB5AFF4F0C94841D0E944F
:100A56003C180E945A180E94EC1C0E946E1B0E94B1
:100A66000E1D0E94151D0E94231D0E941C1D85B18E
:100A7600816085B985B1826085B91111CFCFC1E09A
:100A8600DDCF65E971E080E00E947B1C0E942D119C
:100A96000E942F1CC82FD2CF6CE971E080E00E9423
:100AA6007B1C0E94C51D8111BBCFC5E0C7CF6BEA79
:100AB60071E080E00E947B1C2FEF81E19AE72150D4
:100AC60080409040E1F700C00000C1E0B7CF67EB7F
:100AD60071E080E00E947B1CC4E1B0CF62EC71E063
:100AE60080E00E947B1C81E00E949C1481119ACFB9
:100AF600C7E0A4CF6DEC71E080E00E947B1C0E94F1
:100B06006D19811191CFC6E099CF6FED71E080E04C
:100B16000E947B1C0E94AA1D811188CFC8E08ECF3F
:100B260064EF71E080E00E947B1C67E082E59DE057
:100B36000E94B919C9E082CF0E94941D882309F446
:100B46007DCF0E94FE1749E06AE00E94AE1BC82FC7
:100B560075CF0E94A50C6BE00E94871CDC2FC82F66
:100B66006DCF0E94700A6CE00E94871CDC2FC82F94
:100B760065CF0E946F096DE00E94871CDC2FC82F8D
:100B86005DCF0E94E80A6FE00E94871CDC2FC82F09
:100B960055CF8EEA9DE00E941A1B882309F448CFA0
:100BA6000E94941D882309F445CF8091AE0D909143
:100BB600AF0D0E94DE174D2F682F8091AE0D9091DC
:100BC600AF0D0E94D11AC82F39CF0E94991D8823D4
:100BD60009F432CFC0E132CF0E94941D882309F474
:100BE6002DCF0E941D1840E161E10E94AE1BC82F67
:100BF60025CF0E94C21D11E0811110E0C2E11ECF77
:100C060060E072E080E00E947B1C0E947B1768E037
:100C160072E080E00E947B1CC0E010CF60E172E0D1
:100C260080E00E947B1CC4E109CF6EE172E080E0A7
:0C0C36000E947B1CDF91CF911F9108955C
:100C4200AF92BF92CF92DF92EF92FF920F931F93D8
:100C5200CF93DF93EC01C22E68832A83D12C00E06C
:100C620010E08FC0ED2DF0E0CF01880F991F880FA3
:100C7200991F8E0F9F1F840F951FDC0112966D9195
:100C82007C911397DF01AA0FBB1F9F01220F331F15
:100C9200220F331F220F331FA20FB31F5D01AC0EB1
:100CA200BD1ED50119967C936E931897DC0114969C
:100CB2002C91D50117962C93179714961C930E938B
:100CC2001397DC012D913C91119714968C91829F80
:100CD2007001839FF00C1124B6E0EB0EF11CD501DC
:100CE2001696FC92EE9215979801ABEABAEA0E9428
:100CF200BD1B96958795929582958F7089279F70D7
:100D020089279F012F5F3F4FD901AA0FBB1F220FD7
:100D1200331F220F331F220F331FA20FB31FAC0F3B
:100D2200BD1F8C930E0D1F1D9801ABEABAEA0E94FB
:100D3200BD1B7C01F694E794F694E794F694E7944D
:100D4200F694E794F694E794BE2C20E32E9DC0011E
:100D52002F9D900D11240817190719F4BB24BA947A
:100D6200BE0CCF01880F991FEE0FFF1FEE0FFF1F62
:100D7200EE0FFF1FE80FF91FEC0FFD1FB38614865D
:100D8200D394DC1408F46ECF9801ABEABAEA0E945D
:100D9200BD1BFC01F695E795F295E295EF70EF2702
:100DA200FF70EF274E2F52E05E0F20E32E9FC0010F
:100DB2002F9F900D1124081B190B11F451E05E0FA7
:100DC2005983012B11F041E04E0FFE01E558FF4F10
:100DD200408380E007C0FE01E80FF11DE458FF4F99
:100DE20010828F5F8417B8F3DF91CF911F910F911B
:0E0DF200FF90EF90DF90CF90BF90AF900895EC
:100E0000CF93DC01262F30E0C9010197F901EE0FE5
:100E1000FF1F220F331F220F331F220F331FE20F3A
:100E2000F31FEA0FFB1F7081C0E025C082179307F4
:100E300009F1A901440F551F440F551F440F551FB9
:100E4000F901EE0FFF1FE40FF51FEA0FFB1F4385AB
:100E5000741310C0F901EE0FFF1F220F331F220F72
:100E6000331F220F331FE20FF31FEA0FFB1F2485EE
:100E7000233041F4CF5F2C2F30E028173907B4F22C
:100E800021E001C020E0222339F0FD01E70FF11D30
:100E9000E458FF4F21E020839C01220F331F220FD3
:100EA000331F220F331FFC01EE0FFF1FE20FF31F52
:100EB000EA0FFB1FC38529C0462F50E08417950712
:100EC00019F19A012F5F3F4FF901EE0FFF1F220F1B
:100ED000331F220F331F220F331FE20FF31FEA0FBE
:100EE000FB1F2081C21310C0FA01EE0FFF1F440F39
:100EF000551F440F551F440F551FE40FF51FEA0FF0
:100F0000FB1F2485233041F46F5F12962C911297BA
:100F1000621790F281E001C080E0882341F0FD017A
:100F2000EC0FF11DE458FF4F81E0808306C0FD0106
:100F3000EC0FF11DE458FF4F10828C2F90E0871BBF
:100F40009109029764F07F5F08C0FD01E70FF11D72
:100F5000E458FF4F81E080837F5F7C17B0F3CF912F
:020F60000895F2
:100F62000F931F93CF93DF93CDB7DEB727970FB6BB
:100F7200F894DEBF0FBECDBF8C0121E046E353E003
:100F820060E081E50E94BC1D81117CC047E0BE018A
:100F92006F5F7F4F81E50E94091B811175C0298116
:100FA200822F8F7790E09595879595958795959562
:100FB200879595958795880F982F990F990F890F87
:100FC2002F70820FF80180832A81822F8F7790E021
:100FD20095958795959587959595879595958795F7
:100FE200880F982F990F990F890F2F70820F818385
:100FF2002B81822F8F7390E0959587959595879594
:101002009595879595958795880F982F990F990FA4
:10101200890F2F70820F82832C81822F8F7390E031
:1010220095958795959587959595879595958795A6
:10103200880F982F990F990F890F2F70820F838332
:101042002E81822F8F7190E0959587959595879542
:101052009595879595958795880F982F990F990F54
:10106200890F2F70820F84838F81982F92959F70A2
:10107200990F292F220F220F920F8F70890F8583CC
:1010820080E003C082E001C082E027960FB6F894A8
:10109200DEBF0FBECDBFDF91CF911F910F9108959B
:1010A2004F925F926F927F928F929F92AF92BF9276
:1010B200CF92DF92EF92FF920F931F93CF93DF9322
:1010C20000D000D000D0CDB7DEB7F901492E512CA7
:1010D200612C712C032E3AE1440C551C661C771CC2
:1010E2003A95D1F7302D90E0A0E0B0E0072E76E1FE
:1010F200880F991FAA1FBB1F7A95D1F7702D8429DB
:101102009529A629B729872E912CA12CB12C072E1F
:1011120071E1880C991CAA1CBB1C7A95D1F7702D21
:1011220088299929AA29BB29C62ED12CE12CF12C78
:101132000B2EBCE0CC0CDD1CEE1CFF1CBA95D1F7CB
:10114200B02D8C299D29AE29BF29052F10E020E062
:1011520030E0000F111F221F331F000F111F221F2B
:10116200331F000F111F221F331F000F111F221FD9
:10117200331F000F111F221F331F000F111F221FC9
:10118200331F802B912BA22BB32B842BB083A183F3
:101192009283838326960FB6F894DEBF0FBECDBF2F
:1011A200DF91CF911F910F91FF90EF90DF90CF9041
:1011B200BF90AF909F908F907F906F905F904F9075
:0211C20008958E
:1011C4008F929F92AF92BF92CF92DF92EF92FF9253
:1011D4000F931F93CF93DF93EC016B014A015901E5
:1011E4000E94341A8F3F2FEF920709F466C08C15C2
:1011F4009D0509F064C080E009C0FE01E80FF11DFF
:10120400E458FF4F9081913041F08F5FFE01E55823
:10121400FF4F9081891788F380E091E0980FF401E3
:1012240090839981F501908390E040E3489F900179
:10123400499F300D1124F80131832083FE01E558C4
:10124400FF4F208130E021503109821793072CF49D
:1012540080E3F701808381E033C08A8190E00197C5
:101264009C01220F331F880F991F880F991F880F25
:10127400991F820F931FC80FD91F4B815C818D81E9
:101284009E81480F591F9A01ABEABAEA0E94BD1B1E
:1012940096958795929582958F7089279F70892757
:1012A40060E3689F9001699F300D1124CA01821B7D
:1012B400930BF701808381E003C080E001C080E0EC
:1012C400DF91CF911F910F91FF90EF90DF90CF901E
:0A12D400BF90AF909F908F90089597
:1012DE008091C20D823089F128F4882359F0813033
:1012EE0021F1F6CF843009F466C098F1853009F407
:1012FE0040C0EECFE2E5FDE0678570894AE659E031
:10130E00818992890E94391581115BC0E2E5FDE069
:10131E006489758942E157E086890E942B138111F9
:10132E0052C081E08093C20DD3CF8FE79DE00E9423
:10133E00B10782E08093C20DCBCF0E94781D0E9430
:10134E00601D8AE090E00E94F71A83E08093C20D40
:10135E00BFCF0E94211C8823C1F10E94DB1B882372
:10136E00B1F10E94131C8823A1F185E08093C20D78
:10137E00AFCF26E93DE040917F0D5091800D6091F9
:10138E00810D7091820D8091830D9091840D0E943C
:10139E0051084AE659E066E97DE084E00E94551264
:1013AE0042E157E066E97DE085E00E94551284E057
:1013BE008093C20D8DCF0E94E21C0E94D81C81E04A
:1013CE00089583E0089583E0089580E0089580E015
:0613DE00089580E008956F
:1013E400DF92EF92FF920F931F93CF93DF93CDB7CA
:1013F400DEB728970FB6F894DEBF0FBECDBFD82E48
:101404007B01042F10E0E12FF0E0EA30F105D8F77A
:10141400E55BFF4F0C94841D202FA7016D2D80E9FF
:1014240092E00E94330E80E992E00E94F71B80E96B
:1014340092E00E94051C41E050E062E070E0CE01C1
:1014440001960E94661D2AEF32E040E060E0CE0182
:1014540001960E946C1D15E0D6CF41E050E064E097
:1014640070E0CE0101960E94661D2DEF32E040E04F
:1014740060E0CE0101960E946C1D15E0C4CF60E9C6
:1014840072E080E80E94F712182FBDCF85E018C0E3
:1014940086E016C082E014C00E94311D882309F43E
:1014A400B2CF80E992E00E94C81D60E972E0CE01EB
:1014B40001960E948D13182FA6CF80E001C083E00F
:1014C40028960FB6F894DEBF0FBECDBFDF91CF9143
:0C14D4001F910F91FF90EF90DF900895A2
:1014E0008091C30D823081F128F4882351F081303E
:1014F00019F1F6CF843009F45DC070F18530C1F187
:10150000EFCFE2E5FDE0658176814AE659E087812B
:1015100090850E943915811153C0E2E5FDE0628596
:10152000738542E157E084850E942B1381114AC0E4
:1015300081E08093C30DD4CF8FE79DE00E94B10777
:1015400082E08093C30DCCCF0E94781D0E94601D65
:1015500083E08093C30DC4CF0E94211C8823A1F196
:101560000E94DB1B882391F185E08093C30DB8CFE7
:1015700026E93DE040917F0D5091800D6091810DF5
:101580007091820D8091830D9091840D0E9451087D
:101590004AE659E066E97DE082E00E94551242E1A8
:1015A00057E066E97DE083E00E94551284E0809375
:1015B000C30D96CF0E94E21C0E94D81C81E00895C2
:1015C00083E0089583E0089580E0089580E0089521
:1015D0008091C10D823081F128F4882351F081304F
:1015E00019F1F6CF843009F45DC070F18530C1F196
:1015F000EFCFE2E5FDE0618D728D4AE659E0838D23
:10160000948D0E943915811153C0E2E5FDE0668D8D
:10161000778D42E157E080A10E942B1381114AC0CF
:1016200081E08093C10DD4CF8FE79DE00E94B10788
:1016300082E08093C10DCCCF0E94781D0E94601D76
:1016400083E08093C10DC4CF0E94211C8823A1F1A7
:101650000E94DB1B882391F185E08093C10DB8CFF8
:1016600026E93DE040917F0D5091800D6091810D04
:101670007091820D8091830D9091840D0E9451088C
:101680004AE659E066E97DE086E00E94551242E1B3
:1016900057E066E97DE087E00E94551284E0809380
:1016A000C10D96CF0E94E21C0E94D81C81E00895D3
:1016B00083E0089583E0089580E0089580E0089530
:1016C00010C00E94461D58F00E943F1D40F029F4B2
:1016D0005F3F29F00C947E1D51110C944E1D0C940B
:1016E000D11D0E94591768F39923B1F3552391F343
:1016F000951B550BBB27AA2762177307840738F081
:101700009F5F5F4F220F331F441FAA1FA9F335D0DD
:101710000E2E3AF0E0E832D091505040E695001C91
:10172000CAF72BD0FE2F29D0660F771F881FBB1F4B
:10173000261737074807AB07B0E809F0BB0B802D29
:10174000BF01FF2793585F4F3AF09E3F510578F055
:101750000C947E1D0C944E1D5F3FE4F3983ED4F331
:10176000869577956795B795F7959F5FC9F7880F29
:10177000911D9695879597F90895E1E0660F771F7B
:10178000881FBB1F621773078407BA0720F0621B0C
:0E179000730B840BBA0BEE1F88F7E0950895DB
:10179E00CF92DF92EF92FF920F931F93CF93DF932F
:1017AE00DC01EB0190E040E0C12CD12C76014AC067
:1017BE00292F30E0F901EE0FFF1F220F331F220FEA
:1017CE00331F220F331FE20FF31FEA0FFB1F278178
:1017DE002230A9F0243021F1213091F501E010E002
:1017EE00042E02C0000F111F0A94E2F7012E000C06
:1017FE00220B330BC02AD12AE22AF32A21C002E09F
:10180E0010E0042E02C0000F111F0A94E2F7012E01
:10181E00000C220B330BC02AD12AE22AF32A10C065
:10182E0003E010E0042E02C0000F111F0A94E2F72D
:10183E00012E000C220B330BC02AD12AE22AF32AE6
:10184E004E5F9F5F12968C911297981708F4B0CF47
:10185E00EB82DC82CD82DF91CF911F910F91FF90B1
:08186E00EF90DF90CF90089588
:101876000FC00E943F1D38F00E94461D20F09523A0
:1018860011F00C947E1D0C94D11D11240C944E1D48
:101896000E94591770F3959FC1F3950F50E0551F9D
:1018A600629FF001729FBB27F00DB11D639FAA27AF
:1018B600F00DB11DAA1F649F6627B00DA11D661FFE
:1018C600829F2227B00DA11D621F739FB00DA11D1F
:1018D600621F839FA00D611D221F749F3327A00DD9
:1018E600611D231F849F600D211D822F762F6A2F75
:1018F60011249F5750409AF0F1F088234AF0EE0FDA
:10190600FF1FBB1F661F771F881F91505040A9F706
:101916009E3F510580F00C947E1D0C944E1D5F3F3A
:10192600E4F3983ED4F3869577956795B795F79542
:10193600E7959F5FC1F7FE2B880F911D96958795BA
:0419460097F9089570
:10194A008091C40D823029F128F4882351F0813026
:10195A00C1F0F6CF843009F44EC030F1853081F100
:10196A00EFCFE2E5FDE0608171814AE659E08281CC
:10197A0093810E943915811142C081E08093C40D80
:10198A00DFCF8FE79DE00E94B10782E08093C40D0C
:10199A00D7CF81E00E948E1B811133C00E94781D2F
:1019AA0083E08093C40DCCCF0E94F51C882359F1A3
:1019BA000E94211C882349F185E08093C40DC0CF81
:1019CA0026E93DE040917F0D5091800D6091810D97
:1019DA007091820D8091830D9091840D0E9451081F
:1019EA004AE659E066E97DE081E00E94551284E00A
:1019FA008093C40DA5CF0E94E21C81E0089583E084
:0E1A0A00089583E0089580E0089580E0089537
:101A180011C00E943F1D38F00E94461D20F039F485
:101A28009F3F19F426F40C94D11D0EF4E095E7FBC2
:101A38000C947E1DE92F0E94591758F3BA176207B4
:101A480073078407950720F079F4A6F50C944D1DCB
:101A58000EF4E0950B2EBA2FA02D0B01B9019001C1
:101A68000C01CA01A0011124FF27591B99F0593F05
:101A780050F4503E68F11A16F040A22F232F342F4D
:101A88004427585FF3CF469537952795A795F0409B
:101A98005395C9F77EF41F16BA0B620B730B840BB0
:101AA800BAF09150A1F0FF0FBB1F661F771F881F68
:101AB800C2F70EC0BA0F621F731F841F48F48795C0
:101AC80077956795B795F7959E3F08F0B0CF9395B2
:0E1AD800880F08F09927EE0F979587950895CF
:101AE6001F93CF93DF93CDB7DEB72D970FB6F8943C
:101AF600DEBF0FBECDBF182F81E0898382E08A83C7
:101B060085E0E5E8FDE0DE01139601900D928A95E9
:101B1600E1F7CE0108960E94B1078985810F99E801
:101B2600899F912D11249295969597702CE3929FFB
:101B3600801911248987AE014F5F5F4F60E822E06C
:101B460081E50E94FE1C811120C099858DEC989F2D
:101B5600812D112486958695869540E1849F900176
:101B66001124880F382F330F330F830F981B922BB6
:101B76009C83AE014D5F5F4F60E825E081E50E94E2
:101B8600FE1C882321F082E003C082E001C080E0D1
:101B96002D960FB6F894DEBF0FBECDBFDF91CF9165
:041BA6001F910895EE
:101BAA00FA01AA27283051F1203181F1E8946F9384
:101BBA006E7F6E5F7F4F8F4F9F4FAF4FB1E03ED02A
:101BCA00B4E03CD0670F781F891F9A1FA11D680FC8
:101BDA00791F8A1F911DA11D6A0F711D811D911DFB
:101BEA00A11D20D009F468943F912AE0269F112470
:101BFA003019305D3193DEF6CF010895462F4770D4
:101C0A00405D4193B3E00FD0C9F7F6CF462F4F702E
:101C1A00405D4A3318F0495D31FD4052419302D08C
:101C2A00A9F7EACFB4E0A695979587957795679532
:101C3A00BA95C9F700976105710508959B01AC0132
:101C4A000A2E06945795479537952795BA95C9F759
:0C1C5A00620F731F841F951FA01D0895CA
:101C6600DF92EF92FF920F931F93CF93DF93CDB73F
:101C7600DEB7C756D1090FB6F894DEBF0FBECDBF8B
:101C86008C019FEF960F9F3D68F59FEF920F933360
:101C960060F5D62E30E060E8CE0101967C010E9408
:101CA600EB10C701A0E8AF939F93EF921F92DF92CC
:101CB60083E892E0A0E0AF939F938F938EE892E043
:101CC600A0E0AF939F938F931F930F930E941417D7
:101CD600B80180E80E94921A0FB6F894DEBF0FBED4
:101CE600CDBF05C08FEF9FEF02C08FEF9FEFC959A1
:101CF600DF4F0FB6F894DEBF0FBECDBFDF91CF9199
:0C1D06001F910F91FF90EF90DF90089567
:101D12000F931F93CF93DF938C01EB01FC01818121
:101D22008883818189831A82C8010E94CF0B20E0B7
:101D320035C0822F90E0DC01AA0FBB1FAA0FBB1F88
:101D4200AD014A5F5F4F4C0F5D1FFC01EE0FFF1F9D
:101D5200880F991F880F991F880F991FE80FF91F85
:101D6200BF01600F711FFB018481FA018083CD01E5
:101D720007968C0F9D1FFB013381FC013083CD013F
:101D820008968C0F9D1FFB013681FC01308319964A
:101D9200AC0FBD1FFB0185818C932F5FF8018281FF
:101DA200281738F2880F880F8A5FDF91CF911F9131
:041DB2000F910895F0
:101DB6000F931F93CF93DF938C01EB011882FC01E5
:101DC600818189831A82C8010E94CF0B20E035C029
:101DD600822F90E0DC01AA0FBB1FAA0FBB1FAD012B
:101DE6004A5F5F4F4C0F5D1FFC01EE0FFF1F880F10
:101DF600991F880F991F880F991FE80FF91FBF01B8
:101E0600600F711FFB018481FA018083CD01079663
:101E16008C0F9D1FFB013381FC013083CD01089699
:101E26008C0F9D1FFB013681FC0130831996AC0F88
:101E3600BD1FFB0185818C932F5FF80182812817D6
:101E460038F2880F880F8A5FDF91CF911F910F912B
:021E56000895ED
:101E58000F931F93CF93DF9300D000D000D0CDB75E
:101E6800DEB78C018FEF9FEFF801918380830E948A
:101E78008A1D811107C08EEF9FEFF801918380833F
:101E880083E02CC022E044E353E060E081E60E9456
:101E9800FE1C81111EC08FE39FE10197F1F700C07E
:101EA800000046E0BE016F5F7F4F81E60E94E51AA1
:101EB800811111C0CE0101960E94D219882369F0C0
:101EC800CE0101960E943D1CF8019183808380E039
:101ED80005C081E003C081E001C081E026960FB60D
:101EE800F894DEBF0FBECDBFDF91CF911F910F9148
:021EF80008954B
:101EFA001F920F920FB60F9211242F933F934F9375
:101F0A005F936F937F938F939F93AF93BF93CF9377
:101F1A00EF93FF939091B00D9F5F9093B00D89E07E
:101F2A00989F212D1124892F821B8695820F8295D5
:101F3A008F702FE1829F90191124911113C0109272
:101F4A00B00DC0E00DC0EC2FF0E0EE0FFF1FEB5814
:101F5A00F24F0190F081E02D309709F00995CF5F9B
:101F6A00C53088F3FF91EF91CF91BF91AF919F91C7
:101F7A008F917F916F915F914F913F912F910F9028
:081F8A000FBE0F901F90189587
:101F92008F929F92AF92BF92CF92DF92EF92FF9277
:101FA200BC0180E090E00E946A1120E030E040E84D
:101FB20059E30E94B21D8090920D9090930DA090D3
:101FC200940DB090950DA50194010E94B21D6B0174
:101FD2007C019B01AC01C501B4010E94381DA7011F
:101FE20096010E94AE1D20918E0D30918F0D409171
:101FF200900D5091910D0E94B21D20918A0D309149
:102002008B0D40918C0D50918D0D0E94B21D0E943E
:10201200BC13CB01FF90EF90DF90CF90BF90AF90B9
:062022009F908F900895CD
:10202800AF92BF92CF92DF92EF92FF920F931F93DE
:10203800CF93DF9300D000D01F92CDB7DEB76B01EE
:102048005A019E012B5F3F4F79018E010D5F1F4F93
:1020580023503109AE014F5F5F4FBC0188E593E023
:102068000E94E2088823B1F04D8183E0840FF501D6
:10207800808380915803F6018083898181838A81D6
:10208800828350E06B817C81C60103960E941C1AF2
:1020980081E001C080E00F900F900F900F900F909B
:1020A800DF91CF911F910F91FF90EF90DF90CF902C
:0620B800BF90AF900895F7
:1020BE00CF92DF92FF920F931F93CF93DF93DC01AA
:1020CE00942F0CC0C92FD0E0E41BF50BEA0FFB1FB9
:1020DE008081FE01EE50FC4F80839F5FE92FF0E080
:1020EE006A0186E0C80ED11CEC15FD0558F326508A
:1020FE00310936952795495F5F4FA0E0B0E016C0D5
:10210E00CD01880F991FF601E80FF91F8B01080FFB
:10211E00191FE801F980EE50FC4FF082840F951FD5
:10212E001881FC01EE50FC4F10831196A217B307D5
:10213E0038F3DF91CF911F910F91FF90DF90CF90E9
:02214E000895F2
:102150000F931F93CF93DF938C01A62FB0E01197BD
:10216000FD01EE0FFF1FCD01880F991F880F991FEA
:10217000880F991FE80FF91FE00FF11F83E0848794
:1021800090E00AC0E92FF0E0E901CE0FDF1FE40F75
:10219000F51F808188839F5F9430A0F3CD01880F65
:1021A000991FAA0FBB1FAA0FBB1FAA0FBB1FA80F07
:1021B000B91FA00FB11F19968C911997F90184834B
:1021C00018968C918583C8010E940007DF91CF91FA
:0621D0001F910F9108951C
:1021D6006F927F928F92EF92FF920F931F93CF93FE
:1021E600DF937C013A01862E8901C0E0D0E025C04C
:1021F600A82DC3018C0F9D1FA11DD7FDAA95FC011B
:102206002491A7FD2081CE01880F991F1F922F933D
:1022160024E232E040E04F933F932F938E0D9F1DB3
:102226009F938F930E94141721968DB79EB707969A
:102236000FB6F8949EBF0FBE8DBFC017D107C4F26C
:10224600DF91CF911F910F91FF90EF908F907F902C
:042256006F900895E8
:10225A00CF93DF93CDB7DEB7C354D1090FB6F89445
:10226A00DEBF0FBECDBF22E531E040E081E1F901DA
:10227A00DE011196742F0E944A1C23E631E040E0E9
:10228A0081E1F901DE015296742F0E944A1C24E76B
:10229A0031E040E081E2F901DE019396742F0E9459
:1022AA004A1CAE014D5D5F4FBE016E5E7F4FCE018F
:1022BA0001960E94BF1DCD5BDF4F0FB6F894DEBFBB
:0A22CA000FBECDBFDF91CF91089544
:1022D400E89409C097FB3EF49095809570956195BC
:1022E4007F4F8F4F9F4F9923A9F0F92F96E9BB2772
:1022F4009395F695879577956795B795F111F8CFEE
:10230400FAF4BB0F11F460FF1BC06F5F7F4F8F4F58
:102314009F4F16C0882311F096E911C0772321F04E
:102324009EE8872F762F05C0662371F096E8862FE6
:1023340070E060E02AF09A95660F771F881FDAF73D
:0A234400880F9695879597F9089584
:10234E000F931F93CF93DF93FB01248121FD03C0D5
:10235E008FEF9FEF2CC022FF16C04781508525813D
:10236E0036814217530744F4A081B1819D012F5F3E
:10237E003F4F318320838C93278130852F5F3F4FD2
:10238E003087278314C08B01EC01FB010184F28599
:10239E00E02D0995892BE1F6D80117968D919C9128
:1023AE001897019618969C938E931797CE01DF91EE
:0823BE00CF911F910F910895CA
:1023C6001F920F920FB60F9211242F938F939F9304
:1023D600EF93FF938091B20D81110EC0E091B30D82
:1023E600E43650F481E08E0F8093B30DF0E08091D7
:1023F600C600E050FF4F80838091B30D833080F09C
:1024060090E0FC01E150FF4F20812A3049F4FC01A5
:10241600E250FF4F80818D3019F481E08093B20D38
:10242600FF91EF919F918F912F910F900FBE0F907B
:042436001F90189546
:10243A001F920F920FB60F9211242F938F939F938F
:10244A00EF93FF938091B60D81110EC0E091B70D05
:10245A00E43650F481E08E0F8093B70DF0E080915E
:10246A00CE00E251F34F80838091B70D90E0FC01DA
:10247A00E351F34F20812A3049F4FC01E451F34F30
:10248A0080818D3019F481E08093B60DFF91EF9130
:10249A009F918F912F910F900FBE0F901F901895BB
:1024AA00EF92FF921F93CF93DF93CDB7DEB72A97B0
:1024BA000FB6F894DEBF0FBECDBF182F7A019E016A
:1024CA002F5F3F4FAB01682F88E593E00E94A81069
:1024DA009E01275F3F4FAE01495F5F4F612F88E53D
:1024EA0093E00E94CD1829853A854F815885B70116
:1024FA00CE0101960E945F102A960FB6F894DEBFAD
:10250A000FBECDBFDF91CF911F91FF90EF9008953D
:10251A00CF92DF92EF920F931F93CF936B01E82E26
:10252A00C0E012C08C2F90E04E2D9601200F311F73
:10253A00411D17FD4A95F901249147FD2081FC01AF
:10254A00EC59FE4F2083CF5F0C2F10E08E2DB60181
:10255A000E94921A0817190728F38093B50D81E093
:10256A008093B40D809164018093C600CF911F912E
:0A257A000F91EF90DF90CF900895CD
:10258400CF92DF92EF920F931F936B01E82E011508
:10259400110519F101501109F6018491E7FC8081BC
:1025A400882399F0F901949147FD9081992369F06A
:1025B4000115110551F0891308C08FEFC81AD80A04
:1025C400E80A2F5F3F4F4F4FE5CF90E0F901249188
:1025D40047FD2081821B910902C080E090E01F9199
:0A25E4000F91EF90DF90CF90089563
:1025EE00CF92DF92EF926B01E82E2FEC32E040E0BB
:1025FE000E94BD17892BE9F02AED32E040E08E2DC6
:10260E00B6010E94BD17892BB1F022EE32E040E0F8
:10261E008E2DB6010E94F61581110FC029EE32E003
:10262E0040E08E2DB6010E94F615882341F089E018
:10263E0007C087E005C088E003C083E001C086E0E4
:08264E00EF90DF90CF9008959A
:10265600CF935093A10D4093A00D7093A30D60935B
:10266600A20D10929F0D10929E0D6EEC76E10E94C7
:102676005E1B81E00E94921C2FEF83EC99E02150B3
:1026860080409040E1F700C0000060E08DE40E94C9
:102696001B16C82F0E94061DCC2351F01092A10DC7
:1026A6001092A00D1092A30D1092A20D82E001C00F
:0626B60080E0CF910895C1
:1026BC00CF93DF93443651056105710518F1EC0198
:1026CC007F936F935F934F938CE292E0A0E0AF9374
:1026DC009F938F9386E392E0A0E0AF939F938F93A9
:1026EC00DF93CF930E941417BE0180E80E94921AC8
:1026FC002DB73EB7245F3F4F0FB6F8943EBF0FBEC9
:0E270C002DBF02C08FEF9FEFDF91CF91089598
:10271A00CF93DF93EC01FB019C81913091F018F08B
:10272A009230E9F01FC02D813E814F8180E80E94DE
:10273A00BD17892B19F48881998116C08A819B81DA
:10274A0013C04D815E816F81CF010E9437178823A4
:10275A0019F08881998108C08A819B8105C0888186
:0E276A00998102C08A819B81DF91CF910895F1
:102778000E94611788F09F5798F0B92F9927B75191
:10278800B0F0E1F0660F771F881F991F1AF0BA950D
:10279800C9F714C0B13091F00E944D1DB1E0089501
:1027A8000C944D1D672F782F8827B85F39F0B93FF3
:1027B800CCF3869577956795B395D9F73EF49095C0
:0E27C8008095709561957F4F8F4F9F4F0895BC
:1027D600EF92FF921F93CF93DF9300D0CDB7DEB772
:1027E6007C018FEF9FEFF7019183808342E0BE016A
:1027F6006F5F7F4F8DE40E94E51A182F81110DC07F
:10280600898190E0982F88272A81822B0E94C90F00
:10281600F70191838083812F01C081E00F900F9093
:0C282600DF91CF911F91FF90EF9008957B
:10283200EF92FF920F931F93CF93DF938C01D62FCA
:10284200C0E008C07801EC0EF11C0E94C41CF70124
:102852008083CF5F2C2F30E08D2F90E001972817D7
:10286200390784F38D2F90E00197E801C80FD91F33
:102872000E94CE1C88830E94061D80E0DF91CF91CA
:0A2882001F910F91FF90EF90089551
:10288C00CF92DF92EF926C0120E8E22E27E033E04A
:10289C0040E08E2DB6010E94BD17892BA1F022E1DC
:1028AC0033E040E08E2DB6010E94BD17892B69F0F4
:1028BC0029E133E040E08E2DB6010E94BD17892B33
:1028CC0031F484E005C083E003C083E001C082E002
:0828DC00EF90DF90CF9008950A
:1028E400CF93DC016091B10D653000F590E015C027
:1028F400292F30E0F901EE0FFF1FEB58F24F408112
:102904005181452B49F4220F331FF901EB58F24F43
:10291400B183A083C92F04C09F5F953048F3CFEFE4
:102924006F5F6093B10D0E94A61D01C0CFEF8C2F85
:04293400CF910895A2
:10293800CF93DF9300D0CDB7DEB79DE09983813088
:1029480031F018F0803231F013C01A8205C083E8E4
:102958008A8302C082E88A83AE014F5F5F4F60E8D6
:1029680022E081E50E94FE1C882321F082E003C05A
:1029780081E001C080E00F900F90DF91CF91089522
:102988001F920F920FB60F9211242F933F934F93DC
:102998005F936F937F938F939F93AF93BF93EF93BF
:1029A800FF93E0919A0DF0919B0D0995FF91EF919E
:1029B800BF91AF919F918F917F916F915F914F914F
:0E29C8003F912F910F900FBE0F901F9018950A
:1029D6001F920F920FB60F9211242F933F934F938E
:1029E6005F936F937F938F939F93AF93BF93EF9371
:1029F600FF93E0919C0DF0919D0D0995FF91EF914C
:102A0600BF91AF919F918F917F916F915F914F9100
:0E2A16003F912F910F900FBE0F901F901895BB
:102A24000F931F93CF93DF93EC012F931F930F9377
:102A34006F935F934F938DE392E0A0E0AF939F93E6
:102A44008F93DF93CF930E941417BE0180E80E94F6
:102A5400921A2DB73EB7255F3F4F0FB6F8943EBF8D
:0E2A64000FBE2DBFDF91CF911F910F910895EE
:102A7200CF93DF93EC017093AD0D6093AC0D109288
:102A8200A90D1092A80D5093AB0D4093AA0D0E9470
:102A92002A1D61EF76E1CE010E94391981E00E9480
:102AA200A61C2FEF83ED90E3215080409040E1F788
:0E2AB20000C000000E949518DF91CF9108959A
:102AC000CF92DF92EF92CF93DF936A01E62ED22F5F
:102AD00060E00E941B16811113C0C0E00EC0AE2D35
:102AE000C6018C0F911DA11DFC018491A7FD808161
:102AF0000E947E1B811104C0CF5FCD1780F380E060
:0C2B0000DF91CF91EF90DF90CF9008950F
:102B0C0040E05CE566E275E080E992E00E945E13CD
:102B1C0080E992E00E94F71B80E992E00E94051C7C
:102B2C000E94311D8823E1F380E992E00E94C81DC8
:102B3C0060E972E080E821E333E040E00E94BD17D9
:0C2B4C00892B11F480E0089581E00895C9
:102B58001F920F920FB60F9211248F93EF93FF934A
:102B6800E091B40D8091B50DE81758F481E08E0F0F
:102B78008093B40DF0E0EC59FE4F80818093C6003D
:102B880004C01092B40D1092B50DFF91EF918F9182
:0A2B98000F900FBE0F901F901895CC
:102BA2001F920F920FB60F9211248F93EF93FF9300
:102BB200E091B80D8091B90DE81758F481E08E0FBD
:102BC2008093B80DF0E0EE53F44F80818093CE00F5
:102BD20004C01092B80D1092B90DFF91EF918F9130
:0A2BE2000F900FBE0F901F90189582
:102BEC006F927F928F92CF92DF92EF920F931F93FF
:102BFC003B01882E6901E42E842FB9010E94921AA0
:102C0C008C014E2D9601882DB3010E94C21221E039
:102C1C00892B09F020E0822F1F910F91EF90DF900C
:0A2C2C00CF908F907F906F90089575
:102C360090E0880F991F682B84EA8093BC009091DE
:102C4600BC009923E4F78091B900887F883099F415
:102C56006093BB0084E88093BC008091BC0088230D
:102C6600E4F78091B900887F883121F0803419F427
:082C760080E0089580E008955C
:102C7E00CF92DF92EF920F931F93CF93DF93EC01DE
:102C8E006B0180E8E82E8E2DB6010E94921A4097B5
:102C9E0049F42E2D860143E452E060E0CE010E94FD
:102CAE00121502C08FEF9FEFDF91CF911F910F9101
:082CBE00EF90DF90CF90089524
:102CC600CF92DF92EF920F931F93CF93DF93EC0196
:102CD6006B0180E8E82E8E2DB6010E94921A40976D
:102CE60049F42E2D860142E552E060E0CE010E94B5
:102CF600121502C08FEF9FEFDF91CF911F910F91B9
:082D0600EF90DF90CF900895DB
:102D0E00CF92DF92EF920F931F93CF93DF93EC014D
:102D1E006B0180E8E82E8E2DB6010E94921A8097E4
:102D2E0049F42E2D860141E652E060E0CE010E946C
:102D3E00121502C08FEF9FEFDF91CF911F910F9170
:082D4E00EF90DF90CF90089593
:102D5600CF93DF931F92CDB7DEB79AB192609AB93F
:102D6600E1ECF0E09081977F90839BB19D7F9BB9CA
:102D7600AFE9BFE01197F1F700C0000090819860BD
:102D86009083898361E0CE0101960E9453190F90CA
:062D9600DF91CF910895CA
:102D9C008091A00D9091A10D20919E0D30919F0DD1
:102DAC00A9014F5F5F4F50939F0D40939E0D220FD3
:102DBC00331F820F931F0E94EB1320919E0D3091B5
:102DCC009F0D8091A20D9091A30D2817390710F03B
:062DDC000E94D61D0895BF
:102DE2008091AA0D9091AB0D2091A80D3091A90D63
:102DF200A9014F5F5F4F5093A90D4093A80D220F79
:102E0200331F820F931F0E942C0F2091A80D309127
:102E1200A90D8091AC0D9091AD0D2817390710F0D6
:062E22000E945A1D0895F4
:102E2800AFE0B0E0EAE1F7E10C94BF180E891F8922
:102E380086E08D831A8309838FEF9FE79F838E83B4
:102E48009E01255E3F4F488D598D6A8DCE010196B2
:102E58000E949C01E885F985E00FF11F10822F96EA
:062E6800E4E00C942C19BB
:102E6E00CF92DF92EF920F931F93CF93DF93EC01EC
:102E7E006A01E62E862FBA010E94921A8C01BE01BB
:102E8E0080E84E2D96010E94C21221E0892B09F096
:102E9E0020E0822FDF91CF911F910F91EF90DF9065
:042EAE00CF90089524
:102EB20057FD9058440F551F59F05F3F71F04795E9
:102EC200880F97FB991F61F09F3F79F087950895CE
:102ED200121613061406551FF2CF4695F1DF08C0ED
:102EE200161617061806991FF1CF8695710561050A
:042EF20008940895A3
:102EF60084B18B7F84B985B1846085B9E9E6F0E059
:102F060080818F7E80838081806280838DB38460A0
:102F16008DBB83B7817F846083BF83B7816083BFA6
:102F26007894889583B78E7F83BF8DB38B7F8DBB57
:022F36000895FC
:102F380090E0880F991F282F216084EA8093BC00B5
:102F48009091BC009923E4F78091B900887F803183
:102F580079F42093BB0084E88093BC008091BC0086
:102F68008823E4F78091B900887F803409F480E0F1
:022F78000895BA
:102F7A00CF92DF92EF926B01E82EF6018491E7FC83
:102F8A008081F901549147FD508185130BC0882334
:102F9A0041F08FEFC81AD80AE80A2F5F3F4F4F4F08
:102FAA00ECCF582F90E0851B9109EF90DF90CF90DE
:022FBA00089578
:102FBC00CF93DF93CDB7DEB7E4970FB6F894DEBFAF
:102FCC000FBECDBFAE014C5C5F4FBE016F5F7F4F3C
:102FDC000E9414106CA9CE0101960E947B1AE496F3
:102FEC000FB6F894DEBF0FBECDBFDF91CF91089521
:102FFC00CF93DF93CDB7DEB7E4970FB6F894DEBF6F
:10300C000FBECDBFBE016C5C7F4FCE0101960E94FE
:10301C002B1B6CA9CE0101960E947B1AE4960FB66D
:0E302C00F894DEBF0FBECDBFDF91CF910895A7
:10303A00CF93DF93CDB7DEB7E4970FB6F894DEBF30
:10304A000FBECDBFBE016C5C7F4FCE0101960E94C0
:10305A003C1B6CA9CE0101960E947B1AE4960FB61E
:0E306A00F894DEBF0FBECDBFDF91CF91089569
:10307800E1ECF0E0808180618083808188608083DA
:10308800808180688083808180648083E0ECF0E0C8
:1030980080818260808386E08093C20080E190E036
:0C30A8009093C5008093C40078940895B4
:1030B400E9ECF0E080818061808380818860808396
:1030C400808180688083808180648083E8ECF0E084
:1030D40080818260808386E08093CA0080E190E0F2
:0C30E4009093CD008093CC007894089568
:1030F000082E000C990BFC01EE0FFF1FEB58F24F4E
:1031000020813181232B81F0880F991FFC01EB581E
:10311000F24F118210828091B10D81508093B10DD8
:0A312000811102C00E94B91D08953C
:10312A0025E047E253E060E081E60E94FE1C81113F
:10313A000FC025E04CE253E060E081E60E94FE1CED
:10314A00811108C00E948A1D8823E1F380E0089556
:08315A0082E0089582E008956F
:103162002F923F924F925F926F927F928F929F9295
:10317200AF92BF92CF92DF92EF92FF920F931F9383
:10318200CF93DF93CDB7DEB7CA1BDB0B0FB6F89434
:08319200DEBF0FBECDBF0994A2
:10319A0070E061507109FB01EE0FFF1F660F771F88
:1031AA00660F771F660F771FE60FF71FE80FF91FE5
:1031BA0083819481DA018D939C9385819681F901AB
:0631CA009183808308954B
:1031D000AC0130E08FEF14C0FA01E30FF11D9081D4
:1031E000892728E00AC0882334F490E0880F991FCB
:1031F00091E3892701C0880F21502111F4CF3F5F4F
:06320000361750F308959B
:10320600CF92DF92EF926B01E82EA82FCB014115EA
:10321600510531F48C199D09EF90DF90CF900895F8
:10322600FC012491A7FD20812223A1F30196A11D73
:0632360041505109ECCFEC
:10323C002A88398848885F846E847D848C849B843A
:10324C00AA84B984C884DF80EE80FD800C811B8148
:10325C00AA81B981CE0FD11D0FB6F894DEBF0FBE77
:06326C00CDBFED01089545
:103272001092800028E020938100109282009093A7
:103282008900809388001092850010928400EFE6F6
:10329200F0E0808182608083789470939D0D6093CA
:0432A2009C0D0895E2
:1032A600DC0190E00BC0292F30E0FD01E20FF31F97
:1032B6004081F901EC59FE4F40839F5F961798F3C2
:1032C6006093B50D81E08093B40D80916401809385
:0432D600C600089591
:1032DA00CF93DF9300D0CDB7DEB781E089831A821E
:1032EA00AE014F5F5F4F60E822E081E50E94FE1C5D
:1032FA00882311F082E001C080E00F900F90DF91E7
:04330A00CF910895C2
:10330E00CF93DF93EC010E94CC1BFE0101900020B5
:10331E00E9F7CF0123E030E049E252E060E00197A7
:10332E000E94EB19BE0180E80E94921ADF91CF91A4
:02333E000895F0
:1033400085E50E94AB160E94311D8823E1F380E9D8
:1033500092E00E94C81D60E972E080E821E333E05A
:1033600040E00E94BD17892B11F480E0089581E0B0
:023370000895BE
:103372000F931F93CF93DF938C01D62F0E94CB1D07
:10338200C82F2D2FA801682F88E593E00E942106FF
:1033920081E08C0F0E94CE1DDF91CF911F910F9182
:0233A20008958C
:1033A400CF93DF93EC0162E00E94E8189A818913BD
:1033B4000AC062E0CE0103960E94E8189D81891735
:1033C40021F080E003C080E001C081E0DF91CF9173
:0233D40008955A
:1033D600CF92DF92EF92DC016A01E62E280F391FA9
:1033E600A217B30751F0F6014491E7FC40814D93D3
:1033F6004FEFC41AD40AE40AF3CFEF90DF90CF90D0
:02340600089527
:103408000F931F93611109C000E712E020E044E721
:1034180052E060E00E94121508C000E812E020E0C7
:1034280044E752E060E00E9412151F910F91089541
:10343800CF93DF93EC0120E030E00CC0DE01A20F57
:10344800B31FF901E60FF71FEE50FC4F90819C93D4
:103458002F5F3F4F2417350788F3DF91CF910895E9
:10346800AC0190E00BC0292F30E0FA01E20FF31F06
:10347800E458FF4F8081813049F09F5FFA01E55899
:10348800FF4F8081981778F32FEF3FEFC901089518
:103498008091A40D9091A50D01969093A50D809310
:1034A800A40D2091A60D3091A70D8217930738F02F
:1034B8008091C00D0E94781880E00E94B01C089589
:1034C800BC0190E009C0FB01E90FF11DDA01A05031
:1034D800BF4F2C9120839F5F492F50E02091B30D5F
:0E34E80030E022503109421753076CF308956B
:1034F6001F93CF93DF939C019091BD0D91110AC04C
:10350600162FE9010E946F1C412FBE0184E60E941E
:0E351600F20901C083E0DF91CF911F9108956B
:10352400CF92DF92EF926B01E82EA82FCB01FC0122
:103534002491A7FD2081222319F00196A11DF7CF24
:0C3544008C199D09EF90DF90CF90089546
:103550009C0190E081E00AC0F901E90FF11DE458F7
:10356000FF4F4081423009F080E09F5FF901E5584C
:0A357000FF4F4081941780F3089587
:10357A000F931F93CF938C010E94641AC091B30DCD
:10358A00C250F801EC0FF11D10820E948F1D8C2F82
:08359A00CF911F910F910895DC
:1035A200CF93633071F018F4662331F003C0655095
:1035B200623010F083E106C0C42F0E94721D8C2F6E
:0835C20001C0842FCF91089590
:1035CA001F93CF93DF93EB01142F61E00E941B1628
:1035DA00811104C0612FCE010E941914DF91CF918D
:0435EA001F91089590
:1035EE001092A50D1092A40D9093A70D8093A60D89
:1035FE008CE49AE10E9472148093C00D81E00E94C7
:04360E00B01C08954F
:103612001F93CF93DF93EB01142F0E949C1781110C
:1036220004C0612FCE010E941914DF91CF911F9126
:023632000895F9
:10363400CF93DF93EC0188E593E00E94341A8883EA
:103644009983892F8095881F8827881FDF91CF91C0
:023654000895D7
:10365600CF93DF93EB0120915803FC012193BF0127
:1036660088E593E00E94DB0E8F5F8883DF91CF9120
:023676000895B5
:10367800CF93DF93EB0120915803FC012193BF0105
:1036880088E593E00E94890E8F5F8883DF91CF9150
:02369800089593
:10369A00092E0394000C11F4882352F0BB0F40F456
:1036AA00BF2B11F460FF04C06F5F7F4F8F4F9F4F96
:0236BA00089571
:1036BC0092E094BD15BC87BD16BCEEE6F0E08081AF
:1036CC0082608083789470939B0D60939A0D08951B
:1036DC0082E08093B0001092B1001092B60010926C
:1036EC00B2009BEF9093B300809370007894089590
:1036FC008093BB0084E88093BC008091BC0088233D
:10370C00E4F78091B900887F883209F480E008954D
:10371C008093BB0D1092BA0D81E00E949C1C63E655
:10372C007CE181E00E945E1B0E94B61D80E0089542
:10373C00FC01E558FF4F208130E0621773073CF421
:10374C00680F791FFB01E458FF4F82E080830895D6
:10375C00833049F018F4882341F003C0855082303F
:0E376C0020F083E10895842F0895862F08959C
:10377A00A29FB001B39FC001A39F700D811D1124A8
:0E378A00911DB29F700D811D1124911D089597
:103798009A01462FDC01F901549147FD50815D9350
:0E37A800552321F02F5F3F4F4F4FF5CF08956F
:1037B60040919E0D50919F0D2091A20D3091A30D29
:0C37C60081E04217530708F480E00895EA
:1037D2008091BE0D8F5F8093BE0D863030F01092C7
:0C37E200BD0D8091BC0D0E947818089568
:1037EE00FC0101900020E9F7CF0123E030E049E22F
:0C37FE0052E060E001970E94EB19089572
:10380A00CF93DF93EC01BC0180E80E94921A682FE3
:0C381A00CE010E945319DF91CF91089558
:103826004091A40D5091A50D2091A60D3091A70DA4
:0C38360081E04217530708F480E0089579
:103842004091A80D5091A90D2091AC0D3091AD0D74
:0C38520081E04217530708F480E008955D
:10385E00833051F0843021F0811104C085E0089549
:0C386E0083E0089583E1089582E008954E
:10387A00FC015481438131812081652F742F832F6C
:0A388A00922F0E94BC13CB01089599
:10389400992777FD05C005900D920197E1F70895EA
:0A38A40001900D920197E1F70895DD
:1038AE000E940B052FEF8DE399E42150804090404C
:0838BE00E1F700C00000F4CFA7
:1038C6008091BA0D8F5F8093BA0D9091BB0D8917C9
:0838D60010F00E94D61D0895B8
:1038DE0089EE9BE10E9472148093BC0D81E080936F
:0838EE00BD0D1092BE0D0895FE
:1038F6000E948D122FEF80E792E021508040904089
:08390600E1F700C00000089584
:10390E00882319F0813029F002C08EE0089583E1FA
:06391E000895862F0895B4
:10392400882321F082B1886082B9089582B1877FAB
:0439340082B90895B7
:10393800882321F082B1806282B9089582B18F7D97
:0439480082B90895A3
:10394C00882321F082B1806182B9089582B18F7E83
:04395C0082B908958F
:10396000882321F08BB180618BB908958BB18F7E54
:043970008BB9089572
:103974001F920F920FB60F9211240F900FBE0F904B
:043984001F901895E3
:1039880084EC8093BC008091BC008823E4F780918C
:04399800BB000895D3
:10399C0084E88093BC008091BC008823E4F780917C
:0439AC00BB000895BF
:1039B0000E94D61D80E00E94921C1092A10D1092D0
:0439C000A00D0895B9
:1039C4000E945A1D80E00E94A61C1092AB0D10921A
:0439D400AA0D08959B
:1039D80080E28093B800E9EBF0E080818C7F8083FF
:0239E800089540
:1039EA002091BA0D9091BB0D81E0291708F480E06F
:0239FA0008952E
:1039FC000E946015811103C00E94061D80E008958D
:103A0C0084E98093BC008091BC0084FDFCCF0895B8
:0E3A1C0081B1886081B982B1877F82B9089537
:0E3A2A0081B1806281B982B18F7D82B9089529
:0E3A380081B1806181B982B18F7E82B908951B
:0E3A46008AB180618AB98BB18F7E8BB90895E9
:0E3A540087B18F7B87B988B18F7B88B90895C1
:0E3A62009091B20D81E0911101C080E00895B5
:0E3A70005058BB27AA270E940C0D0C944D1B2A
:0E3A7E0000240A941616170618060906089565
:0E3A8C0000240A941216130614060506089567
:0E3A9A00E894BB2766277727CB0197F908959C
:0C3AA800E1E8F0E08081866080830895F2
:0C3AB400E1E8F0E08081887F80830895C5
:0C3AC0000E94B61D0E94CE1680E0089502
:0C3ACC00FC0171836083538342830895E2
:0C3AD800FC016483258336834783089536
:0C3AE400BC0188E593E00E949E1B089541
:0C3AF0000E94F1160E94541D80E0089511
:0C3AFC0097F99F6780E870E060E0089593
:0C3B0800EE0FFF1F0590F491E02D0994D2
:0A3B140086B186FB882780F908952A
:0A3B1E001092B20D1092B30D08953D
:0A3B28009091BD0D81E089270895FA
:0A3B320088E593E00E94A81A0895A8
:083B3C0085B18F7E85B9089563
:083B440085B1806185B9089587
:083B4C0087E08093B1000895A9
:083B540086E00E94730D089544
:083B5C000E94600B0C944D1B4C
:083B64000E943B0C0C944D1B68
:063B6C0086E085BD08950E
:063B72001092B10008955D
:063B78000E946015089593
:063B7E000E94C00308953F
:063B84000E948615089561
:063B8A000E94A01908953D
:063B90000E94BD1A089519
:063B96008091BF0D0895AF
:063B9C008093BF0D0895A7
:063BA2009FEF80EC089586
:043BA8000C94000079
:043BAC0015BC0895A7
:103BB00002000200020200020002020002000202F1
:103BC00000020002020002000202000200020200E3
:033BD000020002EE
:053BD3000980808080E4
:043BD8000000803F2A
:043BDC0000401C4544
:043BE0000000A04001
:023BE400FFFFE1
:00000001FF
