:100000000C9408010C949B340C949B340C947D321A
:100010000C949B340C949B340C949B340C949B3424
:100020000C949B340C94B7200C949B340C949B340C
:100030000C949B340C943E270C949B340C949B346E
:100040000C9417270C949B340C949B340C949B3485
:100050000C945E220C949B340C94BD280C949B341D
:100060000C949B340C949B340C949B340C949B34D4
:100070000C9498220C949B340C94E228540B640C3E
:10008000730B910BB10BD10BF10B110C2F0C4D0C11
:100090005F0C750C770C75128C12E8129512F11228
:1000A000DA12E112A512B112BD12C712D312C30F98
:1000B000D00FDA0FE00F0F103A1053103508640814
:1000C0007F089008A408A3099908DC08F308E80849
:1000D000B708FE080F092109290931093909410921
:1000E0005D09640976099509B109BC0901000F5A37
:1000F000800F5A0F6B00693E0F6B0F91800F910FAD
:100100009500694F0F950FAB800FAB0FAC0008CF78
:100110000FAC0FB0800000407A10F35A00A0724E6E
:1001200018090010A5D4E80000E87648170000E49C
:100130000B54020000CA9A3B000000E1F5050000E4
:1001400080969800000040420F000000A086010049
:100150000000102700000000E80300000000640019
:10016000000000000A000000000001000000000084
:100170002C76D888DC674F0823DFC1DFAE59E1B1A8
:10018000B796E5E3E453C63AE651997696E8E6C2B7
:100190008426EB898C9B62ED407C6FFCEFBC9C9FBE
:1001A00040F2BAA56FA5F490055A2AF75C936B6CE0
:1001B000F9676DC11BFCE0E40D47FEF520E6B500D4
:1001C000D0ED902E0300943577050080841E080042
:1001D00000204E0A000000C80C333333330F986EF2
:1001E00012831141EF8D2114893BE65516CFFEE6AF
:1001F000DB18D1844B381BF77C1D901DA4BBE42475
:10020000203284725E228100C9F124ECA1E53D27F1
:1002100011241FBECFEFD0E1DEBFCDBFECEEF0E08A
:1002200041E017C0B591A59135912591059107FD44
:100230000CC095918591EF01F92FE82F05900D9253
:10024000A217B307D9F7FE0104C01D92A217B30786
:10025000E1F7E531F40731F70E94472C0C943001A7
:04026000F894FFCF40
:1002640053746174653A20533020494E4954005305
:10027400746174653A2053302044452D494E4954E5
:100284000053746174653A20533120494E49540037
:1002940053746174653A2053312044452D494E49C5
:1002A400540053746174653A20533220494E4954C2
:1002B4000053746174653A2053322044452D494EED
:1002C40049540053746174653A20533320494E49AC
:1002D400540053746174653A2053332044452D49C6
:1002E4004E49540053746174653A20494E49542070
:1002F40048570053746174653A20454550524F4D38
:100304000053746174653A204A4F494E204C4F5251
:10031400410053746174653A204A4F494E20535545
:1003240043434553530053746174653A2057414B1A
:1003340045205550204C4F52410053746174653A26
:10034400204C4F52412054525920414741494E00BC
:1003540053746174653A20494E4954204D4F4455B5
:100364004C45530053746174653A20494E495420F6
:100374005254430053746174653A205254432043E9
:100384004C4541520053746174653A2052544320E1
:100394005345542057414B4555500053746174657F
:1003A4003A204D52505020494E49540053746174C0
:1003B400653A2053454E4420484541444552005334
:1003C400746174653A2053454E44205441494C00AD
:1003D40053746174653A20534554555020534C4529
:1003E40045500053746174653A20534C45455000A0
:1003F40053746174653A20534C454550202D3E207A
:100404004157414B450053746174653A20434F4E44
:10041400462045525200436F6E66206572720A0D83
:100424000053746174653A20464154414C2045524E
:0D043400520053746174653A20454E440037
:1004410049443D25752C206E3D25752C2073693D51
:100451002575200D0A004661696C656420746F2062
:10046100726561642074696D6500253032752D25D2
:100471003032752D2530327554253032753A25309C
:1004810032753A25303275006661696C65640073B6
:100491007563636573730030303030303030303025
:1004A100303030303030300030303030303030307B
:1004B100303030303030303030303030303030303B
:1004C100303030303030303000416C6C2073657426
:1004D10074696E6773207265736574004D7573740A
:1004E10020626520696E20666F726D61743A2079B1
:1004F100792D6D6D2D64645468683A6D6D3A73732E
:10050100004661696C656420746F207365742074A2
:10051100696D650064657665756900617070657502
:1005210069006170706B65790070706D7800252EBF
:1005310032660072726C78007663637800636F6C68
:100541007300686561745F75705F740068656174DC
:100551002075702074696D653D2575206D00616998
:10056100725F70756D705F74006169722070756D76
:10057100702074696D653D257520730073705F6926
:100581006E74657276616C0073616D706C696E6713
:100591002070726F6365737320696E746572766122
:1005A1006C3D257520680074696D65004E6F74207F
:1005B100612076616C6964206F7065726174696F26
:0805C1006E00726573657400A1
:1005C9002A2A2A2A2A2A2A2A204D657468616E65F0
:1005D9002053656E736F722076312E30202A2A2AB5
:1005E9002A2A2A2A2A0053657474696E67206D6F56
:1005F90064756C65732075702E2E2E20506C6561A4
:1006090073652077616974004661696C656420745B
:100619006F20696E697469616C697A652073797391
:1006290074656D2E2E2E004E6F742076616C696490
:100639000057726F6E6720666F726D6174002A2AA7
:100649002A2A2A2A2A20526561647920666F722033
:100659006E657720636F6D6D616E64202A2A2A2A80
:0C0669002A2A2A00457869742E2E2E00E3
:100675006F6E00506F776572206D657468616E6589
:100685002073656E736F72206F6E006F6666005023
:100695006F776572206D657468616E652073656E30
:1006A500736F72206F6666007265616400457272D1
:1006B5006F72207768656E2072656164696E672068
:1006C500646174610050504D3D2575004E6F742076
:1006D500612076616C6964206F7065726174696F01
:1006E5006E00506F77657220746F2061697220709B
:1006F500756D70206F6E00506F77657220746F2076
:100705006169722070756D70206F6666006D657425
:0B0715006800636F320070756D7000AB
:100720006578697400627265616B0072656164006E
:100730002A2A2A2A2A2A2A20596F752061726520BE
:100740006469726563746C7920636F6E6E6563743F
:10075000656420746F20524E32343833202A2A2A9E
:100760002A2A2A2A2A002D2D3E25730062726561ED
:100770006B2030783535006E756C6C00436C6F7390
:10078000696E6720636F6E6E656374696F6E207447
:100790006F20524E323438332E2E2E006C6F726121
:0107A0000058
:1007A10025303278000D0A0073797320736C65650A
:1007B1007000257320256C64002573202573006D5E
:1007C10061632073657420646576657569006D6188
:1007D100632073657420617070657569006D616374
:1007E10020736574206170706B6579006F666600B7
:1007F1006D61632073657420616472006F6E006DBA
:10080100616320747820636E66002573202575204E
:030811002573004C
:100814006E6F5F667265655F63680064656E6965C7
:1008240064006B6579735F6E6F745F696E697400E1
:10083400524E32343833006D6163207265736574CF
:1008440020383638006F6B006D6163207361766504
:10085400006D6163206A6F696E206F74616100616D
:080864006363657074656400B4
:10086C006E6F5F667265655F6368006D61635F657F
:10087C007272006D61635F727800696E76616C698B
:10088C00645F646174615F6C656E006F6B006D61B9
:08089C00635F74785F6F6B006D
:1008A400524E32343833006E6F207265706C792E7C
:0308B4002E2E00E5
:0808B700696E66006E616E00BF
:0508BF0046000002E309
:0508C40000100000819E
:0308C9006F6B0052
:0208CC00030027
:0108CE000227
:0108CF000127
:1008D000A4E1B0E0EEE6F4E00C940F2D6C011A01F7
:1008E000462E5901FC0110861782848181FF62C364
:1008F000CE0101969D878C87A0E88A8B9B8BAC8B61
:10090000F101849147FC8081882309F44FC3442D71
:1009100091012F5F3F4F4F4F853219F01901442E3F
:100920000AC0F901849147FD808192E0290E311CB3
:10093000411C853249F4B60190E00E942222BF8614
:10094000AE86AE84BF84DCCF10E0F12C00E0003234
:10095000A0F48B3269F030F4803259F0833269F4BC
:1009600000612CC08D3239F0803339F4016026C02B
:100970000260046023C0086021C007FD29C090ED1B
:10098000980F9A3078F406FF06C0AAE01A9F900DDF
:100990001124192F13C0EAE0FE9E900D1124F92EA8
:1009A00000620CC08E3221F406FD00C3006406C054
:1009B0008C3611F4006802C0883651F4F10184913C
:1009C00047FC8081FFEF2F1A3F0A4F0A8111BFCFEA
:1009D0009BEB980F933018F40061805E06C09BE992
:1009E000980F933008F066C10F7E06FF16E00F7374
:1009F000702E853621F4202F2064722E08C0863692
:100A000021F4802F8068782E02C01111115077FEDA
:100A100007C01C3350F4EE24E394E10E27E00BC032
:100A2000183038F027E017E005C027E06CE3E62E29
:100A300002C0212FE12CF5013496FF87EE87F501E6
:100A400060817181828193810E2DAE014F5F5F4F76
:100A50000E94D90E5C01598050FE02C053FE06C0B0
:100A600071FC06C072FE06C000E205C00DE203C0C4
:100A70000BE201C000E0852D8C7019F0011173C2EA
:100A8000BEC277FE0FC0EA0C54FE04C08A818133D7
:100A900009F4EA941E1474F528E02E1578F538E070
:100AA000E32E2CC076FC2AC0812F90E08A159B058E
:100AB0009CF08CEFA8168FEFB80674F0972D906815
:100AC000792E0AC0E2E0F0E0EC0FFD1FE10FF11D0E
:100AD0008081803319F411501111F4CF77FE0EC0CC
:100AE000EE24E394E10E812F90E0A816B9062CF4D1
:100AF0001A1904C0EE24E39401C010E077FE06C08A
:100B00001A141B0434F4C501019605C085E090E079
:100B100002C081E090E001110196112331F0212FF4
:100B200030E02F5F3F4F820F931F2F2D30E0821751
:100B3000930714F4F81A01C0F12C872D897049F439
:100B4000FF2039F0B60180E290E00E942222FA9460
:100B5000F7CF002329F0B601802F90E00E942222D7
:100B600073FC09C0FF2039F0B60180E390E00E94D9
:100B70002222FA94F7CF77FE49C03501B7FE02C0B2
:100B8000612C712CC5018619970988248394912CB6
:100B90008C0E9D1E880E991EF501EE19F109F98B38
:100BA000E88B012F10E0119501951109FFEF6F16E9
:100BB0007F0629F4B6018EE290E00E942222A6145C
:100BC000B70444F088899989861597051CF4F401C7
:100BD000818101C080E3F1E06F1A71082FEF821A62
:100BE000920A601671062CF0B60190E00E94222253
:100BF000DDCFA614B70439F49A81963318F49533EF
:100C000011F454FE81E3B60190E051C08A81813332
:100C100019F0952D9F7E592EB60190E00E94222258
:100C2000111105C074FC1CC085E690E01BC0B60124
:100C30008EE290E00E94222202E0010F82E011E0A9
:100C4000180FE1E0F0E0EC0FFD1FE80FF11D8081CF
:100C5000B60190E00E942222812F1013F0CFE2CF44
:100C600085E490E0B6010E942222B7FC05C0A114E1
:100C7000B10439F454FE05C0B194A194B1088DE2D9
:100C800001C08BE2B60190E00E94222280E3EAE0FC
:100C9000AE16B1042CF08F5FAAE0AA1AB108F7CF04
:100CA000B60190E00E942222B601C501C0960E94C2
:100CB000222272C1833631F0833791F0833509F0F7
:100CC0005DC024C0C50102969F878E87F501808193
:100CD00089836A887B888C88AA24A394B12C14C049
:100CE000C50103969F878E87F501608071808280A1
:100CF00006FF03C0412F50E002C04FEF5FEF882D89
:100D0000B3010E947C2D5C010F7715C0C5010396CD
:100D10009F878E87F50160807180828006FF03C007
:100D2000412F50E002C04FEF5FEF882DB3010E94CA
:100D30007C2D5C01006803FD1DC08F2D90E0A8167E
:100D4000B906C0F4B60180E290E00E942222FA9433
:100D5000F4CFF301849187FC8081FFEF6F1A7F0A43
:100D60008F0AB60190E00E942222F110FA9421E04D
:100D7000A21AB108A114B10461F70EC1843611F0B2
:100D8000893679F5C50107FF09C004969F878E87CC
:100D9000F50160817181828193810AC002969F87EB
:100DA0008E87F50160817181072E000C880B990BED
:100DB0000F76E02E97FF0AC090958095709561950B
:100DC0007F4F8F4F9F4FF02FF068EF2E2AE030E0DB
:100DD000AE014F5F5F4F0E94781BA82E2C85A21A90
:100DE0004BC0853729F40F7EE02E2AE030E025C085
:100DF000902F997FE92E8F36C1F018F4883579F05D
:100E0000D5C0803719F0883721F0D0C0A92FA06154
:100E1000EA2EE4FE0DC0EE2DE460EE2E09C004FFC4
:100E20000AC0F92FF660EF2E06C028E030E005C0BA
:100E300020E130E002C020E132E0C501E7FE09C058
:100E400004969F878E87F5016081718182819381ED
:100E500008C002969F878E87F5016081718180E0CE
:100E600090E0AE014F5F5F4F0E94781BA82EFC857B
:100E7000AF1A2E2D2F77E22EE6FE0BC00E2D0E7F21
:100E8000A11650F4E4FE0AC0E2FC08C00E2D0E7E4E
:100E900005C0BA2C0E2D03C0BA2C01C0B12E04FF20
:100EA0000DC0FE01EA0DF11D8081803311F4097E31
:100EB00009C002FF06C0B394B39404C0802F8678A3
:100EC00009F0B39403FD11C000FF06C0BF1488F4FD
:100ED000FA0C1F2D1B190EC0BF1460F4B60180E27E
:100EE00090E00E942222B394F7CFBF1418F4FB18AD
:100EF00002C01A2DF12C04FF10C0B60180E390E06F
:100F00000E94222202FF17C001FD03C088E790E083
:100F100002C088E590E0B6010CC0802F867859F0B9
:100F200001FF02C08BE201C080E207FD8DE2B60145
:100F300090E00E942222A11638F4B60180E390E0EE
:100F40000E9422221150F7CFAA94E1E0F0E0EC0FCA
:100F5000FD1FEA0DF11D8081B60190E00E94222262
:100F6000A110F2CF19C0F4E0FF1580F584E0F81A63
:100F700073FE23C001112BC053FE2FC05BEB852EE7
:100F800058E0952E50E0A52E072D0071F4018491B4
:100F9000A7FC8081811128C0FF2009F4D2CCB601C2
:100FA00080E290E00E942222FA94F6CFF601878137
:100FB00090852CC08FEF9FEF29C0B60180E290E0B2
:100FC0000E942222FA94F110F8CFD4CFF12CB6016E
:100FD000802F90E00E942222CFCF47EB842E48E062
:100FE000942E40E0A42ED0CF01118052B60190E0A3
:100FF0000E942222FFEF8F1A9F0AAF0AC7CF23E079
:101000002F1510F483E0B3CFF12CB6CF6496E2E154
:041010000C94612DAE
:10101400EF92FF920F931F93CF93DF93C0E01AC018
:10102400C6E018C0C5E016C0C5E014C0C5E012C0D3
:10103400C5E010C0C6E10EC0C6E10CC0C6E10AC0DE
:10104400C6E108C0C6E106C0CD2F04C0CD2F02C042
:10105400DC2FC1E1EC2FF0E0E831F105D8F7E25ADA
:10106400FF4F0C94023468EE72E080E00E94FC3181
:101074001092AF0F1092AE0F1092AD0F1092AC0FF2
:101084008FEF9FEF9093940F8093930F0E94D02B38
:101094000E940C2C0E94B9320E94B4300E94493440
:1010A4000E942A330E9407330E940E330E941C338D
:1010B4000E9415330E9423338091A90F8111B0CF70
:1010C400C1E0C8CF67EF72E080E00E94FC310E946B
:1010D4001432882309F4A6CF0E941F32882309F40E
:1010E400A3CF0E942A32882309F4A0CF0E946F253F
:1010F400882309F49DCFC2E0ADCF65E073E080E0C2
:101104000E94FC310E9469330E94D432C82F0E948D
:10111400FF328C2F0E94A331C82F9CCF66E173E06D
:1011240080E00E94FC310E94342BCAE093CF6AE233
:1011340073E080E00E94FC310E94893481117ACFEF
:10114400CAE088CF6EE373E080E00E94FC310E9425
:101154005D342AEA36EE86E991E021503040804041
:101164009040D9F70000C2E075CF64E573E080E0F9
:101174000E94FC31E0906B0FF0906C0F00916D0FAA
:1011840010916E0F20916F0F3091700F4091710F7D
:101194005091720F6091730F7091740F8091750F5D
:1011A4009091760F0E94F22A0E946130811144CFFF
:1011B400C7E050CF68E673E080E00E94FC3181E034
:1011C4000E94C72681113ACFC9E044CF68E773E093
:1011D40080E00E94FC310E94B12D811131CFC8E022
:1011E40039CF69E873E080E00E94FC310E943B340F
:1011F400811128CFCBE02ECF6FE973E080E00E940D
:10120400FC310E94DE33482F67E080ED9EE00E94AF
:10121400F0310E94D833CCE01DCF0E942C348823B7
:1012240009F418CF60EB73E080E00E94FC310E9467
:10123400742B4CE06DE00E943031C82F0BCF0E941C
:101244007D196EE00E943532DC2FC82F03CF0E9437
:101254003E166FE00E943532DC2FC82FFBCE0E9471
:10126400AD1460E10E943532DC2FC82FF3CE0E940A
:101274003A1562E10E943532DC2FC82FEBCE83E9A8
:101284009FE00E942E30882309F4DECE0E942C3485
:10129400882309F4DBCE8091930F9091940F0E94E0
:1012A400542B4D2F682F8091930F9091940F0E948F
:1012B400E42FC82FCFCE0E943134882309F4C8CE3E
:1012C400C3E1C8CE0E942C34882309F4C3CE63EC56
:1012D40073E080E00E94FC310E94932B43E164E1BF
:1012E4000E943031C82FB6CE64ED73E080E00E94D6
:1012F400FC310E94CB3291E0811190E09093A90FD0
:1013040080E00E944B3280E00E945F3280E00E94C5
:10131400693280E00E94553280E00E9473320E945C
:101324001334C5E197CE67EE73E080E00E94FC3190
:101334000E94B22B64EF73E080E00E94FC31C0E0B5
:1013440089CE6AE074E080E00E94FC310E9461343E
:101354006AE174E080E00E94FC31C7E17BCE65E283
:1013640074E080E00E94FC310E9465341092A90F61
:10137400C7E170CE66E374E080E00E94FC31DF9147
:0C138400CF911F910F91FF90EF90089502
:101390002F923F924F925F926F927F928F92AF9275
:1013A000BF92CF92DF92EF920F931F93CF93DF9371
:1013B00000D000D000D0CDB7DEB73B01882E5A0157
:1013C00019014115510521F0FA016083718382836F
:1013D0002114310429F0C1010297839708F01AC142
:1013E000E82C6301FFEFCF1ADF0AEF0AF301149133
:1013F00087FC1081812F90E00E94DD324C2D3D2D25
:101400002E2D892B19F036018E2CEACF1D3269F46E
:10141000E82C630152E0C50ED11CE11CE42FF32F30
:10142000149127FD108101E00EC01B3259F4E82C05
:10143000630182E0C80ED11CE11CE42FF32F14914C
:1014400027FD108100E02114310409F190E12916F3
:10145000310429F43FC010E32114310421F1F8E0F4
:101460002F16310401F154F432E02316310421F532
:10147000412C512C612C50E4752E4BC04AE02416AF
:10148000310439F050E125163104B1F43DC0103378
:1014900019F13AE0232E312C4CEC442E542C642CC0
:1014A0004CE0742E36C098E0292E312C412C512C62
:1014B000612C20E1722E2DC060E070E080E090E8A9
:1014C0009101032C000C440B550B0E94AF2A2901FB
:1014D0003A011FC01033C1F4F6018491E7FC80810A
:1014E0008F7D883509F0B7CFAE2DC6010196A11DBD
:1014F000FC011491A7FD1081E2E0CE0ED11CE11C8D
:10150000026060E1262E312C412C512C612C88E0A8
:10151000782EA0E060E070E0CB019101032C000C7C
:10152000440B550B29833A834B835C83E0EDE10F39
:10153000EA3060F02FEB210F2A3110F4E9EC05C0FE
:101540002FE9210F2A3150F5E9EAE10F2E2F30E083
:10155000221533051CF5A7FD18C046165706680668
:10156000790680F029813A814B815C810E94E430C8
:101570006E0F711D811D911D61307105810530E86F
:10158000930710F0AFEF01C0A1E0F6011491E7FC62
:1015900010814FEFC41AD40AE40AC8CF202F21705B
:1015A000A114B104B1F0AA2349F051E0C51AD10841
:1015B000E108F501C082D182E2820BC001FF1DC0AB
:1015C000F2E0CF1AD108E108F501C082D182E282AF
:1015D00014C0A7FF12C0222329F060E070E080E071
:1015E00090E804C06FEF7FEF8FEF9FE722E230E0DB
:1015F000309371082093700809C0222381F09095E0
:101600008095709561957F4F8F4F9F4F462F372F55
:10161000282F12C040E030E020E090E00DC097FF9E
:10162000F5CF82E290E090937108809370086FEF9D
:101630007FEF8FEF9FE7EACF642F732F822F2696DD
:101640000FB6F894DEBF0FBECDBFDF91CF911F91D3
:101650000F91EF90DF90CF90BF90AF908F907F90E1
:0C1660006F905F904F903F902F90089586
:10166C00AF92BF92CF92DF92EF92FF921F93CF93E4
:10167C00DF93CDB7DEB728970FB6F894DEBF0FBE59
:10168C00CDBF5C016B017A0110E0E12FF0E0ED3091
:10169C00F105D8F7E25CFF4F0C9402340E944D34F4
:1016AC002FEF89E698E1215080409040E1F700C08F
:1016BC0000000E9451344CE050E062E070E0CE013A
:1016CC0001960E94EA3324E338E040E061E0CE0169
:1016DC0001960E94F03311E0D8CF4BE358E060E064
:1016EC008EE592E00E94FE2D6EE572E080E80E948D
:1016FC0042234CE050E063E070E0CE0101960E9482
:10170C00EA3329E438E040E060E0CE0101960E9423
:10171C00F03311E0BACFB5018EE592E00E9450296A
:10172C008EE592E00E9479316EE572E080E80E94CD
:10173C0042234CE050E064E070E0CE0101960E9440
:10174C00EA3329E438E040E060E0CE0101960E94E3
:10175C00F03311E09ACFB7018EE592E00E94982900
:10176C008EE592E00E9479316EE572E080E80E948D
:10177C0042234CE050E065E070E0CE0101960E94FF
:10178C00EA3329E438E040E060E0CE0101960E94A3
:10179C00F03311E07ACFB6018EE592E00E94742905
:1017AC008EE592E00E9479316EE572E080E80E944D
:1017BC0042234CE050E066E070E0CE0101960E94BE
:1017CC00EA3329E438E040E060E0CE0101960E9463
:1017DC00F03311E05ACF61E08EE592E00E94A92E21
:1017EC008EE592E00E9479316EE572E080E80E940D
:1017FC0042234CE050E067E070E0CE0101960E947D
:10180C00EA3329E438E040E060E0CE0101960E9422
:10181C00F03311E03ACF4CE458E060E08EE592E012
:10182C000E94FE2D6EE572E080E80E9442234CE09F
:10183C0050E068E070E0CE0101960E94EA3329E4A2
:10184C0038E040E060E0CE0101960E94F03311E0F8
:10185C001CCF45E558E060E08EE592E00E94FE2D3D
:10186C006EE572E080E80E9442234AE050E069E0B5
:10187C0070E0CE0101960E94EA3329E438E040E0A2
:10188C0060E0CE0101960E94F03311E0FECE4AE0FA
:10189C0050E06BE070E0CE0101960E94EA3323E643
:1018AC0038E040E060E0CE0101960E94F03311E098
:1018BC00ECCE8EE592E00E949C2514C00E94313340
:1018CC00882309F4E2CE8EE592E00E94A82F6EE503
:1018DC0072E0CE0101960E941425182FD6CE80E01E
:1018EC0001C081E028960FB6F894DEBF0FBECDBFC5
:1018FC00DF91CF911F91FF90EF90DF90CF90BF9031
:04190C00AF900895FB
:10191000CF92DF92EF92FF920F931F93CF93DF93BB
:10192000CDB7DEB768970FB6F894DEBF0FBECDBF58
:101930006B01E82EF42E052F21E0AE014F5F5F4FC3
:101940000E94101F182F882309F423C18E2DB60181
:101950000E949E26823009F41BC1CE0101966C01C3
:1019600020E8E22E25E135E040E08E2DB6010E9410
:10197000132B892B29F48F2D902F0E94612E09C1E2
:101980002CE135E040E08E2DB6010E94132B892B0F
:1019900029F48F2D902F0E94792EFBC023E235E091
:1019A00040E08E2DB6010E94132B892B29F48F2D38
:1019B000902F0E94912EEDC02AE235E040E08E2D5E
:1019C000B6010E94132B892BE1F4CE0145960E94AB
:1019D0000331888D8F938F898F938E898F938D8913
:1019E0008F938FE295E0A0E0AF939F938F930F9337
:1019F000FF920E94482A0FB6F894DEBF0FBECDBFFB
:101A0000C8C024E335E040E08E2DB6010E94132BC0
:101A1000892BE1F4CE0145960E941231888D8F9377
:101A20008F898F938E898F938D898F938FE295E025
:101A3000A0E0AF939F938F930F93FF920E94482A49
:101A40000FB6F894DEBF0FBECDBFA3C029E335E0CB
:101A500040E08E2DB6010E94132B892BE1F4CE01BC
:101A600045960E942131888D8F938F898F938E891F
:101A70008F938D898F938FE295E0A0E0AF939F9332
:101A80008F930F93FF920E94482A0FB6F894DEBFFF
:101A90000FBECDBF7EC02EE335E040E08E2DB601F7
:101AA0000E94132B892B29F48F2D902F0E941A1B33
:101AB00070C023E435E040E08E2DB6010E94132B68
:101AC000892BA1F40E94BA331F928F938DE495E085
:101AD000A0E0AF939F938F930F93FF920E94482AA9
:101AE0000FB6F894DEBF0FBECDBF53C02FE535E073
:101AF00040E08E2DB6010E94132B892BA1F40E9489
:101B0000C6339F938F938AE695E0A0E0AF939F93AF
:101B10008F930F93FF920E94482A0FB6F894DEBF6E
:101B20000FBECDBF36C02DE735E040E08E2DB601AB
:101B30000E94132B892BA1F40E94D2331F928F9302
:101B400089E895E0A0E0AF939F938F930F93FF9266
:101B50000E94482A0FB6F894DEBF0FBECDBF19C051
:101B600028EA35E040E08E2DB6010E94132B892B28
:101B700029F48F2D902F0E94A41F0BC026E130E086
:101B80004DEA55E060E08F2D902F0E94302E01C06D
:101B900010E0812F68960FB6F894DEBF0FBECDBF60
:101BA000DF91CF911F910F91FF90EF90DF90CF9039
:021BB000089596
:101BB2006F927F928F92AF92BF92CF92DF92EF920B
:101BC2001F93CF93DF93CDB7DEB764970FB6F89428
:101BD200DEBF0FBECDBF3B01882E5A0121E0AE0110
:101BE2004F5F5F4F0E94101F182F882309F4CDC04A
:101BF200CE0101966C0120E8E22E25E135E040E0BD
:101C02008E2DB6010E94132B892B39F4A501882D44
:101C1200B3010E946E21182FB8C02CE135E040E0DC
:101C22008E2DB6010E94132B892B39F4A501882D24
:101C3200B3010E94AA21182FA8C023E235E040E098
:101C42008E2DB6010E94132B892B39F4A501882D04
:101C5200B3010E94E621182F98C02AE235E040E045
:101C62008E2DB6010E94132B892B39F4A501882DE4
:101C7200B3010E94FF27182F88C024E335E040E01B
:101C82008E2DB6010E94132B892B39F4A501882DC4
:101C9200B3010E942528182F78C029E335E040E0DF
:101CA2008E2DB6010E94132B892B39F4A501882DA4
:101CB200B3010E944B28182F68C02EE335E040E0A4
:101CC2008E2DB6010E94132B892B39F4A501882D84
:101CD200B3010E94F812182F58C023E435E040E007
:101CE2008E2DB6010E94132B892B39F4A501882D64
:101CF200B3010E947128182F48C02FE535E040E05B
:101D02008E2DB6010E94132B892B39F4A501882D43
:101D1200B3010E94EF26182F38C02DE735E040E0CE
:101D22008E2DB6010E94132B892B39F4A501882D23
:101D3200B3010E949728182F28C023EC35E040E019
:101D42008E2DB6010E94132B892B39F4A501882D03
:101D5200B3010E943118182F18C028EA35E040E07C
:101D62008E2DB6010E94132B892B39F4A501882DE3
:101D7200B3010E94BE16182F08C026E130E04DEADA
:101D820055E060E0C5010E94302E812F64960FB6A7
:101D9200F894DEBF0FBECDBFDF91CF911F91EF90C0
:101DA200DF90CF90BF90AF908F907F906F9008950B
:101DB200283008F027E03327DA01990F311D87FD1B
:101DC200916000966105710539F432602E5F3D9392
:101DD20030E32A95E1F708959F3F30F0803871058E
:101DE200610509F03C5F3C5F3D93913008F08068EB
:101DF200911DDF93CF931F930F93FF92EF92192FB1
:101E0200987F9695E92F96959695E90FFF27E059C9
:101E1200FE4F99273327EE24FF24A701E7010590FF
:101E22000894079428F4360FE71EF81E491F511D27
:101E3200660F771F881F991F0694A1F705900794D4
:101E420028F4E70EF81E491F561FC11D770F881F81
:101E5200991F661F0694A1F70590079428F4F80EBF
:101E6200491F561FC71FD11D880F991F661F771F55
:101E72000694A1F70590079420F4490F561FC71F37
:101E8200D81F990F661F771F881F0694A9F78491A0
:101E92001095177041F0D695C79557954795F794C9
:101EA200E7941A95C1F7E6E1F1E06894159015916F
:101EB20035916591959105907FE27395E118F10A4C
:101EC200430B560BC90BD009C0F7E10CF11E431F9F
:101ED200561FC91FD01D7EF4703311F48A95E6CFC8
:101EE200E894015030F0080F0AF40027021708F4B2
:101EF200202F2395022F7A3328F079E37D932A95B8
:101F0200E9F710C07D932A9589F60694979567950F
:101F1200379517951794E118F10A430B560BC90B25
:101F2200D00998F023957E9173957A3308F070E387
:101F32007C932013B8F77E9170617D9330F0839586
:101F420071E37D9370E32A95E1F71124EF90FF90FE
:101F52000F911F91CF91DF91992787FD9095089559
:101F62006F927F928F92CF92DF92EF92CF93DF9315
:101F7200C0E0EC2FF0E0E730F105D8F7E95AFF4F67
:101F82000C9402340E94D02B0E9449340E948C345B
:101F920060E377E080E00E94ED1FC1E0EACF0E949B
:101FA2003833882331F388EA97E00E94BC2FC2E0DD
:101FB200E0CF88EA97E00E94B023C82FDACF88EA00
:101FC20097E06C0120E8E22E2F93DF928F9386E652
:101FD20097E0A0E0AF939F938F93C0EED6E0DF939C
:101FE200CF930E94482A3E0120E8822E882DB30119
:101FF2000E94ED1FAE016C2D7D2D8E2D0E948F341F
:10200200882DB3010E94ED1F8DB79EB708960FB6BB
:10201200F8949EBF0FBE8DBFC1E0ABCF8CE697E0B8
:10202200A0E0AF939F938F9386E697E0A0E0AF93F3
:102032009F938F93C0EED6E0DF93CF930E94482AFE
:10204200BE0180E80E94ED1F8FE798E321E08150F6
:1020520090402040E1F700C000000E9492348DB70A
:102062009EB708960FB6F8949EBF0FBE8DBFC1E013
:1020720080CF0E943133882329F080EE96E00E94BF
:10208200A82F09C025E030E047E757E060E080EE86
:1020920096E00E94302E60EE76E080E80E94ED1F0E
:1020A200C1E067CF0E9418346CE777E080E00E94BD
:1020B200ED1F81E0DF91CF91EF90DF90CF908F9075
:0620C2007F906F9008956D
:1020C800CF93DC01262F30E0C9010197F901EE0F0B
:1020D800FF1F220F331F220F331F220F331FE20F60
:1020E800F31FEA0FFB1F7081C0E025C0821793071A
:1020F80009F1A901440F551F440F551F440F551FDF
:10210800F901EE0FFF1FE40FF51FEA0FFB1F4385D0
:10211800741310C0F901EE0FFF1F220F331F220F97
:10212800331F220F331FE20FF31FEA0FFB1F248513
:10213800233041F4CF5F2C2F30E028173907B4F251
:1021480021E001C020E0222339F0FD01E70FF11D55
:10215800E458FF4F21E020839C01220F331F220FF8
:10216800331F220F331FFC01EE0FFF1FE20FF31F77
:10217800EA0FFB1FC38529C0462F50E08417950737
:1021880019F19A012F5F3F4FF901EE0FFF1F220F40
:10219800331F220F331F220F331FE20FF31FEA0FE3
:1021A800FB1F2081C21310C0FA01EE0FFF1F440F5E
:1021B800551F440F551F440F551FE40FF51FEA0F15
:1021C800FB1F2485233041F46F5F12962C911297E0
:1021D800621790F281E001C080E0882341F0FD01A0
:1021E800EC0FF11DE458FF4F81E0808306C0FD012C
:1021F800EC0FF11DE458FF4F10828C2F90E0871BE5
:102208009109029764F07F5F08C0FD01E70FF11D97
:10221800E458FF4F81E080837F5F7C17B0F3CF9154
:02222800089517
:10222A00AF92BF92CF92DF92EF92FF920F931F93DA
:10223A00CF93DF936C01A22EFC0160832283B12C21
:10224A0000E010E062C0EB2DF0E0DF01AA0FBB1F37
:10225A00AA0FBB1FAE0FBF1FA40FB51F12962D9159
:10226A003C911397EF01CC0FDD1FCF01880F991F07
:10227A00880F991F880F991FC80FD91FCC0DDD1D14
:10228A003987288714968C9114978F831C830B8324
:10229A008D919C91119714962C91289F7001299FDA
:1022AA00F00C112486E0E80EF11CFE82ED82980102
:1022BA00ABEABAEA0E943F31969587959295829544
:1022CA008F7089279F70892731969F01220F331FAC
:1022DA00EE0FFF1FEE0FFF1FEE0FFF1FE20FF31FA0
:1022EA00EC0DFD1D80830E0D1F1D98012150310933
:1022FA000E943F3196958795929582958F7089278E
:10230A009F7089278B871C86B394BA1408F49BCFD5
:10231A00980121503109ABEABAEA0E943F319695F9
:10232A008795929582958F7089279F70892792E069
:10233A00980FF60191838F5FE558FF4F808390E0F5
:10234A0007C0F601E90FF11DE458FF4F10829F5FA5
:10235A009817B8F3DF91CF911F910F91FF90EF90EB
:0A236A00DF90CF90BF90AF90089570
:102374000F931F93CF93DF93CDB7DEB727970FB695
:10238400F894DEBF0FBECDBF8C0121E04EEC58E0C7
:1023940060E081E50E94873281117CC047E0BE0184
:1023A4006F5F7F4F81E50E94492E811175C029819D
:1023B400822F8F7790E0959587959595879595953C
:1023C400879595958795880F982F990F990F890F61
:1023D4002F70820FF80180832A81822F8F7790E0FB
:1023E40095958795959587959595879595958795D1
:1023F400880F982F990F990F890F2F70820F81835F
:102404002B81822F8F7390E095958795959587956D
:102414009595879595958795880F982F990F990F7E
:10242400890F2F70820F82832C81822F8F7390E00B
:102434009595879595958795959587959595879580
:10244400880F982F990F990F890F2F70820F83830C
:102454002E81822F8F7190E095958795959587951C
:102464009595879595958795880F982F990F990F2E
:10247400890F2F70820F84838F81982F92959F707C
:10248400990F292F220F220F920F8F70890F8583A6
:1024940080E003C082E001C082E027960FB6F89482
:1024A400DEBF0FBECDBFDF91CF911F910F91089575
:1024B400CF930E940C2CC0E00DC0C2E00BC0C5E05D
:1024C40009C0C6E007C0C5E005C0C5E003C0C5E05B
:1024D40001C0C5E0EC2FF0E0EC30F105D8F7E55B86
:1024E400FF4F0C94023469EC75E080E00E94ED1F0C
:1024F4006FEE75E080E00E94ED1F0E94B4300E94F0
:10250400D02F8111DACF61E176E080E00E94ED1FE7
:10251400C4E0E0CF0E9438338111C3E00E943F330E
:102524008111CDCFD7CF88EA97E00E94BC2F88EAEB
:1025340097E00E941F26882321F288EA97E00E94F0
:10254400092FC82FC7CF68EA77E080E840EE56E04D
:102554000E94880C882309F4B6CFCBE0BBCF68EA8D
:1025640077E080E840EE56E00E94D90D882309F414
:10257400ACCFCBE0AFCF68EA77E080E80E94742666
:10258400882309F4A4CFC2E0A5CF68EA77E080E805
:1025940040EE56E00E94D61B882309F49ACFCBE084
:1025A40099CF60EE76E080E80E94ED1FC2E092CF02
:1025B40060E376E080E00E94ED1FC2E08BCF6AE327
:1025C40076E080E00E94ED1FC2E084CF0E941D34BB
:1025D40067E476E080E00E94ED1FC1E07BCF6DE60A
:0C25E40076E080E00E94ED1FCF9108958A
:1025F0004F925F926F927F928F92AF92BF92CF92E3
:10260000DF92EF92FF920F931F93CF93DF93CDB79B
:10261000DEB7A3970FB6F894DEBF0FBECDBF3B0168
:10262000882E5A0122E040E85EE00E94101F182F19
:10263000882309F45DC080E89EE06C0120E8E22E6A
:102640008E2DB6010E9479340FEF080F073008F085
:102650004AC023E040E85EE0882DB3010E94101FCD
:10266000182F882309F444C08E2DB6010E947934B6
:102670002C0102978B329140C0F524E040E85EE0E7
:10268000882DB3010E94101F182F882389F18E2DE9
:10269000B6010E9479346C0102978735924038F573
:1026A00063E2CE0101967C010E94F732802F90E018
:1026B000FC01EE0FFF1FEE0FFF1FE80FF91FEE0DDD
:1026C000FF1D51824082D382C282B70180E843E27B
:1026D0000E94623328E030E040E954E060E0C50148
:1026E0000E94302E05C010E003C010E001C010E0D1
:1026F000812FA3960FB6F894DEBF0FBECDBFDF913A
:10270000CF911F910F91FF90EF90DF90CF90BF90EE
:0E271000AF908F907F906F905F904F900895E4
:10271E004F925F926F927F928F929F92AF92BF92E3
:10272E00CF92DF92EF92FF920F931F93CF93DF938F
:10273E0000D000D000D0CDB7DEB7F901492E512C14
:10274E00612C712C032E3AE1440C551C661C771C2F
:10275E003A95D1F7302D90E0A0E0B0E0072E76E16B
:10276E00880F991FAA1FBB1F7A95D1F7702D842948
:10277E009529A629B729872E912CA12CB12C072E8D
:10278E0071E1880C991CAA1CBB1C7A95D1F7702D8F
:10279E0088299929AA29BB29C62ED12CE12CF12CE6
:1027AE000B2EBCE0CC0CDD1CEE1CFF1CBA95D1F739
:1027BE00B02D8C299D29AE29BF29052F10E020E0D0
:1027CE0030E0000F111F221F331F000F111F221F99
:1027DE00331F000F111F221F331F000F111F221F47
:1027EE00331F000F111F221F331F000F111F221F37
:1027FE00331F802B912BA22BB32B842BB083A18361
:10280E009283838326960FB6F894DEBF0FBECDBF9C
:10281E00DF91CF911F910F91FF90EF90DF90CF90AE
:10282E00BF90AF909F908F907F906F905F904F90E2
:02283E000895FB
:10284000CF92DF92EF92FF920F931F93CF93DF937C
:1028500000D0CDB7DEB7F42E052F22E044E15FE0D3
:102860000E94101F182F882309F46BC084E19FE099
:102870006C0120E8E22E25E736E040E08E2DB6011F
:102880000E94132B892B79F40E940E3381E00E9461
:10289000553228E130E048E756E060E08F2D902F78
:1028A0000E94302E4EC020E936E040E08E2DB60169
:1028B0000E94132B892B79F40E940E3380E00E9432
:1028C000553229E130E044E956E060E08F2D902F49
:1028D0000E94302E36C02DEA36E040E08E2DB60143
:1028E0000E94132B892B21F5CE0101960E94F4251D
:1028F000882351F028E130E042EB56E060E08F2D74
:10290000902F0E94302E1DC08A818F9389818F93D2
:102910008AEC96E0A0E0AF939F938F930F93FF9282
:102920000E94482A0FB6F894DEBF0FBECDBF09C083
:1029300026E130E041ED56E060E08F2D902F0E94BF
:10294000302E812F0F900F90DF91CF911F910F911B
:0A295000FF90EF90DF90CF90089504
:10295A00CF93DF938091AD0F823091F128F48823D1
:10296A0059F0813029F1F6CF843009F469C0B0F109
:10297A00853009F443C0EECF66EA72E080E00E9437
:10298A00FC31C0EDDEE06C897D894AEC5AE08E8923
:10299A009F890E9472306F85788942E758E0898959
:1029AA000E948324811157C081E08093AD0FD2CF5A
:1029BA0084E59FE00E94BA1182E08093AD0FCACFEE
:1029CA000E9436340E9427348091910F9091920F81
:1029DA000E94F82F83E08093AD0FBCCF0E949531FF
:1029EA008823D9F10E945D318823C9F10E94873179
:1029FA008823B9F185E08093AD0FACCF27E73FE09C
:102A0A004091540F5091550F6091560F7091570F86
:102A1A008091580F9091590F0E948F134AEC5AE0F7
:102A2A0067E77FE085E00E94D22242E758E067E745
:102A3A007FE084E00E94D22284E08093AD0F8ACFA7
:102A4A0065EB72E080E00E94FC310E9470330E94C4
:102A5A00A53281E007C083E005C080E003C080E0C2
:0A2A6A0001C080E0DF91CF910895D4
:102A7400CF93DF938091AC0F823089F128F48823BF
:102A840051F0813021F1F6CF843009F45EC078F141
:102A94008530C9F1EFCF67EC72E080E00E94FC3131
:102AA400C0EDDEE06E8D7F8D4AEC5AE088A199A1DD
:102AB4000E947230698D7A8D42E758E08B8D0E94B6
:102AC4008324811151C081E08093AC0FD3CF84E57E
:102AD4009FE00E94BA1182E08093AC0FCBCF0E949A
:102AE40036340E94273483E08093AC0FC3CF0E9416
:102AF40095318823D9F10E945D318823C9F185E09D
:102B04008093AC0FB7CF27E73FE04091540F50912B
:102B1400550F6091560F7091570F8091580F9091F7
:102B2400590F0E948F134AEC5AE067E77FE087E071
:102B34000E94D22242E758E067E77FE086E00E94E5
:102B4400D22284E08093AC0F95CF66ED72E080E0F2
:102B54000E94FC310E9470330E946D340E94A532A1
:102B64000E94593481E005C083E003C080E001C0C5
:082B740080E0DF91CF9108958C
:102B7C001F93CF93DF9300D000D000D0CDB7DEB73A
:102B8C00F9013DEC439F212D112426952695269580
:102B9C0010E1219FD0011124220FB22FBB0FBB0FCC
:102BAC002B0F421B4A2B4083539F212D112426951A
:102BBC002695269540E1249FD0011124220F422F07
:102BCC00440F440F240F521B5A2B5183639F412DEA
:102BDC00112446954695469510E1419FD00111244C
:102BEC00440F242F220F220F420F641B6A2B628387
:102BFC00739F412D112446954695469520E1429FA1
:102C0C00D0011124440F242F220F220F420F741BCA
:102C1C007A2B7383839F412D1124469546954695B7
:102C2C0010E1419FB0011124440F242F220F220FD9
:102C3C00420F841B862B8483939F312D1124369550
:102C4C003695369520E1329FA0011124330F832F46
:102C5C00880F880F380F931B942B958326960FB6ED
:102C6C00F894DEBF0FBECDBFDF91CF911F910895B9
:102C7C00CF93DF938091AE0F823089F128F48823B3
:102C8C0051F0813021F1F6CF843009F45EC078F137
:102C9C008530C9F1EFCF65E872E080E00E94FC312D
:102CAC00C0EDDEE06A857B854AEC5AE08C859D851B
:102CBC000E9472306D817E8142E758E08F810E94C4
:102CCC00832481114DC081E08093AE0FD3CF84E576
:102CDC009FE00E94BA1182E08093AE0FCBCF0E948E
:102CEC0036340E94273483E08093AE0FC3CF0E940A
:102CFC0095318823B9F10E945D318823A9F185E0D3
:102D0C008093AE0FB7CF27E73FE04091540F50911F
:102D1C00550F6091560F7091570F8091580F9091ED
:102D2C00590F0E948F134AEC5AE067E77FE083E06B
:102D3C000E94D22242E758E067E77FE082E00E94DF
:102D4C00D22284E08093AE0F95CF64E972E080E0EC
:102D5C000E94FC310E9470330E94A53281E005C0B4
:102D6C0083E003C080E001C080E0DF91CF91089543
:102D7C006F927F928F92DF92EF92FF920F931F933D
:102D8C00CF93DF9300D000D000D0CDB7DEB73B019E
:102D9C00882E7A010E94B93222E040E85EE0882D4C
:102DAC00B3010E94101F182F882309F44EC060E84D
:102DBC007EE080E80E947D2F419749F025E230E0CB
:102DCC004DED54E060E0C7010E94302E3EC060E043
:102DDC0080E89EE00E94CB2D882E63E080E89EE088
:102DEC000E94CB2D782E66E080E89EE00E94CB2DD1
:102DFC00682E69E080E89EE00E94CB2D082F6CE0E5
:102E0C0080E89EE00E94CB2DD82E6FE080E89EE0FB
:102E1C000E94CB2D482F5D2D602F762D872D982D60
:102E2C000E944F24882349F023E130E042E055E032
:102E3C0060E0C7010E94302E08C028E030E040E975
:102E4C0054E060E0C7010E94302E812F26960FB609
:102E5C00F894DEBF0FBECDBFDF91CF911F910F91C4
:0E2E6C00FF90EF90DF908F907F906F90089511
:102E7A00DF92EF92FF920F931F93CF93DF93CDB719
:102E8A00DEB728970FB6F894DEBF0FBECDBFD82E97
:102E9A007B01042F10E0123009F440C028F41123FA
:102EAA0049F0113049F1F7CF133009F44EC014300C
:102EBA00D9F1F1CF202FA7016D2D8EE592E00E9466
:102ECA008C1C8EE592E00E9479316EE572E080E812
:102EDA000E94422342E050E061E070E0CE01019698
:102EEA000E94EA3327E938E040E060E0CE0101962B
:102EFA000E94F03314E0CFCF42E050E063E070E08C
:102F0A00CE0101960E94EA332AE938E040E060E007
:102F1A00CE0101960E94F03314E0BDCF6EE572E057
:102F2A0080E80E941B2412C00E943133882309F4CE
:102F3A00B2CF8EE592E00E94A82F6EE572E0CE0134
:102F4A0001960E941425182FA6CF80E028960FB666
:102F5A00F894DEBF0FBECDBFDF91CF911F910F91C5
:082F6A00FF90EF90DF90089545
:102F72008F929F92AF92BF92CF92DF92EF92FF9287
:102F82000F931F93CF93DF93EC016B015A01490119
:102F92000E94D92E8F3F2FEF920709F451C08C1552
:102FA2009D0509F04FC080E009C0FE01E80FF11D48
:102FB200E458FF4F9081913041F08F5FFE01E55858
:102FC200FF4F9081891788F380E091E0980FF50117
:102FD20090839981F401908390E040E3489F9001AF
:102FE200499F300D1124F80131832083FE01E558F9
:102FF200FF4F208130E021503109821793072CF4D2
:1030020080E3F701808381E01EC08A8190E001970E
:10301200AC01440F551F880F991F880F991F880F05
:10302200991F840F951FC80FD91F9B818D81890F0E
:10303200F0E32F9F80191124F701808381E003C000
:1030420080E001C080E0DF91CF911F910F91FF904E
:10305200EF90DF90CF90BF90AF909F908F900895A8
:103062000F931F93CF93DF93CDB7DEB7A3970FB61E
:10307200F894DEBF0FBECDBF8A0168E974E080E03C
:103082000E94642C68E974E080E00E94812C69EA65
:1030920074E080E00E949E2C60E070E080E89FE394
:1030A2000E944D3360E070E48CE195E40E94543359
:1030B20060E070E080EA90E40E945B3382E00E946C
:1030C200B43385E090E00E94C03386E00E94CC33A6
:1030D20080E01AC0E82FF0E09F01220F331F220F79
:1030E200331FE20FF31F21E030E02C0F3D1FE20FF0
:1030F200F31F92E0948322E030E03183208323E0C7
:1031020030E0338322838F5F873020F3BE016F5F0D
:103112007F4F80E843E20E94623323E130E04AECD1
:1031220054E060E0C8010E94302E81E0A3960FB601
:10313200F894DEBF0FBECDBFDF91CF911F910F91EB
:023142000895EE
:1031440010C00E94853358F00E947E3340F029F469
:103154005F3F29F00C94FC3351110C948D330C9483
:1031640095340E946B2A68F39923B1F3552391F3A4
:10317400951B550BBB27AA2762177307840738F0E2
:103184009F5F5F4F220F331F441FAA1FA9F335D03F
:103194000E2E3AF0E0E832D091505040E695001CF3
:1031A400CAF72BD0FE2F29D0660F771F881FBB1FAD
:1031B400261737074807AB07B0E809F0BB0B802D8B
:1031C400BF01FF2793585F4F3AF09E3F510578F0B7
:1031D4000C94FC330C948D335F3FE4F3983ED4F3AA
:1031E400869577956795B795F7959F5FC9F7880F8B
:1031F400911D9695879597F90895E1E0660F771FDD
:10320400881FBB1F621773078407BA0720F0621B6D
:0E321400730B840BBA0BEE1F88F7E09508953C
:10322200CF92DF92EF92FF920F931F93CF93DF9390
:10323200DC01EB0190E040E0C12CD12C76014AC0C8
:10324200292F30E0F901EE0FFF1F220F331F220F4B
:10325200331F220F331FE20FF31FEA0FFB1F2781D9
:103262002230A9F0243021F1213091F501E010E063
:10327200042E02C0000F111F0A94E2F7012E000C67
:10328200220B330BC02AD12AE22AF32A21C002E000
:1032920010E0042E02C0000F111F0A94E2F7012E63
:1032A200000C220B330BC02AD12AE22AF32A10C0C7
:1032B20003E010E0042E02C0000F111F0A94E2F78F
:1032C200012E000C220B330BC02AD12AE22AF32A48
:1032D2004E5F9F5F12968C911297981708F4B0CFA9
:1032E200EB82DC82CD82DF91CF911F910F91FF9013
:0832F200EF90DF90CF900895EA
:1032FA008091AF0F823041F128F4882351F0813058
:10330A00D9F0F6CF843009F450C040F1853091F1FC
:10331A00EFCF64E672E080E00E94FC31E0EDFEE06F
:10332A00608171814AEC5AE0828193810E947230F5
:10333A0081E08093AF0FDCCF84E59FE00E94BA1151
:10334A0082E08093AF0FD4CF8091AB0F0E94F4300C
:10335A000E94363483E08093AF0FCACF0E94C232F4
:10336A00882361F10E949531882351F185E0809389
:10337A00AF0FBECF27E73FE04091540F5091550F52
:10338A006091560F7091570F8091580F9091590F75
:10339A000E948F134AEC5AE067E77FE081E00E94BF
:1033AA00D22284E08093AF0FA3CF63E772E080E07C
:1033BA000E94FC310E94703381E0089580E00895F4
:0433CA0080E0089502
:1033CE000FC00E947E3338F00E94853320F0952383
:1033DE0011F00C94FC330C94953411240C948D3311
:1033EE000E946B2A70F3959FC1F3950F50E0551F05
:1033FE00629FF001729FBB27F00DB11D639FAA273C
:10340E00F00DB11DAA1F649F6627B00DA11D661F8A
:10341E00829F2227B00DA11D621F739FB00DA11DAB
:10342E00621F839FA00D611D221F749F3327A00D65
:10343E00611D231F849F600D211D822F762F6A2F01
:10344E0011249F5750409AF0F1F088234AF0EE0F66
:10345E00FF1FBB1F661F771F881F91505040A9F793
:10346E009E3F510580F00C94FC330C948D335F3FDE
:10347E00E4F3983ED4F3869577956795B795F795CF
:10348E00E7959F5FC1F7FE2B880F911D9695879547
:04349E0097F90895FD
:1034A20011C00E947E3338F00E94853320F039F437
:1034B2009F3F19F426F40C9495340EF4E095E7FB43
:1034C2000C94FC33E92F0E946B2A58F3BA17620757
:1034D20073078407950720F079F4A6F50C948C33D2
:1034E2000EF4E0950B2EBA2FA02D0B01B90190011D
:1034F2000C01CA01A0011124FF27591B99F0593F61
:1035020050F4503E68F11A16F040A22F232F342FA8
:103512004427585FF3CF469537952795A795F040F6
:103522005395C9F77EF41F16BA0B620B730B840B0B
:10353200BAF09150A1F0FF0FBB1F661F771F881FC3
:10354200C2F70EC0BA0F621F731F841F48F487951B
:1035520077956795B795F7959E3F08F0B0CF93950D
:0E356200880F08F09927EE0F9795879508952A
:103570001F93CF93DF93CDB7DEB72D970FB6F89497
:10358000DEBF0FBECDBF182F81E0898382E08A8322
:1035900085E0EAE5FFE0DE01139601900D928A9541
:1035A000E1F7CE0108960E94BA118985810F99E84A
:1035B000899F912D11249295969597702CE3929F57
:1035C000801911248987AE014F5F5F4F60E822E0C8
:1035D00081E50E94B131811120C099858DEC989FC1
:1035E000812D112486958695869540E1849F9001D2
:1035F0001124880F382F330F330F830F981B922B12
:103600009C83AE014D5F5F4F60E825E081E50E943D
:10361000B131882321F082E003C082E001C080E064
:103620002D960FB6F894DEBF0FBECDBFDF91CF91C0
:043630001F91089549
:10363400CF92DF92EF92FF921F93CF93DF93CDB798
:10364400DEB7A3970FB6F894DEBF0FBECDBF7C01E3
:1036540063E2CE0101960E94F732F701108210E076
:1036640035C0812F90E0FC01EE0FFF1FEE0FFF1F0E
:10367400E80FF91F21E030E02C0F3D1FE20FF31F8C
:1036840023812F9322812F9321812F9320812F93A4
:1036940001969F938F9381E494E0A0E0AF939F936E
:1036A4008F930F2EF0E8CF2EFEE0DF2EF02DDF9269
:1036B400CF920E94482AA60160E8C7010E94662FA3
:1036C4001F5F0FB6F894DEBF0FBECDBF173048F2B0
:1036D400A3960FB6F894DEBF0FBECDBFDF91CF9196
:0C36E4001F91FF90EF90DF90CF900895B1
:1036F000FA01AA27283051F1203181F1E8946F9323
:103700006E7F6E5F7F4F8F4F9F4FAF4FB1E03ED0C8
:10371000B4E03CD0670F781F891F9A1FA11D680F66
:10372000791F8A1F911DA11D6A0F711D811D911D99
:10373000A11D20D009F468943F912AE0269F11240E
:103740003019305D3193DEF6CF010895462F477072
:10375000405D4193B3E00FD0C9F7F6CF462F4F70CD
:10376000405D4A3318F0495D31FD4052419302D02B
:10377000A9F7EACFB4E0A6959795879577956795D1
:10378000BA95C9F700976105710508959B01AC01D1
:103790000A2E06945795479537952795BA95C9F7F8
:0C37A000620F731F841F951FA01D089569
:1037AC006F927F928F92CF92DF92EF920F931F9333
:1037BC00CF933B01882E8A0121E044E15FE00E9417
:1037CC00101FC82F8823E9F184E19FE06C0120E8E9
:1037DC00E22E22E137E040E08E2DB6010E94132B41
:1037EC00892B39F4A801882DB3010E942014C82F0D
:1037FC0028C027E137E040E08E2DB6010E94132B44
:10380C00892B39F4A801882DB3010E94341DC82FCF
:10381C0018C02BE137E040E08E2DB6010E94132B2F
:10382C00892B39F4A801882DB3010E94861DC82F5D
:10383C0008C026E130E041ED56E060E0C8010E948E
:10384C00302E8C2FCF911F910F91EF90DF90CF9056
:08385C008F907F906F9008959A
:10386400CF92DF92EF92FF920F931F93CF93DF9348
:103874006C0110E008C0CC0DDD1D88818E3211F47E
:103884001F5F0CC01F5FC12FD0E0B60180E80E940B
:103894007D2F0197C817D90770F310E0112371F138
:1038A400C10ED11C80E8E82E8E2DB6010E947D2F1A
:1038B400C82F8E2DB6010E9479348C010F2EC12C95
:1038C400D12CF0E8EF2EFFE3FF2EF02D0BC020E00B
:1038D40030E040E251E4C701B6010E9475346B0147
:1038E4007C01C150C111F3CFB80180E090E00E9487
:1038F400F520A70196010E94713403C060E070E0D6
:10390400CB01DF91CF911F910F91FF90EF90DF904A
:04391400CF900895B3
:10391800DF92EF92FF920F931F93CF93DF93CDB770
:10392800DEB7C756D1090FB6F894DEBF0FBECDBFBC
:103938008C019FEF960F9F3D68F59FEF920F933391
:1039480060F5D62E30E060E8CE0101967C010E9439
:103958007520C701A0E8AF939F93EF921F92DF9263
:1039680080E098E0A0E0AF939F938F938BE098E07E
:10397800A0E0AF939F938F931F930F930E94482AC1
:10398800B80180E80E947D2F0FB6F894DEBF0FBE05
:10399800CDBF05C08FEF9FEF02C08FEF9FEFC959D2
:1039A800DF4F0FB6F894DEBF0FBECDBFDF91CF91CA
:0C39B8001F910F91FF90EF90DF90089599
:1039C4000F931F93CF93DF938C01EB01FC01818153
:1039D4008883818189831A82C8010E94111920E099
:1039E40035C0822F90E0DC01AA0FBB1FAA0FBB1FBA
:1039F400AD014A5F5F4F4C0F5D1FFC01EE0FFF1FCF
:103A0400880F991F880F991F880F991FE80FF91FB6
:103A1400BF01600F711FFB018481FA018083CD0116
:103A240007968C0F9D1FFB013381FC013083CD0170
:103A340008968C0F9D1FFB013681FC01308319967B
:103A4400AC0FBD1FFB0185818C932F5FF801828130
:103A5400281738F2880F880F8A5FDF91CF911F9162
:043A64000F91089521
:103A6800FF920F931F93CF93DF9300D0CDB7DEB7AC
:103A7800F42E052F22E044E15FE00E94101F182F6A
:103A88008823B9F164E17FE080E82DEA36E040E080
:103A98000E94132B892B21F5CE0101960E94CB3170
:103AA800882351F028E130E042EB56E060E08F2DAA
:103AB800902F0E94302E1DC08A818F9389818F9309
:103AC8008AEC96E0A0E0AF939F938F930F93FF92B9
:103AD8000E94482A0FB6F894DEBF0FBECDBF09C0BA
:103AE80026E130E041ED56E060E08F2D902F0E94F6
:103AF800302E812F0F900F90DF91CF911F910F9152
:043B0800FF9008958D
:103B0C00CF92DF92EF920F931F93CF938A0122E013
:103B1C0044E15FE00E94101FC82F8823D9F184E193
:103B2C009FE06C0120E8E22E25E736E040E08E2D88
:103B3C00B6010E94132B892B71F40E941C3381E077
:103B4C000E94693225E130E047EE56E060E0C801A2
:103B5C000E94302E1FC020E936E040E08E2DB601C9
:103B6C000E94132B892B71F40E941C3380E00E945D
:103B7C00693226E130E04CEF56E060E0C8010E946B
:103B8C00302E08C026E130E041ED56E060E0C8017F
:103B9C000E94302E8C2FCF911F910F91EF90DF90C0
:043BAC00CF90089519
:103BB0000F931F93CF93DF938C01EB011882FC01CD
:103BC000818189831A82C8010E94111920E035C0C1
:103BD000822F90E0DC01AA0FBB1FAA0FBB1FAD0113
:103BE0004A5F5F4F4C0F5D1FFC01EE0FFF1F880FF8
:103BF000991F880F991F880F991FE80FF91FBF01A0
:103C0000600F711FFB018481FA018083CD0107964B
:103C10008C0F9D1FFB013381FC013083CD01089681
:103C20008C0F9D1FFB013681FC0130831996AC0F70
:103C3000BD1FFB0185818C932F5FF80182812817BE
:103C400038F2880F880F8A5FDF91CF911F910F9113
:023C50000895D5
:103C52000F931F93CF93DF9300D000D000D0CDB746
:103C6200DEB78C018FEF9FEFF801918380830E9472
:103C72000E34811107C08EEF9FEFF801918380838C
:103C820083E02CC022E04CEC58E060E081E60E9428
:103C9200B13181111EC08FE39FE10197F1F700C09E
:103CA200000046E0BE016F5F7F4F81E60E94E52D76
:103CB200811111C0CE0101960E94172E882369F04E
:103CC200CE0101960E94BE31F8019183808380E08B
:103CD20005C081E003C081E001C081E026960FB6F5
:103CE200F894DEBF0FBECDBFDF91CF911F910F9130
:023CF200089533
:103CF4008F929F92AF92BF92CF92DF92EF92FF92F8
:103D0400BC0180E090E00E94F52020E030E040E833
:103D140059E30E9475348090670F9090680FA090CB
:103D2400690FB0906A0FA50194010E9475346B016C
:103D34007C019B01AC01C501B4010E947733A7014A
:103D440096010E9471342091630F3091640F409169
:103D5400650F5091660F0E94753420915F0F30916A
:103D6400600F4091610F5091620F0E9475340E9460
:103D7400E524CB01FF90EF90DF90CF90BF90AF9000
:063D84009F908F9008954E
:103D8A00AF92BF92CF92DF92EF92FF920F931F935F
:103D9A00CF93DF9300D000D01F92CDB7DEB76B016F
:103DAA005A019E012B5F3F4F79018E010D5F1F4F14
:103DBA0023503109AE014F5F5F4FBC0186E293E0A9
:103DCA000E94B9178823B1F04D8183E0840FF50171
:103DDA00808380912603F6018083898181838A8189
:103DEA00828350E06B817C81C60103960E94C12EBA
:103DFA0081E001C080E00F900F900F900F900F901C
:103E0A00DF91CF911F910F91FF90EF90DF90CF90AC
:063E1A00BF90AF90089577
:103E20008F929F92AF92CF92DF92EF92FF920F9379
:103E30001F93CF93DF936B01E82EEA01F22E0E94CD
:103E40009E268F1558F18E2DB6010E947D2F8C0174
:103E50004F2D8E2DB6010E940A2390E015C0460119
:103E6000AE2C820E931EA11C37FDAA944A2D9401FC
:103E7000F401249147FD2081203259F0FE01E90F21
:103E8000F11D20838F5F9F5F282F30E020173107BF
:103E900030F3C90FD11D188281E001C080E0DF91AD
:103EA000CF911F910F91FF90EF90DF90CF90AF9047
:063EB0009F908F90089521
:103EB600CF92DF92FF920F931F93CF93DF93DC0194
:103EC600942F0CC0C92FD0E0E41BF50BEA0FFB1FA3
:103ED6008081FE01E054FC4F80839F5FE92FF0E074
:103EE6006A0186E0C80ED11CEC15FD0558F3265074
:103EF600310936952795495F5F4FA0E0B0E016C0BF
:103F0600CD01880F991FF601E80FF91F8B01080FE5
:103F1600191FE801F980E054FC4FF082840F951FC9
:103F26001881FC01E054FC4F10831196A217B307C9
:103F360038F3DF91CF911F910F91FF90DF90CF90D3
:023F46000895DC
:103F48000F931F93CF93DF9300D000D000D0CDB74D
:103F5800DEB7182F092F0E94B932CE0101960E94B0
:103F6800BA11882351F024E130E047E554E060E0DD
:103F7800812F902F0E94302E21C059814A813B8188
:103F88002C819D818E811F925F931F924F931F9268
:103F98003F931F922F931F929F931F928F938BE6AD
:103FA80094E0A0E0AF939F938F930F931F930E9489
:103FB800482A0FB6F894DEBF0FBECDBF26960FB6BF
:103FC800F894DEBF0FBECDBFDF91CF911F910F9147
:023FD80008954A
:103FDA006F927F928F92CF92DF92EF923B01882E5F
:103FEA0080919E0F8111FCCF882DB3010E947D2FF5
:103FFA00BC0190E012C0292F30E0E82C6301C40E06
:10400A00D51EE11C57FDEA94F6014491E7FC408174
:10401A00F901EE5DF24F40839F5F492F50E046174A
:10402A00570748F3FB01EE5DF24F8DE08083FB01F9
:10403A00ED5DF24F8AE080836E5F60939E0F81E0B0
:10404A0080939D0F8091220D8093CE00EF90DF9098
:0A405A00CF908F907F906F90089533
:104064000F931F93CF93DF938C01A62FB0E011978A
:10407400FD01EE0FFF1FCD01880F991F880F991FB7
:10408400880F991FE80FF91FE00FF11F83E0848761
:1040940090E00AC0E92FF0E0E901CE0FDF1FE40F42
:1040A400F51F808188839F5F9430A0F3CD01880F32
:1040B400991FAA0FBB1FAA0FBB1FAA0FBB1FA80FD4
:1040C400B91FA00FB11F19968C911997F901848318
:1040D40018968C918583C8010E946410DF91CF915A
:0640E4001F910F910895E9
:1040EA006F927F928F92EF92FF920F931F93CF93CB
:1040FA00DF937C013A01862E8901C0E0D0E025C019
:10410A00A82DC3018C0F9D1FA11DD7FDAA95FC01E7
:10411A002491A7FD2081CE01880F991F1F922F930A
:10412A0021EA37E040E04F933F932F938E0D9F1D76
:10413A009F938F930E94482A21968DB79EB7079620
:10414A000FB6F8949EBF0FBE8DBFC017D107C4F239
:10415A00DF91CF911F910F91FF90EF908F907F90F9
:04416A006F900895B5
:10416E001F920F920FB60F9211242F933F934F93DE
:10417E005F936F937F938F939F93AF93BF93CF93E1
:10418E00EF93FF938091950F8F5F8093950F803201
:10419E0099F41092950FC0E00DC0EC2FF0E0EE0FE9
:1041AE00FF1FE65BF04F0190F081E02D309709F094
:1041BE000995CF5FC53088F3FF91EF91CF91BF91F5
:1041CE00AF919F918F917F916F915F914F913F91A1
:0C41DE002F910F900FBE0F901F901895AE
:1041EA00E89409C097FB3EF4909580957095619587
:1041FA007F4F8F4F9F4F9923A9F0F92F96E9BB273D
:10420A009395F695879577956795B795F111F8CFB8
:10421A00FAF4BB0F11F460FF1BC06F5F7F4F8F4F23
:10422A009F4F16C0882311F096E911C0772321F019
:10423A009EE8872F762F05C0662371F096E8862FB1
:10424A0070E060E02AF09A95660F771F881FDAF708
:0A425A00880F9695879597F908954F
:10426400CF93DF93EA01AB01682F8EE592E00E94C1
:104274004E318EE592E00E9479316EE572E080E87D
:104284000E9442231092A70F84EE93E30E944A26D1
:104294008093A60F0E943133811104C08091A70F2F
:1042A4008F30C0F38091A60F0E942A2C8091A70F13
:1042B4008F3060F02CE030E04BEA58E060E0CE0153
:1042C4000E94302ECE010E94A82F03C0CE010E946E
:0842D400A82FDF91CF9108959E
:1042DC00CF92DF92EF920F931F93CF938A0122E03C
:1042EC0040E85EE00E94101FC82F882329F180E867
:1042FC009EE06C0120E8E22E8E2DB6010E947D2FEF
:10430C004097C9F48E2DB6010E94642CC82F8111E0
:10431C0009C027E030E049E854E060E0C8010E94A1
:10432C00302E0AC028E030E040E954E060E0C801DB
:10433C000E94302E01C0C0E08C2FCF911F910F91A5
:08434C00EF90DF90CF9008957F
:10435400CF92DF92EF920F931F93CF938A0122E0C3
:1043640040E85EE00E94101FC82F882329F180E8EE
:104374009EE06C0120E8E22E8E2DB6010E947D2F76
:104384004097C9F48E2DB6010E94812CC82F81114B
:1043940009C027E030E049E854E060E0C8010E9429
:1043A400302E0AC028E030E040E954E060E0C80163
:1043B4000E94302E01C0C0E08C2FCF911F910F912D
:0843C400EF90DF90CF90089507
:1043CC00CF92DF92EF920F931F93CF938A0122E04B
:1043DC0040E85EE00E94101FC82F882329F180E876
:1043EC009EE06C0120E8E22E8E2DB6010E947D2FFE
:1043FC008097C9F48E2DB6010E949E2CC82F811176
:10440C0009C027E030E049E854E060E0C8010E94B0
:10441C00302E0AC028E030E040E954E060E0C801EA
:10442C000E94302E01C0C0E08C2FCF911F910F91B4
:08443C00EF90DF90CF9008958E
:104444000F931F93CF93DF93FB01248121FD03C0BE
:104454008FEF9FEF2CC022FF16C047815085258126
:1044640036814217530744F4A081B1819D012F5F27
:104474003F4F318320838C93278130852F5F3F4FBB
:104484003087278314C08B01EC01FB010184F28582
:10449400E02D0995892BE1F6D80117968D919C9111
:1044A4001897019618969C938E931797CE01DF91D7
:0844B400CF911F910F910895B3
:1044BC001F920F920FB60F9211242F938F939F93ED
:1044CC00EF93FF938091970F81110EC0E091980F9D
:1044DC00E63950F481E08E0F8093980FF0E08091D4
:1044EC00C600E050FF4F80838091980F833080F09E
:1044FC0090E0FC01E150FF4F20812A3049F4FC018F
:10450C00E250FF4F80818D3019F481E08093970F3A
:10451C00FF91EF919F918F912F910F900FBE0F9064
:04452C001F9018952F
:104530001F920F920FB60F9211242F938F939F9378
:10454000EF93FF9380919B0F81110EC0E0919C0F20
:10455000E63950F481E08E0F80939C0FF0E080915B
:10456000CE00E651F24F808380919C0F833080F023
:1045700090E0FC01E751F24F20812A3049F4FC0120
:10458000E851F24F80818D3019F481E080939B0FC8
:10459000FF91EF919F918F912F910F900FBE0F90F0
:0445A0001F901895BB
:1045A400EF92FF921F93CF93DF93CDB7DEB72A9795
:1045B4000FB6F894DEBF0FBECDBF182F7A019E014F
:1045C4002F5F3F4FAB01682F86E293E00E943220B9
:1045D4009E01275F3F4FAE01495F5F4F612F86E227
:1045E40093E00E942B2D29853A854F815885B70188
:1045F400CE0101960E945B1F2A960FB6F894DEBF87
:104604000FBECDBFDF91CF911F91FF90EF90089522
:10461400CF92DF92EF920F931F93CF93DF934423B4
:1046240029F1042F6B01E82EC0E0D0E010E014C0A3
:10463400AE2DC6018C0F9D1FA11DD7FDAA95FC01AF
:104644008491A7FD8081803231F41F5F011303C080
:10465400CE0101960DC021968E2DB6010E947D2FAC
:10466400C817D90728F380E090E002C080E090E00A
:10467400DF91CF911F910F91EF90DF90CF9008952C
:104684006F927F928F92CF92DF92EF923B01882EAE
:1046940080919A0F8111FCCF882DB3010E947D2F48
:1046A400682F90E012C0292F30E0E82C6301C20E7D
:1046B400D31EE11C37FDEA94F6014491E7FC4081E6
:1046C400F901EA56FE4F40839F5F961760F380938B
:1046D4009A0F81E08093990F809196018093C60090
:0E46E400EF90DF90CF908F907F906F900895B1
:1046F20085E50E94BC291092860F1092850F8FEAE1
:1047020092E30E944A268093A50F0E9431338111C1
:1047120006C08091850F9091860FCC97B0F380915F
:10472200A50F0E942A2C8091850F9091860FCC971D
:1047320020F00E94183481E008958EE592E00E94F4
:10474200A82F6EE572E080E829EC38E040E00E9494
:0E475200132B892B11F480E0089581E0089567
:10476000CF92DF92EF920F931F936C0120E8E22E1D
:1047700004E010E020E237E040E08E2DB6010E9418
:10478000E623892BC1F005E010E025E237E040E0A8
:104790008E2DB6010E94E623892B79F004E010E00B
:1047A0002BE237E040E08E2DB6010E94E623892BF4
:1047B00031F485E005C086E003C084E001C083E0F9
:0C47C0001F910F91EF90DF90CF900895B3
:1047CC00CF92DF92EF920F931F936B01E82E01159E
:1047DC00110519F101501109F6018491E7FC808152
:1047EC00882399F0F901949147FD9081992369F000
:1047FC000115110551F0891308C08FEFC81AD80A9A
:10480C00E80A2F5F3F4F4F4FE5CF90E0F90124911D
:10481C0047FD2081821B910902C080E090E01F912E
:0A482C000F91EF90DF90CF900895F8
:10483600CF92DF92EF926B01E82E2CE638E040E053
:104846000E94132B892BE9F027E738E040E08E2DF4
:10485600B6010E94132B892BB1F02FE738E040E018
:104866008E2DB6010E94072981110FC026E838E077
:1048760040E08E2DB6010E940729882341F085E08D
:1048860007C082E005C084E003C080E001C081E08B
:08489600EF90DF90CF90089530
:10489E00CF93DF93CDB7DEB764970FB6F894DEBF34
:1048AE000FBECDBF9E01275F3F4F0E94BE1582E017
:1048BE00898389858A838A858B838B858C838C8576
:1048CE008D831E828D858F838E858887AE014F5F87
:1048DE005F4F60E828E081E50E94B131882311F036
:1048EE0082E001C080E064960FB6F894DEBF0FBE82
:0848FE00CDBFDF91CF910895B9
:10490600CF935093820F4093810F7093840F6093DF
:10491600830F1092800F10927F0F6FED79E20E9445
:10492600943081E00E944B322FEF83EC99E02150C6
:1049360080409040E1F700C0000060E08DE40E94F6
:104946002C29C82F0E94EF32CC2351F01092820FEF
:104956001092810F1092840F1092830F82E001C093
:0649660080E0CF910895EE
:10496C00CF93DF93443651056105710518F1EC01C5
:10497C007F936F935F934F9389EA97E0A0E0AF9397
:10498C009F938F9383EB97E0A0E0AF939F938F93CC
:10499C00DF93CF930E94482ABE0180E80E947D2FAE
:1049AC002DB73EB7245F3F4F0FB6F8943EBF0FBEF6
:0E49BC002DBF02C08FEF9FEFDF91CF910895C6
:1049CA000E94732A88F09F5798F0B92F9927B751F8
:1049DA00B0F0E1F0660F771F881F991F1AF0BA9599
:1049EA00C9F714C0B13091F00E948C33B1E0089538
:1049FA000C948C33672F782F8827B85F39F0B93F2A
:104A0A00CCF3869577956795B395D9F73EF490954B
:0E4A1A008095709561957F4F8F4F9F4F089547
:104A2800CF93DF93EC018C81813091F018F08230C4
:104A3800E9F01FC02D813E814F8180E80E94132B31
:104A4800892B19F48881998116C08A819B8113C0AA
:104A58002D813E814F8180E80E940729882319F023
:104A68008881998108C08A819B8105C08881998144
:0C4A780002C08A819B81DF91CF910895DC
:104A8400EF92FF920F931F93CF93DF938C01D62F56
:104A9400C0E008C07801EC0EF11C0E949132F701CD
:104AA4008083CF5F2C2F30E08D2F90E00197281763
:104AB400390784F38D2F90E00197E801C80FD91FBF
:104AC4000E949B3288830E94EF3280E0DF91CF9175
:0A4AD4001F910F91FF90EF900895DD
:104ADE0089E39FE00E94612E88E29FE00E94792E7A
:104AEE0083EF9EE00E94912E63E280ED9EE00E9495
:104AFE00F73283E79FE00E9421318FE69FE00E940C
:104B0E0012318BE69FE00E9403310E94BA338093EC
:104B1E00AB0F0E94C6339093920F8093910F0E9419
:0A4B2E00D2338093AA0F81E00895AE
:104B3800CF92DF92EF926C0120E8E22E24E138E078
:104B480040E08E2DB6010E94132B892BA1F02FE196
:104B580038E040E08E2DB6010E94132B892B69F0B6
:104B680026E238E040E08E2DB6010E94132B892BF7
:104B780031F483E005C082E003C082E001C081E037
:084B8800EF90DF90CF9008953B
:104B9000EF92FF920F931F93CF93DF937C0110E06E
:104BA00000E00DC0CE0DDF1D88818E3221F4011191
:104BB00011C001E003C080538A3070F41F5FC12F21
:104BC000D0E0B70180E80E947D2FC817D90750F3C5
:104BD00081E003C080E001C080E0DF91CF911F91B0
:084BE0000F91FF90EF90089582
:104BE8000F931F93CF93DF9300D0CDB7DEB78C011F
:104BF8008FEF9FEFF8019183808342E0BE016F5FE2
:104C08007F4F8DE40E94E52D81110DC0898190E0D0
:104C1800982F88272A81822B0E947A1EF801918377
:104C2800808380E001C081E00F900F90DF91CF91E9
:064C38001F910F91089589
:104C3E00CF93DF93EC01BC0180E80E947D2FBC0175
:104C4E00FC013197EC0FFD1F80818032B1F020E026
:104C5E0030E040E00DC0FE01E20FF31F9081903274
:104C6E0021F441110CC041E001C040E02F5F3F4FE5
:104C7E002617370780F381E003C080E001C080E093
:064C8E00DF91CF910895B3
:104C9400CF93DC016091960F653000F590E015C06C
:104CA400292F30E0F901EE0FFF1FE65BF04F408142
:104CB4005181452B49F4220F331FF901E65BF04F74
:104CC400B183A083C92F04C09F5F953048F3CFEF11
:104CD4006F5F6093960F0E94553401C0CFEF8C2F05
:044CE400CF910895CF
:104CE800CF93DF93CDB7DEB764970FB6F894DEBFE6
:104CF8000FBECDBF21E0AE014F5F5F4F0E94101F76
:104D0800882379F0BE016F5F7F4F80E82CE937E098
:104D180040E00E94132B892B19F40E94B10F01C0A7
:104D280080E064960FB6F894DEBF0FBECDBFDF916A
:044D3800CF9108957A
:104D3C006F927F928F92CF92DF92EF923B01882EEF
:104D4C000E947D2FBC0120E030E080E010C0E82CF8
:104D5C006301C20ED31EE11C37FDEA94F601949157
:104D6C00E7FC9081903209F48F5F2F5F3F4F26173D
:104D7C00370768F3EF90DF90CF908F907F906F9014
:024D8C00089588
:104D8E00CF93DF9300D0CDB7DEB79DE0998381300E
:104D9E0031F018F0803231F013C01A8205C083E86A
:104DAE008A8302C082E88A83AE014F5F5F4F60E85C
:104DBE0022E081E50E94B131882321F082E003C018
:104DCE0081E001C080E00F900F90DF91CF910895A8
:104DDE000F931F93CF938A0122E040E85EE00E947A
:104DEE00101FC82F8823B9F060E87EE080E80E948B
:104DFE0079349C0125503109243E334058F40E94E9
:104E0E00C03328E030E040E954E060E0C8010E9481
:104E1E00302E01C0C0E08C2FCF911F910F910895BD
:104E2E001F920F920FB60F9211242F933F934F9311
:104E3E005F936F937F938F939F93AF93BF93EF93F4
:104E4E00FF93E0917B0FF0917C0F0995FF91EF910D
:104E5E00BF91AF919F918F917F916F915F914F9184
:0E4E6E003F912F910F900FBE0F901F9018953F
:104E7C001F920F920FB60F9211242F933F934F93C3
:104E8C005F936F937F938F939F93AF93BF93EF93A6
:104E9C00FF93E0917D0FF0917E0F0995FF91EF91BB
:104EAC00BF91AF919F918F917F916F915F914F9136
:0E4EBC003F912F910F900FBE0F901F901895F1
:104ECA000F931F93CF93DF93EC012F931F930F93AD
:104EDA006F935F934F938AEB97E0A0E0AF939F9312
:104EEA008F93DF93CF930E94482ABE0180E80E94E5
:104EFA007D2F2DB73EB7255F3F4F0FB6F8943EBFC3
:0E4F0A000FBE2DBFDF91CF911F910F91089523
:104F1800CF92DF92EF92FF920F931F93CF93DF937D
:104F28008C01BC0180E80E947934EC01C8010E9420
:104F3800321C6B017C01BE0180E090E00E94F520EC
:104F48009B01AC01C701B6010E947833DF91CF9174
:0E4F58001F910F91FF90EF90DF90CF90089582
:104F6600CF92DF92EF92CF93DF936A01E62ED22F94
:104F760060E00E942C29811113C0C0E00EC0AE2D46
:104F8600C6018C0F911DA11DFC018491A7FD808196
:104F96000E94C430811104C0CF5FCD1780F380E03A
:0C4FA600DF91CF91EF90DF90CF90089545
:104FB200CF93DF93D82FC0E019C080E00E947332F4
:104FC2002FEF82E597E0215080409040E1F700C04A
:104FD200000081E00E9473322FEF82E597E02150BA
:104FE20080409040E1F700C00000CF5FCD1728F36A
:0C4FF20080E00E947332DF91CF9108959F
:104FFE000F931F93CF938A0122E040E85EE00E9458
:10500E00101FC82F8823A9F080E89EE00E94C825B3
:10501E00C82F882371F080E89EE00E948C270E94A2
:10502E004D3328E030E040E954E060E0C8010E94D2
:0C503E00302E8C2FCF911F910F91089500
:10504A000F931F93CF938A0122E040E85EE00E940B
:10505A00101FC82F8823A9F080E89EE00E94C82567
:10506A00C82F882371F080E89EE00E948C270E9456
:10507A00543328E030E040E954E060E0C8010E947F
:0C508A00302E8C2FCF911F910F910895B4
:105096000F931F93CF938A0122E040E85EE00E94BF
:1050A600101FC82F8823A9F080E89EE00E94C8251B
:1050B600C82F882371F080E89EE00E948C270E940A
:1050C6005B3328E030E040E954E060E0C8010E942C
:0C50D600302E8C2FCF911F910F91089568
:1050E2000F931F93CF938A0122E040E85EE00E9473
:1050F200101FC82F8823A9F060E87EE080E80E9494
:1051020079349FEF980F983C58F40E94B43328E00A
:1051120030E040E954E060E0C8010E94302E01C056
:0C512200C0E08C2FCF911F910F910895D9
:10512E000F931F93CF938A0122E040E85EE00E9426
:10513E00101FC82F8823A9F060E87EE080E80E9447
:10514E0079349AEF980F933158F40E94CC3328E0BB
:10515E0030E040E954E060E0C8010E94302E01C00A
:0C516E00C0E08C2FCF911F910F9108958D
:10517A001F920F920FB60F9211248F93EF93FF9302
:10518A00E091990F80919A0FE81758F481E08E0FF9
:10519A008093990FF0E0EA56FE4F80818093C60013
:1051AA0004C01092990F10929A0FFF91EF918F916C
:0A51BA000F900FBE0F901F90189584
:1051C4001F920F920FB60F9211248F93EF93FF93B8
:1051D400E0919D0F80919E0FE81758F481E08E0FA7
:1051E40080939D0FF0E0EE5DF24F80818093CE00BE
:1051F40004C010929D0F10929E0FFF91EF918F911A
:0A5204000F900FBE0F901F90189539
:10520E006F927F928F92CF92DF92EF920F931F93B6
:10521E003B01882E6901E42E842FB9010E947D2F57
:10522E008C014E2D9601882DB3010E94E62321E0BC
:10523E00892B09F020E0822F1F910F91EF90DF90C4
:0A524E00CF908F907F906F9008952D
:1052580090E0880F991F682B84EA8093BC00909196
:10526800BC009923E4F78091B900887F883099F4CD
:105278006093BB0084E88093BC008091BC008823C5
:10528800E4F78091B900887F883121F0803419F4DF
:0852980080E0089580E0089514
:1052A000CF92DF92EF920F931F93CF93DF93EC0196
:1052B0006B0180E8E82E8E2DB6010E947D2F40976D
:1052C00049F42E2D860140EC57E060E0CE010E94AB
:1052D000652702C08FEF9FEFDF91CF911F910F9154
:0852E000EF90DF90CF900895DC
:1052E800CF92DF92EF920F931F93CF93DF93EC014E
:1052F8006B0180E8E82E8E2DB6010E947D2F409725
:1053080049F42E2D86014FEC57E060E0CE010E9453
:10531800652702C08FEF9FEFDF91CF911F910F910B
:08532800EF90DF90CF90089593
:10533000CF92DF92EF920F931F93CF93DF93EC0105
:105340006B0180E8E82E8E2DB6010E947D2F80979C
:1053500049F42E2D86014EED57E060E0CE010E940B
:10536000652702C08FEF9FEFDF91CF911F910F91C3
:08537000EF90DF90CF9008954B
:10537800CF93DF931F92CDB7DEB79AB192609AB9F7
:10538800E1ECF0E09081977F90839BB19D7F9BB982
:10539800AFE9BFE01197F1F700C000009081986075
:1053A8009083898361E0CE0101960E94EE2B0F90D5
:0653B800DF91CF91089582
:1053BE008091810F9091820F20917F0F3091800FFD
:1053CE00A9014F5F5F4F5093800F40937F0F220FC5
:1053DE00331F820F931F0E94F42520917F0F30916F
:1053EE00800F8091830F9091840F2817390710F04A
:0653FE000E949D34089599
:105404000E944D342FEF89E698E12150804090406E
:10541400E1F700C000000E9451340E943133882318
:10542400E1F38EE592E00E94A82F6EE572E080E839
:1054340024EA38E040E00E940729882311F080E044
:06544400089581E00895C7
:10544A0080918D0F90918E0F20918B0F30918C0F40
:10545A00A9014F5F5F4F50938C0F40938B0F220F20
:10546A00331F820F931F0E94291E20918B0F3091A8
:10547A008C0F80918F0F9091900F2817390710F099
:06548A000E94AE330895FC
:10549000AFE0B0E0EEE4FAE20C941D2D0E891F8916
:1054A00086E08D831A8309838FEF9FE79F838E8326
:1054B0009E01255E3F4F488D598D6A8DCE01019624
:1054C0000E946804E885F985E00FF11F10822F968D
:0654D000E4E00C946F2DD6
:1054D60057FD9058440F551F59F05F3F71F047959F
:1054E600880F97FB991F61F09F3F79F08795089584
:1054F600121613061406551FF2CF4695F1DF08C0A3
:10550600161617061806991FF1CF869571056105BF
:045516000894089558
:10551A00CF92DF92EF9221503109C0F06B01E82E51
:10552A00C20ED31EE11CCA01820F931F422F732F92
:10553A00F6015E2D0E944034262F0E941D3031E074
:10554A00C31AD108E1084150704090F7EF90DF90FC
:04555A00CF90089551
:10555E00A1E21A2EAA1BBB1BFD010DC0AA1FBB1F69
:10556E00EE1FFF1FA217B307E407F50720F0A21BDB
:10557E00B30BE40BF50B661F771F881F991F1A9448
:10558E0069F760957095809590959B01AC01BD0172
:04559E00CF0108959C
:1055A20090E0880F991F282F216084EA8093BC0025
:1055B2009091BC009923E4F78091B900887F8031F3
:1055C20079F42093BB0084E88093BC008091BC00F6
:1055D2008823E4F78091B900887F803409F480E061
:0255E20008952A
:1055E400EF92FF920F931F936093670F7093680F6E
:1055F4008093690F90936A0F2093630F3093640F25
:105604004093650F5093660FE0925F0FF092600F26
:105614000093610F1093620F1F910F91FF90EF9011
:025624000895E7
:10562600CF92DF92EF926B01E82EF6018491E7FCB0
:105636008081F901549147FD508185130BC0882361
:1056460041F08FEFC81AD80AE80A2F5F3F4F4F4F35
:10565600ECCF582F90E0851B9109EF90DF90CF900B
:025666000895A5
:10566800CF93C0E019C081E00E9473322FEF80E72A
:1056780092E0215080409040E1F700C0000080E0B7
:105688000E9473322FEF80E792E0215080409040D3
:10569800E1F700C00000CF5FCA3028F3CF9108952A
:1056A800CF93DF93CDB7DEB7E4970FB6F894DEBF9C
:1056B8000FBECDBFAE014C5C5F4FBE016F5F7F4F29
:1056C8000E94C51E6CA9CE0101960E944F2FE49638
:1056D8000FB6F894DEBF0FBECDBFDF91CF9108950E
:1056E800CF93DF93CDB7DEB7E4970FB6F894DEBF5C
:1056F8000FBECDBFBE016C5C7F4FCE0101960E94EC
:105708003F306CA9CE0101960E944F2FE4960FB648
:0E571800F894DEBF0FBECDBFDF91CF91089594
:10572600CF93DF93CDB7DEB7E4970FB6F894DEBF1D
:105736000FBECDBFBE016C5C7F4FCE0101960E94AD
:1057460050306CA9CE0101960E944F2FE4960FB6F9
:0E575600F894DEBF0FBECDBFDF91CF91089556
:1057640084B18B7F84B9E9E6F0E080818F7E808309
:105774008081806280838DB384608DBB83B7817F99
:10578400846083BF83B7816083BF7894889583B72F
:0C5794008E7F83BF8DB38B7F8DBB08958B
:1057A000E1ECF0E08081806180838081886080838B
:1057B000808180688083808180648083E0ECF0E079
:1057C00080818260808386E08093C20080E190E0E7
:0C57D0009093C5008093C4007894089565
:1057DC00DC0180919A0F8111FCCF90E00BC0292F36
:1057EC0030E0FD01E20FF31F4081F901EA56FE4F54
:1057FC0040839F5F961798F360939A0F81E0809394
:0C580C00990F809196018093C6000895CA
:10581800E9ECF0E08081806180838081886080830A
:10582800808180688083808180648083E8ECF0E0F8
:1058380080818260808386E08093CA0080E190E066
:0C5848009093CD008093CC0078940895DC
:10585400082E000C990BFC01EE0FFF1FE65BF04FC6
:1058640020813181232B81F0880F991FFC01E65B95
:10587400F04F118210828091960F81508093960F81
:0A588400811102C00E9480340895D3
:10588E000E9423330E9446330E942234882349F01B
:10589E0081E00E9473320E945A1280E00E9473329D
:1058AE0002C00E940A082FEF81E19AE72150804042
:0A58BE009040E1F700C00000E7CFC2
:1058C800CF92DF92EF926B01E82E0E947D2F4097D6
:1058D80079F420E130E040E050E08E2DB6010E94DE
:1058E8008D2A61E080E490E00E941C3081E001C0D4
:0A58F80080E0EF90DF90CF9008955C
:10590200CF92DF92EF926B01E82E0E947D2F40979B
:1059120079F420E130E040E150E08E2DB6010E94A2
:105922008D2A61E081E490E00E941C3081E001C098
:0A59320080E0EF90DF90CF90089521
:10593C00CF92DF92EF926B01E82E0E947D2F809721
:10594C0079F420E230E040E250E08E2DB6010E9466
:10595C008D2A61E082E490E00E941C3081E001C05D
:0A596C0080E0EF90DF90CF900895E7
:10597600CF93C82F81E00E9473322FEF83ED90E31F
:10598600215080409040E1F700C000008C2F0E941B
:10599600D9272FEF89E698E1215080409040E1F722
:0859A60000C00000CF9108953C
:1059AE0040E05CE566E275E08EE592E00E94B6248A
:1059BE008EE592E00E9479316EE572E080E80E94F9
