:100000000C94D7000C94FB240C94FB240C949C239C
:100010000C94FB240C94FB240C94FB240C94FB24E4
:100020000C94FB240C94F9160C94FB240C94FB24E4
:100030000C94FB240C94691C0C94FB240C94FB245E
:100040000C94421C0C94FB240C94FB240C94FB2475
:100050000C94A0180C94FB240C944C190C94FB24C5
:100060000C94FB240C94FB240C94FB240C94FB2494
:100070000C94DA180C94FB240C948319880E9F0EB0
:10008000FB0EA80E040FED0EF40EB80EC40ED00E2B
:10009000DA0EE60E800C8D0C970C9D0CCC0CF70C38
:1000A000100D010006AF8006AF06BB0049FA06BB83
:1000B00006D5800000407A10F35A00A0724E18094D
:1000C0000010A5D4E80000E87648170000E40B54BF
:1000D000020000CA9A3B000000E1F505000080968E
:1000E0009800000040420F000000A08601000000C0
:1000F000102700000000E80300000000640000007A
:1001000000000A00000000000100000000002C7642
:10011000D888DC674F0823DFC1DFAE59E1B1B7965D
:10012000E5E3E453C63AE651997696E8E6C28426BA
:10013000EB898C9B62ED407C6FFCEFBC9C9F40F296
:10014000BAA56FA5F490055A2AF75C936B6CF96712
:100150006DC11BFCE0E40D47FEF520E6B500D0EDD7
:10016000902E0300943577050080841E080000203F
:100170004E0A000000C80C333333330F986E1283DD
:100180001141EF8D2114893BE65516CFFEE6DB18B1
:10019000D1844B381BF77C1D901DA4BBE424203276
:1001A00084725E228100C9F124ECA1E53D2711246F
:1001B0001FBECFEFD0E1DEBFCDBFE2EAF0E040E00E
:1001C00017C0B591A59135912591059107FD0CC0FA
:1001D00095918591EF01F92FE82F05900D92A217C7
:1001E000B307D9F7FE0104C01D92A217B307E1F7C8
:1001F000E33BF40731F70E9433230C94FF00F8949B
:02020000FFCF2E
:10020200456E64206F6620636F6C6C656374696F02
:100212006E730049443D25752C206E3D25752C20BA
:1002220073693D2575004661696C656420746F20B1
:10023200726561642074696D6500253032752D2503
:100242003032752D2530327554253032753A2530CD
:1002520032753A253032750049443D312E2E2E49F1
:10026200443D33206E6F742076616C6964004944AA
:100272003D352E2E2E49443D37206E6F7420766117
:100282006C69640049443D392E2E2E49443D31317A
:10029200206E6F742076616C69640049443D31338D
:1002A2002E2E2E49443D3135206E6F742076616CBE
:1002B200696400416C6C2076616C696400666169F6
:1002C2006C6564007375636365737300546F6F20AC
:1002D2006D756368206461746120746F20626520AB
:1002E200696E20627566666572210030303030308A
:1002F200303030303030303030303000303030302C
:1003020030303030303030303030303030303030EB
:1003120030303030303030303030303000416C6C82
:100322002073657474696E677320726573657400F7
:100332004D75737420626520696E20666F726D61FF
:10034200743A2079792D6D6D2D64645468683A6D24
:100352006D3A7373004661696C656420746F207333
:1003620065742074696D6500646576657569006100
:100372007070657569006170706B65790070706D81
:100382007800252E32660072726C7800766363788C
:1003920000636F6C7300686561745F75705F7400F1
:1003A200686561742075702074696D653D257520DE
:1003B2006D006169725F70756D705F740061697262
:1003C2002070756D702074696D653D257520730010
:1003D20073705F696E74657276616C0073616D70C3
:1003E2006C696E672070726F6365737320696E74D7
:1003F200657276616C3D257520680074696D6500D3
:1004020076616C6964617465004E6F742061207658
:10041200616C6964206F7065726174696F6E0072DD
:05042200657365740024
:100427006F6E00506F776572206D657468616E65D9
:100437002073656E736F72206F6E006F6666005073
:100447006F776572206D657468616E652073656E80
:10045700736F72206F666600726561640045727221
:100467006F72207768656E2072656164696E6720B8
:10047700646174610050504D3D2575004E6F7420C6
:10048700612076616C6964206F7065726174696F51
:100497006E00434F323D25752070706D2C207465BA
:1004A7006D703D252E316620432C2068756D69647B
:1004B7006974793D252E3166252520524800506FF5
:1004C70077657220746F206169722070756D702076
:1004D7006F6E00506F77657220746F2061697220AC
:1004E70070756D70206F6666006D65746800736364
:0904F7006433300070756D700073
:100500002A2A2A2A2A2A2A2A204D657468616E65B9
:100510002053656E736F722076312E30202A2A2A7E
:100520002A2A2A2A2A0053657474696E67206D6F1F
:1005300064756C65732075702E2E2E20506C65616D
:1005400073652077616974004661696C6564207425
:100550006F20696E697469616C697A65207379735B
:1005600074656D2E2E2E004E6F742076616C69645A
:100570000057726F6E6720666F726D6174002A2A71
:100580002A2A2A2A2A20526561647920666F7220FD
:100590006E657720636F6D6D616E64202A2A2A2A4A
:0C05A0002A2A2A00457869742E2E2E00AD
:1005AC006578697400627265616B007265616400E4
:1005BC002A2A2A2A2A2A2A20596F75206172652034
:1005CC006469726563746C7920636F6E6E656374B5
:1005DC00656420746F20524E32343833202A2A2A14
:1005EC002A2A2A2A2A002D2D3E2573006272656163
:1005FC006B2030783535006E756C6C00436C6F7306
:10060C00696E6720636F6E6E656374696F6E2074BC
:10061C006F20524E323438332E2E2E006C6F726196
:01062C0000CD
:10062D0025303278000D0A0073797320736C65657F
:10063D007000257320256C64002573202573006DD3
:10064D0061632073657420646576657569006D61FD
:10065D00632073657420617070657569006D6163E9
:10066D0020736574206170706B6579006F6666002C
:10067D006D61632073657420616472006F6E006D2F
:10068D00616320747820636E6600257320257520C4
:03069D00257300C2
:1006A000524E32343833006E6F207265706C792E82
:0306B0002E2E00EB
:0806B300696E66006E616E00C5
:0506BB0046000002E30F
:0506C0000010000081A4
:0206C500030030
:0106C7000230
:1006C800A4E1B0E0EAE6F3E00C9452206C011A01D0
:1006D800462E5901FC0110861782848181FF62C36E
:1006E800CE0101969D878C87A0E88A8B9B8BAC8B6B
:1006F800F101849147FC8081882309F44FC3442D7C
:1007080091012F5F3F4F4F4F853219F01901442E49
:100718000AC0F901849147FD808192E0290E311CBD
:10072800411C853249F4B60190E00E946418BF86E6
:10073800AE86AE84BF84DCCF10E0F12C00E000323E
:10074800A0F48B3269F030F4803259F0833269F4C6
:1007580000612CC08D3239F0803339F4016026C035
:100768000260046023C0086021C007FD29C090ED25
:10077800980F9A3078F406FF06C0AAE01A9F900DE9
:100788001124192F13C0EAE0FE9E900D1124F92EB2
:1007980000620CC08E3221F406FD00C3006406C05E
:1007A8008C3611F4006802C0883651F4F101849146
:1007B80047FC8081FFEF2F1A3F0A4F0A8111BFCFF4
:1007C8009BEB980F933018F40061805E06C09BE99C
:1007D800980F933008F066C10F7E06FF16E00F737E
:1007E800702E853621F4202F2064722E08C086369C
:1007F80021F4802F8068782E02C01111115077FEE5
:1008080007C01C3350F4EE24E394E10E27E00BC03C
:10081800183038F027E017E005C027E06CE3E62E33
:1008280002C0212FE12CF5013496FF87EE87F501F0
:1008380060817181828193810E2DAE014F5F5F4F80
:100848000E94D30A5C01598050FE02C053FE06C0C4
:1008580071FC06C072FE06C000E205C00DE203C0CE
:100868000BE201C000E0852D8C7019F0011173C2F4
:10087800BEC277FE0FC0EA0C54FE04C08A818133E1
:1008880009F4EA941E1474F528E02E1578F538E07A
:10089800E32E2CC076FC2AC0812F90E08A159B0598
:1008A8009CF08CEFA8168FEFB80674F0972D90681F
:1008B800792E0AC0E2E0F0E0EC0FFD1FE10FF11D18
:1008C8008081803319F411501111F4CF77FE0EC0D6
:1008D800EE24E394E10E812F90E0A816B9062CF4DB
:1008E8001A1904C0EE24E39401C010E077FE06C094
:1008F8001A141B0434F4C501019605C085E090E084
:1009080002C081E090E001110196112331F0212FFE
:1009180030E02F5F3F4F820F931F2F2D30E082175B
:10092800930714F4F81A01C0F12C872D897049F443
:10093800FF2039F0B60180E290E00E946418FA9432
:10094800F7CF002329F0B601802F90E00E946418A9
:1009580073FC09C0FF2039F0B60180E390E00E94E3
:100968006418FA94F7CF77FE49C03501B7FE02C084
:10097800612C712CC5018619970988248394912CC0
:100988008C0E9D1E880E991EF501EE19F109F98B42
:10099800E88B012F10E0119501951109FFEF6F16F3
:1009A8007F0629F4B6018EE290E00E946418A6142E
:1009B800B70444F088899989861597051CF4F401D1
:1009C800818101C080E3F1E06F1A71082FEF821A6C
:1009D800920A601671062CF0B60190E00E94641825
:1009E800DDCFA614B70439F49A81963318F49533F9
:1009F80011F454FE81E3B60190E051C08A8181333D
:100A080019F0952D9F7E592EB60190E00E9464182A
:100A1800111105C074FC1CC085E690E01BC0B6012E
:100A28008EE290E00E94641802E0010F82E011E07B
:100A3800180FE1E0F0E0EC0FFD1FE80FF11D8081D9
:100A4800B60190E00E946418812F1013F0CFE2CF16
:100A580085E490E0B6010E946418B7FC05C0A114B3
:100A6800B10439F454FE05C0B194A194B1088DE2E3
:100A780001C08BE2B60190E00E94641880E3EAE0CE
:100A8800AE16B1042CF08F5FAAE0AA1AB108F7CF0E
:100A9800B60190E00E946418B601C501C0960E9494
:100AA800641872C1833631F0833791F0833509F0C9
:100AB8005DC024C0C50102969F878E87F50180819D
:100AC80089836A887B888C88AA24A394B12C14C053
:100AD800C50103969F878E87F501608071808280AB
:100AE80006FF03C0412F50E002C04FEF5FEF882D93
:100AF800B3010E94A4205C010F7715C0C5010396BD
:100B08009F878E87F50160807180828006FF03C011
:100B1800412F50E002C04FEF5FEF882DB3010E94D4
:100B2800A4205C01006803FD1DC08F2D90E0A8166D
:100B3800B906C0F4B60180E290E00E946418FA9405
:100B4800F4CFF301849187FC8081FFEF6F1A7F0A4D
:100B58008F0AB60190E00E946418F110FA9421E01F
:100B6800A21AB108A114B10461F70EC1843611F0BC
:100B7800893679F5C50107FF09C004969F878E87D6
:100B8800F50160817181828193810AC002969F87F5
:100B98008E87F50160817181072E000C880B990BF7
:100BA8000F76E02E97FF0AC0909580957095619515
:100BB8007F4F8F4F9F4FF02FF068EF2E2AE030E0E5
:100BC800AE014F5F5F4F0E942A14A82E2C85A21AEF
:100BD8004BC0853729F40F7EE02E2AE030E025C08F
:100BE800902F997FE92E8F36C1F018F4883579F067
:100BF800D5C0803719F0883721F0D0C0A92FA0615F
:100C0800EA2EE4FE0DC0EE2DE460EE2E09C004FFCE
:100C18000AC0F92FF660EF2E06C028E030E005C0C4
:100C280020E130E002C020E132E0C501E7FE09C062
:100C380004969F878E87F5016081718182819381F7
:100C480008C002969F878E87F5016081718180E0D8
:100C580090E0AE014F5F5F4F0E942A14A82EFC85DA
:100C6800AF1A2E2D2F77E22EE6FE0BC00E2D0E7F2B
:100C7800A11650F4E4FE0AC0E2FC08C00E2D0E7E58
:100C880005C0BA2C0E2D03C0BA2C01C0B12E04FF2A
:100C98000DC0FE01EA0DF11D8081803311F4097E3B
:100CA80009C002FF06C0B394B39404C0802F8678AD
:100CB80009F0B39403FD11C000FF06C0BF1488F407
:100CC800FA0C1F2D1B190EC0BF1460F4B60180E288
:100CD80090E00E946418B394F7CFBF1418F4FB187F
:100CE80002C01A2DF12C04FF10C0B60180E390E079
:100CF8000E94641802FF17C001FD03C088E790E056
:100D080002C088E590E0B6010CC0802F867859F0C3
:100D180001FF02C08BE201C080E207FD8DE2B6014F
:100D280090E00E946418A11638F4B60180E390E0C0
:100D38000E9464181150F7CFAA94E1E0F0E0EC0F9C
:100D4800FD1FEA0DF11D8081B60190E00E94641834
:100D5800A110F2CF19C0F4E0FF1580F584E0F81A6D
:100D680073FE23C001112BC053FE2FC057EB852EF5
:100D780056E0952E50E0A52E072D0071F4018491C0
:100D8800A7FC8081811128C0FF2009F4D2CCB601CC
:100D980080E290E00E946418FA94F6CFF601878109
:100DA80090852CC08FEF9FEF29C0B60180E290E0BC
:100DB8000E946418FA94F110F8CFD4CFF12CB60140
:100DC800802F90E00E946418CFCF43EB842E46E03A
:100DD800942E40E0A42ED0CF01118052B60190E0AD
:100DE8000E946418FFEF8F1A9F0AAF0AC7CF23E04B
:100DF8002F1510F483E0B3CFF12CB6CF6496E2E15F
:040E08000C9489209D
:100E0C002F923F924F925F926F927F928F92AF92FE
:100E1C00BF92CF92DF92EF920F931F93CF93DF93FA
:100E2C0000D000D000D0CDB7DEB73B01882E5A01E0
:100E3C0019014115510521F0FA01608371838283F8
:100E4C002114310429F0C1010297839708F01AC1CB
:100E5C00E82C6301FFEFCF1ADF0AEF0AF3011491BC
:100E6C0087FC1081812F90E00E94CD234C2D3D2DCD
:100E7C002E2D892B19F036018E2CEACF1D3269F4F8
:100E8C00E82C630152E0C50ED11CE11CE42FF32FBA
:100E9C00149127FD108101E00EC01B3259F4E82C8F
:100EAC00630182E0C80ED11CE11CE42FF32F1491D6
:100EBC0027FD108100E02114310409F190E129167D
:100ECC00310429F43FC010E32114310421F1F8E07E
:100EDC002F16310401F154F432E02316310421F5BC
:100EEC00412C512C612C50E4752E4BC04AE0241639
:100EFC00310439F050E125163104B1F43DC0103302
:100F0C0019F13AE0232E312C4CEC442E542C642C49
:100F1C004CE0742E36C098E0292E312C412C512CEB
:100F2C00612C20E1722E2DC060E070E080E090E832
:100F3C009101032C000C440B550B0E94011F29013D
:100F4C003A011FC01033C1F4F6018491E7FC808193
:100F5C008F7D883509F0B7CFAE2DC6010196A11D46
:100F6C00FC011491A7FD1081E2E0CE0ED11CE11C16
:100F7C00026060E1262E312C412C512C612C88E032
:100F8C00782EA0E060E070E0CB019101032C000C06
:100F9C00440B550B29833A834B835C83E0EDE10FC3
:100FAC00EA3060F02FEB210F2A3110F4E9EC05C088
:100FBC002FE9210F2A3150F5E9EAE10F2E2F30E00D
:100FCC00221533051CF5A7FD18C0461657066806F2
:100FDC00790680F029813A814B815C810E94B12293
:100FEC006E0F711D811D911D61307105810530E8F9
:100FFC00930710F0AFEF01C0A1E0F6011491E7FCEC
:10100C0010814FEFC41AD40AE40AC8CF202F2170E4
:10101C00A114B104B1F0AA2349F051E0C51AD108CA
:10102C00E108F501C082D182E2820BC001FF1DC034
:10103C00F2E0CF1AD108E108F501C082D182E28238
:10104C0014C0A7FF12C0222329F060E070E080E0FA
:10105C0090E804C06FEF7FEF8FEF9FE722E230E064
:10106C003093B7042093B60409C0222381F09095E5
:10107C008095709561957F4F8F4F9F4F462F372FDF
:10108C00282F12C040E030E020E090E00DC097FF28
:10109C00F5CF82E290E09093B7048093B6046FEFA3
:1010AC007FEF8FEF9FE7EACF642F732F822F269667
:1010BC000FB6F894DEBF0FBECDBFDF91CF911F915D
:1010CC000F91EF90DF90CF90BF90AF908F907F906B
:0C10DC006F905F904F903F902F90089510
:1010E800CF92DF92EF92FF920F931F93CF93DF93EC
:1010F800CDB7DEB768970FB6F894DEBF0FBECDBF89
:101108006B01E82EF42E052F21E0AE014F5F5F4FF3
:101118000E942616182F882309F431C18E2DB60196
:101128000E94F11B823009F429C1CE0101966C019D
:1011380020E8E22E2AE633E040E08E2DB6010E9438
:10114800651F892B29F48F2D902F0E94552117C1D7
:1011580021E733E040E08E2DB6010E94651F892B00
:1011680029F48F2D902F0E946D2109C128E733E0C3
:1011780040E08E2DB6010E94651F892B29F48F2D22
:10118800902F0E948521FBC02FE733E040E08E2D91
:10119800B6010E94651F892BE1F4CE0145960E9495
:1011A800C122888D8F938F898F938E898F938D8994
:1011B8008F9384E893E0A0E0AF939F938F930F936E
:1011C800FF920E949A1E0FB6F894DEBF0FBECDBFE5
:1011D800D6C029E833E040E08E2DB6010E94651F95
:1011E800892BE1F4CE0145960E94D022888D8F93F9
:1011F8008F898F938E898F938D898F9384E893E05D
:10120800A0E0AF939F938F930F93FF920E949A1E33
:101218000FB6F894DEBF0FBECDBFB1C02EE833E0E5
:1012280040E08E2DB6010E94651F892BE1F4CE01A6
:1012380045960E94DF22888D8F938F898F938E89A0
:101248008F938D898F9384E893E0A0E0AF939F9369
:101258008F930F93FF920E949A1E0FB6F894DEBFE9
:101268000FBECDBF8CC023E933E040E08E2DB60120
:101278000E94651F892B29F48F2D902F0E94CC1373
:101288007EC028E933E040E08E2DB6010E94651F3C
:10129800892BA1F40E947A241F928F9382EA93E00B
:1012A800A0E0AF939F938F930F93FF920E949A1E93
:1012B8000FB6F894DEBF0FBECDBF61C024EB33E09C
:1012C80040E08E2DB6010E94651F892BA1F40E9473
:1012D80086249F938F938FEB93E0A0E0AF939F9327
:1012E8008F930F93FF920E949A1E0FB6F894DEBF59
:1012F8000FBECDBF44C022ED33E040E08E2DB601D5
:101308000E94651F892BA1F40E9492241F928F933B
:101318008EED93E0A0E0AF939F938F930F93FF928E
:101328000E949A1E0FB6F894DEBF0FBECDBF27C02D
:101338002DEF33E040E08E2DB6010E94651F892B0A
:1013480029F48F2D902F0E94711619C022E034E0E5
:1013580040E08E2DB6010E94651F892B29F48F2D40
:10136800902F0E940B0F0BC026E130E04BE054E0B9
:1013780060E08F2D902F0E94242101C010E0812F62
:1013880068960FB6F894DEBF0FBECDBFDF91CF9140
:0E1398001F910F91FF90EF90DF90CF9008957E
:1013A6006F927F928F92AF92BF92CF92DF92EF921F
:1013B6001F93CF93DF93CDB7DEB764970FB6F8943C
:1013C600DEBF0FBECDBF3B01882E5A0121E0AE0124
:1013D6004F5F5F4F0E942616182F882309F4CDC051
:1013E600CE0101966C0120E8E22E2AE633E040E0C9
:1013F6008E2DB6010E94651F892B39F4A501882D13
:10140600B3010E94B017182FB8C021E733E040E0BF
:101416008E2DB6010E94651F892B39F4A501882DF2
:10142600B3010E94EC17182FA8C028E733E040E06C
:101436008E2DB6010E94651F892B39F4A501882DD2
:10144600B3010E942818182F98C02FE733E040E018
:101456008E2DB6010E94651F892B39F4A501882DB2
:10146600B3010E94041D182F88C029E833E040E02C
:101476008E2DB6010E94651F892B39F4A501882D92
:10148600B3010E942A1D182F78C02EE833E040E0F1
:101496008E2DB6010E94651F892B39F4A501882D72
:1014A600B3010E94501D182F68C023E933E040E0C5
:1014B6008E2DB6010E94651F892B39F4A501882D52
:1014C600B3010E94210D182F58C028E933E040E0EF
:1014D6008E2DB6010E94651F892B39F4A501882D32
:1014E600B3010E94761D182F48C024EB33E040E07C
:1014F6008E2DB6010E94651F892B39F4A501882D12
:10150600B3010E941A1C182F38C022ED33E040E0C8
:101516008E2DB6010E94651F892B39F4A501882DF1
:10152600B3010E949C1D182F28C021E234E040E040
:101536008E2DB6010E94651F892B39F4A501882DD1
:10154600B3010E94B611182F18C02DEF33E040E00A
:101556008E2DB6010E94651F892B39F4A501882DB1
:10156600B3010E943711182F08C026E130E04BE086
:1015760054E060E0C5010E942421812F64960FB6D5
:10158600F894DEBF0FBECDBFDF91CF911F91EF90D4
:10159600DF90CF90BF90AF908F907F906F9008951F
:1015A600283008F027E03327DA01990F311D87FD2F
:1015B600916000966105710539F432602E5F3D93A6
:1015C60030E32A95E1F708959F3F30F080387105A2
:1015D600610509F03C5F3C5F3D93913008F08068FF
:1015E600911DDF93CF931F930F93FF92EF92192FC5
:1015F600987F9695E92F96959695E90FFF27E25FD6
:10160600FE4F99273327EE24FF24A701E701059013
:101616000894079428F4360FE71EF81E491F511D3B
:10162600660F771F881F991F0694A1F705900794E8
:1016360028F4E70EF81E491F561FC11D770F881F95
:10164600991F661F0694A1F70590079428F4F80ED3
:10165600491F561FC71FD11D880F991F661F771F69
:101666000694A1F70590079420F4490F561FC71F4B
:10167600D81F990F661F771F881F0694A9F78491B4
:101686001095177041F0D695C79557954795F794DD
:10169600E7941A95C1F7E4EBF0E06894159015917C
:1016A60035916591959105907FE27395E118F10A60
:1016B600430B560BC90BD009C0F7E10CF11E431FB3
:1016C600561FC91FD01D7EF4703311F48A95E6CFDC
:1016D600E894015030F0080F0AF40027021708F4C6
:1016E600202F2395022F7A3328F079E37D932A95CC
:1016F600E9F710C07D932A9589F606949795679524
:10170600379517951794E118F10A430B560BC90B39
:10171600D00998F023957E9173957A3308F070E39B
:101726007C932013B8F77E9170617D9330F083959A
:1017360071E37D9370E32A95E1F71124EF90FF9012
:101746000F911F91CF91DF91992787FD909508956D
:101756009F92AF92BF92CF92DF92EF92FF920F933A
:101766001F93CF93DF93CDB7DEB72E970FB6F894BE
:10177600DEBF0FBECDBF942EA52E22E04FE756E06A
:101786000E942616B82E882309F492C08FE796E0A9
:101796006C0120E8E22E27E234E040E08E2DB6010F
:1017A6000E94651F892B79F40E94F62381E00E942E
:1017B600742328E130E04AE254E060E0892D9A2D56
:1017C6000E94242175C022E434E040E08E2DB6014B
:1017D6000E94651F892B79F40E94F62380E00E94FF
:1017E600742329E130E046E454E060E0892D9A2D27
:1017F6000E9424215DC02FE534E040E08E2DB60125
:101806000E94651F892B09F04AC019861A861B8615
:101816001C861D821E821F82188619821A821B82CE
:101826001C82CE0109960E94DF22CE0105960E94F7
:10183600D022CE0101960E94C122E980FA800B8156
:101846001C812D813E814F81588569857A858B85DE
:101856009C850E94441FCE010D960E94471B88233B
:1018660051F028E130E044E654E060E0892D9A2DFD
:101876000E9424211DC08E858F938D858F938CE7C2
:1018860094E0A0E0AF939F938F93AF929F920E94B4
:101896009A1E0FB6F894DEBF0FBECDBF09C026E173
:1018A60030E043E854E060E0892D9A2D0E9424211F
:1018B6008B2D2E960FB6F894DEBF0FBECDBFDF91EF
:1018C600CF911F910F91FF90EF90DF90CF90BF9037
:0618D600AF909F90089501
:1018DC006F927F928F92CF92DF92EF92CF93DF93A2
:1018EC00C0E0EC2FF0E0E730F105D8F7E65BFF4FF6
:1018FC000C94A4240E94861F0E94C9240E94EC24EC
:10190C006CEB75E080E00E949015C1E0EACF0E947C
:10191C001924882331F382E594E00E940D22C2E061
:10192C00E0CF82E594E00E94BA19C82FDACF82E5A5
:10193C0094E06C0120E8E22E2F93DF928F9382EFDC
:10194C0095E0A0E0AF939F938F93CAE8D3E0DF9329
:10195C00CF930E949A1E3E0120E8822E882DB3015F
:10196C000E949015AE016C2D7D2D8E2D0E94EF24C2
:10197C00882DB3010E9490158DB79EB708960FB6AF
:10198C00F8949EBF0FBE8DBFC1E0ABCF88EF95E042
:10199C00A0E0AF939F938F9382EF95E0A0E0AF937D
:1019AC009F938F93CAE8D3E0DF93CF930E949A1E44
:1019BC00BE0180E80E9490158FE798E321E08150EA
:1019CC0090402040E1F700C000000E94F2248DB747
:1019DC009EB708960FB6F8949EBF0FBE8DBFC1E0A0
:1019EC0080CF0E941224882329F08AE893E00E9479
:1019FC00F92109C025E030E043E056E060E08AE8D8
:101A0C0093E00E9424216AE873E080E80E9490151C
:101A1C00C1E067CF0E94B52468E076E080E00E94C8
:101A2C00901581E0DF91CF91EF90DF90CF908F9068
:061A3C007F906F900895F9
:101A42004F925F926F927F928F92AF92BF92CF929C
:101A5200DF92EF920F931F93CF93DF93CDB7DEB751
:101A6200CB54D1090FB6F894DEBF0FBECDBF3B01F8
:101A7200882E5A0122E044EE55E00E942616182FC5
:101A8200882309F472C084EE95E06C0120E8E22E0E
:101A92008E2DB6010E94E5240FEF080F0F3008F0DB
:101AA2005FC023E044EE55E0882DB3010E94261664
:101AB200182F882309F459C08E2DB6010E94E524FF
:101AC2002C0102978336910508F04CC024E044EEC5
:101AD20055E0882DB3010E942616182F882309F499
:101AE20044C08E2DB6010E94E5246C010297873511
:101AF2009240D0F56BE4CE0101960E94E723802F3D
:101B020090E0FC01EE0FFF1FEE0FFF1FE80FF91F21
:101B120081E090E08C0F9D1FE80FF91F51824082F7
:101B2200D382C2826FE00E948D1A811109C02FE117
:101B320030E04EEC52E060E0C5010E94242115C065
:101B4200BE016F5F7F4F80E84BE40E943C2428E097
:101B520030E046EC52E060E0C5010E94242105C05D
:101B620010E003C010E001C010E0812FC55BDF4F21
:101B72000FB6F894DEBF0FBECDBFDF91CF911F919C
:101B82000F91EF90DF90CF90BF90AF908F907F90AA
:081B92006F905F904F900895E1
:101B9A000F931F93CF93DF93CDB7DEB727970FB677
:101BAA00F894DEBF0FBECDBF8C0121E047EC56E0B2
:101BBA0060E081E50E94A62381117CC047E0BE0156
:101BCA006F5F7F4F81E50E943D21811175C0298198
:101BDA00822F8F7790E0959587959595879595951E
:101BEA00879595958795880F982F990F990F890F43
:101BFA002F70820FF80180832A81822F8F7790E0DD
:101C0A0095958795959587959595879595958795B2
:101C1A00880F982F990F990F890F2F70820F818340
:101C2A002B81822F8F7390E095958795959587954F
:101C3A009595879595958795880F982F990F990F60
:101C4A00890F2F70820F82832C81822F8F7390E0ED
:101C5A009595879595958795959587959595879562
:101C6A00880F982F990F990F890F2F70820F8383EE
:101C7A002E81822F8F7190E09595879595958795FE
:101C8A009595879595958795880F982F990F990F10
:101C9A00890F2F70820F84838F81982F92959F705E
:101CAA00990F292F220F220F920F8F70890F858388
:101CBA0080E003C082E001C082E027960FB6F89464
:101CCA00DEBF0FBECDBFDF91CF911F910F91089557
:101CDA00CF930E94A41FC0E00DC0C2E00BC0C5E0B4
:101CEA0009C0C6E007C0C5E005C0C5E003C0C5E03D
:101CFA0001C0C5E0EC2FF0E0EC30F105D8F7E25C6A
:101D0A00FF4F0C94A42460E075E080E00E949015D7
:101D1A0066E275E080E00E9490150E9491220E947E
:101D2A0021228111DACF68E475E080E00E949015E3
:101D3A00C4E0E0CF0E9419248111C3E00E9420244C
:101D4A008111CDCFD7CF82E594E00E940D2282E5A2
:101D5A0094E00E94721B882321F282E594E00E949B
:101D6A009D21C82FC7CF62E574E080E84AE853E0B6
:101D7A000E947408882309F4B6CFCBE0BBCF62E592
:101D8A0074E080E84AE853E00E94D309882309F402
:101D9A00ACCFCBE0AFCF62E574E080E80E94C71B0E
:101DAA00882309F4A4CFC2E0A5CF62E574E080E8F5
:101DBA004AE853E00E948814882309F49ACFCBE0BA
:101DCA0099CF6AE873E080E80E949015C2E092CF4A
:101DDA0067E675E080E00E949015C2E08BCF61E76C
:101DEA0075E080E00E949015C2E084CF0E94BA2478
:101DFA006EE775E080E00E949015C1E07BCF64EA4F
:0C1E0A0075E080E00E949015CF910895D3
:101E1600EF92FF920F931F93CF93DF93CDB7DEB769
:101E2600CF54D1090FB6F894DEBF0FBECDBF7C01EB
:101E36006BE4CE0105960E94E72349895A896C8591
:101E46007D858E010D5F1F4F9E012F5F3F4F8F8156
:101E560098850E946913811109C026E130E04AE5A0
:101E660052E060E0C7010E94242159C04DA15EA145
:101E760068A179A18E010D5F1F4F9E012F5F3F4F15
:101E86008B8D9C8D0E946913811109C026E130E07B
:101E960040E752E060E0C7010E94242140C049ADFE
:101EA6005AAD6CA97DA98E010D5F1F4F9E012F5F54
:101EB6003F4F8FA598A90E946913811109C027E198
:101EC60030E046E852E060E0C7010E94242127C0C6
:101ED6002F964EAD5FAD2F972A966EAD7FAD2A97A2
:101EE6008E010D5F1F4F9E012F5F3F4F25968EADD2
:101EF6009FAD25970E946913811109C028E130E042
:101F06004DE952E060E0C7010E94242108C02AE0A2
:101F160030E045EB52E060E0C7010E942421C15B3E
:101F2600DF4F0FB6F894DEBF0FBECDBFDF91CF9166
:0A1F36001F910F91FF90EF900895A6
:101F4000BF92CF92DF92EF92FF920F931F93CF93A6
:101F5000DF9300D000D000D0CDB7DEB7F42E052F30
:101F600022E04FE756E00E942616182F882309F436
:101F700062C06FE776E080E82FE534E040E00E9441
:101F8000651F892B09F04EC0AE014F5F5F4FBE0148
:101F90006D5F7F4FCE0105960E940B21882351F083
:101FA00028E130E044E654E060E08F2D902F0E945D
:101FB000242141C06B817C8180E090E00E94371732
:101FC00020E030E040E251E40E94DD24E62ED72EEE
:101FD000C82EB92E69817A8180E090E00E9437177F
:101FE00020E030E040E251E40E94DD249F938F9393
:101FF0007F936F93BF92CF92DF92EF928E818F93F8
:102000008D818F9389E994E0A0E0AF939F938F93A4
:102010000F93FF920E949A1E0FB6F894DEBF0FBE78
:10202000CDBF09C026E130E043E854E060E08F2DE9
:10203000902F0E942421812F26960FB6F894DEBFA0
:102040000FBECDBFDF91CF911F910F91FF90EF9009
:08205000DF90CF90BF900895CE
:10205800CF92DF92EF92FF920F931F93CF93DF936C
:10206800CDB7DEB762970FB6F894DEBF0FBECDBF0F
:102078008C017B016A018FEF9FEFF80191838083C8
:10208800FB0191838083FA01918380830E94B024AD
:1020980081110DC08EEF9FEFF80191838083F701C6
:1020A80091838083F6019183808383E04DC022E091
:1020B80045EC56E060E081E60E941A2381113BC09E
:1020C8008FE39FE10197F1F700C0000042E1BE01F4
:1020D8006F5F7F4F81E60E94D92081112EC0CE010B
:1020E80001960E94F220882351F161E0CE01019609
:1020F8000E94591AF80191838083CE0107960E94A5
:10210800F2208823F1F06AE0CE0107960E94591A5E
:10211800F70191838083CE010D960E94F2208823D7
:1021280091F06AE0CE010D960E94591AF60191834A
:10213800808380E009C081E007C081E005C081E0BC
:1021480003C081E001C081E062960FB6F894DEBF5B
:102158000FBECDBFDF91CF911F910F91FF90EF90F0
:06216800DF90CF90089506
:10216E001F93CF93DF9300D000D000D0CDB7DEB752
:10217E00F9013DEC439F212D112426952695269598
:10218E0010E1219FD0011124220FB22FBB0FBB0FE4
:10219E002B0F421B4A2B4083539F212D1124269532
:1021AE002695269540E1249FD0011124220F422F1F
:1021BE00440F440F240F521B5A2B5183639F412D02
:1021CE00112446954695469510E1419FD001112464
:1021DE00440F242F220F220F420F641B6A2B62839F
:1021EE00739F412D112446954695469520E1429FB9
:1021FE00D0011124440F242F220F220F420F741BE3
:10220E007A2B7383839F412D1124469546954695CF
:10221E0010E1419FB0011124440F242F220F220FF1
:10222E00420F841B862B8483939F312D1124369568
:10223E003695369520E1329FA0011124330F832F5E
:10224E00880F880F380F931B942B958326960FB605
:10225E00F894DEBF0FBECDBFDF91CF911F910895D1
:10226E006F927F928F92DF92EF92FF920F931F9356
:10227E00CF93DF9300D000D000D0CDB7DEB73B01B7
:10228E00882E7A010E94C42322E044EE55E0882D68
:10229E00B3010E942616182F882309F44EC064EE4F
:1022AE0075E080E80E94E321419749F025E230E095
:1022BE0042E353E060E0C7010E9424213EC060E08B
:1022CE0084EE95E00E94BF20882E63E084EE95E0B8
:1022DE000E94BF20782E66E084EE95E00E94BF201B
:1022EE00682E69E084EE95E00E94BF20082F6CE016
:1022FE0084EE95E00E94BF20D82E6FE084EE95E02C
:10230E000E94BF20482F5D2D602F762D872D982D92
:10231E000E94251A882349F023E130E047E553E077
:10232E0060E0C7010E94242108C028E030E046EC9E
:10233E0052E060E0C7010E942421812F26960FB63D
:10234E00F894DEBF0FBECDBFDF91CF911F910F91DD
:0E235E00FF90EF90DF908F907F906F9008952A
:10236C000F931F93CF93DF93CDB7DEB7CB54D10927
:10237C000FB6F894DEBF0FBECDBF8A016DEE72E0D2
:10238C0080E00E94DF1F6DEE72E080E00E94FC1F77
:10239C006EEF72E080E00E94192060E070E080E84F
:1023AC009FE30E94272460E070E48CE195E40E9496
:1023BC002E2460E070E080EA90E40E94352482E0F4
:1023CC000E94742485E090E00E94802486E00E94A4
:1023DC008C2480E01AC0E82FF0E09F01220F331FFD
:1023EC00220F331FE20FF31F21E030E02C0F3D1FB3
:1023FC00E20FF31F92E0948322E030E031832083DC
:10240C0023E030E0338322838F5F8F3020F3BE01D3
:10241C006F5F7F4F80E84BE40E943C2423E130E067
:10242C004FE153E060E0C8010E94242181E0C55BCC
:10243C00DF4F0FB6F894DEBF0FBECDBFDF91CF914B
:06244C001F910F9108959D
:1024520010C00E94512458F00E944A2440F029F4EE
:102462005F3F29F00C949E2451110C9459240C9432
:10247200F5240E94BD1E68F39923B1F3552391F30D
:10248200951B550BBB27AA2762177307840738F0E1
:102492009F5F5F4F220F331F441FAA1FA9F335D03E
:1024A2000E2E3AF0E0E832D091505040E695001CF2
:1024B200CAF72BD0FE2F29D0660F771F881FBB1FAC
:1024C200261737074807AB07B0E809F0BB0B802D8A
:1024D200BF01FF2793585F4F3AF09E3F510578F0B6
:1024E2000C949E240C9459245F3FE4F3983ED4F359
:1024F200869577956795B795F7959F5FC9F7880F8A
:10250200911D9695879597F90895E1E0660F771FDB
:10251200881FBB1F621773078407BA0720F0621B6C
:0E252200730B840BBA0BEE1F88F7E09508953B
:102530000FC00E944A2438F00E94512420F09523B5
:1025400011F00C949E240C94F52411240C9459241D
:102550000E94BD1E70F3959FC1F3950F50E0551F6B
:10256000629FF001729FBB27F00DB11D639FAA27E8
:10257000F00DB11DAA1F649F6627B00DA11D661F37
:10258000829F2227B00DA11D621F739FB00DA11D58
:10259000621F839FA00D611D221F749F3327A00D12
:1025A000611D231F849F600D211D822F762F6A2FAE
:1025B00011249F5750409AF0F1F088234AF0EE0F13
:1025C000FF1FBB1F661F771F881F91505040A9F740
:1025D0009E3F510580F00C949E240C9459245F3F3B
:1025E000E4F3983ED4F3869577956795B795F7957C
:1025F000E7959F5FC1F7FE2B880F911D96958795F4
:0426000097F90895A9
:1026040011C00E944A2438F00E94512420F039F469
:102614009F3F19F426F40C94F5240EF4E095E7FB9F
:102624000C949E24E92F0E94BD1E58F3BA1762072A
:1026340073078407950720F079F4A6F50C945824C1
:102644000EF4E0950B2EBA2FA02D0B01B9019001C9
:102654000C01CA01A0011124FF27591B99F0593F0D
:1026640050F4503E68F11A16F040A22F232F342F55
:102674004427585FF3CF469537952795A795F040A3
:102684005395C9F77EF41F16BA0B620B730B840BB8
:10269400BAF09150A1F0FF0FBB1F661F771F881F70
:1026A400C2F70EC0BA0F621F731F841F48F48795C8
:1026B40077956795B795F7959E3F08F0B0CF9395BA
:0E26C400880F08F09927EE0F979587950895D7
:1026D200EF92FF920F931F93CF93DF93EB017A0157
:1026E200D901F80111821082009711F09183808341
:1026F200208131812C173D0710F4D183C0832081C2
:1027020031812E153F0510F4F182E0822081318162
:1027120011963C932E93009731F08217930718F489
:1027220011969C938E93209749F02D913C9111978D
:10273200C217D30718F41196DC93CE93E114F10477
:1027420049F02D913C911197E216F30618F4119677
:10275200FC92EE922D913C91B9010E943522892B77
:1027620071F4CE01B9010E943522892B51F4C701BF
:10277200B9010E943522892B31F080E005C080E04A
:1027820003C080E001C081E0DF91CF911F910F91E2
:06279200FF90EF90089596
:10279800FF920F931F93CF93DF93CDB7DEB7CB5440
:1027A800D1090FB6F894DEBF0FBECDBF8C016BE424
:1027B800CE0101960E94E72323E130E042E052E097
:1027C80060E0C8010E942421F12C30C08F2D90E0D8
:1027D800FC01EE0FFF1FEE0FFF1FE80FF91F21E0AE
:1027E80030E02C0F3D1FE20FF31F23812F9322812E
:1027F8002F9321812F9320812F9301969F938F935D
:1028080085E192E0A0E0AF939F938F9304EE15E0EB
:102818001F930F930E949A1EB80180E80E9490159A
:10282800F3940FB6F894DEBF0FBECDBF9EE09F15A0
:1028380068F6C55BDF4F0FB6F894DEBF0FBECDBF9D
:0C284800DF91CF911F910F91FF90089538
:10285400FA01AA27283051F1203181F1E8946F93CD
:102864006E7F6E5F7F4F8F4F9F4FAF4FB1E03ED073
:10287400B4E03CD0670F781F891F9A1FA11D680F11
:10288400791F8A1F911DA11D6A0F711D811D911D44
:10289400A11D20D009F468943F912AE0269F1124B9
:1028A4003019305D3193DEF6CF010895462F47701D
:1028B400405D4193B3E00FD0C9F7F6CF462F4F7078
:1028C400405D4A3318F0495D31FD4052419302D0D6
:1028D400A9F7EACFB4E0A69597958795779567957C
:1028E400BA95C9F700976105710508959B01AC017C
:1028F4000A2E06945795479537952795BA95C9F7A3
:0C290400620F731F841F951FA01D089513
:102910006F927F928F92CF92DF92EF920F931F93DD
:10292000CF933B01882E8A0121E04FE756E00E94B9
:102930002616C82F8823E9F18FE796E06C0120E87E
:10294000E22E20EF34E040E08E2DB6010E94651F9C
:10295000892B39F4A801882DB3010E94AB0BC82F35
:1029600028C025EF34E040E08E2DB6010E94651F9F
:10297000892B39F4A801882DB3010E94A00FC82F1C
:1029800018C02BEF34E040E08E2DB6010E94651F89
:10299000892B39F4A801882DB3010E943E15C82F58
:1029A00008C026E130E043E854E060E0C8010E943E
:1029B00024218C2FCF911F910F91EF90DF90CF901A
:0829C0008F907F906F90089545
:1029C800CF92DF92EF92FF920F931F93CF93DF93F3
:1029D8006C0110E008C0CC0DDD1D88818E3211F429
:1029E8001F5F0CC01F5FC12FD0E0B60180E80E94B6
:1029F800E3210197C817D90770F310E0112371F18B
:102A0800C10ED11C80E8E82E8E2DB6010E94E3216C
:102A1800C82F8E2DB6010E94E5248C010F2EC12CE3
:102A2800D12CF0E8EF2EFFE3FF2EF02D0BC020E0B5
:102A380030E040E251E4C701B6010E94E1246B0195
:102A48007C01C150C111F3CFB80180E090E00E9431
:102A58003717A70196010E94DD2403C060E070E0EB
:102A6800CB01DF91CF911F910F91FF90EF90DF90F5
:042A7800CF9008955E
:102A7C00CF92DF92EF920F931F93CF938A0122E0B4
:102A8C004FE756E00E942616C82F8823D9F18FE70E
:102A9C0096E06C0120E8E22E27E234E040E08E2D37
:102AAC00B6010E94651F892B71F40E94042481E0F9
:102ABC000E94882325E130E045EC54E060E0C80139
:102ACC000E9424211FC022E434E040E08E2DB60188
:102ADC000E94651F892B71F40E94042480E00E94DF
:102AEC00882326E130E04AED54E060E0C8010E9402
:102AFC00242108C026E130E043E854E060E0C8013E
:102B0C000E9424218C2FCF911F910F91EF90DF9079
:042B1C00CF900895B9
:102B20006F927F928F92CF92DF92EF923B01882E2D
:102B30008091C5069091C606892BD1F7882DB301E7
:102B40000E94E321BC0120E030E011C0E82C6301C9
:102B5000C20ED31EE11C37FDEA94F6019491E7FC06
:102B60009081F901E854FB4F90832F5F3F4F261768
:102B7000370760F3FB01E854FB4F8DE08083FB01D6
:102B8000E754FB4F8AE080836E5F7F4F7093C606E9
:102B90006093C50681E090E09093C4068093C306DD
:102BA0008091B8048093CE00EF90DF90CF908F900B
:062BB0007F906F90089574
:102BB6008F929F92AF92BF92CF92DF92EF92FF9247
:102BC600BC0180E090E00E94371720E030E040E84A
:102BD60059E30E94E1248090B7069090B806A09031
:102BE600B906B090BA06A50194010E94E1246B01D2
:102BF6007C019B01AC01C501B4010E944324A701DD
:102C060096010E94DD242091B3063091B4064091CE
:102C1600B5065091B6060E94E1242091AF06309188
:102C2600B0064091B1065091B2060E94E1240E947E
:102C3600BF1ACB01FF90EF90DF90CF90BF90AF907F
:062C46009F908F9008959D
:102C4C008F929F92AF92CF92DF92EF92FF920F935F
:102C5C001F93CF93DF936B01E82EEA01F22E0E94B3
:102C6C00F11B8F1558F18E2DB6010E94E3218C01BA
:102C7C004F2D8E2DB6010E94141990E015C04601FF
:102C8C00AE2C820E931EA11C37FDAA944A2D9401E2
:102C9C00F401249147FD2081203259F0FE01E90F07
:102CAC00F11D20838F5F9F5F282F30E020173107A5
:102CBC0030F3C90FD11D188281E001C080E0DF9193
:102CCC00CF911F910F91FF90EF90DF90CF90AF902D
:062CDC009F908F90089507
:102CE2000F931F93CF93DF9300D000D000D0CDB7C6
:102CF200DEB7182F092F0E94C423CE0101960E942D
:102D0200CD0D882351F024E130E048E252E060E04A
:102D1200812F902F0E94242121C059814A813B8119
:102D22002C819D818E811F925F931F924F931F92E0
:102D32003F931F922F931F929F931F928F938CE327
:102D420092E0A0E0AF939F938F930F931F930E9403
:102D52009A1E0FB6F894DEBF0FBECDBF26960FB6F1
:102D6200F894DEBF0FBECDBFDF91CF911F910F91BF
:022D72000895C2
:102D74006F927F928F92CF92DF92EF923B01882ED7
:102D84008091C1069091C206892BD1F7882DB30199
:102D94000E94E321BC0120E030E011C0E82C630173
:102DA400C20ED31EE11C37FDEA94F6019491E7FCB0
:102DB4009081F901EA56FE4F90832F5F3F4F26170B
:102DC400370760F37093C2066093C10681E090E018
:102DD4009093C0068093BF06809196018093C600AD
:0E2DE400EF90DF90CF908F907F906F900895CA
:102DF2001F920F920FB60F9211242F933F934F936E
:102E02005F936F937F938F939F93AF93BF93CF9370
:102E1200EF93FF938091CD068F5F8093CD06803232
:102E220099F41092CD06C0E00DC0EC2FF0E0EE0F49
:102E3200FF1FED56F94F0190F081E02D309709F018
:102E42000995CF5FC53088F3FF91EF91CF91BF9184
:102E5200AF919F918F917F916F915F914F913F9130
:0C2E62002F910F900FBE0F901F9018953D
:102E6E00E89409C097FB3EF4909580957095619516
:102E7E007F4F8F4F9F4F9923A9F0F92F96E9BB27CC
:102E8E009395F695879577956795B795F111F8CF48
:102E9E00FAF4BB0F11F460FF1BC06F5F7F4F8F4FB3
:102EAE009F4F16C0882311F096E911C0772321F0A9
:102EBE009EE8872F762F05C0662371F096E8862F41
:102ECE0070E060E02AF09A95660F771F881FDAF798
:0A2EDE00880F9695879597F90895DF
:102EE800CF93DF93EA01AB01682F80E992E00E945B
:102EF800FD2280E992E00E940C2360E972E080E8FC
:102F08000E94BA161092D40688E994E20E949D1B8A
:102F18008093D3060E941224811104C08091D406A4
:102F28008F30C0F38091D3060E94C21F8091D406CF
:102F38008F3060F02CE030E047EA56E060E0CE01E8
:102F48000E942421CE010E94F92103C0CE010E94D3
:082F5800F921DF91CF910895EA
:102F6000CF92DF92EF920F931F93CF938A0122E0CB
:102F700044EE55E00E942616C82F882329F184EEDE
:102F800095E06C0120E8E22E8E2DB6010E94E3212F
:102F90004097C9F48E2DB6010E94DF1FC82F811102
:102FA00009C027E030E04FEB52E060E0C8010E942A
:102FB00024210AC028E030E046EC52E060E0C8017D
:102FC0000E94242101C0C0E08C2FCF911F910F914E
:082FD000EF90DF90CF9008950F
:102FD800CF92DF92EF920F931F93CF938A0122E053
:102FE80044EE55E00E942616C82F882329F184EE66
:102FF80095E06C0120E8E22E8E2DB6010E94E321B7
:103008004097C9F48E2DB6010E94FC1FC82F81116C
:1030180009C027E030E04FEB52E060E0C8010E94B1
:1030280024210AC028E030E046EC52E060E0C80104
:103038000E94242101C0C0E08C2FCF911F910F91D5
:08304800EF90DF90CF90089596
:10305000CF92DF92EF920F931F93CF938A0122E0DA
:1030600044EE55E00E942616C82F882329F184EEED
:1030700095E06C0120E8E22E8E2DB6010E94E3213E
:103080008097C9F48E2DB6010E941920C82F811196
:1030900009C027E030E04FEB52E060E0C8010E9439
:1030A00024210AC028E030E046EC52E060E0C8018C
:1030B0000E94242101C0C0E08C2FCF911F910F915D
:0830C000EF90DF90CF9008951E
:1030C8000F931F93CF93DF93FB01248121FD03C04E
:1030D8008FEF9FEF2CC022FF16C0478150852581B6
:1030E80036814217530744F4A081B1819D012F5FB7
:1030F8003F4F318320838C93278130852F5F3F4F4B
:103108003087278314C08B01EC01FB010184F28511
:10311800E02D0995892BE1F6D80117968D919C91A0
:103128001897019618969C938E931797CE01DF9166
:08313800CF911F910F91089542
:103140001F920F920FB60F9211242F938F939F937C
:10315000EF93FF938091CF0681110EC0E091D006CE
:10316000E63950F481E08E0F8093D006F0E0809134
:10317000C600E050FF4F80838091D006833080F0FE
:1031800090E0FC01E150FF4F20812A3049F4FC011E
:10319000E250FF4F80818D3019F481E08093CF069B
:1031A000FF91EF919F918F912F910F900FBE0F90F4
:0431B0001F901895BF
:1031B4001F920F920FB60F9211242F938F939F9308
:1031C400EF93FF938091D10681110EC0E091D20656
:1031D400EB3450F481E08E0F8093D206F0E08091BE
:1031E400CE00EC5CF94F80838091D206833080F06E
:1031F40090E0FC01ED5CF94F20812A3049F4FC0198
:10320400EE5CF94F80818D3019F481E08093D10612
:10321400FF91EF919F918F912F910F900FBE0F907F
:043224001F9018954A
:10322800CF92DF92EF920F931F93CF93DF934423B4
:1032380029F1042F6B01E82EC0E0D0E010E014C0A3
:10324800AE2DC6018C0F9D1FA11DD7FDAA95FC01AF
:103258008491A7FD8081803231F41F5F011303C080
:10326800CE0101960DC021968E2DB6010E94E32154
:10327800C817D90728F380E090E002C080E090E00A
:10328800DF91CF911F910F91EF90DF90CF9008952C
:103298001F920F920FB60F9211242F933F938F9383
:1032A8009F93EF93FF938091BF069091C006209162
:1032B800C1063091C2068217930770F49C012F5FF4
:1032C8003F4F3093C0062093BF06FC01EA56FE4FDD
:1032D80080818093C60008C01092C0061092BF0675
:1032E8001092C2061092C106FF91EF919F918F91A3
:0E32F8003F912F910F900FBE0F901F901895D1
:103306001F920F920FB60F9211242F933F938F9314
:103316009F93EF93FF938091C3069091C4062091EB
:10332600C5063091C6068217930770F49C012F5F7D
:103336003F4F3093C4062093C306FC01E854FB4F6D
:1033460080818093CE0008C01092C4061092C306F6
:103356001092C6061092C506FF91EF919F918F912C
:0E3366003F912F910F900FBE0F901F90189562
:10337400CF92DF92EF920F931F936C0120E8E22E1D
:1033840004E010E02CEA35E040E08E2DB6010E9406
:10339400F019892BC1F005E010E021EB35E040E0A5
:1033A4008E2DB6010E94F019892B79F004E010E00B
:1033B40027EB35E040E08E2DB6010E94F019892BF1
:1033C40031F485E005C086E003C084E001C083E0F9
:0C33D4001F910F91EF90DF90CF900895B3
:1033E000CF92DF92EF920F931F936B01E82E01159E
:1033F000110519F101501109F6018491E7FC808152
:10340000882399F0F901949147FD9081992369F0FF
:103410000115110551F0891308C08FEFC81AD80A99
:10342000E80A2F5F3F4F4F4FE5CF90E0F90124911D
:1034300047FD2081821B910902C080E090E01F912E
:0A3440000F91EF90DF90CF900895F8
:10344A00CF93DF93CDB7DEB764970FB6F894DEBF9C
:10345A000FBECDBF9E01275F3F4F0E94B71082E08B
:10346A00898389858A838A858B838B858C838C85DE
:10347A008D831E828D858F838E858887AE014F5FEF
:10348A005F4F60E828E081E50E941A23882311F043
:10349A0082E001C080E064960FB6F894DEBF0FBEEA
:0834AA00CDBFDF91CF91089521
:1034B200CF92DF92EF92FF920F931F93CF93DF93FE
:1034C200FC0104811381D181C08170E080E090E031
:1034D2000E9439179B01AC01602F712F8D2F9C2FF9
:1034E2000E94E1246B017C0120E030E0A9010E94EE
:1034F200BF24882334F0C701B6010E94BF1ACB0152
:1035020002C080E090E0DF91CF911F910F91FF9078
:08351200EF90DF90CF900895C7
:10351A00CF93DF93EC01862F880F880F855F85365E
:10352A0018F590E020E030E018C0E92FF0E0AF0194
:10353A00440F551F440F551FE40FF51FEC0FFD1FD5
:10354A00A081B18174817A9FA0017B9F500D1124C3
:10355A00240F351F2A5F3F4F9F5F961730F32132A2
:10356A00334020F481E003C080E001C080E0DF91B5
:04357A00CF91089550
:10357E000E94C51E88F09F5798F0B92F9927B75112
:10358E00B0F0E1F0660F771F881F991F1AF0BA95F9
:10359E00C9F714C0B13091F00E945824B1E00895DB
:1035AE000C945824672F782F8827B85F39F0B93FCD
:1035BE00CCF3869577956795B395D9F73EF49095AC
:0E35CE008095709561957F4F8F4F9F4F0895A8
:1035DC00EF92FF920F931F93CF93DF938C01D62F13
:1035EC00C0E008C07801EC0EF11C0E94B023F7017A
:1035FC008083CF5F2C2F30E08D2F90E00197281720
:10360C00390784F38D2F90E00197E801C80FD91F7B
:10361C000E94BA2388830E94DF2380E0DF91CF9140
:0A362C001F910F91FF90EF90089599
:10363600EF92FF920F931F93CF93DF937C0110E0DD
:1036460000E00DC0CE0DDF1D88818E3221F4011100
:1036560011C001E003C080538A3070F41F5FC12F90
:10366600D0E0B70180E80E94E321C817D90750F3DC
:1036760081E003C080E001C080E0DF91CF911F911F
:083686000F91FF90EF900895F1
:10368E000F931F93CF93DF9300D0CDB7DEB78C018E
:10369E008FEF9FEFF8019183808342E0BE016F5F51
:1036AE007F4F8DE40E94D92081110DC0898190E059
:1036BE00982F88272A81822B0E94DB15F80191838F
:1036CE00808380E001C081E00F900F90DF91CF9159
:0636DE001F910F910895F9
:1036E400CF93DF93EC01BC0180E80E94E321BC018D
:1036F400FC013197EC0FFD1F80818032B1F020E096
:1037040030E040E00DC0FE01E20FF31F90819032E3
:1037140021F441110CC041E001C040E02F5F3F4F54
:103724002617370780F381E003C080E001C080E002
:06373400DF91CF91089522
:10373A00CF93DC016091CE06653000F590E015C0AC
:10374A00292F30E0F901EE0FFF1FED56F94F4081A6
:10375A005181452B49F4220F331FF901ED56F94FD8
:10376A00B183A083C92F04C09F5F953048F3CFEF80
:10377A006F5F6093CE060E94D52401C0CFEF8C2FD5
:04378A00CF9108953E
:10378E00CF93DF93CDB7DEB764970FB6F894DEBF55
:10379E000FBECDBF21E0AE014F5F5F4F0E942616D8
:1037AE00882379F0BE016F5F7F4F80E828E236E014
:1037BE0040E00E94651F892B19F40E946E0C01C017
:1037CE0080E064960FB6F894DEBF0FBECDBFDF91DA
:0437DE00CF910895EA
:1037E2006F927F928F92CF92DF92EF923B01882E5F
:1037F2000E94E321BC0120E030E080E010C0E82C10
:103802006301C20ED31EE11C37FDEA94F6019491C6
:10381200E7FC9081903209F48F5F2F5F3F4F2617AC
:10382200370768F3EF90DF90CF908F907F906F9083
:023832000895F7
:103834000F931F93CF938A0122E044EE55E00E9438
:103844002616C82F8823B9F064EE75E080E80E943C
:10385400E5249C0125503109243E334058F40E944C
:10386400802428E030E046EC52E060E0C8010E9489
:10387400242101C0C0E08C2FCF911F910F91089596
:103884001F920F920FB60F9211242F933F934F93D1
:103894005F936F937F938F939F93AF93BF93EF93B4
:1038A400FF93E091BB06F091BC060995FF91EF915F
:1038B400BF91AF919F918F917F916F915F914F9144
:0E38C4003F912F910F900FBE0F901F901895FF
:1038D2001F920F920FB60F9211242F933F934F9383
:1038E2005F936F937F938F939F93AF93BF93EF9366
:1038F200FF93E091BD06F091BE060995FF91EF910D
:10390200BF91AF919F918F917F916F915F914F91F5
:0E3912003F912F910F900FBE0F901F901895B0
:10392000DC018091C1069091C206892BD1F790E00D
:103930000BC0292F30E0FD01E20FF31F4081F90198
:10394000EA56FE4F40839F5F961798F3862F90E0CC
:103950009093C2068093C10681E090E09093C006E8
:0E3960008093BF06809196018093C600089563
:10396E00CF92DF92EF92FF920F931F93CF93DF933D
:10397E008C01BC0180E80E94E524EC01C8010E9484
:10398E00E4146B017C01BE0180E090E00E943717C9
:10399E009B01AC01C701B6010E944424DF91CF9177
:0E39AE001F910F91FF90EF90DF90CF90089542
:1039BC00CF92DF92EF92CF93DF936A01E62ED22F54
:1039CC0060E00E940C1E811113C0C0E00EC0AE2D31
:1039DC00C6018C0F911DA11DFC018491A7FD808156
:1039EC000E94A122811104C0CF5FCD1780F380E02B
:0C39FC00DF91CF91EF90DF90CF90089505
:103A08000F931F93CF938A0122E044EE55E00E9462
:103A18002616C82F8823A9F084EE95E00E941B1B68
:103A2800C82F882371F084EE95E00E94B71C0E948D
:103A3800272428E030E046EC52E060E0C8010E940C
:0C3A480024218C2FCF911F910F91089525
:103A54000F931F93CF938A0122E044EE55E00E9416
:103A64002616C82F8823A9F084EE95E00E941B1B1C
:103A7400C82F882371F084EE95E00E94B71C0E9441
:103A84002E2428E030E046EC52E060E0C8010E94B9
:0C3A940024218C2FCF911F910F910895D9
:103AA0000F931F93CF938A0122E044EE55E00E94CA
:103AB0002616C82F8823A9F084EE95E00E941B1BD0
:103AC000C82F882371F084EE95E00E94B71C0E94F5
:103AD000352428E030E046EC52E060E0C8010E9466
:0C3AE00024218C2FCF911F910F9108958D
:103AEC000F931F93CF938A0122E044EE55E00E947E
:103AFC002616C82F8823A9F064EE75E080E80E9492
:103B0C00E5249FEF980F983C58F40E94742428E009
:103B1C0030E046EC52E060E0C8010E94242101C074
:0C3B2C00C0E08C2FCF911F910F910895E5
:103B38000F931F93CF938A0122E044EE55E00E9431
:103B48002616C82F8823A9F064EE75E080E80E9445
:103B5800E5249AEF980F933158F40E948C2428E0BA
:103B680030E046EC52E060E0C8010E94242101C028
:0C3B7800C0E08C2FCF911F910F91089599
:103B84006F927F928F92CF92DF92EF920F931F9357
:103B94003B01882E6901E42E842FB9010E94E321A0
:103BA4008C014E2D9601882DB3010E94F01921E05D
:103BB400892B09F020E0822F1F910F91EF90DF9065
:0A3BC400CF908F907F906F900895CE
:103BCE00E9EAF6E0118210821582148213821282C3
:103BDE00E3EAF6E0118210821582148213821282B9
:103BEE00EDE9F6E0118210821582148213821282A0
:103BFE001092CC061092CB061092CA061092C906ED
:0A3C0E001092C8061092C706089530
:103C180090E0880F991F682B84EA8093BC009091EC
:103C2800BC009923E4F78091B900887F883099F423
:103C38006093BB0084E88093BC008091BC0088231B
:103C4800E4F78091B900887F883121F0803419F435
:083C580080E0089580E008956A
:103C6000990F0008550FAA0BE0E8FEEF161617068D
:103C7000E807F907C0F012161306E407F50798F0F5
:103C8000621B730B840B950B39F40A2661F0232B0E
:103C9000242B252B21F408950A2609F4A140A6958A
:083CA0008FEF811D811D0895C5
:103CA800CF93DF931F92CDB7DEB79AB192609AB9DE
:103CB800E1ECF0E09081977F90839BB19D7F9BB969
:103CC800AFE9BFE01197F1F700C00000908198605C
:103CD8009083898361E0CE0101960E94901C0F9029
:063CE800DF91CF91089569
:103CEE000E94CD242FEF89E698E12150804090402C
:103CFE00E1F700C000000E94D1240E941224882304
:103D0E00E1F380E992E00E94F92160E972E080E837
:103D1E0020EA36E040E00E94C21D882311F080E0C8
:063D2E00089581E00895F4
:103D3400AFE0B0E0E0EAFEE10C9460200E891F8958
:103D440086E08D831A8309838FEF9FE79F838E8399
:103D54009E01255E3F4F488D598D6A8DCE01019697
:103D64000E946403E885F985E00FF11F10822F9605
:063D7400E4E00C9497202E
:103D7A0057FD9058440F551F59F05F3F71F0479512
:103D8A00880F97FB991F61F09F3F79F087950895F7
:103D9A00121613061406551FF2CF4695F1DF08C016
:103DAA00161617061806991FF1CF86957105610533
:043DBA0008940895CC
:103DBE00CF92DF92EF9221503109C0F06B01E82EC5
:103DCE00C20ED31EE11CCA01820F931F422F732F06
:103DDE00F6015E2D0E94C424262F0E946F2231E030
:103DEE00C31AD108E1084150704090F7EF90DF9070
:043DFE00CF900895C5
:103E0200A1E21A2EAA1BBB1BFD010DC0AA1FBB1FDC
:103E1200EE1FFF1FA217B307E407F50720F0A21B4E
:103E2200B30BE40BF50B661F771F881F991F1A94BB
:103E320069F760957095809590959B01AC01BD01E5
:043E4200CF0108950F
:103E460090E0880F991F282F216084EA8093BC0098
:103E56009091BC009923E4F78091B900887F803166
:103E660079F42093BB0084E88093BC008091BC0069
:103E76008823E4F78091B900887F803409F480E0D4
:023E860008959D
:103E8800EF92FF920F931F936093B7067093B80653
:103E98008093B9069093BA062093B3063093B4067C
:103EA8004093B5065093B606E092AF06F092B0067E
:103EB8000093B1061093B2061F910F91FF90EF90F7
:023EC80008955B
:103ECA00CF92DF92EF926B01E82EF6018491E7FC24
:103EDA008081F901549147FD508185130BC08823D5
:103EEA0041F08FEFC81AD80AE80A2F5F3F4F4F4FA9
:103EFA00ECCF582F90E0851B9109EF90DF90CF907F
:023F0A00089518
:103F0C00E1ECF0E080818061808380818860808337
:103F1C00808180688083808180648083E0ECF0E025
:103F2C0080818260808386E08093C20080E190E093
:0C3F3C009093C5008093C4007894089511
:103F4800E9ECF0E0808180618083808188608083F3
:103F5800808180688083808180648083E8ECF0E0E1
:103F680080818260808386E08093CA0080E190E04F
:0C3F78009093CD008093CC0078940895C5
:103F8400082E000C990BFC01EE0FFF1FED56F94FA4
:103F940020813181232B81F0880F991FFC01ED567C
:103FA400F94F118210828091CE0681508093CE0603
:0A3FB400811102C00E94E924089563
:103FBE00CF92DF92EF926B01E82E0E94E3214097A1
:103FCE0079F420E130E040E050E08E2DB6010E9401
:103FDE00DF1E61E080E490E00E946E2281E001C06D
:0A3FEE0080E0EF90DF90CF9008957F
:103FF800CF92DF92EF926B01E82E0E94E321409767
:1040080079F420E130E040E150E08E2DB6010E94C5
:10401800DF1E61E081E490E00E946E2281E001C031
:0A40280080E0EF90DF90CF90089544
:10403200CF92DF92EF926B01E82E0E94E3218097EC
:1040420079F420E230E040E250E08E2DB6010E9489
:10405200DF1E61E082E490E00E946E2281E001C0F6
:0A40620080E0EF90DF90CF9008950A
:10406C0025E04BEB56E060E081E60E941A238111BB
:10407C000FC025E040EC56E060E081E60E941A2378
:10408C00811108C00E94B0248823E1F380E00895D8
:08409C0082E0089582E008951E
:1040A4002F923F924F925F926F927F928F929F9244
:1040B400AF92BF92CF92DF92EF92FF920F931F9332
:1040C400CF93DF93CDB7DEB7CA1BDB0B0FB6F894E3
:0840D400DEBF0FBECDBF099451
:1040DC00AC0130E08FEF14C0FA01E30FF11D9081B9
:1040EC00892728E00AC0882334F490E0880F991FB0
:1040FC0091E3892701C0880F21502111F4CF3F5F34
:06410C00361750F3089580
:104112002A88398848885F846E847D848C849B8455
:10412200AA84B984C884DF80EE80FD800C811B8163
:10413200AA81B981CE0FD11D0FB6F894DEBF0FBE92
:06414200CDBFED01089560
:10414800CF92DF92EF926B01E82EA82FCB01411599
:10415800510531F48C199D09EF90DF90CF900895A7
:10416800FC012491A7FD20812223A1F30196A11D22
:0641780041505109ECCF9B
:10417E00CF93DF9300D01F92CDB7DEB7FC01E60FD1
:10418E00F11D8081898381818A831B82BE016F5FCD
:10419E007F4F80E80E94E5240F900F900F90DF91E3
:0441AE00CF91089510
:1041B2000F931F93CF93DF938B01D42F61E00E9463
:1041C2000C1EC82F882321F00E94DF238C2F04C0ED
:1041D2006D2FC8010E94EE1ADF91CF911F910F91AE
:0241E20008953E
:1041E400CF93DF93EC0162E00E946E209A818913E1
:1041F4000AC062E0CE0103960E946E209D81891759
:1042040021F080E003C080E001C081E0DF91CF9124
:0242140008950B
:10421600EF92FF920F931F93CF93DF93EC018B01E5
:104226007A010E94B0248823E1F3A701B801CE01E8
:104236000E942C10DF91CF911F910F91FF90EF906C
:024246000895D9
:10424800CF92DF92EF92DC016A01E62E280F391F28
:10425800A217B30751F0F6014491E7FC40814D9352
:104268004FEFC41AD40AE40AF3CFEF90DF90CF904F
:024278000895A7
:10427A000F931F93CF93DF938B01D42F0E94231F99
:10428A00C82F882321F00E94DF238C2F04C06D2FB2
:10429A00C8010E94EE1ADF91CF911F910F910895E4
:1042AA000F931F93CF938C010E943E23C82F88231C
:1042BA0051F020E130E040E050E060E0C8010E94A7
:1042CA005C22F801108A8C2FCF911F910F910895CB
:1042DA000F931F93CF938C010E944923C82F8823E1
:1042EA0051F020E130E040E150E060E0C8010E9476
:1042FA005C22F801108A8C2FCF911F910F9108959B
:10430A000F931F93CF938C010E945423C82F8823A5
:10431A0051F020E230E040E250E060E0C8010E9443
:10432A005C22F80110A28C2FCF911F910F91089552
:10433A00FC018081823751F0873751F0833651F082
:10434A00833751F0813751F484E0089587E0089566
:10435A0088E0089589E008958AE0089585E008953F
:10436A00BC0190E009C0FB01E90FF11DDA01A05080
:10437A00BF4F2C9120839F5F492F50E02091D00698
:0E438A0030E022503109421753076CF30895BA
:10439800BC0190E009C0FB01E90FF11DDA01AC5C3A
:1043A800B94F2C9120839F5F492F50E02091D2066E
:0E43B80030E022503109421753076CF308958C
:1043C600CF92DF92EF926B01E82EA82FCB01FC0172
:1043D6002491A7FD2081222319F00196A11DF7CF74
:0C43E6008C199D09EF90DF90CF90089596
:1043F2000F931F93CF938C010E94B521C091D006D9
:10440200C250F801EC0FF11D10820E94B5248C2FCE
:08441200CF911F910F91089555
:10441A000F931F93CF938C010E94CC21C091D20697
:10442A00C250F801EC0FF11D10820E94BA248C2FA1
:08443A00CF911F910F9108952D
:104442000E94C4230E94EF2381E00E946A230E94FB
:10445200FD2381E00E947E230E944922882311F0DD
:0844620080E0089581E0089557
:10446A00AA1BBB1B51E107C0AA1FBB1FA617B70790
:10447A0010F0A61BB70B881F991F5A95A9F78095AC
:08448A009095BC01CD010895DD
:104492000E940B2481E00E947E232FEF83ED90E3A4
:1044A200215080409040E1F700C000000E94E71DCB
:0644B2000E94362008956F
:1044B800BA01A901DC01CB01FC01F999FECF06C0C4
:1044C800F2BDE1BDF89A319600B40D9241505040CA
:0444D800B8F7089594
:1044DC00262FF999FECF92BD81BDF89A019700B4B1
:1044EC00021639F01FBA20BD0FB6F894FA9AF99A51
:0444FC000FBE089552
:10450000092E0394000C11F4882352F0BB0F40F4E1
:10451000BF2B11F460FF04C06F5F7F4F8F4F9F4F21
:024520000895FC
:1045220082E08093B0001092B1001092B600109217
:10453200B20093EF9093B300809370007894089543
:104542008093BB0084E88093BC008091BC008823E8
:10455200E4F78091B900887F883209F480E00895F9
:10456200DB018F939F930E945F23BF91AF91A29F24
:10457200800D911DA39F900DB29F900D112408955F
:10458200CF93DF93EC0163E470E080E00E94662445
:0E459200688379838A839B83DF91CF9108959C
:1045A000CF93DF93EC0167E470E080E00E94662423
:0E45B000688379838A839B83DF91CF9108957E
:1045BE00CF93DF93EC016BE470E080E00E94662401
:0E45CE00688379838A839B83DF91CF91089560
:1045DC00A29FB001B39FC001A39F700D811D112438
:0E45EC00911DB29F700D811D1124911D089527
:1045FA009A01462FDC01F901549147FD50815D93E0
:0E460A00552321F02F5F3F4F4F4FF5CF0895FE
:10461800FC0101900020E9F7CF0123E030E042E3FC
:0C46280056E060E001970E9424210895F4
:10463400CF930E94DE1CC82F0E94DF23C11102C049
:0A46440080E001C08C2FCF91089593
:10464E000396272F0E946F220E946E22252F0E9412
:08465E006F22242F0C946F223F
:1046660081E00E9492230E946D0E80E00E949223B8
:0646760080E090E00895D1
:10467C0060E470E080E80E94D62391E0811101C0D3
:06468C0090E0892F089563
:1046920061E470E080E80E94D62391E0811101C0BC
:0646A20090E0892F08954D
:1046A80062E470E080E80E94D62391E0811101C0A5
:0646B80090E0892F089537
:1046BE000E94EE22A59F900DB49F900DA49F800D99
:0646CE00911D1124089566
:1046D400882321F082B1886082B9089582B1877FEE
:0446E40082B90895FA
:1046E800882321F082B1806282B9089582B18F7DDA
:0446F80082B90895E6
:1046FC00882321F082B1806182B9089582B18F7EC6
:04470C0082B90895D1
:10471000882321F08BB180618BB908958BB18F7E96
:044720008BB90895B4
:10472400882321F082B1806882B9089582B18F779D
:0447340082B90895A9
:104738001F920F920FB60F9211240F900FBE0F9079
:044748001F90189511
:10474C00CF930E94DE1CC82F81110E94DF238C2F77
:04475C00CF9108955C
:1047600084EC8093BC008091BC008823E4F78091A6
:04477000BB000895ED
:1047740084E88093BC008091BC008823E4F7809196
:04478400BB000895D9
:1047880080E28093B800E9EBF0E080818C7F808341
:02479800089582
:10479A0091110C94F824803219F089508550C8F789
:0247AA00089570
:1047AC00CB01F999FECF92BD81BDF89A992780B5BE
:0247BC0008955E
:1047BE0084E98093BC008091BC0084FDFCCF0895F9
:1047CE00262F30E044E650E060E00E945C2208951F
:0E47DE0081B1886081B982B1877F82B9089568
:0E47EC0081B1806281B982B18F7D82B908955A
:0E47FA0081B1806181B982B18F7E82B908954C
:0E4808008AB180618AB98BB18F7E8BB9089519
:0E48160087B18F7B87B988B18F7B88B90895F1
:0E4824009091CF0681E0911101C080E00895CF
:0E4832009091D10681E0911101C080E00895BF
:0E4840009091D20681E09A3408F480E0089549
:0E484E00AB01BC0183E490E00E942723089593
:0E485C00AB01BC0187E490E00E942723089581
:0E486A00AB01BC018BE490E00E94272308956F
:0E487800242F30E044E650E00E94DF1E089539
:0E4886005058BB27AA270E9402130C948022D0
:0E48940000240A941616170618060906089541
:0E48A20000240A941216130614060506089543
:0E48B000E894BB2766277727CB0197F9089578
:0E48BE002AE030E040E050E00E940607089536
:0E48CC00CB01A6E1B0E044E050E00C94602285
:0E48DA00CB01A8E1B0E042E050E00C94602277
:0C48E800682F8FE490E00E946E2208957B
:0C48F4006FE470E080E00E94D62308957D
:0C490000BC0180E590E00E94AA2408950C
:0C490C0060E570E080E00E946D240895DA
:0C491800682F82E590E00E946E22089556
:0C49240062E570E080E00E94D623089558
:0C4930008091D4068F5F8093D406089518
:0C493C0097F99F6780E870E060E0089544
:0C494800EE0FFF1F0590F491E02D099484
:0C4954000196272F0E946F220C946E2207
:0A49600086B186FB882780F90895D0
:0A496A001092CF061092D0060895B7
:0A4974001092D1061092D2060895A9
:0A497E000E94301E08F481E0089545
:0A49880057FD608157FF6491089508
:0849920084B1806184B908952D
:08499A0085B18F7E85B90895F7
:0849A20085B1806185B908951B
:0849AA0087E08093B10008953D
:0849B20085E50E94541E0895E2
:0849BA000E9429120C948022D6
:0849C2000E9498120C9480225F
:0849CA000E945F24CB01089557
:0649D2001092B1000895EF
:0649D8000E94771E089505
:0649DE000E947417089509
:0649E4000E94D924089591
:0649EA009FEF80EC089530
:0649F000992788270895B5
:0449F6000C9400001D
:0449FA000000803FFA
:0449FE0000401C4514
:044A02000000A040D0
:00000001FF
