:100000000C94C9000C94C0160C94C0160C940A16DB
:100010000C94C0160C94C0160C94C0160C94C01608
:100020000C94C0160C94B60D0C94C0160C94C0160B
:100030000C94C0160C9445110C94C0160C94C01668
:100040000C941E110C94C0160C94C0160C94C0167F
:100050000C94BF0F0C94C0160C9405120C94C0168F
:100060000C94C0160C94C0160C94C0160C94C016B8
:100070000C94F90F0C94C0160C942A122D0A340A11
:100080007E0A3D0A870A700A770A4D0A580A630AEF
:10009000690A01000713800000407A10F35A00A09B
:1000A000724E18090010A5D4E80000E87648170041
:1000B00000E40B54020000CA9A3B000000E1F50581
:1000C000000080969800000040420F000000A086CB
:1000D00001000000102700000000E80300000000FD
:1000E0006400000000000A000000000001000000A1
:1000F00000002C76D888DC674F0823DFC1DFAE59BB
:10010000E1B1B796E5E3E453C63AE651997696E84D
:10011000E6C28426EB898C9B62ED407C6FFCEFBCD1
:100120009C9F40F2BAA56FA5F490055A2AF75C93FC
:100130006B6CF9676DC11BFCE0E40D47FEF520E632
:10014000B500D0ED902E0300943577050080841E15
:10015000080000204E0A000000C80C333333330F70
:10016000986E12831141EF8D2114893BE65516CF0D
:10017000FEE6DB18D1844B381BF77C1D901DA4BB19
:10018000E424203284725E228100C9F124ECA1E5CE
:100190003D2711241FBECFEFD0E1DEBFCDBFE2E986
:1001A000F0E040E017C0B591A591359125910591FA
:1001B00007FD0CC095918591EF01F92FE82F05906F
:1001C0000D92A217B307D9F7FE0104C01D92A21722
:1001D000B307E1F7E739F40731F70E94C6150C942D
:0601E000F100F894FFCFCE
:1001E60049443D25752C206E3D25752C2073693DAF
:1001F6002575200D0A006661696C65640073756378
:10020600636573730030303030303030303030302A
:100216003030303030003030303030303030303008
:1002260030303030303030303030303030303030C8
:1002360030303030303000416C6C20736574746936
:100246006E6773207265736574006465766575699B
:1002560000617070657569006170706B657900701A
:10026600706D7800252E32660072726C78007663A7
:10027600637800636F6C73004E6F74206120766143
:100286006C6964206F7065726174696F6E00726567
:040296007365740018
:10029A0025303278000D0A0073797320736C656516
:1002AA007000257320256C64002573202573006D6A
:1002BA0061632073657420646576657569006D6194
:1002CA00632073657420617070657569006D616380
:1002DA0020736574206170706B6579006F666600C3
:1002EA006D61632073657420616472006F6E006DC6
:1002FA00616320747820636E66002573202575205B
:03030A0025730058
:10030D002A2A2A2A2A2A2A2A204D657468616E65AE
:10031D002053656E736F722076312E30202A2A2A73
:10032D002A2A2A2A2A004E6F742076616C6964008D
:10033D0057726F6E6720666F726D6174002A2A2A7C
:10034D002A2A2A2A20526561647920666F72206EEE
:10035D00657720636F6D6D616E64202A2A2A2A2AC3
:03036D002A2A0039
:1003700065786974002A2A2A2A2A2A2A20596F7540
:1003800020617265206469726563746C7920636FA3
:100390006E6E656374656420746F20524E3234381B
:1003A00033202A2A2A2A2A2A2A2A002D2D3E25737A
:1003B00000436C6F73696E6720636F6E6E65637464
:1003C000696F6E20746F20524E323438332E2E2EC9
:0103D000002C
:0803D100696E66006E616E00AA
:1003DA00A4E1B0E0E3EFF1E00C948C136C011A0194
:1003EA00462E5901FC0110861782848181FF62C35F
:1003FA00CE0101969D878C87A0E88A8B9B8BAC8B5C
:10040A00F101849147FC8081882309F44FC3442D6C
:10041A0091012F5F3F4F4F4F853219F01901442E3A
:10042A000AC0F901849147FD808192E0290E311CAE
:10043A00411C853249F4B60190E00E94830FBF86C1
:10044A00AE86AE84BF84DCCF10E0F12C00E000322F
:10045A00A0F48B3269F030F4803259F0833269F4B7
:10046A0000612CC08D3239F0803339F4016026C026
:10047A000260046023C0086021C007FD29C090ED16
:10048A00980F9A3078F406FF06C0AAE01A9F900DDA
:10049A001124192F13C0EAE0FE9E900D1124F92EA3
:1004AA0000620CC08E3221F406FD00C3006406C04F
:1004BA008C3611F4006802C0883651F4F101849137
:1004CA0047FC8081FFEF2F1A3F0A4F0A8111BFCFE5
:1004DA009BEB980F933018F40061805E06C09BE98D
:1004EA00980F933008F066C10F7E06FF16E00F736F
:1004FA00702E853621F4202F2064722E08C086368D
:10050A0021F4802F8068782E02C01111115077FED5
:10051A0007C01C3350F4EE24E394E10E27E00BC02D
:10052A00183038F027E017E005C027E06CE3E62E24
:10053A0002C0212FE12CF5013496FF87EE87F501E1
:10054A0060817181828193810E2DAE014F5F5F4F71
:10055A000E94E9075C01598050FE02C053FE06C0A2
:10056A0071FC06C072FE06C000E205C00DE203C0BF
:10057A000BE201C000E0852D8C7019F0011173C2E5
:10058A00BEC277FE0FC0EA0C54FE04C08A818133D2
:10059A0009F4EA941E1474F528E02E1578F538E06B
:1005AA00E32E2CC076FC2AC0812F90E08A159B0589
:1005BA009CF08CEFA8168FEFB80674F0972D906810
:1005CA00792E0AC0E2E0F0E0EC0FFD1FE10FF11D09
:1005DA008081803319F411501111F4CF77FE0EC0C7
:1005EA00EE24E394E10E812F90E0A816B9062CF4CC
:1005FA001A1904C0EE24E39401C010E077FE06C085
:10060A001A141B0434F4C501019605C085E090E074
:10061A0002C081E090E001110196112331F0212FEF
:10062A0030E02F5F3F4F820F931F2F2D30E082174C
:10063A00930714F4F81A01C0F12C872D897049F434
:10064A00FF2039F0B60180E290E00E94830FFA940D
:10065A00F7CF002329F0B601802F90E00E94830F84
:10066A0073FC09C0FF2039F0B60180E390E00E94D4
:10067A00830FFA94F7CF77FE49C03501B7FE02C05F
:10068A00612C712CC5018619970988248394912CB1
:10069A008C0E9D1E880E991EF501EE19F109F98B33
:1006AA00E88B012F10E0119501951109FFEF6F16E4
:1006BA007F0629F4B6018EE290E00E94830FA61409
:1006CA00B70444F088899989861597051CF4F401C2
:1006DA00818101C080E3F1E06F1A71082FEF821A5D
:1006EA00920A601671062CF0B60190E00E94830F00
:1006FA00DDCFA614B70439F49A81963318F49533EA
:10070A0011F454FE81E3B60190E051C08A8181332D
:10071A0019F0952D9F7E592EB60190E00E94830F05
:10072A00111105C074FC1CC085E690E01BC0B6011F
:10073A008EE290E00E94830F02E0010F82E011E056
:10074A00180FE1E0F0E0EC0FFD1FE80FF11D8081CA
:10075A00B60190E00E94830F812F1013F0CFE2CFF1
:10076A0085E490E0B6010E94830FB7FC05C0A1148E
:10077A00B10439F454FE05C0B194A194B1088DE2D4
:10078A0001C08BE2B60190E00E94830F80E3EAE0A9
:10079A00AE16B1042CF08F5FAAE0AA1AB108F7CFFF
:1007AA00B60190E00E94830FB601C501C0960E946F
:1007BA00830F72C1833631F0833791F0833509F0A4
:1007CA005DC024C0C50102969F878E87F50180818E
:1007DA0089836A887B888C88AA24A394B12C14C044
:1007EA00C50103969F878E87F5016080718082809C
:1007FA0006FF03C0412F50E002C04FEF5FEF882D84
:10080A00B3010E94DE135C010F7715C0C501039680
:10081A009F878E87F50160807180828006FF03C002
:10082A00412F50E002C04FEF5FEF882DB3010E94C5
:10083A00DE135C01006803FD1DC08F2D90E0A81631
:10084A00B906C0F4B60180E290E00E94830FFA94E0
:10085A00F4CFF301849187FC8081FFEF6F1A7F0A3E
:10086A008F0AB60190E00E94830FF110FA9421E0FA
:10087A00A21AB108A114B10461F70EC1843611F0AD
:10088A00893679F5C50107FF09C004969F878E87C7
:10089A00F50160817181828193810AC002969F87E6
:1008AA008E87F50160817181072E000C880B990BE8
:1008BA000F76E02E97FF0AC0909580957095619506
:1008CA007F4F8F4F9F4FF02FF068EF2E2AE030E0D6
:1008DA00AE014F5F5F4F0E94FE0CA82E2C85A21A14
:1008EA004BC0853729F40F7EE02E2AE030E025C080
:1008FA00902F997FE92E8F36C1F018F4883579F058
:10090A00D5C0803719F0883721F0D0C0A92FA0614F
:10091A00EA2EE4FE0DC0EE2DE460EE2E09C004FFBF
:10092A000AC0F92FF660EF2E06C028E030E005C0B5
:10093A0020E130E002C020E132E0C501E7FE09C053
:10094A0004969F878E87F5016081718182819381E8
:10095A0008C002969F878E87F5016081718180E0C9
:10096A0090E0AE014F5F5F4F0E94FE0CA82EFC85FF
:10097A00AF1A2E2D2F77E22EE6FE0BC00E2D0E7F1C
:10098A00A11650F4E4FE0AC0E2FC08C00E2D0E7E49
:10099A0005C0BA2C0E2D03C0BA2C01C0B12E04FF1B
:1009AA000DC0FE01EA0DF11D8081803311F4097E2C
:1009BA0009C002FF06C0B394B39404C0802F86789E
:1009CA0009F0B39403FD11C000FF06C0BF1488F4F8
:1009DA00FA0C1F2D1B190EC0BF1460F4B60180E279
:1009EA0090E00E94830FB394F7CFBF1418F4FB185A
:1009FA0002C01A2DF12C04FF10C0B60180E390E06A
:100A0A000E94830F02FF17C001FD03C088E790E030
:100A1A0002C088E590E0B6010CC0802F867859F0B4
:100A2A0001FF02C08BE201C080E207FD8DE2B60140
:100A3A0090E00E94830FA11638F4B60180E390E09B
:100A4A000E94830F1150F7CFAA94E1E0F0E0EC0F77
:100A5A00FD1FEA0DF11D8081B60190E00E94830F0F
:100A6A00A110F2CF19C0F4E0FF1580F584E0F81A5E
:100A7A0073FE23C001112BC053FE2FC055ED852EE6
:100A8A0053E0952E50E0A52E072D0071F4018491B4
:100A9A00A7FC8081811128C0FF2009F4D2CCB601BD
:100AAA0080E290E00E94830FFA94F6CFF6018781E4
:100ABA0090852CC08FEF9FEF29C0B60180E290E0AD
:100ACA000E94830FFA94F110F8CFD4CFF12CB6011B
:100ADA00802F90E00E94830FCFCF41ED842E43E018
:100AEA00942E40E0A42ED0CF01118052B60190E09E
:100AFA000E94830FFFEF8F1A9F0AAF0AC7CF23E026
:100B0A002F1510F483E0B3CFF12CB6CF6496E2E14F
:040B1A000C94C31361
:100B1E002F923F924F925F926F927F928F92AF92EF
:100B2E00BF92CF92DF92EF920F931F93CF93DF93EB
:100B3E0000D000D000D0CDB7DEB73B01882E5A01D1
:100B4E0019014115510521F0FA01608371838283E9
:100B5E002114310429F0C1010297839708F01AC1BC
:100B6E00E82C6301FFEFCF1ADF0AEF0AF3011491AD
:100B7E0087FC1081812F90E00E9414164C2D3D2D84
:100B8E002E2D892B19F036018E2CEACF1D3269F4E9
:100B9E00E82C630152E0C50ED11CE11CE42FF32FAB
:100BAE00149127FD108101E00EC01B3259F4E82C80
:100BBE00630182E0C80ED11CE11CE42FF32F1491C7
:100BCE0027FD108100E02114310409F190E129166E
:100BDE00310429F43FC010E32114310421F1F8E06F
:100BEE002F16310401F154F432E02316310421F5AD
:100BFE00412C512C612C50E4752E4BC04AE024162A
:100C0E00310439F050E125163104B1F43DC01033F2
:100C1E0019F13AE0232E312C4CEC442E542C642C3A
:100C2E004CE0742E36C098E0292E312C412C512CDC
:100C3E00612C20E1722E2DC060E070E080E090E823
:100C4E009101032C000C440B550B0E94B612290186
:100C5E003A011FC01033C1F4F6018491E7FC808184
:100C6E008F7D883509F0B7CFAE2DC6010196A11D37
:100C7E00FC011491A7FD1081E2E0CE0ED11CE11C07
:100C8E00026060E1262E312C412C512C612C88E023
:100C9E00782EA0E060E070E0CB019101032C000CF7
:100CAE00440B550B29833A834B835C83E0EDE10FB4
:100CBE00EA3060F02FEB210F2A3110F4E9EC05C079
:100CCE002FE9210F2A3150F5E9EAE10F2E2F30E0FE
:100CDE00221533051CF5A7FD18C0461657066806E3
:100CEE00790680F029813A814B815C810E944F15F3
:100CFE006E0F711D811D911D61307105810530E8EA
:100D0E00930710F0AFEF01C0A1E0F6011491E7FCDC
:100D1E0010814FEFC41AD40AE40AC8CF202F2170D5
:100D2E00A114B104B1F0AA2349F051E0C51AD108BB
:100D3E00E108F501C082D182E2820BC001FF1DC025
:100D4E00F2E0CF1AD108E108F501C082D182E28229
:100D5E0014C0A7FF12C0222329F060E070E080E0EB
:100D6E0090E804C06FEF7FEF8FEF9FE722E230E055
:100D7E003093E9042093E80409C0222381F0909572
:100D8E008095709561957F4F8F4F9F4F462F372FD0
:100D9E00282F12C040E030E020E090E00DC097FF19
:100DAE00F5CF82E290E09093E9048093E8046FEF30
:100DBE007FEF8FEF9FE7EACF642F732F822F269658
:100DCE000FB6F894DEBF0FBECDBFDF91CF911F914E
:100DDE000F91EF90DF90CF90BF90AF908F907F905C
:0C0DEE006F905F904F903F902F90089501
:100DFA00CF92DF92EF92FF920F931F93CF93DF93DD
:100E0A00CDB7DEB768970FB6F894DEBF0FBECDBF79
:100E1A006B01E82EF42E052F21E0AE014F5F5F4FE4
:100E2A000E94020E182F882309F4BEC08E2DB60127
:100E3A000E94F510823009F4B6C0CE0101966C0109
:100E4A0020E8E22E20E532E040E08E2DB6010E9435
:100E5A00D812892B29F48F2D902F0E942C14A4C00C
:100E6A0027E532E040E08E2DB6010E94D812892B88
:100E7A0029F48F2D902F0E94441496C02EE532E05B
:100E8A0040E08E2DB6010E94D812892B29F48F2DAD
:100E9A00902F0E945C1488C025E632E040E08E2D37
:100EAA00B6010E94D812892BE1F4CE0145960E9420
:100EBA005F15888D8F938F898F938E898F938D89F4
:100ECA008F938AE692E0A0E0AF939F938F930F935C
:100EDA00FF920E944F120FB6F894DEBF0FBECDBF2D
:100EEA0063C02FE632E040E08E2DB6010E94D81290
:100EFA00892BE1F4CE0145960E946E15888D8F9359
:100F0A008F898F938E898F938D898F938AE692E04A
:100F1A00A0E0AF939F938F930F93FF920E944F127B
:100F2A000FB6F894DEBF0FBECDBF3EC024E732E055
:100F3A0040E08E2DB6010E94D812892BE1F4CE0131
:100F4A0045960E947D15888D8F938F898F938E8900
:100F5A008F938D898F938AE692E0A0E0AF939F9357
:100F6A008F930F93FF920E944F120FB6F894DEBF31
:100F7A000FBECDBF19C029E732E040E08E2DB60181
:100F8A000E94D812892B29F48F2D902F0E94A00C31
:100F9A000BC026E130E04EE752E060E08F2D902F43
:100FAA000E94131401C010E0812F68960FB6F894BE
:100FBA00DEBF0FBECDBFDF91CF911F910F91FF9082
:080FCA00EF90DF90CF90089535
:100FD200283008F027E03327DA01990F311D87FD09
:100FE200916000966105710539F432602E5F3D9380
:100FF20030E32A95E1F708959F3F30F0803871057C
:10100200610509F03C5F3C5F3D93913008F08068D8
:10101200911DDF93CF931F930F93FF92EF92192F9E
:10102200987F9695E92F96959695E90FFF27EE50B2
:10103200FF4F99273327EE24FF24A701E7010590EC
:101042000894079428F4360FE71EF81E491F511D15
:10105200660F771F881F991F0694A1F705900794C2
:1010620028F4E70EF81E491F561FC11D770F881F6F
:10107200991F661F0694A1F70590079428F4F80EAD
:10108200491F561FC71FD11D880F991F661F771F43
:101092000694A1F70590079420F4490F561FC71F25
:1010A200D81F990F661F771F881F0694A9F784918E
:1010B2001095177041F0D695C79557954795F794B7
:1010C200E7941A95C1F7E8E9F0E068941590159154
:1010D20035916591959105907FE27395E118F10A3A
:1010E200430B560BC90BD009C0F7E10CF11E431F8D
:1010F200561FC91FD01D7EF4703311F48A95E6CFB6
:10110200E894015030F0080F0AF40027021708F49F
:10111200202F2395022F7A3328F079E37D932A95A5
:10112200E9F710C07D932A9589F6069497956795FD
:10113200379517951794E118F10A430B560BC90B13
:10114200D00998F023957E9173957A3308F070E375
:101152007C932013B8F77E9170617D9330F0839574
:1011620071E37D9370E32A95E1F71124EF90FF90EC
:101172000F911F91CF91DF91992787FD9095089547
:101182006F927F928F92AF92BF92CF92DF92EF9245
:101192001F93CF93DF93CDB7DEB764970FB6F89462
:1011A200DEBF0FBECDBF3B01882E5A0121E0AE014A
:1011B2004F5F5F4F0E94020E182F882309F48DC0E3
:1011C200CE0101966C0120E8E22E20E532E040E0FB
:1011D2008E2DB6010E94D812892B39F4A501882DD3
:1011E200B3010E94CF0E182F78C027E532E040E00D
:1011F2008E2DB6010E94D812892B39F4A501882DB3
:10120200B3010E940B0F182F68C02EE532E040E0B8
:101212008E2DB6010E94D812892B39F4A501882D92
:10122200B3010E94470F182F58C025E632E040E074
:101232008E2DB6010E94D812892B39F4A501882D72
:10124200B3010E949311182F48C02FE632E040E00C
:101252008E2DB6010E94D812892B39F4A501882D52
:10126200B3010E94B911182F38C024E732E040E0E0
:101272008E2DB6010E94D812892B39F4A501882D32
:10128200B3010E94DF11182F28C029E732E040E0A5
:101292008E2DB6010E94D812892B39F4A501882D12
:1012A200B3010E948109182F18C024E932E040E0FE
:1012B2008E2DB6010E94D812892B39F4A501882DF2
:1012C200B3010E94D20B182F08C026E130E04EE78E
:1012D20052E060E0C5010E941314812F64960FB69C
:1012E200F894DEBF0FBECDBFDF91CF911F91EF907B
:1012F200DF90CF90BF90AF908F907F906F900895C6
:101302004F925F926F927F928F92AF92BF92CF92E3
:10131200DF92EF92FF920F931F93CF93DF93CDB79C
:10132200DEB7A3970FB6F894DEBF0FBECDBF3B0169
:10133200882E5A0122E04CEA56E00E94020E182F33
:10134200882309F45DC08CEA96E06C0120E8E22E65
:101352008E2DB6010E94B0160FEF080F073008F06D
:101362004AC023E04CEA56E0882DB3010E94020EE7
:10137200182F882309F444C08E2DB6010E94B0169E
:101382002C0102978B329140C0F524E04CEA56E0E2
:10139200882DB3010E94020E182F882389F18E2D09
:1013A200B6010E94B0166C0102978735924038F55B
:1013B20063E2CE0101967C010E942616802F90E006
:1013C200FC01EE0FFF1FEE0FFF1FE80FF91FEE0DDE
:1013D200FF1D51824082D382C282B70180E843E27C
:1013E2000E94581628E030E043E052E060E0C50178
:1013F2000E94131405C010E003C010E001C010E009
:10140200812FA3960FB6F894DEBF0FBECDBFDF913A
:10141200CF911F910F91FF90EF90DF90CF90BF90EF
:0E142200AF908F907F906F905F904F900895E5
:10143000CF930E941713C0E007C0C5E005C0C6E007
:1014400003C0C5E001C0C5E0EC2FF0E0EB30F105D2
:10145000D8F7E25CFF4F0C948F166DE073E080E0EC
:101460000E944D0EC2E0F0CF0E9435168111C3E0FC
:101470000E943C168111E1CFE7CF80E294E00E9408
:10148000E31480E294E00E94CA108823C1F280E253
:1014900094E00E943F15C82FD7CF60E274E080E847
:1014A00048E553E00E94FD06882359F2CAE0CCCFFC
:1014B00060E274E080E848E553E00E94C1088823B8
:1014C00011F2CAE0C1CF0E94890A0E949A16C2E0B6
:1014D000BBCF68E573E080E80E944D0EC2E0B4CF58
:1014E00063E373E080E00E944D0EC2E0ADCF6DE398
:1014F00073E080E00E944D0EC2E0A6CF0E949A16D3
:101500006AE473E080E00E944D0EC1E09DCFCF9170
:0215100008953C
:101512006F927F928F92CF92DF92EF92CF93DF936F
:10152200C0E0C23009F128F4CC2349F0C13091F077
:10153200F8CFC330F9F0C43009F44BC0F2CF0E94A7
:10154200F9120E94A41665E773E080E00E944D0E36
:10155200C1E0E7CF0E943516882319F380E294E0B8
:101562000E94E314C2E0DDCF80E294E00E94F7140F
:10157200C82FD7CF80E294E06C0120E8E22E2F93AF
:10158200DF928F938BEA93E0A0E0AF939F938F93C8
:10159200C8E5D3E0DF93CF930E944F123E0120E8CB
:1015A200822E882DB3010E944D0EAE016C2D7D2D31
:1015B2008E2D0E94B416882DB3010E944D0E8DB758
:1015C2009EB708960FB6F8949EBF0FBE8DBFC1E0BE
:1015D200A8CF61EB73E080E00E944D0E81E0DF91C5
:1015E200CF91EF90DF90CF908F907F906F90089582
:1015F20010C00E946D1658F00E94661640F029F441
:101602005F3F29F00C94891651110C9475160C94B5
:10161200BA160E94721268F39923B1F3552391F31B
:10162200951B550BBB27AA2762177307840738F04F
:101632009F5F5F4F220F331F441FAA1FA9F335D0AC
:101642000E2E3AF0E0E832D091505040E695001C60
:10165200CAF72BD0FE2F29D0660F771F881FBB1F1A
:10166200261737074807AB07B0E809F0BB0B802DF8
:10167200BF01FF2793585F4F3AF09E3F510578F024
:101682000C9489160C9475165F3FE4F3983ED4F3DC
:10169200869577956795B795F7959F5FC9F7880FF8
:1016A200911D9695879597F90895E1E0660F771F4A
:1016B200881FBB1F621773078407BA0720F0621BDB
:0E16C200730B840BBA0BEE1F88F7E0950895AA
:1016D0000FC00E94661638F00E946D1620F0952308
:1016E00011F00C9489160C94BA1611240C947516EA
:1016F0000E94721270F3959FC1F3950F50E0551F31
:10170000629FF001729FBB27F00DB11D639FAA2756
:10171000F00DB11DAA1F649F6627B00DA11D661FA5
:10172000829F2227B00DA11D621F739FB00DA11DC6
:10173000621F839FA00D611D221F749F3327A00D80
:10174000611D231F849F600D211D822F762F6A2F1C
:1017500011249F5750409AF0F1F088234AF0EE0F81
:10176000FF1FBB1F661F771F881F91505040A9F7AE
:101770009E3F510580F00C9489160C9475165F3FBE
:10178000E4F3983ED4F3869577956795B795F795EA
:10179000E7959F5FC1F7FE2B880F911D9695879562
:0417A00097F9089518
:1017A4000F931F93CF93DF93CDB7DEB7A3970FB6F5
:1017B400F894DEBF0FBECDBF8A016BE072E080E01B
:1017C4000E9435136BE072E080E00E9452136CE1DA
:1017D40072E080E00E946F1360E070E080E89FE3B5
:1017E4000E94431660E070E48CE195E40E944A167E
:1017F40060E070E080EA90E40E94511680E01AC034
:10180400E82FF0E09F01220F331F220F331FE20F56
:10181400F31F21E030E02C0F3D1FE20FF31F92E095
:10182400948322E030E0318320832AE030E0338364
:1018340022838F5F873020F3BE016F5F7F4F80E884
:1018440043E20E94581623E130E04DE352E060E0A9
:10185400C8010E94131481E0A3960FB6F894DEBF6A
:0E1864000FBECDBFDF91CF911F910F91089560
:1018720011C00E94661638F00E946D1620F039F4ED
:101882009F3F19F426F40C94BA160EF4E095E7FB88
:101892000C948916E92F0E94721258F3BA17620744
:1018A20073078407950720F079F4A6F50C94741653
:1018B2000EF4E0950B2EBA2FA02D0B01B901900169
:1018C2000C01CA01A0011124FF27591B99F0593FAD
:1018D20050F4503E68F11A16F040A22F232F342FF5
:1018E2004427585FF3CF469537952795A795F04043
:1018F2005395C9F77EF41F16BA0B620B730B840B58
:10190200BAF09150A1F0FF0FBB1F661F771F881F0F
:10191200C2F70EC0BA0F621F731F841F48F4879567
:1019220077956795B795F7959E3F08F0B0CF939559
:0E193200880F08F09927EE0F97958795089576
:10194000CF92DF92EF92FF921F93CF93DF93CDB7A9
:10195000DEB7A3970FB6F894DEBF0FBECDBF7C01F4
:1019600063E2CE0101960E942616F701108210E074
:1019700035C0812F90E0FC01EE0FFF1FEE0FFF1F1F
:10198000E80FF91F21E030E02C0F3D1FE20FF31F9D
:1019900023812F9322812F9321812F9320812F93B5
:1019A00001969F938F9386EE91E0A0E0AF939F9373
:1019B0008F930F2EFCEACF2EF6E0DF2EF02DDF9274
:1019C000CF920E944F12A60160E8C7010E94A214A4
:1019D0001F5F0FB6F894DEBF0FBECDBF173048F2C1
:1019E000A3960FB6F894DEBF0FBECDBFDF91CF91A7
:0C19F0001F91FF90EF90DF90CF900895C2
:1019FC00FA01AA27283051F1203181F1E8946F9334
:101A0C006E7F6E5F7F4F8F4F9F4FAF4FB1E03ED0D9
:101A1C00B4E03CD0670F781F891F9A1FA11D680F77
:101A2C00791F8A1F911DA11D6A0F711D811D911DAA
:101A3C00A11D20D009F468943F912AE0269F11241F
:101A4C003019305D3193DEF6CF010895462F477083
:101A5C00405D4193B3E00FD0C9F7F6CF462F4F70DE
:101A6C00405D4A3318F0495D31FD4052419302D03C
:101A7C00A9F7EACFB4E0A6959795879577956795E2
:101A8C00BA95C9F700976105710508959B01AC01E2
:101A9C000A2E06945795479537952795BA95C9F709
:0C1AAC00620F731F841F951FA01D08957A
:101AB800CF92DF92EF92FF920F931F93CF93DF9312
:101AC8006C0110E008C0CC0DDD1D88818E3211F448
:101AD8001F5F0CC01F5FC12FD0E0B60180E80E94D5
:101AE800B9140197C817D90770F310E0112371F1E1
:101AF800C10ED11C80E8E82E8E2DB6010E94B914C3
:101B0800C82F8E2DB6010E94B0168C010F2EC12C45
:101B1800D12CF0E8EF2EFFE3FF2EF02D0BC020E0D4
:101B280030E040E251E4C701B6010E94AC166B01F7
:101B38007C01C150C111F3CFB80180E090E00E9450
:101B4800920EA70196010E94A81603C060E070E0FB
:101B5800CB01DF91CF911F910F91FF90EF90DF9014
:041B6800CF9008957D
:101B6C001F920F920FB60F9211242F933F934F9306
:101B7C005F936F937F938F939F93AF93BF93CF9309
:101B8C00EF93FF9390910A079F5F90930A0789E068
:101B9C00989F212D1124892F821B8695820F829567
:101BAC008F702FE1829F90191124911113C0109204
:101BBC000A07C0E00DC0EC2FF0E0EE0FFF1FE45061
:101BCC00F94F0190F081E02D309709F00995CF5F26
:101BDC00C53088F3FF91EF91CF91BF91AF919F9159
:101BEC008F917F916F915F914F913F912F910F90BA
:081BFC000FBE0F901F90189519
:101C04008F929F92AF92CF92DF92EF92FF920F93B7
:101C14001F93CF93DF936B01E82EEA01F22E0E940B
:101C2400F5108F1558F18E2DB6010E94B9148C0150
:101C34004F2D8E2DB6010E94311090E015C0460143
:101C4400AE2C820E931EA11C37FDAA944A2D94013A
:101C5400F401249147FD2081203259F0FE01E90F5F
:101C6400F11D20838F5F9F5F282F30E020173107FD
:101C740030F3C90FD11D188281E001C080E0DF91EB
:101C8400CF911F910F91FF90EF90DF90CF90AF9085
:061C94009F908F9008955F
:101C9A006F927F928F92CF92DF92EF923B01882EC2
:101CAA00809112078111FCCF882DB3010E94B914CB
:101CBA00BC0190E012C0292F30E0E82C6301C40E69
:101CCA00D51EE11C57FDEA94F6014491E7FC4081D8
:101CDA00F901E651FB4F40839F5F492F50E04617B9
:101CEA00570748F3FB01E651FB4F8DE08083FB0168
:101CFA00E551FB4F8AE080836E5F6093120781E0B3
:101D0A00809311078091EA048093CE00EF90DF90D0
:0A1D1A00CF908F907F906F90089596
:101D2400E89409C097FB3EF4909580957095619571
:101D34007F4F8F4F9F4F9923A9F0F92F96E9BB2727
:101D44009395F695879577956795B795F111F8CFA3
:101D5400FAF4BB0F11F460FF1BC06F5F7F4F8F4F0E
:101D64009F4F16C0882311F096E911C0772321F004
:101D74009EE8872F762F05C0662371F096E8862F9C
:101D840070E060E02AF09A95660F771F881FDAF7F3
:0A1D9400880F9695879597F908953A
:101D9E00CF92DF92EF920F931F93CF938A0122E09F
:101DAE004CEA56E00E94020EC82F882329F18CEAD5
:101DBE0096E06C0120E8E22E8E2DB6010E94B91439
:101DCE004097C9F48E2DB6010E943513C82F81118C
:101DDE0009C027E030E04CEF51E060E0C8010E94FE
:101DEE0013140AC028E030E043E052E060E0C8017E
:101DFE000E94131401C0C0E08C2FCF911F910F9140
:081E0E00EF90DF90CF900895E2
:101E1600CF92DF92EF920F931F93CF938A0122E026
:101E26004CEA56E00E94020EC82F882329F18CEA5C
:101E360096E06C0120E8E22E8E2DB6010E94B914C0
:101E46004097C9F48E2DB6010E945213C82F8111F6
:101E560009C027E030E04CEF51E060E0C8010E9485
:101E660013140AC028E030E043E052E060E0C80105
:101E76000E94131401C0C0E08C2FCF911F910F91C7
:081E8600EF90DF90CF9008956A
:101E8E00CF92DF92EF920F931F93CF938A0122E0AE
:101E9E004CEA56E00E94020EC82F882329F18CEAE4
:101EAE0096E06C0120E8E22E8E2DB6010E94B91448
:101EBE008097C9F48E2DB6010E946F13C82F811121
:101ECE0009C027E030E04CEF51E060E0C8010E940D
:101EDE0013140AC028E030E043E052E060E0C8018D
:101EEE000E94131401C0C0E08C2FCF911F910F914F
:081EFE00EF90DF90CF900895F2
:101F06000F931F93CF93DF93FB01248121FD03C021
:101F16008FEF9FEF2CC022FF16C047815085258189
:101F260036814217530744F4A081B1819D012F5F8A
:101F36003F4F318320838C93278130852F5F3F4F1E
:101F46003087278314C08B01EC01FB010184F285E5
:101F5600E02D0995892BE1F6D80117968D919C9174
:101F66001897019618969C938E931797CE01DF913A
:081F7600CF911F910F91089516
:101F7E001F920F920FB60F9211242F938F939F9350
:101F8E00EF93FF9380910B0781110EC0E0910C0728
:101F9E00E43650F481E08E0F80930C07F0E08091D0
:101FAE00C600E050FF4F808380910C07833080F095
:101FBE0090E0FC01E150FF4F20812A3049F4FC01F2
:101FCE00E250FF4F80818D3019F481E080930B0732
:101FDE00FF91EF919F918F912F910F900FBE0F90C8
:041FEE001F90189593
:101FF2001F920F920FB60F9211242F938F939F93DC
:10200200EF93FF9380910F0781110EC0E0911007AB
:10201200E63950F481E08E0F80931007F0E0809152
:10202200CE00EA5EF94F80838091100790E0FC01B8
:10203200EB5EF94F20812A3049F4FC01EC5EF94F46
:1020420080818D3019F481E080930F07FF91EF9129
:102052009F918F912F910F900FBE0F901F90189507
:10206200CF92DF92EF920F931F93CF93DF9344238C
:1020720029F1042F6B01E82EC0E0D0E010E014C07B
:10208200AE2DC6018C0F9D1FA11DD7FDAA95FC0187
:102092008491A7FD8081803231F41F5F011303C058
:1020A200CE0101960DC021968E2DB6010E94B91463
:1020B200C817D90728F380E090E002C080E090E0E2
:1020C200DF91CF911F910F91EF90DF90CF90089504
:1020D200CF92DF92EF920F931F936B01E82E0115BF
:1020E200110519F101501109F6018491E7FC808173
:1020F200882399F0F901949147FD9081992369F021
:102102000115110551F0891308C08FEFC81AD80ABA
:10211200E80A2F5F3F4F4F4FE5CF90E0F90124913E
:1021220047FD2081821B910902C080E090E01F914F
:0A2132000F91EF90DF90CF90089519
:10213C00EF92FF920F931F93CF93DF937C0110E0EC
:10214C0000E00DC0CE0DDF1D88818E3221F401110F
:10215C0011C001E003C080538A3070F41F5FC12F9F
:10216C00D0E0B70180E80E94B914C817D90750F322
:10217C0081E003C080E001C080E0DF91CF911F912E
:08218C000F91FF90EF90089500
:10219400CF93DF93EC01BC0180E80E94B914BC0129
:1021A400FC013197EC0FFD1F80818032B1F020E0FB
:1021B40030E040E00DC0FE01E20FF31F9081903249
:1021C40021F441110CC041E001C040E02F5F3F4FBA
:1021D4002617370780F381E003C080E001C080E068
:0621E400DF91CF91089588
:1021EA006F927F928F92CF92DF92EF923B01882E6D
:1021FA000E94B914BC0120E030E080E010C0E82C55
:10220A006301C20ED31EE11C37FDEA94F6019491D4
:10221A00E7FC9081903209F48F5F2F5F3F4F2617BA
:10222A00370768F3EF90DF90CF908F907F906F9091
:02223A00089505
:10223C001F920F920FB60F9211242F933F934F932F
:10224C005F936F937F938F939F93AF93BF93EF9312
:10225C00FF93E0910607F09107070995FF91EF9125
:10226C00BF91AF919F918F917F916F915F914F91A2
:0E227C003F912F910F900FBE0F901F9018955D
:10228A001F920F920FB60F9211242F933F934F93E1
:10229A005F936F937F938F939F93AF93BF93EF93C4
:1022AA00FF93E0910807F09109070995FF91EF91D3
:1022BA00BF91AF919F918F917F916F915F914F9154
:0E22CA003F912F910F900FBE0F901F9018950F
:1022D800CF92DF92EF92FF920F931F93CF93DF93EA
:1022E8008C01BC0180E80E94B016EC01C8010E9474
:1022F8005C0D6B017C01BE0180E090E00E94920EB3
:102308009B01AC01C701B6010E946016DF91CF9115
:0E2318001F910F91FF90EF90DF90CF900895EE
:102326000F931F93CF938A0122E04CEA56E00E9456
:10233600020EC82F8823A9F08CEA96E00E949E1010
:10234600C82F882371F08CEA96E00E946C110E94D7
:10235600431628E030E043E052E060E0C8010E9406
:0C23660013148C2FCF911F910F9108953C
:102372000F931F93CF938A0122E04CEA56E00E940A
:10238200020EC82F8823A9F08CEA96E00E949E10C4
:10239200C82F882371F08CEA96E00E946C110E948B
:1023A2004A1628E030E043E052E060E0C8010E94B3
:0C23B20013148C2FCF911F910F910895F0
:1023BE000F931F93CF938A0122E04CEA56E00E94BE
:1023CE00020EC82F8823A9F08CEA96E00E949E1078
:1023DE00C82F882371F08CEA96E00E946C110E943F
:1023EE00511628E030E043E052E060E0C8010E9460
:0C23FE0013148C2FCF911F910F910895A4
:10240A001F920F920FB60F9211248F93EF93FF939F
:10241A00E0910D0780910E07E81758F481E08E0FBE
:10242A0080930D07F0E0EC59FE4F80818093C6003F
:10243A0004C010920D0710920E07FF91EF918F9131
:0A244A000F900FBE0F901F90189521
:102454001F920F920FB60F9211248F93EF93FF9355
:10246400E091110780911207E81758F481E08E0F6C
:1024740080931107F0E0E651FB4F80818093CE00FA
:1024840004C01092110710921207FF91EF918F91DF
:0A2494000F900FBE0F901F901895D7
:10249E00AFE0B0E0E5E5F2E10C949A130E891F89E6
:1024AE0086E08D831A8309838FEF9FE79F838E8348
:1024BE009E01255E3F4F488D598D6A8DCE01019646
:1024CE000E94ED01E885F985E00FF11F10822F962D
:0624DE00E4E00C94D113B0
:1024E40057FD9058440F551F59F05F3F71F04795C1
:1024F400880F97FB991F61F09F3F79F087950895A6
:10250400121613061406551FF2CF4695F1DF08C0C4
:10251400161617061806991FF1CF869571056105E1
:04252400089408957A
:10252800CF92DF92EF9221503109C0F06B01E82E73
:10253800C20ED31EE11CCA01820F931F422F732FB4
:10254800F6015E2D0E949F16262F0E941D1531E070
:10255800C31AD108E1084150704090F7EF90DF901E
:04256800CF90089573
:10256C00A1E21A2EAA1BBB1BFD010DC0AA1FBB1F8B
:10257C00EE1FFF1FA217B307E407F50720F0A21BFD
:10258C00B30BE40BF50B661F771F881F991F1A946A
:10259C0069F760957095809590959B01AC01BD0194
:0425AC00CF010895BE
:1025B000CF92DF92EF926B01E82EF6018491E7FC57
:1025C0008081F901549147FD508185130BC0882308
:1025D00041F08FEFC81AD80AE80A2F5F3F4F4F4FDC
:1025E000ECCF582F90E0851B9109EF90DF90CF90B2
:0225F00008954C
:1025F200E1ECF0E08081806180838081886080836B
:10260200808180688083808180648083E0ECF0E058
:1026120080818260808386E08093C20080E190E0C6
:0C2622009093C5008093C4007894089544
:10262E00E9ECF0E080818061808380818860808326
:10263E00808180688083808180648083E8ECF0E014
:10264E0080818260808386E08093CA0080E190E082
:0C265E009093CD008093CC0078940895F8
:10266A00CF92DF92EF926B01E82E0E94B914409745
:10267A0079F420E130E040E050E08E2DB6010E946E
:10268A00941261E080E490E00E941C1581E001C090
:0A269A0080E0EF90DF90CF900895EC
:1026A400CF92DF92EF926B01E82E0E94B91440970B
:1026B40079F420E130E040E150E08E2DB6010E9433
:1026C400941261E081E490E00E941C1581E001C055
:0A26D40080E0EF90DF90CF900895B2
:1026DE00CF92DF92EF926B01E82E0E94B914809791
:1026EE0079F420E230E040E250E08E2DB6010E94F7
:1026FE00941261E082E490E00E941C1581E001C01A
:0A270E0080E0EF90DF90CF90089577
:102718002F923F924F925F926F927F928F929F92E9
:10272800AF92BF92CF92DF92EF92FF920F931F93D7
:10273800CF93DF93CDB7DEB7CA1BDB0B0FB6F89488
:08274800DEBF0FBECDBF0994F6
:10275000CF93DF93EA01AB01682F80E992E00E94FA
:102760009B1580E992E00E94AA1580E992E00E9400
:10277000B8150E942E168823E1F3CE010E94B716E9
:06278000DF91CF910895E6
:102786002A88398848885F846E847D848C849B84FB
:10279600AA84B984C884DF80EE80FD800C811B8109
:1027A600AA81B981CE0FD11D0FB6F894DEBF0FBE38
:0627B600CDBFED01089506
:1027BC00CF92DF92EF926B01E82EA82FCB0141153F
:1027CC00510531F48C199D09EF90DF90CF9008954D
:1027DC00FC012491A7FD20812223A1F30196A11DC8
:0627EC0041505109ECCF41
:1027F200DC0190E00BC0292F30E0FD01E20FF31F56
:102802004081F901EC59FE4F40839F5F961798F380
:1028120060930E0781E080930D078091640180939D
:04282200C60008954F
:10282600CF92DF92EF92DC016A01E62E280F391F64
:10283600A217B30751F0F6014491E7FC40814D938E
:102846004FEFC41AD40AE40AF3CFEF90DF90CF908B
:022856000895E3
:102858000F931F93CF938C010E94DE15C82F8823F6
:1028680051F020E130E040E050E060E0C8010E9413
:102878000A15F801108A8C2FCF911F910F91089596
:102888000F931F93CF938C010E94E915C82F8823BB
:1028980051F020E130E040E150E060E0C8010E94E2
:1028A8000A15F801108A8C2FCF911F910F91089566
:1028B8000F931F93CF938C010E94F415C82F882380
:1028C80051F020E230E040E250E060E0C8010E94B0
:1028D8000A15F80110A28C2FCF911F910F9108951E
:1028E800BC0190E009C0FB01E90FF11DDA01A0501D
:1028F800BF4F2C9120839F5F492F50E020910C07F8
:0E29080030E022503109421753076CF3089556
:10291600BC0190E009C0FB01E90FF11DDA01AA5ED6
:10292600B94F2C9120839F5F492F50E020911007CB
:0E29360030E022503109421753076CF3089528
:102944009A01462FDC01BD016F5F7F4F5C915523D7
:1029540011F0DB01F8CFF901549147FD50815D93EB
:0E296400552321F02F5F3F4F4F4FF5CF0895C1
:10297200CF92DF92EF926B01E82EA82FCB01FC01E0
:102982002491A7FD2081222319F00196A11DF7CFE2
:0C2992008C199D09EF90DF90CF90089504
:10299E000F931F93CF938C010E947414C0910C0758
:1029AE00C250F801EC0FF11D10820E9495168C2F6B
:0829BE00CF911F910F910895C4
:1029C6000F931F93CF938C010E948B14C091100715
:1029D600C250F801EC0FF11D10820E949A168C2F3E
:0829E600CF911F910F9108959C
:1029EE000F931F93BC0180E804E010E020E733E072
:1029FE0040E00E946910892B11F484E001C083E04D
:062A0E001F910F910895D5
:102A1400BA01A901DC01CB01FC01F999FECF06C082
:102A2400F2BDE1BDF89A319600B40D924150504088
:042A3400B8F7089552
:102A3800262FF999FECF92BD81BDF89A019700B46F
:102A4800021639F01FBA20BD0FB6F894FA9AF99A0F
:042A58000FBE089510
:102A5C00092E0394000C11F4882352F0BB0F40F4A0
:102A6C00BF2B11F460FF04C06F5F7F4F8F4F9F4FE0
:022A7C000895BB
:102A7E00FC018081823731F0873731F0833631F4B3
:102A8E0089E0089587E0089588E0089585E0089527
:102A9E00DB018F939F930E94FF15BF91AF91A29F71
:102AAE00800D911DA39F900DB29F900D112408953E
:102ABE00CF93DF93EC0163E470E080E00E94821616
:0E2ACE00688379838A839B83DF91CF9108957B
:102ADC00CF93DF93EC0167E470E080E00E948216F4
:0E2AEC00688379838A839B83DF91CF9108955D
:102AFA00CF93DF93EC016BE470E080E00E948216D2
:0E2B0A00688379838A839B83DF91CF9108953E
:102B1800A29FB001B39FC001A39F700D811D112416
:0E2B2800911DB29F700D811D1124911D089505
:102B36009A01462FDC01F901549147FD50815D93BE
:0E2B4600552321F02F5F3F4F4F4FF5CF0895DD
:102B5400FC0101900020E9F7CF0123E030E04FE9C8
:0C2B640052E060E001970E9413140895F5
:102B7000CF93DF93EC01BC0180E80E94B914682F69
:0C2B8000CE010E94F913DF91CF9108955F
:102B8C000E94180A2FEF8DE399E421508040904069
:082B9C00E1F700C00000F4CFD6
:102BA4000396272F0E941D150E941C15252F0E9495
:082BB4001D15242F0C941D15C2
:102BBC0060E470E080E80E941D1691E0811101C074
:062BCC0090E0892F08953E
:102BD20061E470E080E80E941D1691E0811101C05D
:062BE20090E0892F089528
:102BE80062E470E080E80E941D1691E0811101C046
:062BF80090E0892F089512
:102BFE000E948C15A59F900DB49F900DA49F800DE3
:062C0E00911D1124089540
:102C14001F920F920FB60F9211240F900FBE0F90B8
:042C24001F90189550
:102C280091110C94BD16803219F089508550C8F75F
:022C38000895FD
:102C3A00CB01F999FECF92BD81BDF89A992780B54B
:022C4A000895EB
:102C4C00262F30E044E650E060E00E940A1508951B
:0E2C5C0090910B0781E0911101C080E0089576
:0E2C6A0090910F0781E0911101C080E0089564
:0E2C78009091100781E0953908F480E00895EE
:0E2C8600AB01BC0183E490E00E94D2150895DA
:0E2C9400AB01BC0187E490E00E94D2150895C8
:0E2CA200AB01BC018BE490E00E94D2150895B6
:0E2CB000242F30E044E650E00E949412089574
:0E2CBE005058BB27AA270E94390C0C942E15E3
:0E2CCC0000240A941616170618060906089525
:0E2CDA0000240A941216130614060506089527
:0E2CE800E894BB2766277727CB0197F908955C
:0E2CF6002AE030E040E050E00E948F05089593
:0E2D0400CB01A6E1B0E044E050E00C940E15C7
:0C2D120097F99F6780E870E060E008958A
:0C2D1E00EE0FFF1F0590F491E02D0994CA
:0A2D2A0010920B0710920C07089599
:0A2D340010920F0710921007089587
:0A2D3E0057FD608157FF649108956E
:082D480084B1806184B9089593
:082D50000E94F90A0C942E15F3
:082D58000E94680B0C942E157B
:082D60000E947B16CB010895CF
:062D68000E94A81308956B
:062D6E000E94CF1408953D
:062D74009FEF80EC0895C2
:062D7A0099278827089547
:042D80000C940000AF
:00000001FF
