:100000000C94D7000C9461230C9461230C9402226D
:100010000C9461230C9461230C9461230C94612350
:100020000C9461230C948E150C9461230C94612321
:100030000C9461230C94CC1A0C9461230C946123CE
:100040000C94A51A0C9461230C9461230C946123E5
:100050000C9435170C9461230C94E1170C946123D4
:100060000C9461230C9461230C9461230C94612300
:100070000C946F170C9461230C941818800D970D35
:10008000F30DA00DFC0DE50DEC0DB00DBC0DC80D74
:10009000D20DDE0D240C310C3B0C410C700C9B0C72
:1000A000B40C010006AF8006AF06BB0046C606BB17
:1000B00006D5800000407A10F35A00A0724E18094D
:1000C0000010A5D4E80000E87648170000E40B54BF
:1000D000020000CA9A3B000000E1F505000080968E
:1000E0009800000040420F000000A08601000000C0
:1000F000102700000000E80300000000640000007A
:1001000000000A00000000000100000000002C7642
:10011000D888DC674F0823DFC1DFAE59E1B1B7965D
:10012000E5E3E453C63AE651997696E8E6C28426BA
:10013000EB898C9B62ED407C6FFCEFBC9C9F40F296
:10014000BAA56FA5F490055A2AF75C936B6CF96712
:100150006DC11BFCE0E40D47FEF520E6B500D0EDD7
:10016000902E0300943577050080841E080000203F
:100170004E0A000000C80C333333330F986E1283DD
:100180001141EF8D2114893BE65516CFFEE6DB18B1
:10019000D1844B381BF77C1D901DA4BBE424203276
:1001A00084725E228100C9F124ECA1E53D2711246F
:1001B0001FBECFEFD0E1DEBFCDBFE2EAF0E040E00E
:1001C00017C0B591A59135912591059107FD0CC0FA
:1001D00095918591EF01F92FE82F05900D92A217C7
:1001E000B307D9F7FE0104C01D92A217B307E1F7C8
:1001F000E33BF40731F70E9499210C94FF00F89437
:02020000FFCF2E
:1002020049443D25752C206E3D25752C2073693D92
:100212002575200D0A004661696C656420746F20A3
:10022200726561642074696D6500253032752D2513
:100232003032752D2530327554253032753A2530DD
:1002420032753A25303275006661696C65640073F7
:100252007563636573730030303030303030303066
:1002620030303030303030003030303030303030BC
:10027200303030303030303030303030303030307C
:10028200303030303030303000416C6C2073657467
:1002920074696E6773207265736574004D7573744B
:1002A20020626520696E20666F726D61743A2079F2
:1002B200792D6D6D2D64645468683A6D6D3A73736F
:1002C200004661696C656420746F207365742074E4
:1002D200696D650064657665756900617070657544
:1002E20069006170706B65790070706D7800252E01
:1002F20032660072726C78007663637800636F6CAA
:100302007300686561745F75705F7400686561741D
:100312002075702074696D653D2575206D006169D9
:10032200725F70756D705F74006169722070756DB7
:10033200702074696D653D257520730073705F6967
:100342006E74657276616C0073616D706C696E6754
:100352002070726F6365737320696E746572766163
:100362006C3D257520680074696D65004E6F7420C0
:10037200612076616C6964206F7065726174696F67
:080382006E00726573657400E2
:10038A006F6E00506F776572206D657468616E6577
:10039A002073656E736F72206F6E006F6666005011
:1003AA006F776572206D657468616E652073656E1E
:1003BA00736F72206F6666007265616400457272BF
:1003CA006F72207768656E2072656164696E672056
:1003DA00646174610050504D3D2575004E6F742064
:1003EA00612076616C6964206F7065726174696FEF
:1003FA006E00434F323D25752070706D2C20746558
:10040A006D703D252E316620432C2068756D696418
:10041A006974793D252E3166252520524800506F92
:10042A0077657220746F206169722070756D702013
:10043A006F6E00506F77657220746F206169722049
:10044A0070756D70206F6666006D65746800736301
:09045A006433300070756D700010
:100463002A2A2A2A2A2A2A2A204D657468616E6557
:100473002053656E736F722076312E30202A2A2A1C
:100483002A2A2A2A2A0053657474696E67206D6FBD
:1004930064756C65732075702E2E2E20506C65610B
:1004A30073652077616974004661696C65642074C3
:1004B3006F20696E697469616C697A6520737973F9
:1004C30074656D2E2E2E004E6F742076616C6964F8
:1004D3000057726F6E6720666F726D6174002A2A0F
:1004E3002A2A2A2A2A20526561647920666F72209B
:1004F3006E657720636F6D6D616E64202A2A2A2AE8
:0C0503002A2A2A00457869742E2E2E004A
:10050F006578697400627265616B00726561640081
:10051F002A2A2A2A2A2A2A20596F752061726520D1
:10052F006469726563746C7920636F6E6E65637452
:10053F00656420746F20524E32343833202A2A2AB1
:10054F002A2A2A2A2A002D2D3E2573006272656100
:10055F006B2030783535006E756C6C00436C6F73A3
:10056F00696E6720636F6E6E656374696F6E20745A
:10057F006F20524E323438332E2E2E006C6F726134
:01058F00006B
:1005900025303278000D0A0073797320736C65651D
:1005A0007000257320256C64002573202573006D71
:1005B00061632073657420646576657569006D619B
:1005C000632073657420617070657569006D616387
:1005D00020736574206170706B6579006F666600CA
:1005E0006D61632073657420616472006F6E006DCD
:1005F000616320747820636E660025732025752062
:030600002573005F
:10060300524E32343833006E6F207265706C792E1F
:030613002E2E0088
:08061600696E66006E616E0062
:05061E0046000002E3AC
:05062300001000008141
:020628000300CD
:01062A0002CD
:10062C00A4E1B0E0ECE1F3E00C94B51E6C011A010E
:10063C00462E5901FC0110861782848181FF62C30A
:10064C00CE0101969D878C87A0E88A8B9B8BAC8B07
:10065C00F101849147FC8081882309F44FC3442D18
:10066C0091012F5F3F4F4F4F853219F01901442EE6
:10067C000AC0F901849147FD808192E0290E311C5A
:10068C00411C853249F4B60190E00E94F916BF86F0
:10069C00AE86AE84BF84DCCF10E0F12C00E00032DB
:1006AC00A0F48B3269F030F4803259F0833269F463
:1006BC0000612CC08D3239F0803339F4016026C0D2
:1006CC000260046023C0086021C007FD29C090EDC2
:1006DC00980F9A3078F406FF06C0AAE01A9F900D86
:1006EC001124192F13C0EAE0FE9E900D1124F92E4F
:1006FC0000620CC08E3221F406FD00C3006406C0FB
:10070C008C3611F4006802C0883651F4F1018491E2
:10071C0047FC8081FFEF2F1A3F0A4F0A8111BFCF90
:10072C009BEB980F933018F40061805E06C09BE938
:10073C00980F933008F066C10F7E06FF16E00F731A
:10074C00702E853621F4202F2064722E08C0863638
:10075C0021F4802F8068782E02C01111115077FE81
:10076C0007C01C3350F4EE24E394E10E27E00BC0D9
:10077C00183038F027E017E005C027E06CE3E62ED0
:10078C0002C0212FE12CF5013496FF87EE87F5018D
:10079C0060817181828193810E2DAE014F5F5F4F1D
:1007AC000E94770A5C01598050FE02C053FE06C0BD
:1007BC0071FC06C072FE06C000E205C00DE203C06B
:1007CC000BE201C000E0852D8C7019F0011173C291
:1007DC00BEC277FE0FC0EA0C54FE04C08A8181337E
:1007EC0009F4EA941E1474F528E02E1578F538E017
:1007FC00E32E2CC076FC2AC0812F90E08A159B0535
:10080C009CF08CEFA8168FEFB80674F0972D9068BB
:10081C00792E0AC0E2E0F0E0EC0FFD1FE10FF11DB4
:10082C008081803319F411501111F4CF77FE0EC072
:10083C00EE24E394E10E812F90E0A816B9062CF477
:10084C001A1904C0EE24E39401C010E077FE06C030
:10085C001A141B0434F4C501019605C085E090E020
:10086C0002C081E090E001110196112331F0212F9B
:10087C0030E02F5F3F4F820F931F2F2D30E08217F8
:10088C00930714F4F81A01C0F12C872D897049F4E0
:10089C00FF2039F0B60180E290E00E94F916FA943C
:1008AC00F7CF002329F0B601802F90E00E94F916B3
:1008BC0073FC09C0FF2039F0B60180E390E00E9480
:1008CC00F916FA94F7CF77FE49C03501B7FE02C08E
:1008DC00612C712CC5018619970988248394912C5D
:1008EC008C0E9D1E880E991EF501EE19F109F98BDF
:1008FC00E88B012F10E0119501951109FFEF6F1690
:10090C007F0629F4B6018EE290E00E94F916A61437
:10091C00B70444F088899989861597051CF4F4016D
:10092C00818101C080E3F1E06F1A71082FEF821A08
:10093C00920A601671062CF0B60190E00E94F9162E
:10094C00DDCFA614B70439F49A81963318F4953395
:10095C0011F454FE81E3B60190E051C08A818133D9
:10096C0019F0952D9F7E592EB60190E00E94F91634
:10097C00111105C074FC1CC085E690E01BC0B601CB
:10098C008EE290E00E94F91602E0010F82E011E085
:10099C00180FE1E0F0E0EC0FFD1FE80FF11D808176
:1009AC00B60190E00E94F916812F1013F0CFE2CF20
:1009BC0085E490E0B6010E94F916B7FC05C0A114BD
:1009CC00B10439F454FE05C0B194A194B1088DE280
:1009DC0001C08BE2B60190E00E94F91680E3EAE0D8
:1009EC00AE16B1042CF08F5FAAE0AA1AB108F7CFAB
:1009FC00B60190E00E94F916B601C501C0960E949E
:100A0C00F91672C1833631F0833791F0833509F0D2
:100A1C005DC024C0C50102969F878E87F501808139
:100A2C0089836A887B888C88AA24A394B12C14C0EF
:100A3C00C50103969F878E87F50160807180828047
:100A4C0006FF03C0412F50E002C04FEF5FEF882D2F
:100A5C00B3010E94071F5C010F7715C0C5010396F7
:100A6C009F878E87F50160807180828006FF03C0AE
:100A7C00412F50E002C04FEF5FEF882DB3010E9471
:100A8C00071F5C01006803FD1DC08F2D90E0A816A8
:100A9C00B906C0F4B60180E290E00E94F916FA940F
:100AAC00F4CFF301849187FC8081FFEF6F1A7F0AEA
:100ABC008F0AB60190E00E94F916F110FA9421E029
:100ACC00A21AB108A114B10461F70EC1843611F059
:100ADC00893679F5C50107FF09C004969F878E8773
:100AEC00F50160817181828193810AC002969F8792
:100AFC008E87F50160817181072E000C880B990B94
:100B0C000F76E02E97FF0AC09095809570956195B1
:100B1C007F4F8F4F9F4FF02FF068EF2E2AE030E081
:100B2C00AE014F5F5F4F0E94BF12A82E2C85A21AF8
:100B3C004BC0853729F40F7EE02E2AE030E025C02B
:100B4C00902F997FE92E8F36C1F018F4883579F003
:100B5C00D5C0803719F0883721F0D0C0A92FA061FB
:100B6C00EA2EE4FE0DC0EE2DE460EE2E09C004FF6B
:100B7C000AC0F92FF660EF2E06C028E030E005C061
:100B8C0020E130E002C020E132E0C501E7FE09C0FF
:100B9C0004969F878E87F501608171818281938194
:100BAC0008C002969F878E87F5016081718180E075
:100BBC0090E0AE014F5F5F4F0E94BF12A82EFC85E4
:100BCC00AF1A2E2D2F77E22EE6FE0BC00E2D0E7FC8
:100BDC00A11650F4E4FE0AC0E2FC08C00E2D0E7EF5
:100BEC0005C0BA2C0E2D03C0BA2C01C0B12E04FFC7
:100BFC000DC0FE01EA0DF11D8081803311F4097ED8
:100C0C0009C002FF06C0B394B39404C0802F867849
:100C1C0009F0B39403FD11C000FF06C0BF1488F4A3
:100C2C00FA0C1F2D1B190EC0BF1460F4B60180E224
:100C3C0090E00E94F916B394F7CFBF1418F4FB1888
:100C4C0002C01A2DF12C04FF10C0B60180E390E015
:100C5C000E94F91602FF17C001FD03C088E790E05F
:100C6C0002C088E590E0B6010CC0802F867859F060
:100C7C0001FF02C08BE201C080E207FD8DE2B601EC
:100C8C0090E00E94F916A11638F4B60180E390E0CA
:100C9C000E94F9161150F7CFAA94E1E0F0E0EC0FA6
:100CAC00FD1FEA0DF11D8081B60190E00E94F9163E
:100CBC00A110F2CF19C0F4E0FF1580F584E0F81A0A
:100CCC0073FE23C001112BC053FE2FC05AE1852E99
:100CDC0056E0952E50E0A52E072D0071F40184915D
:100CEC00A7FC8081811128C0FF2009F4D2CCB60169
:100CFC0080E290E00E94F916FA94F6CFF601878113
:100D0C0090852CC08FEF9FEF29C0B60180E290E058
:100D1C000E94F916FA94F110F8CFD4CFF12CB60149
:100D2C00802F90E00E94F916CFCF46E1842E46E04A
:100D3C00942E40E0A42ED0CF01118052B60190E049
:100D4C000E94F916FFEF8F1A9F0AAF0AC7CF23E054
:100D5C002F1510F483E0B3CFF12CB6CF6496E2E1FB
:040D6C000C94EC1ED9
:100D70002F923F924F925F926F927F928F92AF929B
:100D8000BF92CF92DF92EF920F931F93CF93DF9397
:100D900000D000D000D0CDB7DEB73B01882E5A017D
:100DA00019014115510521F0FA0160837183828395
:100DB0002114310429F0C1010297839708F01AC168
:100DC000E82C6301FFEFCF1ADF0AEF0AF301149159
:100DD00087FC1081812F90E00E9433224C2D3D2D05
:100DE0002E2D892B19F036018E2CEACF1D3269F495
:100DF000E82C630152E0C50ED11CE11CE42FF32F57
:100E0000149127FD108101E00EC01B3259F4E82C2B
:100E1000630182E0C80ED11CE11CE42FF32F149172
:100E200027FD108100E02114310409F190E1291619
:100E3000310429F43FC010E32114310421F1F8E01A
:100E40002F16310401F154F432E02316310421F558
:100E5000412C512C612C50E4752E4BC04AE02416D5
:100E6000310439F050E125163104B1F43DC010339E
:100E700019F13AE0232E312C4CEC442E542C642CE6
:100E80004CE0742E36C098E0292E312C412C512C88
:100E9000612C20E1722E2DC060E070E080E090E8CF
:100EA0009101032C000C440B550B0E94641D290179
:100EB0003A011FC01033C1F4F6018491E7FC808130
:100EC0008F7D883509F0B7CFAE2DC6010196A11DE3
:100ED000FC011491A7FD1081E2E0CE0ED11CE11CB3
:100EE000026060E1262E312C412C512C612C88E0CF
:100EF000782EA0E060E070E0CB019101032C000CA3
:100F0000440B550B29833A834B835C83E0EDE10F5F
:100F1000EA3060F02FEB210F2A3110F4E9EC05C024
:100F20002FE9210F2A3150F5E9EAE10F2E2F30E0A9
:100F3000221533051CF5A7FD18C04616570668068E
:100F4000790680F029813A814B815C810E941721CA
:100F50006E0F711D811D911D61307105810530E895
:100F6000930710F0AFEF01C0A1E0F6011491E7FC88
:100F700010814FEFC41AD40AE40AC8CF202F217081
:100F8000A114B104B1F0AA2349F051E0C51AD10867
:100F9000E108F501C082D182E2820BC001FF1DC0D1
:100FA000F2E0CF1AD108E108F501C082D182E282D5
:100FB00014C0A7FF12C0222329F060E070E080E097
:100FC00090E804C06FEF7FEF8FEF9FE722E230E001
:100FD0003093B7042093B60409C0222381F0909582
:100FE0008095709561957F4F8F4F9F4F462F372F7C
:100FF000282F12C040E030E020E090E00DC097FFC5
:10100000F5CF82E290E09093B7048093B6046FEF3F
:101010007FEF8FEF9FE7EACF642F732F822F269603
:101020000FB6F894DEBF0FBECDBFDF91CF911F91F9
:101030000F91EF90DF90CF90BF90AF908F907F9007
:0C1040006F905F904F903F902F900895AC
:10104C00CF92DF92EF92FF920F931F93CF93DF9388
:10105C00CDB7DEB768970FB6F894DEBF0FBECDBF25
:10106C006B01E82EF42E052F21E0AE014F5F5F4F90
:10107C000E94BB14182F882309F423C18E2DB601AE
:10108C000E94541A823009F41BC1CE0101966C01E6
:10109C0020E8E22E26ED32E040E08E2DB6010E94D3
:1010AC00C81D892B29F48F2D902F0E94B81F09C1C0
:1010BC002DED32E040E08E2DB6010E94C81D892B2B
:1010CC0029F48F2D902F0E94D01FFBC024EE32E00C
:1010DC0040E08E2DB6010E94C81D892B29F48F2D5E
:1010EC00902F0E94E81FEDC02BEE32E040E08E2DD9
:1010FC00B6010E94C81D892BE1F4CE0145960E94D1
:10110C002721888D8F938F898F938E898F938D89CB
:10111C008F9380EF92E0A0E0AF939F938F930F9308
:10112C00FF920E94FD1C0FB6F894DEBF0FBECDBF20
:10113C00C8C025EF32E040E08E2DB6010E94C81DDC
:10114C00892BE1F4CE0145960E943621888D8F9330
:10115C008F898F938E898F938D898F9380EF92E0F7
:10116C00A0E0AF939F938F930F93FF920E94FD1C6F
:10117C000FB6F894DEBF0FBECDBFA3C02AEF32E08E
:10118C0040E08E2DB6010E94C81D892BE1F4CE01E2
:10119C0045960E944521888D8F938F898F938E89D8
:1011AC008F938D898F9380EF92E0A0E0AF939F9304
:1011BC008F930F93FF920E94FD1C0FB6F894DEBF25
:1011CC000FBECDBF7EC02FEF32E040E08E2DB601BA
:1011DC000E94C81D892B29F48F2D902F0E9461121B
:1011EC0070C024E033E040E08E2DB6010E94C81D93
:1011FC00892BA1F40E94E0221F928F938EE093E042
:10120C00A0E0AF939F938F930F93FF920E94FD1CCE
:10121C000FB6F894DEBF0FBECDBF53C020E233E053
:10122C0040E08E2DB6010E94C81D892BA1F40E94AE
:10123C00EC229F938F938BE293E0A0E0AF939F936C
:10124C008F930F93FF920E94FD1C0FB6F894DEBF94
:10125C000FBECDBF36C02EE333E040E08E2DB6017D
:10126C000E94C81D892BA1F40E94F8221F928F9313
:10127C008AE493E0A0E0AF939F938F930F93FF9238
:10128C000E94FD1C0FB6F894DEBF0FBECDBF19C077
:10129C0029E633E040E08E2DB6010E94C81D892B53
:1012AC0029F48F2D902F0E9406150BC026E130E0FB
:1012BC004EE653E060E08F2D902F0E94871F01C0F7
:1012CC0010E0812F68960FB6F894DEBF0FBECDBF2D
:1012DC00DF91CF911F910F91FF90EF90DF90CF9006
:0212EC00089563
:1012EE006F927F928F92AF92BF92CF92DF92EF92D8
:1012FE001F93CF93DF93CDB7DEB764970FB6F894F5
:10130E00DEBF0FBECDBF3B01882E5A0121E0AE01DC
:10131E004F5F5F4F0E94BB14182F882309F4CDC076
:10132E00CE0101966C0120E8E22E26ED32E040E07F
:10133E008E2DB6010E94C81D892B39F4A501882D6A
:10134E00B3010E944516182FB8C02DED32E040E0D3
:10135E008E2DB6010E94C81D892B39F4A501882D4A
:10136E00B3010E948116182FA8C024EE32E040E08F
:10137E008E2DB6010E94C81D892B39F4A501882D2A
:10138E00B3010E94BD16182F98C02BEE32E040E03C
:10139E008E2DB6010E94C81D892B39F4A501882D0A
:1013AE00B3010E94671B182F88C025EF32E040E082
:1013BE008E2DB6010E94C81D892B39F4A501882DEA
:1013CE00B3010E948D1B182F78C02AEF32E040E047
:1013DE008E2DB6010E94C81D892B39F4A501882DCA
:1013EE00B3010E94B31B182F68C02FEF32E040E00C
:1013FE008E2DB6010E94C81D892B39F4A501882DAA
:10140E00B3010E94030E182F58C024E033E040E0D1
:10141E008E2DB6010E94C81D892B39F4A501882D89
:10142E00B3010E94D91B182F48C020E233E040E0E0
:10143E008E2DB6010E94C81D892B39F4A501882D69
:10144E00B3010E947D1A182F38C02EE333E040E01E
:10145E008E2DB6010E94C81D892B39F4A501882D49
:10146E00B3010E94FF1B182F28C024E833E040E090
:10147E008E2DB6010E94C81D892B39F4A501882D29
:10148E00B3010E94B010182F18C029E633E040E0D7
:10149E008E2DB6010E94C81D892B39F4A501882D09
:1014AE00B3010E943110182F08C026E130E04EE63D
:1014BE0053E060E0C5010E94871F812F64960FB62E
:1014CE00F894DEBF0FBECDBFDF91CF911F91EF908D
:1014DE00DF90CF90BF90AF908F907F906F900895D8
:1014EE00283008F027E03327DA01990F311D87FDE8
:1014FE00916000966105710539F432602E5F3D935F
:10150E0030E32A95E1F708959F3F30F0803871055A
:10151E00610509F03C5F3C5F3D93913008F08068B7
:10152E00911DDF93CF931F930F93FF92EF92192F7D
:10153E00987F9695E92F96959695E90FFF27E25F8E
:10154E00FE4F99273327EE24FF24A701E7010590CC
:10155E000894079428F4360FE71EF81E491F511DF4
:10156E00660F771F881F991F0694A1F705900794A1
:10157E0028F4E70EF81E491F561FC11D770F881F4E
:10158E00991F661F0694A1F70590079428F4F80E8C
:10159E00491F561FC71FD11D880F991F661F771F22
:1015AE000694A1F70590079420F4490F561FC71F04
:1015BE00D81F990F661F771F881F0694A9F784916D
:1015CE001095177041F0D695C79557954795F79496
:1015DE00E7941A95C1F7E4EBF0E068941590159135
:1015EE0035916591959105907FE27395E118F10A19
:1015FE00430B560BC90BD009C0F7E10CF11E431F6C
:10160E00561FC91FD01D7EF4703311F48A95E6CF94
:10161E00E894015030F0080F0AF40027021708F47E
:10162E00202F2395022F7A3328F079E37D932A9584
:10163E00E9F710C07D932A9589F6069497956795DC
:10164E00379517951794E118F10A430B560BC90BF2
:10165E00D00998F023957E9173957A3308F070E354
:10166E007C932013B8F77E9170617D9330F0839553
:10167E0071E37D9370E32A95E1F71124EF90FF90CB
:10168E000F911F91CF91DF91992787FD9095089526
:10169E009F92AF92BF92CF92DF92EF92FF920F93F3
:1016AE001F93CF93DF93CDB7DEB72E970FB6F89477
:1016BE00DEBF0FBECDBF942EA52E22E04FE756E023
:1016CE000E94BB14B82E882309F492C08FE796E0CF
:1016DE006C0120E8E22E2AE833E040E08E2DB601C0
:1016EE000E94C81D892B79F40E945C2281E00E9421
:1016FE00DA2128E130E04DE853E060E0892D9A2DA3
:10170E000E94871F75C025EA33E040E08E2DB6019A
:10171E000E94C81D892B79F40E945C2280E00E94F1
:10172E00DA2129E130E049EA53E060E0892D9A2D73
:10173E000E94871F5DC022EC33E040E08E2DB60183
:10174E000E94C81D892B09F04AC019861A861B866D
:10175E001C861D821E821F82188619821A821B8287
:10176E001C82CE0109960E944521CE0105960E944B
:10177E003621CE0101960E942721E980FA800B8145
:10178E001C812D813E814F81588569857A858B8597
:10179E009C850E94A71DCE010D960E94AA19882332
:1017AE0051F028E130E047EC53E060E0892D9A2DAE
:1017BE000E94871F1DC08E858F938D858F938FED11
:1017CE0093E0A0E0AF939F938F93AF929F920E946E
:1017DE00FD1C0FB6F894DEBF0FBECDBF09C026E1CB
:1017EE0030E046EE53E060E0892D9A2D0E94871F6F
:1017FE008B2D2E960FB6F894DEBF0FBECDBFDF91A8
:10180E00CF911F910F91FF90EF90DF90CF90BF90EF
:06181E00AF909F900895B9
:101824006F927F928F92CF92DF92EF92CF93DF935A
:10183400C0E0EC2FF0E0E730F105D8F7E65BFF4FAE
:101844000C940A230E94E91D0E942F230E94522314
:101854006FE175E080E00E942514C1E0EACF0E94A8
:101864007F22882331F382E594E00E948720C2E03E
:10187400E0CF82E594E00E944F18C82FDACF82E5CA
:1018840094E06C0120E8E22E2F93DF928F9385E59C
:1018940095E0A0E0AF939F938F93CAE8D3E0DF93E2
:1018A400CF930E94FD1C3E0120E8822E882DB301B7
:1018B4000E942514AE016C2D7D2D8E2D0E94552382
:1018C400882DB3010E9425148DB79EB708960FB6D4
:1018D400F8949EBF0FBE8DBFC1E0ABCF8BE595E002
:1018E400A0E0AF939F938F9385E595E0A0E0AF933D
:1018F4009F938F93CAE8D3E0DF93CF930E94FD1C9C
:10190400BE0180E80E9425148FE798E321E081500E
:1019140090402040E1F700C000000E9458238DB79A
:101924009EB708960FB6F8949EBF0FBE8DBFC1E058
:1019340080CF0E947822882329F08AE893E00E94CD
:10194400732009C025E030E046E655E060E08AE80F
:1019540093E00E94871F6AE873E080E80E942514E0
:10196400C1E067CF0E941B236BE675E080E00E9414
:10197400251481E0DF91CF91EF90DF90CF908F908D
:061984007F906F900895B2
:10198A000F931F93CF93DF93CDB7DEB727970FB689
:10199A00F894DEBF0FBECDBF8C0121E04AE256E0CB
:1019AA0060E081E50E940C2281117CC047E0BE0103
:1019BA006F5F7F4F81E50E94A01F811175C0298149
:1019CA00822F8F7790E09595879595958795959530
:1019DA00879595958795880F982F990F990F890F55
:1019EA002F70820FF80180832A81822F8F7790E0EF
:1019FA0095958795959587959595879595958795C5
:101A0A00880F982F990F990F890F2F70820F818352
:101A1A002B81822F8F7390E0959587959595879561
:101A2A009595879595958795880F982F990F990F72
:101A3A00890F2F70820F82832C81822F8F7390E0FF
:101A4A009595879595958795959587959595879574
:101A5A00880F982F990F990F890F2F70820F838300
:101A6A002E81822F8F7190E0959587959595879510
:101A7A009595879595958795880F982F990F990F22
:101A8A00890F2F70820F84838F81982F92959F7070
:101A9A00990F292F220F220F920F8F70890F85839A
:101AAA0080E003C082E001C082E027960FB6F89476
:101ABA00DEBF0FBECDBFDF91CF911F910F91089569
:101ACA00CF930E94071EC0E00DC0C2E00BC0C5E064
:101ADA0009C0C6E007C0C5E005C0C5E003C0C5E04F
:101AEA0001C0C5E0EC2FF0E0EC30F105D8F7E25C7C
:101AFA00FF4F0C940A2363E674E080E00E942514E9
:101B0A0069E874E080E00E9425140E94F7200E9490
:101B1A009B208111DACF6BEA74E080E00E942514E1
:101B2A00C4E0E0CF0E947F228111C3E00E94862296
:101B3A008111CDCFD7CF82E594E00E94872082E53C
:101B4A0094E00E94D519882321F282E594E00E944C
:101B5A000020C82FC7CF62E574E080E84AE853E066
:101B6A000E942608882309F4B6CFCBE0BBCF62E5F2
:101B7A0074E080E84AE853E00E947709882309F470
:101B8A00ACCFCBE0AFCF62E574E080E80E942A1ABE
:101B9A00882309F4A4CFC2E0A5CF62E574E080E807
:101BAA004AE853E00E941D13882309F49ACFCBE038
:101BBA0099CF6AE873E080E80E942514C2E092CFC8
:101BCA006AEC74E080E00E942514C2E08BCF64EDD9
:101BDA0074E080E00E942514C2E084CF0E94202392
:101BEA0061EE74E080E00E942514C1E07BCF67E0DB
:0C1BFA0075E080E00E942514CF91089552
:101C06004F925F926F927F928F92AF92BF92CF92D6
:101C1600DF92EF92FF920F931F93CF93DF93CDB78F
:101C2600DEB7A3970FB6F894DEBF0FBECDBF3B015C
:101C3600882E5A0122E044EE55E00E94BB14182F6C
:101C4600882309F45DC084EE95E06C0120E8E22E5D
:101C56008E2DB6010E944B230FEF080F073008F0B8
:101C66004AC023E044EE55E0882DB3010E94BB1420
:101C7600182F882309F444C08E2DB6010E944B23E9
:101C86002C0102978B329140C0F524E044EE55E0DA
:101C9600882DB3010E94BB14182F882389F18E2D3D
:101CA600B6010E944B236C0102978735924038F5A6
:101CB60063E2CE0101967C010E944D22802F90E0C6
:101CC600FC01EE0FFF1FEE0FFF1FE80FF91FEE0DD1
:101CD600FF1D51824082D382C282B70180E843E26F
:101CE6000E94A22228E030E041E552E060E0C50112
:101CF6000E94871F05C010E003C010E001C010E07D
:101D0600812FA3960FB6F894DEBF0FBECDBFDF912D
:101D1600CF911F910F91FF90EF90DF90CF90BF90E2
:0E1D2600AF908F907F906F905F904F900895D8
:101D3400BF92CF92DF92EF92FF920F931F93CF93B4
:101D4400DF9300D000D000D0CDB7DEB7F42E052F3E
:101D540022E04FE756E00E94BB14182F882309F4B1
:101D640062C06FE776E080E822EC33E040E00E9456
:101D7400C81D892B09F04EC0AE014F5F5F4FBE01F5
:101D84006D5F7F4FCE0105960E946E1F882351F030
:101D940028E130E047EC53E060E08F2D902F0E9463
:101DA400871F41C06B817C8180E090E00E94CC154C
:101DB40020E030E040E251E40E944323E62ED72E97
:101DC400C82EB92E69817A8180E090E00E94CC15FA
:101DD40020E030E040E251E40E9443239F938F933C
:101DE4007F936F93BF92CF92DF92EF928E818F9306
:101DF4008D818F938CEF93E0A0E0AF939F938F93AB
:101E04000F93FF920E94FD1C0FB6F894DEBF0FBE25
:101E1400CDBF09C026E130E046EE53E060E08F2DEF
:101E2400902F0E94871F812F26960FB6F894DEBF4D
:101E34000FBECDBFDF91CF911F910F91FF90EF9017
:081E4400DF90CF90BF900895DC
:101E4C00CF92DF92EF92FF920F931F93CF93DF937A
:101E5C00CDB7DEB762970FB6F894DEBF0FBECDBF1D
:101E6C008C017B016A018FEF9FEFF80191838083D6
:101E7C00FB0191838083FA01918380830E94162356
:101E8C0081110DC08EEF9FEFF80191838083F701D4
:101E9C0091838083F6019183808383E04DC022E09F
:101EAC0048E256E060E081E60E94802181113BC04F
:101EBC008FE39FE10197F1F700C0000042E1BE0102
:101ECC006F5F7F4F81E60E943C1F81112EC0CE01B7
:101EDC0001960E94551F882351F161E0CE010196B5
:101EEC000E94EE18F80191838083CE0107960E9420
:101EFC00551F8823F1F06AE0CE0107960E94EE1878
:101F0C00F70191838083CE010D960E94551F882383
:101F1C0091F06AE0CE010D960E94EE18F6019183C5
:101F2C00808380E009C081E007C081E005C081E0CA
:101F3C0003C081E001C081E062960FB6F894DEBF69
:101F4C000FBECDBFDF91CF911F910F91FF90EF90FE
:061F5C00DF90CF90089514
:101F62001F93CF93DF9300D000D000D0CDB7DEB760
:101F7200F9013DEC439F212D1124269526952695A6
:101F820010E1219FD0011124220FB22FBB0FBB0FF2
:101F92002B0F421B4A2B4083539F212D1124269540
:101FA2002695269540E1249FD0011124220F422F2D
:101FB200440F440F240F521B5A2B5183639F412D10
:101FC200112446954695469510E1419FD001112472
:101FD200440F242F220F220F420F641B6A2B6283AD
:101FE200739F412D112446954695469520E1429FC7
:101FF200D0011124440F242F220F220F420F741BF1
:102002007A2B7383839F412D1124469546954695DD
:1020120010E1419FB0011124440F242F220F220FFF
:10202200420F841B862B8483939F312D1124369576
:102032003695369520E1329FA0011124330F832F6C
:10204200880F880F380F931B942B958326960FB613
:10205200F894DEBF0FBECDBFDF91CF911F910895DF
:102062006F927F928F92DF92EF92FF920F931F9364
:10207200CF93DF9300D000D000D0CDB7DEB73B01C5
:10208200882E7A010E942A2222E044EE55E0882D11
:10209200B3010E94BB14182F882309F44EC064EECA
:1020A20075E080E80E945D20419749F025E230E02A
:1020B2004EE952E060E0C7010E94871F3EC060E027
:1020C20084EE95E00E94221F882E63E084EE95E064
:1020D2000E94221F782E66E084EE95E00E94221F65
:1020E200682E69E084EE95E00E94221F082F6CE0C2
:1020F20084EE95E00E94221FD82E6FE084EE95E0D8
:102102000E94221F482F5D2D602F762D872D982D3E
:102112000E94BA18882349F023E130E043EC52E0F0
:1021220060E0C7010E94871F08C028E030E041E557
:1021320052E060E0C7010E94871F812F26960FB6EA
:10214200F894DEBF0FBECDBFDF91CF911F910F91EB
:0E215200FF90EF90DF908F907F906F90089538
:102160000F931F93CF93DF93CDB7DEB7A3970FB62F
:10217000F894DEBF0FBECDBF8A0169E572E080E052
:102180000E94421E69E572E080E00E945F1E6AE6DE
:1021900072E080E00E947C1E60E070E080E89FE3D7
:1021A0000E948D2260E070E48CE195E40E9494220C
:1021B00060E070E080EA90E40E949B2282E00E944E
:1021C000DA2285E090E00E94E62286E00E94F22278
:1021D00080E01AC0E82FF0E09F01220F331F220F8A
:1021E000331FE20FF31F21E030E02C0F3D1FE20F01
:1021F000F31F92E0948322E030E03183208323E0D8
:1022000030E0338322838F5F873020F3BE016F5F1E
:102210007F4F80E843E20E94A22223E130E04BE8B6
:1022200052E060E0C8010E94871F81E0A3960FB6CC
:10223000F894DEBF0FBECDBFDF91CF911F910F91FC
:022240000895FF
:1022420010C00E94B72258F00E94B02240F029F438
:102252005F3F29F00C94042351110C94BF220C947B
:102262005B230E94201D68F39923B1F3552391F358
:10227200951B550BBB27AA2762177307840738F0F3
:102282009F5F5F4F220F331F441FAA1FA9F335D050
:102292000E2E3AF0E0E832D091505040E695001C04
:1022A200CAF72BD0FE2F29D0660F771F881FBB1FBE
:1022B200261737074807AB07B0E809F0BB0B802D9C
:1022C200BF01FF2793585F4F3AF09E3F510578F0C8
:1022D2000C9404230C94BF225F3FE4F3983ED4F3A2
:1022E200869577956795B795F7959F5FC9F7880F9C
:1022F200911D9695879597F90895E1E0660F771FEE
:10230200881FBB1F621773078407BA0720F0621B7E
:0E231200730B840BBA0BEE1F88F7E09508954D
:102320000FC00E94B02238F00E94B72220F09523FF
:1023300011F00C9404230C945B2311240C94BF2201
:102340000E94201D70F3959FC1F3950F50E0551F1B
:10235000629FF001729FBB27F00DB11D639FAA27FA
:10236000F00DB11DAA1F649F6627B00DA11D661F49
:10237000829F2227B00DA11D621F739FB00DA11D6A
:10238000621F839FA00D611D221F749F3327A00D24
:10239000611D231F849F600D211D822F762F6A2FC0
:1023A00011249F5750409AF0F1F088234AF0EE0F25
:1023B000FF1FBB1F661F771F881F91505040A9F752
:1023C0009E3F510580F00C9404230C94BF225F3F84
:1023D000E4F3983ED4F3869577956795B795F7958E
:1023E000E7959F5FC1F7FE2B880F911D9695879506
:0423F00097F90895BC
:1023F40011C00E94B02238F00E94B72220F039F4B4
:102404009F3F19F426F40C945B230EF4E095E7FB4C
:102414000C940423E92F0E94201D58F3BA17620775
:1024240073078407950720F079F4A6F50C94BE226F
:102434000EF4E0950B2EBA2FA02D0B01B9019001DB
:102444000C01CA01A0011124FF27591B99F0593F1F
:1024540050F4503E68F11A16F040A22F232F342F67
:102464004427585FF3CF469537952795A795F040B5
:102474005395C9F77EF41F16BA0B620B730B840BCA
:10248400BAF09150A1F0FF0FBB1F661F771F881F82
:10249400C2F70EC0BA0F621F731F841F48F48795DA
:1024A40077956795B795F7959E3F08F0B0CF9395CC
:0E24B400880F08F09927EE0F979587950895E9
:1024C200CF92DF92EF92FF921F93CF93DF93CDB71C
:1024D200DEB7A3970FB6F894DEBF0FBECDBF7C0167
:1024E20063E2CE0101960E944D22F701108210E0B4
:1024F20035C0812F90E0FC01EE0FFF1FEE0FFF1F92
:10250200E80FF91F21E030E02C0F3D1FE20FF31F0F
:1025120023812F9322812F9321812F9320812F9327
:1025220001969F938F9382E092E0A0E0AF939F93F6
:102532008F930F2EF4EECF2EF5E0DF2EF02DDF92EB
:10254200CF920E94FD1CA60160E8C7010E944620AE
:102552001F5F0FB6F894DEBF0FBECDBF173048F233
:10256200A3960FB6F894DEBF0FBECDBFDF91CF9119
:0C2572001F91FF90EF90DF90CF90089534
:10257E00FA01AA27283051F1203181F1E8946F93A6
:10258E006E7F6E5F7F4F8F4F9F4FAF4FB1E03ED04C
:10259E00B4E03CD0670F781F891F9A1FA11D680FEA
:1025AE00791F8A1F911DA11D6A0F711D811D911D1D
:1025BE00A11D20D009F468943F912AE0269F112492
:1025CE003019305D3193DEF6CF010895462F4770F6
:1025DE00405D4193B3E00FD0C9F7F6CF462F4F7051
:1025EE00405D4A3318F0495D31FD4052419302D0AF
:1025FE00A9F7EACFB4E0A695979587957795679555
:10260E00BA95C9F700976105710508959B01AC0154
:10261E000A2E06945795479537952795BA95C9F77B
:0C262E00620F731F841F951FA01D0895EC
:10263A006F927F928F92CF92DF92EF920F931F93B6
:10264A00CF933B01882E8A0121E04FE756E00E9492
:10265A00BB14C82F8823E9F18FE796E06C0120E8C4
:10266A00E22E23E534E040E08E2DB6010E94C81D1B
:10267A00892B39F4A801882DB3010E944F0BC82F6A
:10268A0028C028E534E040E08E2DB6010E94C81D1E
:10269A00892B39F4A801882DB3010E949A0EC82FFC
:1026AA0018C02EE534E040E08E2DB6010E94C81D08
:1026BA00892B39F4A801882DB3010E94D313C82F9E
:1026CA0008C026E130E046EE53E060E0C8010E940F
:1026DA00871F8C2FCF911F910F91EF90DF90CF9092
:0826EA008F907F906F9008951E
:1026F200CF92DF92EF92FF920F931F93CF93DF93CC
:102702006C0110E008C0CC0DDD1D88818E3211F401
:102712001F5F0CC01F5FC12FD0E0B60180E80E948E
:102722005D200197C817D90770F310E0112371F1EA
:10273200C10ED11C80E8E82E8E2DB6010E945D20CC
:10274200C82F8E2DB6010E944B238C010F2EC12C57
:10275200D12CF0E8EF2EFFE3FF2EF02D0BC020E08E
:1027620030E040E251E4C701B6010E9447236B0109
:102772007C01C150C111F3CFB80180E090E00E940A
:10278200CC15A70196010E94432303C060E070E0CC
:10279200CB01DF91CF911F910F91FF90EF90DF90CE
:0427A200CF90089537
:1027A600CF92DF92EF920F931F93CF938A0122E08D
:1027B6004FE756E00E94BB14C82F8823D9F18FE754
:1027C60096E06C0120E8E22E2AE833E040E08E2D08
:1027D600B6010E94C81D892B71F40E946A2281E00D
:1027E6000E94EE2125E130E048E254E060E0C801B5
:1027F6000E94871F1FC025EA33E040E08E2DB601F8
:102806000E94C81D892B71F40E946A2280E00E94F2
:10281600EE2126E130E04DE354E060E0C8010E947D
:10282600871F08C026E130E046EE53E060E0C801AD
:102836000E94871F8C2FCF911F910F91EF90DF90F1
:04284600CF90089592
:10284A006F927F928F92CF92DF92EF923B01882E06
:10285A008091C5069091C606892BD1F7882DB301C0
:10286A000E945D20BC0120E030E011C0E82C630129
:10287A00C20ED31EE11C37FDEA94F6019491E7FCDF
:10288A009081F901E854FB4F90832F5F3F4F261741
:10289A00370760F3FB01E854FB4F8DE08083FB01AF
:1028AA00E754FB4F8AE080836E5F7F4F7093C606C2
:1028BA006093C50681E090E09093C4068093C306B6
:1028CA008091B8048093CE00EF90DF90CF908F90E4
:0628DA007F906F9008954D
:1028E0008F929F92AF92BF92CF92DF92EF92FF9220
:1028F000BC0180E090E00E94CC1520E030E040E890
:1029000059E30E9447238090B7069090B806A090A4
:10291000B906B090BA06A50194010E9447236B0145
:102920007C019B01AC01C501B4010E94A922A70151
:1029300096010E9443232091B3063091B406409142
:10294000B5065091B6060E9447232091AF063091FC
:10295000B0064091B1065091B2060E9447230E94F2
:102960002219CB01FF90EF90DF90CF90BF90AF90F6
:062970009F908F90089576
:102976008F929F92AF92CF92DF92EF92FF920F9338
:102986001F93CF93DF936B01E82EEA01F22E0E948C
:10299600541A8F1558F18E2DB6010E945D208C01B8
:1029A6004F2D8E2DB6010E94A91790E015C0460145
:1029B600AE2C820E931EA11C37FDAA944A2D9401BB
:1029C600F401249147FD2081203259F0FE01E90FE0
:1029D600F11D20838F5F9F5F282F30E0201731077E
:1029E60030F3C90FD11D188281E001C080E0DF916C
:1029F600CF911F910F91FF90EF90DF90CF90AF9006
:062A06009F908F900895DF
:102A0C000F931F93CF93DF9300D000D000D0CDB79E
:102A1C00DEB7182F092F0E942A22CE0101960E94A0
:102A2C00C50C882351F024E130E048E152E060E02D
:102A3C00812F902F0E94871F21C059814A813B8191
:102A4C002C819D818E811F925F931F924F931F92B9
:102A5C003F931F922F931F929F931F928F938CE201
:102A6C0092E0A0E0AF939F938F930F931F930E94DC
:102A7C00FD1C0FB6F894DEBF0FBECDBF26960FB669
:102A8C00F894DEBF0FBECDBFDF91CF911F910F9198
:022A9C0008959B
:102A9E006F927F928F92CF92DF92EF923B01882EB0
:102AAE008091C1069091C206892BD1F7882DB30172
:102ABE000E945D20BC0120E030E011C0E82C6301D3
:102ACE00C20ED31EE11C37FDEA94F6019491E7FC89
:102ADE009081F901EA56FE4F90832F5F3F4F2617E4
:102AEE00370760F37093C2066093C10681E090E0F1
:102AFE009093C0068093BF06809196018093C60086
:0E2B0E00EF90DF90CF908F907F906F900895A2
:102B1C001F920F920FB60F9211242F933F934F9346
:102B2C005F936F937F938F939F93AF93BF93CF9349
:102B3C00EF93FF938091CD068F5F8093CD0680320B
:102B4C0099F41092CD06C0E00DC0EC2FF0E0EE0F22
:102B5C00FF1FED56F94F0190F081E02D309709F0F1
:102B6C000995CF5FC53088F3FF91EF91CF91BF915D
:102B7C00AF919F918F917F916F915F914F913F9109
:0C2B8C002F910F900FBE0F901F90189516
:102B9800E89409C097FB3EF49095809570956195EF
:102BA8007F4F8F4F9F4F9923A9F0F92F96E9BB27A5
:102BB8009395F695879577956795B795F111F8CF21
:102BC800FAF4BB0F11F460FF1BC06F5F7F4F8F4F8C
:102BD8009F4F16C0882311F096E911C0772321F082
:102BE8009EE8872F762F05C0662371F096E8862F1A
:102BF80070E060E02AF09A95660F771F881FDAF771
:0A2C0800880F9695879597F90895B7
:102C1200CF93DF93EA01AB01682F80E992E00E9433
:102C2200632180E992E00E94722160E972E080E80B
:102C32000E944F151092D4068EEF92E20E94001A63
:102C42008093D3060E947822811104C08091D40619
:102C52008F30C0F38091D3060E94251E8091D40646
:102C62008F3060F02CE030E04AE056E060E0CE01C8
:102C72000E94871FCE010E94732003C0CE010E94D2
:082C82007320DF91CF9108954A
:102C8A00CF92DF92EF920F931F93CF938A0122E0A4
:102C9A0044EE55E00E94BB14C82F882329F184EE24
:102CAA0095E06C0120E8E22E8E2DB6010E945D208F
:102CBA004097C9F48E2DB6010E94421EC82F811179
:102CCA0009C027E030E04AE452E060E0C8010E940F
:102CDA00871F0AC028E030E041E552E060E0C80101
:102CEA000E94871F01C0C0E08C2FCF911F910F91C6
:082CFA00EF90DF90CF900895E8
:102D0200CF92DF92EF920F931F93CF938A0122E02B
:102D120044EE55E00E94BB14C82F882329F184EEAB
:102D220095E06C0120E8E22E8E2DB6010E945D2016
:102D32004097C9F48E2DB6010E945F1EC82F8111E3
:102D420009C027E030E04AE452E060E0C8010E9496
:102D5200871F0AC028E030E041E552E060E0C80188
:102D62000E94871F01C0C0E08C2FCF911F910F914D
:082D7200EF90DF90CF9008956F
:102D7A00CF92DF92EF920F931F93CF938A0122E0B3
:102D8A0044EE55E00E94BB14C82F882329F184EE33
:102D9A0095E06C0120E8E22E8E2DB6010E945D209E
:102DAA008097C9F48E2DB6010E947C1EC82F81110E
:102DBA0009C027E030E04AE452E060E0C8010E941E
:102DCA00871F0AC028E030E041E552E060E0C80110
:102DDA000E94871F01C0C0E08C2FCF911F910F91D5
:082DEA00EF90DF90CF900895F7
:102DF2000F931F93CF93DF93FB01248121FD03C027
:102E02008FEF9FEF2CC022FF16C04781508525818E
:102E120036814217530744F4A081B1819D012F5F8F
:102E22003F4F318320838C93278130852F5F3F4F23
:102E32003087278314C08B01EC01FB010184F285EA
:102E4200E02D0995892BE1F6D80117968D919C9179
:102E52001897019618969C938E931797CE01DF913F
:082E6200CF911F910F9108951B
:102E6A001F920F920FB60F9211242F938F939F9355
:102E7A00EF93FF938091CF0681110EC0E091D006A7
:102E8A00E63950F481E08E0F8093D006F0E080910D
:102E9A00C600E050FF4F80838091D006833080F0D7
:102EAA0090E0FC01E150FF4F20812A3049F4FC01F7
:102EBA00E250FF4F80818D3019F481E08093CF0674
:102ECA00FF91EF919F918F912F910F900FBE0F90CD
:042EDA001F90189598
:102EDE001F920F920FB60F9211242F938F939F93E1
:102EEE00EF93FF938091D10681110EC0E091D2062F
:102EFE00EB3450F481E08E0F8093D206F0E0809197
:102F0E00CE00EC5CF94F80838091D206833080F046
:102F1E0090E0FC01ED5CF94F20812A3049F4FC0170
:102F2E00EE5CF94F80818D3019F481E08093D106EB
:102F3E00FF91EF919F918F912F910F900FBE0F9058
:042F4E001F90189523
:102F5200CF92DF92EF920F931F93CF93DF9344238D
:102F620029F1042F6B01E82EC0E0D0E010E014C07C
:102F7200AE2DC6018C0F9D1FA11DD7FDAA95FC0188
:102F82008491A7FD8081803231F41F5F011303C059
:102F9200CE0101960DC021968E2DB6010E945D20B4
:102FA200C817D90728F380E090E002C080E090E0E3
:102FB200DF91CF911F910F91EF90DF90CF90089505
:102FC2001F920F920FB60F9211242F933F938F935C
:102FD2009F93EF93FF938091BF069091C00620913B
:102FE200C1063091C2068217930770F49C012F5FCD
:102FF2003F4F3093C0062093BF06FC01EA56FE4FB6
:1030020080818093C60008C01092C0061092BF064D
:103012001092C2061092C106FF91EF919F918F917B
:0E3022003F912F910F900FBE0F901F901895A9
:103030001F920F920FB60F9211242F933F938F93ED
:103040009F93EF93FF938091C3069091C4062091C4
:10305000C5063091C6068217930770F49C012F5F56
:103060003F4F3093C4062093C306FC01E854FB4F46
:1030700080818093CE0008C01092C4061092C306CF
:103080001092C6061092C506FF91EF919F918F9105
:0E3090003F912F910F900FBE0F901F9018953B
:10309E00CF92DF92EF920F931F936C0120E8E22EF6
:1030AE0004E010E02FE035E040E08E2DB6010E94E6
:1030BE008518892BC1F005E010E024E135E040E0F1
:1030CE008E2DB6010E948518892B79F004E010E050
:1030DE002AE135E040E08E2DB6010E948518892B3D
:1030EE0031F485E005C086E003C084E001C083E0D2
:0C30FE001F910F91EF90DF90CF9008958C
:10310A00CF92DF92EF920F931F936B01E82E011576
:10311A00110519F101501109F6018491E7FC80812A
:10312A00882399F0F901949147FD9081992369F0D8
:10313A000115110551F0891308C08FEFC81AD80A72
:10314A00E80A2F5F3F4F4F4FE5CF90E0F9012491F6
:10315A0047FD2081821B910902C080E090E01F9107
:0A316A000F91EF90DF90CF900895D1
:10317400CF93DF93CDB7DEB764970FB6F894DEBF75
:103184000FBECDBF9E01275F3F4F0E94B10F82E06B
:10319400898389858A838A858B838B858C838C85B7
:1031A4008D831E828D858F838E858887AE014F5FC8
:1031B4005F4F60E828E081E50E948021882311F0B8
:1031C40082E001C080E064960FB6F894DEBF0FBEC3
:0831D400CDBFDF91CF910895FA
:1031DC00CF92DF92EF92FF920F931F93CF93DF93D7
:1031EC00FC0104811381D181C08170E080E090E00A
:1031FC000E94CE159B01AC01602F712F8D2F9C2F3F
:10320C000E9447236B017C0120E030E0A9010E9461
:10321C002523882334F0C701B6010E942219CB0163
:10322C0002C080E090E0DF91CF911F910F91FF9051
:08323C00EF90DF90CF900895A0
:103244000E94281D88F09F5798F0B92F9927B751ED
:10325400B0F0E1F0660F771F881F991F1AF0BA9536
:10326400C9F714C0B13091F00E94BE22B1E00895B4
:103274000C94BE22672F782F8827B85F39F0B93FA6
:10328400CCF3869577956795B395D9F73EF49095E9
:0E3294008095709561957F4F8F4F9F4F0895E5
:1032A200EF92FF920F931F93CF93DF938C01D62F50
:1032B200C0E008C07801EC0EF11C0E941622F70152
:1032C2008083CF5F2C2F30E08D2F90E0019728175D
:1032D200390784F38D2F90E00197E801C80FD91FB9
:1032E2000E94202288830E94452280E0DF91CF91B4
:0A32F2001F910F91FF90EF900895D7
:1032FC00EF92FF920F931F93CF93DF937C0110E01B
:10330C0000E00DC0CE0DDF1D88818E3221F401113D
:10331C0011C001E003C080538A3070F41F5FC12FCD
:10332C00D0E0B70180E80E945D20C817D90750F3A0
:10333C0081E003C080E001C080E0DF91CF911F915C
:08334C000F91FF90EF9008952E
:103354000F931F93CF93DF9300D0CDB7DEB78C01CB
:103364008FEF9FEFF8019183808342E0BE016F5F8E
:103374007F4F8DE40E943C1F81110DC0898190E034
:10338400982F88272A81822B0E947014F801918338
:10339400808380E001C081E00F900F90DF91CF9196
:0633A4001F910F91089536
:1033AA00CF93DF93EC01BC0180E80E945D20BC0151
:1033BA00FC013197EC0FFD1F80818032B1F020E0D3
:1033CA0030E040E00DC0FE01E20FF31F9081903221
:1033DA0021F441110CC041E001C040E02F5F3F4F92
:1033EA002617370780F381E003C080E001C080E040
:0633FA00DF91CF91089560
:10340000CF93DC016091CE06653000F590E015C0E9
:10341000292F30E0F901EE0FFF1FED56F94F4081E3
:103420005181452B49F4220F331FF901ED56F94F15
:10343000B183A083C92F04C09F5F953048F3CFEFBD
:103440006F5F6093CE060E943B2301C0CFEF8C2FAD
:04345000CF9108957B
:10345400CF93DF93CDB7DEB764970FB6F894DEBF92
:103464000FBECDBF21E0AE014F5F5F4F0E94BB1482
:10347400882379F0BE016F5F7F4F80E82BE835E049
:1034840040E00E94C81D892B19F40E94120C01C04F
:1034940080E064960FB6F894DEBF0FBECDBFDF9117
:0434A400CF91089527
:1034A8006F927F928F92CF92DF92EF923B01882E9C
:1034B8000E945D20BC0120E030E080E010C0E82CD4
:1034C8006301C20ED31EE11C37FDEA94F601949104
:1034D800E7FC9081903209F48F5F2F5F3F4F2617EA
:1034E800370768F3EF90DF90CF908F907F906F90C1
:0234F800089535
:1034FA000F931F93CF938A0122E044EE55E00E9476
:10350A00BB14C82F8823B9F064EE75E080E80E94E6
:10351A004B239C0125503109243E334058F40E9424
:10352A00E62228E030E041E552E060E0C8010E946E
:10353A00871F01C0C0E08C2FCF911F910F91089572
:10354A001F920F920FB60F9211242F933F934F930E
:10355A005F936F937F938F939F93AF93BF93EF93F1
:10356A00FF93E091BB06F091BC060995FF91EF919C
:10357A00BF91AF919F918F917F916F915F914F9181
:0E358A003F912F910F900FBE0F901F9018953C
:103598001F920F920FB60F9211242F933F934F93C0
:1035A8005F936F937F938F939F93AF93BF93EF93A3
:1035B800FF93E091BD06F091BE060995FF91EF914A
:1035C800BF91AF919F918F917F916F915F914F9133
:0E35D8003F912F910F900FBE0F901F901895EE
:1035E600DC018091C1069091C206892BD1F790E04B
:1035F6000BC0292F30E0FD01E20FF31F4081F901D6
:10360600EA56FE4F40839F5F961798F3862F90E009
:103616009093C2068093C10681E090E09093C00625
:0E3626008093BF06809196018093C6000895A0
:10363400CF92DF92EF92FF920F931F93CF93DF937A
:103644008C01BC0180E80E944B23EC01C8010E945C
:1036540079136B017C01BE0180E090E00E94CC15DF
:103664009B01AC01C701B6010E94AA22DF91CF9150
:0E3674001F910F91FF90EF90DF90CF9008957F
:10368200CF92DF92EF92CF93DF936A01E62ED22F91
:1036920060E00E946F1C811113C0C0E00EC0AE2D0D
:1036A200C6018C0F911DA11DFC018491A7FD808193
:1036B2000E940721811104C0CF5FCD1780F380E003
:0C36C200DF91CF91EF90DF90CF90089542
:1036CE000F931F93CF938A0122E044EE55E00E94A0
:1036DE00BB14C82F8823A9F084EE95E00E947E19B2
:1036EE00C82F882371F084EE95E00E941A1B0E9469
:1036FE008D2228E030E041E552E060E0C8010E94F2
:0C370E00871F8C2FCF911F910F91089501
:10371A000F931F93CF938A0122E044EE55E00E9453
:10372A00BB14C82F8823A9F084EE95E00E947E1965
:10373A00C82F882371F084EE95E00E941A1B0E941C
:10374A00942228E030E041E552E060E0C8010E949E
:0C375A00871F8C2FCF911F910F910895B5
:103766000F931F93CF938A0122E044EE55E00E9407
:10377600BB14C82F8823A9F084EE95E00E947E1919
:10378600C82F882371F084EE95E00E941A1B0E94D0
:103796009B2228E030E041E552E060E0C8010E944B
:0C37A600871F8C2FCF911F910F91089569
:1037B2000F931F93CF938A0122E044EE55E00E94BB
:1037C200BB14C82F8823A9F064EE75E080E80E943C
:1037D2004B239FEF980F983C58F40E94DA2228E07E
:1037E20030E041E552E060E0C8010E94871F01C05D
:0C37F200C0E08C2FCF911F910F91089523
:1037FE000F931F93CF938A0122E044EE55E00E946F
:10380E00BB14C82F8823A9F064EE75E080E80E94EF
:10381E004B239AEF980F933158F40E94F22228E02E
:10382E0030E041E552E060E0C8010E94871F01C010
:0C383E00C0E08C2FCF911F910F910895D6
:10384A006F927F928F92CF92DF92EF920F931F9394
:10385A003B01882E6901E42E842FB9010E945D2064
:10386A008C014E2D9601882DB3010E94851821E006
:10387A00892B09F020E0822F1F910F91EF90DF90A2
:0A388A00CF908F907F906F9008950B
:10389400E9EAF6E011821082158214821382128200
:1038A400E3EAF6E0118210821582148213821282F6
:1038B400EDE9F6E0118210821582148213821282DD
:1038C4001092CC061092CB061092CA061092C9062A
:0A38D4001092C8061092C70608956E
:1038DE0090E0880F991F682B84EA8093BC0090912A
:1038EE00BC009923E4F78091B900887F883099F461
:1038FE006093BB0084E88093BC008091BC00882359
:10390E00E4F78091B900887F883121F0803419F472
:08391E0080E0089580E00895A7
:10392600990F0008550FAA0BE0E8FEEF16161706CA
:10393600E807F907C0F012161306E407F50798F032
:10394600621B730B840B950B39F40A2661F0232B4B
:10395600242B252B21F408950A2609F4A140A695C7
:083966008FEF811D811D089502
:10396E00CF93DF931F92CDB7DEB79AB192609AB91B
:10397E00E1ECF0E09081977F90839BB19D7F9BB9A6
:10398E00AFE9BFE01197F1F700C000009081986099
:10399E009083898361E0CE0101960E94F31A0F9005
:0639AE00DF91CF910895A6
:1039B4000E9433232FEF89E698E121508040904004
:1039C400E1F700C000000E9437230E947822882378
:1039D400E1F380E992E00E94732060E972E080E8FC
:1039E40023E036E040E00E94251C882311F080E0AB
:0639F400089581E0089532
:1039FA00AFE0B0E0E3E0FDE10C94C31E0E891F893D
:103A0A0086E08D831A8309838FEF9FE79F838E83D6
:103A1A009E01255E3F4F488D598D6A8DCE010196D4
:103A2A000E941603E885F985E00FF11F10822F9690
:063A3A00E4E00C94FA1E0A
:103A400057FD9058440F551F59F05F3F71F047954F
:103A5000880F97FB991F61F09F3F79F08795089534
:103A6000121613061406551FF2CF4695F1DF08C053
:103A7000161617061806991FF1CF86957105610570
:043A80000894089509
:103A8400CF92DF92EF9221503109C0F06B01E82E02
:103A9400C20ED31EE11CCA01820F931F422F732F43
:103AA400F6015E2D0E942A23262F0E94D52031E0A4
:103AB400C31AD108E1084150704090F7EF90DF90AD
:043AC400CF90089502
:103AC800A1E21A2EAA1BBB1BFD010DC0AA1FBB1F1A
:103AD800EE1FFF1FA217B307E407F50720F0A21B8C
:103AE800B30BE40BF50B661F771F881F991F1A94F9
:103AF80069F760957095809590959B01AC01BD0123
:043B0800CF0108954C
:103B0C0090E0880F991F282F216084EA8093BC00D5
:103B1C009091BC009923E4F78091B900887F8031A3
:103B2C0079F42093BB0084E88093BC008091BC00A6
:103B3C008823E4F78091B900887F803409F480E011
:023B4C000895DA
:103B4E00EF92FF920F931F936093B7067093B80690
:103B5E008093B9069093BA062093B3063093B406B9
:103B6E004093B5065093B606E092AF06F092B006BB
:103B7E000093B1061093B2061F910F91FF90EF9034
:023B8E00089598
:103B9000CF92DF92EF926B01E82EF6018491E7FC61
:103BA0008081F901549147FD508185130BC0882312
:103BB00041F08FEFC81AD80AE80A2F5F3F4F4F4FE6
:103BC000ECCF582F90E0851B9109EF90DF90CF90BC
:023BD000089556
:103BD200E1ECF0E080818061808380818860808375
:103BE200808180688083808180648083E0ECF0E063
:103BF20080818260808386E08093C20080E190E0D1
:0C3C02009093C5008093C400789408954E
:103C0E00E9ECF0E080818061808380818860808330
:103C1E00808180688083808180648083E8ECF0E01E
:103C2E0080818260808386E08093CA0080E190E08C
:0C3C3E009093CD008093CC007894089502
:103C4A00082E000C990BFC01EE0FFF1FED56F94FE1
:103C5A0020813181232B81F0880F991FFC01ED56B9
:103C6A00F94F118210828091CE0681508093CE0640
:0A3C7A00811102C00E944F2308953B
:103C8400CF92DF92EF926B01E82E0E945D20409765
:103C940079F420E130E040E050E08E2DB6010E943E
:103CA400421D61E080E490E00E94D42081E001C0E4
:0A3CB40080E0EF90DF90CF900895BC
:103CBE00CF92DF92EF926B01E82E0E945D2040972B
:103CCE0079F420E130E040E150E08E2DB6010E9403
:103CDE00421D61E081E490E00E94D42081E001C0A9
:0A3CEE0080E0EF90DF90CF90089582
:103CF800CF92DF92EF926B01E82E0E945D208097B1
:103D080079F420E230E040E250E08E2DB6010E94C6
:103D1800421D61E082E490E00E94D42081E001C06D
:0A3D280080E0EF90DF90CF90089547
:103D320025E04EE156E060E081E60E94802181119B
:103D42000FC025E043E256E060E081E60E94802158
:103D5200811108C00E9416238823E1F380E00895B0
:083D620082E0089582E008955B
:103D6A002F923F924F925F926F927F928F929F9281
:103D7A00AF92BF92CF92DF92EF92FF920F931F936F
:103D8A00CF93DF93CDB7DEB7CA1BDB0B0FB6F89420
:083D9A00DEBF0FBECDBF09948E
:103DA200AC0130E08FEF14C0FA01E30FF11D9081F6
:103DB200892728E00AC0882334F490E0880F991FED
:103DC20091E3892701C0880F21502111F4CF3F5F71
:063DD200361750F30895BE
:103DD8002A88398848885F846E847D848C849B8493
:103DE800AA84B984C884DF80EE80FD800C811B81A1
:103DF800AA81B981CE0FD11D0FB6F894DEBF0FBED0
:063E0800CDBFED0108959D
:103E0E00CF92DF92EF926B01E82EA82FCB014115D6
:103E1E00510531F48C199D09EF90DF90CF900895E4
:103E2E00FC012491A7FD20812223A1F30196A11D5F
:063E3E0041505109ECCFD8
:103E4400CF93DF9300D01F92CDB7DEB7FC01E60F0E
:103E5400F11D8081898381818A831B82BE016F5F0A
:103E64007F4F80E80E944B230F900F900F90DF91BB
:043E7400CF9108954D
:103E78000F931F93CF93DF938B01D42F61E00E94A0
:103E88006F1CC82F882321F00E9445228C2F04C064
:103E98006D2FC8010E945119DF91CF911F910F9189
:023EA80008957B
:103EAA00CF93DF93EC0162E00E94D11E9A818913BD
:103EBA000AC062E0CE0103960E94D11E9D81891735
:103ECA0021F080E003C080E001C081E0DF91CF9162
:023EDA00089549
:103EDC00EF92FF920F931F93CF93DF93EC018B0123
:103EEC007A010E9416238823E1F3A701B801CE01C1
:103EFC000E94260FDF91CF911F910F91FF90EF90B1
:023F0C00089516
:103F0E00CF92DF92EF92DC016A01E62E280F391F65
:103F1E00A217B30751F0F6014491E7FC40814D938F
:103F2E004FEFC41AD40AE40AF3CFEF90DF90CF908C
:023F3E000895E4
:103F40000F931F93CF93DF938B01D42F0E94861D75
:103F5000C82F882321F00E9445228C2F04C06D2F8A
:103F6000C8010E945119DF91CF911F910F910895BF
:103F70000F931F93CF938C010E94A421C82F8823F5
:103F800051F020E130E040E050E060E0C8010E94E4
:103F9000C220F801108A8C2FCF911F910F910895A4
:103FA0000F931F93CF938C010E94AF21C82F8823BA
:103FB00051F020E130E040E150E060E0C8010E94B3
:103FC000C220F801108A8C2FCF911F910F91089574
:103FD0000F931F93CF938C010E94BA21C82F88237F
:103FE00051F020E230E040E250E060E0C8010E9481
:103FF000C220F80110A28C2FCF911F910F9108952C
:10400000FC018081823751F0873751F0833651F0BF
:10401000833751F0813751F484E0089587E00895A3
:1040200088E0089589E008958AE0089585E008957C
:10403000BC0190E009C0FB01E90FF11DDA01A050BD
:10404000BF4F2C9120839F5F492F50E02091D006D5
:0E40500030E022503109421753076CF30895F7
:10405E00BC0190E009C0FB01E90FF11DDA01AC5C77
:10406E00B94F2C9120839F5F492F50E02091D206AB
:0E407E0030E022503109421753076CF30895C9
:10408C009A01462FDC01BD016F5F7F4F5C91552378
:10409C0011F0DB01F8CFF901549147FD50815D938C
:0E40AC00552321F02F5F3F4F4F4FF5CF089562
:1040BA00CF92DF92EF926B01E82EA82FCB01FC0181
:1040CA002491A7FD2081222319F00196A11DF7CF83
:0C40DA008C199D09EF90DF90CF900895A5
:1040E6000F931F93CF938C010E941820C091D00686
:1040F600C250F801EC0FF11D10820E941B238C2F79
:08410600CF911F910F91089564
:10410E000F931F93CF938C010E942F20C091D20644
:10411E00C250F801EC0FF11D10820E9420238C2F4B
:08412E00CF911F910F9108953C
:104136000E942A220E94552281E00E94D0210E94DC
:10414600632281E00E94E4210E94AF20882311F0BF
:0841560080E0089581E0089566
:10415E000E94712281E00E94E4212FEF83ED90E313
:10416E00215080409040E1F700C000000E944A1CA0
:06417E000E94991E089545
:10418400BA01A901DC01CB01FC01F999FECF06C0FB
:10419400F2BDE1BDF89A319600B40D924150504001
:0441A400B8F70895CB
:1041A800262FF999FECF92BD81BDF89A019700B4E8
:1041B800021639F01FBA20BD0FB6F894FA9AF99A88
:0441C8000FBE089589
:1041CC00092E0394000C11F4882352F0BB0F40F419
:1041DC00BF2B11F460FF04C06F5F7F4F8F4F9F4F59
:0241EC00089534
:1041EE0082E08093B0001092B1001092B60010924F
:1041FE00B20093EF9093B30080937000789408957B
:10420E008093BB0084E88093BC008091BC0088231F
:10421E00E4F78091B900887F883209F480E0089530
:10422E00DB018F939F930E94C521BF91AF91A29FF7
:10423E00800D911DA39F900DB29F900D1124089596
:10424E00CF93DF93EC0163E470E080E00E94CC2218
:0E425E00688379838A839B83DF91CF910895D3
:10426C00CF93DF93EC0167E470E080E00E94CC22F6
:0E427C00688379838A839B83DF91CF910895B5
:10428A00CF93DF93EC016BE470E080E00E94CC22D4
:0E429A00688379838A839B83DF91CF91089597
:1042A800A29FB001B39FC001A39F700D811D11246F
:0E42B800911DB29F700D811D1124911D08955E
:1042C6009A01462FDC01F901549147FD50815D9317
:0E42D600552321F02F5F3F4F4F4FF5CF089536
:1042E400FC0101900020E9F7CF0123E030E045E92B
:0C42F40055E060E001970E94871F0895CC
:10430000CF930E94411BC82F0E944522C11102C0B9
:0A43100080E001C08C2FCF910895CA
:10431A000396272F0E94D5200E94D420252F0E9481
:08432A00D520242F0C94D520AE
:1043320081E00E94F8210E94650D80E00E94F82130
:0643420080E090E0089508
:1043480060E470E080E80E943C2291E0811101C0A5
:0643580090E0892F08959A
:10435E0061E470E080E80E943C2291E0811101C08E
:06436E0090E0892F089584
:1043740062E470E080E80E943C2291E0811101C077
:0643840090E0892F08956E
:10438A000E945421A59F900DB49F900DA49F800D6B
:06439A00911D112408959D
:1043A000882321F082B1886082B9089582B1877F25
:0443B00082B9089531
:1043B400882321F082B1806282B9089582B18F7D11
:0443C40082B908951D
:1043C800882321F082B1806182B9089582B18F7EFD
:0443D80082B9089509
:1043DC00882321F08BB180618BB908958BB18F7ECE
:0443EC008BB90895EC
:1043F000882321F082B1806882B9089582B18F77D5
:0444000082B90895E0
:104404001F920F920FB60F9211240F900FBE0F90B0
:044414001F90189548
:10441800CF930E94411BC82F81110E9445228C2FE7
:04442800CF91089593
:10442C0084EC8093BC008091BC008823E4F78091DD
:04443C00BB00089524
:1044400084E88093BC008091BC008823E4F78091CD
:04445000BB00089510
:1044540080E28093B800E9EBF0E080818C7F808378
:024464000895B9
:1044660091110C945E23803219F089508550C8F75B
:024476000895A7
:10447800CB01F999FECF92BD81BDF89A992780B5F5
:02448800089595
:10448A0084E98093BC008091BC0084FDFCCF089530
:10449A00262F30E044E650E060E00E94C2200895F2
:0E44AA0081B1886081B982B1877F82B908959F
:0E44B80081B1806281B982B18F7D82B9089591
:0E44C60081B1806181B982B18F7E82B9089583
:0E44D4008AB180618AB98BB18F7E8BB9089551
:0E44E20087B18F7B87B988B18F7B88B9089529
:0E44F0009091CF0681E0911101C080E0089507
:0E44FE009091D10681E0911101C080E00895F7
:0E450C009091D20681E09A3408F480E0089580
:0E451A00AB01BC0183E490E00E948D21089566
:0E452800AB01BC0187E490E00E948D21089554
:0E453600AB01BC018BE490E00E948D21089542
:0E454400242F30E044E650E00E94421D08950E
:0E4552005058BB27AA270E94FA110C94E620AD
:0E45600000240A941616170618060906089578
:0E456E0000240A94121613061406050608957A
:0E457C00E894BB2766277727CB0197F90895AF
:0E458A002AE030E040E050E00E94B8060895BC
:0E459800CB01A6E1B0E044E050E00C94C62058
:0E45A600CB01A8E1B0E042E050E00C94C6204A
:0C45B400682F8FE490E00E94D42008954E
:0C45C0006FE470E080E00E943C2208954F
:0C45CC00BC0180E590E00E9410230895DF
:0C45D80060E570E080E00E94D3220895AE
:0C45E400682F82E590E00E94D42008952A
:0C45F00062E570E080E00E943C2208952B
:0C45FC008091D4068F5F8093D406089550
:0C46080097F99F6780E870E060E008957B
:0C461400EE0FFF1F0590F491E02D0994BB
:0C4620000196272F0E94D5200C94D42076
:0A462C0086B186FB882780F9089507
:0A4636001092CF061092D0060895EE
:0A4640001092D1061092D2060895E0
:0A464A000E94931C08F481E008951B
:0A46540057FD608157FF649108953F
:08465E0084B1806184B9089564
:0846660085B18F7E85B908952E
:08466E0085B1806185B9089552
:0846760087E08093B100089574
:08467E0085E50E94B71C0895B8
:084686000E9421110C94E620B2
:08468E000E9490110C94E6203B
:084696000E94C522CB0108952A
:06469E001092B100089526
:0646A4000E94DA1C0895DB
:0646AA000E9409160895AC
:0646B0000E943F23089563
:0646B6009FEF80EC089567
:0646BC00992788270895EC
:0446C2000C94000054
:0446C6000000803F31
:0446CA0000401C454B
:0446CE000000A04008
:00000001FF
