:100000000C94C9000C94D4140C94D4140C942D1496
:100010000C94D4140C94D4140C94D4140C94D414C0
:100020000C94D4140C94F00B0C94D4140C94D4149D
:100030000C94D4140C947F0F0C94D4140C94D414FA
:100040000C94580F0C94D4140C94D4140C94D41411
:100050000C94F90D0C94D4140C943F100C94D414FB
:100060000C94D4140C94D4140C94D4140C94D41470
:100070000C94330E0C94D4140C9464102C09330992
:100080007D093C0986096F0976094C0957096209FF
:10009000680901000713800000407A10F35A00A09D
:1000A000724E18090010A5D4E80000E87648170041
:1000B00000E40B54020000CA9A3B000000E1F50581
:1000C000000080969800000040420F000000A086CB
:1000D00001000000102700000000E80300000000FD
:1000E0006400000000000A000000000001000000A1
:1000F00000002C76D888DC674F0823DFC1DFAE59BB
:10010000E1B1B796E5E3E453C63AE651997696E84D
:10011000E6C28426EB898C9B62ED407C6FFCEFBCD1
:100120009C9F40F2BAA56FA5F490055A2AF75C93FC
:100130006B6CF9676DC11BFCE0E40D47FEF520E632
:10014000B500D0ED902E0300943577050080841E15
:10015000080000204E0A000000C80C333333330F70
:10016000986E12831141EF8D2114893BE65516CF0D
:10017000FEE6DB18D1844B381BF77C1D901DA4BB19
:10018000E424203284725E228100C9F124ECA1E5CE
:100190003D2711241FBECFEFD0E1DEBFCDBFE2E986
:1001A000F0E040E017C0B591A591359125910591FA
:1001B00007FD0CC095918591EF01F92FE82F05906F
:1001C0000D92A217B307D9F7FE0104C01D92A21722
:1001D000B307E1F7E739F40731F70E94E9130C940C
:0601E000F100F894FFCFCE
:1001E60025303278000D0A0073797320736C6565CB
:1001F6007000257320256C64002573202573006D1F
:1002060061632073657420646576657569006D6148
:10021600632073657420617070657569006D616334
:1002260020736574206170706B6579006F66660077
:100236006D61632073657420616472006F6E006D7A
:10024600616320747820636E66002573202575200F
:030256002573000D
:100259002A2A2A2A2A2A2A2A204D657468616E6563
:100269002053656E736F722076312E30202A2A2A28
:100279002A2A2A2A2A004E6F742076616C69640042
:1002890057726F6E6720666F726D6174002A2A2A31
:100299002A2A2A2A20526561647920666F72206EA3
:1002A900657720636F6D6D616E64202A2A2A2A2A78
:0302B9002A2A00EE
:1002BC0065786974002A2A2A2A2A2A2A20596F75F5
:1002CC0020617265206469726563746C7920636F58
:1002DC006E6E656374656420746F20524E323438D0
:1002EC0033202A2A2A2A2A2A2A2A002D2D3E25732F
:1002FC0000436C6F73696E6720636F6E6E65637419
:10030C00696F6E20746F20524E323438332E2E2E7D
:01031C0000E0
:10031D006661696C6564007375636365737300640E
:10032D0065766575690061707065756900617070DD
:10033D006B65790070706D7800252E3266007272D3
:10034D006C780076636378004E6F7420612076615F
:0E035D006C6964206F7065726174696F6E0068
:08036B00696E66006E616E0010
:10037400A4E1B0E0E0ECF1E00C94C6116C011A01C8
:10038400462E5901FC0110861782848181FF62C3C5
:10039400CE0101969D878C87A0E88A8B9B8BAC8BC2
:1003A400F101849147FC8081882309F44FC3442DD3
:1003B40091012F5F3F4F4F4F853219F01901442EA1
:1003C4000AC0F901849147FD808192E0290E311C15
:1003D400411C853249F4B60190E00E94BD0DBF86F0
:1003E400AE86AE84BF84DCCF10E0F12C00E0003296
:1003F400A0F48B3269F030F4803259F0833269F41E
:1004040000612CC08D3239F0803339F4016026C08C
:100414000260046023C0086021C007FD29C090ED7C
:10042400980F9A3078F406FF06C0AAE01A9F900D40
:100434001124192F13C0EAE0FE9E900D1124F92E09
:1004440000620CC08E3221F406FD00C3006406C0B5
:100454008C3611F4006802C0883651F4F10184919D
:1004640047FC8081FFEF2F1A3F0A4F0A8111BFCF4B
:100474009BEB980F933018F40061805E06C09BE9F3
:10048400980F933008F066C10F7E06FF16E00F73D5
:10049400702E853621F4202F2064722E08C08636F3
:1004A40021F4802F8068782E02C01111115077FE3C
:1004B40007C01C3350F4EE24E394E10E27E00BC094
:1004C400183038F027E017E005C027E06CE3E62E8B
:1004D40002C0212FE12CF5013496FF87EE87F50148
:1004E40060817181828193810E2DAE014F5F5F4FD8
:1004F4000E94A8075C01598050FE02C053FE06C04A
:1005040071FC06C072FE06C000E205C00DE203C025
:100514000BE201C000E0852D8C7019F0011173C24B
:10052400BEC277FE0FC0EA0C54FE04C08A81813338
:1005340009F4EA941E1474F528E02E1578F538E0D1
:10054400E32E2CC076FC2AC0812F90E08A159B05EF
:100554009CF08CEFA8168FEFB80674F0972D906876
:10056400792E0AC0E2E0F0E0EC0FFD1FE10FF11D6F
:100574008081803319F411501111F4CF77FE0EC02D
:10058400EE24E394E10E812F90E0A816B9062CF432
:100594001A1904C0EE24E39401C010E077FE06C0EB
:1005A4001A141B0434F4C501019605C085E090E0DB
:1005B40002C081E090E001110196112331F0212F56
:1005C40030E02F5F3F4F820F931F2F2D30E08217B3
:1005D400930714F4F81A01C0F12C872D897049F49B
:1005E400FF2039F0B60180E290E00E94BD0DFA943C
:1005F400F7CF002329F0B601802F90E00E94BD0DB3
:1006040073FC09C0FF2039F0B60180E390E00E943A
:10061400BD0DFA94F7CF77FE49C03501B7FE02C08D
:10062400612C712CC5018619970988248394912C17
:100634008C0E9D1E880E991EF501EE19F109F98B99
:10064400E88B012F10E0119501951109FFEF6F164A
:100654007F0629F4B6018EE290E00E94BD0DA61437
:10066400B70444F088899989861597051CF4F40128
:10067400818101C080E3F1E06F1A71082FEF821AC3
:10068400920A601671062CF0B60190E00E94BD0D2E
:10069400DDCFA614B70439F49A81963318F4953350
:1006A40011F454FE81E3B60190E051C08A81813394
:1006B40019F0952D9F7E592EB60190E00E94BD0D34
:1006C400111105C074FC1CC085E690E01BC0B60186
:1006D4008EE290E00E94BD0D02E0010F82E011E085
:1006E400180FE1E0F0E0EC0FFD1FE80FF11D808131
:1006F400B60190E00E94BD0D812F1013F0CFE2CF20
:1007040085E490E0B6010E94BD0DB7FC05C0A114BC
:10071400B10439F454FE05C0B194A194B1088DE23A
:1007240001C08BE2B60190E00E94BD0D80E3EAE0D7
:10073400AE16B1042CF08F5FAAE0AA1AB108F7CF65
:10074400B60190E00E94BD0DB601C501C0960E949D
:10075400BD0D72C1833631F0833791F0833509F0D2
:100764005DC024C0C50102969F878E87F5018081F4
:1007740089836A887B888C88AA24A394B12C14C0AA
:10078400C50103969F878E87F50160807180828002
:1007940006FF03C0412F50E002C04FEF5FEF882DEA
:1007A400B3010E9418125C010F7715C0C5010396AE
:1007B4009F878E87F50160807180828006FF03C069
:1007C400412F50E002C04FEF5FEF882DB3010E942C
:1007D40018125C01006803FD1DC08F2D90E0A8165F
:1007E400B906C0F4B60180E290E00E94BD0DFA940F
:1007F400F4CFF301849187FC8081FFEF6F1A7F0AA5
:100804008F0AB60190E00E94BD0DF110FA9421E028
:10081400A21AB108A114B10461F70EC1843611F013
:10082400893679F5C50107FF09C004969F878E872D
:10083400F50160817181828193810AC002969F874C
:100844008E87F50160817181072E000C880B990B4E
:100854000F76E02E97FF0AC090958095709561956C
:100864007F4F8F4F9F4FF02FF068EF2E2AE030E03C
:10087400AE014F5F5F4F0E94380BA82E2C85A21A41
:100884004BC0853729F40F7EE02E2AE030E025C0E6
:10089400902F997FE92E8F36C1F018F4883579F0BE
:1008A400D5C0803719F0883721F0D0C0A92FA061B6
:1008B400EA2EE4FE0DC0EE2DE460EE2E09C004FF26
:1008C4000AC0F92FF660EF2E06C028E030E005C01C
:1008D40020E130E002C020E132E0C501E7FE09C0BA
:1008E40004969F878E87F50160817181828193814F
:1008F40008C002969F878E87F5016081718180E030
:1009040090E0AE014F5F5F4F0E94380BA82EFC852C
:10091400AF1A2E2D2F77E22EE6FE0BC00E2D0E7F82
:10092400A11650F4E4FE0AC0E2FC08C00E2D0E7EAF
:1009340005C0BA2C0E2D03C0BA2C01C0B12E04FF81
:100944000DC0FE01EA0DF11D8081803311F4097E92
:1009540009C002FF06C0B394B39404C0802F867804
:1009640009F0B39403FD11C000FF06C0BF1488F45E
:10097400FA0C1F2D1B190EC0BF1460F4B60180E2DF
:1009840090E00E94BD0DB394F7CFBF1418F4FB1888
:1009940002C01A2DF12C04FF10C0B60180E390E0D0
:1009A4000E94BD0D02FF17C001FD03C088E790E05F
:1009B40002C088E590E0B6010CC0802F867859F01B
:1009C40001FF02C08BE201C080E207FD8DE2B601A7
:1009D40090E00E94BD0DA11638F4B60180E390E0CA
:1009E4000E94BD0D1150F7CFAA94E1E0F0E0EC0FA6
:1009F400FD1FEA0DF11D8081B60190E00E94BD0D3E
:100A0400A110F2CF19C0F4E0FF1580F584E0F81AC4
:100A140073FE23C001112BC053FE2FC05FE6852E49
:100A240053E0952E50E0A52E072D0071F40184911A
:100A3400A7FC8081811128C0FF2009F4D2CCB60123
:100A440080E290E00E94BD0DFA94F6CFF601878112
:100A540090852CC08FEF9FEF29C0B60180E290E013
:100A64000E94BD0DFA94F110F8CFD4CFF12CB60149
:100A7400802F90E00E94BD0DCFCF4BE6842E43E043
:100A8400942E40E0A42ED0CF01118052B60190E004
:100A94000E94BD0DFFEF8F1A9F0AAF0AC7CF23E054
:100AA4002F1510F483E0B3CFF12CB6CF6496E2E1B6
:040AB4000C94FD1190
:100AB8002F923F924F925F926F927F928F92AF9256
:100AC800BF92CF92DF92EF920F931F93CF93DF9352
:100AD80000D000D000D0CDB7DEB73B01882E5A0138
:100AE80019014115510521F0FA0160837183828350
:100AF8002114310429F0C1010297839708F01AC123
:100B0800E82C6301FFEFCF1ADF0AEF0AF301149113
:100B180087FC1081812F90E00E9437144C2D3D2DC9
:100B28002E2D892B19F036018E2CEACF1D3269F44F
:100B3800E82C630152E0C50ED11CE11CE42FF32F11
:100B4800149127FD108101E00EC01B3259F4E82CE6
:100B5800630182E0C80ED11CE11CE42FF32F14912D
:100B680027FD108100E02114310409F190E12916D4
:100B7800310429F43FC010E32114310421F1F8E0D5
:100B88002F16310401F154F432E02316310421F513
:100B9800412C512C612C50E4752E4BC04AE0241690
:100BA800310439F050E125163104B1F43DC0103359
:100BB80019F13AE0232E312C4CEC442E542C642CA1
:100BC8004CE0742E36C098E0292E312C412C512C43
:100BD800612C20E1722E2DC060E070E080E090E88A
:100BE8009101032C000C440B550B0E94F0102901B5
:100BF8003A011FC01033C1F4F6018491E7FC8081EB
:100C08008F7D883509F0B7CFAE2DC6010196A11D9D
:100C1800FC011491A7FD1081E2E0CE0ED11CE11C6D
:100C2800026060E1262E312C412C512C612C88E089
:100C3800782EA0E060E070E0CB019101032C000C5D
:100C4800440B550B29833A834B835C83E0EDE10F1A
:100C5800EA3060F02FEB210F2A3110F4E9EC05C0DF
:100C68002FE9210F2A3150F5E9EAE10F2E2F30E064
:100C7800221533051CF5A7FD18C046165706680649
:100C8800790680F029813A814B815C810E94721338
:100C98006E0F711D811D911D61307105810530E850
:100CA800930710F0AFEF01C0A1E0F6011491E7FC43
:100CB80010814FEFC41AD40AE40AC8CF202F21703C
:100CC800A114B104B1F0AA2349F051E0C51AD10822
:100CD800E108F501C082D182E2820BC001FF1DC08C
:100CE800F2E0CF1AD108E108F501C082D182E28290
:100CF80014C0A7FF12C0222329F060E070E080E052
:100D080090E804C06FEF7FEF8FEF9FE722E230E0BB
:100D18003093E9042093E80409C0222381F09095D8
:100D28008095709561957F4F8F4F9F4F462F372F36
:100D3800282F12C040E030E020E090E00DC097FF7F
:100D4800F5CF82E290E09093E9048093E8046FEF96
:100D58007FEF8FEF9FE7EACF642F732F822F2696BE
:100D68000FB6F894DEBF0FBECDBFDF91CF911F91B4
:100D78000F91EF90DF90CF90BF90AF908F907F90C2
:0C0D88006F905F904F903F902F90089567
:100D9400CF92DF92EF92FF920F931F93CF93DF9343
:100DA400CDB7DEB768970FB6F894DEBF0FBECDBFE0
:100DB4006B01E82EF42E052F21E0AE014F5F5F4F4B
:100DC4000E943C0C182F882309F4B0C08E2DB60164
:100DD4000E942F0F823009F4A8C0CE0101966C0145
:100DE40020E8E22E2CE233E040E08E2DB6010E9492
:100DF4001211892B29F48F2D902F0E94661296C010
:100E040023E333E040E08E2DB6010E941211892BBA
:100E140029F48F2D902F0E947E1288C02AE333E09C
:100E240040E08E2DB6010E941211892B29F48F2DDA
:100E3400902F0E9496127AC021E433E040E08E2D78
:100E4400B6010E941211892BE1F4CE0145960E944D
:100E54008213888D8F938F898F938E898F938D8939
:100E64008F9386E493E0A0E0AF939F938F930F93C7
:100E7400FF920E9489100FB6F894DEBF0FBECDBF5B
:100E840055C02BE433E040E08E2DB6010E941211D0
:100E9400892BE1F4CE0145960E949113888D8F939E
:100EA4008F898F938E898F938D898F9386E493E0B6
:100EB400A0E0AF939F938F930F93FF920E948910AA
:100EC4000FB6F894DEBF0FBECDBF30C020E533E0CF
:100ED40040E08E2DB6010E941211892BE1F4CE015F
:100EE40045960E94A013888D8F938F898F938E8946
:100EF4008F938D898F9386E493E0A0E0AF939F93C3
:100F04008F930F93FF920E9489100FB6F894DEBF5F
:100F14000FBECDBF0BC026E130E045E553E060E0F5
:100F24008F2D902F0E944D1201C010E0812F6896E2
:100F34000FB6F894DEBF0FBECDBFDF91CF911F91E6
:0C0F44000F91FF90EF90DF90CF90089588
:100F5000283008F027E03327DA01990F311D87FD8B
:100F6000916000966105710539F432602E5F3D9302
:100F700030E32A95E1F708959F3F30F080387105FE
:100F8000610509F03C5F3C5F3D93913008F080685B
:100F9000911DDF93CF931F930F93FF92EF92192F21
:100FA000987F9695E92F96959695E90FFF27EE5035
:100FB000FF4F99273327EE24FF24A701E70105906F
:100FC0000894079428F4360FE71EF81E491F511D98
:100FD000660F771F881F991F0694A1F70590079445
:100FE00028F4E70EF81E491F561FC11D770F881FF2
:100FF000991F661F0694A1F70590079428F4F80E30
:10100000491F561FC71FD11D880F991F661F771FC5
:101010000694A1F70590079420F4490F561FC71FA7
:10102000D81F990F661F771F881F0694A9F7849110
:101030001095177041F0D695C79557954795F79439
:10104000E7941A95C1F7E8E9F0E0689415901591D6
:1010500035916591959105907FE27395E118F10ABC
:10106000430B560BC90BD009C0F7E10CF11E431F0F
:10107000561FC91FD01D7EF4703311F48A95E6CF38
:10108000E894015030F0080F0AF40027021708F422
:10109000202F2395022F7A3328F079E37D932A9528
:1010A000E9F710C07D932A9589F606949795679580
:1010B000379517951794E118F10A430B560BC90B96
:1010C000D00998F023957E9173957A3308F070E3F8
:1010D0007C932013B8F77E9170617D9330F08395F7
:1010E00071E37D9370E32A95E1F71124EF90FF906F
:1010F0000F911F91CF91DF91992787FD90950895CA
:101100006F927F928F92AF92BF92CF92DF92EF92C7
:101110001F93CF93DF93CDB7DEB764970FB6F894E4
:10112000DEBF0FBECDBF3B01882E5A0121E0AE01CC
:101130004F5F5F4F0E943C0C182F882309F464C056
:10114000CE0101966C0120E8E22E2CE233E040E073
:101150008E2DB6010E941211892B39F4A501882D1C
:10116000B3010E94090D182F4FC023E333E040E084
:101170008E2DB6010E941211892B39F4A501882DFC
:10118000B3010E94450D182F3FC02AE333E040E031
:101190008E2DB6010E941211892B39F4A501882DDC
:1011A000B3010E94810D182F2FC021E433E040E0ED
:1011B0008E2DB6010E941211892B39F4A501882DBC
:1011C000B3010E94CD0F182F1FC02BE433E040E085
:1011D0008E2DB6010E941211892B39F4A501882D9C
:1011E000B3010E94F30F182F0FC020E533E040E059
:1011F0008E2DB6010E941211892B31F4A501882D84
:10120000B3010E941910182F812F64960FB6F8941D
:10121000DEBF0FBECDBFDF91CF911F91EF90DF906A
:0E122000CF90BF90AF908F907F906F90089509
:10122E00CF930E945111C0E007C0C5E005C0C6E0D3
:10123E0003C0C5E001C0C5E0EC2FF0E0EB30F105D6
:10124E00D8F7E25CFF4F0C94A31469E572E080E0DE
:10125E000E94870CC2E0F0CF0E9450148111C3E0AF
:10126E000E9457148111E1CFE7CF80E294E00E94F3
:10127E00061380E294E00E94040F8823C1F280E2FC
:10128E0094E00E946213C82FD7CF60E274E080E82A
:10129E0048E553E00E94CA06882359F2CAE0CCCF33
:1012AE0060E274E080E848E553E00E9480088823FD
:1012BE0011F2CAE0C1CF0E9488090E94AE14C2E0AA
:1012CE00BBCF68E573E080E80E94870CC2E0B4CF24
:1012DE006FE772E080E00E94870CC2E0ADCF69E854
:1012EE0072E080E00E94870CC2E0A6CF0E94AE148E
:1012FE0066E972E080E00E94870CC1E09DCFCF913D
:02130E00089540
:101310006F927F928F92CF92DF92EF92CF93DF9373
:10132000C0E0C23009F128F4CC2349F0C13091F07B
:10133000F8CFC330F9F0C43009F44BC0F2CF0E94AB
:1013400033110E94B81461EC72E080E00E94870CB7
:10135000C1E0E7CF0E945014882319F380E294E0A3
:101360000E940613C2E0DDCF80E294E00E941A13CF
:10137000C82FD7CF80E294E06C0120E8E22E2F93B3
:10138000DF928F9387EF92E0A0E0AF939F938F93CC
:10139000C8E5D3E0DF93CF930E9489103E0120E897
:1013A000822E882DB3010E94870CAE016C2D7D2DFD
:1013B0008E2D0E94C814882DB3010E94870C8DB712
:1013C0009EB708960FB6F8949EBF0FBE8DBFC1E0C2
:1013D000A8CF6DEF72E080E00E94870C81E0DF9182
:1013E000CF91EF90DF90CF908F907F906F90089586
:1013F00010C00E94811458F00E947A1440F029F421
:101400005F3F29F00C949D1451110C9489140C9495
:10141000CE140E94AC1068F39923B1F3552391F3D5
:10142000951B550BBB27AA2762177307840738F053
:101430009F5F5F4F220F331F441FAA1FA9F335D0B0
:101440000E2E3AF0E0E832D091505040E695001C64
:10145000CAF72BD0FE2F29D0660F771F881FBB1F1E
:10146000261737074807AB07B0E809F0BB0B802DFC
:10147000BF01FF2793585F4F3AF09E3F510578F028
:101480000C949D140C9489145F3FE4F3983ED4F3BC
:10149000869577956795B795F7959F5FC9F7880FFC
:1014A000911D9695879597F90895E1E0660F771F4E
:1014B000881FBB1F621773078407BA0720F0621BDF
:0E14C000730B840BBA0BEE1F88F7E0950895AE
:1014CE000FC00E947A1438F00E94811420F09523E8
:1014DE0011F00C949D140C94CE1411240C948914B8
:1014EE000E94AC1070F3959FC1F3950F50E0551FFD
:1014FE00629FF001729FBB27F00DB11D639FAA275B
:10150E00F00DB11DAA1F649F6627B00DA11D661FA9
:10151E00829F2227B00DA11D621F739FB00DA11DCA
:10152E00621F839FA00D611D221F749F3327A00D84
:10153E00611D231F849F600D211D822F762F6A2F20
:10154E0011249F5750409AF0F1F088234AF0EE0F85
:10155E00FF1FBB1F661F771F881F91505040A9F7B2
:10156E009E3F510580F00C949D140C9489145F3F9E
:10157E00E4F3983ED4F3869577956795B795F795EE
:10158E00E7959F5FC1F7FE2B880F911D9695879566
:04159E0097F908951C
:1015A20011C00E947A1438F00E94811420F039F49C
:1015B2009F3F19F426F40C94CE140EF4E095E7FB49
:1015C2000C949D14E92F0E94AC1058F3BA176207CD
:1015D20073078407950720F079F4A6F50C94881414
:1015E2000EF4E0950B2EBA2FA02D0B01B90190013C
:1015F2000C01CA01A0011124FF27591B99F0593F80
:1016020050F4503E68F11A16F040A22F232F342FC7
:101612004427585FF3CF469537952795A795F04015
:101622005395C9F77EF41F16BA0B620B730B840B2A
:10163200BAF09150A1F0FF0FBB1F661F771F881FE2
:10164200C2F70EC0BA0F621F731F841F48F487953A
:1016520077956795B795F7959E3F08F0B0CF93952C
:0E166200880F08F09927EE0F97958795089549
:10167000FA01AA27283051F1203181F1E8946F93C3
:101680006E7F6E5F7F4F8F4F9F4FAF4FB1E03ED069
:10169000B4E03CD0670F781F891F9A1FA11D680F07
:1016A000791F8A1F911DA11D6A0F711D811D911D3A
:1016B000A11D20D009F468943F912AE0269F1124AF
:1016C0003019305D3193DEF6CF010895462F477013
:1016D000405D4193B3E00FD0C9F7F6CF462F4F706E
:1016E000405D4A3318F0495D31FD4052419302D0CC
:1016F000A9F7EACFB4E0A695979587957795679572
:10170000BA95C9F700976105710508959B01AC0171
:101710000A2E06945795479537952795BA95C9F798
:0C172000620F731F841F951FA01D089509
:10172C00CF92DF92EF92FF920F931F93CF93DF93A1
:10173C006C0110E008C0CC0DDD1D88818E3211F4D7
:10174C001F5F0CC01F5FC12FD0E0B60180E80E9464
:10175C00DC120197C817D90770F310E0112371F14F
:10176C00C10ED11C80E8E82E8E2DB6010E94DC1231
:10177C00C82F8E2DB6010E94C4148C010F2EC12CC3
:10178C00D12CF0E8EF2EFFE3FF2EF02D0BC020E064
:10179C0030E040E251E4C701B6010E94C0146B0175
:1017AC007C01C150C111F3CFB80180E090E00E94E0
:1017BC00CC0CA70196010E94BC1403C060E070E041
:1017CC00CB01DF91CF911F910F91FF90EF90DF90A4
:0417DC00CF9008950D
:1017E0001F920F920FB60F9211242F933F934F9396
:1017F0005F936F937F938F939F93AF93BF93CF9399
:10180000EF93FF9390910A079F5F90930A0789E0F7
:10181000989F212D1124892F821B8695820F8295F6
:101820008F702FE1829F90191124911113C0109293
:101830000A07C0E00DC0EC2FF0E0EE0FFF1FE450F0
:10184000F94F0190F081E02D309709F00995CF5FB5
:10185000C53088F3FF91EF91CF91BF91AF919F91E8
:101860008F917F916F915F914F913F912F910F9049
:081870000FBE0F901F901895A8
:101878008F929F92AF92CF92DF92EF92FF920F9347
:101888001F93CF93DF936B01E82EEA01F22E0E949B
:101898002F0F8F1558F18E2DB6010E94DC128C0186
:1018A8004F2D8E2DB6010E946B0E90E015C046019B
:1018B800AE2C820E931EA11C37FDAA944A2D9401CA
:1018C800F401249147FD2081203259F0FE01E90FEF
:1018D800F11D20838F5F9F5F282F30E0201731078D
:1018E80030F3C90FD11D188281E001C080E0DF917B
:1018F800CF911F910F91FF90EF90DF90CF90AF9015
:061908009F908F900895EE
:10190E006F927F928F92CF92DF92EF923B01882E51
:10191E00809112078111FCCF882DB3010E94DC1239
:10192E00BC0190E012C0292F30E0E82C6301C40EF8
:10193E00D51EE11C57FDEA94F6014491E7FC408167
:10194E00F901E651FB4F40839F5F492F50E0461748
:10195E00570748F3FB01E651FB4F8DE08083FB01F7
:10196E00E551FB4F8AE080836E5F6093120781E042
:10197E00809311078091EA048093CE00EF90DF9060
:0A198E00CF908F907F906F90089526
:10199800E89409C097FB3EF4909580957095619501
:1019A8007F4F8F4F9F4F9923A9F0F92F96E9BB27B7
:1019B8009395F695879577956795B795F111F8CF33
:1019C800FAF4BB0F11F460FF1BC06F5F7F4F8F4F9E
:1019D8009F4F16C0882311F096E911C0772321F094
:1019E8009EE8872F762F05C0662371F096E8862F2C
:1019F80070E060E02AF09A95660F771F881FDAF783
:0A1A0800880F9695879597F90895C9
:101A1200CF92DF92EF920F931F93CF938A0122E02E
:101A22004CEA56E00E943C0CC82F882329F18CEA2C
:101A320096E06C0120E8E22E8E2DB6010E94DC12A7
:101A42004097C9F48E2DB6010E946F11C82F8111E3
:101A520009C027E030E04DE153E060E0C8010E9498
:101A62004D120AC028E030E044E253E060E0C801D1
:101A72000E944D1201C0C0E08C2FCF911F910F9197
:081A8200EF90DF90CF90089572
:101A8A00CF92DF92EF920F931F93CF938A0122E0B6
:101A9A004CEA56E00E943C0CC82F882329F18CEAB4
:101AAA0096E06C0120E8E22E8E2DB6010E94DC122F
:101ABA004097C9F48E2DB6010E948C11C82F81114E
:101ACA0009C027E030E04DE153E060E0C8010E9420
:101ADA004D120AC028E030E044E253E060E0C80159
:101AEA000E944D1201C0C0E08C2FCF911F910F911F
:081AFA00EF90DF90CF900895FA
:101B0200CF92DF92EF920F931F93CF938A0122E03D
:101B12004CEA56E00E943C0CC82F882329F18CEA3B
:101B220096E06C0120E8E22E8E2DB6010E94DC12B6
:101B32008097C9F48E2DB6010E94A911C82F811178
:101B420009C027E030E04DE153E060E0C8010E94A7
:101B52004D120AC028E030E044E253E060E0C801E0
:101B62000E944D1201C0C0E08C2FCF911F910F91A6
:081B7200EF90DF90CF90089581
:101B7A000F931F93CF93DF93FB01248121FD03C0B1
:101B8A008FEF9FEF2CC022FF16C047815085258119
:101B9A0036814217530744F4A081B1819D012F5F1A
:101BAA003F4F318320838C93278130852F5F3F4FAE
:101BBA003087278314C08B01EC01FB010184F28575
:101BCA00E02D0995892BE1F6D80117968D919C9104
:101BDA001897019618969C938E931797CE01DF91CA
:081BEA00CF911F910F910895A6
:101BF2001F920F920FB60F9211242F938F939F93E0
:101C0200EF93FF9380910B0781110EC0E0910C07B7
:101C1200E43650F481E08E0F80930C07F0E080915F
:101C2200C600E050FF4F808380910C07833080F024
:101C320090E0FC01E150FF4F20812A3049F4FC0181
:101C4200E250FF4F80818D3019F481E080930B07C1
:101C5200FF91EF919F918F912F910F900FBE0F9057
:041C62001F90189522
:101C66001F920F920FB60F9211242F938F939F936B
:101C7600EF93FF9380910F0781110EC0E09110073B
:101C8600E63950F481E08E0F80931007F0E08091E2
:101C9600CE00EA5EF94F80838091100790E0FC0148
:101CA600EB5EF94F20812A3049F4FC01EC5EF94FD6
:101CB60080818D3019F481E080930F07FF91EF91B9
:101CC6009F918F912F910F900FBE0F901F90189597
:101CD600CF92DF92EF920F931F93CF93DF9344231C
:101CE60029F1042F6B01E82EC0E0D0E010E014C00B
:101CF600AE2DC6018C0F9D1FA11DD7FDAA95FC0117
:101D06008491A7FD8081803231F41F5F011303C0E7
:101D1600CE0101960DC021968E2DB6010E94DC12D1
:101D2600C817D90728F380E090E002C080E090E071
:101D3600DF91CF911F910F91EF90DF90CF90089593
:101D4600CF92DF92EF920F931F936B01E82E01154E
:101D5600110519F101501109F6018491E7FC808102
:101D6600882399F0F901949147FD9081992369F0B0
:101D76000115110551F0891308C08FEFC81AD80A4A
:101D8600E80A2F5F3F4F4F4FE5CF90E0F9012491CE
:101D960047FD2081821B910902C080E090E01F91DF
:0A1DA6000F91EF90DF90CF900895A9
:101DB000EF92FF920F931F93CF93DF937C0110E07C
:101DC00000E00DC0CE0DDF1D88818E3221F401119F
:101DD00011C001E003C080538A3070F41F5FC12F2F
:101DE000D0E0B70180E80E94DC12C817D90750F391
:101DF00081E003C080E001C080E0DF91CF911F91BE
:081E00000F91FF90EF9008958F
:101E0800CF93DF93EC01BC0180E80E94DC12BC0197
:101E1800FC013197EC0FFD1F80818032B1F020E08A
:101E280030E040E00DC0FE01E20FF31F90819032D8
:101E380021F441110CC041E001C040E02F5F3F4F49
:101E48002617370780F381E003C080E001C080E0F7
:061E5800DF91CF91089517
:101E5E006F927F928F92CF92DF92EF923B01882EFC
:101E6E000E94DC12BC0120E030E080E010C0E82CC3
:101E7E006301C20ED31EE11C37FDEA94F601949164
:101E8E00E7FC9081903209F48F5F2F5F3F4F26174A
:101E9E00370768F3EF90DF90CF908F907F906F9021
:021EAE00089595
:101EB0001F920F920FB60F9211242F933F934F93BF
:101EC0005F936F937F938F939F93AF93BF93EF93A2
:101ED000FF93E0910607F09107070995FF91EF91B5
:101EE000BF91AF919F918F917F916F915F914F9132
:0E1EF0003F912F910F900FBE0F901F901895ED
:101EFE001F920F920FB60F9211242F933F934F9371
:101F0E005F936F937F938F939F93AF93BF93EF9353
:101F1E00FF93E0910807F09109070995FF91EF9162
:101F2E00BF91AF919F918F917F916F915F914F91E3
:0E1F3E003F912F910F900FBE0F901F9018959E
:101F4C00CF92DF92EF92FF920F931F93CF93DF9379
:101F5C008C01BC0180E80E94C414EC01C8010E94F1
:101F6C00960B6B017C01BE0180E090E00E94CC0CD2
:101F7C009B01AC01C701B6010E947414DF91CF9193
:0E1F8C001F910F91FF90EF90DF90CF9008957E
:101F9A000F931F93CF938A0122E04CEA56E00E94E6
:101FAA003C0CC82F8823A9F08CEA96E00E94D80E30
:101FBA00C82F882371F08CEA96E00E94A60F0E942F
:101FCA005E1428E030E044E253E060E0C8010E9479
:0C1FDA004D128C2FCF911F910F91089594
:101FE6000F931F93CF938A0122E04CEA56E00E949A
:101FF6003C0CC82F8823A9F08CEA96E00E94D80EE4
:10200600C82F882371F08CEA96E00E94A60F0E94E2
:10201600651428E030E044E253E060E0C8010E9425
:0C2026004D128C2FCF911F910F91089547
:102032000F931F93CF938A0122E04CEA56E00E944D
:102042003C0CC82F8823A9F08CEA96E00E94D80E97
:10205200C82F882371F08CEA96E00E94A60F0E9496
:102062006C1428E030E044E253E060E0C8010E94D2
:0C2072004D128C2FCF911F910F910895FB
:10207E001F920F920FB60F9211248F93EF93FF932F
:10208E00E0910D0780910E07E81758F481E08E0F4E
:10209E0080930D07F0E0EC59FE4F80818093C600CF
:1020AE0004C010920D0710920E07FF91EF918F91C1
:0A20BE000F900FBE0F901F901895B1
:1020C8001F920F920FB60F9211248F93EF93FF93E5
:1020D800E091110780911207E81758F481E08E0FFC
:1020E80080931107F0E0E651FB4F80818093CE008A
:1020F80004C01092110710921207FF91EF918F916F
:0A2108000F900FBE0F901F90189566
:10211200AFE0B0E0EFE8F0E10C94D4110E891F8932
:1021220086E08D831A8309838FEF9FE79F838E83D7
:102132009E01255E3F4F488D598D6A8DCE010196D5
:102142000E94BA01E885F985E00FF11F10822F96EF
:06215200E4E00C940B1206
:1021580057FD9058440F551F59F05F3F71F0479550
:10216800880F97FB991F61F09F3F79F08795089535
:10217800121613061406551FF2CF4695F1DF08C054
:10218800161617061806991FF1CF86957105610571
:04219800089408950A
:10219C00CF92DF92EF9221503109C0F06B01E82E03
:1021AC00C20ED31EE11CCA01820F931F422F732F44
:1021BC00F6015E2D0E94B314262F0E94401331E0CD
:1021CC00C31AD108E1084150704090F7EF90DF90AE
:0421DC00CF90089503
:1021E000A1E21A2EAA1BBB1BFD010DC0AA1FBB1F1B
:1021F000EE1FFF1FA217B307E407F50720F0A21B8D
:10220000B30BE40BF50B661F771F881F991F1A94F9
:1022100069F760957095809590959B01AC01BD0123
:04222000CF0108954D
:10222400CF92DF92EF926B01E82EF6018491E7FCE6
:102234008081F901549147FD508185130BC0882397
:1022440041F08FEFC81AD80AE80A2F5F3F4F4F4F6B
:10225400ECCF582F90E0851B9109EF90DF90CF9041
:022264000895DB
:10226600E1ECF0E0808180618083808188608083FA
:10227600808180688083808180648083E0ECF0E0E8
:1022860080818260808386E08093C20080E190E056
:0C2296009093C5008093C40078940895D4
:1022A200E9ECF0E0808180618083808188608083B6
:1022B200808180688083808180648083E8ECF0E0A4
:1022C20080818260808386E08093CA0080E190E012
:0C22D2009093CD008093CC007894089588
:1022DE00CF92DF92EF926B01E82E0E94DC124097B4
:1022EE0079F420E130E040E050E08E2DB6010E94FE
:1022FE00CE1061E080E490E00E943F1381E001C0C7
:0A230E0080E0EF90DF90CF9008957B
:10231800CF92DF92EF926B01E82E0E94DC12409779
:1023280079F420E130E040E150E08E2DB6010E94C2
:10233800CE1061E081E490E00E943F1381E001C08B
:0A23480080E0EF90DF90CF90089541
:10235200CF92DF92EF926B01E82E0E94DC128097FF
:1023620079F420E230E040E250E08E2DB6010E9486
:10237200CE1061E082E490E00E943F1381E001C050
:0A23820080E0EF90DF90CF90089507
:10238C002F923F924F925F926F927F928F929F9279
:10239C00AF92BF92CF92DF92EF92FF920F931F9367
:1023AC00CF93DF93CDB7DEB7CA1BDB0B0FB6F89418
:0823BC00DEBF0FBECDBF099486
:1023C400CF93DF93EA01AB01682F80E992E00E948A
:1023D400BE1380E992E00E94CD1380E992E00E944E
:1023E400DB130E9449148823E1F3CE010E94CB142D
:0623F400DF91CF91089576
:1023FA002A88398848885F846E847D848C849B848B
:10240A00AA84B984C884DF80EE80FD800C811B8198
:10241A00AA81B981CE0FD11D0FB6F894DEBF0FBEC7
:06242A00CDBFED01089595
:10243000CF92DF92EF926B01E82EA82FCB014115CE
:10244000510531F48C199D09EF90DF90CF900895DC
:10245000FC012491A7FD20812223A1F30196A11D57
:0624600041505109ECCFD0
:10246600DC0190E00BC0292F30E0FD01E20FF31FE5
:102476004081F901EC59FE4F40839F5F961798F310
:1024860060930E0781E080930D078091640180932D
:04249600C6000895DF
:10249A00CF92DF92EF92DC016A01E62E280F391FF4
:1024AA00A217B30751F0F6014491E7FC40814D931E
:1024BA004FEFC41AD40AE40AF3CFEF90DF90CF901B
:0224CA00089573
:1024CC000F931F93CF938C010E940114C82F882364
:1024DC0051F020E130E040E050E060E0C8010E94A3
:1024EC002D13F801108A8C2FCF911F910F91089505
:1024FC000F931F93CF938C010E940C14C82F882329
:10250C0051F020E130E040E150E060E0C8010E9471
:10251C002D13F801108A8C2FCF911F910F910895D4
:10252C000F931F93CF938C010E941714C82F8823ED
:10253C0051F020E230E040E250E060E0C8010E943F
:10254C002D13F80110A28C2FCF911F910F9108958C
:10255C00BC0190E009C0FB01E90FF11DDA01A050AC
:10256C00BF4F2C9120839F5F492F50E020910C0787
:0E257C0030E022503109421753076CF30895E6
:10258A00BC0190E009C0FB01E90FF11DDA01AA5E66
:10259A00B94F2C9120839F5F492F50E0209110075B
:0E25AA0030E022503109421753076CF30895B8
:1025B800CF92DF92EF926B01E82EA82FCB01FC019E
:1025C8002491A7FD2081222319F00196A11DF7CFA0
:0C25D8008C199D09EF90DF90CF900895C2
:1025E4000F931F93CF938C010E94AE12C0910C07DE
:1025F400C250F801EC0FF11D10820E94A9148C2F17
:08260400CF911F910F91089581
:10260C000F931F93CF938C010E94C512C09110079A
:10261C00C250F801EC0FF11D10820E94AE148C2FE9
:08262C00CF911F910F91089559
:102634000F931F93BC0180E804E010E02CEB32E020
:1026440040E00E94A30E892B11F484E001C083E0D2
:062654001F910F91089593
:10265A00BA01A901DC01CB01FC01F999FECF06C040
:10266A00F2BDE1BDF89A319600B40D924150504046
:04267A00B8F7089510
:10267E00262FF999FECF92BD81BDF89A019700B42D
:10268E00021639F01FBA20BD0FB6F894FA9AF99ACD
:04269E000FBE0895CE
:1026A200092E0394000C11F4882352F0BB0F40F45E
:1026B200BF2B11F460FF04C06F5F7F4F8F4F9F4F9E
:0226C200089579
:1026C400FC018081823731F0873731F0833631F471
:1026D40089E0089587E0089588E0089585E00895E5
:1026E400DB018F939F930E942214BF91AF91A29F0D
:1026F400800D911DA39F900DB29F900D11240895FC
:10270400CF93DF93EC0163E470E080E00E949614C1
:0E271400688379838A839B83DF91CF91089538
:10272200CF93DF93EC0167E470E080E00E9496149F
:0E273200688379838A839B83DF91CF9108951A
:10274000CF93DF93EC016BE470E080E00E9496147D
:0E275000688379838A839B83DF91CF910895FC
:10275E00A29FB001B39FC001A39F700D811D1124D4
:0E276E00911DB29F700D811D1124911D0895C3
:10277C009A01462FDC01F901549147FD50815D937C
:0E278C00552321F02F5F3F4F4F4FF5CF08959B
:10279A00FC0101900020E9F7CF0123E030E04BEE85
:0C27AA0051E060E001970E944D1208957C
:1027B600CF93DF93EC01BC0180E80E94DC12682F06
:0C27C600CE010E943312DF91CF910895E4
:1027D2000E9417092FEF8DE399E421508040904029
:0827E200E1F700C00000F4CF94
:1027EA000396272F0E9440130E943F13252F0E9411
:0827FA004013242F0C9440133E
:1028020060E470E080E80E94401491E0811101C010
:0628120090E0892F0895FB
:1028180061E470E080E80E94401491E0811101C0F9
:0628280090E0892F0895E5
:10282E0062E470E080E80E94401491E0811101C0E2
:06283E0090E0892F0895CF
:102844000E94AF13A59F900DB49F900DA49F800D7F
:06285400911D11240895FE
:10285A001F920F920FB60F9211240F900FBE0F9076
:04286A001F9018950E
:10286E0091110C94D114803219F089508550C8F70B
:02287E000895BB
:10288000CB01F999FECF92BD81BDF89A992780B509
:022890000895A9
:0E28920090910B0781E0911101C080E0089544
:0E28A00090910F0781E0911101C080E0089532
:0E28AE009091100781E0953908F480E00895BC
:0E28BC00AB01BC0183E490E00E94F513089587
:0E28CA00AB01BC0187E490E00E94F513089575
:0E28D800AB01BC018BE490E00E94F513089563
:0E28E6005058BB27AA270E94D10A0C94511308
:0E28F40000240A941616170618060906089501
:0E29020000240A941216130614060506089502
:0E291000E894BB2766277727CB0197F9089537
:0E291E002AE030E040E050E00E945C050895A1
:0E292C00CB01A6E1B0E044E050E00C94311382
:0C293A0097F99F6780E870E060E0089566
:0C294600EE0FFF1F0590F491E02D0994A6
:0A29520010920B0710920C07089575
:0A295C0010920F0710921007089563
:0A29660057FD608157FF649108954A
:0829700084B1806184B908956F
:082978000E94F8090C945113B0
:082980000E94670A0C94511338
:082988000E948F14CB01089599
:062990000E94E21108950F
:062996000E94F2120895F8
:06299C009FEF80EC08959E
:0629A20099278827089523
:0429A8000C9400008B
:00000001FF
