:100000000C94BE000C949F090C949F090C947709E2
:100010000C949F090C949F090C949F090C949F09C0
:100020000C949F090C943B060C949F090C949F0917
:100030000C949F090C9491070C949F090C949F09B0
:100040000C946A070C949F090C949F090C949F09C7
:100050000C94C3060C949F090C94B8070C949F0948
:100060000C949F090C949F090C949F090C949F0970
:100070000C94FD060C949F090C94DD0701000531DA
:10008000800000407A10F35A00A0724E1809001048
:10009000A5D4E80000E87648170000E40B540200FD
:1000A00000CA9A3B000000E1F50500008096980028
:1000B000000040420F000000A08601000000102751
:1000C00000000000E80300000000640000000000E1
:1000D0000A00000000000100000000002C76D88813
:1000E000DC674F0823DFC1DFAE59E1B1B796E5E326
:1000F000E453C63AE651997696E8E6C28426EB893F
:100100008C9B62ED407C6FFCEFBC9C9F40F2BAA5DB
:100110006FA5F490055A2AF75C936B6CF9676DC173
:100120001BFCE0E40D47FEF520E6B500D0ED902E77
:100130000300943577050080841E080000204E0AD5
:10014000000000C80C333333330F986E1283114113
:10015000EF8D2114893BE65516CFFEE6DB18D184DE
:100160004B381BF77C1D901DA4BBE4242032847205
:100170005E228100C9F124ECA1E53D2711241FBEB8
:10018000CFEFD0E1DEBFCDBFECE7F0E040E017C03D
:10019000B591A59135912591059107FD0CC09591DB
:1001A0008591EF01F92FE82F05900D92A217B30763
:1001B000D9F7FE0104C01D92A217B307E1F7E13899
:1001C000F40731F70E948D090C94E600F894FFCFF4
:1001D0004F4B200054525920414741494E20004383
:1001E0004F4E465F45525220004641494C20003058
:1001F00030303441333042303046343534374100CA
:100200003730423344353745443030334638343460
:100210000042383841443644323541334232374364
:100220003639413031463734433533463941313739
:100230003900737973206765742068776575690084
:0B0240005374617274696E673A20000D
:10024B0025303278000D0A0073797320736C656565
:10025B007000257320256C64002573202573006DB9
:10026B0061632073657420646576657569006D61E3
:10027B00632073657420617070657569006D6163CF
:10028B0020736574206170706B6579006F66660012
:10029B006D61632073657420616472006F6E006D15
:1002AB00616320747820636E6600257320257520AA
:0302BB00257300A8
:0802BE00696E66006E616E00BE
:1002C600A4E1B0E0E9E6F1E00C9444086C011A01FF
:1002D600462E5901FC0110861782848181FF62C374
:1002E600CE0101969D878C87A0E88A8B9B8BAC8B71
:1002F600F101849147FC8081882309F44FC3442D82
:1003060091012F5F3F4F4F4F853219F01901442E4F
:100316000AC0F901849147FD808192E0290E311CC3
:10032600411C853249F4B60190E00E948706BF86DB
:10033600AE86AE84BF84DCCF10E0F12C00E0003244
:10034600A0F48B3269F030F4803259F0833269F4CC
:1003560000612CC08D3239F0803339F4016026C03B
:100366000260046023C0086021C007FD29C090ED2B
:10037600980F9A3078F406FF06C0AAE01A9F900DEF
:100386001124192F13C0EAE0FE9E900D1124F92EB8
:1003960000620CC08E3221F406FD00C3006406C064
:1003A6008C3611F4006802C0883651F4F10184914C
:1003B60047FC8081FFEF2F1A3F0A4F0A8111BFCFFA
:1003C6009BEB980F933018F40061805E06C09BE9A2
:1003D600980F933008F066C10F7E06FF16E00F7384
:1003E600702E853621F4202F2064722E08C08636A2
:1003F60021F4802F8068782E02C01111115077FEEB
:1004060007C01C3350F4EE24E394E10E27E00BC042
:10041600183038F027E017E005C027E06CE3E62E39
:1004260002C0212FE12CF5013496FF87EE87F501F6
:1004360060817181828193810E2DAE014F5F5F4F86
:100446000E9405055C01598050FE02C053FE06C09D
:1004560071FC06C072FE06C000E205C00DE203C0D4
:100466000BE201C000E0852D8C7019F0011173C2FA
:10047600BEC277FE0FC0EA0C54FE04C08A818133E7
:1004860009F4EA941E1474F528E02E1578F538E080
:10049600E32E2CC076FC2AC0812F90E08A159B059E
:1004A6009CF08CEFA8168FEFB80674F0972D906825
:1004B600792E0AC0E2E0F0E0EC0FFD1FE10FF11D1E
:1004C6008081803319F411501111F4CF77FE0EC0DC
:1004D600EE24E394E10E812F90E0A816B9062CF4E1
:1004E6001A1904C0EE24E39401C010E077FE06C09A
:1004F6001A141B0434F4C501019605C085E090E08A
:1005060002C081E090E001110196112331F0212F04
:1005160030E02F5F3F4F820F931F2F2D30E0821761
:10052600930714F4F81A01C0F12C872D897049F449
:10053600FF2039F0B60180E290E00E948706FA9427
:10054600F7CF002329F0B601802F90E00E9487069E
:1005560073FC09C0FF2039F0B60180E390E00E94E9
:100566008706FA94F7CF77FE49C03501B7FE02C079
:10057600612C712CC5018619970988248394912CC6
:100586008C0E9D1E880E991EF501EE19F109F98B48
:10059600E88B012F10E0119501951109FFEF6F16F9
:1005A6007F0629F4B6018EE290E00E948706A61423
:1005B600B70444F088899989861597051CF4F401D7
:1005C600818101C080E3F1E06F1A71082FEF821A72
:1005D600920A601671062CF0B60190E00E9487061A
:1005E600DDCFA614B70439F49A81963318F49533FF
:1005F60011F454FE81E3B60190E051C08A81813343
:1006060019F0952D9F7E592EB60190E00E9487061F
:10061600111105C074FC1CC085E690E01BC0B60134
:100626008EE290E00E94870602E0010F82E011E070
:10063600180FE1E0F0E0EC0FFD1FE80FF11D8081DF
:10064600B60190E00E948706812F1013F0CFE2CF0B
:1006560085E490E0B6010E948706B7FC05C0A114A8
:10066600B10439F454FE05C0B194A194B1088DE2E9
:1006760001C08BE2B60190E00E94870680E3EAE0C3
:10068600AE16B1042CF08F5FAAE0AA1AB108F7CF14
:10069600B60190E00E948706B601C501C0960E9489
:1006A600870672C1833631F0833791F0833509F0BE
:1006B6005DC024C0C50102969F878E87F5018081A3
:1006C60089836A887B888C88AA24A394B12C14C059
:1006D600C50103969F878E87F501608071808280B1
:1006E60006FF03C0412F50E002C04FEF5FEF882D99
:1006F600B3010E9496085C010F7715C0C5010396E9
:100706009F878E87F50160807180828006FF03C017
:10071600412F50E002C04FEF5FEF882DB3010E94DA
:1007260096085C01006803FD1DC08F2D90E0A81699
:10073600B906C0F4B60180E290E00E948706FA94FA
:10074600F4CFF301849187FC8081FFEF6F1A7F0A53
:100756008F0AB60190E00E948706F110FA9421E014
:10076600A21AB108A114B10461F70EC1843611F0C2
:10077600893679F5C50107FF09C004969F878E87DC
:10078600F50160817181828193810AC002969F87FB
:100796008E87F50160817181072E000C880B990BFD
:1007A6000F76E02E97FF0AC090958095709561951B
:1007B6007F4F8F4F9F4FF02FF068EF2E2AE030E0EB
:1007C600AE014F5F5F4F0E94DD05A82E2C85A21A51
:1007D6004BC0853729F40F7EE02E2AE030E025C095
:1007E600902F997FE92E8F36C1F018F4883579F06D
:1007F600D5C0803719F0883721F0D0C0A92FA06165
:10080600EA2EE4FE0DC0EE2DE460EE2E09C004FFD4
:100816000AC0F92FF660EF2E06C028E030E005C0CA
:1008260020E130E002C020E132E0C501E7FE09C068
:1008360004969F878E87F5016081718182819381FD
:1008460008C002969F878E87F5016081718180E0DE
:1008560090E0AE014F5F5F4F0E94DD05A82EFC853C
:10086600AF1A2E2D2F77E22EE6FE0BC00E2D0E7F31
:10087600A11650F4E4FE0AC0E2FC08C00E2D0E7E5E
:1008860005C0BA2C0E2D03C0BA2C01C0B12E04FF30
:100896000DC0FE01EA0DF11D8081803311F4097E41
:1008A60009C002FF06C0B394B39404C0802F8678B3
:1008B60009F0B39403FD11C000FF06C0BF1488F40D
:1008C600FA0C1F2D1B190EC0BF1460F4B60180E28E
:1008D60090E00E948706B394F7CFBF1418F4FB1874
:1008E60002C01A2DF12C04FF10C0B60180E390E07F
:1008F6000E94870602FF17C001FD03C088E790E04B
:1009060002C088E590E0B6010CC0802F867859F0C9
:1009160001FF02C08BE201C080E207FD8DE2B60155
:1009260090E00E948706A11638F4B60180E390E0B5
:100936000E9487061150F7CFAA94E1E0F0E0EC0F91
:10094600FD1FEA0DF11D8081B60190E00E94870629
:10095600A110F2CF19C0F4E0FF1580F584E0F81A73
:1009660073FE23C001112BC053FE2FC052EC852EFF
:1009760052E0952E50E0A52E072D0071F4018491CA
:10098600A7FC8081811128C0FF2009F4D2CCB601D2
:1009960080E290E00E948706FA94F6CFF6018781FE
:1009A60090852CC08FEF9FEF29C0B60180E290E0C2
:1009B6000E948706FA94F110F8CFD4CFF12CB60135
:1009C600802F90E00E948706CFCF4EEB842E42E028
:1009D600942E40E0A42ED0CF01118052B60190E0B3
:1009E6000E948706FFEF8F1A9F0AAF0AC7CF23E040
:1009F6002F1510F483E0B3CFF12CB6CF6496E2E165
:040A06000C947B08C9
:100A0A00283008F027E03327DA01990F311D87FDD6
:100A1A00916000966105710539F432602E5F3D934D
:100A2A0030E32A95E1F708959F3F30F08038710549
:100A3A00610509F03C5F3C5F3D93913008F08068A6
:100A4A00911DDF93CF931F930F93FF92EF92192F6C
:100A5A00987F9695E92F96959695E90FFF27E45288
:100A6A00FF4F99273327EE24FF24A701E7010590BA
:100A7A000894079428F4360FE71EF81E491F511DE3
:100A8A00660F771F881F991F0694A1F70590079490
:100A9A0028F4E70EF81E491F561FC11D770F881F3D
:100AAA00991F661F0694A1F70590079428F4F80E7B
:100ABA00491F561FC71FD11D880F991F661F771F11
:100ACA000694A1F70590079420F4490F561FC71FF3
:100ADA00D81F990F661F771F881F0694A9F784915C
:100AEA001095177041F0D695C79557954795F79485
:100AFA00E7941A95C1F7E2E8F0E068941590159129
:100B0A0035916591959105907FE27395E118F10A07
:100B1A00430B560BC90BD009C0F7E10CF11E431F5A
:100B2A00561FC91FD01D7EF4703311F48A95E6CF83
:100B3A00E894015030F0080F0AF40027021708F46D
:100B4A00202F2395022F7A3328F079E37D932A9573
:100B5A00E9F710C07D932A9589F6069497956795CB
:100B6A00379517951794E118F10A430B560BC90BE1
:100B7A00D00998F023957E9173957A3308F070E343
:100B8A007C932013B8F77E9170617D9330F0839542
:100B9A0071E37D9370E32A95E1F71124EF90FF90BA
:100BAA000F911F91CF91DF91992787FD9095089515
:100BBA00FA01AA27283051F1203181F1E8946F9384
:100BCA006E7F6E5F7F4F8F4F9F4FAF4FB1E03ED02A
:100BDA00B4E03CD0670F781F891F9A1FA11D680FC8
:100BEA00791F8A1F911DA11D6A0F711D811D911DFB
:100BFA00A11D20D009F468943F912AE0269F112470
:100C0A003019305D3193DEF6CF010895462F4770D3
:100C1A00405D4193B3E00FD0C9F7F6CF462F4F702E
:100C2A00405D4A3318F0495D31FD4052419302D08C
:100C3A00A9F7EACFB4E0A695979587957795679532
:100C4A00BA95C9F700976105710508959B01AC0132
:100C5A000A2E06945795479537952795BA95C9F759
:0C0C6A00620F731F841F951FA01D0895CA
:100C76001F920F920FB60F9211242F933F934F930B
:100C86005F936F937F938F939F93AF93BF93CF930E
:100C9600EF93FF93909128059F5F9093280589E035
:100CA600989F212D1124892F821B8695820F82956C
:100CB6008F702FE1829F90191124911113C0109209
:100CC6002805C0E00DC0EC2FF0E0EE0FFF1FE65E3A
:100CD600FA4F0190F081E02D309709F00995CF5F2A
:100CE600C53088F3FF91EF91CF91BF91AF919F915E
:100CF6008F917F916F915F914F913F912F910F90BF
:080D06000FBE0F901F9018951D
:100D0E000F931F93CF93DF93FB01248121FD03C02B
:100D1E008FEF9FEF2CC022FF16C047815085258193
:100D2E0036814217530744F4A081B1819D012F5F94
:100D3E003F4F318320838C93278130852F5F3F4F28
:100D4E003087278314C08B01EC01FB010184F285EF
:100D5E00E02D0995892BE1F6D80117968D919C917E
:100D6E001897019618969C938E931797CE01DF9144
:080D7E00CF911F910F91089520
:100D86001F920F920FB60F9211242F938F939F935A
:100D9600EF93FF938091290581110EC0E0912A05FA
:100DA600E43650F481E08E0F80932A05F0E08091BE
:100DB600C600E050FF4F808380912A05833080F083
:100DC60090E0FC01E150FF4F20812A3049F4FC01FC
:100DD600E250FF4F80818D3019F481E08093290520
:100DE600FF91EF919F918F912F910F900FBE0F90D2
:040DF6001F9018959D
:100DFA001F920F920FB60F9211242F938F939F93E6
:100E0A00EF93FF9380912D0581110EC0E0912E057D
:100E1A00E63950F481E08E0F80932E05F0E0809140
:100E2A00CE00EC57FB4F808380912E0590E0FC01A9
:100E3A00ED57FB4F20812A3049F4FC01EE57FB4F56
:100E4A0080818D3019F481E080932D05FF91EF9117
:100E5A009F918F912F910F900FBE0F901F90189511
:100E6A00CF92DF92EF920F931F93CF936B01E82EED
:100E7A00C0E012C08C2F90E04E2D9601200F311F3A
:100E8A00411D17FD4A95F901249147FD2081FC0176
:100E9A00EC59FE4F2083CF5F0C2F10E08E2DB60148
:100EAA000E9412090817190728F380932C0581E07C
:100EBA0080932B05809164018093C600CF911F9186
:0A0ECA000F91EF90DF90CF90089594
:100ED4001F920F920FB60F9211242F933F934F93AB
:100EE4005F936F937F938F939F93AF93BF93EF938E
:100EF400FF93E0912405F09125050995FF91EF9169
:100F0400BF91AF919F918F917F916F915F914F911D
:0E0F14003F912F910F900FBE0F901F901895D8
:100F22001F920F920FB60F9211242F933F934F935C
:100F32005F936F937F938F939F93AF93BF93EF933F
:100F4200FF93E0912605F09127050995FF91EF9116
:100F5200BF91AF919F918F917F916F915F914F91CF
:0E0F62003F912F910F900FBE0F901F9018958A
:100F70001F920F920FB60F9211248F93EF93FF934E
:100F8000E0912B0580912C05E81758F481E08E0F35
:100F900080932B05F0E0EC59FE4F80818093C600D2
:100FA00004C010922B0510922C05FF91EF918F91A8
:0A0FB0000F900FBE0F901F901895D0
:100FBA001F920F920FB60F9211248F93EF93FF9304
:100FCA00E0912F0580913005E81758F481E08E0FE3
:100FDA0080932F05F0E0E85AFC4F80818093CE0081
:100FEA0004C010922F0510923005FF91EF918F9156
:0A0FFA000F900FBE0F901F90189586
:101004000F931F93CF93DF93CDB7DEB76E970FB6D1
:10101400F894DEBF0FBECDBF8E010F5F1F4FA80136
:1010240062E372E080E00E949609B80180E80E94C1
:1010340035076E960FB6F894DEBF0FBECDBFDF91B5
:08104400CF911F910F91089557
:10104C00E1ECF0E080818061808380818860808326
:10105C00808180688083808180648083E0ECF0E014
:10106C0080818260808386E08093C20080E190E082
:0C107C009093C5008093C4007894089500
:101088002F923F924F925F926F927F928F929F9290
:10109800AF92BF92CF92DF92EF92FF920F931F937E
:1010A800CF93DF93CDB7DEB7CA1BDB0B0FB6F8942F
:0810B800DEBF0FBECDBF09949D
:1010C000CF93DF93EA01AB01682F80E992E00E94A1
:1010D0004C0980E992E00E945B0980E992E00E945D
:1010E00069090E9481098823E1F3CE010E949909D0
:0610F000DF91CF9108958D
:1010F6002A88398848885F846E847D848C849B84A2
:10110600AA84B984C884DF80EE80FD800C811B81AF
:10111600AA81B981CE0FD11D0FB6F894DEBF0FBEDE
:06112600CDBFED010895AC
:10112C00CF92DF92EF926B01E82EA82FCB014115E5
:10113C00510531F48C199D09EF90DF90CF900895F3
:10114C00FC012491A7FD20812223A1F30196A11D6E
:06115C0041505109ECCFE7
:10116200DC0190E00BC0292F30E0FD01E20FF31FFC
:101172004081F901EC59FE4F40839F5F961798F327
:1011820060932C0581E080932B058091640180930C
:04119200C6000895F6
:10119600CF92DF92EF92DC016A01E62E280F391F0B
:1011A600A217B30751F0F6014491E7FC40814D9335
:1011B6004FEFC41AD40AE40AF3CFEF90DF90CF9032
:0211C60008958A
:1011C800BC0190E009C0FB01E90FF11DDA01A05054
:1011D800BF4F2C9120839F5F492F50E020912A0513
:0E11E80030E022503109421753076CF308958E
:1011F6000E9426080E9492090E943C0960E472E05F
:1012060080E00E9435070E9402082FEF8DE399E4E3
:0E121600215080409040E1F700C00000EFCF73
:10122400CF92DF92EF926B01E82EA82FCB01FC0145
:101234002491A7FD2081222319F00196A11DF7CF47
:0C1244008C199D09EF90DF90CF90089569
:101250000F931F93CF938C010E94E408C0912A053D
:10126000C250F801EC0FF11D10820E9488098C2FEA
:08127000CF911F910F91089529
:1012780082E08093B0001092B1001092B6001092F4
:10128800B2009BEF9093B300809370007894089518
:101298009A01462FDC01F901549147FD50815D9375
:0E12A800552321F02F5F3F4F4F4FF5CF089594
:1012B600FC0101900020E9F7CF0123E030E040E592
:0C12C60052E060E001970E94CB08089500
:1012D200CF93DF93EC01BC0180E80E941209682FD2
:0C12E200CE010E94B108DF91CF91089569
:1012EE001F920F920FB60F9211240F900FBE0F90F8
:0412FE001F90189590
:0E1302009091290581E0911101C080E00895CD
:0A1310001092290510922A05089595
:0A131A000E949C0980E090E0089515
:0813240084B1806184B90895D1
:06132C000E946008089514
:061332000E942809089545
:061338000E94FB0808956D
:04133E000C9400000B
:00000001FF
