:100000000C9447000C94CE050C94F1050C94F1056A
:100010000C94F1050C94F1050C94F1050C94F10588
:100020000C94F1050C94F1050C94F1050C94F10578
:100030000C94F1050C9479040C94F1050C94F105E1
:100040000C944C030C94F1050C94F1050C94F105FF
:100050000C94D2030C94F1050C94A0040C94F105BB
:100060000C94F1050C94F1050C94F1050C94F10538
:100070000C940C040C94F1050C94C5040100035A73
:1000800080035A035C000BE6035C036680001124C6
:100090001FBECFEFD0E1DEBFCDBFECE7F0E040E028
:1000A00017C0B591A59135912591059107FD0CC01B
:1000B00095918591EF01F92FE82F05900D92A217E8
:1000C000B307D9F7FE0104C01D92A217B307E1F7E9
:1000D000ED38F40731F70E94EE050C946F00F894A8
:0200E000FFCF50
:0A00E20052554E2000202575200025
:1000EC002F923F924F926F927F928F929F92AF92EC
:1000FC00BF92CF92DF92EF92FF920F931F93CF9309
:10010C00DF93CDB7DEB762970FB6F894DEBF0FBEA4
:10011C00CDBF6C013A01862E7901FC011086178245
:10012C00848181FFE7C19E012F5F3F4F3D872C8764
:10013C00C901A0E8888B998BAA8B9FE3992EF301B8
:10014C00849187FC8081882309F4D0C1482D9301C8
:10015C002F5F3F4F4F4F853219F03901842E0AC063
:10016C00F901849147FD808192E0690E711C811C1C
:10017C00853229F4B60190E00E949603E0CFB12CB1
:10018C0000E010E01032A0F48B3269F030F48032D1
:10019C0059F0833269F410612CC08D3239F0803300
:1001AC0039F4116026C01260146023C0186021C09D
:1001BC0017FD29C090ED980F9A3078F416FF06C001
:1001CC00AAE0BA9E900D1124B92E13C0EAE00E9F3E
:1001DC00900D1124092F10620CC08E3221F416FDE3
:1001EC0085C1106406C08C3611F4106802C08836C4
:1001FC0051F4F301849187FC8081FFEF6F1A7F0A21
:10020C008F0A8111BFCF982F9F7D9554933028F47E
:10021C0024E0E20EF11C99820FC0833631F0833753
:10022C0091F0833509F063C027C0F7018081898381
:10023C0097012E5F3F4F7901288839884A88AA2474
:10024C00A394B12C17C0A7014D5F5F4F5F874E87FA
:10025C00F70120803180428016FF03C04B2D50E007
:10026C0002C04FEF5FEF842DB1010E9447055C0186
:10027C00EE84FF841F7718C097012D5F3F4F3F8797
:10028C002E87F70120803180428016FF03C04B2D52
:10029C0050E002C04FEF5FEF842DB1010E94470583
:1002AC005C011068EE84FF8413FD1DC0802F90E06C
:1002BC00A816B906C0F4B60180E290E00E9496033D
:1002CC000150F4CFF101849147FC8081FFEF2F1A8C
:1002DC003F0A4F0AB60190E00E94960301110150AB
:1002EC0021E0A21AB108A114B10461F7F5C084365B
:1002FC0011F0893671F5F70117FF08C06081718123
:10030C008281938197012C5F3F4F09C0608171817D
:10031C00072E000C880B990B97012E5F3F4F79012C
:10032C001F76312E97FF0AC0909580957095619538
:10033C007F4F8F4F9F4F312F3068332E2AE030E0A4
:10034C00AE014F5F5F4F0E949A02482E4C85441AB3
:10035C004AC0853729F41F7EA12E2AE030E025C043
:10036C00512F597FA52E8F36C1F018F4883579F0AE
:10037C00BDC0803719F0883721F0B8C0852F806157
:10038C00A82EA4FE0DC09A2D9460A92E09C014FFAE
:10039C000AC0A52FA660AA2E06C028E030E005C032
:1003AC0020E130E002C020E132E0F701A7FE08C0F6
:1003BC006081718182819381A7014C5F5F4F07C07F
:1003CC006081718180E090E0A7014E5F5F4F7A0100
:1003DC00AE014F5F5F4F0E949A02482E5C85451A12
:1003EC008A2D8F77382E36FE0DC0932D9E7FA92E29
:1003FC004B1458F434FE0BC032FC09C0A32DAE7E56
:10040C00AA2E05C0142DA32C03C0142D01C01B2D26
:10041C00A4FE0EC0FE01E40DF11D8081803321F499
:10042C00EA2DE97EAE2E08C0A2FE05C01E5F04C0F8
:10043C008A2D867809F01F5FA3FC11C0A0FE06C0B0
:10044C00101788F4040DB02EB11A0EC0101760F4FA
:10045C00B60180E290E00E9496031F5FF7CF101761
:10046C0018F4011B02C0B42C00E0A4FE10C0B601AD
:10047C0080E390E00E949603A2FE17C0A1FC03C08B
:10048C0088E790E002C088E590E0B6010CC08A2DA8
:10049C00867859F0A1FE02C08BE201C080E2A7FC75
:1004AC008DE2B60190E00E9496034B1438F4B6012D
:1004BC0080E390E00E949603BA94F7CF4A94E1E06F
:1004CC00F0E0EC0FFD1FE40DF11D8081B60190E012
:1004DC000E9496034110F2CF002309F430CEB601EE
:1004EC0080E290E00E9496030150F6CFF6018781DE
:1004FC00908502C08FEF9FEF62960FB6F894DEBF27
:10050C000FBECDBFDF91CF911F910F91FF90EF9058
:10051C00DF90CF90BF90AF909F908F907F906F9017
:08052C004F903F902F900895BD
:10053400FA01AA27283051F1203181F1E8946F9310
:100544006E7F6E5F7F4F8F4F9F4FAF4FB1E03ED0B6
:10055400B4E03CD0670F781F891F9A1FA11D680F54
:10056400791F8A1F911DA11D6A0F711D811D911D87
:10057400A11D20D009F468943F912AE0269F1124FC
:100584003019305D3193DEF6CF010895462F477060
:10059400405D4193B3E00FD0C9F7F6CF462F4F70BB
:1005A400405D4A3318F0495D31FD4052419302D019
:1005B400A9F7EACFB4E0A6959795879577956795BF
:1005C400BA95C9F700976105710508959B01AC01BF
:1005D4000A2E06945795479537952795BA95C9F7E6
:0C05E400620F731F841F951FA01D089557
:1005F0000F931F93CF93DF93CDB7DEB76E970FB6F0
:10060000F894DEBF0FBECDBF68ED75E080EA9FE0D5
:100610000E947D0562EE70E080E00E9444040E942A
:10062000E2052FEF81E19AE7215080409040E1F709
:1006300000C000000E94E80580915D038F938091C7
:100640005C038F9387EE90E0A0E0AF939F938F932E
:100650008E010F5F1F4F1F930F930E94EA04B80192
:1006600080E80E9444042FEF83ED90E32150804006
:100670009040E1F700C000000FB6F894DEBF0FBE57
:10068000CDBF6E960FB6F894DEBF0FBECDBFDF9123
:08069000CF911F910F91089515
:100698001F920F920FB60F9211242F933F934F93EF
:1006A8005F936F937F938F939F93AF93BF93EF93D2
:1006B800FF9340915A0350915B034F5F5F4F5093F4
:1006C8005B0340935A039A01ADECBCEC0E94BF0552
:1006D8009695879596958795969587959C01220F6F
:1006E800331F880F991F880F991F880F991F820F32
:1006F800931F4817590729F4E0910001F09101016F
:100708000995FF91EF91BF91AF919F918F917F9143
:100718006F915F914F913F912F910F900FBE0F9066
:040728001F90189571
:10072C000F931F93CF93DF93FB01248121FD03C013
:10073C008FEF9FEF2CC022FF16C04781508525817B
:10074C0036814217530744F4A081B1819D012F5F7C
:10075C003F4F318320838C93278130852F5F3F4F10
:10076C003087278314C08B01EC01FB010184F285D7
:10077C00E02D0995892BE1F6D80117968D919C9166
:10078C001897019618969C938E931797CE01DF912C
:08079C00CF911F910F91089508
:1007A4001F920F920FB60F9211242F938F939F9342
:1007B400EF93FF9380915E0381110EC0E0915F037C
:1007C400E43650F481E08E0F80935F03F0E0809173
:1007D400C600EE5FFE4F808380915F03833080F01C
:1007E40090E0FC01EF5FFE4F20812A3049F4FC01C8
:1007F400E050FF4F80818D3019F481E080935E03D7
:10080400FF91EF919F918F912F910F900FBE0F90B9
:040814001F90189584
:100818001F920F920FB60F9211242F938F939F93CD
:10082800EF93FF938091620381110EC0E0916303FF
:10083800E43650F481E08E0F80936303F0E08091FA
:10084800CE00EA50FD4F80838091630390E0FC0165
:10085800EB50FD4F20812A3049F4FC01EC50FD4F4C
:1008680080818D3019F481E080936203FF91EF91CC
:100878009F918F912F910F900FBE0F901F901895F9
:10088800CF92DF92EF920F931F93CF936B01E82ED5
:10089800C0E012C08C2F90E04E2D9601200F311F22
:1008A800411D17FD4A95F901249147FD2081FC015E
:1008B800E25DFD4F2083CF5F0C2F10E08E2DB60137
:1008C8000E9497050817190728F38093650381E0AC
:1008D8008093640380912E028093CE00CF911F9164
:0A08E8000F91EF90DF90CF9008957C
:1008F2001F920F920FB60F9211242F933F934F9393
:100902005F936F937F938F939F93AF93BF93EF9375
:10091200FF93E0910001F09101010995FF91EF91A0
:10092200BF91AF919F918F917F916F915F914F9105
:0E0932003F912F910F900FBE0F901F901895C0
:100940001F920F920FB60F9211248F93EF93FF9384
:10095000E091600380916103E81758F481E08E0F05
:1009600080936003F0E0EA59FE4F80818093C600D7
:1009700004C01092600310926103FF91EF918F9178
:0A0980000F900FBE0F901F90189506
:10098A001F920F920FB60F9211248F93EF93FF933A
:10099A00E091640380916503E81758F481E08E0FB3
:1009AA0080936403F0E0E25DFD4F80818093CE0086
:1009BA0004C01092640310926503FF91EF918F9126
:0A09CA000F900FBE0F901F901895BC
:1009D400AFE0B0E0E0EFF4E00C9439050E891F8934
:1009E40086E08D831A8309838FEF9FE79F838E832D
:1009F4009E01255E3F4F488D598D6A8DCE0101962B
:100A04000E947600E885F985E00FF11F10822F9689
:060A1400E4E00C94700503
:100A1A00E9ECF0E080818061808380818860808356
:100A2A00808180688083808180648083E8ECF0E044
:100A3A0080818260808386E08093CA0080E190E0B2
:0C0A4A009093CD008093CC007894089528
:100A56002F923F924F925F926F927F928F929F92C8
:100A6600AF92BF92CF92DF92EF92FF920F931F93B6
:100A7600CF93DF93CDB7DEB7CA1BDB0B0FB6F89467
:080A8600DEBF0FBECDBF0994D5
:100A8E00CF92DF92EF926B01E82EA82FCB0141158A
:100A9E00510531F48C199D09EF90DF90CF90089598
:100AAE00FC012491A7FD20812223A1F30196A11D13
:060ABE0041505109ECCF8C
:100AC4002A88398848885F846E847D848C849B84DA
:100AD400AA84B984C884DF80EE80FD800C811B81E8
:100AE400AA81B981CE0FD11D0FB6F894DEBF0FBE17
:060AF400CDBFED010895E5
:100AFA001092800028E02093810010928200909347
:100B0A008900809388001092850010928400EFE695
:100B1A00F0E0808182608083789470930101609311
:040B2A000001089529
:100B2E00CF92DF92EF926B01E82EA82FCB01FC0142
:100B3E002491A7FD2081222319F00196A11DF7CF44
:0C0B4E008C199D09EF90DF90CF90089566
:100B5A000E940D0510925D0310925C030E94F80238
:100B6A002FEF83ED90E3215080409040E1F700C0E1
:040B7A000000F0CFB8
:100B7E00A29FB001B39FC001A39F700D811D1124D0
:0E0B8E00911DB29F700D811D1124911D0895BF
:100B9C001F920F920FB60F9211240F900FBE0F9051
:040BAC001F901895E9
:100BB00080915C0390915D03019690935D03809317
:040BC0005C03089535
:0C0BC400E1E8F0E0808185608083089506
:0C0BD000E1E8F0E08081887F80830895D8
:060BDC000E94AD05FFCFF1
:040BE2000C9400006F
:020BE60001000C
:00000001FF
