:100000000C94CB000C9423100C9423100C94CF0F61
:100010000C9423100C9423100C9423100C94231094
:100020000C9423100C94290A0C9423100C94231084
:100030000C9423100C94910C0C9423100C9423100A
:100040000C946A0C0C9423100C9423100C94231021
:100050000C94A30A0C9423100C94DF0C0C94231022
:100060000C9423100C9423100C9423100C94231044
:100070000C94DD0A0C9423100C94040DA405B40612
:10008000C305E10501062106410661067F069D06BE
:10009000AF06C506C7060100049F800000407A1025
:1000A000F35A00A0724E18090010A5D4E80000E829
:1000B0007648170000E40B54020000CA9A3B000087
:1000C00000E1F505000080969800000040420F0016
:1000D0000000A08601000000102700000000E803D7
:1000E000000000006400000000000A0000000000A2
:1000F0000100000000002C76D888DC674F0823DF61
:10010000C1DFAE59E1B1B796E5E3E453C63AE65133
:10011000997696E8E6C28426EB898C9B62ED407C5A
:100120006FFCEFBC9C9F40F2BAA56FA5F490055AF6
:100130002AF75C936B6CF9676DC11BFCE0E40D471B
:10014000FEF520E6B500D0ED902E0300943577053E
:100150000080841E080000204E0A000000C80C33F6
:100160003333330F986E12831141EF8D2114893B85
:10017000E65516CFFEE6DB18D1844B381BF77C1D05
:10018000901DA4BBE424203284725E228100C9F158
:1001900024ECA1E53D2711241FBECFEFD0E1DEBF47
:1001A000CDBFE6E9F0E040E017C0B591A5913591EB
:1001B0002591059107FD0CC095918591EF01F92FCF
:1001C000E82F05900D92A217B307D9F7FE0104C0DE
:1001D0001D92A217B307E1F7EB39F40731F70E943C
:0A01E00000100C94F300F894FFCF18
:1001EA005374617274204C4F524120706F7765725C
:1001FA002074657374004A6F696E206E6574776F38
:10020A00726B004F4B200054525920414741494ECE
:10021A002000434F4E465F45525220004641494C0A
:10022A0020005472616E736D697474696E6720750B
:10023A00706C696E6B004D41435F455252200069F4
:10024A006E76206C656E6774682000446F6E652C4C
:10025A0020706F776572206F666600456E64204C69
:10026A004F524120706F776572207465737400373E
:10027A00304233443537454430303437423744000E
:10028A003030303030303030303030303030303064
:10029A0000454131314134443644333638443543DC
:1002AA0044453130324230343931423430413439C4
:0202BA0034000E
:1002BC0025303278000D0A0073797320736C6565F4
:1002CC007000257320256C64002573202573006D48
:1002DC0061632073657420646576657569006D6172
:1002EC00632073657420617070657569006D61635E
:1002FC0020736574206170706B6579006F666600A1
:10030C006D61632073657420616472006F6E006DA3
:10031C00616320747820636E660025732025752038
:03032C0025730036
:10032F006E6F5F667265655F63680064656E6965B1
:10033F0064006B6579735F6E6F745F696E697400CB
:10034F00524E32343833006D6163207265736574B9
:10035F0020383638006F6B006D61632073617665EE
:10036F00006D6163206A6F696E206F746161006157
:08037F0063636570746564009E
:100387006E6F5F667265655F6368006D61635F6569
:100397007272006D61635F727800696E76616C6975
:1003A700645F646174615F6C656E006F6B006D61A3
:0803B700635F74785F6F6B0057
:0803BF00696E66006E616E00BC
:1003C800A4E1B0E0EAEEF1E00C94730E6C011A01BE
:1003D800462E5901FC0110861782848181FF62C371
:1003E800CE0101969D878C87A0E88A8B9B8BAC8B6E
:1003F800F101849147FC8081882309F44FC3442D7F
:1004080091012F5F3F4F4F4F853219F01901442E4C
:100418000AC0F901849147FD808192E0290E311CC0
:10042800411C853249F4B60190E00E94670ABF86F4
:10043800AE86AE84BF84DCCF10E0F12C00E0003241
:10044800A0F48B3269F030F4803259F0833269F4C9
:1004580000612CC08D3239F0803339F4016026C038
:100468000260046023C0086021C007FD29C090ED28
:10047800980F9A3078F406FF06C0AAE01A9F900DEC
:100488001124192F13C0EAE0FE9E900D1124F92EB5
:1004980000620CC08E3221F406FD00C3006406C061
:1004A8008C3611F4006802C0883651F4F101849149
:1004B80047FC8081FFEF2F1A3F0A4F0A8111BFCFF7
:1004C8009BEB980F933018F40061805E06C09BE99F
:1004D800980F933008F066C10F7E06FF16E00F7381
:1004E800702E853621F4202F2064722E08C086369F
:1004F80021F4802F8068782E02C01111115077FEE8
:1005080007C01C3350F4EE24E394E10E27E00BC03F
:10051800183038F027E017E005C027E06CE3E62E36
:1005280002C0212FE12CF5013496FF87EE87F501F3
:1005380060817181828193810E2DAE014F5F5F4F83
:100548000E94D8065C01598050FE02C053FE06C0C6
:1005580071FC06C072FE06C000E205C00DE203C0D1
:100568000BE201C000E0852D8C7019F0011173C2F7
:10057800BEC277FE0FC0EA0C54FE04C08A818133E4
:1005880009F4EA941E1474F528E02E1578F538E07D
:10059800E32E2CC076FC2AC0812F90E08A159B059B
:1005A8009CF08CEFA8168FEFB80674F0972D906822
:1005B800792E0AC0E2E0F0E0EC0FFD1FE10FF11D1B
:1005C8008081803319F411501111F4CF77FE0EC0D9
:1005D800EE24E394E10E812F90E0A816B9062CF4DE
:1005E8001A1904C0EE24E39401C010E077FE06C097
:1005F8001A141B0434F4C501019605C085E090E087
:1006080002C081E090E001110196112331F0212F01
:1006180030E02F5F3F4F820F931F2F2D30E082175E
:10062800930714F4F81A01C0F12C872D897049F446
:10063800FF2039F0B60180E290E00E94670AFA9440
:10064800F7CF002329F0B601802F90E00E94670AB7
:1006580073FC09C0FF2039F0B60180E390E00E94E6
:10066800670AFA94F7CF77FE49C03501B7FE02C092
:10067800612C712CC5018619970988248394912CC3
:100688008C0E9D1E880E991EF501EE19F109F98B45
:10069800E88B012F10E0119501951109FFEF6F16F6
:1006A8007F0629F4B6018EE290E00E94670AA6143C
:1006B800B70444F088899989861597051CF4F401D4
:1006C800818101C080E3F1E06F1A71082FEF821A6F
:1006D800920A601671062CF0B60190E00E94670A33
:1006E800DDCFA614B70439F49A81963318F49533FC
:1006F80011F454FE81E3B60190E051C08A81813340
:1007080019F0952D9F7E592EB60190E00E94670A38
:10071800111105C074FC1CC085E690E01BC0B60131
:100728008EE290E00E94670A02E0010F82E011E089
:10073800180FE1E0F0E0EC0FFD1FE80FF11D8081DC
:10074800B60190E00E94670A812F1013F0CFE2CF24
:1007580085E490E0B6010E94670AB7FC05C0A114C1
:10076800B10439F454FE05C0B194A194B1088DE2E6
:1007780001C08BE2B60190E00E94670A80E3EAE0DC
:10078800AE16B1042CF08F5FAAE0AA1AB108F7CF11
:10079800B60190E00E94670AB601C501C0960E94A2
:1007A800670A72C1833631F0833791F0833509F0D7
:1007B8005DC024C0C50102969F878E87F5018081A0
:1007C80089836A887B888C88AA24A394B12C14C056
:1007D800C50103969F878E87F501608071808280AE
:1007E80006FF03C0412F50E002C04FEF5FEF882D96
:1007F800B3010E94AA0E5C010F7715C0C5010396CC
:100808009F878E87F50160807180828006FF03C014
:10081800412F50E002C04FEF5FEF882DB3010E94D7
:10082800AA0E5C01006803FD1DC08F2D90E0A8167C
:10083800B906C0F4B60180E290E00E94670AFA9413
:10084800F4CFF301849187FC8081FFEF6F1A7F0A50
:100858008F0AB60190E00E94670AF110FA9421E02D
:10086800A21AB108A114B10461F70EC1843611F0BF
:10087800893679F5C50107FF09C004969F878E87D9
:10088800F50160817181828193810AC002969F87F8
:100898008E87F50160817181072E000C880B990BFA
:1008A8000F76E02E97FF0AC0909580957095619518
:1008B8007F4F8F4F9F4FF02FF068EF2E2AE030E0E8
:1008C800AE014F5F5F4F0E94EE08A82E2C85A21A3A
:1008D8004BC0853729F40F7EE02E2AE030E025C092
:1008E800902F997FE92E8F36C1F018F4883579F06A
:1008F800D5C0803719F0883721F0D0C0A92FA06162
:10090800EA2EE4FE0DC0EE2DE460EE2E09C004FFD1
:100918000AC0F92FF660EF2E06C028E030E005C0C7
:1009280020E130E002C020E132E0C501E7FE09C065
:1009380004969F878E87F5016081718182819381FA
:1009480008C002969F878E87F5016081718180E0DB
:1009580090E0AE014F5F5F4F0E94EE08A82EFC8525
:10096800AF1A2E2D2F77E22EE6FE0BC00E2D0E7F2E
:10097800A11650F4E4FE0AC0E2FC08C00E2D0E7E5B
:1009880005C0BA2C0E2D03C0BA2C01C0B12E04FF2D
:100998000DC0FE01EA0DF11D8081803311F4097E3E
:1009A80009C002FF06C0B394B39404C0802F8678B0
:1009B80009F0B39403FD11C000FF06C0BF1488F40A
:1009C800FA0C1F2D1B190EC0BF1460F4B60180E28B
:1009D80090E00E94670AB394F7CFBF1418F4FB188D
:1009E80002C01A2DF12C04FF10C0B60180E390E07C
:1009F8000E94670A02FF17C001FD03C088E790E064
:100A080002C088E590E0B6010CC0802F867859F0C6
:100A180001FF02C08BE201C080E207FD8DE2B60152
:100A280090E00E94670AA11638F4B60180E390E0CE
:100A38000E94670A1150F7CFAA94E1E0F0E0EC0FAA
:100A4800FD1FEA0DF11D8081B60190E00E94670A42
:100A5800A110F2CF19C0F4E0FF1580F584E0F81A70
:100A680073FE23C001112BC053FE2FC053EC852EFB
:100A780053E0952E50E0A52E072D0071F4018491C6
:100A8800A7FC8081811128C0FF2009F4D2CCB601CF
:100A980080E290E00E94670AFA94F6CFF601878117
:100AA80090852CC08FEF9FEF29C0B60180E290E0BF
:100AB8000E94670AFA94F110F8CFD4CFF12CB6014E
:100AC800802F90E00E94670ACFCF4FEB842E43E03F
:100AD800942E40E0A42ED0CF01118052B60190E0B0
:100AE8000E94670AFFEF8F1A9F0AAF0AC7CF23E059
:100AF8002F1510F483E0B3CFF12CB6CF6496E2E162
:040B08000C948F0EAC
:100B0C00AF92BF92CF92DF92EF92FF921F93CF934F
:100B1C00DF93CDB7DEB728970FB6F894DEBF0FBEC4
:100B2C00CDBF5C016B017A0110E0E12FF0E0ED30FC
:100B3C00F105D8F7E25CFF4F0C94F50F0E940E10F4
:100B4C002FEF89E698E1215080409040E1F700C0FA
:100B5C0000000E9412104CE050E062E070E0CE0108
:100B6C0001960E94E90F2FE433E040E061E0CE01F2
:100B7C0001960E94EF0F11E0D8CF46E553E060E0FC
:100B8C008EE592E00E94C50E6EE572E080E80E9450
:100B9C00170B4CE050E063E070E0CE0101960E9430
:100BAC00E90F24E633E040E060E0CE0101960E94BC
:100BBC00EF0F11E0BACFB5018EE592E00E944E0D19
:100BCC008EE592E00E94A80F6EE572E080E80E942C
:100BDC00170B4CE050E064E070E0CE0101960E94EF
:100BEC00E90F24E633E040E060E0CE0101960E947C
:100BFC00EF0F11E09ACFB7018EE592E00E94960DAF
:100C0C008EE592E00E94A80F6EE572E080E80E94EB
:100C1C00170B4CE050E065E070E0CE0101960E94AD
:100C2C00E90F24E633E040E060E0CE0101960E943B
:100C3C00EF0F11E07ACFB6018EE592E00E94720DB3
:100C4C008EE592E00E94A80F6EE572E080E80E94AB
:100C5C00170B4CE050E066E070E0CE0101960E946C
:100C6C00E90F24E633E040E060E0CE0101960E94FB
:100C7C00EF0F11E05ACF61E08EE592E00E94F70E83
:100C8C008EE592E00E94A80F6EE572E080E80E946B
:100C9C00170B4CE050E067E070E0CE0101960E942B
:100CAC00E90F24E633E040E060E0CE0101960E94BB
:100CBC00EF0F11E03ACF47E653E060E08EE592E0AB
:100CCC000E94C50E6EE572E080E80E94170B4CE0A6
:100CDC0050E068E070E0CE0101960E94E90F24E636
:100CEC0033E040E060E0CE0101960E94EF0F11E08E
:100CFC001CCF40E753E060E08EE592E00E94C50E09
:100D0C006EE572E080E80E94170B4AE050E069E063
:100D1C0070E0CE0101960E94E90F24E633E040E03A
:100D2C0060E0CE0101960E94EF0F11E0FECE4AE08A
:100D3C0050E06BE070E0CE0101960E94E90F2EE7C7
:100D4C0033E040E060E0CE0101960E94EF0F11E02D
:100D5C00ECCE8EE592E00E94140C14C00E94E20FBF
:100D6C00882309F4E2CE8EE592E00E94530F6EE5E3
:100D7C0072E0CE0101960E94E60B182FD6CE80E0D1
:100D8C0001C081E028960FB6F894DEBF0FBECDBF30
:100D9C00DF91CF911F91FF90EF90DF90CF90BF909C
:040DAC00AF90089567
:100DB000283008F027E03327DA01990F311D87FD2D
:100DC000916000966105710539F432602E5F3D93A4
:100DD00030E32A95E1F708959F3F30F080387105A0
:100DE000610509F03C5F3C5F3D93913008F08068FD
:100DF000911DDF93CF931F930F93FF92EF92192FC3
:100E0000987F9695E92F96959695E90FFF27EA50DA
:100E1000FF4F99273327EE24FF24A701E701059010
:100E20000894079428F4360FE71EF81E491F511D39
:100E3000660F771F881F991F0694A1F705900794E6
:100E400028F4E70EF81E491F561FC11D770F881F93
:100E5000991F661F0694A1F70590079428F4F80ED1
:100E6000491F561FC71FD11D880F991F661F771F67
:100E70000694A1F70590079420F4490F561FC71F49
:100E8000D81F990F661F771F881F0694A9F78491B2
:100E90001095177041F0D695C79557954795F794DB
:100EA000E7941A95C1F7ECE9F0E068941590159174
:100EB00035916591959105907FE27395E118F10A5E
:100EC000430B560BC90BD009C0F7E10CF11E431FB1
:100ED000561FC91FD01D7EF4703311F48A95E6CFDA
:100EE000E894015030F0080F0AF40027021708F4C4
:100EF000202F2395022F7A3328F079E37D932A95CA
:100F0000E9F710C07D932A9589F606949795679521
:100F1000379517951794E118F10A430B560BC90B37
:100F2000D00998F023957E9173957A3308F070E399
:100F30007C932013B8F77E9170617D9330F0839598
:100F400071E37D9370E32A95E1F71124EF90FF9010
:100F50000F911F91CF91DF91992787FD909508956B
:100F60001F93CF93DF93CDB7DEB7C657D1090FB626
:100F7000F894DEBF0FBECDBF29E732E040E081E14B
:100F8000F901DE011196742F0E94B60F2AE832E0B3
:100F900040E081E1F901DE015296742F0E94B60F04
:100FA0002BE932E040E081E2F901DE019396742FF3
:100FB0000E94B60F80E009C0E4E4F0E0EC0FFD1FF2
:100FC000E80FF11D9AEA90838F5F8333A8F36AEEEE
:100FD00071E080E00E94A20960E072E080E00E947F
:100FE000A209AE014D5D5F4FBE016E5E7F4FCE0127
:100FF00001960E941D10811107C06DE072E080E033
:101000000E94A20910E04CC0823031F461E172E02C
:1010100080E00E94A2095BC0833031F46CE172E091
:1010200080E00E94A20953C066E272E080E00E9464
:10103000A2094DC06CE272E080E00E94A20963E365
:10104000CE018C5B9F4F0E94260F811106C06DE080
:1010500072E080E00E94A2091EC0823031F461E19A
:1010600072E080E00E94A20916C0843031F460E48E
:1010700072E080E00E94A2090EC0853031F469E47C
:1010800072E080E00E94A20906C066E272E080E0A1
:101090000E94A2091CC00E9405108823E1F31F5F73
:1010A000123040F265E572E080E00E94A2090E94E1
:1010B000D90F2FEF83ED90E3215080409040E1F76E
:1010C00000C0000065E672E080E00E94A209CA58F4
:1010D000DF4F0FB6F894DEBF0FBECDBFDF91CF91CB
:0410E0001F910895BF
:1010E400DF92EF92FF920F931F93CF93DF93CDB7CD
:1010F400DEB728970FB6F894DEBF0FBECDBFD82E4B
:101104007B01042F10E0123009F440C028F41123AD
:1011140049F0113049F1F7CF133009F44EC01430BF
:10112400D9F1F1CF202FA7016D2D8EE592E00E9419
:101134004C098EE592E00E94A80F6EE572E080E80B
:101144000E94170B42E050E061E070E0CE0101968E
:101154000E94E90F22EB33E040E060E0CE0101960B
:101164000E94EF0F14E0CFCF42E050E063E070E064
:10117400CE0101960E94E90F25EB33E040E060E0E8
:10118400CE0101960E94EF0F14E0BDCF6EE572E030
:1011940080E80E94830B12C00E94E20F882309F4A6
:1011A400B2CF8EE592E00E94530F6EE572E0CE015D
:1011B40001960E94E60B182FA6CF80E028960FB662
:1011C400F894DEBF0FBECDBFDF91CF911F910F9179
:0811D400FF90EF90DF900895F9
:1011DC00FA01AA27283051F1203181F1E8946F935C
:1011EC006E7F6E5F7F4F8F4F9F4FAF4FB1E03ED002
:1011FC00B4E03CD0670F781F891F9A1FA11D680FA0
:10120C00791F8A1F911DA11D6A0F711D811D911DD2
:10121C00A11D20D009F468943F912AE0269F112447
:10122C003019305D3193DEF6CF010895462F4770AB
:10123C00405D4193B3E00FD0C9F7F6CF462F4F7006
:10124C00405D4A3318F0495D31FD4052419302D064
:10125C00A9F7EACFB4E0A69597958795779567950A
:10126C00BA95C9F700976105710508959B01AC010A
:10127C000A2E06945795479537952795BA95C9F731
:0C128C00620F731F841F951FA01D0895A2
:10129800DF92EF92FF920F931F93CF93DF93CDB717
:1012A800DEB7C756D1090FB6F894DEBF0FBECDBF63
:1012B8008C019FEF960F9F3D68F59FEF920F933338
:1012C80060F5D62E30E060E8CE0101967C010E94E0
:1012D800E709C701A0E8AF939F93EF921F92DF92AF
:1012E8008BE193E0A0E0AF939F938F9386E293E026
:1012F800A0E0AF939F938F931F930F930E94BA0D13
:10130800B80180E80E943D0F0FB6F894DEBF0FBE0B
:10131800CDBF05C08FEF9FEF02C08FEF9FEFC95978
:10132800DF4F0FB6F894DEBF0FBECDBFDF91CF9170
:0C1338001F910F91FF90EF90DF9008953F
:101344006F927F928F92CF92DF92EF923B01882E21
:1013540080919B048111FCCF882DB3010E943D0F25
:10136400BC0190E012C0292F30E0E82C6301C40EC8
:10137400D51EE11C57FDEA94F6014491E7FC408137
:10138400F901EA5DFC4F40839F5F492F50E0461707
:10139400570748F3FB01EA5DFC4F8DE08083FB01B6
:1013A400E95DFC4F8AE080836E5F60939B0481E07B
:1013B40080939A04809126038093CE00EF90DF906F
:0A13C400CF908F907F906F900895F6
:1013CE006F927F928F92EF92FF920F931F93CF9314
:1013DE00DF937C013A01862E8901C0E0D0E025C062
:1013EE00A82DC3018C0F9D1FA11DD7FDAA95FC0131
:1013FE002491A7FD2081CE01880F991F1F922F9354
:10140E002CEB32E040E04F933F932F938E0D9F1DB8
:10141E009F938F930E94BA0D21968DB79EB7079614
:10142E000FB6F8949EBF0FBE8DBFC017D107C4F282
:10143E00DF91CF911F910F91FF90EF908F907F9042
:04144E006F900895FE
:101452001F920F920FB60F9211242F933F934F9327
:101462005F936F937F938F939F93AF93BF93CF932A
:10147200EF93FF93809192048F5F80939204803266
:1014820099F410929204C0E00DC0EC2FF0E0EE0F40
:10149200FF1FEC57FB4F0190F081E02D309709F0D0
:1014A2000995CF5FC53088F3FF91EF91CF91BF913E
:1014B200AF919F918F917F916F915F914F913F91EA
:0C14C2002F910F900FBE0F901F901895F7
:1014CE000F931F93CF93DF93FB01248121FD03C064
:1014DE008FEF9FEF2CC022FF16C0478150852581CC
:1014EE0036814217530744F4A081B1819D012F5FCD
:1014FE003F4F318320838C93278130852F5F3F4F61
:10150E003087278314C08B01EC01FB010184F28527
:10151E00E02D0995892BE1F6D80117968D919C91B6
:10152E001897019618969C938E931797CE01DF917C
:08153E00CF911F910F91089558
:101546001F920F920FB60F9211242F938F939F9392
:10155600EF93FF938091940481110EC0E09195045E
:10156600E63950F481E08E0F80939504F0E0809187
:10157600C600E050FF4F808380919504833080F051
:1015860090E0FC01E150FF4F20812A3049F4FC0134
:10159600E250FF4F80818D3019F481E080939404EE
:1015A600FF91EF919F918F912F910F900FBE0F900A
:0415B6001F901895D5
:1015BA001F920F920FB60F9211242F938F939F931E
:1015CA00EF93FF938091980481110EC0E0919904E2
:1015DA00E63950F481E08E0F80939904F0E080910F
:1015EA00CE00E251FC4F808380919904833080F0D1
:1015FA0090E0FC01E351FC4F20812A3049F4FC01C0
:10160A00E451FC4F80818D3019F481E08093980475
:10161A00FF91EF919F918F912F910F900FBE0F9095
:04162A001F90189560
:10162E006F927F928F92CF92DF92EF923B01882E34
:10163E00809197048111FCCF882DB3010E943D0F3C
:10164E00682F90E012C0292F30E0E82C6301C20E03
:10165E00D31EE11C37FDEA94F6014491E7FC40816C
:10166E00F901EA56FE4F40839F5F961760F3809311
:10167E00970481E080939604809196018093C60032
:0E168E00EF90DF90CF908F907F906F90089537
:10169C00CF92DF92EF920F931F936B01E82E0115FF
:1016AC00110519F101501109F6018491E7FC8081B3
:1016BC00882399F0F901949147FD9081992369F061
:1016CC000115110551F0891308C08FEFC81AD80AFB
:1016DC00E80A2F5F3F4F4F4FE5CF90E0F90124917F
:1016EC0047FD2081821B910902C080E090E01F9190
:0A16FC000F91EF90DF90CF9008955A
:10170600CF92DF92EF926B01E82E27E833E040E0BC
:101716000E94DD0D892BE9F022E933E040E08E2DB1
:10172600B6010E94DD0D892BB1F02AE933E040E0D5
:101736008E2DB6010E94290D81110FC021EA33E0DA
:1017460040E08E2DB6010E94290D882341F085E0E8
:1017560007C082E005C084E003C080E001C081E0EC
:08176600EF90DF90CF90089591
:10176E00CF93DF93443651056105710518F1EC01F5
:10177E007F936F935F934F9384EC92E0A0E0AF93CF
:10178E009F938F938EEC92E0A0E0AF939F938F93F5
:10179E00DF93CF930E94BA0DBE0180E80E943D0FE9
:1017AE002DB73EB7245F3F4F0FB6F8943EBF0FBE26
:0E17BE002DBF02C08FEF9FEFDF91CF910895F6
:1017CC00CF93DF93EC018C81813091F018F0823053
:1017DC00E9F01FC02D813E814F8180E80E94DD0D14
:1017EC00892B19F48881998116C08A819B8113C039
:1017FC002D813E814F8180E80E94290D882319F0AC
:10180C008881998108C08A819B8105C088819981D2
:0C181C0002C08A819B81DF91CF9108956A
:10182800CF92DF92EF926C0120E8E22E2FE233E0B4
:1018380040E08E2DB6010E94DD0D892BA1F02AE330
:1018480033E040E08E2DB6010E94DD0D892B69F052
:1018580021E433E040E08E2DB6010E94DD0D892B96
:1018680031F483E005C082E003C082E001C081E07A
:08187800EF90DF90CF9008957E
:10188000CF93DC0160919304653000F590E015C0C2
:10189000292F30E0F901EE0FFF1FEC57FB4F40817D
:1018A0005181452B49F4220F331FF901EC57FB4FAF
:1018B000B183A083C92F04C09F5F953048F3CFEF59
:1018C0006F5F609393040E94161001C0CFEF8C2FBE
:0418D000CF91089517
:1018D4001F920F920FB60F9211242F933F934F93A1
:1018E4005F936F937F938F939F93AF93BF93EF9384
:1018F400FF93E0918E04F0918F040995FF91EF918D
:10190400BF91AF919F918F917F916F915F914F9113
:0E1914003F912F910F900FBE0F901F901895CE
:101922001F920F920FB60F9211242F933F934F9352
:101932005F936F937F938F939F93AF93BF93EF9335
:10194200FF93E0919004F09191040995FF91EF913A
:10195200BF91AF919F918F917F916F915F914F91C5
:0E1962003F912F910F900FBE0F901F90189580
:101970000F931F93CF93DF93EC012F931F930F933C
:101980006F935F934F9385ED92E0A0E0AF939F93A9
:101990008F93DF93CF930E94BA0DBE0180E80E941F
:1019A0003D0F2DB73EB7255F3F4F0FB6F8943EBFB2
:0E19B0000FBE2DBFDF91CF911F910F910895B3
:1019BE001F920F920FB60F9211248F93EF93FF93F6
:1019CE00E091960480919704E81758F481E08E0F09
:1019DE0080939604F0E0EA56FE4F80818093C60015
:1019EE0004C01092960410929704FF91EF918F917C
:0A19FE000F900FBE0F901F90189578
:101A08001F920F920FB60F9211248F93EF93FF93AB
:101A1800E0919A0480919B04E81758F481E08E0FB6
:101A280080939A04F0E0EA5DFC4F80818093CE00B9
:101A380004C010929A0410929B04FF91EF918F9129
:0A1A48000F900FBE0F901F9018952D
:101A52006F927F928F92CF92DF92EF920F931F93AA
:101A62003B01882E6901E42E842FB9010E943D0FAB
:101A72008C014E2D9601882DB3010E944E0B21E060
:101A8200892B09F020E0822F1F910F91EF90DF90B8
:0A1A9200CF908F907F906F90089521
:101A9C00CF92DF92EF920F931F93CF93DF93EC01D2
:101AAC006B0180E8E82E8E2DB6010E943D0F409709
:101ABC0049F42E2D86014BED52E060E0CE010E94E0
:101ACC00B80C02C08FEF9FEFDF91CF911F910F9158
:081ADC00EF90DF90CF90089518
:101AE400CF92DF92EF920F931F93CF93DF93EC018A
:101AF4006B0180E8E82E8E2DB6010E943D0F4097C1
:101B040049F42E2D86014AEE52E060E0CE010E9497
:101B1400B80C02C08FEF9FEFDF91CF911F910F910F
:081B2400EF90DF90CF900895CF
:101B2C00CF92DF92EF920F931F93CF93DF93EC0141
:101B3C006B0180E8E82E8E2DB6010E943D0F809738
:101B4C0049F42E2D860149EF52E060E0CE010E944F
:101B5C00B80C02C08FEF9FEFDF91CF911F910F91C7
:081B6C00EF90DF90CF90089587
:101B7400AFE0B0E0E0ECFDE00C94810E0E891F892B
:101B840086E08D831A8309838FEF9FE79F838E837B
:101B94009E01255E3F4F488D598D6A8DCE01019679
:101BA4000E94E401E885F985E00FF11F10822F9669
:061BB400E4E00C949D0E1C
:101BBA00CF92DF92EF926B01E82EF6018491E7FC57
:101BCA008081F901549147FD508185130BC0882308
:101BDA0041F08FEFC81AD80AE80A2F5F3F4F4F4FDC
:101BEA00ECCF582F90E0851B9109EF90DF90CF90B2
:021BFA0008954C
:101BFC00E1ECF0E08081806180838081886080836B
:101C0C00808180688083808180648083E0ECF0E058
:101C1C0080818260808386E08093C20080E190E0C6
:0C1C2C009093C5008093C4007894089544
:101C3800E9ECF0E080818061808380818860808326
:101C4800808180688083808180648083E8ECF0E014
:101C580080818260808386E08093CA0080E190E082
:0C1C68009093CD008093CC0078940895F8
:101C7400082E000C990BFC01EE0FFF1FEC57FB4FD5
:101C840020813181232B81F0880F991FFC01EC57AF
:101C9400FB4F1182108280919304815080939304AE
:0A1CA400811102C00E941A10089579
:101CAE0040E05CE566E275E08EE592E00E94B70BDF
:101CBE008EE592E00E94A80F6EE572E080E80E9429
:101CCE00170B2FEF81EE94E0215080409040E1F70A
:081CDE0000C0000080E0089541
:101CE6002F923F924F925F926F927F928F929F9226
:101CF600AF92BF92CF92DF92EF92FF920F931F9314
:101D0600CF93DF93CDB7DEB7CA1BDB0B0FB6F894C4
:081D1600DEBF0FBECDBF099432
:101D1E002A88398848885F846E847D848C849B846D
:101D2E00AA84B984C884DF80EE80FD800C811B817B
:101D3E00AA81B981CE0FD11D0FB6F894DEBF0FBEAA
:061D4E00CDBFED01089578
:101D5400CF92DF92EF926B01E82EA82FCB014115B1
:101D6400510531F48C199D09EF90DF90CF900895BF
:101D7400FC012491A7FD20812223A1F30196A11D3A
:061D840041505109ECCFB3
:101D8A00CF93DF93EC010E948B0FFE01019000209C
:101D9A00E9F7CF0123E030E041EC52E060E001973F
:101DAA000E94DE0EBE0180E80E943D0FDF91CF91B6
:021DBA0008958A
:101DBC00CF92DF92EF92DC016A01E62E280F391FD9
:101DCC00A217B30751F0F6014491E7FC40814D9303
:101DDC004FEFC41AD40AE40AF3CFEF90DF90CF9000
:021DEC00089558
:101DEE000F931F93611109C008E013E020E04CE04F
:101DFE0053E060E00E94B80C08C008E113E020E058
:101E0E004CE053E060E00E94B80C1F910F910895D2
:101E1E00BC0190E009C0FB01E90FF11DDA01A050F1
:101E2E00BF4F2C9120839F5F492F50E02091950446
:0E1E3E0030E022503109421753076CF308952B
:101E4C001F93CF93DF939C0190919D0491110AC035
:101E5C00162FE9010E94C30F412FBE0184E60E9498
:0E1E6C00720801C082E0DF91CF911F910895AE
:101E7A00CF92DF92EF926B01E82EA82FCB01FC01E3
:101E8A002491A7FD2081222319F00196A11DF7CFE5
:0C1E9A008C199D09EF90DF90CF90089507
:101EA6000F931F93CF938C010E940F0FC09195043F
:101EB600C250F801EC0FF11D10820E94FB0F8C2F0F
:081EC600CF911F910F910895C7
:101ECE000E941C0E0E94FE0D0E940A100E947B0FA3
:101EDE000E94B0072FEF8DE399E42150804090408F
:081EEE00E1F700C00000F4CF91
:101EF60082E08093B0001092B1001092B60010926A
:101F0600B20093EF9093B300809370007894089595
:101F16009A01462FDC01F901549147FD50815D93EA
:0E1F2600552321F02F5F3F4F4F4FF5CF089509
:101F340080919E048F5F80939E048F3130F01092C5
:0C1F44009D0480919C040E943A0E0895B8
:101F5000FC0101900020E9F7CF0123E030E041ECE3
:0C1F600052E060E001970E94DE0E089540
:101F6C00992777FD05C005900D920197E1F708952B
:0A1F7C0001900D920197E1F708951E
:101F86008AE99FE00E94400C80939C0481E0809344
:081F96009D0410929E040895C1
:101F9E001F920F920FB60F9211240F900FBE0F903B
:041FAE001F901895D3
:101FB20010929D0480919C040E943A0E0E94570E3A
:021FC200089580
:0E1FC4009091940481E0911101C080E0089595
:0C1FD200FC0171836083538342830895F7
:0C1FDE00FC01648325833683478308954B
:0C1FEA00EE0FFF1F0590F491E02D09940C
:0A1FF60010929404109295040895CF
:0A2000000E94201080E090E0089597
:0A200A0090919D0481E0892708955C
:0820140084B1806184B90895D4
:08201C0085B18F7E85B908959E
:0820240085B1806185B90895C2
:08202C0087E08093B1000895E4
:062034001092B1000895B6
:06203A000E9486050895D6
:062040000E94670F0895E5
:042046000C940000F6
:00000001FF
