:100000000C94BE000C94FE070C94FE070C94DC07C5
:100010000C94FE070C94FE070C94FE070C94FE074C
:100020000C94FE070C94C4050C94FE070C94FE0778
:100030000C94FE070C94E5060C94FE070C94FE0746
:100040000C94BE060C94FE070C94FE070C94FE075D
:100050000C944C060C94FE070C940C070C94FE07B1
:100060000C94FE070C94FE070C94FE070C94FE07FC
:100070000C9486060C94FE070C9431070100046969
:10008000800000407A10F35A00A0724E1809001048
:10009000A5D4E80000E87648170000E40B540200FD
:1000A00000CA9A3B000000E1F50500008096980028
:1000B000000040420F000000A08601000000102751
:1000C00000000000E80300000000640000000000E1
:1000D0000A00000000000100000000002C76D88813
:1000E000DC674F0823DFC1DFAE59E1B1B796E5E326
:1000F000E453C63AE651997696E8E6C28426EB893F
:100100008C9B62ED407C6FFCEFBC9C9F40F2BAA5DB
:100110006FA5F490055A2AF75C936B6CF9676DC173
:100120001BFCE0E40D47FEF520E6B500D0ED902E77
:100130000300943577050080841E080000204E0AD5
:10014000000000C80C333333330F986E1283114113
:10015000EF8D2114893BE65516CFFEE6DB18D184DE
:100160004B381BF77C1D901DA4BBE4242032847205
:100170005E228100C9F124ECA1E53D2711241FBEB8
:10018000CFEFD0E1DEBFCDBFECE7F0E040E017C03D
:10019000B591A59135912591059107FD0CC09591DB
:1001A0008591EF01F92FE82F05900D92A217B30763
:1001B000D9F7FE0104C01D92A217B307E1F7E13899
:1001C000F40731F70E94F6070C94E600F894FFCF8D
:0801D000696E66006E616E00AD
:1001D800A4E1B0E0E2EFF0E00C9474076C011A01BE
:1001E800462E5901FC0110861782848181FF62C363
:1001F800CE0101969D878C87A0E88A8B9B8BAC8B60
:10020800F101849147FC8081882309F44FC3442D70
:1002180091012F5F3F4F4F4F853219F01901442E3E
:100228000AC0F901849147FD808192E0290E311CB2
:10023800411C853249F4B60190E00E941006BF8641
:10024800AE86AE84BF84DCCF10E0F12C00E0003233
:10025800A0F48B3269F030F4803259F0833269F4BB
:1002680000612CC08D3239F0803339F4016026C02A
:100278000260046023C0086021C007FD29C090ED1A
:10028800980F9A3078F406FF06C0AAE01A9F900DDE
:100298001124192F13C0EAE0FE9E900D1124F92EA7
:1002A80000620CC08E3221F406FD00C3006406C053
:1002B8008C3611F4006802C0883651F4F10184913B
:1002C80047FC8081FFEF2F1A3F0A4F0A8111BFCFE9
:1002D8009BEB980F933018F40061805E06C09BE991
:1002E800980F933008F066C10F7E06FF16E00F7373
:1002F800702E853621F4202F2064722E08C0863691
:1003080021F4802F8068782E02C01111115077FED9
:1003180007C01C3350F4EE24E394E10E27E00BC031
:10032800183038F027E017E005C027E06CE3E62E28
:1003380002C0212FE12CF5013496FF87EE87F501E5
:1003480060817181828193810E2DAE014F5F5F4F75
:100358000E948E045C01598050FE02C053FE06C004
:1003680071FC06C072FE06C000E205C00DE203C0C3
:100378000BE201C000E0852D8C7019F0011173C2E9
:10038800BEC277FE0FC0EA0C54FE04C08A818133D6
:1003980009F4EA941E1474F528E02E1578F538E06F
:1003A800E32E2CC076FC2AC0812F90E08A159B058D
:1003B8009CF08CEFA8168FEFB80674F0972D906814
:1003C800792E0AC0E2E0F0E0EC0FFD1FE10FF11D0D
:1003D8008081803319F411501111F4CF77FE0EC0CB
:1003E800EE24E394E10E812F90E0A816B9062CF4D0
:1003F8001A1904C0EE24E39401C010E077FE06C089
:100408001A141B0434F4C501019605C085E090E078
:1004180002C081E090E001110196112331F0212FF3
:1004280030E02F5F3F4F820F931F2F2D30E0821750
:10043800930714F4F81A01C0F12C872D897049F438
:10044800FF2039F0B60180E290E00E941006FA948D
:10045800F7CF002329F0B601802F90E00E94100604
:1004680073FC09C0FF2039F0B60180E390E00E94D8
:100478001006FA94F7CF77FE49C03501B7FE02C0DF
:10048800612C712CC5018619970988248394912CB5
:100498008C0E9D1E880E991EF501EE19F109F98B37
:1004A800E88B012F10E0119501951109FFEF6F16E8
:1004B8007F0629F4B6018EE290E00E941006A61489
:1004C800B70444F088899989861597051CF4F401C6
:1004D800818101C080E3F1E06F1A71082FEF821A61
:1004E800920A601671062CF0B60190E00E94100680
:1004F800DDCFA614B70439F49A81963318F49533EE
:1005080011F454FE81E3B60190E051C08A81813331
:1005180019F0952D9F7E592EB60190E00E94100685
:10052800111105C074FC1CC085E690E01BC0B60123
:100538008EE290E00E94100602E0010F82E011E0D6
:10054800180FE1E0F0E0EC0FFD1FE80FF11D8081CE
:10055800B60190E00E941006812F1013F0CFE2CF71
:1005680085E490E0B6010E941006B7FC05C0A1140E
:10057800B10439F454FE05C0B194A194B1088DE2D8
:1005880001C08BE2B60190E00E94100680E3EAE029
:10059800AE16B1042CF08F5FAAE0AA1AB108F7CF03
:1005A800B60190E00E941006B601C501C0960E94EF
:1005B800100672C1833631F0833791F0833509F024
:1005C8005DC024C0C50102969F878E87F501808192
:1005D80089836A887B888C88AA24A394B12C14C048
:1005E800C50103969F878E87F501608071808280A0
:1005F80006FF03C0412F50E002C04FEF5FEF882D88
:10060800B3010E94AB075C010F7715C0C5010396C3
:100618009F878E87F50160807180828006FF03C006
:10062800412F50E002C04FEF5FEF882DB3010E94C9
:10063800AB075C01006803FD1DC08F2D90E0A81674
:10064800B906C0F4B60180E290E00E941006FA9460
:10065800F4CFF301849187FC8081FFEF6F1A7F0A42
:100668008F0AB60190E00E941006F110FA9421E07A
:10067800A21AB108A114B10461F70EC1843611F0B1
:10068800893679F5C50107FF09C004969F878E87CB
:10069800F50160817181828193810AC002969F87EA
:1006A8008E87F50160817181072E000C880B990BEC
:1006B8000F76E02E97FF0AC090958095709561950A
:1006C8007F4F8F4F9F4FF02FF068EF2E2AE030E0DA
:1006D800AE014F5F5F4F0E946605A82E2C85A21AB7
:1006E8004BC0853729F40F7EE02E2AE030E025C084
:1006F800902F997FE92E8F36C1F018F4883579F05C
:10070800D5C0803719F0883721F0D0C0A92FA06153
:10071800EA2EE4FE0DC0EE2DE460EE2E09C004FFC3
:100728000AC0F92FF660EF2E06C028E030E005C0B9
:1007380020E130E002C020E132E0C501E7FE09C057
:1007480004969F878E87F5016081718182819381EC
:1007580008C002969F878E87F5016081718180E0CD
:1007680090E0AE014F5F5F4F0E946605A82EFC85A2
:10077800AF1A2E2D2F77E22EE6FE0BC00E2D0E7F20
:10078800A11650F4E4FE0AC0E2FC08C00E2D0E7E4D
:1007980005C0BA2C0E2D03C0BA2C01C0B12E04FF1F
:1007A8000DC0FE01EA0DF11D8081803311F4097E30
:1007B80009C002FF06C0B394B39404C0802F8678A2
:1007C80009F0B39403FD11C000FF06C0BF1488F4FC
:1007D800FA0C1F2D1B190EC0BF1460F4B60180E27D
:1007E80090E00E941006B394F7CFBF1418F4FB18DA
:1007F80002C01A2DF12C04FF10C0B60180E390E06E
:100808000E94100602FF17C001FD03C088E790E0B0
:1008180002C088E590E0B6010CC0802F867859F0B8
:1008280001FF02C08BE201C080E207FD8DE2B60144
:1008380090E00E941006A11638F4B60180E390E01B
:100848000E9410061150F7CFAA94E1E0F0E0EC0FF7
:10085800FD1FEA0DF11D8081B60190E00E9410068F
:10086800A110F2CF19C0F4E0FF1580F584E0F81A62
:1008780073FE23C001112BC053FE2FC054ED852EEB
:1008880051E0952E50E0A52E072D0071F4018491BA
:10089800A7FC8081811128C0FF2009F4D2CCB601C1
:1008A80080E290E00E941006FA94F6CFF601878164
:1008B80090852CC08FEF9FEF29C0B60180E290E0B1
:1008C8000E941006FA94F110F8CFD4CFF12CB6019B
:1008D800802F90E00E941006CFCF40ED842E41E09B
:1008E800942E40E0A42ED0CF01118052B60190E0A2
:1008F8000E941006FFEF8F1A9F0AAF0AC7CF23E0A6
:100908002F1510F483E0B3CFF12CB6CF6496E2E153
:040918000C949007A4
:10091C00283008F027E03327DA01990F311D87FDC5
:10092C00916000966105710539F432602E5F3D933C
:10093C0030E32A95E1F708959F3F30F08038710538
:10094C00610509F03C5F3C5F3D93913008F0806895
:10095C00911DDF93CF931F930F93FF92EF92192F5B
:10096C00987F9695E92F96959695E90FFF27E45277
:10097C00FF4F99273327EE24FF24A701E7010590A9
:10098C000894079428F4360FE71EF81E491F511DD2
:10099C00660F771F881F991F0694A1F7059007947F
:1009AC0028F4E70EF81E491F561FC11D770F881F2C
:1009BC00991F661F0694A1F70590079428F4F80E6A
:1009CC00491F561FC71FD11D880F991F661F771F00
:1009DC000694A1F70590079420F4490F561FC71FE2
:1009EC00D81F990F661F771F881F0694A9F784914B
:1009FC001095177041F0D695C79557954795F79474
:100A0C00E7941A95C1F7E2E8F0E068941590159117
:100A1C0035916591959105907FE27395E118F10AF6
:100A2C00430B560BC90BD009C0F7E10CF11E431F49
:100A3C00561FC91FD01D7EF4703311F48A95E6CF72
:100A4C00E894015030F0080F0AF40027021708F45C
:100A5C00202F2395022F7A3328F079E37D932A9562
:100A6C00E9F710C07D932A9589F6069497956795BA
:100A7C00379517951794E118F10A430B560BC90BD0
:100A8C00D00998F023957E9173957A3308F070E332
:100A9C007C932013B8F77E9170617D9330F0839531
:100AAC0071E37D9370E32A95E1F71124EF90FF90A9
:100ABC000F911F91CF91DF91992787FD9095089504
:100ACC00FA01AA27283051F1203181F1E8946F9373
:100ADC006E7F6E5F7F4F8F4F9F4FAF4FB1E03ED019
:100AEC00B4E03CD0670F781F891F9A1FA11D680FB7
:100AFC00791F8A1F911DA11D6A0F711D811D911DEA
:100B0C00A11D20D009F468943F912AE0269F11245E
:100B1C003019305D3193DEF6CF010895462F4770C2
:100B2C00405D4193B3E00FD0C9F7F6CF462F4F701D
:100B3C00405D4A3318F0495D31FD4052419302D07B
:100B4C00A9F7EACFB4E0A695979587957795679521
:100B5C00BA95C9F700976105710508959B01AC0121
:100B6C000A2E06945795479537952795BA95C9F748
:0C0B7C00620F731F841F951FA01D0895B9
:100B88001F920F920FB60F9211242F933F934F93FA
:100B98005F936F937F938F939F93AF93BF93CF93FD
:100BA800EF93FF93909160049F5F9093600489E0B6
:100BB800989F212D1124892F821B8695820F82955B
:100BC8008F702FE1829F90191124911113C01092F8
:100BD8006004C0E00DC0EC2FF0E0EE0FFF1FEE5AEE
:100BE800FB4F0190F081E02D309709F00995CF5F18
:100BF800C53088F3FF91EF91CF91BF91AF919F914D
:100C08008F917F916F915F914F913F912F910F90AD
:080C18000FBE0F901F9018950C
:100C20000F931F93CF93DF93FB01248121FD03C01A
:100C30008FEF9FEF2CC022FF16C047815085258182
:100C400036814217530744F4A081B1819D012F5F83
:100C50003F4F318320838C93278130852F5F3F4F17
:100C60003087278314C08B01EC01FB010184F285DE
:100C7000E02D0995892BE1F6D80117968D919C916D
:100C80001897019618969C938E931797CE01DF9133
:080C9000CF911F910F9108950F
:100C98001F920F920FB60F9211242F938F939F9349
:100CA800EF93FF938091610481110EC0E09162047B
:100CB800E43650F481E08E0F80936204F0E0809176
:100CC800C600E050FF4F808380916204833080F03B
:100CD80090E0FC01E150FF4F20812A3049F4FC01EB
:100CE800E250FF4F80818D3019F481E080936104D8
:100CF800FF91EF919F918F912F910F900FBE0F90C1
:040D08001F9018958B
:100D0C001F920F920FB60F9211242F938F939F93D4
:100D1C00EF93FF938091650481110EC0E0916604FE
:100D2C00E63950F481E08E0F80936604F0E08091F8
:100D3C00CE00E454FC4F80838091660490E0FC016B
:100D4C00E554FC4F20812A3049F4FC01E654FC4F59
:100D5C0080818D3019F481E080936504FF91EF91CF
:100D6C009F918F912F910F900FBE0F901F90189500
:100D7C001F920F920FB60F9211242F933F934F9304
:100D8C005F936F937F938F939F93AF93BF93EF93E7
:100D9C00FF93E0915C04F0915D040995FF91EF9154
:100DAC00BF91AF919F918F917F916F915F914F9177
:0E0DBC003F912F910F900FBE0F901F90189532
:100DCA001F920F920FB60F9211242F933F934F93B6
:100DDA005F936F937F938F939F93AF93BF93EF9399
:100DEA00FF93E0915E04F0915F040995FF91EF9102
:100DFA00BF91AF919F918F917F916F915F914F9129
:0E0E0A003F912F910F900FBE0F901F901895E3
:100E18001F920F920FB60F9211248F93EF93FF93A7
:100E2800E091630480916404E81758F481E08E0F20
:100E380080936304F0E0EC59FE4F80818093C600F4
:100E480004C01092630410926404FF91EF918F9193
:0A0E58000F900FBE0F901F90189529
:100E62001F920F920FB60F9211248F93EF93FF935D
:100E7200E091670480916804E81758F481E08E0FCE
:100E820080936704F0E0E057FD4F80818093CE00AD
:100E920004C01092670410926804FF91EF918F9141
:0A0EA2000F900FBE0F901F901895DF
:100EAC00E9ECF0E0808180618083808188608083C0
:100EBC00808180688083808180648083E8ECF0E0AE
:100ECC0080818260808386E08093CA0080E190E01C
:0C0EDC009093CD008093CC007894089592
:100EE8002F923F924F925F926F927F928F929F9232
:100EF800AF92BF92CF92DF92EF92FF920F931F9320
:100F0800CF93DF93CDB7DEB7CA1BDB0B0FB6F894D0
:080F1800DEBF0FBECDBF09943E
:100F20002A88398848885F846E847D848C849B8479
:100F3000AA84B984C884DF80EE80FD800C811B8187
:100F4000AA81B981CE0FD11D0FB6F894DEBF0FBEB6
:060F5000CDBFED01089584
:100F5600CF92DF92EF926B01E82EA82FCB014115BD
:100F6600510531F48C199D09EF90DF90CF900895CB
:100F7600FC012491A7FD20812223A1F30196A11D46
:060F860041505109ECCFBF
:100F8C000E9456070E94EF070E94E60785B1816018
:100F9C0085B985B1826085B92FEF8EE994E2215035
:0C0FAC0080409040E1F700C00000F6CF4C
:100FB8001F920F920FB60F9211240F900FBE0F9031
:040FC8001F901895C9
:100FCC0080E28093B800E9EBF0E080818C7F808335
:020FDC00089576
:0E0FDE0081B1806181B982B18F7E82B90895A0
:0A0FEC000E94FB0780E090E00895EA
:060FF6000E94C6070895E9
:040FFC000C94000051
:00000001FF
