:100000000C9408010C94E8340C94E8340C94CA3233
:100010000C94E8340C94E8340C94E8340C94E834F0
:100020000C94E8340C94E7200C94E8340C94E834F5
:100030000C94E8340C949C270C94E8340C94E83429
:100040000C9475270C94E8340C94E8340C94E83440
:100050000C948E220C94E8340C941B290C94E834F4
:100060000C94E8340C94E8340C94E8340C94E834A0
:100070000C94C8220C94E8340C944029770B870C1C
:10008000960BB40BD40BF40B140C340C520C700CF8
:10009000820C980C9A0C9812AF120B13B81214130E
:1000A000FD120413C812D412E012EA12F612E60F7F
:1000B000F30FFD0F031032105D1076105208810807
:1000C0009C08AD08C108C609B608FA081109060956
:1000D000D5081C092D093F0947094F0957095F0930
:1000E000800987099909B809D409DF0901000E922E
:1000F000800E920EA30069D80EA30EC9800EC90E01
:10010000CD0069E90ECD0EE3800EE30EE40009098F
:100110000EE40EE8800000407A10F35A00A0724E00
:1001200018090010A5D4E80000E87648170000E49C
:100130000B54020000CA9A3B000000E1F5050000E4
:1001400080969800000040420F000000A086010049
:100150000000102700000000E80300000000640019
:10016000000000000A000000000001000000000084
:100170002C76D888DC674F0823DFC1DFAE59E1B1A8
:10018000B796E5E3E453C63AE651997696E8E6C2B7
:100190008426EB898C9B62ED407C6FFCEFBC9C9FBE
:1001A00040F2BAA56FA5F490055A2AF75C936B6CE0
:1001B000F9676DC11BFCE0E40D47FEF520E6B500D4
:1001C000D0ED902E0300943577050080841E080042
:1001D00000204E0A000000C80C333333330F986EF2
:1001E00012831141EF8D2114893BE65516CFFEE6AF
:1001F000DB18D1844B381BF77C1D901DA4BBE42475
:10020000203284725E228100C9F124ECA1E53D27F1
:1002100011241FBECFEFD0E1DEBFCDBFECEEF0E08A
:1002200041E017C0B591A59135912591059107FD44
:100230000CC095918591EF01F92FE82F05900D9253
:10024000A217B307D9F7FE0104C01D92A217B30786
:10025000E1F7E531F40731F70E94A52C0C94300149
:04026000F894FFCF40
:1002640053746174653A20533020494E4954005305
:10027400746174653A2053302044452D494E4954E5
:100284000053746174653A20533120494E49540037
:1002940053746174653A2053312044452D494E49C5
:1002A400540053746174653A20533220494E4954C2
:1002B4000053746174653A2053322044452D494EED
:1002C40049540053746174653A20533320494E49AC
:1002D400540053746174653A2053332044452D49C6
:1002E4004E4954007265733A207375636365737382
:1002F400007265733A206D616320657272007265E5
:10030400733A2074727920616761696E0053746175
:1003140074653A20494E4954204857005374617417
:10032400653A20454550524F4D0053746174653A07
:10033400204A4F494E204C4F52410053746174651A
:100344003A204A4F494E2053554343455353005393
:10035400746174653A2057414B45205550204C4FE9
:1003640052410053746174653A204C4F52412054F9
:10037400525920414741494E0053746174653A20F3
:10038400494E4954204D4F44554C455300537461D4
:1003940074653A20494E49542052544300537461C1
:1003A40074653A2052544320434C454152005374DF
:1003B4006174653A20525443205345542057414BAD
:1003C4004555500053746174653A204D5250502085
:1003D400494E49540053746174653A2053454E4460
:1003E400204845414445520053746174653A205392
:1003F400454E4420444154410053746174653A208D
:1004040053454E44205441494C0053746174653A39
:1004140020534554555020534C4545500053746166
:1004240074653A20534C4545500053746174653AE1
:1004340020534C454550202D3E204157414B45000B
:1004440053746174653A20434F4E4620455252001E
:10045400436F6E66206572720A0D00537461746591
:100464003A20464154414C20455252005374617421
:07047400653A20454E4400EB
:10047B0049443D25752C206E3D25752C2073693D17
:10048B002575200D0A004661696C656420746F2028
:10049B00726561642074696D6500253032752D2598
:1004AB003032752D2530327554253032753A253062
:1004BB0032753A25303275006661696C656400737C
:1004CB0075636365737300303030303030303030EB
:1004DB003030303030303000303030303030303041
:1004EB003030303030303030303030303030303001
:1004FB00303030303030303000416C6C20736574EC
:10050B0074696E6773207265736574004D757374CF
:10051B0020626520696E20666F726D61743A207976
:10052B00792D6D6D2D64645468683A6D6D3A7373F3
:10053B00004661696C656420746F20736574207468
:10054B00696D6500646576657569006170706575C8
:10055B0069006170706B65790070706D7800252E85
:10056B0032660072726C78007663637800636F6C2E
:10057B007300686561745F75705F740068656174A2
:10058B002075702074696D653D2575206D0061695E
:10059B00725F70756D705F74006169722070756D3C
:1005AB00702074696D653D257520730073705F69EC
:1005BB006E74657276616C0073616D706C696E67D9
:1005CB002070726F6365737320696E7465727661E8
:1005DB006C3D257520680074696D65004E6F742045
:1005EB00612076616C6964206F7065726174696FEC
:0805FB006E0072657365740067
:100603002A2A2A2A2A2A2A2A204D657468616E65B5
:100613002053656E736F722076312E30202A2A2A7A
:100623002A2A2A2A2A0053657474696E67206D6F1B
:1006330064756C65732075702E2E2E20506C656169
:1006430073652077616974004661696C6564207421
:100653006F20696E697469616C697A652073797357
:1006630074656D2E2E2E004E6F742076616C696456
:100673000057726F6E6720666F726D6174002A2A6D
:100683002A2A2A2A2A20526561647920666F7220F9
:100693006E657720636F6D6D616E64202A2A2A2A46
:0C06A3002A2A2A00457869742E2E2E00A9
:1006AF006F6E00506F776572206D657468616E654F
:1006BF002073656E736F72206F6E006F66660050E9
:1006CF006F776572206D657468616E652073656EF6
:1006DF00736F72206F666600726561640045727297
:1006EF006F72207768656E2072656164696E67202E
:1006FF00646174610050504D3D2575004E6F74203C
:10070F00612076616C6964206F7065726174696FC6
:10071F006E00506F77657220746F20616972207060
:10072F00756D70206F6E00506F77657220746F203B
:10073F006169722070756D70206F6666006D6574EB
:0B074F006800636F320070756D700071
:10075A006578697400627265616B00726561640034
:10076A002A2A2A2A2A2A2A20596F75206172652084
:10077A006469726563746C7920636F6E6E65637405
:10078A00656420746F20524E32343833202A2A2A64
:10079A002A2A2A2A2A002D2D3E25730062726561B3
:1007AA006B2030783535006E756C6C00436C6F7356
:1007BA00696E6720636F6E6E656374696F6E20740D
:1007CA006F20524E323438332E2E2E006C6F7261E7
:0107DA00001E
:1007DB0025303278000D0A0073797320736C6565D0
:1007EB007000257320256C64002573202573006D24
:1007FB0061632073657420646576657569006D614E
:10080B00632073657420617070657569006D616339
:10081B0020736574206170706B6579006F6666007C
:10082B006D61632073657420616472006F6E006D7F
:10083B00616320747820636E660025732025752014
:03084B0025730012
:10084E006E6F5F667265655F63680064656E69658D
:10085E0064006B6579735F6E6F745F696E697400A7
:10086E00524E32343833006D616320726573657495
:10087E0020383638006F6B006D61632073617665CA
:10088E00006D6163206A6F696E206F746161006133
:08089E0063636570746564007A
:1008A6006E6F5F667265655F6368006D61635F6545
:1008B6007272006D61635F727800696E76616C6951
:1008C600645F646174615F6C656E006F6B006D617F
:0808D600635F74785F6F6B0033
:1008DE00524E32343833006E6F207265706C792E42
:0308EE002E2E00AB
:0808F100696E66006E616E0085
:0508F90046000002E3CF
:0508FE00001000008164
:030903006F6B0017
:020906000300EC
:0109080002EC
:0109090001EC
:10090A00A4E1B0E0EBE8F4E00C946D2D6C011A015F
:10091A00462E5901FC0110861782848181FF62C329
:10092A00CE0101969D878C87A0E88A8B9B8BAC8B26
:10093A00F101849147FC8081882309F44FC3442D37
:10094A0091012F5F3F4F4F4F853219F01901442E05
:10095A000AC0F901849147FD808192E0290E311C79
:10096A00411C853249F4B60190E00E945222BF86AA
:10097A00AE86AE84BF84DCCF10E0F12C00E00032FA
:10098A00A0F48B3269F030F4803259F0833269F482
:10099A0000612CC08D3239F0803339F4016026C0F1
:1009AA000260046023C0086021C007FD29C090EDE1
:1009BA00980F9A3078F406FF06C0AAE01A9F900DA5
:1009CA001124192F13C0EAE0FE9E900D1124F92E6E
:1009DA0000620CC08E3221F406FD00C3006406C01A
:1009EA008C3611F4006802C0883651F4F101849102
:1009FA0047FC8081FFEF2F1A3F0A4F0A8111BFCFB0
:100A0A009BEB980F933018F40061805E06C09BE957
:100A1A00980F933008F066C10F7E06FF16E00F7339
:100A2A00702E853621F4202F2064722E08C0863657
:100A3A0021F4802F8068782E02C01111115077FEA0
:100A4A0007C01C3350F4EE24E394E10E27E00BC0F8
:100A5A00183038F027E017E005C027E06CE3E62EEF
:100A6A0002C0212FE12CF5013496FF87EE87F501AC
:100A7A0060817181828193810E2DAE014F5F5F4F3C
:100A8A000E94FC0E5C01598050FE02C053FE06C053
:100A9A0071FC06C072FE06C000E205C00DE203C08A
:100AAA000BE201C000E0852D8C7019F0011173C2B0
:100ABA00BEC277FE0FC0EA0C54FE04C08A8181339D
:100ACA0009F4EA941E1474F528E02E1578F538E036
:100ADA00E32E2CC076FC2AC0812F90E08A159B0554
:100AEA009CF08CEFA8168FEFB80674F0972D9068DB
:100AFA00792E0AC0E2E0F0E0EC0FFD1FE10FF11DD4
:100B0A008081803319F411501111F4CF77FE0EC091
:100B1A00EE24E394E10E812F90E0A816B9062CF496
:100B2A001A1904C0EE24E39401C010E077FE06C04F
:100B3A001A141B0434F4C501019605C085E090E03F
:100B4A0002C081E090E001110196112331F0212FBA
:100B5A0030E02F5F3F4F820F931F2F2D30E0821717
:100B6A00930714F4F81A01C0F12C872D897049F4FF
:100B7A00FF2039F0B60180E290E00E945222FA94F6
:100B8A00F7CF002329F0B601802F90E00E9452226D
:100B9A0073FC09C0FF2039F0B60180E390E00E949F
:100BAA005222FA94F7CF77FE49C03501B7FE02C048
:100BBA00612C712CC5018619970988248394912C7C
:100BCA008C0E9D1E880E991EF501EE19F109F98BFE
:100BDA00E88B012F10E0119501951109FFEF6F16AF
:100BEA007F0629F4B6018EE290E00E945222A614F2
:100BFA00B70444F088899989861597051CF4F4018D
:100C0A00818101C080E3F1E06F1A71082FEF821A27
:100C1A00920A601671062CF0B60190E00E945222E8
:100C2A00DDCFA614B70439F49A81963318F49533B4
:100C3A0011F454FE81E3B60190E051C08A818133F8
:100C4A0019F0952D9F7E592EB60190E00E945222EE
:100C5A00111105C074FC1CC085E690E01BC0B601EA
:100C6A008EE290E00E94522202E0010F82E011E03F
:100C7A00180FE1E0F0E0EC0FFD1FE80FF11D808195
:100C8A00B60190E00E945222812F1013F0CFE2CFDA
:100C9A0085E490E0B6010E945222B7FC05C0A11477
:100CAA00B10439F454FE05C0B194A194B1088DE29F
:100CBA0001C08BE2B60190E00E94522280E3EAE092
:100CCA00AE16B1042CF08F5FAAE0AA1AB108F7CFCA
:100CDA00B60190E00E945222B601C501C0960E9458
:100CEA00522272C1833631F0833791F0833509F08D
:100CFA005DC024C0C50102969F878E87F501808159
:100D0A0089836A887B888C88AA24A394B12C14C00E
:100D1A00C50103969F878E87F50160807180828066
:100D2A0006FF03C0412F50E002C04FEF5FEF882D4E
:100D3A00B3010E94F52D5C010F7715C0C50103961A
:100D4A009F878E87F50160807180828006FF03C0CD
:100D5A00412F50E002C04FEF5FEF882DB3010E9490
:100D6A00F52D5C01006803FD1DC08F2D90E0A816CB
:100D7A00B906C0F4B60180E290E00E945222FA94C9
:100D8A00F4CFF301849187FC8081FFEF6F1A7F0A09
:100D9A008F0AB60190E00E945222F110FA9421E0E3
:100DAA00A21AB108A114B10461F70EC1843611F078
:100DBA00893679F5C50107FF09C004969F878E8792
:100DCA00F50160817181828193810AC002969F87B1
:100DDA008E87F50160817181072E000C880B990BB3
:100DEA000F76E02E97FF0AC09095809570956195D1
:100DFA007F4F8F4F9F4FF02FF068EF2E2AE030E0A1
:100E0A00AE014F5F5F4F0E94AA1BA82E2C85A21A23
:100E1A004BC0853729F40F7EE02E2AE030E025C04A
:100E2A00902F997FE92E8F36C1F018F4883579F022
:100E3A00D5C0803719F0883721F0D0C0A92FA0611A
:100E4A00EA2EE4FE0DC0EE2DE460EE2E09C004FF8A
:100E5A000AC0F92FF660EF2E06C028E030E005C080
:100E6A0020E130E002C020E132E0C501E7FE09C01E
:100E7A0004969F878E87F5016081718182819381B3
:100E8A0008C002969F878E87F5016081718180E094
:100E9A0090E0AE014F5F5F4F0E94AA1BA82EFC850F
:100EAA00AF1A2E2D2F77E22EE6FE0BC00E2D0E7FE7
:100EBA00A11650F4E4FE0AC0E2FC08C00E2D0E7E14
:100ECA0005C0BA2C0E2D03C0BA2C01C0B12E04FFE6
:100EDA000DC0FE01EA0DF11D8081803311F4097EF7
:100EEA0009C002FF06C0B394B39404C0802F867869
:100EFA0009F0B39403FD11C000FF06C0BF1488F4C3
:100F0A00FA0C1F2D1B190EC0BF1460F4B60180E243
:100F1A0090E00E945222B394F7CFBF1418F4FB1842
:100F2A0002C01A2DF12C04FF10C0B60180E390E034
:100F3A000E94522202FF17C001FD03C088E790E019
:100F4A0002C088E590E0B6010CC0802F867859F07F
:100F5A0001FF02C08BE201C080E207FD8DE2B6010B
:100F6A0090E00E945222A11638F4B60180E390E084
:100F7A000E9452221150F7CFAA94E1E0F0E0EC0F60
:100F8A00FD1FEA0DF11D8081B60190E00E945222F8
:100F9A00A110F2CF19C0F4E0FF1580F584E0F81A29
:100FAA0073FE23C001112BC053FE2FC055EF852EAF
:100FBA0058E0952E50E0A52E072D0071F40184917A
:100FCA00A7FC8081811128C0FF2009F4D2CCB60188
:100FDA0080E290E00E945222FA94F6CFF6018781CD
:100FEA0090852CC08FEF9FEF29C0B60180E290E078
:100FFA000E945222FA94F110F8CFD4CFF12CB60104
:10100A00802F90E00E945222CFCF41EF842E48E0F9
:10101A00942E40E0A42ED0CF01118052B60190E068
:10102A000E945222FFEF8F1A9F0AAF0AC7CF23E00E
:10103A002F1510F483E0B3CFF12CB6CF6496E2E11A
:04104A000C94DA2DFB
:10104E00EF92FF920F931F93CF93DF93C0E01AC0DE
:10105E00C6E018C0C5E016C0C5E014C0C5E012C099
:10106E00C5E010C0C6E10EC0C6E10CC0C6E10AC0A4
:10107E00C6E108C0C6E106C0CD2F04C0CD2F02C008
:10108E00DC2FC1E1EC2FF0E0E831F105D8F7E25AA0
:10109E00FF4F0C944F3461E173E080E00E944932BF
:1010AE001092E70E1092E60E1092E50E1092E40EDC
:1010BE008FEF9FEF9093CC0E8093CB0E0E942E2C31
:1010CE000E946A2C0E9406330E9400310E949634C0
:1010DE000E9477330E9454330E945B330E9469331F
:1010EE000E9462330E9470338091E10E8111B0CF65
:1010FE00C1E0C8CF60E273E080E00E9449320E94F6
:10110E006132882309F4A6CF0E946C32882309F439
:10111E00A3CF0E947732882309F4A0CF0E94CD2559
:10112E00882309F49DCFC2E0ADCF6EE273E080E07C
:10113E000E9449320E94B6330E942133C82F0E946A
:10114E004C338C2F0E94EF31C82F9CCF6FE373E08E
:10115E0080E00E9449320E94922BCAE093CF63E551
:10116E0073E080E00E9449320E94D63481117ACF1A
:10117E00CAE088CF67E673E080E00E9449320E94A1
:10118E00AA342FEF33EB84EC94E0215030408040B2
:10119E009040D9F700C00000C2E074CF6DE773E055
:1011AE0080E00E944932E090A30EF090A40E0091D0
:1011BE00A50E1091A60E2091A70E3091A80E40916B
:1011CE00A90E5091AA0E6091AB0E7091AC0E80914B
:1011DE00AD0E9091AE0E0E94502B0E94BD3081112B
:1011EE0043CFC7E04FCF61E973E080E00E94493200
:1011FE0081E00E942527811139CFC9E043CF61EAF2
:10120E0073E080E00E9449320E94102E811130CF8F
:10121E00C8E038CF62EB73E080E00E9449320E9452
:10122E008834811127CFCBE02DCF68EC73E080E0BE
:10123E000E9449320E942B34482F67E088E09EE0DE
:10124E000E940A320E942534CCE01CCF0E947934D1
:10125E00882309F417CF69ED73E080E00E944932CC
:10126E000E94D22B4CE06DE00E947C31C82F0ACF39
:10127E000E9440196EE00E948232DC2FC82F02CFEE
:10128E000E94E9156FE00E948232DC2FC82FFACE41
:10129E000E94431460E10E948232DC2FC82FF2CEEE
:1012AE000E94611562E10E948232DC2FC82FEACEC5
:1012BE008BEC9EE00E948A30882309F4DDCE0E94DA
:1012CE007934882309F4DACE6CEE73E080E00E9464
:1012DE0049328091CB0E9091CC0E0E94B22B4D2FA5
:1012EE00682F8091CB0E9091CC0E0E947225C82F44
:1012FE00C9CE0E947E34882309F4C2CEC3E1C2CE89
:10130E000E947934882309F4BDCE6DEF73E080E03E
:10131E000E9449320E94F12B43E164E10E947C312C
:10132E00C82FB0CE6EE074E080E00E9449320E9479
:10133E00183391E0811190E09093E10E80E00E94CD
:10134E00983280E00E94AC3280E00E94B63280E09B
:10135E000E94A23280E00E94C0320E946034C5E139
:10136E0091CE61E274E080E00E9449320E94102C1E
:10137E006EE274E080E00E944932C0E083CE64E405
:10138E0074E080E00E9449320E94AE3464E574E05D
:10139E0080E00E944932C7E175CE6FE574E080E0CF
:1013AE000E9449320E94B2341092E10EC7E16ACE19
:1013BE0060E774E080E00E944932DF91CF911F9187
:0813CE000F91FF90EF900895CC
:1013D6002F923F924F925F926F927F928F92AF922F
:1013E600BF92CF92DF92EF920F931F93CF93DF932B
:1013F60000D000D000D0CDB7DEB73B01882E5A0111
:1014060019014115510521F0FA0160837183828328
:101416002114310429F0C1010297839708F01AC1FB
:10142600E82C6301FFEFCF1ADF0AEF0AF3011491EC
:1014360087FC1081812F90E00E942A334C2D3D2D90
:101446002E2D892B19F036018E2CEACF1D3269F428
:10145600E82C630152E0C50ED11CE11CE42FF32FEA
:10146600149127FD108101E00EC01B3259F4E82CBF
:10147600630182E0C80ED11CE11CE42FF32F149106
:1014860027FD108100E02114310409F190E12916AD
:10149600310429F43FC010E32114310421F1F8E0AE
:1014A6002F16310401F154F432E02316310421F5EC
:1014B600412C512C612C50E4752E4BC04AE0241669
:1014C600310439F050E125163104B1F43DC0103332
:1014D60019F13AE0232E312C4CEC442E542C642C7A
:1014E6004CE0742E36C098E0292E312C412C512C1C
:1014F600612C20E1722E2DC060E070E080E090E863
:101506009101032C000C440B550B0E940D2B290155
:101516003A011FC01033C1F4F6018491E7FC8081C3
:101526008F7D883509F0B7CFAE2DC6010196A11D76
:10153600FC011491A7FD1081E2E0CE0ED11CE11C46
:10154600026060E1262E312C412C512C612C88E062
:10155600782EA0E060E070E0CB019101032C000C36
:10156600440B550B29833A834B835C83E0EDE10FF3
:10157600EA3060F02FEB210F2A3110F4E9EC05C0B8
:101586002FE9210F2A3150F5E9EAE10F2E2F30E03D
:10159600221533051CF5A7FD18C046165706680622
:1015A600790680F029813A814B815C810E94303135
:1015B6006E0F711D811D911D61307105810530E829
:1015C600930710F0AFEF01C0A1E0F6011491E7FC1C
:1015D60010814FEFC41AD40AE40AC8CF202F217015
:1015E600A114B104B1F0AA2349F051E0C51AD108FB
:1015F600E108F501C082D182E2820BC001FF1DC065
:10160600F2E0CF1AD108E108F501C082D182E28268
:1016160014C0A7FF12C0222329F060E070E080E02A
:1016260090E804C06FEF7FEF8FEF9FE722E230E094
:1016360030939F0820939E0809C0222381F090953D
:101646008095709561957F4F8F4F9F4F462F372F0F
:10165600282F12C040E030E020E090E00DC097FF58
:10166600F5CF82E290E090939F0880939E086FEFFB
:101676007FEF8FEF9FE7EACF642F732F822F269697
:101686000FB6F894DEBF0FBECDBFDF91CF911F918D
:101696000F91EF90DF90CF90BF90AF908F907F909B
:0C16A6006F905F904F903F902F90089540
:1016B200AF92BF92CF92DF92EF92FF921F93CF939E
:1016C200DF93CDB7DEB728970FB6F894DEBF0FBE13
:1016D200CDBF5C016B017A0110E0E12FF0E0ED304B
:1016E200F105D8F7E25CFF4F0C944F340E949A3414
:1016F2002FEF89E698E1215080409040E1F700C049
:1017020000000E949E344CE050E062E070E0CE01A6
:1017120001960E9437342EE638E040E061E0CE01C7
:1017220001960E943D3411E0D8CF45E758E060E0D1
:101732008EE592E00E945D2E6EE572E080E80E94E6
:1017420072234CE050E063E070E0CE0101960E940B
:10175200373423E838E040E060E0CE0101960E9491
:101762003D3411E0BACFB5018EE592E00E94AE2978
:101772008EE592E00E94C5316EE572E080E80E943B
:1017820072234CE050E064E070E0CE0101960E94CA
:10179200373423E838E040E060E0CE0101960E9451
:1017A2003D3411E09ACFB7018EE592E00E94F6290E
:1017B2008EE592E00E94C5316EE572E080E80E94FB
:1017C20072234CE050E065E070E0CE0101960E9489
:1017D200373423E838E040E060E0CE0101960E9411
:1017E2003D3411E07ACFB6018EE592E00E94D22913
:1017F2008EE592E00E94C5316EE572E080E80E94BB
:1018020072234CE050E066E070E0CE0101960E9447
:10181200373423E838E040E060E0CE0101960E94D0
:101822003D3411E05ACF61E08EE592E00E94082F2C
:101832008EE592E00E94C5316EE572E080E80E947A
:1018420072234CE050E067E070E0CE0101960E9406
:10185200373423E838E040E060E0CE0101960E9490
:101862003D3411E03ACF46E858E060E08EE592E080
:101872000E945D2E6EE572E080E80E9472234CE0C9
:1018820050E068E070E0CE0101960E94373423E810
:1018920038E040E060E0CE0101960E943D3411E064
:1018A2001CCF4FE858E060E08EE592E00E945D2E8A
:1018B2006EE572E080E80E9472234AE050E069E03F
:1018C20070E0CE0101960E94373423E838E040E010
:1018D20060E0CE0101960E943D3411E0FECE4AE066
:1018E20050E06BE070E0CE0101960E9437342DE9A2
:1018F20038E040E060E0CE0101960E943D3411E004
:10190200ECCE8EE592E00E94FA2514C00E947E334E
:10191200882309F4E2CE8EE592E00E9407306EE55C
:1019220072E0CE0101960E944425182FD6CE80E0A7
:1019320001C081E028960FB6F894DEBF0FBECDBF7E
:10194200DF91CF911F91FF90EF90DF90CF90BF90EA
:04195200AF900895B5
:10195600CF92DF92EF92FF920F931F93CF93DF9375
:10196600CDB7DEB768970FB6F894DEBF0FBECDBF12
:101976006B01E82EF42E052F21E0AE014F5F5F4F7D
:101986000E94421F182F882309F423C18E2DB60109
:101996000E94FC26823009F41BC1CE0101966C011F
:1019A60020E8E22E2FE435E040E08E2DB6010E94BD
:1019B600712B892B29F48F2D902F0E94C02E09C1DF
:1019C60026E535E040E08E2DB6010E94712B892B6D
:1019D60029F48F2D902F0E94D82EFBC02DE535E0DF
:1019E60040E08E2DB6010E94712B892B29F48F2D94
:1019F600902F0E94F02EEDC024E635E040E08E2DBB
:101A0600B6010E94712B892BE1F4CE0145960E9406
:101A16004F31888D8F938F898F938E898F938D8980
:101A26008F9389E695E0A0E0AF939F938F930F93F2
:101A3600FF920E94A62A0FB6F894DEBF0FBECDBF56
:101A4600C8C02EE635E040E08E2DB6010E94712B0F
:101A5600892BE1F4CE0145960E945E31888D8F93E5
:101A66008F898F938E898F938D898F9389E695E0E1
:101A7600A0E0AF939F938F930F93FF920E94A62AA5
:101A86000FB6F894DEBF0FBECDBFA3C023E735E087
:101A960040E08E2DB6010E94712B892BE1F4CE0118
:101AA60045960E946D31888D8F938F898F938E898D
:101AB6008F938D898F9389E695E0A0E0AF939F93EE
:101AC6008F930F93FF920E94A62A0FB6F894DEBF5B
:101AD6000FBECDBF7EC028E735E040E08E2DB601B3
:101AE6000E94712B892B29F48F2D902F0E944C1B5D
:101AF60070C02DE735E040E08E2DB6010E94712BB7
:101B0600892BA1F40E9407341F928F9387E895E0F2
:101B1600A0E0AF939F938F930F93FF920E94A62A04
:101B26000FB6F894DEBF0FBECDBF53C029E935E02E
:101B360040E08E2DB6010E94712B892BA1F40E94E4
:101B460013349F938F9384EA95E0A0E0AF939F931D
:101B56008F930F93FF920E94A62A0FB6F894DEBFCA
:101B66000FBECDBF36C027EB35E040E08E2DB60167
:101B76000E94712B892BA1F40E941F341F928F9310
:101B860083EC95E0A0E0AF939F938F930F93FF9222
:101B96000E94A62A0FB6F894DEBF0FBECDBF19C0AD
:101BA60022EE35E040E08E2DB6010E94712B892B86
:101BB60029F48F2D902F0E948D1F0BC026E130E057
:101BC60047EE55E060E08F2D902F0E948F2E01C0CA
:101BD60010E0812F68960FB6F894DEBF0FBECDBF1A
:101BE600DF91CF911F910F91FF90EF90DF90CF90F3
:021BF600089550
:101BF8006F927F928F92AF92BF92CF92DF92EF92C5
:101C08001F93CF93DF93CDB7DEB764970FB6F894E1
:101C1800DEBF0FBECDBF3B01882E5A0121E0AE01C9
:101C28004F5F5F4F0E94421F182F882309F4CDC0D1
:101C3800CE0101966C0120E8E22E2FE435E040E069
:101C48008E2DB6010E94712B892B39F4A501882DA0
:101C5800B3010E949E21182FB8C026E535E040E068
:101C68008E2DB6010E94712B892B39F4A501882D80
:101C7800B3010E94DA21182FA8C02DE535E040E015
:101C88008E2DB6010E94712B892B39F4A501882D60
:101C9800B3010E941622182F98C024E635E040E0D0
:101CA8008E2DB6010E94712B892B39F4A501882D40
:101CB800B3010E945D28182F88C02EE635E040E069
:101CC8008E2DB6010E94712B892B39F4A501882D20
:101CD800B3010E948328182F78C023E735E040E03D
:101CE8008E2DB6010E94712B892B39F4A501882D00
:101CF800B3010E94A928182F68C028E735E040E002
:101D08008E2DB6010E94712B892B39F4A501882DDF
:101D1800B3010E941B13182F58C02DE735E040E08F
:101D28008E2DB6010E94712B892B39F4A501882DBF
:101D3800B3010E94CF28182F48C029E935E040E0B8
:101D48008E2DB6010E94712B892B39F4A501882D9F
:101D5800B3010E944D27182F38C027EB35E040E02B
:101D68008E2DB6010E94712B892B39F4A501882D7F
:101D7800B3010E94F528182F28C02DEF35E040E068
:101D88008E2DB6010E94712B892B39F4A501882D5F
:101D9800B3010E946018182F18C022EE35E040E009
:101DA8008E2DB6010E94712B892B39F4A501882D3F
:101DB800B3010E94ED16182F08C026E130E047EE67
:101DC80055E060E0C5010E948F2E812F64960FB602
:101DD800F894DEBF0FBECDBFDF91CF911F91EF907A
:101DE800DF90CF90BF90AF908F907F906F900895C5
:101DF800283008F027E03327DA01990F311D87FDD5
:101E0800916000966105710539F432602E5F3D934B
:101E180030E32A95E1F708959F3F30F08038710547
:101E2800610509F03C5F3C5F3D93913008F08068A4
:101E3800911DDF93CF931F930F93FF92EF92192F6A
:101E4800987F9695E92F96959695E90FFF27E05983
:101E5800FE4F99273327EE24FF24A701E7010590B9
:101E68000894079428F4360FE71EF81E491F511DE1
:101E7800660F771F881F991F0694A1F7059007948E
:101E880028F4E70EF81E491F561FC11D770F881F3B
:101E9800991F661F0694A1F70590079428F4F80E79
:101EA800491F561FC71FD11D880F991F661F771F0F
:101EB8000694A1F70590079420F4490F561FC71FF1
:101EC800D81F990F661F771F881F0694A9F784915A
:101ED8001095177041F0D695C79557954795F79483
:101EE800E7941A95C1F7E6E1F1E068941590159129
:101EF80035916591959105907FE27395E118F10A06
:101F0800430B560BC90BD009C0F7E10CF11E431F58
:101F1800561FC91FD01D7EF4703311F48A95E6CF81
:101F2800E894015030F0080F0AF40027021708F46B
:101F3800202F2395022F7A3328F079E37D932A9571
:101F4800E9F710C07D932A9589F6069497956795C9
:101F5800379517951794E118F10A430B560BC90BDF
:101F6800D00998F023957E9173957A3308F070E341
:101F78007C932013B8F77E9170617D9330F0839540
:101F880071E37D9370E32A95E1F71124EF90FF90B8
:101F98000F911F91CF91DF91992787FD9095089513
:101FA8006F927F928F92CF92DF92EF92CF93DF93CF
:101FB800C0E0EC2FF0E0E730F105D8F7E95AFF4F21
:101FC8000C944F340E942E2C0E9496340E94D934CF
:101FD8006AE677E080E00E941D20C1E0EACF0E9417
:101FE8008533882331F386ED97E00E941B30C2E0E9
:101FF800E0CF86ED97E00E94E023C82FDACF86ED88
:1020080097E06C0120E8E22E2F93DF928F9380EA0D
:1020180097E0A0E0AF939F938F93CEE0D7E0DF9354
:10202800CF930E94A62A3E0120E8822E882DB30174
:102038000E941D20AE016C2D7D2D8E2D0E94DC345A
:10204800882DB3010E941D208DB79EB708960FB644
:10205800F8949EBF0FBE8DBFC1E0ABCF86EA97E074
:10206800A0E0AF939F938F9380EA97E0A0E0AF93AF
:102078009F938F93CEE0D7E0DF93CF930E94A62A59
:10208800BE0180E80E941D208FE798E321E081507F
:1020980090402040E1F700C000000E94DF348DB777
:1020A8009EB708960FB6F8949EBF0FBE8DBFC1E0CD
:1020B80080CF0E947E33882329F08EE097E00E942B
:1020C800073009C025E030E041EB57E060E08EE0E2
:1020D80097E00E948F2E6EE077E080E80E941D2036
:1020E800C1E067CF0E94653466EB77E080E00E942C
:1020F8001D2081E0DF91CF91EF90DF90CF908F90FE
:062108007F906F90089526
:10210E00CF93DC01262F30E0C9010197F901EE0FC4
:10211E00FF1F220F331F220F331F220F331FE20F19
:10212E00F31FEA0FFB1F7081C0E025C082179307D3
:10213E0009F1A901440F551F440F551F440F551F98
:10214E00F901EE0FFF1FE40FF51FEA0FFB1F43858A
:10215E00741310C0F901EE0FFF1F220F331F220F51
:10216E00331F220F331FE20FF31FEA0FFB1F2485CD
:10217E00233041F4CF5F2C2F30E028173907B4F20B
:10218E0021E001C020E0222339F0FD01E70FF11D0F
:10219E00E458FF4F21E020839C01220F331F220FB2
:1021AE00331F220F331FFC01EE0FFF1FE20FF31F31
:1021BE00EA0FFB1FC38529C0462F50E084179507F1
:1021CE0019F19A012F5F3F4FF901EE0FFF1F220FFA
:1021DE00331F220F331F220F331FE20FF31FEA0F9D
:1021EE00FB1F2081C21310C0FA01EE0FFF1F440F18
:1021FE00551F440F551F440F551FE40FF51FEA0FCF
:10220E00FB1F2485233041F46F5F12962C91129799
:10221E00621790F281E001C080E0882341F0FD0159
:10222E00EC0FF11DE458FF4F81E0808306C0FD01E5
:10223E00EC0FF11DE458FF4F10828C2F90E0871B9E
:10224E009109029764F07F5F08C0FD01E70FF11D51
:10225E00E458FF4F81E080837F5F7C17B0F3CF910E
:02226E000895D1
:10227000AF92BF92CF92DF92EF92FF920F931F9394
:10228000CF93DF936C01A22EFC0160832283B12CDB
:1022900000E010E062C0EB2DF0E0DF01AA0FBB1FF1
:1022A000AA0FBB1FAE0FBF1FA40FB51F12962D9113
:1022B0003C911397EF01CC0FDD1FCF01880F991FC1
:1022C000880F991F880F991FC80FD91FCC0DDD1DCE
:1022D0003987288714968C9114978F831C830B83DE
:1022E0008D919C91119714962C91289F7001299F94
:1022F000F00C112486E0E80EF11CFE82ED829801BC
:10230000ABEABAEA0E948B319695879592958295B1
:102310008F7089279F70892731969F01220F331F65
:10232000EE0FFF1FEE0FFF1FEE0FFF1FE20FF31F59
:10233000EC0DFD1D80830E0D1F1D980121503109EC
:102340000E948B3196958795929582958F708927FB
:102350009F7089278B871C86B394BA1408F49BCF8F
:10236000980121503109ABEABAEA0E948B31969567
:102370008795929582958F7089279F70892792E023
:10238000980FF60191838F5FE558FF4F808390E0AF
:1023900007C0F601E90FF11DE458FF4F10829F5F5F
:1023A0009817B8F3DF91CF911F910F91FF90EF90A5
:0A23B000DF90CF90BF90AF9008952A
:1023BA000F931F93CF93DF93CDB7DEB727970FB64F
:1023CA00F894DEBF0FBECDBF8C0121E048E059E092
:1023DA0060E081E50E94D43281117CC047E0BE01F1
:1023EA006F5F7F4F81E50E94A82E811175C02981F8
:1023FA00822F8F7790E095958795959587959595F6
:10240A00879595958795880F982F990F990F890F1A
:10241A002F70820FF80180832A81822F8F7790E0B4
:10242A00959587959595879595958795959587958A
:10243A00880F982F990F990F890F2F70820F818318
:10244A002B81822F8F7390E0959587959595879527
:10245A009595879595958795880F982F990F990F38
:10246A00890F2F70820F82832C81822F8F7390E0C5
:10247A00959587959595879595958795959587953A
:10248A00880F982F990F990F890F2F70820F8383C6
:10249A002E81822F8F7190E09595879595958795D6
:1024AA009595879595958795880F982F990F990FE8
:1024BA00890F2F70820F84838F81982F92959F7036
:1024CA00990F292F220F220F920F8F70890F858360
:1024DA0080E003C082E001C082E027960FB6F8943C
:1024EA00DEBF0FBECDBFDF91CF911F910F9108952F
:1024FA00CF930E946A2CC0E00DC0C2E00BC0C5E0B9
:10250A0009C0C6E007C0C5E005C0C5E003C0C5E014
:10251A0001C0C5E0EC2FF0E0EC30F105D8F7E55B3F
:10252A00FF4F0C944F3463E076E080E00E941D2058
:10253A0069E276E080E00E941D200E9400310E943C
:10254A002F308111DACF6BE476E080E00E941D2003
:10255A00C4E0E0CF0E9485338111C3E00E948C332E
:10256A008111CDCFD7CF86ED97E00E941B3086ED43
:10257A0097E00E947D26882321F286ED97E00E944B
:10258A00682FC82FC7CF66ED77E080E84EE057E0A6
:10259A000E94AB0C882309F4B6CFCBE0BBCF66ED23
:1025AA0077E080E84EE057E00E94FC0D882309F4AA
:1025BA00ACCFCBE0AFCF66ED77E080E80E94D226C1
:1025CA00882309F4A4CFC2E0A5CF66ED77E080E8BE
:1025DA004EE057E00E94081C882309F49ACFCBE00A
:1025EA0099CF6EE077E080E80E941D20C2E092CF8A
:1025FA006AE676E080E00E941D20C2E08BCF64E7A5
:10260A0076E080E00E941D20C2E084CF0E946A34F6
:10261A0061E876E080E00E941D20C1E07BCF67EA96
:0C262A0076E080E00E941D20CF91089512
:102636004F925F926F927F928F92AF92BF92CF929C
:10264600DF92EF92FF920F931F93CF93DF93CDB755
:10265600DEB7A3970FB6F894DEBF0FBECDBF3B0122
:10266600882E5A0122E048EB5DE00E94421F182F97
:10267600882309F45DC088EB9DE06C0120E8E22E1A
:102686008E2DB6010E94C6340FEF080F073008F0F2
:102696004AC023E048EB5DE0882DB3010E94421F4B
:1026A600182F882309F444C08E2DB6010E94C63423
:1026B6002C0102978B329140C0F524E048EB5DE097
:1026C600882DB3010E94421F182F882389F18E2D71
:1026D600B6010E94C6346C0102978735924038F5E0
:1026E60063E2CE0101967C010E944433802F90E084
:1026F600FC01EE0FFF1FEE0FFF1FE80FF91FEE0D97
:10270600FF1D51824082D382C282B70180E843E234
:102716000E94AF3328E030E04AEC54E060E0C501A7
:102726000E948F2E05C010E003C010E001C010E02B
:10273600812FA3960FB6F894DEBF0FBECDBFDF91F3
:10274600CF911F910F91FF90EF90DF90CF90BF90A8
:0E275600AF908F907F906F905F904F9008959E
:102764004F925F926F927F928F929F92AF92BF929D
:10277400CF92DF92EF92FF920F931F93CF93DF9349
:1027840000D000D000D0CDB7DEB7F901492E512CCE
:10279400612C712C032E3AE1440C551C661C771CE9
:1027A4003A95D1F7302D90E0A0E0B0E0072E76E125
:1027B400880F991FAA1FBB1F7A95D1F7702D842902
:1027C4009529A629B729872E912CA12CB12C072E47
:1027D40071E1880C991CAA1CBB1C7A95D1F7702D49
:1027E40088299929AA29BB29C62ED12CE12CF12CA0
:1027F4000B2EBCE0CC0CDD1CEE1CFF1CBA95D1F7F3
:10280400B02D8C299D29AE29BF29052F10E020E089
:1028140030E0000F111F221F331F000F111F221F52
:10282400331F000F111F221F331F000F111F221F00
:10283400331F000F111F221F331F000F111F221FF0
:10284400331F802B912BA22BB32B842BB083A1831A
:102854009283838326960FB6F894DEBF0FBECDBF56
:10286400DF91CF911F910F91FF90EF90DF90CF9068
:10287400BF90AF909F908F907F906F905F904F909C
:022884000895B5
:10288600CF93DF938091E50E8230A1F128F488235F
:1028960059F0813029F1F6CF843009F46BC0C0F1CC
:1028A600853009F445C0EECF66EA72E080E00E940A
:1028B6004932C8E0DEE06C897D8940E35AE08E89C2
:1028C6009F890E94CE306F85788940EA58E08989D1
:1028D6000E94B324811159C081E08093E50ED2CFC6
:1028E6008CE89EE00E94DD11811151C082E0809348
:1028F600E50EC8CF0E9483340E9474348091C90EBD
:102906009091CA0E0E94433083E08093E50EBACFC1
:102916000E94E1318823E9F10E94A9318823D9F187
:102926000E94D3318823C9F185E08093E50EAACFB2
:102936002FEA3EE040918C0E50918D0E60918E0EE6
:1029460070918F0E8091900E9091910E0E94B2130D
:1029560040E35AE06FEA7EE085E00E94022340EA07
:1029660058E06FEA7EE084E00E94022384E08093D0
:10297600E50E88CF65EB72E080E00E9449320E9446
:10298600BD330E94F23281E009C083E007C082E0D5
:1029960005C080E003C080E001C080E0DF91CF91F8
:0229A600089592
:1029A800CF92DF92EF92FF920F931F93CF93DF9313
:1029B80000D0CDB7DEB7F42E052F22E04CE45EE060
:1029C8000E94421F182F882309F46BC08CE49EE0F4
:1029D8006C0120E8E22E2FEA36E040E08E2DB601A9
:1029E8000E94712B892B79F40E945B3381E00E944D
:1029F800A23228E130E042EB56E060E08F2D902FC4
:102A08000E948F2E4EC02AEC36E040E08E2DB60193
:102A18000E94712B892B79F40E945B3380E00E941D
:102A2800A23229E130E04EEC56E060E08F2D902F85
:102A38000E948F2E36C027EE36E040E08E2DB6017C
:102A48000E94712B892B21F5CE0101960E945226F6
:102A5800882351F028E130E04CEE56E060E08F2DFD
:102A6800902F0E948F2E1DC08A818F9389818F930A
:102A780084E097E0A0E0AF939F938F930F93FF922A
:102A88000E94A62A0FB6F894DEBF0FBECDBF09C0BC
:102A980026E130E04BE057E060E08F2D902F0E9458
:102AA8008F2E812F0F900F90DF91CF911F910F9153
:0A2AB800FF90EF90DF90CF9008959B
:102AC200CF93DF938091E40E823099F128F488232A
:102AD20051F0813021F1F6CF843009F460C088F1E1
:102AE2008530D9F1EFCF67EC72E080E00E94493285
:102AF200C8E0DEE06E8D7F8D40E35AE088A199A1A7
:102B02000E94CE30698D7A8D40EA58E08B8D0E940A
:102B1200B324811153C081E08093E40ED3CF8CE8BB
:102B22009EE00E94DD1181114BC082E08093E40E91
:102B3200C9CF0E9483340E94743483E08093E40EF0
:102B4200C1CF0E94E1318823E9F10E94A931882393
:102B5200D9F185E08093E40EB5CF2FEA3EE04091B3
:102B62008C0E50918D0E60918E0E70918F0E809111
:102B7200900E9091910E0E94B21340E35AE06FEAD8
:102B82007EE087E00E94022340EA58E06FEA7EE09E
:102B920086E00E94022384E08093E40E93CF66EDE8
:102BA20072E080E00E9449320E94BD330E94BA3432
:102BB2000E94F2320E94A63481E007C083E005C081
:102BC20082E003C080E001C080E0DF91CF910895F0
:102BD200CF93DF938091E60E823099F128F4882317
:102BE20051F0813021F1F6CF843009F460C088F1D0
:102BF2008530D9F1EFCF65E872E080E00E9449327A
:102C0200C8E0DEE06A857B8540E35AE08C859D85DD
:102C12000E94CE306D817E8140EA58E08F810E9411
:102C2200B32481114FC081E08093E60ED3CF8CE8AC
:102C32009EE00E94DD11811147C082E08093E60E82
:102C4200C9CF0E9483340E94743483E08093E60EDD
:102C5200C1CF0E94E1318823C9F10E94A9318823A2
:102C6200B9F185E08093E60EB5CF2FEA3EE04091C0
:102C72008C0E50918D0E60918E0E70918F0E809100
:102C8200900E9091910E0E94B21340E35AE06FEAC7
:102C92007EE083E00E94022340EA58E06FEA7EE091
:102CA20082E00E94022384E08093E60E93CF64E9DF
:102CB20072E080E00E9449320E94BD330E94F232EB
:102CC20081E007C083E005C082E003C080E001C06C
:082CD20080E0DF91CF9108952D
:102CDA001F93CF93DF9300D000D000D0CDB7DEB7DB
:102CEA00F9013DEC439F212D112426952695269521
:102CFA0010E1219FD0011124220FB22FBB0FBB0F6D
:102D0A002B0F421B4A2B4083539F212D11242695BA
:102D1A002695269540E1249FD0011124220F422FA7
:102D2A00440F440F240F521B5A2B5183639F412D8A
:102D3A00112446954695469510E1419FD0011124EC
:102D4A00440F242F220F220F420F641B6A2B628327
:102D5A00739F412D112446954695469520E1429F41
:102D6A00D0011124440F242F220F220F420F741B6B
:102D7A007A2B7383839F412D112446954695469558
:102D8A0010E1419FB0011124440F242F220F220F7A
:102D9A00420F841B862B8483939F312D11243695F1
:102DAA003695369520E1329FA0011124330F832FE7
:102DBA00880F880F380F931B942B958326960FB68E
:102DCA00F894DEBF0FBECDBFDF91CF911F9108955A
:102DDA006F927F928F92DF92EF92FF920F931F93DF
:102DEA00CF93DF9300D000D000D0CDB7DEB73B0140
:102DFA00882E7A010E94063322E048EB5DE0882D96
:102E0A00B3010E94421F182F882309F44EC068EBB1
:102E1A007DE080E80E94DC2F419749F025E230E00E
:102E2A0047E155E060E0C7010E948F2E3EC060E096
:102E3A0088EB9DE00E942A2E882E63E088EB9DE0B5
:102E4A000E942A2E782E66E088EB9DE00E942A2EA8
:102E5A00682E69E088EB9DE00E942A2E082F6CE01C
:102E6A0088EB9DE00E942A2ED82E6FE088EB9DE029
:102E7A000E942A2E482F5D2D602F762D872D982DA2
:102E8A000E947F24882349F023E130E04CE355E097
:102E9A0060E0C7010E948F2E08C028E030E04AECAB
:102EAA0054E060E0C7010E948F2E812F26960FB64C
:102EBA00F894DEBF0FBECDBFDF91CF911F910F9166
:0E2ECA00FF90EF90DF908F907F906F900895B3
:102ED800DF92EF92FF920F931F93CF93DF93CDB7BB
:102EE800DEB728970FB6F894DEBF0FBECDBFD82E39
:102EF8007B01042F10E0123009F440C028F411239C
:102F080049F0113049F1F7CF133009F44EC01430AD
:102F1800D9F1F1CF202FA7016D2D8EE592E00E9407
:102F2800BE1C8EE592E00E94C5316EE572E080E835
:102F38000E94722342E050E061E070E0CE01019609
:102F48000E94373421ED38E040E060E0CE01019680
:102F58000E943D3414E0CFCF42E050E063E070E0DF
:102F6800CE0101960E94373424ED38E040E060E05D
:102F7800CE0101960E943D3414E0BDCF6EE572E0AB
:102F880080E80E944B2412C00E947E33882309F4F3
:102F9800B2CF8EE592E00E9407306EE572E0CE0176
:102FA80001960E944425182FA6CF80E028960FB6D8
:102FB800F894DEBF0FBECDBFDF91CF911F910F9167
:082FC800FF90EF90DF900895E7
:102FD0008F929F92AF92BF92CF92DF92EF92FF9229
:102FE0000F931F93CF93DF93EC016B015A014901BB
:102FF0000E94382F8F3F2FEF920709F451C08C1594
:103000009D0509F04FC080E009C0FE01E80FF11DE9
:10301000E458FF4F9081913041F08F5FFE01E558F9
:10302000FF4F9081891788F380E091E0980FF501B8
:1030300090839981F401908390E040E3489F900150
:10304000499F300D1124F80131832083FE01E5589A
:10305000FF4F208130E021503109821793072CF473
:1030600080E3F701808381E01EC08A8190E00197B0
:10307000AC01440F551F880F991F880F991F880FA7
:10308000991F840F951FC80FD91F9B818D81890FB0
:10309000F0E32F9F80191124F701808381E003C0A2
:1030A00080E001C080E0DF91CF911F910F91FF90F0
:1030B000EF90DF90CF90BF90AF909F908F9008954A
:1030C0000F931F93CF93DF93CDB7DEB7A3970FB6C0
:1030D000F894DEBF0FBECDBF8A0162ED74E080E0E0
:1030E0000E94C22C62ED74E080E00E94DF2C63EE4F
:1030F00074E080E00E94FC2C60E070E080E89FE3D8
:103100000E949A3360E070E48CE195E40E94A13360
:1031100060E070E080EA90E40E94A83382E00E94C0
:10312000013485E090E00E940D3486E00E9419345D
:1031300080E01AC0E82FF0E09F01220F331F220F1A
:10314000331FE20FF31F21E030E02C0F3D1FE20F91
:10315000F31F92E0948322E030E03183208323E068
:1031600030E0338322838F5F873020F3BE016F5FAF
:103170007F4F80E843E20E94AF3323E130E044E038
:1031800055E060E0C8010E948F2E81E0A3960FB643
:10319000F894DEBF0FBECDBFDF91CF911F910F918D
:0231A000089590
:1031A20010C00E94D23358F00E94CB3340F029F471
:1031B2005F3F29F00C94493451110C94DA330C948A
:1031C200E2340E94C92A68F39923B1F3552391F39B
:1031D200951B550BBB27AA2762177307840738F084
:1031E2009F5F5F4F220F331F441FAA1FA9F335D0E1
:1031F2000E2E3AF0E0E832D091505040E695001C95
:10320200CAF72BD0FE2F29D0660F771F881FBB1F4E
:10321200261737074807AB07B0E809F0BB0B802D2C
:10322200BF01FF2793585F4F3AF09E3F510578F058
:103232000C9449340C94DA335F3FE4F3983ED4F3B0
:10324200869577956795B795F7959F5FC9F7880F2C
:10325200911D9695879597F90895E1E0660F771F7E
:10326200881FBB1F621773078407BA0720F0621B0F
:0E327200730B840BBA0BEE1F88F7E0950895DE
:103280008091E70E823051F128F4882351F081308B
:10329000D9F0F6CF843009F452C050F18530A1F155
:1032A000EFCF64E672E080E00E944932E8E0FEE0A1
:1032B0006081718140E35AE0828193810E94CE3027
:1032C00081E08093E70EDCCF8CE89EE00E94DD1168
:1032D00081113EC082E08093E70ED2CF8091E30E51
:1032E0000E9440310E94833483E08093E70EC8CF70
:1032F0000E940F33882371F10E94E131882361F12C
:1033000085E08093E70EBCCF2FEA3EE040918C0E23
:1033100050918D0E60918E0E70918F0E8091900E57
:103320009091910E0E94B21340E35AE06FEA7EE062
:1033300081E00E94022384E08093E70EA1CF63E73F
:1033400072E080E00E9449320E94BD3381E008951E
:0C33500082E0089580E0089580E0089578
:10335C00CF92DF92EF92FF920F931F93CF93DF9355
:10336C00DC01EB0190E040E0C12CD12C76014AC08D
:10337C00292F30E0F901EE0FFF1F220F331F220F10
:10338C00331F220F331FE20FF31FEA0FFB1F27819E
:10339C002230A9F0243021F1213091F501E010E028
:1033AC00042E02C0000F111F0A94E2F7012E000C2C
:1033BC00220B330BC02AD12AE22AF32A21C002E0C5
:1033CC0010E0042E02C0000F111F0A94E2F7012E28
:1033DC00000C220B330BC02AD12AE22AF32A10C08C
:1033EC0003E010E0042E02C0000F111F0A94E2F754
:1033FC00012E000C220B330BC02AD12AE22AF32A0D
:10340C004E5F9F5F12968C911297981708F4B0CF6D
:10341C00EB82DC82CD82DF91CF911F910F91FF90D7
:08342C00EF90DF90CF900895AE
:103434000FC00E94CB3338F00E94D23320F0952382
:1034440011F00C9449340C94E23411240C94DA33C2
:103454000E94C92A70F3959FC1F3950F50E0551F40
:10346400629FF001729FBB27F00DB11D639FAA27D5
:10347400F00DB11DAA1F649F6627B00DA11D661F24
:10348400829F2227B00DA11D621F739FB00DA11D45
:10349400621F839FA00D611D221F749F3327A00DFF
:1034A400611D231F849F600D211D822F762F6A2F9B
:1034B40011249F5750409AF0F1F088234AF0EE0F00
:1034C400FF1FBB1F661F771F881F91505040A9F72D
:1034D4009E3F510580F00C9449340C94DA335F3FDD
:1034E400E4F3983ED4F3869577956795B795F79569
:1034F400E7959F5FC1F7FE2B880F911D96958795E1
:0435040097F9089596
:1035080011C00E94CB3338F00E94D23320F039F436
:103518009F3F19F426F40C94E2340EF4E095E7FB8F
:103528000C944934E92F0E94C92A58F3BA17620744
:1035380073078407950720F079F4A6F50C94D9331E
:103548000EF4E0950B2EBA2FA02D0B01B9019001B6
:103558000C01CA01A0011124FF27591B99F0593FFA
:1035680050F4503E68F11A16F040A22F232F342F42
:103578004427585FF3CF469537952795A795F04090
:103588005395C9F77EF41F16BA0B620B730B840BA5
:10359800BAF09150A1F0FF0FBB1F661F771F881F5D
:1035A800C2F70EC0BA0F621F731F841F48F48795B5
:1035B80077956795B795F7959E3F08F0B0CF9395A7
:0E35C800880F08F09927EE0F979587950895C4
:1035D6001F93CF93DF93CDB7DEB72D970FB6F89431
:1035E600DEBF0FBECDBF182F81E0898382E08A83BC
:1035F60085E0E2E9FEE0DE01139601900D928A95E0
:10360600E1F7CE0108960E94DD118A85810F9BEABB
:10361600899F912D112492959F7028E1929F801980
:1036260011248A87AE014F5F5F4F60E822E081E593
:103636000E94FD31811120C09A858DEC989F812DC5
:10364600112486958695869540E1849F90011124E4
:10365600880F382F330F330F830F981B922B9D83C0
:10366600AE014D5F5F4F60E825E081E50E94FD31C8
:10367600882321F082E003C082E001C080E02D961D
:103686000FB6F894DEBF0FBECDBFDF91CF911F916D
:02369600089595
:10369800CF92DF92EF92FF921F93CF93DF93CDB734
:1036A800DEB7A3970FB6F894DEBF0FBECDBF7C017F
:1036B80063E2CE0101960E944433F701108210E0C4
:1036C80035C0812F90E0FC01EE0FFF1FEE0FFF1FAA
:1036D800E80FF91F21E030E02C0F3D1FE20FF31F28
:1036E80023812F9322812F9321812F9320812F9340
:1036F80001969F938F938BE794E0A0E0AF939F93FD
:103708008F930F2EF8EBCF2EFDE0DF2EF02DDF92FA
:10371800CF920E94A62AA60160E8C7010E94C52F81
:103728001F5F0FB6F894DEBF0FBECDBF173048F24B
:10373800A3960FB6F894DEBF0FBECDBFDF91CF9131
:0C3748001F91FF90EF90DF90CF9008954C
:10375400FA01AA27283051F1203181F1E8946F93BE
:103764006E7F6E5F7F4F8F4F9F4FAF4FB1E03ED064
:10377400B4E03CD0670F781F891F9A1FA11D680F02
:10378400791F8A1F911DA11D6A0F711D811D911D35
:10379400A11D20D009F468943F912AE0269F1124AA
:1037A4003019305D3193DEF6CF010895462F47700E
:1037B400405D4193B3E00FD0C9F7F6CF462F4F7069
:1037C400405D4A3318F0495D31FD4052419302D0C7
:1037D400A9F7EACFB4E0A69597958795779567956D
:1037E400BA95C9F700976105710508959B01AC016D
:1037F4000A2E06945795479537952795BA95C9F794
:0C380400620F731F841F951FA01D089504
:103810006F927F928F92CF92DF92EF920F931F93CE
:10382000CF933B01882E8A0121E04CE45EE00E94A8
:10383000421FC82F8823E9F18CE49EE06C0120E848
:10384000E22E2CE437E040E08E2DB6010E94712B71
:10385000892B39F4A801882DB3010E94D414C82FF4
:1038600028C021E537E040E08E2DB6010E94712B83
:10387000892B39F4A801882DB3010E94661DC82F39
:1038800018C025E537E040E08E2DB6010E94712B6F
:10389000892B39F4A801882DB3010E94B81DC82FC7
:1038A00008C026E130E04BE057E060E0C8010E942C
:1038B0008F2E8C2FCF911F910F91EF90DF90CF9093
:0838C0008F907F906F90089536
:1038C800CF92DF92EF92FF920F931F93CF93DF93E4
:1038D8006C0110E008C0CC0DDD1D88818E3211F41A
:1038E8001F5F0CC01F5FC12FD0E0B60180E80E94A7
:1038F800DC2F0197C817D90770F310E0112371F175
:10390800C10ED11C80E8E82E8E2DB6010E94DC2F56
:10391800C82F8E2DB6010E94C6348C010F2EC12CE3
:10392800D12CF0E8EF2EFFE3FF2EF02D0BC020E0A6
:1039380030E040E251E4C701B6010E94C2346B0195
:103948007C01C150C111F3CFB80180E090E00E9422
:103958002521A70196010E94BE3403C060E070E0F3
:10396800CB01DF91CF911F910F91FF90EF90DF90E6
:04397800CF9008954F
:10397C00DF92EF92FF920F931F93CF93DF93CDB70C
:10398C00DEB7C756D1090FB6F894DEBF0FBECDBF58
:10399C008C019FEF960F9F3D68F59FEF920F93332D
:1039AC0060F5D62E30E060E8CE0101967C010E94D5
:1039BC00A520C701A0E8AF939F93EF921F92DF92CF
:1039CC008AE398E0A0E0AF939F938F9385E498E00F
:1039DC00A0E0AF939F938F931F930F930E94A62AFF
:1039EC00B80180E80E94DC2F0FB6F894DEBF0FBE42
:1039FC00CDBF05C08FEF9FEF02C08FEF9FEFC9596E
:103A0C00DF4F0FB6F894DEBF0FBECDBFDF91CF9165
:0C3A1C001F910F91FF90EF90DF90089534
:103A28000F931F93CF93DF938C01EB01FC018181EE
:103A38008883818189831A82C8010E94AE1920E097
:103A480035C0822F90E0DC01AA0FBB1FAA0FBB1F55
:103A5800AD014A5F5F4F4C0F5D1FFC01EE0FFF1F6A
:103A6800880F991F880F991F880F991FE80FF91F52
:103A7800BF01600F711FFB018481FA018083CD01B2
:103A880007968C0F9D1FFB013381FC013083CD010C
:103A980008968C0F9D1FFB013681FC013083199617
:103AA800AC0FBD1FFB0185818C932F5FF8018281CC
:103AB800281738F2880F880F8A5FDF91CF911F91FE
:043AC8000F910895BD
:103ACC00FF920F931F93CF93DF9300D0CDB7DEB748
:103ADC00F42E052F22E04CE45EE00E94421F182FCA
:103AEC008823B9F16CE47EE080E827EE36E040E014
:103AFC000E94712B892B21F5CE0101960E94243254
:103B0C00882351F028E130E04CEE56E060E08F2D38
:103B1C00902F0E948F2E1DC08A818F9389818F9345
:103B2C0084E097E0A0E0AF939F938F930F93FF9265
:103B3C000E94A62A0FB6F894DEBF0FBECDBF09C0F7
:103B4C0026E130E04BE057E060E08F2D902F0E9493
:103B5C008F2E812F0F900F90DF91CF911F910F918E
:043B6C00FF90089529
:103B7000CF92DF92EF920F931F93CF938A0122E0AF
:103B80004CE45EE00E94421FC82F8823D9F18CE4E8
:103B90009EE06C0120E8E22E2FEA36E040E08E2D18
:103BA000B6010E94712B892B71F40E94693381E068
:103BB0000E94B63225E130E041E257E060E0C80102
:103BC0000E948F2E1FC02AEC36E040E08E2DB601F9
:103BD0000E94712B892B71F40E94693380E00E944E
:103BE000B63226E130E046E357E060E0C8010E94CB
:103BF0008F2E08C026E130E04BE057E060E0C801BE
:103C00000E948F2E8C2FCF911F910F91EF90DF90FC
:043C1000CF900895B4
:103C14000F931F93CF93DF938C01EB011882FC0168
:103C2400818189831A82C8010E94AE1920E035C0BF
:103C3400822F90E0DC01AA0FBB1FAA0FBB1FAD01AE
:103C44004A5F5F4F4C0F5D1FFC01EE0FFF1F880F93
:103C5400991F880F991F880F991FE80FF91FBF013B
:103C6400600F711FFB018481FA018083CD010796E7
:103C74008C0F9D1FFB013381FC013083CD0108961D
:103C84008C0F9D1FFB013681FC0130831996AC0F0C
:103C9400BD1FFB0185818C932F5FF801828128175A
:103CA40038F2880F880F8A5FDF91CF911F910F91AF
:023CB400089571
:103CB6000F931F93CF93DF9300D000D000D0CDB7E2
:103CC600DEB78C018FEF9FEFF801918380830E940E
:103CD6005B34811107C08EEF9FEFF80191838083DB
:103CE60083E02CC022E046E059E060E081E60E94D5
:103CF600FD3181111EC08FE39FE10197F1F700C0EE
:103D0600000046E0BE016F5F7F4F81E60E94442EB1
:103D1600811111C0CE0101960E94762E882369F08A
:103D2600CE0101960E941732F8019183808380E0CC
:103D360005C081E003C081E001C081E026960FB690
:103D4600F894DEBF0FBECDBFDF91CF911F910F91CB
:023D56000895CE
:103D58008F929F92AF92BF92CF92DF92EF92FF9293
:103D6800BC0180E090E00E94252120E030E040E89E
:103D780059E30E94C23480909F0E9090A00EA090AC
:103D8800A10EB090A20EA50194010E94C2346B014D
:103D98007C019B01AC01C501B4010E94C433A70199
:103DA80096010E94BE3420919B0E30919C0E40914A
:103DB8009D0E50919E0E0E94C2342091970E309114
:103DC800980E4091990E50919A0E0E94C2340E940A
:103DD8001525CB01FF90EF90DF90CF90BF90AF906B
:063DE8009F908F900895EA
:103DEE00AF92BF92CF92DF92EF92FF920F931F93FB
:103DFE00CF93DF9300D000D01F92CDB7DEB76B010B
:103E0E005A019E012B5F3F4F79018E010D5F1F4FAF
:103E1E0023503109AE014F5F5F4FBC0188E89CE033
:103E2E000E94E8178823B1F04D8183E0840FF501DD
:103E3E0080838091880CF6018083898181838A81B9
:103E4E00828350E06B817C81C60103960E94202FF5
:103E5E0081E001C080E00F900F900F900F900F90B7
:103E6E00DF91CF911F910F91FF90EF90DF90CF9048
:063E7E00BF90AF90089513
:103E84008F929F92AF92CF92DF92EF92FF920F9315
:103E94001F93CF93DF936B01E82EEA01F22E0E9469
:103EA400FC268F1558F18E2DB6010E94DC2F8C0153
:103EB4004F2D8E2DB6010E943A2390E015C0460185
:103EC400AE2C820E931EA11C37FDAA944A2D940198
:103ED400F401249147FD2081203259F0FE01E90FBD
:103EE400F11D20838F5F9F5F282F30E0201731075B
:103EF40030F3C90FD11D188281E001C080E0DF9149
:103F0400CF911F910F91FF90EF90DF90CF90AF90E2
:063F14009F908F900895BC
:103F1A000F931F93CF93DF9300D000D000D0CDB77B
:103F2A00DEB7182F092F0E940633CE0101960E9490
:103F3A00DD11882351F024E130E041E954E060E0EA
:103F4A00812F902F0E948F2E21C059814A813B8157
:103F5A002C819D818E811F925F931F924F931F9296
:103F6A003F931F922F931F929F931F928F9385EADD
:103F7A0094E0A0E0AF939F938F930F931F930E94B7
:103F8A00A62A0FB6F894DEBF0FBECDBF26960FB68F
:103F9A00F894DEBF0FBECDBFDF91CF911F910F9175
:023FAA00089578
:103FAC00CF92DF92FF920F931F93CF93DF938901F0
:103FBC00FA010BC0DF01A41BB50BA80FB91F3C9174
:103FCC00DF01AA5DBC4F3C9331966A0126E0C20E1C
:103FDC00D11CEC15FD0570F398012650310936956E
:103FEC002795495F5F4FA0E0B0E016C0CD01880F68
:103FFC00991FF601E80FF91F8B01080F191FE80133
:10400C00F980EA5DFC4FF082840F951F1881FC014A
:10401C00EA5DFC4F10831196A217B30738F3DF91BA
:0E402C00CF911F910F91FF90DF90CF900895DC
:10403A006F927F928F92CF92DF92EF923B01882EFE
:10404A008091D60E8111FCCF882DB3010E94DC2FFE
:10405A00BC0190E012C0292F30E0E82C6301C40EA5
:10406A00D51EE11C57FDEA94F6014491E7FC408114
:10407A00F901E054F44F40839F5F492F50E04617FF
:10408A00570748F3FB01E054F44F8DE08083FB01AE
:10409A00EF53F44F8AE080836E5F6093D60E81E01F
:1040AA008093D50E8091C00B8093CE00EF90DF9065
:0A40BA00CF908F907F906F900895D3
:1040C4000F931F93CF93DF938C01A62FB0E011972A
:1040D400FD01EE0FFF1FCD01880F991F880F991F57
:1040E400880F991FE80FF91FE00FF11F83E0848701
:1040F40090E00AC0E92FF0E0E901CE0FDF1FE40FE2
:10410400F51F808188839F5F9430A0F3CD01880FD1
:10411400991FAA0FBB1FAA0FBB1FAA0FBB1FA80F73
:10412400B91FA00FB11F19968C911997F9018483B7
:1041340018968C918583C8010E948710DF91CF91D6
:064144001F910F91089588
:10414A006F927F928F92EF92FF920F931F93CF936A
:10415A00DF937C013A01862E8901C0E0D0E025C0B8
:10416A00A82DC3018C0F9D1FA11DD7FDAA95FC0187
:10417A002491A7FD2081CE01880F991F1F922F93AA
:10418A002BED37E040E04F933F932F938E0D9F1D09
:10419A009F938F930E94A62A21968DB79EB7079662
:1041AA000FB6F8949EBF0FBE8DBFC017D107C4F2D9
:1041BA00DF91CF911F910F91FF90EF908F907F9099
:0441CA006F90089555
:1041CE001F920F920FB60F9211242F933F934F937E
:1041DE005F936F937F938F939F93AF93BF93CF9381
:1041EE00EF93FF938091CD0E8F5F8093CD0E803233
:1041FE0099F41092CD0EC0E00DC0EC2FF0E0EE0F52
:10420E00FF1FEE57F14F0190F081E02D309709F02E
:10421E000995CF5FC53088F3FF91EF91CF91BF9194
:10422E00AF919F918F917F916F915F914F913F9140
:0C423E002F910F900FBE0F901F9018954D
:10424A00E89409C097FB3EF4909580957095619526
:10425A007F4F8F4F9F4F9923A9F0F92F96E9BB27DC
:10426A009395F695879577956795B795F111F8CF58
:10427A00FAF4BB0F11F460FF1BC06F5F7F4F8F4FC3
:10428A009F4F16C0882311F096E911C0772321F0B9
:10429A009EE8872F762F05C0662371F096E8862F51
:1042AA0070E060E02AF09A95660F771F881FDAF7A8
:0A42BA00880F9695879597F90895EF
:1042C400CF93DF93EA01AB01682F8EE592E00E9461
:1042D4009A318EE592E00E94C5316EE572E080E885
:1042E4000E9472231092DF0E81E394E30E94A826B9
:1042F4008093DE0E0E947E33811104C08091DF0E14
:104304008F30C0F38091DE0E0E94882C8091DF0EE6
:104314008F3060F02CE030E045EE58E060E0CE01F4
:104324000E948F2ECE010E94073003C0CE010E944E
:084334000730DF91CF910895DD
:10433C00CF92DF92EF920F931F93CF938A0122E0DB
:10434C0048EB5DE00E94421FC82F882329F188EBBF
:10435C009DE06C0120E8E22E8E2DB6010E94DC2F30
:10436C004097C9F48E2DB6010E94C22CC82F811122
:10437C0009C027E030E043EC54E060E0C8010E9443
:10438C008F2E0AC028E030E04AEC54E060E0C8010F
:10439C000E948F2E01C0C0E08C2FCF911F910F91E6
:0843AC00EF90DF90CF9008951F
:1043B400CF92DF92EF920F931F93CF938A0122E063
:1043C40048EB5DE00E94421FC82F882329F188EB47
:1043D4009DE06C0120E8E22E8E2DB6010E94DC2FB8
:1043E4004097C9F48E2DB6010E94DF2CC82F81118D
:1043F40009C027E030E043EC54E060E0C8010E94CB
:104404008F2E0AC028E030E04AEC54E060E0C80196
:104414000E948F2E01C0C0E08C2FCF911F910F916D
:08442400EF90DF90CF900895A6
:10442C00CF92DF92EF920F931F93CF938A0122E0EA
:10443C0048EB5DE00E94421FC82F882329F188EBCE
:10444C009DE06C0120E8E22E8E2DB6010E94DC2F3F
:10445C008097C9F48E2DB6010E94FC2CC82F8111B7
:10446C0009C027E030E043EC54E060E0C8010E9452
:10447C008F2E0AC028E030E04AEC54E060E0C8011E
:10448C000E948F2E01C0C0E08C2FCF911F910F91F5
:08449C00EF90DF90CF9008952E
:1044A4000F931F93CF93DF93FB01248121FD03C05E
:1044B4008FEF9FEF2CC022FF16C0478150852581C6
:1044C40036814217530744F4A081B1819D012F5FC7
:1044D4003F4F318320838C93278130852F5F3F4F5B
:1044E4003087278314C08B01EC01FB010184F28522
:1044F400E02D0995892BE1F6D80117968D919C91B1
:104504001897019618969C938E931797CE01DF9176
:08451400CF911F910F91089552
:10451C001F920F920FB60F9211242F938F939F938C
:10452C00EF93FF938091CF0E81110EC0E091D00ECE
:10453C00E63950F481E08E0F8093D00EF0E080913C
:10454C00C600E050FF4F80838091D00E833080F006
:10455C0090E0FC01E150FF4F20812A3049F4FC012E
:10456C00E250FF4F80818D3019F481E08093CF0EA3
:10457C00FF91EF919F918F912F910F900FBE0F9004
:04458C001F901895CF
:104590001F920F920FB60F9211242F938F939F9318
:1045A000EF93FF938091D30E81110EC0E091D40E52
:1045B000E63950F481E08E0F8093D40EF0E08091C4
:1045C000CE00EE5DF24F80838091D40E833080F078
:1045D00090E0FC01EF5DF24F20812A3049F4FC01AC
:1045E000E05EF24F80818D3019F481E08093D30E2C
:1045F000FF91EF919F918F912F910F900FBE0F9090
:044600001F9018955A
:10460400EF92FF921F93CF93DF93CDB7DEB72A9734
:104614000FB6F894DEBF0FBECDBF182F7A019E01EE
:104624002F5F3F4FAB01682F88E89CE00E94622017
:104634009E01275F3F4FAE01495F5F4F612F88E8BE
:104644009CE00E94A42D29853A854F815885B701A5
:10465400CE0101960E94D61F2A960FB6F894DEBFAB
:104664000FBECDBFDF91CF911F91FF90EF900895C2
:10467400CF92DF92EF920F931F93CF93DF93442354
:1046840029F1042F6B01E82EC0E0D0E010E014C043
:10469400AE2DC6018C0F9D1FA11DD7FDAA95FC014F
:1046A4008491A7FD8081803231F41F5F011303C020
:1046B400CE0101960DC021968E2DB6010E94DC2FED
:1046C400C817D90728F380E090E002C080E090E0AA
:1046D400DF91CF911F910F91EF90DF90CF900895CC
:1046E4006F927F928F92CF92DF92EF923B01882E4E
:1046F4008091D20E8111FCCF882DB3010E94DC2F52
:10470400682F90E012C0292F30E0E82C6301C20E1C
:10471400D31EE11C37FDEA94F6014491E7FC408185
:10472400F901EA56FE4F40839F5F961760F380932A
:10473400D20E81E08093D10E809196018093C600C1
:0E474400EF90DF90CF908F907F906F90089550
:1047520085E50E941A2A1092BE0E1092BD0E8CEFB1
:1047620092E30E94A8268093DD0E0E947E3381117F
:1047720006C08091BD0E9091BE0E0A97B0F3809153
:10478200DD0E0E94882C8091BD0E9091BE0E0A977C
:1047920020F00E94653481E008958EE592E00E9447
:1047A20007306EE572E080E823E039E040E00E94E5
:0E47B200712B892B11F480E0089581E00895A9
:1047C000CF92DF92EF920F931F936C0120E8E22EBD
:1047D00004E010E02AE537E040E08E2DB6010E94AB
:1047E0001624892BC1F005E010E02FE537E040E00A
:1047F0008E2DB6010E941624892B79F004E010E07A
:1048000025E637E040E08E2DB6010E941624892B64
:1048100031F485E005C086E003C084E001C083E098
:0C4820001F910F91EF90DF90CF90089552
:10482C00CF92DF92EF920F931F936B01E82E01153D
:10483C00110519F101501109F6018491E7FC8081F1
:10484C00882399F0F901949147FD9081992369F09F
:10485C000115110551F0891308C08FEFC81AD80A39
:10486C00E80A2F5F3F4F4F4FE5CF90E0F9012491BD
:10487C0047FD2081821B910902C080E090E01F91CE
:0A488C000F91EF90DF90CF90089598
:10489600CF92DF92EF926B01E82E26EA38E040E0F5
:1048A6000E94712B892BE9F021EB38E040E08E2D38
:1048B600B6010E94712B892BB1F029EB38E040E05C
:1048C6008E2DB6010E94652981110FC020EC38E0BB
:1048D60040E08E2DB6010E946529882341F085E0CF
:1048E60007C082E005C084E003C080E001C081E02B
:0848F600EF90DF90CF900895D0
:1048FE00CF93DF93CDB7DEB764970FB6F894DEBFD4
:10490E000FBECDBF9E01275F3F4F0E946D1682E006
:10491E00898389858A838A858B838B858C838C8515
:10492E008D831E828D858F838E858887AE014F5F26
:10493E005F4F60E828E081E50E94FD31882311F089
:10494E0082E001C080E064960FB6F894DEBF0FBE21
:08495E00CDBFDF91CF91089558
:10496600CF935093BA0E4093B90E7093BC0E6093DA
:10497600BB0E1092B80E1092B70E6DE37AE20E944B
:10498600793081E00E9498322FEF83EC99E0215034
:1049960080409040E1F700C0000060E08DE40E9496
:1049A6008A29C82F0E943C33CC2351F01092BA0EAC
:1049B6001092B90E1092BC0E1092BB0E82E001C08E
:0649C60080E0CF9108958E
:1049CC00CF93DF93443651056105710518F1EC0165
:1049DC007F936F935F934F9383EE97E0A0E0AF9339
:1049EC009F938F938DEE97E0A0E0AF939F938F935F
:1049FC00DF93CF930E94A62ABE0180E80E94DC2F91
:104A0C002DB73EB7245F3F4F0FB6F8943EBF0FBE95
:0E4A1C002DBF02C08FEF9FEFDF91CF91089565
:104A2A000E94D12A88F09F5798F0B92F9927B75139
:104A3A00B0F0E1F0660F771F881F991F1AF0BA9538
:104A4A00C9F714C0B13091F00E94D933B1E008958A
:104A5A000C94D933672F782F8827B85F39F0B93F7C
:104A6A00CCF3869577956795B395D9F73EF49095EB
:0E4A7A008095709561957F4F8F4F9F4F0895E7
:104A8800CF93DF93EC018C81813091F018F0823064
:104A9800E9F01FC02D813E814F8180E80E94712B73
:104AA800892B19F48881998116C08A819B8113C04A
:104AB8002D813E814F8180E80E946529882319F065
:104AC8008881998108C08A819B8105C088819981E4
:0C4AD80002C08A819B81DF91CF9108957C
:104AE4000F931F93CF938C01C42F6230D9F018F425
:104AF400662329F01EC06450623050F01AC00E9430
:104B0400433468EE72E080E00E9449328C2F12C078
:104B140065EF72E080E00E944932C8010E9443348C
:104B24008C2F08C062E073E080E00E9449328C2F31
:0C4B340001C086E1CF911F910F91089500
:104B4000EF92FF920F931F93CF93DF938C01D62F99
:104B5000C0E008C07801EC0EF11C0E94DE32F701C3
:104B60008083CF5F2C2F30E08D2F90E001972817A6
:104B7000390784F38D2F90E00197E801C80FD91F02
:104B80000E94E83288830E943C3380E0DF91CF911D
:0A4B90001F910F91FF90EF90089520
:104B9A0081E79EE00E94C02E80E69EE00E94D82E09
:104BAA008BE29EE00E94F02E63E288E09EE00E9483
:104BBA0044338BEA9EE00E946D3187EA9EE00E94B0
:104BCA005E3183EA9EE00E944F310E94073480934F
:104BDA00E30E0E9413349093CA0E8093C90E0E946A
:0A4BEA001F348093E20E81E008956D
:104BF400CF92DF92EF926C0120E8E22E2EE438E0AF
:104C040040E08E2DB6010E94712B892BA1F029E57D
:104C140038E040E08E2DB6010E94712B892B69F09B
:104C240020E638E040E08E2DB6010E94712B892BDE
:104C340031F483E005C082E003C082E001C081E07A
:084C4400EF90DF90CF9008957E
:104C4C00EF92FF920F931F93CF93DF937C0110E0B1
:104C5C0000E00DC0CE0DDF1D88818E3221F40111D4
:104C6C0011C001E003C080538A3070F41F5FC12F64
:104C7C00D0E0B70180E80E94DC2FC817D90750F3A9
:104C8C0081E003C080E001C080E0DF91CF911F91F3
:084C9C000F91FF90EF900895C5
:104CA4000F931F93CF93DF9300D0CDB7DEB78C0162
:104CB4008FEF9FEFF8019183808342E0BE016F5F25
:104CC4007F4F8DE40E94442E81110DC0898190E0B4
:104CD400982F88272A81822B0E94AC1EF801918389
:104CE400808380E001C081E00F900F90DF91CF912D
:064CF4001F910F910895CD
:104CFA00CF93DF93EC01BC0180E80E94DC2FBC015A
:104D0A00FC013197EC0FFD1F80818032B1F020E069
:104D1A0030E040E00DC0FE01E20FF31F90819032B7
:104D2A0021F441110CC041E001C040E02F5F3F4F28
:104D3A002617370780F381E003C080E001C080E0D6
:064D4A00DF91CF910895F6
:104D5000CF93DC016091CE0E653000F590E015C078
:104D6000292F30E0F901EE0FFF1FEE57F14F408180
:104D70005181452B49F4220F331FF901EE57F14FB2
:104D8000B183A083C92F04C09F5F953048F3CFEF54
:104D90006F5F6093CE0E0E94A23401C0CFEF8C2FC4
:044DA000CF91089512
:104DA400CF93DF93CDB7DEB764970FB6F894DEBF29
:104DB4000FBECDBF21E0AE014F5F5F4F0E94421F87
:104DC400882379F0BE016F5F7F4F80E826ED37E0DE
:104DD40040E00E94712B892B19F40E94D40F01C06A
:104DE40080E064960FB6F894DEBF0FBECDBFDF91AE
:044DF400CF910895BE
:104DF8006F927F928F92CF92DF92EF923B01882E33
:104E08000E94DC2FBC0120E030E080E010C0E82CDC
:104E18006301C20ED31EE11C37FDEA94F60194919A
:104E2800E7FC9081903209F48F5F2F5F3F4F261780
:104E3800370768F3EF90DF90CF908F907F906F9057
:024E48000895CB
:104E4A00CF93DF9300D0CDB7DEB79DE09983813051
:104E5A0031F018F0803231F013C01A8205C083E8AD
:104E6A008A8302C082E88A83AE014F5F5F4F60E89F
:104E7A0022E081E50E94FD31882321F082E003C00F
:104E8A0081E001C080E00F900F90DF91CF910895EB
:104E9A000F931F93CF938A0122E048EB5DE00E94B3
:104EAA00421FC82F8823B9F068EB7DE080E80E9492
:104EBA00C6349C0125503109243E334058F40E94DF
:104ECA000D3428E030E04AEC54E060E0C8010E946A
:104EDA008F2E01C0C0E08C2FCF911F910F910895A2
:104EEA001F920F920FB60F9211242F933F934F9355
:104EFA005F936F937F938F939F93AF93BF93EF9338
:104F0A00FF93E091B30EF091B40E0995FF91EF91E2
:104F1A00BF91AF919F918F917F916F915F914F91C7
:0E4F2A003F912F910F900FBE0F901F90189582
:104F38001F920F920FB60F9211242F933F934F9306
:104F48005F936F937F938F939F93AF93BF93EF93E9
:104F5800FF93E091B50EF091B60E0995FF91EF9190
:104F6800BF91AF919F918F917F916F915F914F9179
:0E4F78003F912F910F900FBE0F901F90189534
:104F86000F931F93CF93DF93EC012F931F930F93F0
:104F96006F935F934F9384EF97E0A0E0AF939F9357
:104FA6008F93DF93CF930E94A62ABE0180E80E94CA
:104FB600DC2F2DB73EB7255F3F4F0FB6F8943EBFA7
:0E4FC6000FBE2DBFDF91CF911F910F91089567
:104FD400CF92DF92EF92FF920F931F93CF93DF93C1
:104FE4008C01BC0180E80E94C634EC01C8010E9417
:104FF400641C6B017C01BE0180E090E00E942521CD
:105004009B01AC01C701B6010E94C533DF91CF916A
:0E5014001F910F91FF90EF90DF90CF900895C5
:10502200CF92DF92EF92CF93DF936A01E62ED22FD7
:1050320060E00E948A29811113C0C0E00EC0AE2D2B
:10504200C6018C0F911DA11DFC018491A7FD8081D9
:105052000E941031811104C0CF5FCD1780F380E030
:0C506200DF91CF91EF90DF90CF90089588
:10506E00CF93DF93D82FC0E019C080E00E94C032EA
:10507E002FEF82E597E0215080409040E1F700C08D
:10508E00000081E00E94C0322FEF82E597E02150B0
:10509E0080409040E1F700C00000CF5FCD1728F3AD
:0C50AE0080E00E94C032DF91CF91089595
:1050BA000F931F93CF938A0122E048EB5DE00E9491
:1050CA00421FC82F8823A9F088EB9DE00E9426265C
:1050DA00C82F882371F088EB9DE00E94EA270E947E
:1050EA009A3328E030E04AEC54E060E0C8010E94BC
:0C50FA008F2E8C2FCF911F910F910895E5
:105106000F931F93CF938A0122E048EB5DE00E9444
:10511600421FC82F8823A9F088EB9DE00E9426260F
:10512600C82F882371F088EB9DE00E94EA270E9431
:10513600A13328E030E04AEC54E060E0C8010E9468
:0C5146008F2E8C2FCF911F910F91089598
:105152000F931F93CF938A0122E048EB5DE00E94F8
:10516200421FC82F8823A9F088EB9DE00E942626C3
:10517200C82F882371F088EB9DE00E94EA270E94E5
:10518200A83328E030E04AEC54E060E0C8010E9415
:0C5192008F2E8C2FCF911F910F9108954C
:10519E000F931F93CF938A0122E048EB5DE00E94AC
:1051AE00421FC82F8823A9F068EB7DE080E80E949B
:1051BE00C6349FEF980F983C58F40E94013428E0B3
:1051CE0030E04AEC54E060E0C8010E948F2E01C02E
:0C51DE00C0E08C2FCF911F910F9108951D
:1051EA000F931F93CF938A0122E048EB5DE00E9460
:1051FA00421FC82F8823A9F068EB7DE080E80E944F
:10520A00C6349AEF980F933158F40E94193428E063
:10521A0030E04AEC54E060E0C8010E948F2E01C0E1
:0C522A00C0E08C2FCF911F910F910895D0
:105236001F920F920FB60F9211248F93EF93FF9345
:10524600E091D10E8091D20EE81758F481E08E0FCE
:105256008093D10EF0E0EA56FE4F80818093C6001F
:1052660004C01092D10E1092D20EFF91EF918F9141
:0A5276000F900FBE0F901F901895C7
:105280001F920F920FB60F9211248F93EF93FF93FB
:10529000E091D50E8091D60EE81758F481E08E0F7C
:1052A0008093D50EF0E0E054F44F80818093CE00DF
:1052B00004C01092D50E1092D60EFF91EF918F91EF
:0A52C0000F900FBE0F901F9018957D
:1052CA006F927F928F92CF92DF92EF920F931F93FA
:1052DA003B01882E6901E42E842FB9010E94DC2F3C
:1052EA008C014E2D9601882DB3010E94162421E0CF
:1052FA00892B09F020E0822F1F910F91EF90DF9008
:0A530A00CF908F907F906F90089570
:1053140090E0880F991F682B84EA8093BC009091D9
:10532400BC009923E4F78091B900887F883099F410
:105334006093BB0084E88093BC008091BC00882308
:10534400E4F78091B900887F883121F0803419F422
:0853540080E0089580E0089557
:10535C00CF92DF92EF920F931F93CF93DF93EC01D9
:10536C006B0180E8E82E8E2DB6010E94DC2F409751
:10537C0049F42E2D86014AEF57E060E0CE010E94E1
:10538C00C32702C08FEF9FEFDF91CF911F910F9139
:08539C00EF90DF90CF9008951F
:1053A400CF92DF92EF920F931F93CF93DF93EC0191
:1053B4006B0180E8E82E8E2DB6010E94DC2F409709
:1053C40049F42E2D860149E058E060E0CE010E94A8
:1053D400C32702C08FEF9FEFDF91CF911F910F91F1
:0853E400EF90DF90CF900895D7
:1053EC00CF92DF92EF920F931F93CF93DF93EC0149
:1053FC006B0180E8E82E8E2DB6010E94DC2F809781
:10540C0049F42E2D860148E158E060E0CE010E945F
:10541C00C32702C08FEF9FEFDF91CF911F910F91A8
:08542C00EF90DF90CF9008958E
:10543400CF93DF931F92CDB7DEB79AB192609AB93A
:10544400E1ECF0E09081977F90839BB19D7F9BB9C5
:10545400AFE9BFE01197F1F700C0000090819860B8
:105464009083898361E0CE0101960E944C2C0F90B9
:06547400DF91CF910895C5
:10547A008091B90E9091BA0E2091B70E3091B80E64
:10548A00A9014F5F5F4F5093B80E4093B70E220F9A
:10549A00331F820F931F0E9452262091B70E30911C
:1054AA00B80E8091BB0E9091BC0E2817390710F0E8
:0654BA000E94EA3408958F
:1054C0000E949A342FEF89E698E121508040904065
:1054D000E1F700C000000E949E340E947E338823C2
:1054E000E1F38EE592E00E9407306EE572E080E81D
:1054F0002EED38E040E00E946529882311F080E01D
:06550000089581E008950A
:105506008091C50E9091C60E2091C30E3091C40EA7
:10551600A9014F5F5F4F5093C40E4093C30E220FF5
:10552600331F820F931F0E945B1E2091C30E309182
:10553600C40E8091C70E9091C80E2817390710F037
:065546000E94FB330895F2
:10554C00AFE0B0E0ECEAFAE20C947B2D0E891F89F7
:10555C0086E08D831A8309838FEF9FE79F838E8369
:10556C009E01255E3F4F488D598D6A8DCE01019667
:10557C000E948504E885F985E00FF11F10822F96B3
:06558C00E4E00C94E82DA0
:1055920057FD9058440F551F59F05F3F71F04795E2
:1055A200880F97FB991F61F09F3F79F087950895C7
:1055B200121613061406551FF2CF4695F1DF08C0E6
:1055C200161617061806991FF1CF86957105610503
:0455D200089408959C
:1055D600CF92DF92EF9221503109C0F06B01E82E95
:1055E600C20ED31EE11CCA01820F931F422F732FD6
:1055F600F6015E2D0E948D34262F0E94683031E020
:10560600C31AD108E1084150704090F7EF90DF903F
:04561600CF90089594
:10561A00A1E21A2EAA1BBB1BFD010DC0AA1FBB1FAC
:10562A00EE1FFF1FA217B307E407F50720F0A21B1E
:10563A00B30BE40BF50B661F771F881F991F1A948B
:10564A0069F760957095809590959B01AC01BD01B5
:04565A00CF010895DF
:10565E0090E0880F991F282F216084EA8093BC0068
:10566E009091BC009923E4F78091B900887F803136
:10567E0079F42093BB0084E88093BC008091BC0039
:10568E008823E4F78091B900887F803409F480E0A4
:02569E0008956D
:1056A000EF92FF920F931F9360939F0E7093A00E43
:1056B0008093A10E9093A20E20939B0E30939C0E8C
:1056C00040939D0E50939E0EE092970EF092980E8E
:1056D0000093990E10939A0E1F910F91FF90EF90E7
:0256E00008952B
:1056E200CF92DF92EF926B01E82EF6018491E7FCF4
:1056F2008081F901549147FD508185130BC08823A5
:1057020041F08FEFC81AD80AE80A2F5F3F4F4F4F78
:10571200ECCF582F90E0851B9109EF90DF90CF904E
:025722000895E8
:10572400CF93C0E019C081E00E94C0322FEF80E720
:1057340092E0215080409040E1F700C0000080E0FA
:105744000E94C0322FEF80E792E0215080409040C9
:10575400E1F700C00000CF5FCA3028F3CF9108956D
:10576400CF93DF93CDB7DEB7E4970FB6F894DEBFDF
:105774000FBECDBFAE014C5C5F4FBE016F5F7F4F6C
:105784000E94F71E6CA9CE0101960E94AE2FE496EA
:105794000FB6F894DEBF0FBECDBFDF91CF91089551
:1057A400CF93DF93CDB7DEB7E4970FB6F894DEBF9F
:1057B4000FBECDBFBE016C5C7F4FCE0101960E942F
:1057C4009B306CA9CE0101960E94AE2FE4960FB6D1
:0E57D400F894DEBF0FBECDBFDF91CF910895D8
:1057E200CF93DF93CDB7DEB7E4970FB6F894DEBF61
:1057F2000FBECDBFBE016C5C7F4FCE0101960E94F1
:10580200AC306CA9CE0101960E94AE2FE4960FB681
:0E581200F894DEBF0FBECDBFDF91CF91089599
:1058200084B18B7F84B9E9E6F0E080818F7E80834C
:105830008081806280838DB384608DBB83B7817FDC
:10584000846083BF83B7816083BF7894889583B772
:0C5850008E7F83BF8DB38B7F8DBB0895CE
:10585C00E1ECF0E0808180618083808188608083CE
:10586C00808180688083808180648083E0ECF0E0BC
:10587C0080818260808386E08093C20080E190E02A
:0C588C009093C5008093C40078940895A8
:10589800DC018091D20E8111FCCF90E00BC0292F42
:1058A80030E0FD01E20FF31F4081F901EA56FE4F97
:1058B80040839F5F961798F36093D20E81E08093A0
:0C58C800D10E809196018093C6000895D7
:1058D400E9ECF0E08081806180838081886080834E
:1058E400808180688083808180648083E8ECF0E03C
:1058F40080818260808386E08093CA0080E190E0AA
:0C5904009093CD008093CC00789408951F
:10591000082E000C990BFC01EE0FFF1FEE57F14F04
:1059200020813181232B81F0880F991FFC01EE57D4
:10593000F14F118210828091CE0E81508093CE0E55
:0A594000811102C00E94CD340895C9
:10594A000E9470330E9493330E946F34882349F077
:10595A0081E00E94C0320E947D1280E00E94C03223
:10596A0002C00E9427082FEF81E19AE72150804068
:0A597A009040E1F700C00000E7CF05
:10598400CF92DF92EF926B01E82E0E94DC2F4097BA
:1059940079F420E130E040E050E08E2DB6010E9421
:1059A400EB2A61E080E490E00E94673081E001C06E
:0A59B40080E0EF90DF90CF9008959F
:1059BE00CF92DF92EF926B01E82E0E94DC2F409780
